{
  "contracts/EventChain.sol": {
    "EventChain": {
      "abi": [
        {
          "inputs": [
            {
              "internalType": "address",
              "name": "_mentoExchange",
              "type": "address"
            },
            {
              "internalType": "address[]",
              "name": "_supportedTokens",
              "type": "address[]"
            }
          ],
          "stateMutability": "nonpayable",
          "type": "constructor"
        },
        {
          "anonymous": false,
          "inputs": [
            {
              "indexed": true,
              "internalType": "uint256",
              "name": "eventId",
              "type": "uint256"
            }
          ],
          "name": "EventCanceled",
          "type": "event"
        },
        {
          "anonymous": false,
          "inputs": [
            {
              "indexed": true,
              "internalType": "uint256",
              "name": "eventId",
              "type": "uint256"
            },
            {
              "indexed": false,
              "internalType": "uint256",
              "name": "amount",
              "type": "uint256"
            }
          ],
          "name": "FundsReleased",
          "type": "event"
        },
        {
          "anonymous": false,
          "inputs": [
            {
              "indexed": true,
              "internalType": "uint256",
              "name": "eventId",
              "type": "uint256"
            },
            {
              "indexed": true,
              "internalType": "address",
              "name": "user",
              "type": "address"
            },
            {
              "indexed": false,
              "internalType": "uint256",
              "name": "amount",
              "type": "uint256"
            }
          ],
          "name": "RefundIssued",
          "type": "event"
        },
        {
          "anonymous": false,
          "inputs": [
            {
              "indexed": true,
              "internalType": "uint256",
              "name": "eventId",
              "type": "uint256"
            },
            {
              "indexed": true,
              "internalType": "address",
              "name": "buyer",
              "type": "address"
            },
            {
              "indexed": false,
              "internalType": "uint256",
              "name": "amount",
              "type": "uint256"
            },
            {
              "indexed": false,
              "internalType": "address",
              "name": "paymentToken",
              "type": "address"
            }
          ],
          "name": "TicketPurchased",
          "type": "event"
        },
        {
          "inputs": [
            {
              "internalType": "uint256",
              "name": "_index",
              "type": "uint256"
            }
          ],
          "name": "buyTicket",
          "outputs": [],
          "stateMutability": "nonpayable",
          "type": "function"
        },
        {
          "inputs": [
            {
              "internalType": "uint256",
              "name": "_index",
              "type": "uint256"
            }
          ],
          "name": "cancelEvent",
          "outputs": [],
          "stateMutability": "nonpayable",
          "type": "function"
        },
        {
          "inputs": [
            {
              "internalType": "string",
              "name": "_eventName",
              "type": "string"
            },
            {
              "internalType": "string",
              "name": "_eventCardImgUrl",
              "type": "string"
            },
            {
              "internalType": "string",
              "name": "_eventDetails",
              "type": "string"
            },
            {
              "internalType": "uint64",
              "name": "_eventDate",
              "type": "uint64"
            },
            {
              "internalType": "uint64",
              "name": "_startTime",
              "type": "uint64"
            },
            {
              "internalType": "uint64",
              "name": "_endTime",
              "type": "uint64"
            },
            {
              "internalType": "string",
              "name": "_eventLocation",
              "type": "string"
            },
            {
              "internalType": "uint256",
              "name": "_ticketPrice",
              "type": "uint256"
            },
            {
              "internalType": "address",
              "name": "_paymentToken",
              "type": "address"
            }
          ],
          "name": "createEvent",
          "outputs": [],
          "stateMutability": "nonpayable",
          "type": "function"
        },
        {
          "inputs": [
            {
              "internalType": "uint256",
              "name": "",
              "type": "uint256"
            }
          ],
          "name": "events",
          "outputs": [
            {
              "internalType": "address",
              "name": "owner",
              "type": "address"
            },
            {
              "internalType": "string",
              "name": "eventName",
              "type": "string"
            },
            {
              "internalType": "string",
              "name": "eventCardImgUrl",
              "type": "string"
            },
            {
              "internalType": "string",
              "name": "eventDetails",
              "type": "string"
            },
            {
              "internalType": "uint64",
              "name": "eventDate",
              "type": "uint64"
            },
            {
              "internalType": "uint64",
              "name": "startTime",
              "type": "uint64"
            },
            {
              "internalType": "uint64",
              "name": "endTime",
              "type": "uint64"
            },
            {
              "internalType": "string",
              "name": "eventLocation",
              "type": "string"
            },
            {
              "internalType": "bool",
              "name": "isActive",
              "type": "bool"
            },
            {
              "internalType": "uint256",
              "name": "ticketPrice",
              "type": "uint256"
            },
            {
              "internalType": "uint256",
              "name": "fundsHeld",
              "type": "uint256"
            },
            {
              "internalType": "bool",
              "name": "isCanceled",
              "type": "bool"
            },
            {
              "internalType": "bool",
              "name": "fundsReleased",
              "type": "bool"
            },
            {
              "internalType": "address",
              "name": "paymentToken",
              "type": "address"
            }
          ],
          "stateMutability": "view",
          "type": "function"
        },
        {
          "inputs": [],
          "name": "getActiveEventsByCreator",
          "outputs": [
            {
              "internalType": "uint256[]",
              "name": "",
              "type": "uint256[]"
            },
            {
              "components": [
                {
                  "internalType": "address",
                  "name": "owner",
                  "type": "address"
                },
                {
                  "internalType": "string",
                  "name": "eventName",
                  "type": "string"
                },
                {
                  "internalType": "string",
                  "name": "eventCardImgUrl",
                  "type": "string"
                },
                {
                  "internalType": "string",
                  "name": "eventDetails",
                  "type": "string"
                },
                {
                  "internalType": "uint64",
                  "name": "eventDate",
                  "type": "uint64"
                },
                {
                  "internalType": "uint64",
                  "name": "startTime",
                  "type": "uint64"
                },
                {
                  "internalType": "uint64",
                  "name": "endTime",
                  "type": "uint64"
                },
                {
                  "internalType": "string",
                  "name": "eventLocation",
                  "type": "string"
                },
                {
                  "internalType": "bool",
                  "name": "isActive",
                  "type": "bool"
                },
                {
                  "internalType": "uint256",
                  "name": "ticketPrice",
                  "type": "uint256"
                },
                {
                  "internalType": "uint256",
                  "name": "fundsHeld",
                  "type": "uint256"
                },
                {
                  "internalType": "bool",
                  "name": "isCanceled",
                  "type": "bool"
                },
                {
                  "internalType": "bool",
                  "name": "fundsReleased",
                  "type": "bool"
                },
                {
                  "internalType": "address",
                  "name": "paymentToken",
                  "type": "address"
                }
              ],
              "internalType": "struct EventChain.Event[]",
              "name": "",
              "type": "tuple[]"
            }
          ],
          "stateMutability": "view",
          "type": "function"
        },
        {
          "inputs": [],
          "name": "getAllEvents",
          "outputs": [
            {
              "internalType": "uint256[]",
              "name": "",
              "type": "uint256[]"
            },
            {
              "components": [
                {
                  "internalType": "address",
                  "name": "owner",
                  "type": "address"
                },
                {
                  "internalType": "string",
                  "name": "eventName",
                  "type": "string"
                },
                {
                  "internalType": "string",
                  "name": "eventCardImgUrl",
                  "type": "string"
                },
                {
                  "internalType": "string",
                  "name": "eventDetails",
                  "type": "string"
                },
                {
                  "internalType": "uint64",
                  "name": "eventDate",
                  "type": "uint64"
                },
                {
                  "internalType": "uint64",
                  "name": "startTime",
                  "type": "uint64"
                },
                {
                  "internalType": "uint64",
                  "name": "endTime",
                  "type": "uint64"
                },
                {
                  "internalType": "string",
                  "name": "eventLocation",
                  "type": "string"
                },
                {
                  "internalType": "bool",
                  "name": "isActive",
                  "type": "bool"
                },
                {
                  "internalType": "uint256",
                  "name": "ticketPrice",
                  "type": "uint256"
                },
                {
                  "internalType": "uint256",
                  "name": "fundsHeld",
                  "type": "uint256"
                },
                {
                  "internalType": "bool",
                  "name": "isCanceled",
                  "type": "bool"
                },
                {
                  "internalType": "bool",
                  "name": "fundsReleased",
                  "type": "bool"
                },
                {
                  "internalType": "address",
                  "name": "paymentToken",
                  "type": "address"
                }
              ],
              "internalType": "struct EventChain.Event[]",
              "name": "",
              "type": "tuple[]"
            }
          ],
          "stateMutability": "view",
          "type": "function"
        },
        {
          "inputs": [
            {
              "internalType": "uint256",
              "name": "_index",
              "type": "uint256"
            }
          ],
          "name": "getAttendees",
          "outputs": [
            {
              "internalType": "address[]",
              "name": "",
              "type": "address[]"
            }
          ],
          "stateMutability": "view",
          "type": "function"
        },
        {
          "inputs": [
            {
              "internalType": "uint256",
              "name": "_index",
              "type": "uint256"
            }
          ],
          "name": "getEventById",
          "outputs": [
            {
              "components": [
                {
                  "internalType": "address",
                  "name": "owner",
                  "type": "address"
                },
                {
                  "internalType": "string",
                  "name": "eventName",
                  "type": "string"
                },
                {
                  "internalType": "string",
                  "name": "eventCardImgUrl",
                  "type": "string"
                },
                {
                  "internalType": "string",
                  "name": "eventDetails",
                  "type": "string"
                },
                {
                  "internalType": "uint64",
                  "name": "eventDate",
                  "type": "uint64"
                },
                {
                  "internalType": "uint64",
                  "name": "startTime",
                  "type": "uint64"
                },
                {
                  "internalType": "uint64",
                  "name": "endTime",
                  "type": "uint64"
                },
                {
                  "internalType": "string",
                  "name": "eventLocation",
                  "type": "string"
                },
                {
                  "internalType": "bool",
                  "name": "isActive",
                  "type": "bool"
                },
                {
                  "internalType": "uint256",
                  "name": "ticketPrice",
                  "type": "uint256"
                },
                {
                  "internalType": "uint256",
                  "name": "fundsHeld",
                  "type": "uint256"
                },
                {
                  "internalType": "bool",
                  "name": "isCanceled",
                  "type": "bool"
                },
                {
                  "internalType": "bool",
                  "name": "fundsReleased",
                  "type": "bool"
                },
                {
                  "internalType": "address",
                  "name": "paymentToken",
                  "type": "address"
                }
              ],
              "internalType": "struct EventChain.Event",
              "name": "",
              "type": "tuple"
            },
            {
              "internalType": "address[]",
              "name": "",
              "type": "address[]"
            },
            {
              "components": [
                {
                  "internalType": "address",
                  "name": "owner",
                  "type": "address"
                },
                {
                  "internalType": "string",
                  "name": "eventName",
                  "type": "string"
                },
                {
                  "internalType": "string",
                  "name": "eventCardImgUrl",
                  "type": "string"
                },
                {
                  "internalType": "string",
                  "name": "eventDetails",
                  "type": "string"
                },
                {
                  "internalType": "uint64",
                  "name": "eventDate",
                  "type": "uint64"
                },
                {
                  "internalType": "uint64",
                  "name": "startTime",
                  "type": "uint64"
                },
                {
                  "internalType": "uint64",
                  "name": "endTime",
                  "type": "uint64"
                },
                {
                  "internalType": "string",
                  "name": "eventLocation",
                  "type": "string"
                },
                {
                  "internalType": "bool",
                  "name": "isActive",
                  "type": "bool"
                },
                {
                  "internalType": "uint256",
                  "name": "ticketPrice",
                  "type": "uint256"
                },
                {
                  "internalType": "uint256",
                  "name": "fundsHeld",
                  "type": "uint256"
                },
                {
                  "internalType": "bool",
                  "name": "isCanceled",
                  "type": "bool"
                },
                {
                  "internalType": "bool",
                  "name": "fundsReleased",
                  "type": "bool"
                },
                {
                  "internalType": "address",
                  "name": "paymentToken",
                  "type": "address"
                }
              ],
              "internalType": "struct EventChain.Event[]",
              "name": "",
              "type": "tuple[]"
            }
          ],
          "stateMutability": "view",
          "type": "function"
        },
        {
          "inputs": [],
          "name": "getEventLength",
          "outputs": [
            {
              "internalType": "uint256",
              "name": "",
              "type": "uint256"
            }
          ],
          "stateMutability": "view",
          "type": "function"
        },
        {
          "inputs": [
            {
              "internalType": "address",
              "name": "_creator",
              "type": "address"
            }
          ],
          "name": "getEventsByCreator",
          "outputs": [
            {
              "components": [
                {
                  "internalType": "address",
                  "name": "owner",
                  "type": "address"
                },
                {
                  "internalType": "string",
                  "name": "eventName",
                  "type": "string"
                },
                {
                  "internalType": "string",
                  "name": "eventCardImgUrl",
                  "type": "string"
                },
                {
                  "internalType": "string",
                  "name": "eventDetails",
                  "type": "string"
                },
                {
                  "internalType": "uint64",
                  "name": "eventDate",
                  "type": "uint64"
                },
                {
                  "internalType": "uint64",
                  "name": "startTime",
                  "type": "uint64"
                },
                {
                  "internalType": "uint64",
                  "name": "endTime",
                  "type": "uint64"
                },
                {
                  "internalType": "string",
                  "name": "eventLocation",
                  "type": "string"
                },
                {
                  "internalType": "bool",
                  "name": "isActive",
                  "type": "bool"
                },
                {
                  "internalType": "uint256",
                  "name": "ticketPrice",
                  "type": "uint256"
                },
                {
                  "internalType": "uint256",
                  "name": "fundsHeld",
                  "type": "uint256"
                },
                {
                  "internalType": "bool",
                  "name": "isCanceled",
                  "type": "bool"
                },
                {
                  "internalType": "bool",
                  "name": "fundsReleased",
                  "type": "bool"
                },
                {
                  "internalType": "address",
                  "name": "paymentToken",
                  "type": "address"
                }
              ],
              "internalType": "struct EventChain.Event[]",
              "name": "",
              "type": "tuple[]"
            }
          ],
          "stateMutability": "view",
          "type": "function"
        },
        {
          "inputs": [
            {
              "internalType": "uint256",
              "name": "",
              "type": "uint256"
            },
            {
              "internalType": "address",
              "name": "",
              "type": "address"
            }
          ],
          "name": "hasPurchasedTicket",
          "outputs": [
            {
              "internalType": "bool",
              "name": "",
              "type": "bool"
            }
          ],
          "stateMutability": "view",
          "type": "function"
        },
        {
          "inputs": [],
          "name": "mentoExchange",
          "outputs": [
            {
              "internalType": "contract IMentoExchange",
              "name": "",
              "type": "address"
            }
          ],
          "stateMutability": "view",
          "type": "function"
        },
        {
          "inputs": [
            {
              "internalType": "uint256",
              "name": "_index",
              "type": "uint256"
            }
          ],
          "name": "releaseFunds",
          "outputs": [],
          "stateMutability": "nonpayable",
          "type": "function"
        },
        {
          "inputs": [
            {
              "internalType": "uint256",
              "name": "_index",
              "type": "uint256"
            }
          ],
          "name": "requestRefund",
          "outputs": [],
          "stateMutability": "nonpayable",
          "type": "function"
        },
        {
          "inputs": [
            {
              "internalType": "address",
              "name": "",
              "type": "address"
            }
          ],
          "name": "supportedTokens",
          "outputs": [
            {
              "internalType": "bool",
              "name": "",
              "type": "bool"
            }
          ],
          "stateMutability": "view",
          "type": "function"
        }
      ],
      "evm": {
        "bytecode": {
          "linkReferences": {},
          "object": "608060405234610117576125bb8038038061001981610132565b9283398101906040818303126101175761003281610157565b602082015190916001600160401b03821161011757019180601f84011215610117578251926001600160401b03841161011c578360051b90602080610078818501610132565b80978152019282010192831161011757602001905b8282106100ff575050600080546001600160a01b0319166001600160a01b0393909316929092178255505b81518110156100f05760019060406000838060a01b0360208460051b8701015116815283602052208260ff19825416179055016100b8565b60405161244f908161016c8239f35b6020809161010c84610157565b81520191019061008d565b600080fd5b634e487b7160e01b600052604160045260246000fd5b6040519190601f01601f191682016001600160401b0381118382101761011c57604052565b51906001600160a01b03821682036101175756fe6080604052600436101561001257600080fd5b60003560e01c80630b79143014611b6a5780631ad5213514610ec45780632002058114610e765780633f69babd14610da7578063439fd35f14610d4f5780634d68282f14610b875780635c98dfa114610b6957806367dd74ca1461080657806368c4ac26146107c7578063a4b2409e14610412578063b98079bc14610320578063bd287c76146102f7578063c27a500d14610243578063ccfd6d3c146101175763e0c14377146100c157600080fd5b34610112576020366003190112610112576004356100e26002548210612247565b600052600360205261010e6100fa6040600020612320565b604051918291602083526020830190612024565b0390f35b600080fd5b34610112576000366003190112610112576002546000805b8281106101ef575061014961014382612383565b916123b5565b916000805b8281106101675750505061010e60405192839283612061565b61017081611cba565b50546001600160a01b03163314806101d8575b610190575b60010161014e565b906101d081836101a260019488612405565b526101b56101af85611cba565b506120cb565b6101bf8289612405565b526101ca8188612405565b50612374565b919050610188565b5060ff60066101e683611cba565b50015416610183565b6101f881611cba565b50546001600160a01b031633148061022c575b610218575b60010161012f565b90610224600191612374565b919050610210565b5060ff600661023a83611cba565b5001541661020b565b34610112576000366003190112610112576002546000805b8281106102c5575061026f61014382612383565b916000805b82811061028d5750505061010e60405192839283612061565b60ff600661029a83611cba565b500154166102ab575b600101610274565b906102bd81836101a260019488612405565b9190506102a3565b60ff60066102d283611cba565b500154166102e3575b60010161025b565b906102ef600191612374565b9190506102db565b34610112576000366003190112610112576000546040516001600160a01b039091168152602090f35b346101125760203660031901126101125760043561033c6122b6565b506002548110156103d6578061010e6103576103ba93611cba565b5082600052600360205261036f604060002093611cba565b5060018060a01b0390541660005260046020526103c86103a561039f6103996040600020946120cb565b95612320565b926121b0565b91604051958695606087526060870190611ed3565b908582036020870152612024565b908382036040850152611fcb565b60405162461bcd60e51b8152602060048201526014602482015273115d995b9d08191bd95cc81b9bdd08195e1a5cdd60621b6044820152606490fd5b34610112576020366003190112610112576004356104336002548210612247565b600081815260056020908152604080832033845290915290205460ff161561078c5760ff600961046283611cba565b500154161561070a575b600761047782611cba565b5001549081600861048783611cba565b500154106106c55760008181526005602090815260408083203384529091529020805460ff1916905560086104bb82611cba565b50018054908382039182116106a6575580600052600360205260406000209060005b8254808210156106bc576104f1828561229e565b905460039190911b1c6001600160a01b0316331461051257506001016104dd565b9192916000198101919082116106a65761054b61053261056f938561229e565b905460039190911b1c6001600160a01b0316918461229e565b81546001600160a01b0393841660039290921b91821b9390911b1916919091179055565b80548015610690576000190190610586828261229e565b81549060018060a01b039060031b1b19169055555b600060206105a883611cba565b506009015460405163a9059cbb60e01b815233600482015260248101869052928391604491839160101c6001600160a01b03165af190811561068457600091610655575b5015610620576040519182527f7a482fdeb6bc9a1376f597068a214a7a39472bb2eff1b8cad21ba04f49ddca1b60203393a3005b60405162461bcd60e51b815260206004820152600d60248201526c1499599d5b990819985a5b1959609a1b6044820152606490fd5b610677915060203d60201161067d575b61066f8183611d61565b810190612286565b836105ec565b503d610665565b6040513d6000823e3d90fd5b634e487b7160e01b600052603160045260246000fd5b634e487b7160e01b600052601160045260246000fd5b5050905061059b565b60405162461bcd60e51b815260206004820152601c60248201527f496e73756666696369656e742066756e647320696e20657363726f77000000006044820152606490fd5b61071381611cba565b506001600160401b03600461464f1992015460401c16016001600160401b0381116106a6576001600160401b0316421061046c5760405162461bcd60e51b815260206004820152601760248201527f526566756e6420706572696f642068617320656e6465640000000000000000006044820152606490fd5b60405162461bcd60e51b8152602060048201526013602482015272139bc81d1a58dad95d081c1d5c98da185cd959606a1b6044820152606490fd5b34610112576020366003190112610112576001600160a01b036107e8611ebd565b166000526001602052602060ff604060002054166040519015158152f35b34610112576020366003190112610112576004356108276002548210612247565b6001600160401b03600461083a83611cba565b50015416421015610b345760ff600661085283611cba565b5001541615610afb57600081815260056020908152604080832033845290915290205460ff16610ac257600761088782611cba565b5001549061089481611cba565b5060090154604051636eb1769f60e11b815233600482015230602482015260109190911c6001600160a01b031690602081604481855afa8015610684578491600091610a8d575b5010610a48576040516323b872dd60e01b8152336004820152306024820152604481018490526020816064816000865af190811561068457600091610a29575b50156109f35760008281526005602090815260408083203384528252808320805460ff1916600117905584835260039091529020805490600160401b8210156109dd578161097191600161098f9401815561229e565b81546001600160a01b0360039290921b91821b19163390911b179055565b600861099a83611cba565b50018054908482018092116106a6575560405192835260208301527f504ef6dabca28c1452704d54bd8e25708d87e0c27d852eceea53a0c0d898675860403393a3005b634e487b7160e01b600052604160045260246000fd5b60405162461bcd60e51b815260206004820152600e60248201526d14185e5b595b9d0819985a5b195960921b6044820152606490fd5b610a42915060203d60201161067d5761066f8183611d61565b8461091b565b60405162461bcd60e51b815260206004820152601c60248201527f496e73756666696369656e7420746f6b656e20616c6c6f77616e6365000000006044820152606490fd5b9150506020813d602011610aba575b81610aa960209383611d61565b8101031261011257839051856108db565b3d9150610a9c565b60405162461bcd60e51b8152602060048201526011602482015270105b1c9958591e481c1d5c98da185cd959607a1b6044820152606490fd5b60405162461bcd60e51b81526020600482015260116024820152704576656e7420697320696e61637469766560781b6044820152606490fd5b60405162461bcd60e51b815260206004820152600d60248201526c115d995b9d08195e1c1a5c9959609a1b6044820152606490fd5b34610112576000366003190112610112576020600254604051908152f35b3461011257602036600319011261011257600435610bb9610ba782611cba565b50546001600160a01b03163314612209565b610bc66002548210612247565b6001600160401b036004610bd983611cba565b50015416421115610d0a5760ff6009610bf183611cba565b50015416610cb35760ff6009610c0683611cba565b50015460081c16610c75577f80230996023d69b50793fa73f1919127c9d8e741d3989743c479169f22e7a28860206008610c3f84611cba565b50015460006008610c4f86611cba565b5001556009610c5d85611cba565b5001805461ff001916610100179055604051908152a2005b60405162461bcd60e51b8152602060048201526016602482015275119d5b991cc8185b1c9958591e481c995b19585cd95960521b6044820152606490fd5b60405162461bcd60e51b815260206004820152602960248201527f43616e6e6f742072656c656173652066756e647320666f7220612063616e63656044820152681b195908195d995b9d60ba1b6064820152608490fd5b60405162461bcd60e51b815260206004820152601a60248201527f4576656e7420686173206e6f74206f63637572726564207965740000000000006044820152606490fd5b34610112576040366003190112610112576024356001600160a01b038116810361011257600435600052600560205260406000209060018060a01b0316600052602052602060ff604060002054166040519015158152f35b3461011257602036600319011261011257600435610dc7610ba782611cba565b610dd46002548210612247565b60ff6006610de183611cba565b5001541615610e3e576006610df582611cba565b5001805460ff191690556009610e0a82611cba565b5001805460ff191660011790557fceaf11772900fe569752a0207c8639fb8228eb8663456dc9eaa3a08f927a8705600080a2005b60405162461bcd60e51b815260206004820152601060248201526f105b1c9958591e4818d85b98d95b195960821b6044820152606490fd5b34610112576020366003190112610112576001600160a01b03610e97611ebd565b16600052600460205261010e610eb060406000206121b0565b604051918291602083526020830190611fcb565b3461011257610120366003190112610112576004356001600160401b03811161011257610ef5903690600401611e67565b6024356001600160401b03811161011257610f14903690600401611e67565b6044356001600160401b03811161011257610f33903690600401611e67565b6064356001600160401b038116809103610112576084356001600160401b0381168091036101125760a435916001600160401b0383168093036101125760c4356001600160401b03811161011257610f8f903690600401611e67565b93610104359560018060a01b0387168097036101125760405197610fb289611d45565b338952602089015260408801526060870152608086015260a085015260c084015260e0830152600161010083015260e4356101208301526000610140830152600061016083015260006101808301526101a0820152600254600160401b8110156109dd5780600161102892016002556002611cef565b91909161185357805182546001600160a01b0319166001600160a01b0391909116178255602081015180519092906001600160401b0381116109dd576110716001830154611d0b565b601f8111611b23575b506020601f8211600114611ab65781929394600092611aab575b50508160011b916000199060031b1c19161760018201555b60408201519182516001600160401b0381116109dd576110cf6002840154611d0b565b601f8111611a64575b506020601f82116001146119f757819293946000926119ec575b50508160011b916000199060031b1c19161760028301555b60608101519182516001600160401b0381116109dd5761112d6003830154611d0b565b601f81116119a5575b506020601f8211600114611938578192939460009261192d575b50508160011b916000199060031b1c19161760038201555b600481016001600160401b0360808401511681549067ffffffffffffffff60401b60a086015160401b16906001600160401b0360801b60c087015160801b16926001600160401b0360c01b16171717905560e08201518051906001600160401b0382116109dd576111dc6005840154611d0b565b601f81116118e6575b50602090601f831160011461187457600993929160009183611869575b50508160011b916000199060031b1c19161760058201555b61123a6101008401511515600683019060ff801983541691151516179055565b610120830151600782015561014083015160088201550161126e6101608301511515829060ff801983541691151516179055565b610180820151815461ff00191690151560081b61ff00161781556101a0820151815462010000600160b01b03191660109190911b62010000600160b01b03161790553360009081526004602052604090208054600160401b8110156109dd576112dc91600182018155611cef565b61185357815181546001600160a01b0319166001600160a01b03919091161781556020820151805190929060018301906001600160401b0381116109dd576113248254611d0b565b601f811161180b575b50602094601f82116001146117a65794819293949560009261179b575b50508160011b916000199060031b1c19161790555b600282019160408201519283516001600160401b0381116109dd576113848254611d0b565b601f8111611753575b50602094601f82116001146116ee579481929394956000926116e3575b50508160011b916000199060031b1c19161790555b600381019160608101519283516001600160401b0381116109dd576113e48254611d0b565b601f811161169b575b50602094601f82116001146116365794819293949560009261162b575b50508160011b916000199060031b1c19161790555b600482016001600160401b0360808301511681549067ffffffffffffffff60401b60a085015160401b16906001600160401b0360801b60c086015160801b16926001600160401b0360c01b161717179055600582019160e08201519283516001600160401b0381116109dd576114958254611d0b565b601f81116115e3575b506020601f821160011461157557908060099493926101a0969760009261156a575b50508160011b916000199060031b1c19161790555b6114f56101008501511515600683019060ff801983541691151516179055565b61012084015160078201556101408401516008820155019161152a6101608201511515849060ff801983541691151516179055565b610180810151835461ff00191690151560081b61ff00161783550151815462010000600160b01b03191660109190911b62010000600160b01b0316179055005b0151905087806114c0565b601f1982169583600052816000209660005b8181106115cb575096600192849260099796956101a0999a106115b2575b505050811b0190556114d5565b015160001960f88460031b161c191690558780806115a5565b83830151895560019098019760209384019301611587565b826000526020600020601f830160051c81019160208410611621575b601f0160051c01905b818110611615575061149e565b60008155600101611608565b90915081906115ff565b01519050858061140a565b601f1982169583600052806000209160005b8881106116835750836001959697981061166a575b505050811b01905561141f565b015160001960f88460031b161c1916905585808061165d565b91926020600181928685015181550194019201611648565b826000526020600020601f830160051c810191602084106116d9575b601f0160051c01905b8181106116cd57506113ed565b600081556001016116c0565b90915081906116b7565b0151905085806113aa565b601f1982169583600052806000209160005b88811061173b57508360019596979810611722575b505050811b0190556113bf565b015160001960f88460031b161c19169055858080611715565b91926020600181928685015181550194019201611700565b826000526020600020601f830160051c81019160208410611791575b601f0160051c01905b818110611785575061138d565b60008155600101611778565b909150819061176f565b01519050858061134a565b601f1982169583600052806000209160005b8881106117f3575083600195969798106117da575b505050811b01905561135f565b015160001960f88460031b161c191690558580806117cd565b919260206001819286850151815501940192016117b8565b826000526020600020601f830160051c81019160208410611849575b601f0160051c01905b81811061183d575061132d565b60008155600101611830565b9091508190611827565b634e487b7160e01b600052600060045260246000fd5b015190508580611202565b9060058401600052806000209160005b601f19851681106118ce575091839160019360099695601f198116106118b5575b505050811b01600582015561121a565b015160001960f88460031b161c191690558580806118a5565b91926020600181928685015181550194019201611884565b600584016000526020600020601f840160051c810160208510611926575b601f830160051c8201811061191a5750506111e5565b60008155600101611904565b5080611904565b015190508480611150565b60038301600052806000209060005b601f198416811061198d5750600193949583601f19811610611974575b505050811b016003820155611168565b015160001960f88460031b161c19169055848080611964565b9091602060018192858a015181550193019101611947565b600383016000526020600020601f830160051c8101602084106119e5575b601f830160051c820181106119d9575050611136565b600081556001016119c3565b50806119c3565b0151905084806110f2565b60028401600052806000209060005b601f1984168110611a4c5750600193949583601f19811610611a33575b505050811b01600283015561110a565b015160001960f88460031b161c19169055848080611a23565b9091602060018192858a015181550193019101611a06565b600284016000526020600020601f830160051c810160208410611aa4575b601f830160051c82018110611a985750506110d8565b60008155600101611a82565b5080611a82565b015190508480611094565b60018301600052806000209060005b601f1984168110611b0b5750600193949583601f19811610611af2575b505050811b0160018201556110ac565b015160001960f88460031b161c19169055848080611ae2565b9091602060018192858a015181550193019101611ac5565b600183016000526020600020601f830160051c810160208410611b63575b601f830160051c82018110611b5757505061107a565b60008155600101611b41565b5080611b41565b346101125760203660031901126101125760043560025481101561011257611b9190611cba565b5080546001600160a01b0316611ba960018301611d82565b91611bb660028201611d82565b611bc260038301611d82565b60048301549290611bd560058301611d82565b600683015460ff16946007840154926008850154946009015495604051998a998a5260208a016101c090526101c08a01611c0e91611e26565b89810360408b0152611c1f91611e26565b88810360608a0152611c3091611e26565b906001600160401b03811660808901528060401c6001600160401b031660a089015260801c6001600160401b031660c088015286810360e0880152611c7491611e26565b93151561010086015261012085015261014084015260ff8181161515610160850152600882901c16151561018084015260101c6001600160a01b03166101a08301520390f35b600254811015611cd9576002600052600a602060002091020190600090565b634e487b7160e01b600052603260045260246000fd5b8054821015611cd957600052600a602060002091020190600090565b90600182811c92168015611d3b575b6020831014611d2557565b634e487b7160e01b600052602260045260246000fd5b91607f1691611d1a565b6101c081019081106001600160401b038211176109dd57604052565b90601f801991011681019081106001600160401b038211176109dd57604052565b9060405191826000825492611d9684611d0b565b8084529360018116908115611e045750600114611dbd575b50611dbb92500383611d61565b565b90506000929192526020600020906000915b818310611de8575050906020611dbb9282010138611dae565b6020919350806001915483858901015201910190918492611dcf565b905060209250611dbb94915060ff191682840152151560051b82010138611dae565b919082519283825260005b848110611e52575050826000602080949584010152601f8019910116010190565b80602080928401015182828601015201611e31565b81601f82011215610112578035906001600160401b0382116109dd5760405192611e9b601f8401601f191660200185611d61565b8284526020838301011161011257816000926020809301838601378301015290565b600435906001600160a01b038216820361011257565b9060018060a01b0382511681526101a0611f76611f2b611f19611f0760208701516101c060208801526101c0870190611e26565b60408701518682036040880152611e26565b60608601518582036060870152611e26565b6001600160401b0360808601511660808501526001600160401b0360a08601511660a08501526001600160401b0360c08601511660c085015260e085015184820360e0860152611e26565b926101008101511515610100840152610120810151610120840152610140810151610140840152610160810151151561016084015261018081015115156101808401528160018060a01b039101511691015290565b9080602083519182815201916020808360051b8301019401926000915b838310611ff757505050505090565b9091929394602080612015600193601f198682030187528951611ed3565b97019301930191939290611fe8565b906020808351928381520192019060005b8181106120425750505090565b82516001600160a01b0316845260209384019390920191600101612035565b9291604084019360408152825180955260206060820193016000955b80871061209c5750506120999394506020818403910152611fcb565b90565b9093602080600192875181520195019601959061207d565b6001600160401b0381116109dd5760051b60200190565b906040516120d881611d45565b82546001600160a01b031681529182906101a0906009906120fb60018201611d82565b602085015261210c60028201611d82565b604085015261211d60038201611d82565b60608501526001600160401b0360048201548181166080870152818160401c1660a087015260801c1660c085015261215760058201611d82565b60e085015260ff600682015416151561010085015260078101546101208501526008810154610140850152015460ff8116151561016084015260ff8160081c16151561018084015260018060a01b039060101c16910152565b9081546121bc816120b4565b926121ca6040519485611d61565b818452602084019060005260206000206000915b8383106121eb5750505050565b600a60206001926121fb856120cb565b8152019201920191906121de565b1561221057565b60405162461bcd60e51b815260206004820152600f60248201526e2737ba1032bb32b73a1037bbb732b960891b6044820152606490fd5b1561224e57565b60405162461bcd60e51b815260206004820152601060248201526f125b9d985b1a5908195d995b9d08125160821b6044820152606490fd5b90816020910312610112575180151581036101125790565b8054821015611cd95760005260206000200190600090565b604051906122c382611d45565b60006101a08382815260606020820152606060408201526060808201528260808201528260a08201528260c0820152606060e082015282610100820152826101208201528261014082015282610160820152826101808201520152565b906040519182815491828252602082019060005260206000209260005b818110612352575050611dbb92500383611d61565b84546001600160a01b031683526001948501948794506020909301920161233d565b60001981146106a65760010190565b9061238d826120b4565b61239a6040519182611d61565b82815280926123ab601f19916120b4565b0190602036910137565b906123bf826120b4565b6123cc6040519182611d61565b82815280926123dd601f19916120b4565b019060005b8281106123ee57505050565b6020906123f96122b6565b828285010152016123e2565b8051821015611cd95760209160051b01019056fea2646970667358221220e0b3c2dcec838c98aa2c84c83e484fa73ae48f3f25d2dbe40384585f816f692264736f6c634300081c0033",
          "opcodes": "PUSH1 0x80 PUSH1 0x40 MSTORE CALLVALUE PUSH2 0x117 JUMPI PUSH2 0x25BB DUP1 CODESIZE SUB DUP1 PUSH2 0x19 DUP2 PUSH2 0x132 JUMP JUMPDEST SWAP3 DUP4 CODECOPY DUP2 ADD SWAP1 PUSH1 0x40 DUP2 DUP4 SUB SLT PUSH2 0x117 JUMPI PUSH2 0x32 DUP2 PUSH2 0x157 JUMP JUMPDEST PUSH1 0x20 DUP3 ADD MLOAD SWAP1 SWAP2 PUSH1 0x1 PUSH1 0x1 PUSH1 0x40 SHL SUB DUP3 GT PUSH2 0x117 JUMPI ADD SWAP2 DUP1 PUSH1 0x1F DUP5 ADD SLT ISZERO PUSH2 0x117 JUMPI DUP3 MLOAD SWAP3 PUSH1 0x1 PUSH1 0x1 PUSH1 0x40 SHL SUB DUP5 GT PUSH2 0x11C JUMPI DUP4 PUSH1 0x5 SHL SWAP1 PUSH1 0x20 DUP1 PUSH2 0x78 DUP2 DUP6 ADD PUSH2 0x132 JUMP JUMPDEST DUP1 SWAP8 DUP2 MSTORE ADD SWAP3 DUP3 ADD ADD SWAP3 DUP4 GT PUSH2 0x117 JUMPI PUSH1 0x20 ADD SWAP1 JUMPDEST DUP3 DUP3 LT PUSH2 0xFF JUMPI POP POP PUSH1 0x0 DUP1 SLOAD PUSH1 0x1 PUSH1 0x1 PUSH1 0xA0 SHL SUB NOT AND PUSH1 0x1 PUSH1 0x1 PUSH1 0xA0 SHL SUB SWAP4 SWAP1 SWAP4 AND SWAP3 SWAP1 SWAP3 OR DUP3 SSTORE POP JUMPDEST DUP2 MLOAD DUP2 LT ISZERO PUSH2 0xF0 JUMPI PUSH1 0x1 SWAP1 PUSH1 0x40 PUSH1 0x0 DUP4 DUP1 PUSH1 0xA0 SHL SUB PUSH1 0x20 DUP5 PUSH1 0x5 SHL DUP8 ADD ADD MLOAD AND DUP2 MSTORE DUP4 PUSH1 0x20 MSTORE KECCAK256 DUP3 PUSH1 0xFF NOT DUP3 SLOAD AND OR SWAP1 SSTORE ADD PUSH2 0xB8 JUMP JUMPDEST PUSH1 0x40 MLOAD PUSH2 0x244F SWAP1 DUP2 PUSH2 0x16C DUP3 CODECOPY RETURN JUMPDEST PUSH1 0x20 DUP1 SWAP2 PUSH2 0x10C DUP5 PUSH2 0x157 JUMP JUMPDEST DUP2 MSTORE ADD SWAP2 ADD SWAP1 PUSH2 0x8D JUMP JUMPDEST PUSH1 0x0 DUP1 REVERT JUMPDEST PUSH4 0x4E487B71 PUSH1 0xE0 SHL PUSH1 0x0 MSTORE PUSH1 0x41 PUSH1 0x4 MSTORE PUSH1 0x24 PUSH1 0x0 REVERT JUMPDEST PUSH1 0x40 MLOAD SWAP2 SWAP1 PUSH1 0x1F ADD PUSH1 0x1F NOT AND DUP3 ADD PUSH1 0x1 PUSH1 0x1 PUSH1 0x40 SHL SUB DUP2 GT DUP4 DUP3 LT OR PUSH2 0x11C JUMPI PUSH1 0x40 MSTORE JUMP JUMPDEST MLOAD SWAP1 PUSH1 0x1 PUSH1 0x1 PUSH1 0xA0 SHL SUB DUP3 AND DUP3 SUB PUSH2 0x117 JUMPI JUMP INVALID PUSH1 0x80 PUSH1 0x40 MSTORE PUSH1 0x4 CALLDATASIZE LT ISZERO PUSH2 0x12 JUMPI PUSH1 0x0 DUP1 REVERT JUMPDEST PUSH1 0x0 CALLDATALOAD PUSH1 0xE0 SHR DUP1 PUSH4 0xB791430 EQ PUSH2 0x1B6A JUMPI DUP1 PUSH4 0x1AD52135 EQ PUSH2 0xEC4 JUMPI DUP1 PUSH4 0x20020581 EQ PUSH2 0xE76 JUMPI DUP1 PUSH4 0x3F69BABD EQ PUSH2 0xDA7 JUMPI DUP1 PUSH4 0x439FD35F EQ PUSH2 0xD4F JUMPI DUP1 PUSH4 0x4D68282F EQ PUSH2 0xB87 JUMPI DUP1 PUSH4 0x5C98DFA1 EQ PUSH2 0xB69 JUMPI DUP1 PUSH4 0x67DD74CA EQ PUSH2 0x806 JUMPI DUP1 PUSH4 0x68C4AC26 EQ PUSH2 0x7C7 JUMPI DUP1 PUSH4 0xA4B2409E EQ PUSH2 0x412 JUMPI DUP1 PUSH4 0xB98079BC EQ PUSH2 0x320 JUMPI DUP1 PUSH4 0xBD287C76 EQ PUSH2 0x2F7 JUMPI DUP1 PUSH4 0xC27A500D EQ PUSH2 0x243 JUMPI DUP1 PUSH4 0xCCFD6D3C EQ PUSH2 0x117 JUMPI PUSH4 0xE0C14377 EQ PUSH2 0xC1 JUMPI PUSH1 0x0 DUP1 REVERT JUMPDEST CALLVALUE PUSH2 0x112 JUMPI PUSH1 0x20 CALLDATASIZE PUSH1 0x3 NOT ADD SLT PUSH2 0x112 JUMPI PUSH1 0x4 CALLDATALOAD PUSH2 0xE2 PUSH1 0x2 SLOAD DUP3 LT PUSH2 0x2247 JUMP JUMPDEST PUSH1 0x0 MSTORE PUSH1 0x3 PUSH1 0x20 MSTORE PUSH2 0x10E PUSH2 0xFA PUSH1 0x40 PUSH1 0x0 KECCAK256 PUSH2 0x2320 JUMP JUMPDEST PUSH1 0x40 MLOAD SWAP2 DUP3 SWAP2 PUSH1 0x20 DUP4 MSTORE PUSH1 0x20 DUP4 ADD SWAP1 PUSH2 0x2024 JUMP JUMPDEST SUB SWAP1 RETURN JUMPDEST PUSH1 0x0 DUP1 REVERT JUMPDEST CALLVALUE PUSH2 0x112 JUMPI PUSH1 0x0 CALLDATASIZE PUSH1 0x3 NOT ADD SLT PUSH2 0x112 JUMPI PUSH1 0x2 SLOAD PUSH1 0x0 DUP1 JUMPDEST DUP3 DUP2 LT PUSH2 0x1EF JUMPI POP PUSH2 0x149 PUSH2 0x143 DUP3 PUSH2 0x2383 JUMP JUMPDEST SWAP2 PUSH2 0x23B5 JUMP JUMPDEST SWAP2 PUSH1 0x0 DUP1 JUMPDEST DUP3 DUP2 LT PUSH2 0x167 JUMPI POP POP POP PUSH2 0x10E PUSH1 0x40 MLOAD SWAP3 DUP4 SWAP3 DUP4 PUSH2 0x2061 JUMP JUMPDEST PUSH2 0x170 DUP2 PUSH2 0x1CBA JUMP JUMPDEST POP SLOAD PUSH1 0x1 PUSH1 0x1 PUSH1 0xA0 SHL SUB AND CALLER EQ DUP1 PUSH2 0x1D8 JUMPI JUMPDEST PUSH2 0x190 JUMPI JUMPDEST PUSH1 0x1 ADD PUSH2 0x14E JUMP JUMPDEST SWAP1 PUSH2 0x1D0 DUP2 DUP4 PUSH2 0x1A2 PUSH1 0x1 SWAP5 DUP9 PUSH2 0x2405 JUMP JUMPDEST MSTORE PUSH2 0x1B5 PUSH2 0x1AF DUP6 PUSH2 0x1CBA JUMP JUMPDEST POP PUSH2 0x20CB JUMP JUMPDEST PUSH2 0x1BF DUP3 DUP10 PUSH2 0x2405 JUMP JUMPDEST MSTORE PUSH2 0x1CA DUP2 DUP9 PUSH2 0x2405 JUMP JUMPDEST POP PUSH2 0x2374 JUMP JUMPDEST SWAP2 SWAP1 POP PUSH2 0x188 JUMP JUMPDEST POP PUSH1 0xFF PUSH1 0x6 PUSH2 0x1E6 DUP4 PUSH2 0x1CBA JUMP JUMPDEST POP ADD SLOAD AND PUSH2 0x183 JUMP JUMPDEST PUSH2 0x1F8 DUP2 PUSH2 0x1CBA JUMP JUMPDEST POP SLOAD PUSH1 0x1 PUSH1 0x1 PUSH1 0xA0 SHL SUB AND CALLER EQ DUP1 PUSH2 0x22C JUMPI JUMPDEST PUSH2 0x218 JUMPI JUMPDEST PUSH1 0x1 ADD PUSH2 0x12F JUMP JUMPDEST SWAP1 PUSH2 0x224 PUSH1 0x1 SWAP2 PUSH2 0x2374 JUMP JUMPDEST SWAP2 SWAP1 POP PUSH2 0x210 JUMP JUMPDEST POP PUSH1 0xFF PUSH1 0x6 PUSH2 0x23A DUP4 PUSH2 0x1CBA JUMP JUMPDEST POP ADD SLOAD AND PUSH2 0x20B JUMP JUMPDEST CALLVALUE PUSH2 0x112 JUMPI PUSH1 0x0 CALLDATASIZE PUSH1 0x3 NOT ADD SLT PUSH2 0x112 JUMPI PUSH1 0x2 SLOAD PUSH1 0x0 DUP1 JUMPDEST DUP3 DUP2 LT PUSH2 0x2C5 JUMPI POP PUSH2 0x26F PUSH2 0x143 DUP3 PUSH2 0x2383 JUMP JUMPDEST SWAP2 PUSH1 0x0 DUP1 JUMPDEST DUP3 DUP2 LT PUSH2 0x28D JUMPI POP POP POP PUSH2 0x10E PUSH1 0x40 MLOAD SWAP3 DUP4 SWAP3 DUP4 PUSH2 0x2061 JUMP JUMPDEST PUSH1 0xFF PUSH1 0x6 PUSH2 0x29A DUP4 PUSH2 0x1CBA JUMP JUMPDEST POP ADD SLOAD AND PUSH2 0x2AB JUMPI JUMPDEST PUSH1 0x1 ADD PUSH2 0x274 JUMP JUMPDEST SWAP1 PUSH2 0x2BD DUP2 DUP4 PUSH2 0x1A2 PUSH1 0x1 SWAP5 DUP9 PUSH2 0x2405 JUMP JUMPDEST SWAP2 SWAP1 POP PUSH2 0x2A3 JUMP JUMPDEST PUSH1 0xFF PUSH1 0x6 PUSH2 0x2D2 DUP4 PUSH2 0x1CBA JUMP JUMPDEST POP ADD SLOAD AND PUSH2 0x2E3 JUMPI JUMPDEST PUSH1 0x1 ADD PUSH2 0x25B JUMP JUMPDEST SWAP1 PUSH2 0x2EF PUSH1 0x1 SWAP2 PUSH2 0x2374 JUMP JUMPDEST SWAP2 SWAP1 POP PUSH2 0x2DB JUMP JUMPDEST CALLVALUE PUSH2 0x112 JUMPI PUSH1 0x0 CALLDATASIZE PUSH1 0x3 NOT ADD SLT PUSH2 0x112 JUMPI PUSH1 0x0 SLOAD PUSH1 0x40 MLOAD PUSH1 0x1 PUSH1 0x1 PUSH1 0xA0 SHL SUB SWAP1 SWAP2 AND DUP2 MSTORE PUSH1 0x20 SWAP1 RETURN JUMPDEST CALLVALUE PUSH2 0x112 JUMPI PUSH1 0x20 CALLDATASIZE PUSH1 0x3 NOT ADD SLT PUSH2 0x112 JUMPI PUSH1 0x4 CALLDATALOAD PUSH2 0x33C PUSH2 0x22B6 JUMP JUMPDEST POP PUSH1 0x2 SLOAD DUP2 LT ISZERO PUSH2 0x3D6 JUMPI DUP1 PUSH2 0x10E PUSH2 0x357 PUSH2 0x3BA SWAP4 PUSH2 0x1CBA JUMP JUMPDEST POP DUP3 PUSH1 0x0 MSTORE PUSH1 0x3 PUSH1 0x20 MSTORE PUSH2 0x36F PUSH1 0x40 PUSH1 0x0 KECCAK256 SWAP4 PUSH2 0x1CBA JUMP JUMPDEST POP PUSH1 0x1 DUP1 PUSH1 0xA0 SHL SUB SWAP1 SLOAD AND PUSH1 0x0 MSTORE PUSH1 0x4 PUSH1 0x20 MSTORE PUSH2 0x3C8 PUSH2 0x3A5 PUSH2 0x39F PUSH2 0x399 PUSH1 0x40 PUSH1 0x0 KECCAK256 SWAP5 PUSH2 0x20CB JUMP JUMPDEST SWAP6 PUSH2 0x2320 JUMP JUMPDEST SWAP3 PUSH2 0x21B0 JUMP JUMPDEST SWAP2 PUSH1 0x40 MLOAD SWAP6 DUP7 SWAP6 PUSH1 0x60 DUP8 MSTORE PUSH1 0x60 DUP8 ADD SWAP1 PUSH2 0x1ED3 JUMP JUMPDEST SWAP1 DUP6 DUP3 SUB PUSH1 0x20 DUP8 ADD MSTORE PUSH2 0x2024 JUMP JUMPDEST SWAP1 DUP4 DUP3 SUB PUSH1 0x40 DUP6 ADD MSTORE PUSH2 0x1FCB JUMP JUMPDEST PUSH1 0x40 MLOAD PUSH3 0x461BCD PUSH1 0xE5 SHL DUP2 MSTORE PUSH1 0x20 PUSH1 0x4 DUP3 ADD MSTORE PUSH1 0x14 PUSH1 0x24 DUP3 ADD MSTORE PUSH20 0x115D995B9D08191BD95CC81B9BDD08195E1A5CDD PUSH1 0x62 SHL PUSH1 0x44 DUP3 ADD MSTORE PUSH1 0x64 SWAP1 REVERT JUMPDEST CALLVALUE PUSH2 0x112 JUMPI PUSH1 0x20 CALLDATASIZE PUSH1 0x3 NOT ADD SLT PUSH2 0x112 JUMPI PUSH1 0x4 CALLDATALOAD PUSH2 0x433 PUSH1 0x2 SLOAD DUP3 LT PUSH2 0x2247 JUMP JUMPDEST PUSH1 0x0 DUP2 DUP2 MSTORE PUSH1 0x5 PUSH1 0x20 SWAP1 DUP2 MSTORE PUSH1 0x40 DUP1 DUP4 KECCAK256 CALLER DUP5 MSTORE SWAP1 SWAP2 MSTORE SWAP1 KECCAK256 SLOAD PUSH1 0xFF AND ISZERO PUSH2 0x78C JUMPI PUSH1 0xFF PUSH1 0x9 PUSH2 0x462 DUP4 PUSH2 0x1CBA JUMP JUMPDEST POP ADD SLOAD AND ISZERO PUSH2 0x70A JUMPI JUMPDEST PUSH1 0x7 PUSH2 0x477 DUP3 PUSH2 0x1CBA JUMP JUMPDEST POP ADD SLOAD SWAP1 DUP2 PUSH1 0x8 PUSH2 0x487 DUP4 PUSH2 0x1CBA JUMP JUMPDEST POP ADD SLOAD LT PUSH2 0x6C5 JUMPI PUSH1 0x0 DUP2 DUP2 MSTORE PUSH1 0x5 PUSH1 0x20 SWAP1 DUP2 MSTORE PUSH1 0x40 DUP1 DUP4 KECCAK256 CALLER DUP5 MSTORE SWAP1 SWAP2 MSTORE SWAP1 KECCAK256 DUP1 SLOAD PUSH1 0xFF NOT AND SWAP1 SSTORE PUSH1 0x8 PUSH2 0x4BB DUP3 PUSH2 0x1CBA JUMP JUMPDEST POP ADD DUP1 SLOAD SWAP1 DUP4 DUP3 SUB SWAP2 DUP3 GT PUSH2 0x6A6 JUMPI SSTORE DUP1 PUSH1 0x0 MSTORE PUSH1 0x3 PUSH1 0x20 MSTORE PUSH1 0x40 PUSH1 0x0 KECCAK256 SWAP1 PUSH1 0x0 JUMPDEST DUP3 SLOAD DUP1 DUP3 LT ISZERO PUSH2 0x6BC JUMPI PUSH2 0x4F1 DUP3 DUP6 PUSH2 0x229E JUMP JUMPDEST SWAP1 SLOAD PUSH1 0x3 SWAP2 SWAP1 SWAP2 SHL SHR PUSH1 0x1 PUSH1 0x1 PUSH1 0xA0 SHL SUB AND CALLER EQ PUSH2 0x512 JUMPI POP PUSH1 0x1 ADD PUSH2 0x4DD JUMP JUMPDEST SWAP2 SWAP3 SWAP2 PUSH1 0x0 NOT DUP2 ADD SWAP2 SWAP1 DUP3 GT PUSH2 0x6A6 JUMPI PUSH2 0x54B PUSH2 0x532 PUSH2 0x56F SWAP4 DUP6 PUSH2 0x229E JUMP JUMPDEST SWAP1 SLOAD PUSH1 0x3 SWAP2 SWAP1 SWAP2 SHL SHR PUSH1 0x1 PUSH1 0x1 PUSH1 0xA0 SHL SUB AND SWAP2 DUP5 PUSH2 0x229E JUMP JUMPDEST DUP2 SLOAD PUSH1 0x1 PUSH1 0x1 PUSH1 0xA0 SHL SUB SWAP4 DUP5 AND PUSH1 0x3 SWAP3 SWAP1 SWAP3 SHL SWAP2 DUP3 SHL SWAP4 SWAP1 SWAP2 SHL NOT AND SWAP2 SWAP1 SWAP2 OR SWAP1 SSTORE JUMP JUMPDEST DUP1 SLOAD DUP1 ISZERO PUSH2 0x690 JUMPI PUSH1 0x0 NOT ADD SWAP1 PUSH2 0x586 DUP3 DUP3 PUSH2 0x229E JUMP JUMPDEST DUP2 SLOAD SWAP1 PUSH1 0x1 DUP1 PUSH1 0xA0 SHL SUB SWAP1 PUSH1 0x3 SHL SHL NOT AND SWAP1 SSTORE SSTORE JUMPDEST PUSH1 0x0 PUSH1 0x20 PUSH2 0x5A8 DUP4 PUSH2 0x1CBA JUMP JUMPDEST POP PUSH1 0x9 ADD SLOAD PUSH1 0x40 MLOAD PUSH4 0xA9059CBB PUSH1 0xE0 SHL DUP2 MSTORE CALLER PUSH1 0x4 DUP3 ADD MSTORE PUSH1 0x24 DUP2 ADD DUP7 SWAP1 MSTORE SWAP3 DUP4 SWAP2 PUSH1 0x44 SWAP2 DUP4 SWAP2 PUSH1 0x10 SHR PUSH1 0x1 PUSH1 0x1 PUSH1 0xA0 SHL SUB AND GAS CALL SWAP1 DUP2 ISZERO PUSH2 0x684 JUMPI PUSH1 0x0 SWAP2 PUSH2 0x655 JUMPI JUMPDEST POP ISZERO PUSH2 0x620 JUMPI PUSH1 0x40 MLOAD SWAP2 DUP3 MSTORE PUSH32 0x7A482FDEB6BC9A1376F597068A214A7A39472BB2EFF1B8CAD21BA04F49DDCA1B PUSH1 0x20 CALLER SWAP4 LOG3 STOP JUMPDEST PUSH1 0x40 MLOAD PUSH3 0x461BCD PUSH1 0xE5 SHL DUP2 MSTORE PUSH1 0x20 PUSH1 0x4 DUP3 ADD MSTORE PUSH1 0xD PUSH1 0x24 DUP3 ADD MSTORE PUSH13 0x1499599D5B990819985A5B1959 PUSH1 0x9A SHL PUSH1 0x44 DUP3 ADD MSTORE PUSH1 0x64 SWAP1 REVERT JUMPDEST PUSH2 0x677 SWAP2 POP PUSH1 0x20 RETURNDATASIZE PUSH1 0x20 GT PUSH2 0x67D JUMPI JUMPDEST PUSH2 0x66F DUP2 DUP4 PUSH2 0x1D61 JUMP JUMPDEST DUP2 ADD SWAP1 PUSH2 0x2286 JUMP JUMPDEST DUP4 PUSH2 0x5EC JUMP JUMPDEST POP RETURNDATASIZE PUSH2 0x665 JUMP JUMPDEST PUSH1 0x40 MLOAD RETURNDATASIZE PUSH1 0x0 DUP3 RETURNDATACOPY RETURNDATASIZE SWAP1 REVERT JUMPDEST PUSH4 0x4E487B71 PUSH1 0xE0 SHL PUSH1 0x0 MSTORE PUSH1 0x31 PUSH1 0x4 MSTORE PUSH1 0x24 PUSH1 0x0 REVERT JUMPDEST PUSH4 0x4E487B71 PUSH1 0xE0 SHL PUSH1 0x0 MSTORE PUSH1 0x11 PUSH1 0x4 MSTORE PUSH1 0x24 PUSH1 0x0 REVERT JUMPDEST POP POP SWAP1 POP PUSH2 0x59B JUMP JUMPDEST PUSH1 0x40 MLOAD PUSH3 0x461BCD PUSH1 0xE5 SHL DUP2 MSTORE PUSH1 0x20 PUSH1 0x4 DUP3 ADD MSTORE PUSH1 0x1C PUSH1 0x24 DUP3 ADD MSTORE PUSH32 0x496E73756666696369656E742066756E647320696E20657363726F7700000000 PUSH1 0x44 DUP3 ADD MSTORE PUSH1 0x64 SWAP1 REVERT JUMPDEST PUSH2 0x713 DUP2 PUSH2 0x1CBA JUMP JUMPDEST POP PUSH1 0x1 PUSH1 0x1 PUSH1 0x40 SHL SUB PUSH1 0x4 PUSH2 0x464F NOT SWAP3 ADD SLOAD PUSH1 0x40 SHR AND ADD PUSH1 0x1 PUSH1 0x1 PUSH1 0x40 SHL SUB DUP2 GT PUSH2 0x6A6 JUMPI PUSH1 0x1 PUSH1 0x1 PUSH1 0x40 SHL SUB AND TIMESTAMP LT PUSH2 0x46C JUMPI PUSH1 0x40 MLOAD PUSH3 0x461BCD PUSH1 0xE5 SHL DUP2 MSTORE PUSH1 0x20 PUSH1 0x4 DUP3 ADD MSTORE PUSH1 0x17 PUSH1 0x24 DUP3 ADD MSTORE PUSH32 0x526566756E6420706572696F642068617320656E646564000000000000000000 PUSH1 0x44 DUP3 ADD MSTORE PUSH1 0x64 SWAP1 REVERT JUMPDEST PUSH1 0x40 MLOAD PUSH3 0x461BCD PUSH1 0xE5 SHL DUP2 MSTORE PUSH1 0x20 PUSH1 0x4 DUP3 ADD MSTORE PUSH1 0x13 PUSH1 0x24 DUP3 ADD MSTORE PUSH19 0x139BC81D1A58DAD95D081C1D5C98DA185CD959 PUSH1 0x6A SHL PUSH1 0x44 DUP3 ADD MSTORE PUSH1 0x64 SWAP1 REVERT JUMPDEST CALLVALUE PUSH2 0x112 JUMPI PUSH1 0x20 CALLDATASIZE PUSH1 0x3 NOT ADD SLT PUSH2 0x112 JUMPI PUSH1 0x1 PUSH1 0x1 PUSH1 0xA0 SHL SUB PUSH2 0x7E8 PUSH2 0x1EBD JUMP JUMPDEST AND PUSH1 0x0 MSTORE PUSH1 0x1 PUSH1 0x20 MSTORE PUSH1 0x20 PUSH1 0xFF PUSH1 0x40 PUSH1 0x0 KECCAK256 SLOAD AND PUSH1 0x40 MLOAD SWAP1 ISZERO ISZERO DUP2 MSTORE RETURN JUMPDEST CALLVALUE PUSH2 0x112 JUMPI PUSH1 0x20 CALLDATASIZE PUSH1 0x3 NOT ADD SLT PUSH2 0x112 JUMPI PUSH1 0x4 CALLDATALOAD PUSH2 0x827 PUSH1 0x2 SLOAD DUP3 LT PUSH2 0x2247 JUMP JUMPDEST PUSH1 0x1 PUSH1 0x1 PUSH1 0x40 SHL SUB PUSH1 0x4 PUSH2 0x83A DUP4 PUSH2 0x1CBA JUMP JUMPDEST POP ADD SLOAD AND TIMESTAMP LT ISZERO PUSH2 0xB34 JUMPI PUSH1 0xFF PUSH1 0x6 PUSH2 0x852 DUP4 PUSH2 0x1CBA JUMP JUMPDEST POP ADD SLOAD AND ISZERO PUSH2 0xAFB JUMPI PUSH1 0x0 DUP2 DUP2 MSTORE PUSH1 0x5 PUSH1 0x20 SWAP1 DUP2 MSTORE PUSH1 0x40 DUP1 DUP4 KECCAK256 CALLER DUP5 MSTORE SWAP1 SWAP2 MSTORE SWAP1 KECCAK256 SLOAD PUSH1 0xFF AND PUSH2 0xAC2 JUMPI PUSH1 0x7 PUSH2 0x887 DUP3 PUSH2 0x1CBA JUMP JUMPDEST POP ADD SLOAD SWAP1 PUSH2 0x894 DUP2 PUSH2 0x1CBA JUMP JUMPDEST POP PUSH1 0x9 ADD SLOAD PUSH1 0x40 MLOAD PUSH4 0x6EB1769F PUSH1 0xE1 SHL DUP2 MSTORE CALLER PUSH1 0x4 DUP3 ADD MSTORE ADDRESS PUSH1 0x24 DUP3 ADD MSTORE PUSH1 0x10 SWAP2 SWAP1 SWAP2 SHR PUSH1 0x1 PUSH1 0x1 PUSH1 0xA0 SHL SUB AND SWAP1 PUSH1 0x20 DUP2 PUSH1 0x44 DUP2 DUP6 GAS STATICCALL DUP1 ISZERO PUSH2 0x684 JUMPI DUP5 SWAP2 PUSH1 0x0 SWAP2 PUSH2 0xA8D JUMPI JUMPDEST POP LT PUSH2 0xA48 JUMPI PUSH1 0x40 MLOAD PUSH4 0x23B872DD PUSH1 0xE0 SHL DUP2 MSTORE CALLER PUSH1 0x4 DUP3 ADD MSTORE ADDRESS PUSH1 0x24 DUP3 ADD MSTORE PUSH1 0x44 DUP2 ADD DUP5 SWAP1 MSTORE PUSH1 0x20 DUP2 PUSH1 0x64 DUP2 PUSH1 0x0 DUP7 GAS CALL SWAP1 DUP2 ISZERO PUSH2 0x684 JUMPI PUSH1 0x0 SWAP2 PUSH2 0xA29 JUMPI JUMPDEST POP ISZERO PUSH2 0x9F3 JUMPI PUSH1 0x0 DUP3 DUP2 MSTORE PUSH1 0x5 PUSH1 0x20 SWAP1 DUP2 MSTORE PUSH1 0x40 DUP1 DUP4 KECCAK256 CALLER DUP5 MSTORE DUP3 MSTORE DUP1 DUP4 KECCAK256 DUP1 SLOAD PUSH1 0xFF NOT AND PUSH1 0x1 OR SWAP1 SSTORE DUP5 DUP4 MSTORE PUSH1 0x3 SWAP1 SWAP2 MSTORE SWAP1 KECCAK256 DUP1 SLOAD SWAP1 PUSH1 0x1 PUSH1 0x40 SHL DUP3 LT ISZERO PUSH2 0x9DD JUMPI DUP2 PUSH2 0x971 SWAP2 PUSH1 0x1 PUSH2 0x98F SWAP5 ADD DUP2 SSTORE PUSH2 0x229E JUMP JUMPDEST DUP2 SLOAD PUSH1 0x1 PUSH1 0x1 PUSH1 0xA0 SHL SUB PUSH1 0x3 SWAP3 SWAP1 SWAP3 SHL SWAP2 DUP3 SHL NOT AND CALLER SWAP1 SWAP2 SHL OR SWAP1 SSTORE JUMP JUMPDEST PUSH1 0x8 PUSH2 0x99A DUP4 PUSH2 0x1CBA JUMP JUMPDEST POP ADD DUP1 SLOAD SWAP1 DUP5 DUP3 ADD DUP1 SWAP3 GT PUSH2 0x6A6 JUMPI SSTORE PUSH1 0x40 MLOAD SWAP3 DUP4 MSTORE PUSH1 0x20 DUP4 ADD MSTORE PUSH32 0x504EF6DABCA28C1452704D54BD8E25708D87E0C27D852ECEEA53A0C0D8986758 PUSH1 0x40 CALLER SWAP4 LOG3 STOP JUMPDEST PUSH4 0x4E487B71 PUSH1 0xE0 SHL PUSH1 0x0 MSTORE PUSH1 0x41 PUSH1 0x4 MSTORE PUSH1 0x24 PUSH1 0x0 REVERT JUMPDEST PUSH1 0x40 MLOAD PUSH3 0x461BCD PUSH1 0xE5 SHL DUP2 MSTORE PUSH1 0x20 PUSH1 0x4 DUP3 ADD MSTORE PUSH1 0xE PUSH1 0x24 DUP3 ADD MSTORE PUSH14 0x14185E5B595B9D0819985A5B1959 PUSH1 0x92 SHL PUSH1 0x44 DUP3 ADD MSTORE PUSH1 0x64 SWAP1 REVERT JUMPDEST PUSH2 0xA42 SWAP2 POP PUSH1 0x20 RETURNDATASIZE PUSH1 0x20 GT PUSH2 0x67D JUMPI PUSH2 0x66F DUP2 DUP4 PUSH2 0x1D61 JUMP JUMPDEST DUP5 PUSH2 0x91B JUMP JUMPDEST PUSH1 0x40 MLOAD PUSH3 0x461BCD PUSH1 0xE5 SHL DUP2 MSTORE PUSH1 0x20 PUSH1 0x4 DUP3 ADD MSTORE PUSH1 0x1C PUSH1 0x24 DUP3 ADD MSTORE PUSH32 0x496E73756666696369656E7420746F6B656E20616C6C6F77616E636500000000 PUSH1 0x44 DUP3 ADD MSTORE PUSH1 0x64 SWAP1 REVERT JUMPDEST SWAP2 POP POP PUSH1 0x20 DUP2 RETURNDATASIZE PUSH1 0x20 GT PUSH2 0xABA JUMPI JUMPDEST DUP2 PUSH2 0xAA9 PUSH1 0x20 SWAP4 DUP4 PUSH2 0x1D61 JUMP JUMPDEST DUP2 ADD SUB SLT PUSH2 0x112 JUMPI DUP4 SWAP1 MLOAD DUP6 PUSH2 0x8DB JUMP JUMPDEST RETURNDATASIZE SWAP2 POP PUSH2 0xA9C JUMP JUMPDEST PUSH1 0x40 MLOAD PUSH3 0x461BCD PUSH1 0xE5 SHL DUP2 MSTORE PUSH1 0x20 PUSH1 0x4 DUP3 ADD MSTORE PUSH1 0x11 PUSH1 0x24 DUP3 ADD MSTORE PUSH17 0x105B1C9958591E481C1D5C98DA185CD959 PUSH1 0x7A SHL PUSH1 0x44 DUP3 ADD MSTORE PUSH1 0x64 SWAP1 REVERT JUMPDEST PUSH1 0x40 MLOAD PUSH3 0x461BCD PUSH1 0xE5 SHL DUP2 MSTORE PUSH1 0x20 PUSH1 0x4 DUP3 ADD MSTORE PUSH1 0x11 PUSH1 0x24 DUP3 ADD MSTORE PUSH17 0x4576656E7420697320696E616374697665 PUSH1 0x78 SHL PUSH1 0x44 DUP3 ADD MSTORE PUSH1 0x64 SWAP1 REVERT JUMPDEST PUSH1 0x40 MLOAD PUSH3 0x461BCD PUSH1 0xE5 SHL DUP2 MSTORE PUSH1 0x20 PUSH1 0x4 DUP3 ADD MSTORE PUSH1 0xD PUSH1 0x24 DUP3 ADD MSTORE PUSH13 0x115D995B9D08195E1C1A5C9959 PUSH1 0x9A SHL PUSH1 0x44 DUP3 ADD MSTORE PUSH1 0x64 SWAP1 REVERT JUMPDEST CALLVALUE PUSH2 0x112 JUMPI PUSH1 0x0 CALLDATASIZE PUSH1 0x3 NOT ADD SLT PUSH2 0x112 JUMPI PUSH1 0x20 PUSH1 0x2 SLOAD PUSH1 0x40 MLOAD SWAP1 DUP2 MSTORE RETURN JUMPDEST CALLVALUE PUSH2 0x112 JUMPI PUSH1 0x20 CALLDATASIZE PUSH1 0x3 NOT ADD SLT PUSH2 0x112 JUMPI PUSH1 0x4 CALLDATALOAD PUSH2 0xBB9 PUSH2 0xBA7 DUP3 PUSH2 0x1CBA JUMP JUMPDEST POP SLOAD PUSH1 0x1 PUSH1 0x1 PUSH1 0xA0 SHL SUB AND CALLER EQ PUSH2 0x2209 JUMP JUMPDEST PUSH2 0xBC6 PUSH1 0x2 SLOAD DUP3 LT PUSH2 0x2247 JUMP JUMPDEST PUSH1 0x1 PUSH1 0x1 PUSH1 0x40 SHL SUB PUSH1 0x4 PUSH2 0xBD9 DUP4 PUSH2 0x1CBA JUMP JUMPDEST POP ADD SLOAD AND TIMESTAMP GT ISZERO PUSH2 0xD0A JUMPI PUSH1 0xFF PUSH1 0x9 PUSH2 0xBF1 DUP4 PUSH2 0x1CBA JUMP JUMPDEST POP ADD SLOAD AND PUSH2 0xCB3 JUMPI PUSH1 0xFF PUSH1 0x9 PUSH2 0xC06 DUP4 PUSH2 0x1CBA JUMP JUMPDEST POP ADD SLOAD PUSH1 0x8 SHR AND PUSH2 0xC75 JUMPI PUSH32 0x80230996023D69B50793FA73F1919127C9D8E741D3989743C479169F22E7A288 PUSH1 0x20 PUSH1 0x8 PUSH2 0xC3F DUP5 PUSH2 0x1CBA JUMP JUMPDEST POP ADD SLOAD PUSH1 0x0 PUSH1 0x8 PUSH2 0xC4F DUP7 PUSH2 0x1CBA JUMP JUMPDEST POP ADD SSTORE PUSH1 0x9 PUSH2 0xC5D DUP6 PUSH2 0x1CBA JUMP JUMPDEST POP ADD DUP1 SLOAD PUSH2 0xFF00 NOT AND PUSH2 0x100 OR SWAP1 SSTORE PUSH1 0x40 MLOAD SWAP1 DUP2 MSTORE LOG2 STOP JUMPDEST PUSH1 0x40 MLOAD PUSH3 0x461BCD PUSH1 0xE5 SHL DUP2 MSTORE PUSH1 0x20 PUSH1 0x4 DUP3 ADD MSTORE PUSH1 0x16 PUSH1 0x24 DUP3 ADD MSTORE PUSH22 0x119D5B991CC8185B1C9958591E481C995B19585CD959 PUSH1 0x52 SHL PUSH1 0x44 DUP3 ADD MSTORE PUSH1 0x64 SWAP1 REVERT JUMPDEST PUSH1 0x40 MLOAD PUSH3 0x461BCD PUSH1 0xE5 SHL DUP2 MSTORE PUSH1 0x20 PUSH1 0x4 DUP3 ADD MSTORE PUSH1 0x29 PUSH1 0x24 DUP3 ADD MSTORE PUSH32 0x43616E6E6F742072656C656173652066756E647320666F7220612063616E6365 PUSH1 0x44 DUP3 ADD MSTORE PUSH9 0x1B195908195D995B9D PUSH1 0xBA SHL PUSH1 0x64 DUP3 ADD MSTORE PUSH1 0x84 SWAP1 REVERT JUMPDEST PUSH1 0x40 MLOAD PUSH3 0x461BCD PUSH1 0xE5 SHL DUP2 MSTORE PUSH1 0x20 PUSH1 0x4 DUP3 ADD MSTORE PUSH1 0x1A PUSH1 0x24 DUP3 ADD MSTORE PUSH32 0x4576656E7420686173206E6F74206F6363757272656420796574000000000000 PUSH1 0x44 DUP3 ADD MSTORE PUSH1 0x64 SWAP1 REVERT JUMPDEST CALLVALUE PUSH2 0x112 JUMPI PUSH1 0x40 CALLDATASIZE PUSH1 0x3 NOT ADD SLT PUSH2 0x112 JUMPI PUSH1 0x24 CALLDATALOAD PUSH1 0x1 PUSH1 0x1 PUSH1 0xA0 SHL SUB DUP2 AND DUP2 SUB PUSH2 0x112 JUMPI PUSH1 0x4 CALLDATALOAD PUSH1 0x0 MSTORE PUSH1 0x5 PUSH1 0x20 MSTORE PUSH1 0x40 PUSH1 0x0 KECCAK256 SWAP1 PUSH1 0x1 DUP1 PUSH1 0xA0 SHL SUB AND PUSH1 0x0 MSTORE PUSH1 0x20 MSTORE PUSH1 0x20 PUSH1 0xFF PUSH1 0x40 PUSH1 0x0 KECCAK256 SLOAD AND PUSH1 0x40 MLOAD SWAP1 ISZERO ISZERO DUP2 MSTORE RETURN JUMPDEST CALLVALUE PUSH2 0x112 JUMPI PUSH1 0x20 CALLDATASIZE PUSH1 0x3 NOT ADD SLT PUSH2 0x112 JUMPI PUSH1 0x4 CALLDATALOAD PUSH2 0xDC7 PUSH2 0xBA7 DUP3 PUSH2 0x1CBA JUMP JUMPDEST PUSH2 0xDD4 PUSH1 0x2 SLOAD DUP3 LT PUSH2 0x2247 JUMP JUMPDEST PUSH1 0xFF PUSH1 0x6 PUSH2 0xDE1 DUP4 PUSH2 0x1CBA JUMP JUMPDEST POP ADD SLOAD AND ISZERO PUSH2 0xE3E JUMPI PUSH1 0x6 PUSH2 0xDF5 DUP3 PUSH2 0x1CBA JUMP JUMPDEST POP ADD DUP1 SLOAD PUSH1 0xFF NOT AND SWAP1 SSTORE PUSH1 0x9 PUSH2 0xE0A DUP3 PUSH2 0x1CBA JUMP JUMPDEST POP ADD DUP1 SLOAD PUSH1 0xFF NOT AND PUSH1 0x1 OR SWAP1 SSTORE PUSH32 0xCEAF11772900FE569752A0207C8639FB8228EB8663456DC9EAA3A08F927A8705 PUSH1 0x0 DUP1 LOG2 STOP JUMPDEST PUSH1 0x40 MLOAD PUSH3 0x461BCD PUSH1 0xE5 SHL DUP2 MSTORE PUSH1 0x20 PUSH1 0x4 DUP3 ADD MSTORE PUSH1 0x10 PUSH1 0x24 DUP3 ADD MSTORE PUSH16 0x105B1C9958591E4818D85B98D95B1959 PUSH1 0x82 SHL PUSH1 0x44 DUP3 ADD MSTORE PUSH1 0x64 SWAP1 REVERT JUMPDEST CALLVALUE PUSH2 0x112 JUMPI PUSH1 0x20 CALLDATASIZE PUSH1 0x3 NOT ADD SLT PUSH2 0x112 JUMPI PUSH1 0x1 PUSH1 0x1 PUSH1 0xA0 SHL SUB PUSH2 0xE97 PUSH2 0x1EBD JUMP JUMPDEST AND PUSH1 0x0 MSTORE PUSH1 0x4 PUSH1 0x20 MSTORE PUSH2 0x10E PUSH2 0xEB0 PUSH1 0x40 PUSH1 0x0 KECCAK256 PUSH2 0x21B0 JUMP JUMPDEST PUSH1 0x40 MLOAD SWAP2 DUP3 SWAP2 PUSH1 0x20 DUP4 MSTORE PUSH1 0x20 DUP4 ADD SWAP1 PUSH2 0x1FCB JUMP JUMPDEST CALLVALUE PUSH2 0x112 JUMPI PUSH2 0x120 CALLDATASIZE PUSH1 0x3 NOT ADD SLT PUSH2 0x112 JUMPI PUSH1 0x4 CALLDATALOAD PUSH1 0x1 PUSH1 0x1 PUSH1 0x40 SHL SUB DUP2 GT PUSH2 0x112 JUMPI PUSH2 0xEF5 SWAP1 CALLDATASIZE SWAP1 PUSH1 0x4 ADD PUSH2 0x1E67 JUMP JUMPDEST PUSH1 0x24 CALLDATALOAD PUSH1 0x1 PUSH1 0x1 PUSH1 0x40 SHL SUB DUP2 GT PUSH2 0x112 JUMPI PUSH2 0xF14 SWAP1 CALLDATASIZE SWAP1 PUSH1 0x4 ADD PUSH2 0x1E67 JUMP JUMPDEST PUSH1 0x44 CALLDATALOAD PUSH1 0x1 PUSH1 0x1 PUSH1 0x40 SHL SUB DUP2 GT PUSH2 0x112 JUMPI PUSH2 0xF33 SWAP1 CALLDATASIZE SWAP1 PUSH1 0x4 ADD PUSH2 0x1E67 JUMP JUMPDEST PUSH1 0x64 CALLDATALOAD PUSH1 0x1 PUSH1 0x1 PUSH1 0x40 SHL SUB DUP2 AND DUP1 SWAP2 SUB PUSH2 0x112 JUMPI PUSH1 0x84 CALLDATALOAD PUSH1 0x1 PUSH1 0x1 PUSH1 0x40 SHL SUB DUP2 AND DUP1 SWAP2 SUB PUSH2 0x112 JUMPI PUSH1 0xA4 CALLDATALOAD SWAP2 PUSH1 0x1 PUSH1 0x1 PUSH1 0x40 SHL SUB DUP4 AND DUP1 SWAP4 SUB PUSH2 0x112 JUMPI PUSH1 0xC4 CALLDATALOAD PUSH1 0x1 PUSH1 0x1 PUSH1 0x40 SHL SUB DUP2 GT PUSH2 0x112 JUMPI PUSH2 0xF8F SWAP1 CALLDATASIZE SWAP1 PUSH1 0x4 ADD PUSH2 0x1E67 JUMP JUMPDEST SWAP4 PUSH2 0x104 CALLDATALOAD SWAP6 PUSH1 0x1 DUP1 PUSH1 0xA0 SHL SUB DUP8 AND DUP1 SWAP8 SUB PUSH2 0x112 JUMPI PUSH1 0x40 MLOAD SWAP8 PUSH2 0xFB2 DUP10 PUSH2 0x1D45 JUMP JUMPDEST CALLER DUP10 MSTORE PUSH1 0x20 DUP10 ADD MSTORE PUSH1 0x40 DUP9 ADD MSTORE PUSH1 0x60 DUP8 ADD MSTORE PUSH1 0x80 DUP7 ADD MSTORE PUSH1 0xA0 DUP6 ADD MSTORE PUSH1 0xC0 DUP5 ADD MSTORE PUSH1 0xE0 DUP4 ADD MSTORE PUSH1 0x1 PUSH2 0x100 DUP4 ADD MSTORE PUSH1 0xE4 CALLDATALOAD PUSH2 0x120 DUP4 ADD MSTORE PUSH1 0x0 PUSH2 0x140 DUP4 ADD MSTORE PUSH1 0x0 PUSH2 0x160 DUP4 ADD MSTORE PUSH1 0x0 PUSH2 0x180 DUP4 ADD MSTORE PUSH2 0x1A0 DUP3 ADD MSTORE PUSH1 0x2 SLOAD PUSH1 0x1 PUSH1 0x40 SHL DUP2 LT ISZERO PUSH2 0x9DD JUMPI DUP1 PUSH1 0x1 PUSH2 0x1028 SWAP3 ADD PUSH1 0x2 SSTORE PUSH1 0x2 PUSH2 0x1CEF JUMP JUMPDEST SWAP2 SWAP1 SWAP2 PUSH2 0x1853 JUMPI DUP1 MLOAD DUP3 SLOAD PUSH1 0x1 PUSH1 0x1 PUSH1 0xA0 SHL SUB NOT AND PUSH1 0x1 PUSH1 0x1 PUSH1 0xA0 SHL SUB SWAP2 SWAP1 SWAP2 AND OR DUP3 SSTORE PUSH1 0x20 DUP2 ADD MLOAD DUP1 MLOAD SWAP1 SWAP3 SWAP1 PUSH1 0x1 PUSH1 0x1 PUSH1 0x40 SHL SUB DUP2 GT PUSH2 0x9DD JUMPI PUSH2 0x1071 PUSH1 0x1 DUP4 ADD SLOAD PUSH2 0x1D0B JUMP JUMPDEST PUSH1 0x1F DUP2 GT PUSH2 0x1B23 JUMPI JUMPDEST POP PUSH1 0x20 PUSH1 0x1F DUP3 GT PUSH1 0x1 EQ PUSH2 0x1AB6 JUMPI DUP2 SWAP3 SWAP4 SWAP5 PUSH1 0x0 SWAP3 PUSH2 0x1AAB JUMPI JUMPDEST POP POP DUP2 PUSH1 0x1 SHL SWAP2 PUSH1 0x0 NOT SWAP1 PUSH1 0x3 SHL SHR NOT AND OR PUSH1 0x1 DUP3 ADD SSTORE JUMPDEST PUSH1 0x40 DUP3 ADD MLOAD SWAP2 DUP3 MLOAD PUSH1 0x1 PUSH1 0x1 PUSH1 0x40 SHL SUB DUP2 GT PUSH2 0x9DD JUMPI PUSH2 0x10CF PUSH1 0x2 DUP5 ADD SLOAD PUSH2 0x1D0B JUMP JUMPDEST PUSH1 0x1F DUP2 GT PUSH2 0x1A64 JUMPI JUMPDEST POP PUSH1 0x20 PUSH1 0x1F DUP3 GT PUSH1 0x1 EQ PUSH2 0x19F7 JUMPI DUP2 SWAP3 SWAP4 SWAP5 PUSH1 0x0 SWAP3 PUSH2 0x19EC JUMPI JUMPDEST POP POP DUP2 PUSH1 0x1 SHL SWAP2 PUSH1 0x0 NOT SWAP1 PUSH1 0x3 SHL SHR NOT AND OR PUSH1 0x2 DUP4 ADD SSTORE JUMPDEST PUSH1 0x60 DUP2 ADD MLOAD SWAP2 DUP3 MLOAD PUSH1 0x1 PUSH1 0x1 PUSH1 0x40 SHL SUB DUP2 GT PUSH2 0x9DD JUMPI PUSH2 0x112D PUSH1 0x3 DUP4 ADD SLOAD PUSH2 0x1D0B JUMP JUMPDEST PUSH1 0x1F DUP2 GT PUSH2 0x19A5 JUMPI JUMPDEST POP PUSH1 0x20 PUSH1 0x1F DUP3 GT PUSH1 0x1 EQ PUSH2 0x1938 JUMPI DUP2 SWAP3 SWAP4 SWAP5 PUSH1 0x0 SWAP3 PUSH2 0x192D JUMPI JUMPDEST POP POP DUP2 PUSH1 0x1 SHL SWAP2 PUSH1 0x0 NOT SWAP1 PUSH1 0x3 SHL SHR NOT AND OR PUSH1 0x3 DUP3 ADD SSTORE JUMPDEST PUSH1 0x4 DUP2 ADD PUSH1 0x1 PUSH1 0x1 PUSH1 0x40 SHL SUB PUSH1 0x80 DUP5 ADD MLOAD AND DUP2 SLOAD SWAP1 PUSH8 0xFFFFFFFFFFFFFFFF PUSH1 0x40 SHL PUSH1 0xA0 DUP7 ADD MLOAD PUSH1 0x40 SHL AND SWAP1 PUSH1 0x1 PUSH1 0x1 PUSH1 0x40 SHL SUB PUSH1 0x80 SHL PUSH1 0xC0 DUP8 ADD MLOAD PUSH1 0x80 SHL AND SWAP3 PUSH1 0x1 PUSH1 0x1 PUSH1 0x40 SHL SUB PUSH1 0xC0 SHL AND OR OR OR SWAP1 SSTORE PUSH1 0xE0 DUP3 ADD MLOAD DUP1 MLOAD SWAP1 PUSH1 0x1 PUSH1 0x1 PUSH1 0x40 SHL SUB DUP3 GT PUSH2 0x9DD JUMPI PUSH2 0x11DC PUSH1 0x5 DUP5 ADD SLOAD PUSH2 0x1D0B JUMP JUMPDEST PUSH1 0x1F DUP2 GT PUSH2 0x18E6 JUMPI JUMPDEST POP PUSH1 0x20 SWAP1 PUSH1 0x1F DUP4 GT PUSH1 0x1 EQ PUSH2 0x1874 JUMPI PUSH1 0x9 SWAP4 SWAP3 SWAP2 PUSH1 0x0 SWAP2 DUP4 PUSH2 0x1869 JUMPI JUMPDEST POP POP DUP2 PUSH1 0x1 SHL SWAP2 PUSH1 0x0 NOT SWAP1 PUSH1 0x3 SHL SHR NOT AND OR PUSH1 0x5 DUP3 ADD SSTORE JUMPDEST PUSH2 0x123A PUSH2 0x100 DUP5 ADD MLOAD ISZERO ISZERO PUSH1 0x6 DUP4 ADD SWAP1 PUSH1 0xFF DUP1 NOT DUP4 SLOAD AND SWAP2 ISZERO ISZERO AND OR SWAP1 SSTORE JUMP JUMPDEST PUSH2 0x120 DUP4 ADD MLOAD PUSH1 0x7 DUP3 ADD SSTORE PUSH2 0x140 DUP4 ADD MLOAD PUSH1 0x8 DUP3 ADD SSTORE ADD PUSH2 0x126E PUSH2 0x160 DUP4 ADD MLOAD ISZERO ISZERO DUP3 SWAP1 PUSH1 0xFF DUP1 NOT DUP4 SLOAD AND SWAP2 ISZERO ISZERO AND OR SWAP1 SSTORE JUMP JUMPDEST PUSH2 0x180 DUP3 ADD MLOAD DUP2 SLOAD PUSH2 0xFF00 NOT AND SWAP1 ISZERO ISZERO PUSH1 0x8 SHL PUSH2 0xFF00 AND OR DUP2 SSTORE PUSH2 0x1A0 DUP3 ADD MLOAD DUP2 SLOAD PUSH3 0x10000 PUSH1 0x1 PUSH1 0xB0 SHL SUB NOT AND PUSH1 0x10 SWAP2 SWAP1 SWAP2 SHL PUSH3 0x10000 PUSH1 0x1 PUSH1 0xB0 SHL SUB AND OR SWAP1 SSTORE CALLER PUSH1 0x0 SWAP1 DUP2 MSTORE PUSH1 0x4 PUSH1 0x20 MSTORE PUSH1 0x40 SWAP1 KECCAK256 DUP1 SLOAD PUSH1 0x1 PUSH1 0x40 SHL DUP2 LT ISZERO PUSH2 0x9DD JUMPI PUSH2 0x12DC SWAP2 PUSH1 0x1 DUP3 ADD DUP2 SSTORE PUSH2 0x1CEF JUMP JUMPDEST PUSH2 0x1853 JUMPI DUP2 MLOAD DUP2 SLOAD PUSH1 0x1 PUSH1 0x1 PUSH1 0xA0 SHL SUB NOT AND PUSH1 0x1 PUSH1 0x1 PUSH1 0xA0 SHL SUB SWAP2 SWAP1 SWAP2 AND OR DUP2 SSTORE PUSH1 0x20 DUP3 ADD MLOAD DUP1 MLOAD SWAP1 SWAP3 SWAP1 PUSH1 0x1 DUP4 ADD SWAP1 PUSH1 0x1 PUSH1 0x1 PUSH1 0x40 SHL SUB DUP2 GT PUSH2 0x9DD JUMPI PUSH2 0x1324 DUP3 SLOAD PUSH2 0x1D0B JUMP JUMPDEST PUSH1 0x1F DUP2 GT PUSH2 0x180B JUMPI JUMPDEST POP PUSH1 0x20 SWAP5 PUSH1 0x1F DUP3 GT PUSH1 0x1 EQ PUSH2 0x17A6 JUMPI SWAP5 DUP2 SWAP3 SWAP4 SWAP5 SWAP6 PUSH1 0x0 SWAP3 PUSH2 0x179B JUMPI JUMPDEST POP POP DUP2 PUSH1 0x1 SHL SWAP2 PUSH1 0x0 NOT SWAP1 PUSH1 0x3 SHL SHR NOT AND OR SWAP1 SSTORE JUMPDEST PUSH1 0x2 DUP3 ADD SWAP2 PUSH1 0x40 DUP3 ADD MLOAD SWAP3 DUP4 MLOAD PUSH1 0x1 PUSH1 0x1 PUSH1 0x40 SHL SUB DUP2 GT PUSH2 0x9DD JUMPI PUSH2 0x1384 DUP3 SLOAD PUSH2 0x1D0B JUMP JUMPDEST PUSH1 0x1F DUP2 GT PUSH2 0x1753 JUMPI JUMPDEST POP PUSH1 0x20 SWAP5 PUSH1 0x1F DUP3 GT PUSH1 0x1 EQ PUSH2 0x16EE JUMPI SWAP5 DUP2 SWAP3 SWAP4 SWAP5 SWAP6 PUSH1 0x0 SWAP3 PUSH2 0x16E3 JUMPI JUMPDEST POP POP DUP2 PUSH1 0x1 SHL SWAP2 PUSH1 0x0 NOT SWAP1 PUSH1 0x3 SHL SHR NOT AND OR SWAP1 SSTORE JUMPDEST PUSH1 0x3 DUP2 ADD SWAP2 PUSH1 0x60 DUP2 ADD MLOAD SWAP3 DUP4 MLOAD PUSH1 0x1 PUSH1 0x1 PUSH1 0x40 SHL SUB DUP2 GT PUSH2 0x9DD JUMPI PUSH2 0x13E4 DUP3 SLOAD PUSH2 0x1D0B JUMP JUMPDEST PUSH1 0x1F DUP2 GT PUSH2 0x169B JUMPI JUMPDEST POP PUSH1 0x20 SWAP5 PUSH1 0x1F DUP3 GT PUSH1 0x1 EQ PUSH2 0x1636 JUMPI SWAP5 DUP2 SWAP3 SWAP4 SWAP5 SWAP6 PUSH1 0x0 SWAP3 PUSH2 0x162B JUMPI JUMPDEST POP POP DUP2 PUSH1 0x1 SHL SWAP2 PUSH1 0x0 NOT SWAP1 PUSH1 0x3 SHL SHR NOT AND OR SWAP1 SSTORE JUMPDEST PUSH1 0x4 DUP3 ADD PUSH1 0x1 PUSH1 0x1 PUSH1 0x40 SHL SUB PUSH1 0x80 DUP4 ADD MLOAD AND DUP2 SLOAD SWAP1 PUSH8 0xFFFFFFFFFFFFFFFF PUSH1 0x40 SHL PUSH1 0xA0 DUP6 ADD MLOAD PUSH1 0x40 SHL AND SWAP1 PUSH1 0x1 PUSH1 0x1 PUSH1 0x40 SHL SUB PUSH1 0x80 SHL PUSH1 0xC0 DUP7 ADD MLOAD PUSH1 0x80 SHL AND SWAP3 PUSH1 0x1 PUSH1 0x1 PUSH1 0x40 SHL SUB PUSH1 0xC0 SHL AND OR OR OR SWAP1 SSTORE PUSH1 0x5 DUP3 ADD SWAP2 PUSH1 0xE0 DUP3 ADD MLOAD SWAP3 DUP4 MLOAD PUSH1 0x1 PUSH1 0x1 PUSH1 0x40 SHL SUB DUP2 GT PUSH2 0x9DD JUMPI PUSH2 0x1495 DUP3 SLOAD PUSH2 0x1D0B JUMP JUMPDEST PUSH1 0x1F DUP2 GT PUSH2 0x15E3 JUMPI JUMPDEST POP PUSH1 0x20 PUSH1 0x1F DUP3 GT PUSH1 0x1 EQ PUSH2 0x1575 JUMPI SWAP1 DUP1 PUSH1 0x9 SWAP5 SWAP4 SWAP3 PUSH2 0x1A0 SWAP7 SWAP8 PUSH1 0x0 SWAP3 PUSH2 0x156A JUMPI JUMPDEST POP POP DUP2 PUSH1 0x1 SHL SWAP2 PUSH1 0x0 NOT SWAP1 PUSH1 0x3 SHL SHR NOT AND OR SWAP1 SSTORE JUMPDEST PUSH2 0x14F5 PUSH2 0x100 DUP6 ADD MLOAD ISZERO ISZERO PUSH1 0x6 DUP4 ADD SWAP1 PUSH1 0xFF DUP1 NOT DUP4 SLOAD AND SWAP2 ISZERO ISZERO AND OR SWAP1 SSTORE JUMP JUMPDEST PUSH2 0x120 DUP5 ADD MLOAD PUSH1 0x7 DUP3 ADD SSTORE PUSH2 0x140 DUP5 ADD MLOAD PUSH1 0x8 DUP3 ADD SSTORE ADD SWAP2 PUSH2 0x152A PUSH2 0x160 DUP3 ADD MLOAD ISZERO ISZERO DUP5 SWAP1 PUSH1 0xFF DUP1 NOT DUP4 SLOAD AND SWAP2 ISZERO ISZERO AND OR SWAP1 SSTORE JUMP JUMPDEST PUSH2 0x180 DUP2 ADD MLOAD DUP4 SLOAD PUSH2 0xFF00 NOT AND SWAP1 ISZERO ISZERO PUSH1 0x8 SHL PUSH2 0xFF00 AND OR DUP4 SSTORE ADD MLOAD DUP2 SLOAD PUSH3 0x10000 PUSH1 0x1 PUSH1 0xB0 SHL SUB NOT AND PUSH1 0x10 SWAP2 SWAP1 SWAP2 SHL PUSH3 0x10000 PUSH1 0x1 PUSH1 0xB0 SHL SUB AND OR SWAP1 SSTORE STOP JUMPDEST ADD MLOAD SWAP1 POP DUP8 DUP1 PUSH2 0x14C0 JUMP JUMPDEST PUSH1 0x1F NOT DUP3 AND SWAP6 DUP4 PUSH1 0x0 MSTORE DUP2 PUSH1 0x0 KECCAK256 SWAP7 PUSH1 0x0 JUMPDEST DUP2 DUP2 LT PUSH2 0x15CB JUMPI POP SWAP7 PUSH1 0x1 SWAP3 DUP5 SWAP3 PUSH1 0x9 SWAP8 SWAP7 SWAP6 PUSH2 0x1A0 SWAP10 SWAP11 LT PUSH2 0x15B2 JUMPI JUMPDEST POP POP POP DUP2 SHL ADD SWAP1 SSTORE PUSH2 0x14D5 JUMP JUMPDEST ADD MLOAD PUSH1 0x0 NOT PUSH1 0xF8 DUP5 PUSH1 0x3 SHL AND SHR NOT AND SWAP1 SSTORE DUP8 DUP1 DUP1 PUSH2 0x15A5 JUMP JUMPDEST DUP4 DUP4 ADD MLOAD DUP10 SSTORE PUSH1 0x1 SWAP1 SWAP9 ADD SWAP8 PUSH1 0x20 SWAP4 DUP5 ADD SWAP4 ADD PUSH2 0x1587 JUMP JUMPDEST DUP3 PUSH1 0x0 MSTORE PUSH1 0x20 PUSH1 0x0 KECCAK256 PUSH1 0x1F DUP4 ADD PUSH1 0x5 SHR DUP2 ADD SWAP2 PUSH1 0x20 DUP5 LT PUSH2 0x1621 JUMPI JUMPDEST PUSH1 0x1F ADD PUSH1 0x5 SHR ADD SWAP1 JUMPDEST DUP2 DUP2 LT PUSH2 0x1615 JUMPI POP PUSH2 0x149E JUMP JUMPDEST PUSH1 0x0 DUP2 SSTORE PUSH1 0x1 ADD PUSH2 0x1608 JUMP JUMPDEST SWAP1 SWAP2 POP DUP2 SWAP1 PUSH2 0x15FF JUMP JUMPDEST ADD MLOAD SWAP1 POP DUP6 DUP1 PUSH2 0x140A JUMP JUMPDEST PUSH1 0x1F NOT DUP3 AND SWAP6 DUP4 PUSH1 0x0 MSTORE DUP1 PUSH1 0x0 KECCAK256 SWAP2 PUSH1 0x0 JUMPDEST DUP9 DUP2 LT PUSH2 0x1683 JUMPI POP DUP4 PUSH1 0x1 SWAP6 SWAP7 SWAP8 SWAP9 LT PUSH2 0x166A JUMPI JUMPDEST POP POP POP DUP2 SHL ADD SWAP1 SSTORE PUSH2 0x141F JUMP JUMPDEST ADD MLOAD PUSH1 0x0 NOT PUSH1 0xF8 DUP5 PUSH1 0x3 SHL AND SHR NOT AND SWAP1 SSTORE DUP6 DUP1 DUP1 PUSH2 0x165D JUMP JUMPDEST SWAP2 SWAP3 PUSH1 0x20 PUSH1 0x1 DUP2 SWAP3 DUP7 DUP6 ADD MLOAD DUP2 SSTORE ADD SWAP5 ADD SWAP3 ADD PUSH2 0x1648 JUMP JUMPDEST DUP3 PUSH1 0x0 MSTORE PUSH1 0x20 PUSH1 0x0 KECCAK256 PUSH1 0x1F DUP4 ADD PUSH1 0x5 SHR DUP2 ADD SWAP2 PUSH1 0x20 DUP5 LT PUSH2 0x16D9 JUMPI JUMPDEST PUSH1 0x1F ADD PUSH1 0x5 SHR ADD SWAP1 JUMPDEST DUP2 DUP2 LT PUSH2 0x16CD JUMPI POP PUSH2 0x13ED JUMP JUMPDEST PUSH1 0x0 DUP2 SSTORE PUSH1 0x1 ADD PUSH2 0x16C0 JUMP JUMPDEST SWAP1 SWAP2 POP DUP2 SWAP1 PUSH2 0x16B7 JUMP JUMPDEST ADD MLOAD SWAP1 POP DUP6 DUP1 PUSH2 0x13AA JUMP JUMPDEST PUSH1 0x1F NOT DUP3 AND SWAP6 DUP4 PUSH1 0x0 MSTORE DUP1 PUSH1 0x0 KECCAK256 SWAP2 PUSH1 0x0 JUMPDEST DUP9 DUP2 LT PUSH2 0x173B JUMPI POP DUP4 PUSH1 0x1 SWAP6 SWAP7 SWAP8 SWAP9 LT PUSH2 0x1722 JUMPI JUMPDEST POP POP POP DUP2 SHL ADD SWAP1 SSTORE PUSH2 0x13BF JUMP JUMPDEST ADD MLOAD PUSH1 0x0 NOT PUSH1 0xF8 DUP5 PUSH1 0x3 SHL AND SHR NOT AND SWAP1 SSTORE DUP6 DUP1 DUP1 PUSH2 0x1715 JUMP JUMPDEST SWAP2 SWAP3 PUSH1 0x20 PUSH1 0x1 DUP2 SWAP3 DUP7 DUP6 ADD MLOAD DUP2 SSTORE ADD SWAP5 ADD SWAP3 ADD PUSH2 0x1700 JUMP JUMPDEST DUP3 PUSH1 0x0 MSTORE PUSH1 0x20 PUSH1 0x0 KECCAK256 PUSH1 0x1F DUP4 ADD PUSH1 0x5 SHR DUP2 ADD SWAP2 PUSH1 0x20 DUP5 LT PUSH2 0x1791 JUMPI JUMPDEST PUSH1 0x1F ADD PUSH1 0x5 SHR ADD SWAP1 JUMPDEST DUP2 DUP2 LT PUSH2 0x1785 JUMPI POP PUSH2 0x138D JUMP JUMPDEST PUSH1 0x0 DUP2 SSTORE PUSH1 0x1 ADD PUSH2 0x1778 JUMP JUMPDEST SWAP1 SWAP2 POP DUP2 SWAP1 PUSH2 0x176F JUMP JUMPDEST ADD MLOAD SWAP1 POP DUP6 DUP1 PUSH2 0x134A JUMP JUMPDEST PUSH1 0x1F NOT DUP3 AND SWAP6 DUP4 PUSH1 0x0 MSTORE DUP1 PUSH1 0x0 KECCAK256 SWAP2 PUSH1 0x0 JUMPDEST DUP9 DUP2 LT PUSH2 0x17F3 JUMPI POP DUP4 PUSH1 0x1 SWAP6 SWAP7 SWAP8 SWAP9 LT PUSH2 0x17DA JUMPI JUMPDEST POP POP POP DUP2 SHL ADD SWAP1 SSTORE PUSH2 0x135F JUMP JUMPDEST ADD MLOAD PUSH1 0x0 NOT PUSH1 0xF8 DUP5 PUSH1 0x3 SHL AND SHR NOT AND SWAP1 SSTORE DUP6 DUP1 DUP1 PUSH2 0x17CD JUMP JUMPDEST SWAP2 SWAP3 PUSH1 0x20 PUSH1 0x1 DUP2 SWAP3 DUP7 DUP6 ADD MLOAD DUP2 SSTORE ADD SWAP5 ADD SWAP3 ADD PUSH2 0x17B8 JUMP JUMPDEST DUP3 PUSH1 0x0 MSTORE PUSH1 0x20 PUSH1 0x0 KECCAK256 PUSH1 0x1F DUP4 ADD PUSH1 0x5 SHR DUP2 ADD SWAP2 PUSH1 0x20 DUP5 LT PUSH2 0x1849 JUMPI JUMPDEST PUSH1 0x1F ADD PUSH1 0x5 SHR ADD SWAP1 JUMPDEST DUP2 DUP2 LT PUSH2 0x183D JUMPI POP PUSH2 0x132D JUMP JUMPDEST PUSH1 0x0 DUP2 SSTORE PUSH1 0x1 ADD PUSH2 0x1830 JUMP JUMPDEST SWAP1 SWAP2 POP DUP2 SWAP1 PUSH2 0x1827 JUMP JUMPDEST PUSH4 0x4E487B71 PUSH1 0xE0 SHL PUSH1 0x0 MSTORE PUSH1 0x0 PUSH1 0x4 MSTORE PUSH1 0x24 PUSH1 0x0 REVERT JUMPDEST ADD MLOAD SWAP1 POP DUP6 DUP1 PUSH2 0x1202 JUMP JUMPDEST SWAP1 PUSH1 0x5 DUP5 ADD PUSH1 0x0 MSTORE DUP1 PUSH1 0x0 KECCAK256 SWAP2 PUSH1 0x0 JUMPDEST PUSH1 0x1F NOT DUP6 AND DUP2 LT PUSH2 0x18CE JUMPI POP SWAP2 DUP4 SWAP2 PUSH1 0x1 SWAP4 PUSH1 0x9 SWAP7 SWAP6 PUSH1 0x1F NOT DUP2 AND LT PUSH2 0x18B5 JUMPI JUMPDEST POP POP POP DUP2 SHL ADD PUSH1 0x5 DUP3 ADD SSTORE PUSH2 0x121A JUMP JUMPDEST ADD MLOAD PUSH1 0x0 NOT PUSH1 0xF8 DUP5 PUSH1 0x3 SHL AND SHR NOT AND SWAP1 SSTORE DUP6 DUP1 DUP1 PUSH2 0x18A5 JUMP JUMPDEST SWAP2 SWAP3 PUSH1 0x20 PUSH1 0x1 DUP2 SWAP3 DUP7 DUP6 ADD MLOAD DUP2 SSTORE ADD SWAP5 ADD SWAP3 ADD PUSH2 0x1884 JUMP JUMPDEST PUSH1 0x5 DUP5 ADD PUSH1 0x0 MSTORE PUSH1 0x20 PUSH1 0x0 KECCAK256 PUSH1 0x1F DUP5 ADD PUSH1 0x5 SHR DUP2 ADD PUSH1 0x20 DUP6 LT PUSH2 0x1926 JUMPI JUMPDEST PUSH1 0x1F DUP4 ADD PUSH1 0x5 SHR DUP3 ADD DUP2 LT PUSH2 0x191A JUMPI POP POP PUSH2 0x11E5 JUMP JUMPDEST PUSH1 0x0 DUP2 SSTORE PUSH1 0x1 ADD PUSH2 0x1904 JUMP JUMPDEST POP DUP1 PUSH2 0x1904 JUMP JUMPDEST ADD MLOAD SWAP1 POP DUP5 DUP1 PUSH2 0x1150 JUMP JUMPDEST PUSH1 0x3 DUP4 ADD PUSH1 0x0 MSTORE DUP1 PUSH1 0x0 KECCAK256 SWAP1 PUSH1 0x0 JUMPDEST PUSH1 0x1F NOT DUP5 AND DUP2 LT PUSH2 0x198D JUMPI POP PUSH1 0x1 SWAP4 SWAP5 SWAP6 DUP4 PUSH1 0x1F NOT DUP2 AND LT PUSH2 0x1974 JUMPI JUMPDEST POP POP POP DUP2 SHL ADD PUSH1 0x3 DUP3 ADD SSTORE PUSH2 0x1168 JUMP JUMPDEST ADD MLOAD PUSH1 0x0 NOT PUSH1 0xF8 DUP5 PUSH1 0x3 SHL AND SHR NOT AND SWAP1 SSTORE DUP5 DUP1 DUP1 PUSH2 0x1964 JUMP JUMPDEST SWAP1 SWAP2 PUSH1 0x20 PUSH1 0x1 DUP2 SWAP3 DUP6 DUP11 ADD MLOAD DUP2 SSTORE ADD SWAP4 ADD SWAP2 ADD PUSH2 0x1947 JUMP JUMPDEST PUSH1 0x3 DUP4 ADD PUSH1 0x0 MSTORE PUSH1 0x20 PUSH1 0x0 KECCAK256 PUSH1 0x1F DUP4 ADD PUSH1 0x5 SHR DUP2 ADD PUSH1 0x20 DUP5 LT PUSH2 0x19E5 JUMPI JUMPDEST PUSH1 0x1F DUP4 ADD PUSH1 0x5 SHR DUP3 ADD DUP2 LT PUSH2 0x19D9 JUMPI POP POP PUSH2 0x1136 JUMP JUMPDEST PUSH1 0x0 DUP2 SSTORE PUSH1 0x1 ADD PUSH2 0x19C3 JUMP JUMPDEST POP DUP1 PUSH2 0x19C3 JUMP JUMPDEST ADD MLOAD SWAP1 POP DUP5 DUP1 PUSH2 0x10F2 JUMP JUMPDEST PUSH1 0x2 DUP5 ADD PUSH1 0x0 MSTORE DUP1 PUSH1 0x0 KECCAK256 SWAP1 PUSH1 0x0 JUMPDEST PUSH1 0x1F NOT DUP5 AND DUP2 LT PUSH2 0x1A4C JUMPI POP PUSH1 0x1 SWAP4 SWAP5 SWAP6 DUP4 PUSH1 0x1F NOT DUP2 AND LT PUSH2 0x1A33 JUMPI JUMPDEST POP POP POP DUP2 SHL ADD PUSH1 0x2 DUP4 ADD SSTORE PUSH2 0x110A JUMP JUMPDEST ADD MLOAD PUSH1 0x0 NOT PUSH1 0xF8 DUP5 PUSH1 0x3 SHL AND SHR NOT AND SWAP1 SSTORE DUP5 DUP1 DUP1 PUSH2 0x1A23 JUMP JUMPDEST SWAP1 SWAP2 PUSH1 0x20 PUSH1 0x1 DUP2 SWAP3 DUP6 DUP11 ADD MLOAD DUP2 SSTORE ADD SWAP4 ADD SWAP2 ADD PUSH2 0x1A06 JUMP JUMPDEST PUSH1 0x2 DUP5 ADD PUSH1 0x0 MSTORE PUSH1 0x20 PUSH1 0x0 KECCAK256 PUSH1 0x1F DUP4 ADD PUSH1 0x5 SHR DUP2 ADD PUSH1 0x20 DUP5 LT PUSH2 0x1AA4 JUMPI JUMPDEST PUSH1 0x1F DUP4 ADD PUSH1 0x5 SHR DUP3 ADD DUP2 LT PUSH2 0x1A98 JUMPI POP POP PUSH2 0x10D8 JUMP JUMPDEST PUSH1 0x0 DUP2 SSTORE PUSH1 0x1 ADD PUSH2 0x1A82 JUMP JUMPDEST POP DUP1 PUSH2 0x1A82 JUMP JUMPDEST ADD MLOAD SWAP1 POP DUP5 DUP1 PUSH2 0x1094 JUMP JUMPDEST PUSH1 0x1 DUP4 ADD PUSH1 0x0 MSTORE DUP1 PUSH1 0x0 KECCAK256 SWAP1 PUSH1 0x0 JUMPDEST PUSH1 0x1F NOT DUP5 AND DUP2 LT PUSH2 0x1B0B JUMPI POP PUSH1 0x1 SWAP4 SWAP5 SWAP6 DUP4 PUSH1 0x1F NOT DUP2 AND LT PUSH2 0x1AF2 JUMPI JUMPDEST POP POP POP DUP2 SHL ADD PUSH1 0x1 DUP3 ADD SSTORE PUSH2 0x10AC JUMP JUMPDEST ADD MLOAD PUSH1 0x0 NOT PUSH1 0xF8 DUP5 PUSH1 0x3 SHL AND SHR NOT AND SWAP1 SSTORE DUP5 DUP1 DUP1 PUSH2 0x1AE2 JUMP JUMPDEST SWAP1 SWAP2 PUSH1 0x20 PUSH1 0x1 DUP2 SWAP3 DUP6 DUP11 ADD MLOAD DUP2 SSTORE ADD SWAP4 ADD SWAP2 ADD PUSH2 0x1AC5 JUMP JUMPDEST PUSH1 0x1 DUP4 ADD PUSH1 0x0 MSTORE PUSH1 0x20 PUSH1 0x0 KECCAK256 PUSH1 0x1F DUP4 ADD PUSH1 0x5 SHR DUP2 ADD PUSH1 0x20 DUP5 LT PUSH2 0x1B63 JUMPI JUMPDEST PUSH1 0x1F DUP4 ADD PUSH1 0x5 SHR DUP3 ADD DUP2 LT PUSH2 0x1B57 JUMPI POP POP PUSH2 0x107A JUMP JUMPDEST PUSH1 0x0 DUP2 SSTORE PUSH1 0x1 ADD PUSH2 0x1B41 JUMP JUMPDEST POP DUP1 PUSH2 0x1B41 JUMP JUMPDEST CALLVALUE PUSH2 0x112 JUMPI PUSH1 0x20 CALLDATASIZE PUSH1 0x3 NOT ADD SLT PUSH2 0x112 JUMPI PUSH1 0x4 CALLDATALOAD PUSH1 0x2 SLOAD DUP2 LT ISZERO PUSH2 0x112 JUMPI PUSH2 0x1B91 SWAP1 PUSH2 0x1CBA JUMP JUMPDEST POP DUP1 SLOAD PUSH1 0x1 PUSH1 0x1 PUSH1 0xA0 SHL SUB AND PUSH2 0x1BA9 PUSH1 0x1 DUP4 ADD PUSH2 0x1D82 JUMP JUMPDEST SWAP2 PUSH2 0x1BB6 PUSH1 0x2 DUP3 ADD PUSH2 0x1D82 JUMP JUMPDEST PUSH2 0x1BC2 PUSH1 0x3 DUP4 ADD PUSH2 0x1D82 JUMP JUMPDEST PUSH1 0x4 DUP4 ADD SLOAD SWAP3 SWAP1 PUSH2 0x1BD5 PUSH1 0x5 DUP4 ADD PUSH2 0x1D82 JUMP JUMPDEST PUSH1 0x6 DUP4 ADD SLOAD PUSH1 0xFF AND SWAP5 PUSH1 0x7 DUP5 ADD SLOAD SWAP3 PUSH1 0x8 DUP6 ADD SLOAD SWAP5 PUSH1 0x9 ADD SLOAD SWAP6 PUSH1 0x40 MLOAD SWAP10 DUP11 SWAP10 DUP11 MSTORE PUSH1 0x20 DUP11 ADD PUSH2 0x1C0 SWAP1 MSTORE PUSH2 0x1C0 DUP11 ADD PUSH2 0x1C0E SWAP2 PUSH2 0x1E26 JUMP JUMPDEST DUP10 DUP2 SUB PUSH1 0x40 DUP12 ADD MSTORE PUSH2 0x1C1F SWAP2 PUSH2 0x1E26 JUMP JUMPDEST DUP9 DUP2 SUB PUSH1 0x60 DUP11 ADD MSTORE PUSH2 0x1C30 SWAP2 PUSH2 0x1E26 JUMP JUMPDEST SWAP1 PUSH1 0x1 PUSH1 0x1 PUSH1 0x40 SHL SUB DUP2 AND PUSH1 0x80 DUP10 ADD MSTORE DUP1 PUSH1 0x40 SHR PUSH1 0x1 PUSH1 0x1 PUSH1 0x40 SHL SUB AND PUSH1 0xA0 DUP10 ADD MSTORE PUSH1 0x80 SHR PUSH1 0x1 PUSH1 0x1 PUSH1 0x40 SHL SUB AND PUSH1 0xC0 DUP9 ADD MSTORE DUP7 DUP2 SUB PUSH1 0xE0 DUP9 ADD MSTORE PUSH2 0x1C74 SWAP2 PUSH2 0x1E26 JUMP JUMPDEST SWAP4 ISZERO ISZERO PUSH2 0x100 DUP7 ADD MSTORE PUSH2 0x120 DUP6 ADD MSTORE PUSH2 0x140 DUP5 ADD MSTORE PUSH1 0xFF DUP2 DUP2 AND ISZERO ISZERO PUSH2 0x160 DUP6 ADD MSTORE PUSH1 0x8 DUP3 SWAP1 SHR AND ISZERO ISZERO PUSH2 0x180 DUP5 ADD MSTORE PUSH1 0x10 SHR PUSH1 0x1 PUSH1 0x1 PUSH1 0xA0 SHL SUB AND PUSH2 0x1A0 DUP4 ADD MSTORE SUB SWAP1 RETURN JUMPDEST PUSH1 0x2 SLOAD DUP2 LT ISZERO PUSH2 0x1CD9 JUMPI PUSH1 0x2 PUSH1 0x0 MSTORE PUSH1 0xA PUSH1 0x20 PUSH1 0x0 KECCAK256 SWAP2 MUL ADD SWAP1 PUSH1 0x0 SWAP1 JUMP JUMPDEST PUSH4 0x4E487B71 PUSH1 0xE0 SHL PUSH1 0x0 MSTORE PUSH1 0x32 PUSH1 0x4 MSTORE PUSH1 0x24 PUSH1 0x0 REVERT JUMPDEST DUP1 SLOAD DUP3 LT ISZERO PUSH2 0x1CD9 JUMPI PUSH1 0x0 MSTORE PUSH1 0xA PUSH1 0x20 PUSH1 0x0 KECCAK256 SWAP2 MUL ADD SWAP1 PUSH1 0x0 SWAP1 JUMP JUMPDEST SWAP1 PUSH1 0x1 DUP3 DUP2 SHR SWAP3 AND DUP1 ISZERO PUSH2 0x1D3B JUMPI JUMPDEST PUSH1 0x20 DUP4 LT EQ PUSH2 0x1D25 JUMPI JUMP JUMPDEST PUSH4 0x4E487B71 PUSH1 0xE0 SHL PUSH1 0x0 MSTORE PUSH1 0x22 PUSH1 0x4 MSTORE PUSH1 0x24 PUSH1 0x0 REVERT JUMPDEST SWAP2 PUSH1 0x7F AND SWAP2 PUSH2 0x1D1A JUMP JUMPDEST PUSH2 0x1C0 DUP2 ADD SWAP1 DUP2 LT PUSH1 0x1 PUSH1 0x1 PUSH1 0x40 SHL SUB DUP3 GT OR PUSH2 0x9DD JUMPI PUSH1 0x40 MSTORE JUMP JUMPDEST SWAP1 PUSH1 0x1F DUP1 NOT SWAP2 ADD AND DUP2 ADD SWAP1 DUP2 LT PUSH1 0x1 PUSH1 0x1 PUSH1 0x40 SHL SUB DUP3 GT OR PUSH2 0x9DD JUMPI PUSH1 0x40 MSTORE JUMP JUMPDEST SWAP1 PUSH1 0x40 MLOAD SWAP2 DUP3 PUSH1 0x0 DUP3 SLOAD SWAP3 PUSH2 0x1D96 DUP5 PUSH2 0x1D0B JUMP JUMPDEST DUP1 DUP5 MSTORE SWAP4 PUSH1 0x1 DUP2 AND SWAP1 DUP2 ISZERO PUSH2 0x1E04 JUMPI POP PUSH1 0x1 EQ PUSH2 0x1DBD JUMPI JUMPDEST POP PUSH2 0x1DBB SWAP3 POP SUB DUP4 PUSH2 0x1D61 JUMP JUMPDEST JUMP JUMPDEST SWAP1 POP PUSH1 0x0 SWAP3 SWAP2 SWAP3 MSTORE PUSH1 0x20 PUSH1 0x0 KECCAK256 SWAP1 PUSH1 0x0 SWAP2 JUMPDEST DUP2 DUP4 LT PUSH2 0x1DE8 JUMPI POP POP SWAP1 PUSH1 0x20 PUSH2 0x1DBB SWAP3 DUP3 ADD ADD CODESIZE PUSH2 0x1DAE JUMP JUMPDEST PUSH1 0x20 SWAP2 SWAP4 POP DUP1 PUSH1 0x1 SWAP2 SLOAD DUP4 DUP6 DUP10 ADD ADD MSTORE ADD SWAP2 ADD SWAP1 SWAP2 DUP5 SWAP3 PUSH2 0x1DCF JUMP JUMPDEST SWAP1 POP PUSH1 0x20 SWAP3 POP PUSH2 0x1DBB SWAP5 SWAP2 POP PUSH1 0xFF NOT AND DUP3 DUP5 ADD MSTORE ISZERO ISZERO PUSH1 0x5 SHL DUP3 ADD ADD CODESIZE PUSH2 0x1DAE JUMP JUMPDEST SWAP2 SWAP1 DUP3 MLOAD SWAP3 DUP4 DUP3 MSTORE PUSH1 0x0 JUMPDEST DUP5 DUP2 LT PUSH2 0x1E52 JUMPI POP POP DUP3 PUSH1 0x0 PUSH1 0x20 DUP1 SWAP5 SWAP6 DUP5 ADD ADD MSTORE PUSH1 0x1F DUP1 NOT SWAP2 ADD AND ADD ADD SWAP1 JUMP JUMPDEST DUP1 PUSH1 0x20 DUP1 SWAP3 DUP5 ADD ADD MLOAD DUP3 DUP3 DUP7 ADD ADD MSTORE ADD PUSH2 0x1E31 JUMP JUMPDEST DUP2 PUSH1 0x1F DUP3 ADD SLT ISZERO PUSH2 0x112 JUMPI DUP1 CALLDATALOAD SWAP1 PUSH1 0x1 PUSH1 0x1 PUSH1 0x40 SHL SUB DUP3 GT PUSH2 0x9DD JUMPI PUSH1 0x40 MLOAD SWAP3 PUSH2 0x1E9B PUSH1 0x1F DUP5 ADD PUSH1 0x1F NOT AND PUSH1 0x20 ADD DUP6 PUSH2 0x1D61 JUMP JUMPDEST DUP3 DUP5 MSTORE PUSH1 0x20 DUP4 DUP4 ADD ADD GT PUSH2 0x112 JUMPI DUP2 PUSH1 0x0 SWAP3 PUSH1 0x20 DUP1 SWAP4 ADD DUP4 DUP7 ADD CALLDATACOPY DUP4 ADD ADD MSTORE SWAP1 JUMP JUMPDEST PUSH1 0x4 CALLDATALOAD SWAP1 PUSH1 0x1 PUSH1 0x1 PUSH1 0xA0 SHL SUB DUP3 AND DUP3 SUB PUSH2 0x112 JUMPI JUMP JUMPDEST SWAP1 PUSH1 0x1 DUP1 PUSH1 0xA0 SHL SUB DUP3 MLOAD AND DUP2 MSTORE PUSH2 0x1A0 PUSH2 0x1F76 PUSH2 0x1F2B PUSH2 0x1F19 PUSH2 0x1F07 PUSH1 0x20 DUP8 ADD MLOAD PUSH2 0x1C0 PUSH1 0x20 DUP9 ADD MSTORE PUSH2 0x1C0 DUP8 ADD SWAP1 PUSH2 0x1E26 JUMP JUMPDEST PUSH1 0x40 DUP8 ADD MLOAD DUP7 DUP3 SUB PUSH1 0x40 DUP9 ADD MSTORE PUSH2 0x1E26 JUMP JUMPDEST PUSH1 0x60 DUP7 ADD MLOAD DUP6 DUP3 SUB PUSH1 0x60 DUP8 ADD MSTORE PUSH2 0x1E26 JUMP JUMPDEST PUSH1 0x1 PUSH1 0x1 PUSH1 0x40 SHL SUB PUSH1 0x80 DUP7 ADD MLOAD AND PUSH1 0x80 DUP6 ADD MSTORE PUSH1 0x1 PUSH1 0x1 PUSH1 0x40 SHL SUB PUSH1 0xA0 DUP7 ADD MLOAD AND PUSH1 0xA0 DUP6 ADD MSTORE PUSH1 0x1 PUSH1 0x1 PUSH1 0x40 SHL SUB PUSH1 0xC0 DUP7 ADD MLOAD AND PUSH1 0xC0 DUP6 ADD MSTORE PUSH1 0xE0 DUP6 ADD MLOAD DUP5 DUP3 SUB PUSH1 0xE0 DUP7 ADD MSTORE PUSH2 0x1E26 JUMP JUMPDEST SWAP3 PUSH2 0x100 DUP2 ADD MLOAD ISZERO ISZERO PUSH2 0x100 DUP5 ADD MSTORE PUSH2 0x120 DUP2 ADD MLOAD PUSH2 0x120 DUP5 ADD MSTORE PUSH2 0x140 DUP2 ADD MLOAD PUSH2 0x140 DUP5 ADD MSTORE PUSH2 0x160 DUP2 ADD MLOAD ISZERO ISZERO PUSH2 0x160 DUP5 ADD MSTORE PUSH2 0x180 DUP2 ADD MLOAD ISZERO ISZERO PUSH2 0x180 DUP5 ADD MSTORE DUP2 PUSH1 0x1 DUP1 PUSH1 0xA0 SHL SUB SWAP2 ADD MLOAD AND SWAP2 ADD MSTORE SWAP1 JUMP JUMPDEST SWAP1 DUP1 PUSH1 0x20 DUP4 MLOAD SWAP2 DUP3 DUP2 MSTORE ADD SWAP2 PUSH1 0x20 DUP1 DUP4 PUSH1 0x5 SHL DUP4 ADD ADD SWAP5 ADD SWAP3 PUSH1 0x0 SWAP2 JUMPDEST DUP4 DUP4 LT PUSH2 0x1FF7 JUMPI POP POP POP POP POP SWAP1 JUMP JUMPDEST SWAP1 SWAP2 SWAP3 SWAP4 SWAP5 PUSH1 0x20 DUP1 PUSH2 0x2015 PUSH1 0x1 SWAP4 PUSH1 0x1F NOT DUP7 DUP3 SUB ADD DUP8 MSTORE DUP10 MLOAD PUSH2 0x1ED3 JUMP JUMPDEST SWAP8 ADD SWAP4 ADD SWAP4 ADD SWAP2 SWAP4 SWAP3 SWAP1 PUSH2 0x1FE8 JUMP JUMPDEST SWAP1 PUSH1 0x20 DUP1 DUP4 MLOAD SWAP3 DUP4 DUP2 MSTORE ADD SWAP3 ADD SWAP1 PUSH1 0x0 JUMPDEST DUP2 DUP2 LT PUSH2 0x2042 JUMPI POP POP POP SWAP1 JUMP JUMPDEST DUP3 MLOAD PUSH1 0x1 PUSH1 0x1 PUSH1 0xA0 SHL SUB AND DUP5 MSTORE PUSH1 0x20 SWAP4 DUP5 ADD SWAP4 SWAP1 SWAP3 ADD SWAP2 PUSH1 0x1 ADD PUSH2 0x2035 JUMP JUMPDEST SWAP3 SWAP2 PUSH1 0x40 DUP5 ADD SWAP4 PUSH1 0x40 DUP2 MSTORE DUP3 MLOAD DUP1 SWAP6 MSTORE PUSH1 0x20 PUSH1 0x60 DUP3 ADD SWAP4 ADD PUSH1 0x0 SWAP6 JUMPDEST DUP1 DUP8 LT PUSH2 0x209C JUMPI POP POP PUSH2 0x2099 SWAP4 SWAP5 POP PUSH1 0x20 DUP2 DUP5 SUB SWAP2 ADD MSTORE PUSH2 0x1FCB JUMP JUMPDEST SWAP1 JUMP JUMPDEST SWAP1 SWAP4 PUSH1 0x20 DUP1 PUSH1 0x1 SWAP3 DUP8 MLOAD DUP2 MSTORE ADD SWAP6 ADD SWAP7 ADD SWAP6 SWAP1 PUSH2 0x207D JUMP JUMPDEST PUSH1 0x1 PUSH1 0x1 PUSH1 0x40 SHL SUB DUP2 GT PUSH2 0x9DD JUMPI PUSH1 0x5 SHL PUSH1 0x20 ADD SWAP1 JUMP JUMPDEST SWAP1 PUSH1 0x40 MLOAD PUSH2 0x20D8 DUP2 PUSH2 0x1D45 JUMP JUMPDEST DUP3 SLOAD PUSH1 0x1 PUSH1 0x1 PUSH1 0xA0 SHL SUB AND DUP2 MSTORE SWAP2 DUP3 SWAP1 PUSH2 0x1A0 SWAP1 PUSH1 0x9 SWAP1 PUSH2 0x20FB PUSH1 0x1 DUP3 ADD PUSH2 0x1D82 JUMP JUMPDEST PUSH1 0x20 DUP6 ADD MSTORE PUSH2 0x210C PUSH1 0x2 DUP3 ADD PUSH2 0x1D82 JUMP JUMPDEST PUSH1 0x40 DUP6 ADD MSTORE PUSH2 0x211D PUSH1 0x3 DUP3 ADD PUSH2 0x1D82 JUMP JUMPDEST PUSH1 0x60 DUP6 ADD MSTORE PUSH1 0x1 PUSH1 0x1 PUSH1 0x40 SHL SUB PUSH1 0x4 DUP3 ADD SLOAD DUP2 DUP2 AND PUSH1 0x80 DUP8 ADD MSTORE DUP2 DUP2 PUSH1 0x40 SHR AND PUSH1 0xA0 DUP8 ADD MSTORE PUSH1 0x80 SHR AND PUSH1 0xC0 DUP6 ADD MSTORE PUSH2 0x2157 PUSH1 0x5 DUP3 ADD PUSH2 0x1D82 JUMP JUMPDEST PUSH1 0xE0 DUP6 ADD MSTORE PUSH1 0xFF PUSH1 0x6 DUP3 ADD SLOAD AND ISZERO ISZERO PUSH2 0x100 DUP6 ADD MSTORE PUSH1 0x7 DUP2 ADD SLOAD PUSH2 0x120 DUP6 ADD MSTORE PUSH1 0x8 DUP2 ADD SLOAD PUSH2 0x140 DUP6 ADD MSTORE ADD SLOAD PUSH1 0xFF DUP2 AND ISZERO ISZERO PUSH2 0x160 DUP5 ADD MSTORE PUSH1 0xFF DUP2 PUSH1 0x8 SHR AND ISZERO ISZERO PUSH2 0x180 DUP5 ADD MSTORE PUSH1 0x1 DUP1 PUSH1 0xA0 SHL SUB SWAP1 PUSH1 0x10 SHR AND SWAP2 ADD MSTORE JUMP JUMPDEST SWAP1 DUP2 SLOAD PUSH2 0x21BC DUP2 PUSH2 0x20B4 JUMP JUMPDEST SWAP3 PUSH2 0x21CA PUSH1 0x40 MLOAD SWAP5 DUP6 PUSH2 0x1D61 JUMP JUMPDEST DUP2 DUP5 MSTORE PUSH1 0x20 DUP5 ADD SWAP1 PUSH1 0x0 MSTORE PUSH1 0x20 PUSH1 0x0 KECCAK256 PUSH1 0x0 SWAP2 JUMPDEST DUP4 DUP4 LT PUSH2 0x21EB JUMPI POP POP POP POP JUMP JUMPDEST PUSH1 0xA PUSH1 0x20 PUSH1 0x1 SWAP3 PUSH2 0x21FB DUP6 PUSH2 0x20CB JUMP JUMPDEST DUP2 MSTORE ADD SWAP3 ADD SWAP3 ADD SWAP2 SWAP1 PUSH2 0x21DE JUMP JUMPDEST ISZERO PUSH2 0x2210 JUMPI JUMP JUMPDEST PUSH1 0x40 MLOAD PUSH3 0x461BCD PUSH1 0xE5 SHL DUP2 MSTORE PUSH1 0x20 PUSH1 0x4 DUP3 ADD MSTORE PUSH1 0xF PUSH1 0x24 DUP3 ADD MSTORE PUSH15 0x2737BA1032BB32B73A1037BBB732B9 PUSH1 0x89 SHL PUSH1 0x44 DUP3 ADD MSTORE PUSH1 0x64 SWAP1 REVERT JUMPDEST ISZERO PUSH2 0x224E JUMPI JUMP JUMPDEST PUSH1 0x40 MLOAD PUSH3 0x461BCD PUSH1 0xE5 SHL DUP2 MSTORE PUSH1 0x20 PUSH1 0x4 DUP3 ADD MSTORE PUSH1 0x10 PUSH1 0x24 DUP3 ADD MSTORE PUSH16 0x125B9D985B1A5908195D995B9D081251 PUSH1 0x82 SHL PUSH1 0x44 DUP3 ADD MSTORE PUSH1 0x64 SWAP1 REVERT JUMPDEST SWAP1 DUP2 PUSH1 0x20 SWAP2 SUB SLT PUSH2 0x112 JUMPI MLOAD DUP1 ISZERO ISZERO DUP2 SUB PUSH2 0x112 JUMPI SWAP1 JUMP JUMPDEST DUP1 SLOAD DUP3 LT ISZERO PUSH2 0x1CD9 JUMPI PUSH1 0x0 MSTORE PUSH1 0x20 PUSH1 0x0 KECCAK256 ADD SWAP1 PUSH1 0x0 SWAP1 JUMP JUMPDEST PUSH1 0x40 MLOAD SWAP1 PUSH2 0x22C3 DUP3 PUSH2 0x1D45 JUMP JUMPDEST PUSH1 0x0 PUSH2 0x1A0 DUP4 DUP3 DUP2 MSTORE PUSH1 0x60 PUSH1 0x20 DUP3 ADD MSTORE PUSH1 0x60 PUSH1 0x40 DUP3 ADD MSTORE PUSH1 0x60 DUP1 DUP3 ADD MSTORE DUP3 PUSH1 0x80 DUP3 ADD MSTORE DUP3 PUSH1 0xA0 DUP3 ADD MSTORE DUP3 PUSH1 0xC0 DUP3 ADD MSTORE PUSH1 0x60 PUSH1 0xE0 DUP3 ADD MSTORE DUP3 PUSH2 0x100 DUP3 ADD MSTORE DUP3 PUSH2 0x120 DUP3 ADD MSTORE DUP3 PUSH2 0x140 DUP3 ADD MSTORE DUP3 PUSH2 0x160 DUP3 ADD MSTORE DUP3 PUSH2 0x180 DUP3 ADD MSTORE ADD MSTORE JUMP JUMPDEST SWAP1 PUSH1 0x40 MLOAD SWAP2 DUP3 DUP2 SLOAD SWAP2 DUP3 DUP3 MSTORE PUSH1 0x20 DUP3 ADD SWAP1 PUSH1 0x0 MSTORE PUSH1 0x20 PUSH1 0x0 KECCAK256 SWAP3 PUSH1 0x0 JUMPDEST DUP2 DUP2 LT PUSH2 0x2352 JUMPI POP POP PUSH2 0x1DBB SWAP3 POP SUB DUP4 PUSH2 0x1D61 JUMP JUMPDEST DUP5 SLOAD PUSH1 0x1 PUSH1 0x1 PUSH1 0xA0 SHL SUB AND DUP4 MSTORE PUSH1 0x1 SWAP5 DUP6 ADD SWAP5 DUP8 SWAP5 POP PUSH1 0x20 SWAP1 SWAP4 ADD SWAP3 ADD PUSH2 0x233D JUMP JUMPDEST PUSH1 0x0 NOT DUP2 EQ PUSH2 0x6A6 JUMPI PUSH1 0x1 ADD SWAP1 JUMP JUMPDEST SWAP1 PUSH2 0x238D DUP3 PUSH2 0x20B4 JUMP JUMPDEST PUSH2 0x239A PUSH1 0x40 MLOAD SWAP2 DUP3 PUSH2 0x1D61 JUMP JUMPDEST DUP3 DUP2 MSTORE DUP1 SWAP3 PUSH2 0x23AB PUSH1 0x1F NOT SWAP2 PUSH2 0x20B4 JUMP JUMPDEST ADD SWAP1 PUSH1 0x20 CALLDATASIZE SWAP2 ADD CALLDATACOPY JUMP JUMPDEST SWAP1 PUSH2 0x23BF DUP3 PUSH2 0x20B4 JUMP JUMPDEST PUSH2 0x23CC PUSH1 0x40 MLOAD SWAP2 DUP3 PUSH2 0x1D61 JUMP JUMPDEST DUP3 DUP2 MSTORE DUP1 SWAP3 PUSH2 0x23DD PUSH1 0x1F NOT SWAP2 PUSH2 0x20B4 JUMP JUMPDEST ADD SWAP1 PUSH1 0x0 JUMPDEST DUP3 DUP2 LT PUSH2 0x23EE JUMPI POP POP POP JUMP JUMPDEST PUSH1 0x20 SWAP1 PUSH2 0x23F9 PUSH2 0x22B6 JUMP JUMPDEST DUP3 DUP3 DUP6 ADD ADD MSTORE ADD PUSH2 0x23E2 JUMP JUMPDEST DUP1 MLOAD DUP3 LT ISZERO PUSH2 0x1CD9 JUMPI PUSH1 0x20 SWAP2 PUSH1 0x5 SHL ADD ADD SWAP1 JUMP INVALID LOG2 PUSH5 0x6970667358 0x22 SLT KECCAK256 0xE0 0xB3 0xC2 0xDC 0xEC DUP4 DUP13 SWAP9 0xAA 0x2C DUP5 0xC8 RETURNDATACOPY BASEFEE 0x4F 0xA7 GASPRICE 0xE4 DUP16 EXTCODEHASH 0x25 0xD2 0xDB 0xE4 SUB DUP5 PC PUSH0 DUP2 PUSH16 0x692264736F6C634300081C0033000000 "
        },
        "methodIdentifiers": {
          "buyTicket(uint256)": "67dd74ca",
          "cancelEvent(uint256)": "3f69babd",
          "createEvent(string,string,string,uint64,uint64,uint64,string,uint256,address)": "1ad52135",
          "events(uint256)": "0b791430",
          "getActiveEventsByCreator()": "ccfd6d3c",
          "getAllEvents()": "c27a500d",
          "getAttendees(uint256)": "e0c14377",
          "getEventById(uint256)": "b98079bc",
          "getEventLength()": "5c98dfa1",
          "getEventsByCreator(address)": "20020581",
          "hasPurchasedTicket(uint256,address)": "439fd35f",
          "mentoExchange()": "bd287c76",
          "releaseFunds(uint256)": "4d68282f",
          "requestRefund(uint256)": "a4b2409e",
          "supportedTokens(address)": "68c4ac26"
        }
      }
    }
  }
}