{
  "contracts/EventChain.sol": {
    "EventChain": {
      "abi": [
        {
          "inputs": [
            {
              "internalType": "address[]",
              "name": "_supportedTokens",
              "type": "address[]"
            }
          ],
          "stateMutability": "nonpayable",
          "type": "constructor"
        },
        {
          "anonymous": false,
          "inputs": [
            {
              "indexed": true,
              "internalType": "uint256",
              "name": "eventId",
              "type": "uint256"
            }
          ],
          "name": "EventCanceled",
          "type": "event"
        },
        {
          "anonymous": false,
          "inputs": [
            {
              "indexed": true,
              "internalType": "uint256",
              "name": "eventId",
              "type": "uint256"
            },
            {
              "indexed": true,
              "internalType": "address",
              "name": "owner",
              "type": "address"
            },
            {
              "indexed": false,
              "internalType": "string",
              "name": "eventName",
              "type": "string"
            }
          ],
          "name": "EventCreated",
          "type": "event"
        },
        {
          "anonymous": false,
          "inputs": [
            {
              "indexed": true,
              "internalType": "uint256",
              "name": "eventId",
              "type": "uint256"
            },
            {
              "indexed": true,
              "internalType": "address",
              "name": "owner",
              "type": "address"
            },
            {
              "indexed": false,
              "internalType": "string",
              "name": "eventName",
              "type": "string"
            }
          ],
          "name": "EventUpdated",
          "type": "event"
        },
        {
          "anonymous": false,
          "inputs": [
            {
              "indexed": true,
              "internalType": "uint256",
              "name": "eventId",
              "type": "uint256"
            },
            {
              "indexed": false,
              "internalType": "uint256",
              "name": "amount",
              "type": "uint256"
            }
          ],
          "name": "FundsReleased",
          "type": "event"
        },
        {
          "anonymous": false,
          "inputs": [
            {
              "indexed": true,
              "internalType": "uint256",
              "name": "eventId",
              "type": "uint256"
            },
            {
              "indexed": true,
              "internalType": "address",
              "name": "user",
              "type": "address"
            },
            {
              "indexed": false,
              "internalType": "uint256",
              "name": "amount",
              "type": "uint256"
            }
          ],
          "name": "RefundIssued",
          "type": "event"
        },
        {
          "anonymous": false,
          "inputs": [
            {
              "indexed": true,
              "internalType": "uint256",
              "name": "eventId",
              "type": "uint256"
            },
            {
              "indexed": true,
              "internalType": "address",
              "name": "buyer",
              "type": "address"
            },
            {
              "indexed": false,
              "internalType": "uint256",
              "name": "amount",
              "type": "uint256"
            },
            {
              "indexed": false,
              "internalType": "address",
              "name": "paymentToken",
              "type": "address"
            }
          ],
          "name": "TicketPurchased",
          "type": "event"
        },
        {
          "inputs": [
            {
              "internalType": "uint256",
              "name": "_index",
              "type": "uint256"
            }
          ],
          "name": "buyTicket",
          "outputs": [],
          "stateMutability": "nonpayable",
          "type": "function"
        },
        {
          "inputs": [
            {
              "internalType": "uint256",
              "name": "_index",
              "type": "uint256"
            }
          ],
          "name": "cancelEvent",
          "outputs": [],
          "stateMutability": "nonpayable",
          "type": "function"
        },
        {
          "inputs": [
            {
              "internalType": "string",
              "name": "_eventName",
              "type": "string"
            },
            {
              "internalType": "string",
              "name": "_eventCardImgUrl",
              "type": "string"
            },
            {
              "internalType": "string",
              "name": "_eventDetails",
              "type": "string"
            },
            {
              "internalType": "uint64",
              "name": "_eventDate",
              "type": "uint64"
            },
            {
              "internalType": "uint64",
              "name": "_startTime",
              "type": "uint64"
            },
            {
              "internalType": "uint64",
              "name": "_endTime",
              "type": "uint64"
            },
            {
              "internalType": "string",
              "name": "_eventLocation",
              "type": "string"
            },
            {
              "internalType": "uint256",
              "name": "_ticketPrice",
              "type": "uint256"
            },
            {
              "internalType": "address",
              "name": "_paymentToken",
              "type": "address"
            }
          ],
          "name": "createEvent",
          "outputs": [],
          "stateMutability": "nonpayable",
          "type": "function"
        },
        {
          "inputs": [
            {
              "internalType": "uint256",
              "name": "",
              "type": "uint256"
            }
          ],
          "name": "events",
          "outputs": [
            {
              "internalType": "address",
              "name": "owner",
              "type": "address"
            },
            {
              "internalType": "string",
              "name": "eventName",
              "type": "string"
            },
            {
              "internalType": "string",
              "name": "eventCardImgUrl",
              "type": "string"
            },
            {
              "internalType": "string",
              "name": "eventDetails",
              "type": "string"
            },
            {
              "internalType": "uint64",
              "name": "eventDate",
              "type": "uint64"
            },
            {
              "internalType": "uint64",
              "name": "startTime",
              "type": "uint64"
            },
            {
              "internalType": "uint64",
              "name": "endTime",
              "type": "uint64"
            },
            {
              "internalType": "string",
              "name": "eventLocation",
              "type": "string"
            },
            {
              "internalType": "bool",
              "name": "isActive",
              "type": "bool"
            },
            {
              "internalType": "uint256",
              "name": "ticketPrice",
              "type": "uint256"
            },
            {
              "internalType": "uint256",
              "name": "fundsHeld",
              "type": "uint256"
            },
            {
              "internalType": "bool",
              "name": "isCanceled",
              "type": "bool"
            },
            {
              "internalType": "bool",
              "name": "fundsReleased",
              "type": "bool"
            },
            {
              "internalType": "address",
              "name": "paymentToken",
              "type": "address"
            }
          ],
          "stateMutability": "view",
          "type": "function"
        },
        {
          "inputs": [],
          "name": "getActiveEventsByCreator",
          "outputs": [
            {
              "internalType": "uint256[]",
              "name": "",
              "type": "uint256[]"
            },
            {
              "components": [
                {
                  "internalType": "address",
                  "name": "owner",
                  "type": "address"
                },
                {
                  "internalType": "string",
                  "name": "eventName",
                  "type": "string"
                },
                {
                  "internalType": "string",
                  "name": "eventCardImgUrl",
                  "type": "string"
                },
                {
                  "internalType": "string",
                  "name": "eventDetails",
                  "type": "string"
                },
                {
                  "internalType": "uint64",
                  "name": "eventDate",
                  "type": "uint64"
                },
                {
                  "internalType": "uint64",
                  "name": "startTime",
                  "type": "uint64"
                },
                {
                  "internalType": "uint64",
                  "name": "endTime",
                  "type": "uint64"
                },
                {
                  "internalType": "string",
                  "name": "eventLocation",
                  "type": "string"
                },
                {
                  "internalType": "bool",
                  "name": "isActive",
                  "type": "bool"
                },
                {
                  "internalType": "uint256",
                  "name": "ticketPrice",
                  "type": "uint256"
                },
                {
                  "internalType": "uint256",
                  "name": "fundsHeld",
                  "type": "uint256"
                },
                {
                  "internalType": "bool",
                  "name": "isCanceled",
                  "type": "bool"
                },
                {
                  "internalType": "bool",
                  "name": "fundsReleased",
                  "type": "bool"
                },
                {
                  "internalType": "address",
                  "name": "paymentToken",
                  "type": "address"
                }
              ],
              "internalType": "struct EventChain.Event[]",
              "name": "",
              "type": "tuple[]"
            }
          ],
          "stateMutability": "view",
          "type": "function"
        },
        {
          "inputs": [],
          "name": "getAllEvents",
          "outputs": [
            {
              "internalType": "uint256[]",
              "name": "",
              "type": "uint256[]"
            },
            {
              "components": [
                {
                  "internalType": "address",
                  "name": "owner",
                  "type": "address"
                },
                {
                  "internalType": "string",
                  "name": "eventName",
                  "type": "string"
                },
                {
                  "internalType": "string",
                  "name": "eventCardImgUrl",
                  "type": "string"
                },
                {
                  "internalType": "string",
                  "name": "eventDetails",
                  "type": "string"
                },
                {
                  "internalType": "uint64",
                  "name": "eventDate",
                  "type": "uint64"
                },
                {
                  "internalType": "uint64",
                  "name": "startTime",
                  "type": "uint64"
                },
                {
                  "internalType": "uint64",
                  "name": "endTime",
                  "type": "uint64"
                },
                {
                  "internalType": "string",
                  "name": "eventLocation",
                  "type": "string"
                },
                {
                  "internalType": "bool",
                  "name": "isActive",
                  "type": "bool"
                },
                {
                  "internalType": "uint256",
                  "name": "ticketPrice",
                  "type": "uint256"
                },
                {
                  "internalType": "uint256",
                  "name": "fundsHeld",
                  "type": "uint256"
                },
                {
                  "internalType": "bool",
                  "name": "isCanceled",
                  "type": "bool"
                },
                {
                  "internalType": "bool",
                  "name": "fundsReleased",
                  "type": "bool"
                },
                {
                  "internalType": "address",
                  "name": "paymentToken",
                  "type": "address"
                }
              ],
              "internalType": "struct EventChain.Event[]",
              "name": "",
              "type": "tuple[]"
            }
          ],
          "stateMutability": "view",
          "type": "function"
        },
        {
          "inputs": [
            {
              "internalType": "uint256",
              "name": "_index",
              "type": "uint256"
            }
          ],
          "name": "getAttendees",
          "outputs": [
            {
              "internalType": "address[]",
              "name": "",
              "type": "address[]"
            }
          ],
          "stateMutability": "view",
          "type": "function"
        },
        {
          "inputs": [
            {
              "internalType": "uint256",
              "name": "_index",
              "type": "uint256"
            }
          ],
          "name": "getEventById",
          "outputs": [
            {
              "components": [
                {
                  "internalType": "address",
                  "name": "owner",
                  "type": "address"
                },
                {
                  "internalType": "string",
                  "name": "eventName",
                  "type": "string"
                },
                {
                  "internalType": "string",
                  "name": "eventCardImgUrl",
                  "type": "string"
                },
                {
                  "internalType": "string",
                  "name": "eventDetails",
                  "type": "string"
                },
                {
                  "internalType": "uint64",
                  "name": "eventDate",
                  "type": "uint64"
                },
                {
                  "internalType": "uint64",
                  "name": "startTime",
                  "type": "uint64"
                },
                {
                  "internalType": "uint64",
                  "name": "endTime",
                  "type": "uint64"
                },
                {
                  "internalType": "string",
                  "name": "eventLocation",
                  "type": "string"
                },
                {
                  "internalType": "bool",
                  "name": "isActive",
                  "type": "bool"
                },
                {
                  "internalType": "uint256",
                  "name": "ticketPrice",
                  "type": "uint256"
                },
                {
                  "internalType": "uint256",
                  "name": "fundsHeld",
                  "type": "uint256"
                },
                {
                  "internalType": "bool",
                  "name": "isCanceled",
                  "type": "bool"
                },
                {
                  "internalType": "bool",
                  "name": "fundsReleased",
                  "type": "bool"
                },
                {
                  "internalType": "address",
                  "name": "paymentToken",
                  "type": "address"
                }
              ],
              "internalType": "struct EventChain.Event",
              "name": "",
              "type": "tuple"
            },
            {
              "internalType": "address[]",
              "name": "",
              "type": "address[]"
            },
            {
              "components": [
                {
                  "internalType": "address",
                  "name": "owner",
                  "type": "address"
                },
                {
                  "internalType": "string",
                  "name": "eventName",
                  "type": "string"
                },
                {
                  "internalType": "string",
                  "name": "eventCardImgUrl",
                  "type": "string"
                },
                {
                  "internalType": "string",
                  "name": "eventDetails",
                  "type": "string"
                },
                {
                  "internalType": "uint64",
                  "name": "eventDate",
                  "type": "uint64"
                },
                {
                  "internalType": "uint64",
                  "name": "startTime",
                  "type": "uint64"
                },
                {
                  "internalType": "uint64",
                  "name": "endTime",
                  "type": "uint64"
                },
                {
                  "internalType": "string",
                  "name": "eventLocation",
                  "type": "string"
                },
                {
                  "internalType": "bool",
                  "name": "isActive",
                  "type": "bool"
                },
                {
                  "internalType": "uint256",
                  "name": "ticketPrice",
                  "type": "uint256"
                },
                {
                  "internalType": "uint256",
                  "name": "fundsHeld",
                  "type": "uint256"
                },
                {
                  "internalType": "bool",
                  "name": "isCanceled",
                  "type": "bool"
                },
                {
                  "internalType": "bool",
                  "name": "fundsReleased",
                  "type": "bool"
                },
                {
                  "internalType": "address",
                  "name": "paymentToken",
                  "type": "address"
                }
              ],
              "internalType": "struct EventChain.Event[]",
              "name": "",
              "type": "tuple[]"
            }
          ],
          "stateMutability": "view",
          "type": "function"
        },
        {
          "inputs": [],
          "name": "getEventLength",
          "outputs": [
            {
              "internalType": "uint256",
              "name": "",
              "type": "uint256"
            }
          ],
          "stateMutability": "view",
          "type": "function"
        },
        {
          "inputs": [
            {
              "internalType": "address",
              "name": "_creator",
              "type": "address"
            }
          ],
          "name": "getEventsByCreator",
          "outputs": [
            {
              "components": [
                {
                  "internalType": "address",
                  "name": "owner",
                  "type": "address"
                },
                {
                  "internalType": "string",
                  "name": "eventName",
                  "type": "string"
                },
                {
                  "internalType": "string",
                  "name": "eventCardImgUrl",
                  "type": "string"
                },
                {
                  "internalType": "string",
                  "name": "eventDetails",
                  "type": "string"
                },
                {
                  "internalType": "uint64",
                  "name": "eventDate",
                  "type": "uint64"
                },
                {
                  "internalType": "uint64",
                  "name": "startTime",
                  "type": "uint64"
                },
                {
                  "internalType": "uint64",
                  "name": "endTime",
                  "type": "uint64"
                },
                {
                  "internalType": "string",
                  "name": "eventLocation",
                  "type": "string"
                },
                {
                  "internalType": "bool",
                  "name": "isActive",
                  "type": "bool"
                },
                {
                  "internalType": "uint256",
                  "name": "ticketPrice",
                  "type": "uint256"
                },
                {
                  "internalType": "uint256",
                  "name": "fundsHeld",
                  "type": "uint256"
                },
                {
                  "internalType": "bool",
                  "name": "isCanceled",
                  "type": "bool"
                },
                {
                  "internalType": "bool",
                  "name": "fundsReleased",
                  "type": "bool"
                },
                {
                  "internalType": "address",
                  "name": "paymentToken",
                  "type": "address"
                }
              ],
              "internalType": "struct EventChain.Event[]",
              "name": "",
              "type": "tuple[]"
            }
          ],
          "stateMutability": "view",
          "type": "function"
        },
        {
          "inputs": [
            {
              "internalType": "uint256",
              "name": "",
              "type": "uint256"
            },
            {
              "internalType": "address",
              "name": "",
              "type": "address"
            }
          ],
          "name": "hasPurchasedTicket",
          "outputs": [
            {
              "internalType": "bool",
              "name": "",
              "type": "bool"
            }
          ],
          "stateMutability": "view",
          "type": "function"
        },
        {
          "inputs": [
            {
              "internalType": "uint256",
              "name": "_index",
              "type": "uint256"
            }
          ],
          "name": "releaseFunds",
          "outputs": [],
          "stateMutability": "nonpayable",
          "type": "function"
        },
        {
          "inputs": [
            {
              "internalType": "uint256",
              "name": "_index",
              "type": "uint256"
            }
          ],
          "name": "requestRefund",
          "outputs": [],
          "stateMutability": "nonpayable",
          "type": "function"
        },
        {
          "inputs": [
            {
              "internalType": "address",
              "name": "",
              "type": "address"
            }
          ],
          "name": "supportedTokens",
          "outputs": [
            {
              "internalType": "bool",
              "name": "",
              "type": "bool"
            }
          ],
          "stateMutability": "view",
          "type": "function"
        }
      ],
      "evm": {
        "bytecode": {
          "linkReferences": {},
          "object": "6080604052346100f1576126c5803803806100198161010c565b9283398101906020818303126100f1578051906001600160401b0382116100f1570181601f820112156100f1578051916001600160401b0383116100f6578260051b9160208061006a81860161010c565b8096815201938201019182116100f157602001915b8183106100d1578360005b81518110156100c25760019060406000838060a01b0360208460051b8701015116815280602052208260ff198254161790550161008a565b60405161259390816101328239f35b82516001600160a01b03811681036100f15781526020928301920161007f565b600080fd5b634e487b7160e01b600052604160045260246000fd5b6040519190601f01601f191682016001600160401b038111838210176100f65760405256fe6080604052600436101561001257600080fd5b60003560e01c80630b79143014611cae5780631ad5213514610f4b5780632002058114610efd5780633f69babd14610e2e578063439fd35f14610dd65780634d68282f14610b575780635c98dfa114610b3957806367dd74ca146107d657806368c4ac2614610797578063a4b2409e146103de578063b98079bc146102ec578063c27a500d14610238578063ccfd6d3c1461010c5763e0c14377146100b657600080fd5b34610107576020366003190112610107576004356100d7600154821061238b565b60005260026020526101036100ef6040600020612464565b604051918291602083526020830190612168565b0390f35b600080fd5b34610107576000366003190112610107576001546000805b8281106101e4575061013e610138826124c7565b916124f9565b916000805b82811061015c57505050610103604051928392836121a5565b61016581611dfe565b50546001600160a01b03163314806101cd575b610185575b600101610143565b906101c5818361019760019488612549565b526101aa6101a485611dfe565b5061220f565b6101b48289612549565b526101bf8188612549565b506124b8565b91905061017d565b5060ff60066101db83611dfe565b50015416610178565b6101ed81611dfe565b50546001600160a01b0316331480610221575b61020d575b600101610124565b906102196001916124b8565b919050610205565b5060ff600661022f83611dfe565b50015416610200565b34610107576000366003190112610107576001546000805b8281106102ba5750610264610138826124c7565b916000805b82811061028257505050610103604051928392836121a5565b60ff600661028f83611dfe565b500154166102a0575b600101610269565b906102b2818361019760019488612549565b919050610298565b60ff60066102c783611dfe565b500154166102d8575b600101610250565b906102e46001916124b8565b9190506102d0565b34610107576020366003190112610107576004356103086123fa565b506001548110156103a2578061010361032361038693611dfe565b5082600052600260205261033b604060002093611dfe565b5060018060a01b03905416600052600360205261039461037161036b61036560406000209461220f565b95612464565b926122f4565b91604051958695606087526060870190612017565b908582036020870152612168565b90838203604085015261210f565b60405162461bcd60e51b8152602060048201526014602482015273115d995b9d08191bd95cc81b9bdd08195e1a5cdd60621b6044820152606490fd5b34610107576020366003190112610107576004356103ff600154821061238b565b600081815260046020908152604080832033845290915290205460ff161561075c5760ff600961042e83611dfe565b50015416156106da575b600761044382611dfe565b5001549081600861045383611dfe565b500154106106955760008181526004602090815260408083203384529091529020805460ff19169055600861048782611dfe565b5001805490838203918211610676575580600052600260205260406000209060005b82548082101561068c576104bd82856123e2565b905460039190911b1c6001600160a01b031633146104de57506001016104a9565b919291600019810191908211610676576105176104fe61053b93856123e2565b905460039190911b1c6001600160a01b031691846123e2565b81546001600160a01b0393841660039290921b91821b9390911b1916919091179055565b8054801561066057600019019061055282826123e2565b81549060018060a01b039060031b1b19169055555b61057081611dfe565b506009015460405163a9059cbb60e01b81523360048201526024810184905290602090829060101c6001600160a01b0316816000816044810103925af190811561065457600091610625575b50156105f0576040519182527f7a482fdeb6bc9a1376f597068a214a7a39472bb2eff1b8cad21ba04f49ddca1b60203393a3005b60405162461bcd60e51b815260206004820152600d60248201526c1499599d5b990819985a5b1959609a1b6044820152606490fd5b610647915060203d60201161064d575b61063f8183611ea5565b8101906123ca565b836105bc565b503d610635565b6040513d6000823e3d90fd5b634e487b7160e01b600052603160045260246000fd5b634e487b7160e01b600052601160045260246000fd5b50509050610567565b60405162461bcd60e51b815260206004820152601c60248201527f496e73756666696369656e742066756e647320696e20657363726f77000000006044820152606490fd5b6106e381611dfe565b506001600160401b03600461464f1992015460401c16016001600160401b038111610676576001600160401b031642106104385760405162461bcd60e51b815260206004820152601760248201527f526566756e6420706572696f642068617320656e6465640000000000000000006044820152606490fd5b60405162461bcd60e51b8152602060048201526013602482015272139bc81d1a58dad95d081c1d5c98da185cd959606a1b6044820152606490fd5b34610107576020366003190112610107576001600160a01b036107b8612001565b166000526000602052602060ff604060002054166040519015158152f35b34610107576020366003190112610107576004356107f7600154821061238b565b6001600160401b03600461080a83611dfe565b50015416421015610b045760ff600661082283611dfe565b5001541615610acb57600081815260046020908152604080832033845290915290205460ff16610a9257600761085782611dfe565b5001549061086481611dfe565b5060090154604051636eb1769f60e11b815233600482015230602482015260109190911c6001600160a01b031690602081604481855afa8015610654578491600091610a5d575b5010610a18576040516323b872dd60e01b8152336004820152306024820152604481018490526020816064816000865af1908115610654576000916109f9575b50156109c35760008281526004602090815260408083203384528252808320805460ff1916600117905584835260029091529020805490600160401b8210156109ad578161094191600161095f940181556123e2565b81546001600160a01b0360039290921b91821b19163390911b179055565b600861096a83611dfe565b5001805490848201809211610676575560405192835260208301527f504ef6dabca28c1452704d54bd8e25708d87e0c27d852eceea53a0c0d898675860403393a3005b634e487b7160e01b600052604160045260246000fd5b60405162461bcd60e51b815260206004820152600e60248201526d14185e5b595b9d0819985a5b195960921b6044820152606490fd5b610a12915060203d60201161064d5761063f8183611ea5565b846108eb565b60405162461bcd60e51b815260206004820152601c60248201527f496e73756666696369656e7420746f6b656e20616c6c6f77616e6365000000006044820152606490fd5b9150506020813d602011610a8a575b81610a7960209383611ea5565b8101031261010757839051856108ab565b3d9150610a6c565b60405162461bcd60e51b8152602060048201526011602482015270105b1c9958591e481c1d5c98da185cd959607a1b6044820152606490fd5b60405162461bcd60e51b81526020600482015260116024820152704576656e7420697320696e61637469766560781b6044820152606490fd5b60405162461bcd60e51b815260206004820152600d60248201526c115d995b9d08195e1c1a5c9959609a1b6044820152606490fd5b34610107576000366003190112610107576020600154604051908152f35b3461010757602036600319011261010757600435610b89610b7782611dfe565b50546001600160a01b0316331461234d565b610b96600154821061238b565b6001600160401b036004610ba983611dfe565b50015416421115610d915760ff6009610bc183611dfe565b50015416610d3a5760ff6009610bd683611dfe565b50015460081c16610cfc576008610bec82611dfe565b50015460006008610bfc84611dfe565b5001556009610c0a83611dfe565b5001805461ff001916610100179055610c2282611dfe565b506009015460405163a9059cbb60e01b81523360048201526024810183905290602090829060101c6001600160a01b0316816000816044810103925af190811561065457600091610cdd575b5015610ca15760207f80230996023d69b50793fa73f1919127c9d8e741d3989743c479169f22e7a28891604051908152a2005b60405162461bcd60e51b8152602060048201526014602482015273119d5b99081d1c985b9cd9995c8819985a5b195960621b6044820152606490fd5b610cf6915060203d60201161064d5761063f8183611ea5565b83610c6e565b60405162461bcd60e51b8152602060048201526016602482015275119d5b991cc8185b1c9958591e481c995b19585cd95960521b6044820152606490fd5b60405162461bcd60e51b815260206004820152602960248201527f43616e6e6f742072656c656173652066756e647320666f7220612063616e63656044820152681b195908195d995b9d60ba1b6064820152608490fd5b60405162461bcd60e51b815260206004820152601a60248201527f4576656e7420686173206e6f74206f63637572726564207965740000000000006044820152606490fd5b34610107576040366003190112610107576024356001600160a01b038116810361010757600435600052600460205260406000209060018060a01b0316600052602052602060ff604060002054166040519015158152f35b3461010757602036600319011261010757600435610e4e610b7782611dfe565b610e5b600154821061238b565b60ff6006610e6883611dfe565b5001541615610ec5576006610e7c82611dfe565b5001805460ff191690556009610e9182611dfe565b5001805460ff191660011790557fceaf11772900fe569752a0207c8639fb8228eb8663456dc9eaa3a08f927a8705600080a2005b60405162461bcd60e51b815260206004820152601060248201526f105b1c9958591e4818d85b98d95b195960821b6044820152606490fd5b34610107576020366003190112610107576001600160a01b03610f1e612001565b166000526003602052610103610f3760406000206122f4565b60405191829160208352602083019061210f565b3461010757610120366003190112610107576004356001600160401b03811161010757610f7c903690600401611fab565b6024356001600160401b03811161010757610f9b903690600401611fab565b906044356001600160401b03811161010757610fbb903690600401611fab565b6064356001600160401b038116809103610107576084356001600160401b0381168091036101075760a435906001600160401b0382168092036101075760c4356001600160401b03811161010757611017903690600401611fab565b92610104359460018060a01b0386168096036101075785600052600060205260ff6040600020541615611c69576040519761105189611e89565b3389528760208a015260408901526060880152608087015260a086015260c085015260e0840152600161010084015260e4356101208401526000610140840152600061016084015260006101808401526101a0830152600154600160401b8110156109ad578060016110c892016001556001611e33565b92909261194f57805183546001600160a01b0319166001600160a01b0391909116178355602081015180519093906001600160401b0381116109ad576111116001830154611e4f565b601f8111611c22575b506020601f8211600114611bb4578192939495600092611ba9575b50508160011b916000199060031b1c19161760018201555b60408201519283516001600160401b0381116109ad576111706002840154611e4f565b601f8111611b62575b506020601f8211600114611af4578192939495600092611ae9575b50508160011b916000199060031b1c19161760028301555b60608301519283516001600160401b0381116109ad576111cf6003850154611e4f565b601f8111611aa2575b506020601f8211600114611a34578192939495600092611a29575b50508160011b916000199060031b1c19161760038401555b600483016001600160401b0360808301511681549067ffffffffffffffff60401b60a085015160401b16906001600160401b0360801b60c086015160801b16926001600160401b0360c01b16171717905560e08101519283516001600160401b0381116109ad5761127f6005830154611e4f565b601f81116119e2575b506020601f82116001146119705781906009949596600092611965575b50508160011b916000199060031b1c19161760058201555b6112dd6101008401511515600683019060ff801983541691151516179055565b61012083015160078201556101408301516008820155016113116101608301511515829060ff801983541691151516179055565b610180820151815461ff00191690151560081b61ff00161781556101a0820151815462010000600160b01b03191660109190911b62010000600160b01b03161790553360009081526003602052604090208054600160401b8110156109ad5761137f91600182018155611e33565b61194f57815181546001600160a01b0319166001600160a01b03919091161781556020820151805160018301916001600160401b0382116109ad5781906113c68454611e4f565b601f81116118fc575b50602090601f83116001146118975760009261188c575b50508160011b916000199060031b1c19161790555b6002810160408301518051906001600160401b0382116109ad5781906114218454611e4f565b601f8111611839575b50602090601f83116001146117d4576000926117c9575b50508160011b916000199060031b1c19161790555b6003810160608301518051906001600160401b0382116109ad57819061147c8454611e4f565b601f8111611776575b50602090601f831160011461171157600092611706575b50508160011b916000199060031b1c19161790555b600481016001600160401b0360808401511681549067ffffffffffffffff60401b60a086015160401b16906001600160401b0360801b60c087015160801b16926001600160401b0360c01b1617171790556005810160e08301518051906001600160401b0382116109ad576115268354611e4f565b601f81116116be575b50602090601f8311600114611650579180600994926101a09694600092611645575b50508160011b916000199060031b1c19161790555b6115866101008501511515600683019060ff801983541691151516179055565b6101208401516007820155610140840151600882015501916115bb6101608201511515849060ff801983541691151516179055565b610180810151835461ff00191690151560081b61ff00161783550151815462010000600160b01b03191660109190911b62010000600160b01b03161790556001546000198101908111610676577ffc695dea2478fb938a11068aeedddd7046a5fe655f136e30a325d353fe187a45604051602081528061164033956020830190611f6a565b0390a3005b015190508880611551565b90601f1983169184600052816000209260005b8181106116a657509260019285926101a09896600998961061168d575b505050811b019055611566565b015160001960f88460031b161c19169055888080611680565b92936020600181928786015181550195019301611663565b836000526020600020601f840160051c810191602085106116fc575b601f0160051c01905b8181106116f0575061152f565b600081556001016116e3565b90915081906116da565b01519050868061149c565b60008581528281209350601f198516905b81811061175e5750908460019594939210611745575b505050811b0190556114b1565b015160001960f88460031b161c19169055868080611738565b92936020600181928786015181550195019301611722565b909150836000526020600020601f840160051c810191602085106117bf575b90601f859493920160051c01905b8181106117b05750611485565b600081558493506001016117a3565b9091508190611795565b015190508680611441565b60008581528281209350601f198516905b8181106118215750908460019594939210611808575b505050811b019055611456565b015160001960f88460031b161c191690558680806117fb565b929360206001819287860151815501950193016117e5565b909150836000526020600020601f840160051c81019160208510611882575b90601f859493920160051c01905b818110611873575061142a565b60008155849350600101611866565b9091508190611858565b0151905086806113e6565b60008581528281209350601f198516905b8181106118e457509084600195949392106118cb575b505050811b0190556113fb565b015160001960f88460031b161c191690558680806118be565b929360206001819287860151815501950193016118a8565b909150836000526020600020601f840160051c81019160208510611945575b90601f859493920160051c01905b81811061193657506113cf565b60008155849350600101611929565b909150819061191b565b634e487b7160e01b600052600060045260246000fd5b0151905086806112a5565b60058301600052806000209560005b601f19841681106119ca57509582916009959697600194601f198116106119b1575b505050811b0160058201556112bd565b015160001960f88460031b161c191690558680806119a1565b8282015188556001909701966020928301920161197f565b600583016000526020600020601f830160051c810160208410611a22575b601f830160051c82018110611a16575050611288565b60008155600101611a00565b5080611a00565b0151905085806111f3565b60038501600052806000209060005b601f1984168110611a8a575060019394959683601f19811610611a71575b505050811b01600384015561120b565b015160001960f88460031b161c19169055858080611a61565b9091602060018192858b015181550193019101611a43565b600385016000526020600020601f830160051c810160208410611ae2575b601f830160051c82018110611ad65750506111d8565b60008155600101611ac0565b5080611ac0565b015190508580611194565b60028401600052806000209060005b601f1984168110611b4a575060019394959683601f19811610611b31575b505050811b0160028301556111ac565b015160001960f88460031b161c19169055858080611b21565b9091602060018192858b015181550193019101611b03565b600284016000526020600020601f830160051c810160208410611ba2575b601f830160051c82018110611b96575050611179565b60008155600101611b80565b5080611b80565b015190508580611135565b60018301600052806000209060005b601f1984168110611c0a575060019394959683601f19811610611bf1575b505050811b01600182015561114d565b015160001960f88460031b161c19169055858080611be1565b9091602060018192858b015181550193019101611bc3565b600183016000526020600020601f830160051c810160208410611c62575b601f830160051c82018110611c5657505061111a565b60008155600101611c40565b5080611c40565b60405162461bcd60e51b815260206004820152601960248201527f556e737570706f72746564207061796d656e7420746f6b656e000000000000006044820152606490fd5b346101075760203660031901126101075760043560015481101561010757611cd590611dfe565b5080546001600160a01b0316611ced60018301611ec6565b91611cfa60028201611ec6565b611d0660038301611ec6565b60048301549290611d1960058301611ec6565b600683015460ff16946007840154926008850154946009015495604051998a998a5260208a016101c090526101c08a01611d5291611f6a565b89810360408b0152611d6391611f6a565b88810360608a0152611d7491611f6a565b906001600160401b03811660808901528060401c6001600160401b031660a089015260801c6001600160401b031660c088015286810360e0880152611db891611f6a565b93151561010086015261012085015261014084015260ff8181161515610160850152600882901c16151561018084015260101c6001600160a01b03166101a08301520390f35b600154811015611e1d576001600052600a602060002091020190600090565b634e487b7160e01b600052603260045260246000fd5b8054821015611e1d57600052600a602060002091020190600090565b90600182811c92168015611e7f575b6020831014611e6957565b634e487b7160e01b600052602260045260246000fd5b91607f1691611e5e565b6101c081019081106001600160401b038211176109ad57604052565b90601f801991011681019081106001600160401b038211176109ad57604052565b9060405191826000825492611eda84611e4f565b8084529360018116908115611f485750600114611f01575b50611eff92500383611ea5565b565b90506000929192526020600020906000915b818310611f2c575050906020611eff9282010138611ef2565b6020919350806001915483858901015201910190918492611f13565b905060209250611eff94915060ff191682840152151560051b82010138611ef2565b919082519283825260005b848110611f96575050826000602080949584010152601f8019910116010190565b80602080928401015182828601015201611f75565b81601f82011215610107578035906001600160401b0382116109ad5760405192611fdf601f8401601f191660200185611ea5565b8284526020838301011161010757816000926020809301838601378301015290565b600435906001600160a01b038216820361010757565b9060018060a01b0382511681526101a06120ba61206f61205d61204b60208701516101c060208801526101c0870190611f6a565b60408701518682036040880152611f6a565b60608601518582036060870152611f6a565b6001600160401b0360808601511660808501526001600160401b0360a08601511660a08501526001600160401b0360c08601511660c085015260e085015184820360e0860152611f6a565b926101008101511515610100840152610120810151610120840152610140810151610140840152610160810151151561016084015261018081015115156101808401528160018060a01b039101511691015290565b9080602083519182815201916020808360051b8301019401926000915b83831061213b57505050505090565b9091929394602080612159600193601f198682030187528951612017565b9701930193019193929061212c565b906020808351928381520192019060005b8181106121865750505090565b82516001600160a01b0316845260209384019390920191600101612179565b9291604084019360408152825180955260206060820193016000955b8087106121e05750506121dd939450602081840391015261210f565b90565b909360208060019287518152019501960195906121c1565b6001600160401b0381116109ad5760051b60200190565b9060405161221c81611e89565b82546001600160a01b031681529182906101a09060099061223f60018201611ec6565b602085015261225060028201611ec6565b604085015261226160038201611ec6565b60608501526001600160401b0360048201548181166080870152818160401c1660a087015260801c1660c085015261229b60058201611ec6565b60e085015260ff600682015416151561010085015260078101546101208501526008810154610140850152015460ff8116151561016084015260ff8160081c16151561018084015260018060a01b039060101c16910152565b908154612300816121f8565b9261230e6040519485611ea5565b818452602084019060005260206000206000915b83831061232f5750505050565b600a602060019261233f8561220f565b815201920192019190612322565b1561235457565b60405162461bcd60e51b815260206004820152600f60248201526e2737ba1032bb32b73a1037bbb732b960891b6044820152606490fd5b1561239257565b60405162461bcd60e51b815260206004820152601060248201526f125b9d985b1a5908195d995b9d08125160821b6044820152606490fd5b90816020910312610107575180151581036101075790565b8054821015611e1d5760005260206000200190600090565b6040519061240782611e89565b60006101a08382815260606020820152606060408201526060808201528260808201528260a08201528260c0820152606060e082015282610100820152826101208201528261014082015282610160820152826101808201520152565b906040519182815491828252602082019060005260206000209260005b818110612496575050611eff92500383611ea5565b84546001600160a01b0316835260019485019487945060209093019201612481565b60001981146106765760010190565b906124d1826121f8565b6124de6040519182611ea5565b82815280926124ef601f19916121f8565b0190602036910137565b90612503826121f8565b6125106040519182611ea5565b8281528092612521601f19916121f8565b019060005b82811061253257505050565b60209061253d6123fa565b82828501015201612526565b8051821015611e1d5760209160051b01019056fea2646970667358221220c3d56d4387566b2e703bd67db617c9ec5274f79ab284b4627af2977a23d99ff064736f6c634300081c0033",
          "opcodes": "PUSH1 0x80 PUSH1 0x40 MSTORE CALLVALUE PUSH2 0xF1 JUMPI PUSH2 0x26C5 DUP1 CODESIZE SUB DUP1 PUSH2 0x19 DUP2 PUSH2 0x10C JUMP JUMPDEST SWAP3 DUP4 CODECOPY DUP2 ADD SWAP1 PUSH1 0x20 DUP2 DUP4 SUB SLT PUSH2 0xF1 JUMPI DUP1 MLOAD SWAP1 PUSH1 0x1 PUSH1 0x1 PUSH1 0x40 SHL SUB DUP3 GT PUSH2 0xF1 JUMPI ADD DUP2 PUSH1 0x1F DUP3 ADD SLT ISZERO PUSH2 0xF1 JUMPI DUP1 MLOAD SWAP2 PUSH1 0x1 PUSH1 0x1 PUSH1 0x40 SHL SUB DUP4 GT PUSH2 0xF6 JUMPI DUP3 PUSH1 0x5 SHL SWAP2 PUSH1 0x20 DUP1 PUSH2 0x6A DUP2 DUP7 ADD PUSH2 0x10C JUMP JUMPDEST DUP1 SWAP7 DUP2 MSTORE ADD SWAP4 DUP3 ADD ADD SWAP2 DUP3 GT PUSH2 0xF1 JUMPI PUSH1 0x20 ADD SWAP2 JUMPDEST DUP2 DUP4 LT PUSH2 0xD1 JUMPI DUP4 PUSH1 0x0 JUMPDEST DUP2 MLOAD DUP2 LT ISZERO PUSH2 0xC2 JUMPI PUSH1 0x1 SWAP1 PUSH1 0x40 PUSH1 0x0 DUP4 DUP1 PUSH1 0xA0 SHL SUB PUSH1 0x20 DUP5 PUSH1 0x5 SHL DUP8 ADD ADD MLOAD AND DUP2 MSTORE DUP1 PUSH1 0x20 MSTORE KECCAK256 DUP3 PUSH1 0xFF NOT DUP3 SLOAD AND OR SWAP1 SSTORE ADD PUSH2 0x8A JUMP JUMPDEST PUSH1 0x40 MLOAD PUSH2 0x2593 SWAP1 DUP2 PUSH2 0x132 DUP3 CODECOPY RETURN JUMPDEST DUP3 MLOAD PUSH1 0x1 PUSH1 0x1 PUSH1 0xA0 SHL SUB DUP2 AND DUP2 SUB PUSH2 0xF1 JUMPI DUP2 MSTORE PUSH1 0x20 SWAP3 DUP4 ADD SWAP3 ADD PUSH2 0x7F JUMP JUMPDEST PUSH1 0x0 DUP1 REVERT JUMPDEST PUSH4 0x4E487B71 PUSH1 0xE0 SHL PUSH1 0x0 MSTORE PUSH1 0x41 PUSH1 0x4 MSTORE PUSH1 0x24 PUSH1 0x0 REVERT JUMPDEST PUSH1 0x40 MLOAD SWAP2 SWAP1 PUSH1 0x1F ADD PUSH1 0x1F NOT AND DUP3 ADD PUSH1 0x1 PUSH1 0x1 PUSH1 0x40 SHL SUB DUP2 GT DUP4 DUP3 LT OR PUSH2 0xF6 JUMPI PUSH1 0x40 MSTORE JUMP INVALID PUSH1 0x80 PUSH1 0x40 MSTORE PUSH1 0x4 CALLDATASIZE LT ISZERO PUSH2 0x12 JUMPI PUSH1 0x0 DUP1 REVERT JUMPDEST PUSH1 0x0 CALLDATALOAD PUSH1 0xE0 SHR DUP1 PUSH4 0xB791430 EQ PUSH2 0x1CAE JUMPI DUP1 PUSH4 0x1AD52135 EQ PUSH2 0xF4B JUMPI DUP1 PUSH4 0x20020581 EQ PUSH2 0xEFD JUMPI DUP1 PUSH4 0x3F69BABD EQ PUSH2 0xE2E JUMPI DUP1 PUSH4 0x439FD35F EQ PUSH2 0xDD6 JUMPI DUP1 PUSH4 0x4D68282F EQ PUSH2 0xB57 JUMPI DUP1 PUSH4 0x5C98DFA1 EQ PUSH2 0xB39 JUMPI DUP1 PUSH4 0x67DD74CA EQ PUSH2 0x7D6 JUMPI DUP1 PUSH4 0x68C4AC26 EQ PUSH2 0x797 JUMPI DUP1 PUSH4 0xA4B2409E EQ PUSH2 0x3DE JUMPI DUP1 PUSH4 0xB98079BC EQ PUSH2 0x2EC JUMPI DUP1 PUSH4 0xC27A500D EQ PUSH2 0x238 JUMPI DUP1 PUSH4 0xCCFD6D3C EQ PUSH2 0x10C JUMPI PUSH4 0xE0C14377 EQ PUSH2 0xB6 JUMPI PUSH1 0x0 DUP1 REVERT JUMPDEST CALLVALUE PUSH2 0x107 JUMPI PUSH1 0x20 CALLDATASIZE PUSH1 0x3 NOT ADD SLT PUSH2 0x107 JUMPI PUSH1 0x4 CALLDATALOAD PUSH2 0xD7 PUSH1 0x1 SLOAD DUP3 LT PUSH2 0x238B JUMP JUMPDEST PUSH1 0x0 MSTORE PUSH1 0x2 PUSH1 0x20 MSTORE PUSH2 0x103 PUSH2 0xEF PUSH1 0x40 PUSH1 0x0 KECCAK256 PUSH2 0x2464 JUMP JUMPDEST PUSH1 0x40 MLOAD SWAP2 DUP3 SWAP2 PUSH1 0x20 DUP4 MSTORE PUSH1 0x20 DUP4 ADD SWAP1 PUSH2 0x2168 JUMP JUMPDEST SUB SWAP1 RETURN JUMPDEST PUSH1 0x0 DUP1 REVERT JUMPDEST CALLVALUE PUSH2 0x107 JUMPI PUSH1 0x0 CALLDATASIZE PUSH1 0x3 NOT ADD SLT PUSH2 0x107 JUMPI PUSH1 0x1 SLOAD PUSH1 0x0 DUP1 JUMPDEST DUP3 DUP2 LT PUSH2 0x1E4 JUMPI POP PUSH2 0x13E PUSH2 0x138 DUP3 PUSH2 0x24C7 JUMP JUMPDEST SWAP2 PUSH2 0x24F9 JUMP JUMPDEST SWAP2 PUSH1 0x0 DUP1 JUMPDEST DUP3 DUP2 LT PUSH2 0x15C JUMPI POP POP POP PUSH2 0x103 PUSH1 0x40 MLOAD SWAP3 DUP4 SWAP3 DUP4 PUSH2 0x21A5 JUMP JUMPDEST PUSH2 0x165 DUP2 PUSH2 0x1DFE JUMP JUMPDEST POP SLOAD PUSH1 0x1 PUSH1 0x1 PUSH1 0xA0 SHL SUB AND CALLER EQ DUP1 PUSH2 0x1CD JUMPI JUMPDEST PUSH2 0x185 JUMPI JUMPDEST PUSH1 0x1 ADD PUSH2 0x143 JUMP JUMPDEST SWAP1 PUSH2 0x1C5 DUP2 DUP4 PUSH2 0x197 PUSH1 0x1 SWAP5 DUP9 PUSH2 0x2549 JUMP JUMPDEST MSTORE PUSH2 0x1AA PUSH2 0x1A4 DUP6 PUSH2 0x1DFE JUMP JUMPDEST POP PUSH2 0x220F JUMP JUMPDEST PUSH2 0x1B4 DUP3 DUP10 PUSH2 0x2549 JUMP JUMPDEST MSTORE PUSH2 0x1BF DUP2 DUP9 PUSH2 0x2549 JUMP JUMPDEST POP PUSH2 0x24B8 JUMP JUMPDEST SWAP2 SWAP1 POP PUSH2 0x17D JUMP JUMPDEST POP PUSH1 0xFF PUSH1 0x6 PUSH2 0x1DB DUP4 PUSH2 0x1DFE JUMP JUMPDEST POP ADD SLOAD AND PUSH2 0x178 JUMP JUMPDEST PUSH2 0x1ED DUP2 PUSH2 0x1DFE JUMP JUMPDEST POP SLOAD PUSH1 0x1 PUSH1 0x1 PUSH1 0xA0 SHL SUB AND CALLER EQ DUP1 PUSH2 0x221 JUMPI JUMPDEST PUSH2 0x20D JUMPI JUMPDEST PUSH1 0x1 ADD PUSH2 0x124 JUMP JUMPDEST SWAP1 PUSH2 0x219 PUSH1 0x1 SWAP2 PUSH2 0x24B8 JUMP JUMPDEST SWAP2 SWAP1 POP PUSH2 0x205 JUMP JUMPDEST POP PUSH1 0xFF PUSH1 0x6 PUSH2 0x22F DUP4 PUSH2 0x1DFE JUMP JUMPDEST POP ADD SLOAD AND PUSH2 0x200 JUMP JUMPDEST CALLVALUE PUSH2 0x107 JUMPI PUSH1 0x0 CALLDATASIZE PUSH1 0x3 NOT ADD SLT PUSH2 0x107 JUMPI PUSH1 0x1 SLOAD PUSH1 0x0 DUP1 JUMPDEST DUP3 DUP2 LT PUSH2 0x2BA JUMPI POP PUSH2 0x264 PUSH2 0x138 DUP3 PUSH2 0x24C7 JUMP JUMPDEST SWAP2 PUSH1 0x0 DUP1 JUMPDEST DUP3 DUP2 LT PUSH2 0x282 JUMPI POP POP POP PUSH2 0x103 PUSH1 0x40 MLOAD SWAP3 DUP4 SWAP3 DUP4 PUSH2 0x21A5 JUMP JUMPDEST PUSH1 0xFF PUSH1 0x6 PUSH2 0x28F DUP4 PUSH2 0x1DFE JUMP JUMPDEST POP ADD SLOAD AND PUSH2 0x2A0 JUMPI JUMPDEST PUSH1 0x1 ADD PUSH2 0x269 JUMP JUMPDEST SWAP1 PUSH2 0x2B2 DUP2 DUP4 PUSH2 0x197 PUSH1 0x1 SWAP5 DUP9 PUSH2 0x2549 JUMP JUMPDEST SWAP2 SWAP1 POP PUSH2 0x298 JUMP JUMPDEST PUSH1 0xFF PUSH1 0x6 PUSH2 0x2C7 DUP4 PUSH2 0x1DFE JUMP JUMPDEST POP ADD SLOAD AND PUSH2 0x2D8 JUMPI JUMPDEST PUSH1 0x1 ADD PUSH2 0x250 JUMP JUMPDEST SWAP1 PUSH2 0x2E4 PUSH1 0x1 SWAP2 PUSH2 0x24B8 JUMP JUMPDEST SWAP2 SWAP1 POP PUSH2 0x2D0 JUMP JUMPDEST CALLVALUE PUSH2 0x107 JUMPI PUSH1 0x20 CALLDATASIZE PUSH1 0x3 NOT ADD SLT PUSH2 0x107 JUMPI PUSH1 0x4 CALLDATALOAD PUSH2 0x308 PUSH2 0x23FA JUMP JUMPDEST POP PUSH1 0x1 SLOAD DUP2 LT ISZERO PUSH2 0x3A2 JUMPI DUP1 PUSH2 0x103 PUSH2 0x323 PUSH2 0x386 SWAP4 PUSH2 0x1DFE JUMP JUMPDEST POP DUP3 PUSH1 0x0 MSTORE PUSH1 0x2 PUSH1 0x20 MSTORE PUSH2 0x33B PUSH1 0x40 PUSH1 0x0 KECCAK256 SWAP4 PUSH2 0x1DFE JUMP JUMPDEST POP PUSH1 0x1 DUP1 PUSH1 0xA0 SHL SUB SWAP1 SLOAD AND PUSH1 0x0 MSTORE PUSH1 0x3 PUSH1 0x20 MSTORE PUSH2 0x394 PUSH2 0x371 PUSH2 0x36B PUSH2 0x365 PUSH1 0x40 PUSH1 0x0 KECCAK256 SWAP5 PUSH2 0x220F JUMP JUMPDEST SWAP6 PUSH2 0x2464 JUMP JUMPDEST SWAP3 PUSH2 0x22F4 JUMP JUMPDEST SWAP2 PUSH1 0x40 MLOAD SWAP6 DUP7 SWAP6 PUSH1 0x60 DUP8 MSTORE PUSH1 0x60 DUP8 ADD SWAP1 PUSH2 0x2017 JUMP JUMPDEST SWAP1 DUP6 DUP3 SUB PUSH1 0x20 DUP8 ADD MSTORE PUSH2 0x2168 JUMP JUMPDEST SWAP1 DUP4 DUP3 SUB PUSH1 0x40 DUP6 ADD MSTORE PUSH2 0x210F JUMP JUMPDEST PUSH1 0x40 MLOAD PUSH3 0x461BCD PUSH1 0xE5 SHL DUP2 MSTORE PUSH1 0x20 PUSH1 0x4 DUP3 ADD MSTORE PUSH1 0x14 PUSH1 0x24 DUP3 ADD MSTORE PUSH20 0x115D995B9D08191BD95CC81B9BDD08195E1A5CDD PUSH1 0x62 SHL PUSH1 0x44 DUP3 ADD MSTORE PUSH1 0x64 SWAP1 REVERT JUMPDEST CALLVALUE PUSH2 0x107 JUMPI PUSH1 0x20 CALLDATASIZE PUSH1 0x3 NOT ADD SLT PUSH2 0x107 JUMPI PUSH1 0x4 CALLDATALOAD PUSH2 0x3FF PUSH1 0x1 SLOAD DUP3 LT PUSH2 0x238B JUMP JUMPDEST PUSH1 0x0 DUP2 DUP2 MSTORE PUSH1 0x4 PUSH1 0x20 SWAP1 DUP2 MSTORE PUSH1 0x40 DUP1 DUP4 KECCAK256 CALLER DUP5 MSTORE SWAP1 SWAP2 MSTORE SWAP1 KECCAK256 SLOAD PUSH1 0xFF AND ISZERO PUSH2 0x75C JUMPI PUSH1 0xFF PUSH1 0x9 PUSH2 0x42E DUP4 PUSH2 0x1DFE JUMP JUMPDEST POP ADD SLOAD AND ISZERO PUSH2 0x6DA JUMPI JUMPDEST PUSH1 0x7 PUSH2 0x443 DUP3 PUSH2 0x1DFE JUMP JUMPDEST POP ADD SLOAD SWAP1 DUP2 PUSH1 0x8 PUSH2 0x453 DUP4 PUSH2 0x1DFE JUMP JUMPDEST POP ADD SLOAD LT PUSH2 0x695 JUMPI PUSH1 0x0 DUP2 DUP2 MSTORE PUSH1 0x4 PUSH1 0x20 SWAP1 DUP2 MSTORE PUSH1 0x40 DUP1 DUP4 KECCAK256 CALLER DUP5 MSTORE SWAP1 SWAP2 MSTORE SWAP1 KECCAK256 DUP1 SLOAD PUSH1 0xFF NOT AND SWAP1 SSTORE PUSH1 0x8 PUSH2 0x487 DUP3 PUSH2 0x1DFE JUMP JUMPDEST POP ADD DUP1 SLOAD SWAP1 DUP4 DUP3 SUB SWAP2 DUP3 GT PUSH2 0x676 JUMPI SSTORE DUP1 PUSH1 0x0 MSTORE PUSH1 0x2 PUSH1 0x20 MSTORE PUSH1 0x40 PUSH1 0x0 KECCAK256 SWAP1 PUSH1 0x0 JUMPDEST DUP3 SLOAD DUP1 DUP3 LT ISZERO PUSH2 0x68C JUMPI PUSH2 0x4BD DUP3 DUP6 PUSH2 0x23E2 JUMP JUMPDEST SWAP1 SLOAD PUSH1 0x3 SWAP2 SWAP1 SWAP2 SHL SHR PUSH1 0x1 PUSH1 0x1 PUSH1 0xA0 SHL SUB AND CALLER EQ PUSH2 0x4DE JUMPI POP PUSH1 0x1 ADD PUSH2 0x4A9 JUMP JUMPDEST SWAP2 SWAP3 SWAP2 PUSH1 0x0 NOT DUP2 ADD SWAP2 SWAP1 DUP3 GT PUSH2 0x676 JUMPI PUSH2 0x517 PUSH2 0x4FE PUSH2 0x53B SWAP4 DUP6 PUSH2 0x23E2 JUMP JUMPDEST SWAP1 SLOAD PUSH1 0x3 SWAP2 SWAP1 SWAP2 SHL SHR PUSH1 0x1 PUSH1 0x1 PUSH1 0xA0 SHL SUB AND SWAP2 DUP5 PUSH2 0x23E2 JUMP JUMPDEST DUP2 SLOAD PUSH1 0x1 PUSH1 0x1 PUSH1 0xA0 SHL SUB SWAP4 DUP5 AND PUSH1 0x3 SWAP3 SWAP1 SWAP3 SHL SWAP2 DUP3 SHL SWAP4 SWAP1 SWAP2 SHL NOT AND SWAP2 SWAP1 SWAP2 OR SWAP1 SSTORE JUMP JUMPDEST DUP1 SLOAD DUP1 ISZERO PUSH2 0x660 JUMPI PUSH1 0x0 NOT ADD SWAP1 PUSH2 0x552 DUP3 DUP3 PUSH2 0x23E2 JUMP JUMPDEST DUP2 SLOAD SWAP1 PUSH1 0x1 DUP1 PUSH1 0xA0 SHL SUB SWAP1 PUSH1 0x3 SHL SHL NOT AND SWAP1 SSTORE SSTORE JUMPDEST PUSH2 0x570 DUP2 PUSH2 0x1DFE JUMP JUMPDEST POP PUSH1 0x9 ADD SLOAD PUSH1 0x40 MLOAD PUSH4 0xA9059CBB PUSH1 0xE0 SHL DUP2 MSTORE CALLER PUSH1 0x4 DUP3 ADD MSTORE PUSH1 0x24 DUP2 ADD DUP5 SWAP1 MSTORE SWAP1 PUSH1 0x20 SWAP1 DUP3 SWAP1 PUSH1 0x10 SHR PUSH1 0x1 PUSH1 0x1 PUSH1 0xA0 SHL SUB AND DUP2 PUSH1 0x0 DUP2 PUSH1 0x44 DUP2 ADD SUB SWAP3 GAS CALL SWAP1 DUP2 ISZERO PUSH2 0x654 JUMPI PUSH1 0x0 SWAP2 PUSH2 0x625 JUMPI JUMPDEST POP ISZERO PUSH2 0x5F0 JUMPI PUSH1 0x40 MLOAD SWAP2 DUP3 MSTORE PUSH32 0x7A482FDEB6BC9A1376F597068A214A7A39472BB2EFF1B8CAD21BA04F49DDCA1B PUSH1 0x20 CALLER SWAP4 LOG3 STOP JUMPDEST PUSH1 0x40 MLOAD PUSH3 0x461BCD PUSH1 0xE5 SHL DUP2 MSTORE PUSH1 0x20 PUSH1 0x4 DUP3 ADD MSTORE PUSH1 0xD PUSH1 0x24 DUP3 ADD MSTORE PUSH13 0x1499599D5B990819985A5B1959 PUSH1 0x9A SHL PUSH1 0x44 DUP3 ADD MSTORE PUSH1 0x64 SWAP1 REVERT JUMPDEST PUSH2 0x647 SWAP2 POP PUSH1 0x20 RETURNDATASIZE PUSH1 0x20 GT PUSH2 0x64D JUMPI JUMPDEST PUSH2 0x63F DUP2 DUP4 PUSH2 0x1EA5 JUMP JUMPDEST DUP2 ADD SWAP1 PUSH2 0x23CA JUMP JUMPDEST DUP4 PUSH2 0x5BC JUMP JUMPDEST POP RETURNDATASIZE PUSH2 0x635 JUMP JUMPDEST PUSH1 0x40 MLOAD RETURNDATASIZE PUSH1 0x0 DUP3 RETURNDATACOPY RETURNDATASIZE SWAP1 REVERT JUMPDEST PUSH4 0x4E487B71 PUSH1 0xE0 SHL PUSH1 0x0 MSTORE PUSH1 0x31 PUSH1 0x4 MSTORE PUSH1 0x24 PUSH1 0x0 REVERT JUMPDEST PUSH4 0x4E487B71 PUSH1 0xE0 SHL PUSH1 0x0 MSTORE PUSH1 0x11 PUSH1 0x4 MSTORE PUSH1 0x24 PUSH1 0x0 REVERT JUMPDEST POP POP SWAP1 POP PUSH2 0x567 JUMP JUMPDEST PUSH1 0x40 MLOAD PUSH3 0x461BCD PUSH1 0xE5 SHL DUP2 MSTORE PUSH1 0x20 PUSH1 0x4 DUP3 ADD MSTORE PUSH1 0x1C PUSH1 0x24 DUP3 ADD MSTORE PUSH32 0x496E73756666696369656E742066756E647320696E20657363726F7700000000 PUSH1 0x44 DUP3 ADD MSTORE PUSH1 0x64 SWAP1 REVERT JUMPDEST PUSH2 0x6E3 DUP2 PUSH2 0x1DFE JUMP JUMPDEST POP PUSH1 0x1 PUSH1 0x1 PUSH1 0x40 SHL SUB PUSH1 0x4 PUSH2 0x464F NOT SWAP3 ADD SLOAD PUSH1 0x40 SHR AND ADD PUSH1 0x1 PUSH1 0x1 PUSH1 0x40 SHL SUB DUP2 GT PUSH2 0x676 JUMPI PUSH1 0x1 PUSH1 0x1 PUSH1 0x40 SHL SUB AND TIMESTAMP LT PUSH2 0x438 JUMPI PUSH1 0x40 MLOAD PUSH3 0x461BCD PUSH1 0xE5 SHL DUP2 MSTORE PUSH1 0x20 PUSH1 0x4 DUP3 ADD MSTORE PUSH1 0x17 PUSH1 0x24 DUP3 ADD MSTORE PUSH32 0x526566756E6420706572696F642068617320656E646564000000000000000000 PUSH1 0x44 DUP3 ADD MSTORE PUSH1 0x64 SWAP1 REVERT JUMPDEST PUSH1 0x40 MLOAD PUSH3 0x461BCD PUSH1 0xE5 SHL DUP2 MSTORE PUSH1 0x20 PUSH1 0x4 DUP3 ADD MSTORE PUSH1 0x13 PUSH1 0x24 DUP3 ADD MSTORE PUSH19 0x139BC81D1A58DAD95D081C1D5C98DA185CD959 PUSH1 0x6A SHL PUSH1 0x44 DUP3 ADD MSTORE PUSH1 0x64 SWAP1 REVERT JUMPDEST CALLVALUE PUSH2 0x107 JUMPI PUSH1 0x20 CALLDATASIZE PUSH1 0x3 NOT ADD SLT PUSH2 0x107 JUMPI PUSH1 0x1 PUSH1 0x1 PUSH1 0xA0 SHL SUB PUSH2 0x7B8 PUSH2 0x2001 JUMP JUMPDEST AND PUSH1 0x0 MSTORE PUSH1 0x0 PUSH1 0x20 MSTORE PUSH1 0x20 PUSH1 0xFF PUSH1 0x40 PUSH1 0x0 KECCAK256 SLOAD AND PUSH1 0x40 MLOAD SWAP1 ISZERO ISZERO DUP2 MSTORE RETURN JUMPDEST CALLVALUE PUSH2 0x107 JUMPI PUSH1 0x20 CALLDATASIZE PUSH1 0x3 NOT ADD SLT PUSH2 0x107 JUMPI PUSH1 0x4 CALLDATALOAD PUSH2 0x7F7 PUSH1 0x1 SLOAD DUP3 LT PUSH2 0x238B JUMP JUMPDEST PUSH1 0x1 PUSH1 0x1 PUSH1 0x40 SHL SUB PUSH1 0x4 PUSH2 0x80A DUP4 PUSH2 0x1DFE JUMP JUMPDEST POP ADD SLOAD AND TIMESTAMP LT ISZERO PUSH2 0xB04 JUMPI PUSH1 0xFF PUSH1 0x6 PUSH2 0x822 DUP4 PUSH2 0x1DFE JUMP JUMPDEST POP ADD SLOAD AND ISZERO PUSH2 0xACB JUMPI PUSH1 0x0 DUP2 DUP2 MSTORE PUSH1 0x4 PUSH1 0x20 SWAP1 DUP2 MSTORE PUSH1 0x40 DUP1 DUP4 KECCAK256 CALLER DUP5 MSTORE SWAP1 SWAP2 MSTORE SWAP1 KECCAK256 SLOAD PUSH1 0xFF AND PUSH2 0xA92 JUMPI PUSH1 0x7 PUSH2 0x857 DUP3 PUSH2 0x1DFE JUMP JUMPDEST POP ADD SLOAD SWAP1 PUSH2 0x864 DUP2 PUSH2 0x1DFE JUMP JUMPDEST POP PUSH1 0x9 ADD SLOAD PUSH1 0x40 MLOAD PUSH4 0x6EB1769F PUSH1 0xE1 SHL DUP2 MSTORE CALLER PUSH1 0x4 DUP3 ADD MSTORE ADDRESS PUSH1 0x24 DUP3 ADD MSTORE PUSH1 0x10 SWAP2 SWAP1 SWAP2 SHR PUSH1 0x1 PUSH1 0x1 PUSH1 0xA0 SHL SUB AND SWAP1 PUSH1 0x20 DUP2 PUSH1 0x44 DUP2 DUP6 GAS STATICCALL DUP1 ISZERO PUSH2 0x654 JUMPI DUP5 SWAP2 PUSH1 0x0 SWAP2 PUSH2 0xA5D JUMPI JUMPDEST POP LT PUSH2 0xA18 JUMPI PUSH1 0x40 MLOAD PUSH4 0x23B872DD PUSH1 0xE0 SHL DUP2 MSTORE CALLER PUSH1 0x4 DUP3 ADD MSTORE ADDRESS PUSH1 0x24 DUP3 ADD MSTORE PUSH1 0x44 DUP2 ADD DUP5 SWAP1 MSTORE PUSH1 0x20 DUP2 PUSH1 0x64 DUP2 PUSH1 0x0 DUP7 GAS CALL SWAP1 DUP2 ISZERO PUSH2 0x654 JUMPI PUSH1 0x0 SWAP2 PUSH2 0x9F9 JUMPI JUMPDEST POP ISZERO PUSH2 0x9C3 JUMPI PUSH1 0x0 DUP3 DUP2 MSTORE PUSH1 0x4 PUSH1 0x20 SWAP1 DUP2 MSTORE PUSH1 0x40 DUP1 DUP4 KECCAK256 CALLER DUP5 MSTORE DUP3 MSTORE DUP1 DUP4 KECCAK256 DUP1 SLOAD PUSH1 0xFF NOT AND PUSH1 0x1 OR SWAP1 SSTORE DUP5 DUP4 MSTORE PUSH1 0x2 SWAP1 SWAP2 MSTORE SWAP1 KECCAK256 DUP1 SLOAD SWAP1 PUSH1 0x1 PUSH1 0x40 SHL DUP3 LT ISZERO PUSH2 0x9AD JUMPI DUP2 PUSH2 0x941 SWAP2 PUSH1 0x1 PUSH2 0x95F SWAP5 ADD DUP2 SSTORE PUSH2 0x23E2 JUMP JUMPDEST DUP2 SLOAD PUSH1 0x1 PUSH1 0x1 PUSH1 0xA0 SHL SUB PUSH1 0x3 SWAP3 SWAP1 SWAP3 SHL SWAP2 DUP3 SHL NOT AND CALLER SWAP1 SWAP2 SHL OR SWAP1 SSTORE JUMP JUMPDEST PUSH1 0x8 PUSH2 0x96A DUP4 PUSH2 0x1DFE JUMP JUMPDEST POP ADD DUP1 SLOAD SWAP1 DUP5 DUP3 ADD DUP1 SWAP3 GT PUSH2 0x676 JUMPI SSTORE PUSH1 0x40 MLOAD SWAP3 DUP4 MSTORE PUSH1 0x20 DUP4 ADD MSTORE PUSH32 0x504EF6DABCA28C1452704D54BD8E25708D87E0C27D852ECEEA53A0C0D8986758 PUSH1 0x40 CALLER SWAP4 LOG3 STOP JUMPDEST PUSH4 0x4E487B71 PUSH1 0xE0 SHL PUSH1 0x0 MSTORE PUSH1 0x41 PUSH1 0x4 MSTORE PUSH1 0x24 PUSH1 0x0 REVERT JUMPDEST PUSH1 0x40 MLOAD PUSH3 0x461BCD PUSH1 0xE5 SHL DUP2 MSTORE PUSH1 0x20 PUSH1 0x4 DUP3 ADD MSTORE PUSH1 0xE PUSH1 0x24 DUP3 ADD MSTORE PUSH14 0x14185E5B595B9D0819985A5B1959 PUSH1 0x92 SHL PUSH1 0x44 DUP3 ADD MSTORE PUSH1 0x64 SWAP1 REVERT JUMPDEST PUSH2 0xA12 SWAP2 POP PUSH1 0x20 RETURNDATASIZE PUSH1 0x20 GT PUSH2 0x64D JUMPI PUSH2 0x63F DUP2 DUP4 PUSH2 0x1EA5 JUMP JUMPDEST DUP5 PUSH2 0x8EB JUMP JUMPDEST PUSH1 0x40 MLOAD PUSH3 0x461BCD PUSH1 0xE5 SHL DUP2 MSTORE PUSH1 0x20 PUSH1 0x4 DUP3 ADD MSTORE PUSH1 0x1C PUSH1 0x24 DUP3 ADD MSTORE PUSH32 0x496E73756666696369656E7420746F6B656E20616C6C6F77616E636500000000 PUSH1 0x44 DUP3 ADD MSTORE PUSH1 0x64 SWAP1 REVERT JUMPDEST SWAP2 POP POP PUSH1 0x20 DUP2 RETURNDATASIZE PUSH1 0x20 GT PUSH2 0xA8A JUMPI JUMPDEST DUP2 PUSH2 0xA79 PUSH1 0x20 SWAP4 DUP4 PUSH2 0x1EA5 JUMP JUMPDEST DUP2 ADD SUB SLT PUSH2 0x107 JUMPI DUP4 SWAP1 MLOAD DUP6 PUSH2 0x8AB JUMP JUMPDEST RETURNDATASIZE SWAP2 POP PUSH2 0xA6C JUMP JUMPDEST PUSH1 0x40 MLOAD PUSH3 0x461BCD PUSH1 0xE5 SHL DUP2 MSTORE PUSH1 0x20 PUSH1 0x4 DUP3 ADD MSTORE PUSH1 0x11 PUSH1 0x24 DUP3 ADD MSTORE PUSH17 0x105B1C9958591E481C1D5C98DA185CD959 PUSH1 0x7A SHL PUSH1 0x44 DUP3 ADD MSTORE PUSH1 0x64 SWAP1 REVERT JUMPDEST PUSH1 0x40 MLOAD PUSH3 0x461BCD PUSH1 0xE5 SHL DUP2 MSTORE PUSH1 0x20 PUSH1 0x4 DUP3 ADD MSTORE PUSH1 0x11 PUSH1 0x24 DUP3 ADD MSTORE PUSH17 0x4576656E7420697320696E616374697665 PUSH1 0x78 SHL PUSH1 0x44 DUP3 ADD MSTORE PUSH1 0x64 SWAP1 REVERT JUMPDEST PUSH1 0x40 MLOAD PUSH3 0x461BCD PUSH1 0xE5 SHL DUP2 MSTORE PUSH1 0x20 PUSH1 0x4 DUP3 ADD MSTORE PUSH1 0xD PUSH1 0x24 DUP3 ADD MSTORE PUSH13 0x115D995B9D08195E1C1A5C9959 PUSH1 0x9A SHL PUSH1 0x44 DUP3 ADD MSTORE PUSH1 0x64 SWAP1 REVERT JUMPDEST CALLVALUE PUSH2 0x107 JUMPI PUSH1 0x0 CALLDATASIZE PUSH1 0x3 NOT ADD SLT PUSH2 0x107 JUMPI PUSH1 0x20 PUSH1 0x1 SLOAD PUSH1 0x40 MLOAD SWAP1 DUP2 MSTORE RETURN JUMPDEST CALLVALUE PUSH2 0x107 JUMPI PUSH1 0x20 CALLDATASIZE PUSH1 0x3 NOT ADD SLT PUSH2 0x107 JUMPI PUSH1 0x4 CALLDATALOAD PUSH2 0xB89 PUSH2 0xB77 DUP3 PUSH2 0x1DFE JUMP JUMPDEST POP SLOAD PUSH1 0x1 PUSH1 0x1 PUSH1 0xA0 SHL SUB AND CALLER EQ PUSH2 0x234D JUMP JUMPDEST PUSH2 0xB96 PUSH1 0x1 SLOAD DUP3 LT PUSH2 0x238B JUMP JUMPDEST PUSH1 0x1 PUSH1 0x1 PUSH1 0x40 SHL SUB PUSH1 0x4 PUSH2 0xBA9 DUP4 PUSH2 0x1DFE JUMP JUMPDEST POP ADD SLOAD AND TIMESTAMP GT ISZERO PUSH2 0xD91 JUMPI PUSH1 0xFF PUSH1 0x9 PUSH2 0xBC1 DUP4 PUSH2 0x1DFE JUMP JUMPDEST POP ADD SLOAD AND PUSH2 0xD3A JUMPI PUSH1 0xFF PUSH1 0x9 PUSH2 0xBD6 DUP4 PUSH2 0x1DFE JUMP JUMPDEST POP ADD SLOAD PUSH1 0x8 SHR AND PUSH2 0xCFC JUMPI PUSH1 0x8 PUSH2 0xBEC DUP3 PUSH2 0x1DFE JUMP JUMPDEST POP ADD SLOAD PUSH1 0x0 PUSH1 0x8 PUSH2 0xBFC DUP5 PUSH2 0x1DFE JUMP JUMPDEST POP ADD SSTORE PUSH1 0x9 PUSH2 0xC0A DUP4 PUSH2 0x1DFE JUMP JUMPDEST POP ADD DUP1 SLOAD PUSH2 0xFF00 NOT AND PUSH2 0x100 OR SWAP1 SSTORE PUSH2 0xC22 DUP3 PUSH2 0x1DFE JUMP JUMPDEST POP PUSH1 0x9 ADD SLOAD PUSH1 0x40 MLOAD PUSH4 0xA9059CBB PUSH1 0xE0 SHL DUP2 MSTORE CALLER PUSH1 0x4 DUP3 ADD MSTORE PUSH1 0x24 DUP2 ADD DUP4 SWAP1 MSTORE SWAP1 PUSH1 0x20 SWAP1 DUP3 SWAP1 PUSH1 0x10 SHR PUSH1 0x1 PUSH1 0x1 PUSH1 0xA0 SHL SUB AND DUP2 PUSH1 0x0 DUP2 PUSH1 0x44 DUP2 ADD SUB SWAP3 GAS CALL SWAP1 DUP2 ISZERO PUSH2 0x654 JUMPI PUSH1 0x0 SWAP2 PUSH2 0xCDD JUMPI JUMPDEST POP ISZERO PUSH2 0xCA1 JUMPI PUSH1 0x20 PUSH32 0x80230996023D69B50793FA73F1919127C9D8E741D3989743C479169F22E7A288 SWAP2 PUSH1 0x40 MLOAD SWAP1 DUP2 MSTORE LOG2 STOP JUMPDEST PUSH1 0x40 MLOAD PUSH3 0x461BCD PUSH1 0xE5 SHL DUP2 MSTORE PUSH1 0x20 PUSH1 0x4 DUP3 ADD MSTORE PUSH1 0x14 PUSH1 0x24 DUP3 ADD MSTORE PUSH20 0x119D5B99081D1C985B9CD9995C8819985A5B1959 PUSH1 0x62 SHL PUSH1 0x44 DUP3 ADD MSTORE PUSH1 0x64 SWAP1 REVERT JUMPDEST PUSH2 0xCF6 SWAP2 POP PUSH1 0x20 RETURNDATASIZE PUSH1 0x20 GT PUSH2 0x64D JUMPI PUSH2 0x63F DUP2 DUP4 PUSH2 0x1EA5 JUMP JUMPDEST DUP4 PUSH2 0xC6E JUMP JUMPDEST PUSH1 0x40 MLOAD PUSH3 0x461BCD PUSH1 0xE5 SHL DUP2 MSTORE PUSH1 0x20 PUSH1 0x4 DUP3 ADD MSTORE PUSH1 0x16 PUSH1 0x24 DUP3 ADD MSTORE PUSH22 0x119D5B991CC8185B1C9958591E481C995B19585CD959 PUSH1 0x52 SHL PUSH1 0x44 DUP3 ADD MSTORE PUSH1 0x64 SWAP1 REVERT JUMPDEST PUSH1 0x40 MLOAD PUSH3 0x461BCD PUSH1 0xE5 SHL DUP2 MSTORE PUSH1 0x20 PUSH1 0x4 DUP3 ADD MSTORE PUSH1 0x29 PUSH1 0x24 DUP3 ADD MSTORE PUSH32 0x43616E6E6F742072656C656173652066756E647320666F7220612063616E6365 PUSH1 0x44 DUP3 ADD MSTORE PUSH9 0x1B195908195D995B9D PUSH1 0xBA SHL PUSH1 0x64 DUP3 ADD MSTORE PUSH1 0x84 SWAP1 REVERT JUMPDEST PUSH1 0x40 MLOAD PUSH3 0x461BCD PUSH1 0xE5 SHL DUP2 MSTORE PUSH1 0x20 PUSH1 0x4 DUP3 ADD MSTORE PUSH1 0x1A PUSH1 0x24 DUP3 ADD MSTORE PUSH32 0x4576656E7420686173206E6F74206F6363757272656420796574000000000000 PUSH1 0x44 DUP3 ADD MSTORE PUSH1 0x64 SWAP1 REVERT JUMPDEST CALLVALUE PUSH2 0x107 JUMPI PUSH1 0x40 CALLDATASIZE PUSH1 0x3 NOT ADD SLT PUSH2 0x107 JUMPI PUSH1 0x24 CALLDATALOAD PUSH1 0x1 PUSH1 0x1 PUSH1 0xA0 SHL SUB DUP2 AND DUP2 SUB PUSH2 0x107 JUMPI PUSH1 0x4 CALLDATALOAD PUSH1 0x0 MSTORE PUSH1 0x4 PUSH1 0x20 MSTORE PUSH1 0x40 PUSH1 0x0 KECCAK256 SWAP1 PUSH1 0x1 DUP1 PUSH1 0xA0 SHL SUB AND PUSH1 0x0 MSTORE PUSH1 0x20 MSTORE PUSH1 0x20 PUSH1 0xFF PUSH1 0x40 PUSH1 0x0 KECCAK256 SLOAD AND PUSH1 0x40 MLOAD SWAP1 ISZERO ISZERO DUP2 MSTORE RETURN JUMPDEST CALLVALUE PUSH2 0x107 JUMPI PUSH1 0x20 CALLDATASIZE PUSH1 0x3 NOT ADD SLT PUSH2 0x107 JUMPI PUSH1 0x4 CALLDATALOAD PUSH2 0xE4E PUSH2 0xB77 DUP3 PUSH2 0x1DFE JUMP JUMPDEST PUSH2 0xE5B PUSH1 0x1 SLOAD DUP3 LT PUSH2 0x238B JUMP JUMPDEST PUSH1 0xFF PUSH1 0x6 PUSH2 0xE68 DUP4 PUSH2 0x1DFE JUMP JUMPDEST POP ADD SLOAD AND ISZERO PUSH2 0xEC5 JUMPI PUSH1 0x6 PUSH2 0xE7C DUP3 PUSH2 0x1DFE JUMP JUMPDEST POP ADD DUP1 SLOAD PUSH1 0xFF NOT AND SWAP1 SSTORE PUSH1 0x9 PUSH2 0xE91 DUP3 PUSH2 0x1DFE JUMP JUMPDEST POP ADD DUP1 SLOAD PUSH1 0xFF NOT AND PUSH1 0x1 OR SWAP1 SSTORE PUSH32 0xCEAF11772900FE569752A0207C8639FB8228EB8663456DC9EAA3A08F927A8705 PUSH1 0x0 DUP1 LOG2 STOP JUMPDEST PUSH1 0x40 MLOAD PUSH3 0x461BCD PUSH1 0xE5 SHL DUP2 MSTORE PUSH1 0x20 PUSH1 0x4 DUP3 ADD MSTORE PUSH1 0x10 PUSH1 0x24 DUP3 ADD MSTORE PUSH16 0x105B1C9958591E4818D85B98D95B1959 PUSH1 0x82 SHL PUSH1 0x44 DUP3 ADD MSTORE PUSH1 0x64 SWAP1 REVERT JUMPDEST CALLVALUE PUSH2 0x107 JUMPI PUSH1 0x20 CALLDATASIZE PUSH1 0x3 NOT ADD SLT PUSH2 0x107 JUMPI PUSH1 0x1 PUSH1 0x1 PUSH1 0xA0 SHL SUB PUSH2 0xF1E PUSH2 0x2001 JUMP JUMPDEST AND PUSH1 0x0 MSTORE PUSH1 0x3 PUSH1 0x20 MSTORE PUSH2 0x103 PUSH2 0xF37 PUSH1 0x40 PUSH1 0x0 KECCAK256 PUSH2 0x22F4 JUMP JUMPDEST PUSH1 0x40 MLOAD SWAP2 DUP3 SWAP2 PUSH1 0x20 DUP4 MSTORE PUSH1 0x20 DUP4 ADD SWAP1 PUSH2 0x210F JUMP JUMPDEST CALLVALUE PUSH2 0x107 JUMPI PUSH2 0x120 CALLDATASIZE PUSH1 0x3 NOT ADD SLT PUSH2 0x107 JUMPI PUSH1 0x4 CALLDATALOAD PUSH1 0x1 PUSH1 0x1 PUSH1 0x40 SHL SUB DUP2 GT PUSH2 0x107 JUMPI PUSH2 0xF7C SWAP1 CALLDATASIZE SWAP1 PUSH1 0x4 ADD PUSH2 0x1FAB JUMP JUMPDEST PUSH1 0x24 CALLDATALOAD PUSH1 0x1 PUSH1 0x1 PUSH1 0x40 SHL SUB DUP2 GT PUSH2 0x107 JUMPI PUSH2 0xF9B SWAP1 CALLDATASIZE SWAP1 PUSH1 0x4 ADD PUSH2 0x1FAB JUMP JUMPDEST SWAP1 PUSH1 0x44 CALLDATALOAD PUSH1 0x1 PUSH1 0x1 PUSH1 0x40 SHL SUB DUP2 GT PUSH2 0x107 JUMPI PUSH2 0xFBB SWAP1 CALLDATASIZE SWAP1 PUSH1 0x4 ADD PUSH2 0x1FAB JUMP JUMPDEST PUSH1 0x64 CALLDATALOAD PUSH1 0x1 PUSH1 0x1 PUSH1 0x40 SHL SUB DUP2 AND DUP1 SWAP2 SUB PUSH2 0x107 JUMPI PUSH1 0x84 CALLDATALOAD PUSH1 0x1 PUSH1 0x1 PUSH1 0x40 SHL SUB DUP2 AND DUP1 SWAP2 SUB PUSH2 0x107 JUMPI PUSH1 0xA4 CALLDATALOAD SWAP1 PUSH1 0x1 PUSH1 0x1 PUSH1 0x40 SHL SUB DUP3 AND DUP1 SWAP3 SUB PUSH2 0x107 JUMPI PUSH1 0xC4 CALLDATALOAD PUSH1 0x1 PUSH1 0x1 PUSH1 0x40 SHL SUB DUP2 GT PUSH2 0x107 JUMPI PUSH2 0x1017 SWAP1 CALLDATASIZE SWAP1 PUSH1 0x4 ADD PUSH2 0x1FAB JUMP JUMPDEST SWAP3 PUSH2 0x104 CALLDATALOAD SWAP5 PUSH1 0x1 DUP1 PUSH1 0xA0 SHL SUB DUP7 AND DUP1 SWAP7 SUB PUSH2 0x107 JUMPI DUP6 PUSH1 0x0 MSTORE PUSH1 0x0 PUSH1 0x20 MSTORE PUSH1 0xFF PUSH1 0x40 PUSH1 0x0 KECCAK256 SLOAD AND ISZERO PUSH2 0x1C69 JUMPI PUSH1 0x40 MLOAD SWAP8 PUSH2 0x1051 DUP10 PUSH2 0x1E89 JUMP JUMPDEST CALLER DUP10 MSTORE DUP8 PUSH1 0x20 DUP11 ADD MSTORE PUSH1 0x40 DUP10 ADD MSTORE PUSH1 0x60 DUP9 ADD MSTORE PUSH1 0x80 DUP8 ADD MSTORE PUSH1 0xA0 DUP7 ADD MSTORE PUSH1 0xC0 DUP6 ADD MSTORE PUSH1 0xE0 DUP5 ADD MSTORE PUSH1 0x1 PUSH2 0x100 DUP5 ADD MSTORE PUSH1 0xE4 CALLDATALOAD PUSH2 0x120 DUP5 ADD MSTORE PUSH1 0x0 PUSH2 0x140 DUP5 ADD MSTORE PUSH1 0x0 PUSH2 0x160 DUP5 ADD MSTORE PUSH1 0x0 PUSH2 0x180 DUP5 ADD MSTORE PUSH2 0x1A0 DUP4 ADD MSTORE PUSH1 0x1 SLOAD PUSH1 0x1 PUSH1 0x40 SHL DUP2 LT ISZERO PUSH2 0x9AD JUMPI DUP1 PUSH1 0x1 PUSH2 0x10C8 SWAP3 ADD PUSH1 0x1 SSTORE PUSH1 0x1 PUSH2 0x1E33 JUMP JUMPDEST SWAP3 SWAP1 SWAP3 PUSH2 0x194F JUMPI DUP1 MLOAD DUP4 SLOAD PUSH1 0x1 PUSH1 0x1 PUSH1 0xA0 SHL SUB NOT AND PUSH1 0x1 PUSH1 0x1 PUSH1 0xA0 SHL SUB SWAP2 SWAP1 SWAP2 AND OR DUP4 SSTORE PUSH1 0x20 DUP2 ADD MLOAD DUP1 MLOAD SWAP1 SWAP4 SWAP1 PUSH1 0x1 PUSH1 0x1 PUSH1 0x40 SHL SUB DUP2 GT PUSH2 0x9AD JUMPI PUSH2 0x1111 PUSH1 0x1 DUP4 ADD SLOAD PUSH2 0x1E4F JUMP JUMPDEST PUSH1 0x1F DUP2 GT PUSH2 0x1C22 JUMPI JUMPDEST POP PUSH1 0x20 PUSH1 0x1F DUP3 GT PUSH1 0x1 EQ PUSH2 0x1BB4 JUMPI DUP2 SWAP3 SWAP4 SWAP5 SWAP6 PUSH1 0x0 SWAP3 PUSH2 0x1BA9 JUMPI JUMPDEST POP POP DUP2 PUSH1 0x1 SHL SWAP2 PUSH1 0x0 NOT SWAP1 PUSH1 0x3 SHL SHR NOT AND OR PUSH1 0x1 DUP3 ADD SSTORE JUMPDEST PUSH1 0x40 DUP3 ADD MLOAD SWAP3 DUP4 MLOAD PUSH1 0x1 PUSH1 0x1 PUSH1 0x40 SHL SUB DUP2 GT PUSH2 0x9AD JUMPI PUSH2 0x1170 PUSH1 0x2 DUP5 ADD SLOAD PUSH2 0x1E4F JUMP JUMPDEST PUSH1 0x1F DUP2 GT PUSH2 0x1B62 JUMPI JUMPDEST POP PUSH1 0x20 PUSH1 0x1F DUP3 GT PUSH1 0x1 EQ PUSH2 0x1AF4 JUMPI DUP2 SWAP3 SWAP4 SWAP5 SWAP6 PUSH1 0x0 SWAP3 PUSH2 0x1AE9 JUMPI JUMPDEST POP POP DUP2 PUSH1 0x1 SHL SWAP2 PUSH1 0x0 NOT SWAP1 PUSH1 0x3 SHL SHR NOT AND OR PUSH1 0x2 DUP4 ADD SSTORE JUMPDEST PUSH1 0x60 DUP4 ADD MLOAD SWAP3 DUP4 MLOAD PUSH1 0x1 PUSH1 0x1 PUSH1 0x40 SHL SUB DUP2 GT PUSH2 0x9AD JUMPI PUSH2 0x11CF PUSH1 0x3 DUP6 ADD SLOAD PUSH2 0x1E4F JUMP JUMPDEST PUSH1 0x1F DUP2 GT PUSH2 0x1AA2 JUMPI JUMPDEST POP PUSH1 0x20 PUSH1 0x1F DUP3 GT PUSH1 0x1 EQ PUSH2 0x1A34 JUMPI DUP2 SWAP3 SWAP4 SWAP5 SWAP6 PUSH1 0x0 SWAP3 PUSH2 0x1A29 JUMPI JUMPDEST POP POP DUP2 PUSH1 0x1 SHL SWAP2 PUSH1 0x0 NOT SWAP1 PUSH1 0x3 SHL SHR NOT AND OR PUSH1 0x3 DUP5 ADD SSTORE JUMPDEST PUSH1 0x4 DUP4 ADD PUSH1 0x1 PUSH1 0x1 PUSH1 0x40 SHL SUB PUSH1 0x80 DUP4 ADD MLOAD AND DUP2 SLOAD SWAP1 PUSH8 0xFFFFFFFFFFFFFFFF PUSH1 0x40 SHL PUSH1 0xA0 DUP6 ADD MLOAD PUSH1 0x40 SHL AND SWAP1 PUSH1 0x1 PUSH1 0x1 PUSH1 0x40 SHL SUB PUSH1 0x80 SHL PUSH1 0xC0 DUP7 ADD MLOAD PUSH1 0x80 SHL AND SWAP3 PUSH1 0x1 PUSH1 0x1 PUSH1 0x40 SHL SUB PUSH1 0xC0 SHL AND OR OR OR SWAP1 SSTORE PUSH1 0xE0 DUP2 ADD MLOAD SWAP3 DUP4 MLOAD PUSH1 0x1 PUSH1 0x1 PUSH1 0x40 SHL SUB DUP2 GT PUSH2 0x9AD JUMPI PUSH2 0x127F PUSH1 0x5 DUP4 ADD SLOAD PUSH2 0x1E4F JUMP JUMPDEST PUSH1 0x1F DUP2 GT PUSH2 0x19E2 JUMPI JUMPDEST POP PUSH1 0x20 PUSH1 0x1F DUP3 GT PUSH1 0x1 EQ PUSH2 0x1970 JUMPI DUP2 SWAP1 PUSH1 0x9 SWAP5 SWAP6 SWAP7 PUSH1 0x0 SWAP3 PUSH2 0x1965 JUMPI JUMPDEST POP POP DUP2 PUSH1 0x1 SHL SWAP2 PUSH1 0x0 NOT SWAP1 PUSH1 0x3 SHL SHR NOT AND OR PUSH1 0x5 DUP3 ADD SSTORE JUMPDEST PUSH2 0x12DD PUSH2 0x100 DUP5 ADD MLOAD ISZERO ISZERO PUSH1 0x6 DUP4 ADD SWAP1 PUSH1 0xFF DUP1 NOT DUP4 SLOAD AND SWAP2 ISZERO ISZERO AND OR SWAP1 SSTORE JUMP JUMPDEST PUSH2 0x120 DUP4 ADD MLOAD PUSH1 0x7 DUP3 ADD SSTORE PUSH2 0x140 DUP4 ADD MLOAD PUSH1 0x8 DUP3 ADD SSTORE ADD PUSH2 0x1311 PUSH2 0x160 DUP4 ADD MLOAD ISZERO ISZERO DUP3 SWAP1 PUSH1 0xFF DUP1 NOT DUP4 SLOAD AND SWAP2 ISZERO ISZERO AND OR SWAP1 SSTORE JUMP JUMPDEST PUSH2 0x180 DUP3 ADD MLOAD DUP2 SLOAD PUSH2 0xFF00 NOT AND SWAP1 ISZERO ISZERO PUSH1 0x8 SHL PUSH2 0xFF00 AND OR DUP2 SSTORE PUSH2 0x1A0 DUP3 ADD MLOAD DUP2 SLOAD PUSH3 0x10000 PUSH1 0x1 PUSH1 0xB0 SHL SUB NOT AND PUSH1 0x10 SWAP2 SWAP1 SWAP2 SHL PUSH3 0x10000 PUSH1 0x1 PUSH1 0xB0 SHL SUB AND OR SWAP1 SSTORE CALLER PUSH1 0x0 SWAP1 DUP2 MSTORE PUSH1 0x3 PUSH1 0x20 MSTORE PUSH1 0x40 SWAP1 KECCAK256 DUP1 SLOAD PUSH1 0x1 PUSH1 0x40 SHL DUP2 LT ISZERO PUSH2 0x9AD JUMPI PUSH2 0x137F SWAP2 PUSH1 0x1 DUP3 ADD DUP2 SSTORE PUSH2 0x1E33 JUMP JUMPDEST PUSH2 0x194F JUMPI DUP2 MLOAD DUP2 SLOAD PUSH1 0x1 PUSH1 0x1 PUSH1 0xA0 SHL SUB NOT AND PUSH1 0x1 PUSH1 0x1 PUSH1 0xA0 SHL SUB SWAP2 SWAP1 SWAP2 AND OR DUP2 SSTORE PUSH1 0x20 DUP3 ADD MLOAD DUP1 MLOAD PUSH1 0x1 DUP4 ADD SWAP2 PUSH1 0x1 PUSH1 0x1 PUSH1 0x40 SHL SUB DUP3 GT PUSH2 0x9AD JUMPI DUP2 SWAP1 PUSH2 0x13C6 DUP5 SLOAD PUSH2 0x1E4F JUMP JUMPDEST PUSH1 0x1F DUP2 GT PUSH2 0x18FC JUMPI JUMPDEST POP PUSH1 0x20 SWAP1 PUSH1 0x1F DUP4 GT PUSH1 0x1 EQ PUSH2 0x1897 JUMPI PUSH1 0x0 SWAP3 PUSH2 0x188C JUMPI JUMPDEST POP POP DUP2 PUSH1 0x1 SHL SWAP2 PUSH1 0x0 NOT SWAP1 PUSH1 0x3 SHL SHR NOT AND OR SWAP1 SSTORE JUMPDEST PUSH1 0x2 DUP2 ADD PUSH1 0x40 DUP4 ADD MLOAD DUP1 MLOAD SWAP1 PUSH1 0x1 PUSH1 0x1 PUSH1 0x40 SHL SUB DUP3 GT PUSH2 0x9AD JUMPI DUP2 SWAP1 PUSH2 0x1421 DUP5 SLOAD PUSH2 0x1E4F JUMP JUMPDEST PUSH1 0x1F DUP2 GT PUSH2 0x1839 JUMPI JUMPDEST POP PUSH1 0x20 SWAP1 PUSH1 0x1F DUP4 GT PUSH1 0x1 EQ PUSH2 0x17D4 JUMPI PUSH1 0x0 SWAP3 PUSH2 0x17C9 JUMPI JUMPDEST POP POP DUP2 PUSH1 0x1 SHL SWAP2 PUSH1 0x0 NOT SWAP1 PUSH1 0x3 SHL SHR NOT AND OR SWAP1 SSTORE JUMPDEST PUSH1 0x3 DUP2 ADD PUSH1 0x60 DUP4 ADD MLOAD DUP1 MLOAD SWAP1 PUSH1 0x1 PUSH1 0x1 PUSH1 0x40 SHL SUB DUP3 GT PUSH2 0x9AD JUMPI DUP2 SWAP1 PUSH2 0x147C DUP5 SLOAD PUSH2 0x1E4F JUMP JUMPDEST PUSH1 0x1F DUP2 GT PUSH2 0x1776 JUMPI JUMPDEST POP PUSH1 0x20 SWAP1 PUSH1 0x1F DUP4 GT PUSH1 0x1 EQ PUSH2 0x1711 JUMPI PUSH1 0x0 SWAP3 PUSH2 0x1706 JUMPI JUMPDEST POP POP DUP2 PUSH1 0x1 SHL SWAP2 PUSH1 0x0 NOT SWAP1 PUSH1 0x3 SHL SHR NOT AND OR SWAP1 SSTORE JUMPDEST PUSH1 0x4 DUP2 ADD PUSH1 0x1 PUSH1 0x1 PUSH1 0x40 SHL SUB PUSH1 0x80 DUP5 ADD MLOAD AND DUP2 SLOAD SWAP1 PUSH8 0xFFFFFFFFFFFFFFFF PUSH1 0x40 SHL PUSH1 0xA0 DUP7 ADD MLOAD PUSH1 0x40 SHL AND SWAP1 PUSH1 0x1 PUSH1 0x1 PUSH1 0x40 SHL SUB PUSH1 0x80 SHL PUSH1 0xC0 DUP8 ADD MLOAD PUSH1 0x80 SHL AND SWAP3 PUSH1 0x1 PUSH1 0x1 PUSH1 0x40 SHL SUB PUSH1 0xC0 SHL AND OR OR OR SWAP1 SSTORE PUSH1 0x5 DUP2 ADD PUSH1 0xE0 DUP4 ADD MLOAD DUP1 MLOAD SWAP1 PUSH1 0x1 PUSH1 0x1 PUSH1 0x40 SHL SUB DUP3 GT PUSH2 0x9AD JUMPI PUSH2 0x1526 DUP4 SLOAD PUSH2 0x1E4F JUMP JUMPDEST PUSH1 0x1F DUP2 GT PUSH2 0x16BE JUMPI JUMPDEST POP PUSH1 0x20 SWAP1 PUSH1 0x1F DUP4 GT PUSH1 0x1 EQ PUSH2 0x1650 JUMPI SWAP2 DUP1 PUSH1 0x9 SWAP5 SWAP3 PUSH2 0x1A0 SWAP7 SWAP5 PUSH1 0x0 SWAP3 PUSH2 0x1645 JUMPI JUMPDEST POP POP DUP2 PUSH1 0x1 SHL SWAP2 PUSH1 0x0 NOT SWAP1 PUSH1 0x3 SHL SHR NOT AND OR SWAP1 SSTORE JUMPDEST PUSH2 0x1586 PUSH2 0x100 DUP6 ADD MLOAD ISZERO ISZERO PUSH1 0x6 DUP4 ADD SWAP1 PUSH1 0xFF DUP1 NOT DUP4 SLOAD AND SWAP2 ISZERO ISZERO AND OR SWAP1 SSTORE JUMP JUMPDEST PUSH2 0x120 DUP5 ADD MLOAD PUSH1 0x7 DUP3 ADD SSTORE PUSH2 0x140 DUP5 ADD MLOAD PUSH1 0x8 DUP3 ADD SSTORE ADD SWAP2 PUSH2 0x15BB PUSH2 0x160 DUP3 ADD MLOAD ISZERO ISZERO DUP5 SWAP1 PUSH1 0xFF DUP1 NOT DUP4 SLOAD AND SWAP2 ISZERO ISZERO AND OR SWAP1 SSTORE JUMP JUMPDEST PUSH2 0x180 DUP2 ADD MLOAD DUP4 SLOAD PUSH2 0xFF00 NOT AND SWAP1 ISZERO ISZERO PUSH1 0x8 SHL PUSH2 0xFF00 AND OR DUP4 SSTORE ADD MLOAD DUP2 SLOAD PUSH3 0x10000 PUSH1 0x1 PUSH1 0xB0 SHL SUB NOT AND PUSH1 0x10 SWAP2 SWAP1 SWAP2 SHL PUSH3 0x10000 PUSH1 0x1 PUSH1 0xB0 SHL SUB AND OR SWAP1 SSTORE PUSH1 0x1 SLOAD PUSH1 0x0 NOT DUP2 ADD SWAP1 DUP2 GT PUSH2 0x676 JUMPI PUSH32 0xFC695DEA2478FB938A11068AEEDDDD7046A5FE655F136E30A325D353FE187A45 PUSH1 0x40 MLOAD PUSH1 0x20 DUP2 MSTORE DUP1 PUSH2 0x1640 CALLER SWAP6 PUSH1 0x20 DUP4 ADD SWAP1 PUSH2 0x1F6A JUMP JUMPDEST SUB SWAP1 LOG3 STOP JUMPDEST ADD MLOAD SWAP1 POP DUP9 DUP1 PUSH2 0x1551 JUMP JUMPDEST SWAP1 PUSH1 0x1F NOT DUP4 AND SWAP2 DUP5 PUSH1 0x0 MSTORE DUP2 PUSH1 0x0 KECCAK256 SWAP3 PUSH1 0x0 JUMPDEST DUP2 DUP2 LT PUSH2 0x16A6 JUMPI POP SWAP3 PUSH1 0x1 SWAP3 DUP6 SWAP3 PUSH2 0x1A0 SWAP9 SWAP7 PUSH1 0x9 SWAP9 SWAP7 LT PUSH2 0x168D JUMPI JUMPDEST POP POP POP DUP2 SHL ADD SWAP1 SSTORE PUSH2 0x1566 JUMP JUMPDEST ADD MLOAD PUSH1 0x0 NOT PUSH1 0xF8 DUP5 PUSH1 0x3 SHL AND SHR NOT AND SWAP1 SSTORE DUP9 DUP1 DUP1 PUSH2 0x1680 JUMP JUMPDEST SWAP3 SWAP4 PUSH1 0x20 PUSH1 0x1 DUP2 SWAP3 DUP8 DUP7 ADD MLOAD DUP2 SSTORE ADD SWAP6 ADD SWAP4 ADD PUSH2 0x1663 JUMP JUMPDEST DUP4 PUSH1 0x0 MSTORE PUSH1 0x20 PUSH1 0x0 KECCAK256 PUSH1 0x1F DUP5 ADD PUSH1 0x5 SHR DUP2 ADD SWAP2 PUSH1 0x20 DUP6 LT PUSH2 0x16FC JUMPI JUMPDEST PUSH1 0x1F ADD PUSH1 0x5 SHR ADD SWAP1 JUMPDEST DUP2 DUP2 LT PUSH2 0x16F0 JUMPI POP PUSH2 0x152F JUMP JUMPDEST PUSH1 0x0 DUP2 SSTORE PUSH1 0x1 ADD PUSH2 0x16E3 JUMP JUMPDEST SWAP1 SWAP2 POP DUP2 SWAP1 PUSH2 0x16DA JUMP JUMPDEST ADD MLOAD SWAP1 POP DUP7 DUP1 PUSH2 0x149C JUMP JUMPDEST PUSH1 0x0 DUP6 DUP2 MSTORE DUP3 DUP2 KECCAK256 SWAP4 POP PUSH1 0x1F NOT DUP6 AND SWAP1 JUMPDEST DUP2 DUP2 LT PUSH2 0x175E JUMPI POP SWAP1 DUP5 PUSH1 0x1 SWAP6 SWAP5 SWAP4 SWAP3 LT PUSH2 0x1745 JUMPI JUMPDEST POP POP POP DUP2 SHL ADD SWAP1 SSTORE PUSH2 0x14B1 JUMP JUMPDEST ADD MLOAD PUSH1 0x0 NOT PUSH1 0xF8 DUP5 PUSH1 0x3 SHL AND SHR NOT AND SWAP1 SSTORE DUP7 DUP1 DUP1 PUSH2 0x1738 JUMP JUMPDEST SWAP3 SWAP4 PUSH1 0x20 PUSH1 0x1 DUP2 SWAP3 DUP8 DUP7 ADD MLOAD DUP2 SSTORE ADD SWAP6 ADD SWAP4 ADD PUSH2 0x1722 JUMP JUMPDEST SWAP1 SWAP2 POP DUP4 PUSH1 0x0 MSTORE PUSH1 0x20 PUSH1 0x0 KECCAK256 PUSH1 0x1F DUP5 ADD PUSH1 0x5 SHR DUP2 ADD SWAP2 PUSH1 0x20 DUP6 LT PUSH2 0x17BF JUMPI JUMPDEST SWAP1 PUSH1 0x1F DUP6 SWAP5 SWAP4 SWAP3 ADD PUSH1 0x5 SHR ADD SWAP1 JUMPDEST DUP2 DUP2 LT PUSH2 0x17B0 JUMPI POP PUSH2 0x1485 JUMP JUMPDEST PUSH1 0x0 DUP2 SSTORE DUP5 SWAP4 POP PUSH1 0x1 ADD PUSH2 0x17A3 JUMP JUMPDEST SWAP1 SWAP2 POP DUP2 SWAP1 PUSH2 0x1795 JUMP JUMPDEST ADD MLOAD SWAP1 POP DUP7 DUP1 PUSH2 0x1441 JUMP JUMPDEST PUSH1 0x0 DUP6 DUP2 MSTORE DUP3 DUP2 KECCAK256 SWAP4 POP PUSH1 0x1F NOT DUP6 AND SWAP1 JUMPDEST DUP2 DUP2 LT PUSH2 0x1821 JUMPI POP SWAP1 DUP5 PUSH1 0x1 SWAP6 SWAP5 SWAP4 SWAP3 LT PUSH2 0x1808 JUMPI JUMPDEST POP POP POP DUP2 SHL ADD SWAP1 SSTORE PUSH2 0x1456 JUMP JUMPDEST ADD MLOAD PUSH1 0x0 NOT PUSH1 0xF8 DUP5 PUSH1 0x3 SHL AND SHR NOT AND SWAP1 SSTORE DUP7 DUP1 DUP1 PUSH2 0x17FB JUMP JUMPDEST SWAP3 SWAP4 PUSH1 0x20 PUSH1 0x1 DUP2 SWAP3 DUP8 DUP7 ADD MLOAD DUP2 SSTORE ADD SWAP6 ADD SWAP4 ADD PUSH2 0x17E5 JUMP JUMPDEST SWAP1 SWAP2 POP DUP4 PUSH1 0x0 MSTORE PUSH1 0x20 PUSH1 0x0 KECCAK256 PUSH1 0x1F DUP5 ADD PUSH1 0x5 SHR DUP2 ADD SWAP2 PUSH1 0x20 DUP6 LT PUSH2 0x1882 JUMPI JUMPDEST SWAP1 PUSH1 0x1F DUP6 SWAP5 SWAP4 SWAP3 ADD PUSH1 0x5 SHR ADD SWAP1 JUMPDEST DUP2 DUP2 LT PUSH2 0x1873 JUMPI POP PUSH2 0x142A JUMP JUMPDEST PUSH1 0x0 DUP2 SSTORE DUP5 SWAP4 POP PUSH1 0x1 ADD PUSH2 0x1866 JUMP JUMPDEST SWAP1 SWAP2 POP DUP2 SWAP1 PUSH2 0x1858 JUMP JUMPDEST ADD MLOAD SWAP1 POP DUP7 DUP1 PUSH2 0x13E6 JUMP JUMPDEST PUSH1 0x0 DUP6 DUP2 MSTORE DUP3 DUP2 KECCAK256 SWAP4 POP PUSH1 0x1F NOT DUP6 AND SWAP1 JUMPDEST DUP2 DUP2 LT PUSH2 0x18E4 JUMPI POP SWAP1 DUP5 PUSH1 0x1 SWAP6 SWAP5 SWAP4 SWAP3 LT PUSH2 0x18CB JUMPI JUMPDEST POP POP POP DUP2 SHL ADD SWAP1 SSTORE PUSH2 0x13FB JUMP JUMPDEST ADD MLOAD PUSH1 0x0 NOT PUSH1 0xF8 DUP5 PUSH1 0x3 SHL AND SHR NOT AND SWAP1 SSTORE DUP7 DUP1 DUP1 PUSH2 0x18BE JUMP JUMPDEST SWAP3 SWAP4 PUSH1 0x20 PUSH1 0x1 DUP2 SWAP3 DUP8 DUP7 ADD MLOAD DUP2 SSTORE ADD SWAP6 ADD SWAP4 ADD PUSH2 0x18A8 JUMP JUMPDEST SWAP1 SWAP2 POP DUP4 PUSH1 0x0 MSTORE PUSH1 0x20 PUSH1 0x0 KECCAK256 PUSH1 0x1F DUP5 ADD PUSH1 0x5 SHR DUP2 ADD SWAP2 PUSH1 0x20 DUP6 LT PUSH2 0x1945 JUMPI JUMPDEST SWAP1 PUSH1 0x1F DUP6 SWAP5 SWAP4 SWAP3 ADD PUSH1 0x5 SHR ADD SWAP1 JUMPDEST DUP2 DUP2 LT PUSH2 0x1936 JUMPI POP PUSH2 0x13CF JUMP JUMPDEST PUSH1 0x0 DUP2 SSTORE DUP5 SWAP4 POP PUSH1 0x1 ADD PUSH2 0x1929 JUMP JUMPDEST SWAP1 SWAP2 POP DUP2 SWAP1 PUSH2 0x191B JUMP JUMPDEST PUSH4 0x4E487B71 PUSH1 0xE0 SHL PUSH1 0x0 MSTORE PUSH1 0x0 PUSH1 0x4 MSTORE PUSH1 0x24 PUSH1 0x0 REVERT JUMPDEST ADD MLOAD SWAP1 POP DUP7 DUP1 PUSH2 0x12A5 JUMP JUMPDEST PUSH1 0x5 DUP4 ADD PUSH1 0x0 MSTORE DUP1 PUSH1 0x0 KECCAK256 SWAP6 PUSH1 0x0 JUMPDEST PUSH1 0x1F NOT DUP5 AND DUP2 LT PUSH2 0x19CA JUMPI POP SWAP6 DUP3 SWAP2 PUSH1 0x9 SWAP6 SWAP7 SWAP8 PUSH1 0x1 SWAP5 PUSH1 0x1F NOT DUP2 AND LT PUSH2 0x19B1 JUMPI JUMPDEST POP POP POP DUP2 SHL ADD PUSH1 0x5 DUP3 ADD SSTORE PUSH2 0x12BD JUMP JUMPDEST ADD MLOAD PUSH1 0x0 NOT PUSH1 0xF8 DUP5 PUSH1 0x3 SHL AND SHR NOT AND SWAP1 SSTORE DUP7 DUP1 DUP1 PUSH2 0x19A1 JUMP JUMPDEST DUP3 DUP3 ADD MLOAD DUP9 SSTORE PUSH1 0x1 SWAP1 SWAP8 ADD SWAP7 PUSH1 0x20 SWAP3 DUP4 ADD SWAP3 ADD PUSH2 0x197F JUMP JUMPDEST PUSH1 0x5 DUP4 ADD PUSH1 0x0 MSTORE PUSH1 0x20 PUSH1 0x0 KECCAK256 PUSH1 0x1F DUP4 ADD PUSH1 0x5 SHR DUP2 ADD PUSH1 0x20 DUP5 LT PUSH2 0x1A22 JUMPI JUMPDEST PUSH1 0x1F DUP4 ADD PUSH1 0x5 SHR DUP3 ADD DUP2 LT PUSH2 0x1A16 JUMPI POP POP PUSH2 0x1288 JUMP JUMPDEST PUSH1 0x0 DUP2 SSTORE PUSH1 0x1 ADD PUSH2 0x1A00 JUMP JUMPDEST POP DUP1 PUSH2 0x1A00 JUMP JUMPDEST ADD MLOAD SWAP1 POP DUP6 DUP1 PUSH2 0x11F3 JUMP JUMPDEST PUSH1 0x3 DUP6 ADD PUSH1 0x0 MSTORE DUP1 PUSH1 0x0 KECCAK256 SWAP1 PUSH1 0x0 JUMPDEST PUSH1 0x1F NOT DUP5 AND DUP2 LT PUSH2 0x1A8A JUMPI POP PUSH1 0x1 SWAP4 SWAP5 SWAP6 SWAP7 DUP4 PUSH1 0x1F NOT DUP2 AND LT PUSH2 0x1A71 JUMPI JUMPDEST POP POP POP DUP2 SHL ADD PUSH1 0x3 DUP5 ADD SSTORE PUSH2 0x120B JUMP JUMPDEST ADD MLOAD PUSH1 0x0 NOT PUSH1 0xF8 DUP5 PUSH1 0x3 SHL AND SHR NOT AND SWAP1 SSTORE DUP6 DUP1 DUP1 PUSH2 0x1A61 JUMP JUMPDEST SWAP1 SWAP2 PUSH1 0x20 PUSH1 0x1 DUP2 SWAP3 DUP6 DUP12 ADD MLOAD DUP2 SSTORE ADD SWAP4 ADD SWAP2 ADD PUSH2 0x1A43 JUMP JUMPDEST PUSH1 0x3 DUP6 ADD PUSH1 0x0 MSTORE PUSH1 0x20 PUSH1 0x0 KECCAK256 PUSH1 0x1F DUP4 ADD PUSH1 0x5 SHR DUP2 ADD PUSH1 0x20 DUP5 LT PUSH2 0x1AE2 JUMPI JUMPDEST PUSH1 0x1F DUP4 ADD PUSH1 0x5 SHR DUP3 ADD DUP2 LT PUSH2 0x1AD6 JUMPI POP POP PUSH2 0x11D8 JUMP JUMPDEST PUSH1 0x0 DUP2 SSTORE PUSH1 0x1 ADD PUSH2 0x1AC0 JUMP JUMPDEST POP DUP1 PUSH2 0x1AC0 JUMP JUMPDEST ADD MLOAD SWAP1 POP DUP6 DUP1 PUSH2 0x1194 JUMP JUMPDEST PUSH1 0x2 DUP5 ADD PUSH1 0x0 MSTORE DUP1 PUSH1 0x0 KECCAK256 SWAP1 PUSH1 0x0 JUMPDEST PUSH1 0x1F NOT DUP5 AND DUP2 LT PUSH2 0x1B4A JUMPI POP PUSH1 0x1 SWAP4 SWAP5 SWAP6 SWAP7 DUP4 PUSH1 0x1F NOT DUP2 AND LT PUSH2 0x1B31 JUMPI JUMPDEST POP POP POP DUP2 SHL ADD PUSH1 0x2 DUP4 ADD SSTORE PUSH2 0x11AC JUMP JUMPDEST ADD MLOAD PUSH1 0x0 NOT PUSH1 0xF8 DUP5 PUSH1 0x3 SHL AND SHR NOT AND SWAP1 SSTORE DUP6 DUP1 DUP1 PUSH2 0x1B21 JUMP JUMPDEST SWAP1 SWAP2 PUSH1 0x20 PUSH1 0x1 DUP2 SWAP3 DUP6 DUP12 ADD MLOAD DUP2 SSTORE ADD SWAP4 ADD SWAP2 ADD PUSH2 0x1B03 JUMP JUMPDEST PUSH1 0x2 DUP5 ADD PUSH1 0x0 MSTORE PUSH1 0x20 PUSH1 0x0 KECCAK256 PUSH1 0x1F DUP4 ADD PUSH1 0x5 SHR DUP2 ADD PUSH1 0x20 DUP5 LT PUSH2 0x1BA2 JUMPI JUMPDEST PUSH1 0x1F DUP4 ADD PUSH1 0x5 SHR DUP3 ADD DUP2 LT PUSH2 0x1B96 JUMPI POP POP PUSH2 0x1179 JUMP JUMPDEST PUSH1 0x0 DUP2 SSTORE PUSH1 0x1 ADD PUSH2 0x1B80 JUMP JUMPDEST POP DUP1 PUSH2 0x1B80 JUMP JUMPDEST ADD MLOAD SWAP1 POP DUP6 DUP1 PUSH2 0x1135 JUMP JUMPDEST PUSH1 0x1 DUP4 ADD PUSH1 0x0 MSTORE DUP1 PUSH1 0x0 KECCAK256 SWAP1 PUSH1 0x0 JUMPDEST PUSH1 0x1F NOT DUP5 AND DUP2 LT PUSH2 0x1C0A JUMPI POP PUSH1 0x1 SWAP4 SWAP5 SWAP6 SWAP7 DUP4 PUSH1 0x1F NOT DUP2 AND LT PUSH2 0x1BF1 JUMPI JUMPDEST POP POP POP DUP2 SHL ADD PUSH1 0x1 DUP3 ADD SSTORE PUSH2 0x114D JUMP JUMPDEST ADD MLOAD PUSH1 0x0 NOT PUSH1 0xF8 DUP5 PUSH1 0x3 SHL AND SHR NOT AND SWAP1 SSTORE DUP6 DUP1 DUP1 PUSH2 0x1BE1 JUMP JUMPDEST SWAP1 SWAP2 PUSH1 0x20 PUSH1 0x1 DUP2 SWAP3 DUP6 DUP12 ADD MLOAD DUP2 SSTORE ADD SWAP4 ADD SWAP2 ADD PUSH2 0x1BC3 JUMP JUMPDEST PUSH1 0x1 DUP4 ADD PUSH1 0x0 MSTORE PUSH1 0x20 PUSH1 0x0 KECCAK256 PUSH1 0x1F DUP4 ADD PUSH1 0x5 SHR DUP2 ADD PUSH1 0x20 DUP5 LT PUSH2 0x1C62 JUMPI JUMPDEST PUSH1 0x1F DUP4 ADD PUSH1 0x5 SHR DUP3 ADD DUP2 LT PUSH2 0x1C56 JUMPI POP POP PUSH2 0x111A JUMP JUMPDEST PUSH1 0x0 DUP2 SSTORE PUSH1 0x1 ADD PUSH2 0x1C40 JUMP JUMPDEST POP DUP1 PUSH2 0x1C40 JUMP JUMPDEST PUSH1 0x40 MLOAD PUSH3 0x461BCD PUSH1 0xE5 SHL DUP2 MSTORE PUSH1 0x20 PUSH1 0x4 DUP3 ADD MSTORE PUSH1 0x19 PUSH1 0x24 DUP3 ADD MSTORE PUSH32 0x556E737570706F72746564207061796D656E7420746F6B656E00000000000000 PUSH1 0x44 DUP3 ADD MSTORE PUSH1 0x64 SWAP1 REVERT JUMPDEST CALLVALUE PUSH2 0x107 JUMPI PUSH1 0x20 CALLDATASIZE PUSH1 0x3 NOT ADD SLT PUSH2 0x107 JUMPI PUSH1 0x4 CALLDATALOAD PUSH1 0x1 SLOAD DUP2 LT ISZERO PUSH2 0x107 JUMPI PUSH2 0x1CD5 SWAP1 PUSH2 0x1DFE JUMP JUMPDEST POP DUP1 SLOAD PUSH1 0x1 PUSH1 0x1 PUSH1 0xA0 SHL SUB AND PUSH2 0x1CED PUSH1 0x1 DUP4 ADD PUSH2 0x1EC6 JUMP JUMPDEST SWAP2 PUSH2 0x1CFA PUSH1 0x2 DUP3 ADD PUSH2 0x1EC6 JUMP JUMPDEST PUSH2 0x1D06 PUSH1 0x3 DUP4 ADD PUSH2 0x1EC6 JUMP JUMPDEST PUSH1 0x4 DUP4 ADD SLOAD SWAP3 SWAP1 PUSH2 0x1D19 PUSH1 0x5 DUP4 ADD PUSH2 0x1EC6 JUMP JUMPDEST PUSH1 0x6 DUP4 ADD SLOAD PUSH1 0xFF AND SWAP5 PUSH1 0x7 DUP5 ADD SLOAD SWAP3 PUSH1 0x8 DUP6 ADD SLOAD SWAP5 PUSH1 0x9 ADD SLOAD SWAP6 PUSH1 0x40 MLOAD SWAP10 DUP11 SWAP10 DUP11 MSTORE PUSH1 0x20 DUP11 ADD PUSH2 0x1C0 SWAP1 MSTORE PUSH2 0x1C0 DUP11 ADD PUSH2 0x1D52 SWAP2 PUSH2 0x1F6A JUMP JUMPDEST DUP10 DUP2 SUB PUSH1 0x40 DUP12 ADD MSTORE PUSH2 0x1D63 SWAP2 PUSH2 0x1F6A JUMP JUMPDEST DUP9 DUP2 SUB PUSH1 0x60 DUP11 ADD MSTORE PUSH2 0x1D74 SWAP2 PUSH2 0x1F6A JUMP JUMPDEST SWAP1 PUSH1 0x1 PUSH1 0x1 PUSH1 0x40 SHL SUB DUP2 AND PUSH1 0x80 DUP10 ADD MSTORE DUP1 PUSH1 0x40 SHR PUSH1 0x1 PUSH1 0x1 PUSH1 0x40 SHL SUB AND PUSH1 0xA0 DUP10 ADD MSTORE PUSH1 0x80 SHR PUSH1 0x1 PUSH1 0x1 PUSH1 0x40 SHL SUB AND PUSH1 0xC0 DUP9 ADD MSTORE DUP7 DUP2 SUB PUSH1 0xE0 DUP9 ADD MSTORE PUSH2 0x1DB8 SWAP2 PUSH2 0x1F6A JUMP JUMPDEST SWAP4 ISZERO ISZERO PUSH2 0x100 DUP7 ADD MSTORE PUSH2 0x120 DUP6 ADD MSTORE PUSH2 0x140 DUP5 ADD MSTORE PUSH1 0xFF DUP2 DUP2 AND ISZERO ISZERO PUSH2 0x160 DUP6 ADD MSTORE PUSH1 0x8 DUP3 SWAP1 SHR AND ISZERO ISZERO PUSH2 0x180 DUP5 ADD MSTORE PUSH1 0x10 SHR PUSH1 0x1 PUSH1 0x1 PUSH1 0xA0 SHL SUB AND PUSH2 0x1A0 DUP4 ADD MSTORE SUB SWAP1 RETURN JUMPDEST PUSH1 0x1 SLOAD DUP2 LT ISZERO PUSH2 0x1E1D JUMPI PUSH1 0x1 PUSH1 0x0 MSTORE PUSH1 0xA PUSH1 0x20 PUSH1 0x0 KECCAK256 SWAP2 MUL ADD SWAP1 PUSH1 0x0 SWAP1 JUMP JUMPDEST PUSH4 0x4E487B71 PUSH1 0xE0 SHL PUSH1 0x0 MSTORE PUSH1 0x32 PUSH1 0x4 MSTORE PUSH1 0x24 PUSH1 0x0 REVERT JUMPDEST DUP1 SLOAD DUP3 LT ISZERO PUSH2 0x1E1D JUMPI PUSH1 0x0 MSTORE PUSH1 0xA PUSH1 0x20 PUSH1 0x0 KECCAK256 SWAP2 MUL ADD SWAP1 PUSH1 0x0 SWAP1 JUMP JUMPDEST SWAP1 PUSH1 0x1 DUP3 DUP2 SHR SWAP3 AND DUP1 ISZERO PUSH2 0x1E7F JUMPI JUMPDEST PUSH1 0x20 DUP4 LT EQ PUSH2 0x1E69 JUMPI JUMP JUMPDEST PUSH4 0x4E487B71 PUSH1 0xE0 SHL PUSH1 0x0 MSTORE PUSH1 0x22 PUSH1 0x4 MSTORE PUSH1 0x24 PUSH1 0x0 REVERT JUMPDEST SWAP2 PUSH1 0x7F AND SWAP2 PUSH2 0x1E5E JUMP JUMPDEST PUSH2 0x1C0 DUP2 ADD SWAP1 DUP2 LT PUSH1 0x1 PUSH1 0x1 PUSH1 0x40 SHL SUB DUP3 GT OR PUSH2 0x9AD JUMPI PUSH1 0x40 MSTORE JUMP JUMPDEST SWAP1 PUSH1 0x1F DUP1 NOT SWAP2 ADD AND DUP2 ADD SWAP1 DUP2 LT PUSH1 0x1 PUSH1 0x1 PUSH1 0x40 SHL SUB DUP3 GT OR PUSH2 0x9AD JUMPI PUSH1 0x40 MSTORE JUMP JUMPDEST SWAP1 PUSH1 0x40 MLOAD SWAP2 DUP3 PUSH1 0x0 DUP3 SLOAD SWAP3 PUSH2 0x1EDA DUP5 PUSH2 0x1E4F JUMP JUMPDEST DUP1 DUP5 MSTORE SWAP4 PUSH1 0x1 DUP2 AND SWAP1 DUP2 ISZERO PUSH2 0x1F48 JUMPI POP PUSH1 0x1 EQ PUSH2 0x1F01 JUMPI JUMPDEST POP PUSH2 0x1EFF SWAP3 POP SUB DUP4 PUSH2 0x1EA5 JUMP JUMPDEST JUMP JUMPDEST SWAP1 POP PUSH1 0x0 SWAP3 SWAP2 SWAP3 MSTORE PUSH1 0x20 PUSH1 0x0 KECCAK256 SWAP1 PUSH1 0x0 SWAP2 JUMPDEST DUP2 DUP4 LT PUSH2 0x1F2C JUMPI POP POP SWAP1 PUSH1 0x20 PUSH2 0x1EFF SWAP3 DUP3 ADD ADD CODESIZE PUSH2 0x1EF2 JUMP JUMPDEST PUSH1 0x20 SWAP2 SWAP4 POP DUP1 PUSH1 0x1 SWAP2 SLOAD DUP4 DUP6 DUP10 ADD ADD MSTORE ADD SWAP2 ADD SWAP1 SWAP2 DUP5 SWAP3 PUSH2 0x1F13 JUMP JUMPDEST SWAP1 POP PUSH1 0x20 SWAP3 POP PUSH2 0x1EFF SWAP5 SWAP2 POP PUSH1 0xFF NOT AND DUP3 DUP5 ADD MSTORE ISZERO ISZERO PUSH1 0x5 SHL DUP3 ADD ADD CODESIZE PUSH2 0x1EF2 JUMP JUMPDEST SWAP2 SWAP1 DUP3 MLOAD SWAP3 DUP4 DUP3 MSTORE PUSH1 0x0 JUMPDEST DUP5 DUP2 LT PUSH2 0x1F96 JUMPI POP POP DUP3 PUSH1 0x0 PUSH1 0x20 DUP1 SWAP5 SWAP6 DUP5 ADD ADD MSTORE PUSH1 0x1F DUP1 NOT SWAP2 ADD AND ADD ADD SWAP1 JUMP JUMPDEST DUP1 PUSH1 0x20 DUP1 SWAP3 DUP5 ADD ADD MLOAD DUP3 DUP3 DUP7 ADD ADD MSTORE ADD PUSH2 0x1F75 JUMP JUMPDEST DUP2 PUSH1 0x1F DUP3 ADD SLT ISZERO PUSH2 0x107 JUMPI DUP1 CALLDATALOAD SWAP1 PUSH1 0x1 PUSH1 0x1 PUSH1 0x40 SHL SUB DUP3 GT PUSH2 0x9AD JUMPI PUSH1 0x40 MLOAD SWAP3 PUSH2 0x1FDF PUSH1 0x1F DUP5 ADD PUSH1 0x1F NOT AND PUSH1 0x20 ADD DUP6 PUSH2 0x1EA5 JUMP JUMPDEST DUP3 DUP5 MSTORE PUSH1 0x20 DUP4 DUP4 ADD ADD GT PUSH2 0x107 JUMPI DUP2 PUSH1 0x0 SWAP3 PUSH1 0x20 DUP1 SWAP4 ADD DUP4 DUP7 ADD CALLDATACOPY DUP4 ADD ADD MSTORE SWAP1 JUMP JUMPDEST PUSH1 0x4 CALLDATALOAD SWAP1 PUSH1 0x1 PUSH1 0x1 PUSH1 0xA0 SHL SUB DUP3 AND DUP3 SUB PUSH2 0x107 JUMPI JUMP JUMPDEST SWAP1 PUSH1 0x1 DUP1 PUSH1 0xA0 SHL SUB DUP3 MLOAD AND DUP2 MSTORE PUSH2 0x1A0 PUSH2 0x20BA PUSH2 0x206F PUSH2 0x205D PUSH2 0x204B PUSH1 0x20 DUP8 ADD MLOAD PUSH2 0x1C0 PUSH1 0x20 DUP9 ADD MSTORE PUSH2 0x1C0 DUP8 ADD SWAP1 PUSH2 0x1F6A JUMP JUMPDEST PUSH1 0x40 DUP8 ADD MLOAD DUP7 DUP3 SUB PUSH1 0x40 DUP9 ADD MSTORE PUSH2 0x1F6A JUMP JUMPDEST PUSH1 0x60 DUP7 ADD MLOAD DUP6 DUP3 SUB PUSH1 0x60 DUP8 ADD MSTORE PUSH2 0x1F6A JUMP JUMPDEST PUSH1 0x1 PUSH1 0x1 PUSH1 0x40 SHL SUB PUSH1 0x80 DUP7 ADD MLOAD AND PUSH1 0x80 DUP6 ADD MSTORE PUSH1 0x1 PUSH1 0x1 PUSH1 0x40 SHL SUB PUSH1 0xA0 DUP7 ADD MLOAD AND PUSH1 0xA0 DUP6 ADD MSTORE PUSH1 0x1 PUSH1 0x1 PUSH1 0x40 SHL SUB PUSH1 0xC0 DUP7 ADD MLOAD AND PUSH1 0xC0 DUP6 ADD MSTORE PUSH1 0xE0 DUP6 ADD MLOAD DUP5 DUP3 SUB PUSH1 0xE0 DUP7 ADD MSTORE PUSH2 0x1F6A JUMP JUMPDEST SWAP3 PUSH2 0x100 DUP2 ADD MLOAD ISZERO ISZERO PUSH2 0x100 DUP5 ADD MSTORE PUSH2 0x120 DUP2 ADD MLOAD PUSH2 0x120 DUP5 ADD MSTORE PUSH2 0x140 DUP2 ADD MLOAD PUSH2 0x140 DUP5 ADD MSTORE PUSH2 0x160 DUP2 ADD MLOAD ISZERO ISZERO PUSH2 0x160 DUP5 ADD MSTORE PUSH2 0x180 DUP2 ADD MLOAD ISZERO ISZERO PUSH2 0x180 DUP5 ADD MSTORE DUP2 PUSH1 0x1 DUP1 PUSH1 0xA0 SHL SUB SWAP2 ADD MLOAD AND SWAP2 ADD MSTORE SWAP1 JUMP JUMPDEST SWAP1 DUP1 PUSH1 0x20 DUP4 MLOAD SWAP2 DUP3 DUP2 MSTORE ADD SWAP2 PUSH1 0x20 DUP1 DUP4 PUSH1 0x5 SHL DUP4 ADD ADD SWAP5 ADD SWAP3 PUSH1 0x0 SWAP2 JUMPDEST DUP4 DUP4 LT PUSH2 0x213B JUMPI POP POP POP POP POP SWAP1 JUMP JUMPDEST SWAP1 SWAP2 SWAP3 SWAP4 SWAP5 PUSH1 0x20 DUP1 PUSH2 0x2159 PUSH1 0x1 SWAP4 PUSH1 0x1F NOT DUP7 DUP3 SUB ADD DUP8 MSTORE DUP10 MLOAD PUSH2 0x2017 JUMP JUMPDEST SWAP8 ADD SWAP4 ADD SWAP4 ADD SWAP2 SWAP4 SWAP3 SWAP1 PUSH2 0x212C JUMP JUMPDEST SWAP1 PUSH1 0x20 DUP1 DUP4 MLOAD SWAP3 DUP4 DUP2 MSTORE ADD SWAP3 ADD SWAP1 PUSH1 0x0 JUMPDEST DUP2 DUP2 LT PUSH2 0x2186 JUMPI POP POP POP SWAP1 JUMP JUMPDEST DUP3 MLOAD PUSH1 0x1 PUSH1 0x1 PUSH1 0xA0 SHL SUB AND DUP5 MSTORE PUSH1 0x20 SWAP4 DUP5 ADD SWAP4 SWAP1 SWAP3 ADD SWAP2 PUSH1 0x1 ADD PUSH2 0x2179 JUMP JUMPDEST SWAP3 SWAP2 PUSH1 0x40 DUP5 ADD SWAP4 PUSH1 0x40 DUP2 MSTORE DUP3 MLOAD DUP1 SWAP6 MSTORE PUSH1 0x20 PUSH1 0x60 DUP3 ADD SWAP4 ADD PUSH1 0x0 SWAP6 JUMPDEST DUP1 DUP8 LT PUSH2 0x21E0 JUMPI POP POP PUSH2 0x21DD SWAP4 SWAP5 POP PUSH1 0x20 DUP2 DUP5 SUB SWAP2 ADD MSTORE PUSH2 0x210F JUMP JUMPDEST SWAP1 JUMP JUMPDEST SWAP1 SWAP4 PUSH1 0x20 DUP1 PUSH1 0x1 SWAP3 DUP8 MLOAD DUP2 MSTORE ADD SWAP6 ADD SWAP7 ADD SWAP6 SWAP1 PUSH2 0x21C1 JUMP JUMPDEST PUSH1 0x1 PUSH1 0x1 PUSH1 0x40 SHL SUB DUP2 GT PUSH2 0x9AD JUMPI PUSH1 0x5 SHL PUSH1 0x20 ADD SWAP1 JUMP JUMPDEST SWAP1 PUSH1 0x40 MLOAD PUSH2 0x221C DUP2 PUSH2 0x1E89 JUMP JUMPDEST DUP3 SLOAD PUSH1 0x1 PUSH1 0x1 PUSH1 0xA0 SHL SUB AND DUP2 MSTORE SWAP2 DUP3 SWAP1 PUSH2 0x1A0 SWAP1 PUSH1 0x9 SWAP1 PUSH2 0x223F PUSH1 0x1 DUP3 ADD PUSH2 0x1EC6 JUMP JUMPDEST PUSH1 0x20 DUP6 ADD MSTORE PUSH2 0x2250 PUSH1 0x2 DUP3 ADD PUSH2 0x1EC6 JUMP JUMPDEST PUSH1 0x40 DUP6 ADD MSTORE PUSH2 0x2261 PUSH1 0x3 DUP3 ADD PUSH2 0x1EC6 JUMP JUMPDEST PUSH1 0x60 DUP6 ADD MSTORE PUSH1 0x1 PUSH1 0x1 PUSH1 0x40 SHL SUB PUSH1 0x4 DUP3 ADD SLOAD DUP2 DUP2 AND PUSH1 0x80 DUP8 ADD MSTORE DUP2 DUP2 PUSH1 0x40 SHR AND PUSH1 0xA0 DUP8 ADD MSTORE PUSH1 0x80 SHR AND PUSH1 0xC0 DUP6 ADD MSTORE PUSH2 0x229B PUSH1 0x5 DUP3 ADD PUSH2 0x1EC6 JUMP JUMPDEST PUSH1 0xE0 DUP6 ADD MSTORE PUSH1 0xFF PUSH1 0x6 DUP3 ADD SLOAD AND ISZERO ISZERO PUSH2 0x100 DUP6 ADD MSTORE PUSH1 0x7 DUP2 ADD SLOAD PUSH2 0x120 DUP6 ADD MSTORE PUSH1 0x8 DUP2 ADD SLOAD PUSH2 0x140 DUP6 ADD MSTORE ADD SLOAD PUSH1 0xFF DUP2 AND ISZERO ISZERO PUSH2 0x160 DUP5 ADD MSTORE PUSH1 0xFF DUP2 PUSH1 0x8 SHR AND ISZERO ISZERO PUSH2 0x180 DUP5 ADD MSTORE PUSH1 0x1 DUP1 PUSH1 0xA0 SHL SUB SWAP1 PUSH1 0x10 SHR AND SWAP2 ADD MSTORE JUMP JUMPDEST SWAP1 DUP2 SLOAD PUSH2 0x2300 DUP2 PUSH2 0x21F8 JUMP JUMPDEST SWAP3 PUSH2 0x230E PUSH1 0x40 MLOAD SWAP5 DUP6 PUSH2 0x1EA5 JUMP JUMPDEST DUP2 DUP5 MSTORE PUSH1 0x20 DUP5 ADD SWAP1 PUSH1 0x0 MSTORE PUSH1 0x20 PUSH1 0x0 KECCAK256 PUSH1 0x0 SWAP2 JUMPDEST DUP4 DUP4 LT PUSH2 0x232F JUMPI POP POP POP POP JUMP JUMPDEST PUSH1 0xA PUSH1 0x20 PUSH1 0x1 SWAP3 PUSH2 0x233F DUP6 PUSH2 0x220F JUMP JUMPDEST DUP2 MSTORE ADD SWAP3 ADD SWAP3 ADD SWAP2 SWAP1 PUSH2 0x2322 JUMP JUMPDEST ISZERO PUSH2 0x2354 JUMPI JUMP JUMPDEST PUSH1 0x40 MLOAD PUSH3 0x461BCD PUSH1 0xE5 SHL DUP2 MSTORE PUSH1 0x20 PUSH1 0x4 DUP3 ADD MSTORE PUSH1 0xF PUSH1 0x24 DUP3 ADD MSTORE PUSH15 0x2737BA1032BB32B73A1037BBB732B9 PUSH1 0x89 SHL PUSH1 0x44 DUP3 ADD MSTORE PUSH1 0x64 SWAP1 REVERT JUMPDEST ISZERO PUSH2 0x2392 JUMPI JUMP JUMPDEST PUSH1 0x40 MLOAD PUSH3 0x461BCD PUSH1 0xE5 SHL DUP2 MSTORE PUSH1 0x20 PUSH1 0x4 DUP3 ADD MSTORE PUSH1 0x10 PUSH1 0x24 DUP3 ADD MSTORE PUSH16 0x125B9D985B1A5908195D995B9D081251 PUSH1 0x82 SHL PUSH1 0x44 DUP3 ADD MSTORE PUSH1 0x64 SWAP1 REVERT JUMPDEST SWAP1 DUP2 PUSH1 0x20 SWAP2 SUB SLT PUSH2 0x107 JUMPI MLOAD DUP1 ISZERO ISZERO DUP2 SUB PUSH2 0x107 JUMPI SWAP1 JUMP JUMPDEST DUP1 SLOAD DUP3 LT ISZERO PUSH2 0x1E1D JUMPI PUSH1 0x0 MSTORE PUSH1 0x20 PUSH1 0x0 KECCAK256 ADD SWAP1 PUSH1 0x0 SWAP1 JUMP JUMPDEST PUSH1 0x40 MLOAD SWAP1 PUSH2 0x2407 DUP3 PUSH2 0x1E89 JUMP JUMPDEST PUSH1 0x0 PUSH2 0x1A0 DUP4 DUP3 DUP2 MSTORE PUSH1 0x60 PUSH1 0x20 DUP3 ADD MSTORE PUSH1 0x60 PUSH1 0x40 DUP3 ADD MSTORE PUSH1 0x60 DUP1 DUP3 ADD MSTORE DUP3 PUSH1 0x80 DUP3 ADD MSTORE DUP3 PUSH1 0xA0 DUP3 ADD MSTORE DUP3 PUSH1 0xC0 DUP3 ADD MSTORE PUSH1 0x60 PUSH1 0xE0 DUP3 ADD MSTORE DUP3 PUSH2 0x100 DUP3 ADD MSTORE DUP3 PUSH2 0x120 DUP3 ADD MSTORE DUP3 PUSH2 0x140 DUP3 ADD MSTORE DUP3 PUSH2 0x160 DUP3 ADD MSTORE DUP3 PUSH2 0x180 DUP3 ADD MSTORE ADD MSTORE JUMP JUMPDEST SWAP1 PUSH1 0x40 MLOAD SWAP2 DUP3 DUP2 SLOAD SWAP2 DUP3 DUP3 MSTORE PUSH1 0x20 DUP3 ADD SWAP1 PUSH1 0x0 MSTORE PUSH1 0x20 PUSH1 0x0 KECCAK256 SWAP3 PUSH1 0x0 JUMPDEST DUP2 DUP2 LT PUSH2 0x2496 JUMPI POP POP PUSH2 0x1EFF SWAP3 POP SUB DUP4 PUSH2 0x1EA5 JUMP JUMPDEST DUP5 SLOAD PUSH1 0x1 PUSH1 0x1 PUSH1 0xA0 SHL SUB AND DUP4 MSTORE PUSH1 0x1 SWAP5 DUP6 ADD SWAP5 DUP8 SWAP5 POP PUSH1 0x20 SWAP1 SWAP4 ADD SWAP3 ADD PUSH2 0x2481 JUMP JUMPDEST PUSH1 0x0 NOT DUP2 EQ PUSH2 0x676 JUMPI PUSH1 0x1 ADD SWAP1 JUMP JUMPDEST SWAP1 PUSH2 0x24D1 DUP3 PUSH2 0x21F8 JUMP JUMPDEST PUSH2 0x24DE PUSH1 0x40 MLOAD SWAP2 DUP3 PUSH2 0x1EA5 JUMP JUMPDEST DUP3 DUP2 MSTORE DUP1 SWAP3 PUSH2 0x24EF PUSH1 0x1F NOT SWAP2 PUSH2 0x21F8 JUMP JUMPDEST ADD SWAP1 PUSH1 0x20 CALLDATASIZE SWAP2 ADD CALLDATACOPY JUMP JUMPDEST SWAP1 PUSH2 0x2503 DUP3 PUSH2 0x21F8 JUMP JUMPDEST PUSH2 0x2510 PUSH1 0x40 MLOAD SWAP2 DUP3 PUSH2 0x1EA5 JUMP JUMPDEST DUP3 DUP2 MSTORE DUP1 SWAP3 PUSH2 0x2521 PUSH1 0x1F NOT SWAP2 PUSH2 0x21F8 JUMP JUMPDEST ADD SWAP1 PUSH1 0x0 JUMPDEST DUP3 DUP2 LT PUSH2 0x2532 JUMPI POP POP POP JUMP JUMPDEST PUSH1 0x20 SWAP1 PUSH2 0x253D PUSH2 0x23FA JUMP JUMPDEST DUP3 DUP3 DUP6 ADD ADD MSTORE ADD PUSH2 0x2526 JUMP JUMPDEST DUP1 MLOAD DUP3 LT ISZERO PUSH2 0x1E1D JUMPI PUSH1 0x20 SWAP2 PUSH1 0x5 SHL ADD ADD SWAP1 JUMP INVALID LOG2 PUSH5 0x6970667358 0x22 SLT KECCAK256 0xC3 0xD5 PUSH14 0x4387566B2E703BD67DB617C9EC52 PUSH21 0xF79AB284B4627AF2977A23D99FF064736F6C634300 ADDMOD SHR STOP CALLER "
        },
        "methodIdentifiers": {
          "buyTicket(uint256)": "67dd74ca",
          "cancelEvent(uint256)": "3f69babd",
          "createEvent(string,string,string,uint64,uint64,uint64,string,uint256,address)": "1ad52135",
          "events(uint256)": "0b791430",
          "getActiveEventsByCreator()": "ccfd6d3c",
          "getAllEvents()": "c27a500d",
          "getAttendees(uint256)": "e0c14377",
          "getEventById(uint256)": "b98079bc",
          "getEventLength()": "5c98dfa1",
          "getEventsByCreator(address)": "20020581",
          "hasPurchasedTicket(uint256,address)": "439fd35f",
          "releaseFunds(uint256)": "4d68282f",
          "requestRefund(uint256)": "a4b2409e",
          "supportedTokens(address)": "68c4ac26"
        }
      }
    }
  }
}