{
  "_format": "hh-sol-artifact-1",
  "contractName": "DisasterManagement",
  "sourceName": "contracts/DisasterManagement.sol",
  "abi": [
    {
      "inputs": [
        {
          "internalType": "uint256",
          "name": "id",
          "type": "uint256"
        },
        {
          "internalType": "string",
          "name": "_imageUrl",
          "type": "string"
        },
        {
          "internalType": "string",
          "name": "_timestamp",
          "type": "string"
        }
      ],
      "name": "addDisasterImage",
      "outputs": [],
      "stateMutability": "nonpayable",
      "type": "function"
    },
    {
      "inputs": [
        {
          "internalType": "string",
          "name": "_reporterName",
          "type": "string"
        },
        {
          "internalType": "string",
          "name": "_email",
          "type": "string"
        },
        {
          "internalType": "string",
          "name": "_disasterType",
          "type": "string"
        },
        {
          "internalType": "string",
          "name": "_imgUrl",
          "type": "string"
        },
        {
          "internalType": "string",
          "name": "_latitude",
          "type": "string"
        },
        {
          "internalType": "string",
          "name": "_longitude",
          "type": "string"
        },
        {
          "internalType": "string",
          "name": "_city",
          "type": "string"
        },
        {
          "internalType": "string",
          "name": "_state",
          "type": "string"
        },
        {
          "internalType": "string",
          "name": "_date",
          "type": "string"
        },
        {
          "internalType": "string",
          "name": "_severity",
          "type": "string"
        },
        {
          "internalType": "string",
          "name": "_impact",
          "type": "string"
        }
      ],
      "name": "createDisasterReport",
      "outputs": [],
      "stateMutability": "nonpayable",
      "type": "function"
    },
    {
      "inputs": [
        {
          "internalType": "uint256",
          "name": "id",
          "type": "uint256"
        },
        {
          "internalType": "uint256",
          "name": "imageIndex",
          "type": "uint256"
        }
      ],
      "name": "deleteDisasterImage",
      "outputs": [],
      "stateMutability": "nonpayable",
      "type": "function"
    },
    {
      "inputs": [
        {
          "internalType": "uint256",
          "name": "id",
          "type": "uint256"
        }
      ],
      "name": "deleteDisasterReport",
      "outputs": [],
      "stateMutability": "nonpayable",
      "type": "function"
    },
    {
      "inputs": [
        {
          "internalType": "uint256",
          "name": "id",
          "type": "uint256"
        }
      ],
      "name": "getDisasterImages",
      "outputs": [
        {
          "components": [
            {
              "internalType": "address",
              "name": "reporterId",
              "type": "address"
            },
            {
              "internalType": "string",
              "name": "timestamp",
              "type": "string"
            },
            {
              "internalType": "string",
              "name": "disasterImageUrl",
              "type": "string"
            }
          ],
          "internalType": "struct DisasterManagement.DisasterImage[]",
          "name": "",
          "type": "tuple[]"
        }
      ],
      "stateMutability": "view",
      "type": "function"
    },
    {
      "inputs": [
        {
          "internalType": "uint256",
          "name": "_index",
          "type": "uint256"
        }
      ],
      "name": "getDisasterReport",
      "outputs": [
        {
          "internalType": "address",
          "name": "",
          "type": "address"
        },
        {
          "internalType": "string",
          "name": "",
          "type": "string"
        },
        {
          "internalType": "string",
          "name": "",
          "type": "string"
        },
        {
          "internalType": "string",
          "name": "",
          "type": "string"
        },
        {
          "internalType": "string",
          "name": "",
          "type": "string"
        },
        {
          "internalType": "string",
          "name": "",
          "type": "string"
        },
        {
          "internalType": "string",
          "name": "",
          "type": "string"
        },
        {
          "internalType": "string",
          "name": "",
          "type": "string"
        },
        {
          "internalType": "string",
          "name": "",
          "type": "string"
        },
        {
          "internalType": "string",
          "name": "",
          "type": "string"
        },
        {
          "internalType": "string",
          "name": "",
          "type": "string"
        },
        {
          "internalType": "string",
          "name": "",
          "type": "string"
        }
      ],
      "stateMutability": "view",
      "type": "function"
    },
    {
      "inputs": [],
      "name": "getDisasterReportLength",
      "outputs": [
        {
          "internalType": "uint256",
          "name": "",
          "type": "uint256"
        }
      ],
      "stateMutability": "view",
      "type": "function"
    }
  ],
  "bytecode": "0x6080806040523460195760008055611b64908161001f8239f35b600080fdfe608080604052600436101561001357600080fd5b60003560e01c908163098da0b214611593575080636a9c4fb014610ae25780639e35b5ae1461098f578063c03d9f81146106bd578063db5b714f1461052f578063dd1c4fab146103195763e975cb081461006c57600080fd5b34610314576060366003190112610314576004356024356001600160401b0381116103145761009f903690600401611606565b6044356001600160401b038111610314576100be903690600401611606565b916100cc6000548210611735565b8060005260016020526100ed60018060a01b03604060002054163314611aa4565b6000526002602052604060002060405190610107826115ca565b33825260208201938452604082019283528054600160401b81101561027f5761013591600182018155611afc565b9190916102fe575181546001600160a01b0319166001600160a01b03919091161781559151805190929060018201906001600160401b03811161027f5761018681610180845461169d565b846116ee565b6020601f82116001146102955790806101ba9260029697600092610214575b50508160011b916000199060031b1c19161790565b90555b0190519081516001600160401b03811161027f576101df81610180845461169d565b602092601f821160011461021f57610210929382916000926102145750508160011b916000199060031b1c19161790565b9055005b0151905038806101a5565b601f1982169383600052806000209160005b868110610267575083600195961061024e575b505050811b019055005b015160001960f88460031b161c19169055388080610244565b91926020600181928685015181550194019201610231565b634e487b7160e01b600052604160045260246000fd5b601f1982169583600052816000209660005b8181106102e657509160029697918460019594106102cd575b505050811b0190556101bd565b015160001960f88460031b161c191690553880806102c0565b838301518955600190980197602093840193016102a7565b634e487b7160e01b600052600060045260246000fd5b600080fd5b3461031457602036600319011261031457600435600054811061033b90611735565b60005260016020526040600020604051610354816115ae565b81546001600160a01b0316815261036d60018301611778565b602082019081529061038160028401611778565b604082019081529261039560038201611778565b60608301908152906103a960048201611778565b608084019081526103bc60058301611778565b60a085019081526103cf60068401611778565b60c086019081526103e260078501611778565b60e08701908152906103f660088601611778565b61010088019081529261040b60098701611778565b610120890190815294610420600a8801611778565b966101408a01978852600b0161043590611778565b9889610160820152600160a01b6001900390511699519a5197519051915192519351945195519651976040519b8c9b8c5260208c0161018090526101808c0161047d9161165c565b8b810360408d015261048e9161165c565b8a810360608c015261049f9161165c565b89810360808b01526104b09161165c565b88810360a08a01526104c19161165c565b87810360c08901526104d29161165c565b86810360e08801526104e39161165c565b8581036101008701526104f59161165c565b8481036101208601526105079161165c565b8381036101408501526105199161165c565b82810361016084015261052b9161165c565b0390f35b34610314576040366003190112610314576004356024356000548210156106845781600052600160205261057160018060a01b03604060002054163314611aa4565b8160005260026020526040600020548110156106495760008281526002602052604090208054600019810191908211610633576105c6916105b191611afc565b50918360005260026020526040600020611afc565b9190916102fe576105d6916119a1565b600052600260205260406000208054801561061d5760001901906105fa8282611afc565b6102fe57600281600061061a93556106146001820161181a565b0161181a565b55005b634e487b7160e01b600052603160045260246000fd5b634e487b7160e01b600052601160045260246000fd5b60405162461bcd60e51b8152602060048201526013602482015272092dcecc2d8d2c840d2dac2ceca40d2dcc8caf606b1b6044820152606490fd5b60405162461bcd60e51b8152602060048201526011602482015270125b9d985b1a59081c995c1bdc9d081251607a1b6044820152606490fd5b34610314576020366003190112610314576004356106de6000548210611735565b6000818152600160205260409020546001600160a01b03163303610932578060005260026020526107126040600020611869565b60005460001981019081116106335781101561092057600181019081811161063357600082815260016020526040808220838352912081810361084b575b505060009182526002602052610774604083208284526002602052604084206119e2565b81546000198101908111610837578252600160205261080d600b604084208481556107a16001820161181a565b6107ad6002820161181a565b6107b96003820161181a565b6107c56004820161181a565b6107d16005820161181a565b6107dd6006820161181a565b6107e96007820161181a565b6107f56008820161181a565b6108016009820161181a565b610614600a820161181a565b81546000198101908111610837576040836108319260019552600260205220611869565b01610712565b634e487b7160e01b83526011600452602483fd5b815481546001600160a01b0319166001600160a01b039190911617815561091991600b90819061088160018083019086016118c5565b61089160028201600286016118c5565b6108a160038201600386016118c5565b6108b160048201600486016118c5565b6108c160058201600586016118c5565b6108d160068201600686016118c5565b6108e160078201600786016118c5565b6108f160088201600886016118c5565b61090160098201600986016118c5565b610911600a8201600a86016118c5565b0191016118c5565b8280610750565b60005480156106335760001901600055005b60405162461bcd60e51b815260206004820152602f60248201527f506c6561736520656e7375726520796f752061726520746865206f776e65722060448201526e1bd9881d1a1a5cc81c995c5d595cdd608a1b6064820152608490fd5b34610314576020366003190112610314576004356109b06000548210611735565b600052600260205260406000208054906001600160401b03821161027f57604051916109e260208260051b01846115e5565b80835260208301809260005260206000206000915b838310610a9657848660405191829160208301906020845251809152604083019060408160051b85010192916000905b828210610a3657505050500390f35b91936001919395506020610a868192603f198a8203018652885190858060a01b0382511681526040610a7585840151606087850152606084019061165c565b92015190604081840391015261165c565b9601920192018594939192610a27565b60036020600192604051610aa9816115ca565b848060a01b038654168152610abf858701611778565b83820152610acf60028701611778565b60408201528152019201920191906109f7565b3461031457610160366003190112610314576004356001600160401b03811161031457610b13903690600401611606565b6024356001600160401b03811161031457610b32903690600401611606565b6044356001600160401b03811161031457610b51903690600401611606565b916064356001600160401b03811161031457610b71903690600401611606565b6084356001600160401b03811161031457610b90903690600401611606565b60a4356001600160401b03811161031457610baf903690600401611606565b60c4356001600160401b03811161031457610bce903690600401611606565b9060e4356001600160401b03811161031457610bee903690600401611606565b92610104356001600160401b03811161031457610c0f903690600401611606565b94610124356001600160401b03811161031457610c30903690600401611606565b98610144356001600160401b03811161031457610c51903690600401611606565b9860405198610c5f8a6115ae565b338a526020808b019182526040808c0193845260608c0194855260808c0195865260a08c0196875260c08c0197885260e08c019889526101008c01998a526101208c019a8b526101408c019d8e526101608c019c8d52600080548152600192839052209a518b546001600160a01b0319166001600160a01b0391909116178b5590518051918b0191906001600160401b03821161027f57610d0a82610d04855461169d565b856116ee565b602090601f831160011461152c57610d3a9291600091836115215750508160011b916000199060031b1c19161790565b90555b51805160028a01916001600160401b03821161027f57610d6182610d04855461169d565b602090601f83116001146114ba57610d919291600091836114af5750508160011b916000199060031b1c19161790565b90555b51805160038901916001600160401b03821161027f57610db882610d04855461169d565b602090601f831160011461144857610de892916000918361143d5750508160011b916000199060031b1c19161790565b90555b51805160048801916001600160401b03821161027f57610e0f82610d04855461169d565b602090601f83116001146113d657610e3f9291600091836113cb5750508160011b916000199060031b1c19161790565b90555b51805160058701916001600160401b03821161027f57610e6682610d04855461169d565b602090601f831160011461136457610e969291600091836113595750508160011b916000199060031b1c19161790565b90555b51805160068601916001600160401b03821161027f57610ebd82610d04855461169d565b602090601f83116001146112f257610eed9291600091836112e75750508160011b916000199060031b1c19161790565b90555b51805160078501916001600160401b03821161027f57610f1482610d04855461169d565b602090601f831160011461128057610f449291600091836112755750508160011b916000199060031b1c19161790565b90555b51805160088401916001600160401b03821161027f57610f6b82610d04855461169d565b602090601f831160011461120e57610f9b9291600091836112035750508160011b916000199060031b1c19161790565b90555b51805160098301916001600160401b03821161027f57610fc282610d04855461169d565b602090601f831160011461119c57610ff29291600091836111285750508160011b916000199060031b1c19161790565b90555b600a810192519283516001600160401b03811161027f5761101a81610180845461169d565b6020601f821160011461113357908061104d92600b96976000926111285750508160011b916000199060031b1c19161790565b90555b0190519081516001600160401b03811161027f5761107281610180845461169d565b602092601f82116001146110c5576110a3929382916000926110ba5750508160011b916000199060031b1c19161790565b90555b600054600019811461063357600101600055005b0151905084806101a5565b601f1982169383600052806000209160005b86811061111057508360019596106110f7575b505050811b0190556110a6565b015160001960f88460031b161c191690558380806110ea565b919260206001819286850151815501940192016110d7565b0151905087806101a5565b601f1982169583600052816000209660005b818110611184575091600b96979184600195941061116b575b505050811b019055611050565b015160001960f88460031b161c1916905586808061115e565b83830151895560019098019760209384019301611145565b90601f1983169184600052816000209260005b8181106111eb57509084600195949392106111d2575b505050811b019055610ff5565b015160001960f88460031b161c191690558680806111c5565b929360206001819287860151815501950193016111af565b0151905088806101a5565b90601f1983169184600052816000209260005b81811061125d5750908460019594939210611244575b505050811b019055610f9e565b015160001960f88460031b161c19169055878080611237565b92936020600181928786015181550195019301611221565b0151905089806101a5565b90601f1983169184600052816000209260005b8181106112cf57509084600195949392106112b6575b505050811b019055610f47565b015160001960f88460031b161c191690558880806112a9565b92936020600181928786015181550195019301611293565b015190508a806101a5565b90601f1983169184600052816000209260005b8181106113415750908460019594939210611328575b505050811b019055610ef0565b015160001960f88460031b161c1916905589808061131b565b92936020600181928786015181550195019301611305565b015190508b806101a5565b90601f1983169184600052816000209260005b8181106113b3575090846001959493921061139a575b505050811b019055610e99565b015160001960f88460031b161c191690558a808061138d565b92936020600181928786015181550195019301611377565b015190508c806101a5565b90601f1983169184600052816000209260005b818110611425575090846001959493921061140c575b505050811b019055610e42565b015160001960f88460031b161c191690558b80806113ff565b929360206001819287860151815501950193016113e9565b015190508d806101a5565b90601f1983169184600052816000209260005b818110611497575090846001959493921061147e575b505050811b019055610deb565b015160001960f88460031b161c191690558c8080611471565b9293602060018192878601518155019501930161145b565b015190508e806101a5565b90601f1983169184600052816000209260005b81811061150957509084600195949392106114f0575b505050811b019055610d94565b015160001960f88460031b161c191690558d80806114e3565b929360206001819287860151815501950193016114cd565b015190508f806101a5565b90601f1983169184600052816000209260005b81811061157b5750908460019594939210611562575b505050811b019055610d3d565b015160001960f88460031b161c191690558e8080611555565b9293602060018192878601518155019501930161153f565b34610314576000366003190112610314576020906000548152f35b61018081019081106001600160401b0382111761027f57604052565b606081019081106001600160401b0382111761027f57604052565b90601f801991011681019081106001600160401b0382111761027f57604052565b81601f82011215610314578035906001600160401b03821161027f576040519261163a601f8401601f1916602001856115e5565b8284526020838301011161031457816000926020809301838601378301015290565b919082519283825260005b848110611688575050826000602080949584010152601f8019910116010190565b80602080928401015182828601015201611667565b90600182811c921680156116cd575b60208310146116b757565b634e487b7160e01b600052602260045260246000fd5b91607f16916116ac565b8181106116e2575050565b600081556001016116d7565b9190601f81116116fd57505050565b611729926000526020600020906020601f840160051c8301931061172b575b601f0160051c01906116d7565b565b909150819061171c565b1561173c57565b60405162461bcd60e51b8152602060048201526014602482015273092dcecc2d8d2c840e4cae0dee4e840d2dcc8caf60631b6044820152606490fd5b906040519182600082549261178c8461169d565b80845293600181169081156117f857506001146117b1575b50611729925003836115e5565b90506000929192526020600020906000915b8183106117dc57505090602061172992820101386117a4565b60209193508060019154838589010152019101909184926117c3565b90506020925061172994915060ff191682840152151560051b820101386117a4565b611824815461169d565b908161182e575050565b81601f60009311600114611840575055565b8183526020832061185c91601f0160051c8101906001016116d7565b8082528160208120915555565b8054906000815581611879575050565b8160030291600383040361063357600090815260208120918201915b8281106118a157505050565b6003908281556118b36001820161181a565b6118bf6002820161181a565b01611895565b91909182811461199c576118d9835461169d565b6001600160401b03811161027f576118f581610180845461169d565b600093601f821160011461193657611927929394829160009261192b5750508160011b916000199060031b1c19161790565b9055565b0154905038806101a5565b845260208085208386529085209094601f198316815b8181106119845750958360019596971061196b575b505050811b019055565b015460001960f88460031b161c19169055388080611961565b9192600180602092868b01548155019401920161194c565b509050565b8181036119ac575050565b815481546001600160a01b0319166001600160a01b039190911617815561172991600290819061091160018083019086016118c5565b818114611aa057815491600160401b831161027f578154838355808410611a43575b5060005260206000209060005260206000206000915b838310611a275750505050565b60038082611a37600194866119a1565b01920192019190611a1a565b8060030290600382040361063357836003026003810485036106335783600052602060002091820191015b818110611a7b5750611a04565b60039060008155611a8e6001820161181a565b611a9a6002820161181a565b01611a6e565b5050565b15611aab57565b60405162461bcd60e51b8152602060048201526024808201527f596f7520617265206e6f7420746865206f776e6572206f6620746869732072656044820152631c1bdc9d60e21b6064820152608490fd5b8054821015611b18576000526003602060002091020190600090565b634e487b7160e01b600052603260045260246000fdfea26469706673582212208239632c20fcf243078a3d010679a7fbee733652c0217a5ac981e9d3a8d84ebb64736f6c634300081c0033",
  "linkReferences": {},
  "deployedLinkReferences": {}
}