{
  "_format": "hh-sol-artifact-1",
  "contractName": "EventChain",
  "sourceName": "contracts/EventChain.sol",
  "abi": [
    {
      "inputs": [
        {
          "internalType": "address[]",
          "name": "_supportedTokens",
          "type": "address[]"
        }
      ],
      "stateMutability": "nonpayable",
      "type": "constructor"
    },
    {
      "inputs": [],
      "name": "ReentrancyGuardReentrantCall",
      "type": "error"
    },
    {
      "inputs": [
        {
          "internalType": "address",
          "name": "token",
          "type": "address"
        }
      ],
      "name": "SafeERC20FailedOperation",
      "type": "error"
    },
    {
      "anonymous": false,
      "inputs": [
        {
          "indexed": true,
          "internalType": "uint256",
          "name": "eventId",
          "type": "uint256"
        }
      ],
      "name": "EventCanceled",
      "type": "event"
    },
    {
      "anonymous": false,
      "inputs": [
        {
          "indexed": true,
          "internalType": "uint256",
          "name": "eventId",
          "type": "uint256"
        },
        {
          "indexed": true,
          "internalType": "address",
          "name": "owner",
          "type": "address"
        },
        {
          "indexed": false,
          "internalType": "string",
          "name": "eventName",
          "type": "string"
        }
      ],
      "name": "EventCreated",
      "type": "event"
    },
    {
      "anonymous": false,
      "inputs": [
        {
          "indexed": true,
          "internalType": "uint256",
          "name": "eventId",
          "type": "uint256"
        },
        {
          "indexed": true,
          "internalType": "address",
          "name": "owner",
          "type": "address"
        },
        {
          "indexed": false,
          "internalType": "string",
          "name": "eventName",
          "type": "string"
        }
      ],
      "name": "EventUpdated",
      "type": "event"
    },
    {
      "anonymous": false,
      "inputs": [
        {
          "indexed": true,
          "internalType": "uint256",
          "name": "eventId",
          "type": "uint256"
        },
        {
          "indexed": false,
          "internalType": "uint256",
          "name": "amount",
          "type": "uint256"
        }
      ],
      "name": "FundsReleased",
      "type": "event"
    },
    {
      "anonymous": false,
      "inputs": [
        {
          "indexed": true,
          "internalType": "uint256",
          "name": "eventId",
          "type": "uint256"
        },
        {
          "indexed": true,
          "internalType": "address",
          "name": "user",
          "type": "address"
        },
        {
          "indexed": false,
          "internalType": "uint256",
          "name": "amount",
          "type": "uint256"
        }
      ],
      "name": "RefundIssued",
      "type": "event"
    },
    {
      "anonymous": false,
      "inputs": [
        {
          "indexed": true,
          "internalType": "address",
          "name": "user",
          "type": "address"
        },
        {
          "indexed": false,
          "internalType": "uint256",
          "name": "amount",
          "type": "uint256"
        }
      ],
      "name": "Refunded",
      "type": "event"
    },
    {
      "anonymous": false,
      "inputs": [
        {
          "indexed": true,
          "internalType": "uint256",
          "name": "eventId",
          "type": "uint256"
        },
        {
          "indexed": true,
          "internalType": "address",
          "name": "buyer",
          "type": "address"
        },
        {
          "indexed": false,
          "internalType": "uint256",
          "name": "amount",
          "type": "uint256"
        },
        {
          "indexed": false,
          "internalType": "address",
          "name": "paymentToken",
          "type": "address"
        }
      ],
      "name": "TicketPurchased",
      "type": "event"
    },
    {
      "anonymous": false,
      "inputs": [
        {
          "indexed": true,
          "internalType": "address",
          "name": "buyer",
          "type": "address"
        },
        {
          "indexed": false,
          "internalType": "uint256",
          "name": "count",
          "type": "uint256"
        },
        {
          "indexed": false,
          "internalType": "uint256",
          "name": "totalAmount",
          "type": "uint256"
        }
      ],
      "name": "TicketPurchased",
      "type": "event"
    },
    {
      "inputs": [],
      "name": "CELO",
      "outputs": [
        {
          "internalType": "address",
          "name": "",
          "type": "address"
        }
      ],
      "stateMutability": "view",
      "type": "function"
    },
    {
      "inputs": [],
      "name": "MAX_ATTENDEES",
      "outputs": [
        {
          "internalType": "uint256",
          "name": "",
          "type": "uint256"
        }
      ],
      "stateMutability": "view",
      "type": "function"
    },
    {
      "inputs": [],
      "name": "MAX_DETAILS_LENGTH",
      "outputs": [
        {
          "internalType": "uint256",
          "name": "",
          "type": "uint256"
        }
      ],
      "stateMutability": "view",
      "type": "function"
    },
    {
      "inputs": [],
      "name": "MAX_LOCATION_LENGTH",
      "outputs": [
        {
          "internalType": "uint256",
          "name": "",
          "type": "uint256"
        }
      ],
      "stateMutability": "view",
      "type": "function"
    },
    {
      "inputs": [],
      "name": "MAX_NAME_LENGTH",
      "outputs": [
        {
          "internalType": "uint256",
          "name": "",
          "type": "uint256"
        }
      ],
      "stateMutability": "view",
      "type": "function"
    },
    {
      "inputs": [],
      "name": "MAX_TICKET_PRICE",
      "outputs": [
        {
          "internalType": "uint256",
          "name": "",
          "type": "uint256"
        }
      ],
      "stateMutability": "view",
      "type": "function"
    },
    {
      "inputs": [],
      "name": "MAX_URL_LENGTH",
      "outputs": [
        {
          "internalType": "uint256",
          "name": "",
          "type": "uint256"
        }
      ],
      "stateMutability": "view",
      "type": "function"
    },
    {
      "inputs": [],
      "name": "MIN_EVENT_DURATION",
      "outputs": [
        {
          "internalType": "uint256",
          "name": "",
          "type": "uint256"
        }
      ],
      "stateMutability": "view",
      "type": "function"
    },
    {
      "inputs": [],
      "name": "REFUND_BUFFER",
      "outputs": [
        {
          "internalType": "uint256",
          "name": "",
          "type": "uint256"
        }
      ],
      "stateMutability": "view",
      "type": "function"
    },
    {
      "inputs": [],
      "name": "USDT",
      "outputs": [
        {
          "internalType": "address",
          "name": "",
          "type": "address"
        }
      ],
      "stateMutability": "view",
      "type": "function"
    },
    {
      "inputs": [
        {
          "internalType": "uint256",
          "name": "_index",
          "type": "uint256"
        }
      ],
      "name": "buyTicket",
      "outputs": [],
      "stateMutability": "payable",
      "type": "function"
    },
    {
      "inputs": [
        {
          "internalType": "uint256",
          "name": "count",
          "type": "uint256"
        }
      ],
      "name": "buyTicketx",
      "outputs": [],
      "stateMutability": "nonpayable",
      "type": "function"
    },
    {
      "inputs": [
        {
          "internalType": "uint256",
          "name": "_index",
          "type": "uint256"
        }
      ],
      "name": "cancelEvent",
      "outputs": [],
      "stateMutability": "nonpayable",
      "type": "function"
    },
    {
      "inputs": [
        {
          "internalType": "uint256",
          "name": "",
          "type": "uint256"
        }
      ],
      "name": "celoFundsHeld",
      "outputs": [
        {
          "internalType": "uint256",
          "name": "",
          "type": "uint256"
        }
      ],
      "stateMutability": "view",
      "type": "function"
    },
    {
      "inputs": [
        {
          "internalType": "string",
          "name": "_eventName",
          "type": "string"
        },
        {
          "internalType": "string",
          "name": "_eventCardImgUrl",
          "type": "string"
        },
        {
          "internalType": "string",
          "name": "_eventDetails",
          "type": "string"
        },
        {
          "internalType": "uint64",
          "name": "_startDate",
          "type": "uint64"
        },
        {
          "internalType": "uint64",
          "name": "_endDate",
          "type": "uint64"
        },
        {
          "internalType": "uint64",
          "name": "_startTime",
          "type": "uint64"
        },
        {
          "internalType": "uint64",
          "name": "_endTime",
          "type": "uint64"
        },
        {
          "internalType": "string",
          "name": "_eventLocation",
          "type": "string"
        },
        {
          "internalType": "uint256",
          "name": "_ticketPrice",
          "type": "uint256"
        },
        {
          "internalType": "uint256",
          "name": "_minimumAge",
          "type": "uint256"
        },
        {
          "internalType": "address",
          "name": "_paymentToken",
          "type": "address"
        }
      ],
      "name": "createEvent",
      "outputs": [],
      "stateMutability": "nonpayable",
      "type": "function"
    },
    {
      "inputs": [
        {
          "internalType": "uint256",
          "name": "",
          "type": "uint256"
        }
      ],
      "name": "events",
      "outputs": [
        {
          "internalType": "address",
          "name": "owner",
          "type": "address"
        },
        {
          "internalType": "string",
          "name": "eventName",
          "type": "string"
        },
        {
          "internalType": "string",
          "name": "eventCardImgUrl",
          "type": "string"
        },
        {
          "internalType": "string",
          "name": "eventDetails",
          "type": "string"
        },
        {
          "internalType": "uint64",
          "name": "startDate",
          "type": "uint64"
        },
        {
          "internalType": "uint64",
          "name": "endDate",
          "type": "uint64"
        },
        {
          "internalType": "uint64",
          "name": "startTime",
          "type": "uint64"
        },
        {
          "internalType": "uint64",
          "name": "endTime",
          "type": "uint64"
        },
        {
          "internalType": "string",
          "name": "eventLocation",
          "type": "string"
        },
        {
          "internalType": "bool",
          "name": "isActive",
          "type": "bool"
        },
        {
          "internalType": "uint256",
          "name": "ticketPrice",
          "type": "uint256"
        },
        {
          "internalType": "uint256",
          "name": "fundsHeld",
          "type": "uint256"
        },
        {
          "internalType": "uint256",
          "name": "minimumAge",
          "type": "uint256"
        },
        {
          "internalType": "bool",
          "name": "isCanceled",
          "type": "bool"
        },
        {
          "internalType": "bool",
          "name": "fundsReleased",
          "type": "bool"
        },
        {
          "internalType": "address",
          "name": "paymentToken",
          "type": "address"
        }
      ],
      "stateMutability": "view",
      "type": "function"
    },
    {
      "inputs": [],
      "name": "getActiveEventsByCreator",
      "outputs": [
        {
          "internalType": "uint256[]",
          "name": "",
          "type": "uint256[]"
        },
        {
          "components": [
            {
              "internalType": "address",
              "name": "owner",
              "type": "address"
            },
            {
              "internalType": "string",
              "name": "eventName",
              "type": "string"
            },
            {
              "internalType": "string",
              "name": "eventCardImgUrl",
              "type": "string"
            },
            {
              "internalType": "string",
              "name": "eventDetails",
              "type": "string"
            },
            {
              "internalType": "uint64",
              "name": "startDate",
              "type": "uint64"
            },
            {
              "internalType": "uint64",
              "name": "endDate",
              "type": "uint64"
            },
            {
              "internalType": "uint64",
              "name": "startTime",
              "type": "uint64"
            },
            {
              "internalType": "uint64",
              "name": "endTime",
              "type": "uint64"
            },
            {
              "internalType": "string",
              "name": "eventLocation",
              "type": "string"
            },
            {
              "internalType": "bool",
              "name": "isActive",
              "type": "bool"
            },
            {
              "internalType": "uint256",
              "name": "ticketPrice",
              "type": "uint256"
            },
            {
              "internalType": "uint256",
              "name": "fundsHeld",
              "type": "uint256"
            },
            {
              "internalType": "uint256",
              "name": "minimumAge",
              "type": "uint256"
            },
            {
              "internalType": "bool",
              "name": "isCanceled",
              "type": "bool"
            },
            {
              "internalType": "bool",
              "name": "fundsReleased",
              "type": "bool"
            },
            {
              "internalType": "address",
              "name": "paymentToken",
              "type": "address"
            }
          ],
          "internalType": "struct EventChain.Event[]",
          "name": "",
          "type": "tuple[]"
        }
      ],
      "stateMutability": "view",
      "type": "function"
    },
    {
      "inputs": [],
      "name": "getAllEvents",
      "outputs": [
        {
          "internalType": "uint256[]",
          "name": "",
          "type": "uint256[]"
        },
        {
          "components": [
            {
              "internalType": "address",
              "name": "owner",
              "type": "address"
            },
            {
              "internalType": "string",
              "name": "eventName",
              "type": "string"
            },
            {
              "internalType": "string",
              "name": "eventCardImgUrl",
              "type": "string"
            },
            {
              "internalType": "string",
              "name": "eventDetails",
              "type": "string"
            },
            {
              "internalType": "uint64",
              "name": "startDate",
              "type": "uint64"
            },
            {
              "internalType": "uint64",
              "name": "endDate",
              "type": "uint64"
            },
            {
              "internalType": "uint64",
              "name": "startTime",
              "type": "uint64"
            },
            {
              "internalType": "uint64",
              "name": "endTime",
              "type": "uint64"
            },
            {
              "internalType": "string",
              "name": "eventLocation",
              "type": "string"
            },
            {
              "internalType": "bool",
              "name": "isActive",
              "type": "bool"
            },
            {
              "internalType": "uint256",
              "name": "ticketPrice",
              "type": "uint256"
            },
            {
              "internalType": "uint256",
              "name": "fundsHeld",
              "type": "uint256"
            },
            {
              "internalType": "uint256",
              "name": "minimumAge",
              "type": "uint256"
            },
            {
              "internalType": "bool",
              "name": "isCanceled",
              "type": "bool"
            },
            {
              "internalType": "bool",
              "name": "fundsReleased",
              "type": "bool"
            },
            {
              "internalType": "address",
              "name": "paymentToken",
              "type": "address"
            }
          ],
          "internalType": "struct EventChain.Event[]",
          "name": "",
          "type": "tuple[]"
        }
      ],
      "stateMutability": "view",
      "type": "function"
    },
    {
      "inputs": [
        {
          "internalType": "uint256",
          "name": "_index",
          "type": "uint256"
        }
      ],
      "name": "getAttendees",
      "outputs": [
        {
          "internalType": "address[]",
          "name": "",
          "type": "address[]"
        }
      ],
      "stateMutability": "view",
      "type": "function"
    },
    {
      "inputs": [
        {
          "internalType": "uint256",
          "name": "_index",
          "type": "uint256"
        }
      ],
      "name": "getEventById",
      "outputs": [
        {
          "components": [
            {
              "internalType": "address",
              "name": "owner",
              "type": "address"
            },
            {
              "internalType": "string",
              "name": "eventName",
              "type": "string"
            },
            {
              "internalType": "string",
              "name": "eventCardImgUrl",
              "type": "string"
            },
            {
              "internalType": "string",
              "name": "eventDetails",
              "type": "string"
            },
            {
              "internalType": "uint64",
              "name": "startDate",
              "type": "uint64"
            },
            {
              "internalType": "uint64",
              "name": "endDate",
              "type": "uint64"
            },
            {
              "internalType": "uint64",
              "name": "startTime",
              "type": "uint64"
            },
            {
              "internalType": "uint64",
              "name": "endTime",
              "type": "uint64"
            },
            {
              "internalType": "string",
              "name": "eventLocation",
              "type": "string"
            },
            {
              "internalType": "bool",
              "name": "isActive",
              "type": "bool"
            },
            {
              "internalType": "uint256",
              "name": "ticketPrice",
              "type": "uint256"
            },
            {
              "internalType": "uint256",
              "name": "fundsHeld",
              "type": "uint256"
            },
            {
              "internalType": "uint256",
              "name": "minimumAge",
              "type": "uint256"
            },
            {
              "internalType": "bool",
              "name": "isCanceled",
              "type": "bool"
            },
            {
              "internalType": "bool",
              "name": "fundsReleased",
              "type": "bool"
            },
            {
              "internalType": "address",
              "name": "paymentToken",
              "type": "address"
            }
          ],
          "internalType": "struct EventChain.Event",
          "name": "",
          "type": "tuple"
        },
        {
          "internalType": "address[]",
          "name": "",
          "type": "address[]"
        },
        {
          "components": [
            {
              "internalType": "address",
              "name": "owner",
              "type": "address"
            },
            {
              "internalType": "string",
              "name": "eventName",
              "type": "string"
            },
            {
              "internalType": "string",
              "name": "eventCardImgUrl",
              "type": "string"
            },
            {
              "internalType": "string",
              "name": "eventDetails",
              "type": "string"
            },
            {
              "internalType": "uint64",
              "name": "startDate",
              "type": "uint64"
            },
            {
              "internalType": "uint64",
              "name": "endDate",
              "type": "uint64"
            },
            {
              "internalType": "uint64",
              "name": "startTime",
              "type": "uint64"
            },
            {
              "internalType": "uint64",
              "name": "endTime",
              "type": "uint64"
            },
            {
              "internalType": "string",
              "name": "eventLocation",
              "type": "string"
            },
            {
              "internalType": "bool",
              "name": "isActive",
              "type": "bool"
            },
            {
              "internalType": "uint256",
              "name": "ticketPrice",
              "type": "uint256"
            },
            {
              "internalType": "uint256",
              "name": "fundsHeld",
              "type": "uint256"
            },
            {
              "internalType": "uint256",
              "name": "minimumAge",
              "type": "uint256"
            },
            {
              "internalType": "bool",
              "name": "isCanceled",
              "type": "bool"
            },
            {
              "internalType": "bool",
              "name": "fundsReleased",
              "type": "bool"
            },
            {
              "internalType": "address",
              "name": "paymentToken",
              "type": "address"
            }
          ],
          "internalType": "struct EventChain.Event[]",
          "name": "",
          "type": "tuple[]"
        }
      ],
      "stateMutability": "view",
      "type": "function"
    },
    {
      "inputs": [],
      "name": "getEventLength",
      "outputs": [
        {
          "internalType": "uint256",
          "name": "",
          "type": "uint256"
        }
      ],
      "stateMutability": "view",
      "type": "function"
    },
    {
      "inputs": [
        {
          "internalType": "address",
          "name": "_creator",
          "type": "address"
        }
      ],
      "name": "getEventsByCreator",
      "outputs": [
        {
          "components": [
            {
              "internalType": "address",
              "name": "owner",
              "type": "address"
            },
            {
              "internalType": "string",
              "name": "eventName",
              "type": "string"
            },
            {
              "internalType": "string",
              "name": "eventCardImgUrl",
              "type": "string"
            },
            {
              "internalType": "string",
              "name": "eventDetails",
              "type": "string"
            },
            {
              "internalType": "uint64",
              "name": "startDate",
              "type": "uint64"
            },
            {
              "internalType": "uint64",
              "name": "endDate",
              "type": "uint64"
            },
            {
              "internalType": "uint64",
              "name": "startTime",
              "type": "uint64"
            },
            {
              "internalType": "uint64",
              "name": "endTime",
              "type": "uint64"
            },
            {
              "internalType": "string",
              "name": "eventLocation",
              "type": "string"
            },
            {
              "internalType": "bool",
              "name": "isActive",
              "type": "bool"
            },
            {
              "internalType": "uint256",
              "name": "ticketPrice",
              "type": "uint256"
            },
            {
              "internalType": "uint256",
              "name": "fundsHeld",
              "type": "uint256"
            },
            {
              "internalType": "uint256",
              "name": "minimumAge",
              "type": "uint256"
            },
            {
              "internalType": "bool",
              "name": "isCanceled",
              "type": "bool"
            },
            {
              "internalType": "bool",
              "name": "fundsReleased",
              "type": "bool"
            },
            {
              "internalType": "address",
              "name": "paymentToken",
              "type": "address"
            }
          ],
          "internalType": "struct EventChain.Event[]",
          "name": "",
          "type": "tuple[]"
        }
      ],
      "stateMutability": "view",
      "type": "function"
    },
    {
      "inputs": [],
      "name": "getUserEvents",
      "outputs": [
        {
          "internalType": "uint256[]",
          "name": "",
          "type": "uint256[]"
        },
        {
          "components": [
            {
              "internalType": "address",
              "name": "owner",
              "type": "address"
            },
            {
              "internalType": "string",
              "name": "eventName",
              "type": "string"
            },
            {
              "internalType": "string",
              "name": "eventCardImgUrl",
              "type": "string"
            },
            {
              "internalType": "string",
              "name": "eventDetails",
              "type": "string"
            },
            {
              "internalType": "uint64",
              "name": "startDate",
              "type": "uint64"
            },
            {
              "internalType": "uint64",
              "name": "endDate",
              "type": "uint64"
            },
            {
              "internalType": "uint64",
              "name": "startTime",
              "type": "uint64"
            },
            {
              "internalType": "uint64",
              "name": "endTime",
              "type": "uint64"
            },
            {
              "internalType": "string",
              "name": "eventLocation",
              "type": "string"
            },
            {
              "internalType": "bool",
              "name": "isActive",
              "type": "bool"
            },
            {
              "internalType": "uint256",
              "name": "ticketPrice",
              "type": "uint256"
            },
            {
              "internalType": "uint256",
              "name": "fundsHeld",
              "type": "uint256"
            },
            {
              "internalType": "uint256",
              "name": "minimumAge",
              "type": "uint256"
            },
            {
              "internalType": "bool",
              "name": "isCanceled",
              "type": "bool"
            },
            {
              "internalType": "bool",
              "name": "fundsReleased",
              "type": "bool"
            },
            {
              "internalType": "address",
              "name": "paymentToken",
              "type": "address"
            }
          ],
          "internalType": "struct EventChain.Event[]",
          "name": "",
          "type": "tuple[]"
        }
      ],
      "stateMutability": "view",
      "type": "function"
    },
    {
      "inputs": [
        {
          "internalType": "uint256",
          "name": "",
          "type": "uint256"
        },
        {
          "internalType": "address",
          "name": "",
          "type": "address"
        }
      ],
      "name": "hasPurchasedTicket",
      "outputs": [
        {
          "internalType": "bool",
          "name": "",
          "type": "bool"
        }
      ],
      "stateMutability": "view",
      "type": "function"
    },
    {
      "inputs": [
        {
          "internalType": "address",
          "name": "from",
          "type": "address"
        },
        {
          "internalType": "uint256",
          "name": "value",
          "type": "uint256"
        },
        {
          "internalType": "bytes",
          "name": "data",
          "type": "bytes"
        }
      ],
      "name": "onTokenTransfer",
      "outputs": [
        {
          "internalType": "bool",
          "name": "",
          "type": "bool"
        }
      ],
      "stateMutability": "nonpayable",
      "type": "function"
    },
    {
      "inputs": [],
      "name": "paused",
      "outputs": [
        {
          "internalType": "bool",
          "name": "",
          "type": "bool"
        }
      ],
      "stateMutability": "view",
      "type": "function"
    },
    {
      "inputs": [
        {
          "internalType": "address",
          "name": "user",
          "type": "address"
        }
      ],
      "name": "refund",
      "outputs": [],
      "stateMutability": "nonpayable",
      "type": "function"
    },
    {
      "inputs": [
        {
          "internalType": "uint256",
          "name": "_index",
          "type": "uint256"
        }
      ],
      "name": "releaseFunds",
      "outputs": [],
      "stateMutability": "nonpayable",
      "type": "function"
    },
    {
      "inputs": [
        {
          "internalType": "uint256",
          "name": "_index",
          "type": "uint256"
        }
      ],
      "name": "requestRefund",
      "outputs": [],
      "stateMutability": "nonpayable",
      "type": "function"
    },
    {
      "inputs": [
        {
          "internalType": "address",
          "name": "",
          "type": "address"
        }
      ],
      "name": "supportedTokens",
      "outputs": [
        {
          "internalType": "bool",
          "name": "",
          "type": "bool"
        }
      ],
      "stateMutability": "view",
      "type": "function"
    },
    {
      "inputs": [],
      "name": "ticketPrice",
      "outputs": [
        {
          "internalType": "uint256",
          "name": "",
          "type": "uint256"
        }
      ],
      "stateMutability": "view",
      "type": "function"
    },
    {
      "inputs": [
        {
          "internalType": "address",
          "name": "",
          "type": "address"
        }
      ],
      "name": "ticketsBought",
      "outputs": [
        {
          "internalType": "uint256",
          "name": "",
          "type": "uint256"
        }
      ],
      "stateMutability": "view",
      "type": "function"
    },
    {
      "inputs": [],
      "name": "ubiPool",
      "outputs": [
        {
          "internalType": "address",
          "name": "",
          "type": "address"
        }
      ],
      "stateMutability": "view",
      "type": "function"
    },
    {
      "inputs": [],
      "name": "usdt",
      "outputs": [
        {
          "internalType": "contract IERC20",
          "name": "",
          "type": "address"
        }
      ],
      "stateMutability": "view",
      "type": "function"
    },
    {
      "stateMutability": "payable",
      "type": "receive"
    }
  ],
  "bytecode": "0x60a06040523461017f57613b47803803806100198161019a565b92833981019060208183031261017f578051906001600160401b03821161017f570181601f8201121561017f578051916001600160401b038311610184578260051b9160208061006a81860161019a565b80968152019382010191821161017f57602001915b81831061015f576001600081815560028054610100600160a81b0319167443d72ff17701b2da814620735c39c620ce0ea4a10017905580805260208290527fa6eef7e35abe7026729641147f7915573c7e97b47efa546f5f6e3230263bcb49805460ff191690921790915584905b815181101561013957600581901b820160200151600191906001600160a01b031660008161011e575b5050016100ed565b604091815283602052208260ff198254161790558380610116565b60405161398790816101c0823960805181818161020a01528181611f620152612ab70152f35b82516001600160a01b038116810361017f5781526020928301920161007f565b600080fd5b634e487b7160e01b600052604160045260246000fd5b6040519190601f01601f191682016001600160401b038111838210176101845760405256fe6080604052600436101561001b575b361561001957600080fd5b005b60003560e01c80630b79143014612c645780630f97756114612b6f5780631209b1f614612b515780631ac7896914612b345780632002058114612ae65780632f48ab7d14612aa15780633f69babd146129b7578063439fd35f1461295f5780634d06755f146129335780634d68282f1461267457806350d9c62d146126575780635c975abb146126345780635c98dfa114612616578063617148e5146125f957806367dd74ca1461205057806368c4ac26146120115780636ff3eb5e14611f115780637b426cbf14611ef457806384bd326414611eba5780638607498514611e9e578063a06f7da714611e71578063a4b2409e14611a2b578063a4c0ed36146116b8578063abf45ec81461169c578063b5e4128714611677578063b98079bc14611585578063c27a500d146114d1578063c54e44eb146114a2578063cb71146e14611486578063ccfd6d3c1461135a578063e0c1437714611309578063f57c7ad814610294578063f60e673e146102785763fa89401a0361000e5734610273576020366003190112610273576101af61313d565b6001600160a01b03811660008181526009602052604090205490918115610237578161022e7fd7dee2702d63ad89917b6a4da9981c90c4d24f8c2bdfd64c604ecae57d8d0651936020938660005260098552600060408120557f00000000000000000000000000000000000000000000000000000000000000006137e9565b604051908152a2005b60405162461bcd60e51b8152602060048201526014602482015273139bc81d1a58dad95d1cc81d1bc81c99599d5b9960621b6044820152606490fd5b600080fd5b3461027357600036600319011261027357602060405160008152f35b3461027357610160366003190112610273576004356001600160401b038111610273576102c5903690600401613153565b906024356001600160401b038111610273576102e5903690600401613153565b906044356001600160401b03811161027357610305903690600401613153565b906064356001600160401b038116809103610273576084356001600160401b0381168091036102735760a4356001600160401b0381168091036102735760c435916001600160401b0383168093036102735760e4356001600160401b03811161027357610376903690600401613153565b9490956101043597610144359960018060a01b038b16809b03610273576103a260ff600254161561350e565b8d15158e816112fd575b50156112c9578b1515806112be575b1561128b578115158061127f575b15611248578715158061123d575b1561120557891515806111f1575b156111bc5742841061117757610e108401808511610a8757851061113d578a600052600160205260ff6040600020541615611104578c9b8e6040519d8e9161042c83612e56565b338352369061043a92613790565b9060200152369061044a92613790565b60408c0152369061045a92613790565b60608a0152608089015260a088015260c087015260e0860152369061047e92613790565b610100840152600161012084015261014083015260006101608301819052610124356101808401526101a083018190526101c08301526101e0820152600354600160401b811015610b5e578060016104db92016003556003612e00565b610dbd57815181546001600160a01b0319166001600160a01b039190911617815560208201518051906001600160401b038211610b5e5781906105216001850154612e1c565b601f81116110b1575b50602090601f831160011461104057600092611035575b50508160011b916000199060031b1c19161760018201555b60408201518051906001600160401b038211610b5e57819061057e6002850154612e1c565b601f8111610fe2575b50602090601f8311600114610f7157600092610f66575b50508160011b916000199060031b1c19161760028201555b60608201518051906001600160401b038211610b5e5781906105db6003850154612e1c565b601f8111610f13575b50602090601f8311600114610ea257600092610e97575b50508160011b916000199060031b1c19161760038201555b60808281015160a084015160c08086015160e087015160409390931b67ffffffffffffffff60401b166001600160401b0394851617941b67ffffffffffffffff60801b1693909317921b6001600160c01b0319169190911760048301556101008301518051918211610b5e5761068c6005840154612e1c565b601f8111610e50575b50602090601f8311600114610dde57600a93929160009183610dd3575b50508160011b916000199060031b1c19161760058201555b6106ea6101208401511515600683019060ff801983541691151516179055565b610140830151600782015561016083015160088201556101808301516009820155016107296101a08301511515829060ff801983541691151516179055565b6101c0820151815461ff00191690151560081b61ff00161781556101e0820151815462010000600160b01b03191660109190911b62010000600160b01b03161790553360009081526005602052604090208054600160401b811015610b5e5761079791600182018155612e00565b610dbd57815181546001600160a01b0319166001600160a01b03919091161781556020820151805160018301916001600160401b038211610b5e5781906107de8454612e1c565b601f8111610d6a575b50602090601f8311600114610d0557600092610cfa575b50508160011b916000199060031b1c19161790555b6002810160408301518051906001600160401b038211610b5e5781906108398454612e1c565b601f8111610ca7575b50602090601f8311600114610c4257600092610c37575b50508160011b916000199060031b1c19161790555b6003810160608301518051906001600160401b038211610b5e5781906108948454612e1c565b601f8111610be4575b50602090601f8311600114610b7f57600092610b74575b50508160011b916000199060031b1c19161790555b60808281015160a084015160c08086015160e087015160409390931b67ffffffffffffffff60401b166001600160401b0394851617941b67ffffffffffffffff60801b1693909317921b6001600160c01b031916919091176004830155610100830151805160058401929091908211610b5e576109468354612e1c565b601f8111610b16575b50602090601f8311600114610aa8579180600a94926101e09694600092610a9d575b50508160011b916000199060031b1c19161790555b6109a66101208501511515600683019060ff801983541691151516179055565b61014084015160078201556101608401516008820155610180840151600982015501916109e66101a08201511515849060ff801983541691151516179055565b6101c0810151835461ff00191690151560081b61ff00161783550151815462010000600160b01b03191660109190911b62010000600160b01b0316179055600354600019810191908211610a87577ffc695dea2478fb938a11068aeedddd7046a5fe655f136e30a325d353fe187a459083604051916020835281602084015260408301376000604085830101526040813395601f80199101168101030190a3005b634e487b7160e01b600052601160045260246000fd5b015190508980610971565b90601f1983169184600052816000209260005b818110610afe57509260019285926101e09896600a989610610ae5575b505050811b019055610986565b015160001960f88460031b161c19169055898080610ad8565b92936020600181928786015181550195019301610abb565b836000526020600020601f840160051c81019160208510610b54575b601f0160051c01905b818110610b48575061094f565b60008155600101610b3b565b9091508190610b32565b634e487b7160e01b600052604160045260246000fd5b0151905087806108b4565b60008581528281209350601f198516905b818110610bcc5750908460019594939210610bb3575b505050811b0190556108c9565b015160001960f88460031b161c19169055878080610ba6565b92936020600181928786015181550195019301610b90565b909150836000526020600020601f840160051c81019160208510610c2d575b90601f859493920160051c01905b818110610c1e575061089d565b60008155849350600101610c11565b9091508190610c03565b015190508780610859565b60008581528281209350601f198516905b818110610c8f5750908460019594939210610c76575b505050811b01905561086e565b015160001960f88460031b161c19169055878080610c69565b92936020600181928786015181550195019301610c53565b909150836000526020600020601f840160051c81019160208510610cf0575b90601f859493920160051c01905b818110610ce15750610842565b60008155849350600101610cd4565b9091508190610cc6565b0151905087806107fe565b60008581528281209350601f198516905b818110610d525750908460019594939210610d39575b505050811b019055610813565b015160001960f88460031b161c19169055878080610d2c565b92936020600181928786015181550195019301610d16565b909150836000526020600020601f840160051c81019160208510610db3575b90601f859493920160051c01905b818110610da457506107e7565b60008155849350600101610d97565b9091508190610d89565b634e487b7160e01b600052600060045260246000fd5b0151905087806106b2565b9060058401600052806000209160005b601f1985168110610e385750918391600193600a9695601f19811610610e1f575b505050811b0160058201556106ca565b015160001960f88460031b161c19169055878080610e0f565b91926020600181928685015181550194019201610dee565b600584016000526020600020601f840160051c810160208510610e90575b601f830160051c82018110610e84575050610695565b60008155600101610e6e565b5080610e6e565b0151905086806105fb565b92506003840160005280600020906000935b601f1984168510610ef8576001945083601f19811610610edf575b505050811b016003820155610613565b015160001960f88460031b161c19169055868080610ecf565b81810151835560209485019460019093019290910190610eb4565b909150600384016000526020600020601f840160051c810160208510610f5f575b90849392915b601f830160051c82018110610f505750506105e4565b60008155859450600101610f3a565b5080610f34565b01519050868061059e565b92506002840160005280600020906000935b601f1984168510610fc7576001945083601f19811610610fae575b505050811b0160028201556105b6565b015160001960f88460031b161c19169055868080610f9e565b81810151835560209485019460019093019290910190610f83565b909150600284016000526020600020601f840160051c81016020851061102e575b90849392915b601f830160051c8201811061101f575050610587565b60008155859450600101611009565b5080611003565b015190508680610541565b92506001840160005280600020906000935b601f1984168510611096576001945083601f1981161061107d575b505050811b016001820155610559565b015160001960f88460031b161c1916905586808061106d565b81810151835560209485019460019093019290910190611052565b909150600184016000526020600020601f840160051c8101602085106110fd575b90849392915b601f830160051c820181106110ee57505061052a565b600081558594506001016110d8565b50806110d2565b60405162461bcd60e51b81526020600482015260116024820152702ab739bab83837b93a32b2103a37b5b2b760791b6044820152606490fd5b60405162461bcd60e51b8152602060048201526012602482015271111d5c985d1a5bdb881d1bdbc81cda1bdc9d60721b6044820152606490fd5b60405162461bcd60e51b815260206004820152601960248201527f53746172742064617465206d75737420626520667574757265000000000000006044820152606490fd5b60405162461bcd60e51b815260206004820152600d60248201526c496e76616c696420707269636560981b6044820152606490fd5b5069d3c21bcecceda10000008a11156103e5565b60405162461bcd60e51b815260206004820152601060248201526f24b73b30b634b2103637b1b0ba34b7b760811b6044820152606490fd5b5060968811156103d7565b60405162461bcd60e51b815260206004820152600f60248201526e496e76616c69642064657461696c7360881b6044820152606490fd5b506103e88211156103c9565b60405162461bcd60e51b815260206004820152600b60248201526a125b9d985b1a590815549360aa1b6044820152606490fd5b5060c88c11156103bb565b60405162461bcd60e51b815260206004820152600c60248201526b496e76616c6964206e616d6560a01b6044820152606490fd5b6064915011158e6103ac565b346102735760203660031901126102735760043561132a600354821061354c565b6000526004602052611356611342604060002061373c565b604051918291602083526020830190613180565b0390f35b34610273576000366003190112610273576003546000805b828110611432575061138c611386826131e3565b9161328d565b916000805b8281106113aa57505050611356604051928392836130ea565b6113b381612dcb565b50546001600160a01b031633148061141b575b6113d3575b600101611391565b9061141381836113e5600194886132dd565b526113f86113f285612dcb565b506132f1565b61140282896132dd565b5261140d81886132dd565b506131bd565b9190506113cb565b5060ff600661142983612dcb565b500154166113c6565b61143b81612dcb565b50546001600160a01b031633148061146f575b61145b575b600101611372565b906114676001916131bd565b919050611453565b5060ff600661147d83612dcb565b5001541661144e565b3461027357600036600319011261027357602060405160c88152f35b346102735760003660031901126102735760206040517348065fbbe25f71c9282ddf5e1cd6d6a887483d5e8152f35b34610273576000366003190112610273576003546000805b82811061155357506114fd611386826131e3565b916000805b82811061151b57505050611356604051928392836130ea565b60ff600661152883612dcb565b50015416611539575b600101611502565b9061154b81836113e5600194886132dd565b919050611531565b60ff600661156083612dcb565b50015416611571575b6001016114e9565b9061157d6001916131bd565b919050611569565b34610273576020366003190112610273576004356115a1613215565b5060035481101561163b57806113566115bc61161f93612dcb565b508260005260046020526115d4604060002093612dcb565b5060018060a01b03905416600052600560205261162d61160a6116046115fe6040600020946132f1565b9561373c565b926133f9565b91604051958695606087526060870190612f78565b908582036020870152613180565b908382036040850152613091565b60405162461bcd60e51b8152602060048201526014602482015273115d995b9d08191bd95cc81b9bdd08195e1a5cdd60621b6044820152606490fd5b3461027357600036600319011261027357602060405169d3c21bcecceda10000008152f35b3461027357600036600319011261027357602060405160968152f35b34610273576060366003190112610273576116d161313d565b602435906044356001600160401b038111610273576116f4903690600401613153565b7362b8b11039fcfe5ab0c56e502b1c372a3d2a9c7a33036119f6576020116102735735906117256003548310613490565b61174361173183612dcb565b50546001600160a01b031615156134cc565b61175260ff600254161561350e565b61175b82612dcb565b5090600a82017362b8b11039fcfe5ab0c56e502b1c372a3d2a9c7a60018060a01b03825460101c16036119bd576117a06001600160401b0360048501541642106135d6565b6117b060ff600685015416613612565b836000526006602052604060002060018060a01b0383166000526020526117df60ff604060002054161561364f565b8360005260046020526117fa6113886040600020541061368f565b6007830154850361198557836000526006602052604060002060018060a01b0383166000526020526040600020600160ff19825416179055836000526004602052611849826040600020613719565b6064850285810460641486151715610a8757612710900461186a81876136dc565b908015158061196e575b6118c6575b50611898600860008051602061393283398151915295019182546136cf565b905554604080519586526001600160a01b0360109290921c82166020870152911693a3602060405160018152f35b825460025460405163a9059cbb60e01b81526001600160a01b0360089290921c8216600482015260248101939093526020918391604491839160009160101c165af18015611962576000805160206139328339815191529561189892600892611933575b50955050611879565b6119549060203d60201161195b575b61194c8183612e72565b8101906136e9565b508961192a565b503d611942565b6040513d6000823e3d90fd5b5060025460081c6001600160a01b03161515611874565b60405162461bcd60e51b815260206004820152601060248201526f125b98dbdc9c9958dd08185b5bdd5b9d60821b6044820152606490fd5b60405162461bcd60e51b815260206004820152601160248201527027b7363c903337b9102392103a37b5b2b760791b6044820152606490fd5b60405162461bcd60e51b815260206004820152600d60248201526c27b7363c902392103a37b5b2b760991b6044820152606490fd5b3461027357602036600319011261027357600435611a476137c7565b611a546003548210613490565b611a6061173182612dcb565b611a6f60ff600254161561350e565b600081815260066020908152604080832033845290915290205460ff1615611e36576007611a9c82612dcb565b50015490611aa981612dcb565b50600a015460101c6001600160a01b03167362b8b11039fcfe5ab0c56e502b1c372a3d2a9c7a8114611e18575b80158015611dc9578260005260076020528360406000205410611d84575b60ff600a611b0185612dcb565b5001541615611d1f575b60008381526006602090815260408083203384529091529020805460ff1916905515611cc157508060005260076020526040600020611b4b8382546136dc565b9055600080808085335af1611b5e6135a6565b5015611c87575b80600052600460205260406000209060005b825480821015611c7e57611b8b8285613701565b905460039190911b1c6001600160a01b03163314611bac5750600101611b77565b919291600019810191908211610a8757611be5611bcc611c099385613701565b905460039190911b1c6001600160a01b03169184613701565b81546001600160a01b0393841660039290921b91821b9390911b1916919091179055565b80548015611c68576000190190611c208282613701565b81549060018060a01b039060031b1b19169055555b6040519182527f7a482fdeb6bc9a1376f597068a214a7a39472bb2eff1b8cad21ba04f49ddca1b60203393a36001600055005b634e487b7160e01b600052603160045260246000fd5b50509050611c35565b60405162461bcd60e51b815260206004820152601260248201527110d15313c81c99599d5b990819985a5b195960721b6044820152606490fd5b827348065fbbe25f71c9282ddf5e1cd6d6a887483d5e8203611d10579064e8d4a51000611d0b9204906008611cf585612dcb565b5001611d028382546136dc565b905533906137e9565b611b65565b611d0b916008611cf585612dcb565b6001600160401b036004611d3285612dcb565b5001541661464f198101908111610a87574210611b0b5760405162461bcd60e51b81526020600482015260136024820152721499599d5b99081c195c9a5bd908195b991959606a1b6044820152606490fd5b60405162461bcd60e51b815260206004820152601760248201527f496e73756666696369656e742043454c4f2066756e64730000000000000000006044820152606490fd5b836008611dd585612dcb565b5001541015611af45760405162461bcd60e51b8152602060048201526012602482015271496e73756666696369656e742066756e647360701b6044820152606490fd5b91606381029080820460631490151715610a87576064900491611ad6565b60405162461bcd60e51b8152602060048201526013602482015272139bc81d1a58dad95d081c1d5c98da185cd959606a1b6044820152606490fd5b346102735760003660031901126102735760025460405160089190911c6001600160a01b03168152602090f35b3461027357600036600319011261027357602060405160648152f35b34610273576020366003190112610273576001600160a01b03611edb61313d565b1660005260096020526020604060002054604051908152f35b346102735760003660031901126102735760206040516146508152f35b34610273576020366003190112610273576004358015611fd5576040516323b872dd60e01b602082015233602482015230604482015260648082018390528152611f8690611f60608482612e72565b7f00000000000000000000000000000000000000000000000000000000000000006138d6565b3360005260096020526040600020611f9f8282546136cf565b90556040519080825260208201527f2a91574e12ad96234e84923e146b0946ecfb871cd8d5534dc1fdcbe87a7c01b360403392a2005b60405162461bcd60e51b8152602060048201526014602482015273125b9d985b1a59081d1a58dad95d0818dbdd5b9d60621b6044820152606490fd5b34610273576020366003190112610273576001600160a01b0361203261313d565b166000526001602052602060ff604060002054166040519015158152f35b6020366003190112610273576004356120676137c7565b6120746003548210613490565b61208061173182612dcb565b61208f60ff600254161561350e565b61209881612dcb565b5090600a820160018060a01b03815460101c166120c36001600160401b0360048601541642106135d6565b6120d360ff600686015416613612565b60008381526006602090815260408083203384529091529020546120fa9060ff161561364f565b8260005260046020526121156113886040600020541061368f565b600784015493816122095750508234036121cc576121c26000805160206139328339815191529183600052600760205260406000206121558682546136cf565b90555b836000526006602052604060002060018060a01b0333166000526020526040600020600160ff1982541617905583600052600460205261219c336040600020613719565b546040805195865260109190911c6001600160a01b031660208601523394918291820190565b0390a36001600055005b60405162461bcd60e51b8152602060048201526015602482015274125b98dbdc9c9958dd0810d15313c8185b5bdd5b9d605a1b6044820152606490fd5b90917362b8b11039fcfe5ab0c56e502b1c372a3d2a9c7a83036122ee576000925060206122896040518683820152828152612245604082612e72565b8354604051630200057560e51b8152306004820152602481018a90526060604482015296879360109290921c6001600160a01b031692849283916064830190612f37565b03925af191821561196257600080516020613932833981519152936121c2936122d1575b506122ca60086122c060648904896136dc565b92019182546136cf565b9055612158565b6122e99060203d60201161195b5761194c8183612e72565b6122ad565b7348065fbbe25f71c9282ddf5e1cd6d6a887483d5e830361251f57604051636eb1769f60e11b815233600482015230602482015264e8d4a5100086049390602081604481855afa80156119625785916000916124ea575b50106124a5576040516370a0823160e01b815230600482015290602082602481845afa91821561196257600092612470575b5090602060249261239687303360018060a01b03895460101c1661382a565b6040516370a0823160e01b815230600482015293849182905afa8015611962578592600091612437575b50906123cb916136dc565b036123f257600080516020613932833981519152926122ca60086121c294019182546136cf565b60405162461bcd60e51b815260206004820152601d60248201527f55534454207472616e7366657220616d6f756e74206d69736d617463680000006044820152606490fd5b919250506020813d602011612468575b8161245460209383612e72565b8101031261027357518491906123cb6123c0565b3d9150612447565b91506020823d60201161249d575b8161248b60209383612e72565b81010312610273579051906020612377565b3d915061247e565b60405162461bcd60e51b815260206004820152601f60248201527f496e73756666696369656e7420616c6c6f77616e636520666f722055534454006044820152606490fd5b9150506020813d602011612517575b8161250660209383612e72565b810103126102735784905188612345565b3d91506124f9565b604051636eb1769f60e11b8152336004820152306024820152602081604481875afa80156119625786916000916125c4575b50106125865760086121c29261257a87600080516020613932833981519152963090339061382a565b016122ca8682546136cf565b60405162461bcd60e51b8152602060048201526016602482015275496e73756666696369656e7420616c6c6f77616e636560501b6044820152606490fd5b9150506020813d6020116125f1575b816125e060209383612e72565b810103126102735785905187612551565b3d91506125d3565b346102735760003660031901126102735760206040516113888152f35b34610273576000366003190112610273576020600354604051908152f35b3461027357600036600319011261027357602060ff600254166040519015158152f35b346102735760003660031901126102735760206040516103e88152f35b34610273576020366003190112610273576004356126a661269482612dcb565b50546001600160a01b03163314613452565b6126ae6137c7565b6126bb600354821061354c565b6001600160401b0360046126ce83612dcb565b50015460401c164211156128ee5760ff600a6126e983612dcb565b500154166128995760ff600a6126fe83612dcb565b50015460081c1661285b5761271281612dcb565b50600a015460101c6001600160a01b0316806127dc575060008181526007602052604081208054908290559080808084335af161274d6135a6565b50156127a05760207f80230996023d69b50793fa73f1919127c9d8e741d3989743c479169f22e7a288915b600a61278385612dcb565b5001805461ff001916610100179055604051908152a26001600055005b60405162461bcd60e51b815260206004820152601460248201527310d15313c81d1c985b9cd9995c8819985a5b195960621b6044820152606490fd5b6020817348065fbbe25f71c9282ddf5e1cd6d6a887483d5e7f80230996023d69b50793fa73f1919127c9d8e741d3989743c479169f22e7a288931460001461284d57612848600861282c86612dcb565b50015480926000600861283e89612dcb565b50015533906137e9565b612778565b612848600861282c86612dcb565b60405162461bcd60e51b8152602060048201526016602482015275119d5b991cc8185b1c9958591e481c995b19585cd95960521b6044820152606490fd5b60405162461bcd60e51b815260206004820152602760248201527f43616e6e6f742072656c656173652066756e647320666f722063616e63656c656044820152661908195d995b9d60ca1b6064820152608490fd5b60405162461bcd60e51b815260206004820152601760248201527f4576656e7420686173206e6f7420656e646564207965740000000000000000006044820152606490fd5b346102735760203660031901126102735760043560005260076020526020604060002054604051908152f35b34610273576040366003190112610273576024356001600160a01b038116810361027357600435600052600660205260406000209060018060a01b0316600052602052602060ff604060002054166040519015158152f35b34610273576020366003190112610273576004356129d761269482612dcb565b6129e46003548210613490565b6129f061173182612dcb565b6129ff60ff600254161561350e565b60ff6006612a0c83612dcb565b5001541615612a69576006612a2082612dcb565b5001805460ff19169055600a612a3582612dcb565b5001805460ff191660011790557fceaf11772900fe569752a0207c8639fb8228eb8663456dc9eaa3a08f927a8705600080a2005b60405162461bcd60e51b815260206004820152601060248201526f105b1c9958591e4818d85b98d95b195960821b6044820152606490fd5b34610273576000366003190112610273576040517f00000000000000000000000000000000000000000000000000000000000000006001600160a01b03168152602090f35b34610273576020366003190112610273576001600160a01b03612b0761313d565b166000526005602052611356612b2060406000206133f9565b604051918291602083526020830190613091565b34610273576000366003190112610273576020604051610e108152f35b34610273576000366003190112610273576020600854604051908152f35b34610273576000366003190112610273576003543390600090815b818110612c265750612ba4612b9e836131e3565b9261328d565b92600090815b838110612bc057604051806113568888836130ea565b80600052600660205260ff604080600020600090858252602052205416612bea575b600101612baa565b91612c1e8184612bfc600194896132dd565b52612c096113f286612dcb565b612c13828a6132dd565b5261140d81896132dd565b929050612be2565b80600052600660205260ff604080600020600090878252602052205416612c50575b600101612b8a565b91612c5c6001916131bd565b929050612c48565b346102735760203660031901126102735760043560035481101561027357612c8b90612dcb565b5080546001600160a01b0316612ca360018301612e93565b91612cb060028201612e93565b612cbc60038301612e93565b60048301549290612ccf60058301612e93565b93600683015460ff1694600784015491600885015493600986015495600a0154966040519a8b9a8b5260208b0161020090526102008b01612d0f91612f37565b8a810360408c0152612d2091612f37565b89810360608b0152612d3191612f37565b906001600160401b03811660808a01528060401c6001600160401b031660a08a01528060801c6001600160401b031660c08a015260c01c60e0890152878103610100890152612d7f91612f37565b94151561012087015261014086015261016085015261018084015260ff81811615156101a0850152600882901c1615156101c084015260101c6001600160a01b03166101e08301520390f35b600354811015612dea576003600052600b602060002091020190600090565b634e487b7160e01b600052603260045260246000fd5b8054821015612dea57600052600b602060002091020190600090565b90600182811c92168015612e4c575b6020831014612e3657565b634e487b7160e01b600052602260045260246000fd5b91607f1691612e2b565b61020081019081106001600160401b03821117610b5e57604052565b90601f801991011681019081106001600160401b03821117610b5e57604052565b9060405191826000825492612ea784612e1c565b8084529360018116908115612f155750600114612ece575b50612ecc92500383612e72565b565b90506000929192526020600020906000915b818310612ef9575050906020612ecc9282010138612ebf565b6020919350806001915483858901015201910190918492612ee0565b905060209250612ecc94915060ff191682840152151560051b82010138612ebf565b919082519283825260005b848110612f63575050826000602080949584010152601f8019910116010190565b80602080928401015182828601015201612f42565b9060018060a01b0382511681526101e0613030612fd0612fbe612fac60208701516102006020880152610200870190612f37565b60408701518682036040880152612f37565b60608601518582036060870152612f37565b6001600160401b0360808601511660808501526001600160401b0360a08601511660a08501526001600160401b0360c08601511660c08501526001600160401b0360e08601511660e0850152610100850151848203610100860152612f37565b9261012081015115156101208401526101408101516101408401526101608101516101608401526101808101516101808401526101a081015115156101a08401526101c081015115156101c08401528160018060a01b039101511691015290565b9080602083519182815201916020808360051b8301019401926000915b8383106130bd57505050505090565b90919293946020806130db600193601f198682030187528951612f78565b970193019301919392906130ae565b9291604084019360408152825180955260206060820193016000955b8087106131255750506131229394506020818403910152613091565b90565b90936020806001928751815201950196019590613106565b600435906001600160a01b038216820361027357565b9181601f84011215610273578235916001600160401b038311610273576020838186019501011161027357565b906020808351928381520192019060005b81811061319e5750505090565b82516001600160a01b0316845260209384019390920191600101613191565b6000198114610a875760010190565b6001600160401b038111610b5e5760051b60200190565b906131ed826131cc565b6131fa6040519182612e72565b828152809261320b601f19916131cc565b0190602036910137565b6040519061322282612e56565b60006101e08382815260606020820152606060408201526060808201528260808201528260a08201528260c08201528260e0820152606061010082015282610120820152826101408201528261016082015282610180820152826101a0820152826101c08201520152565b90613297826131cc565b6132a46040519182612e72565b82815280926132b5601f19916131cc565b019060005b8281106132c657505050565b6020906132d1613215565b828285010152016132ba565b8051821015612dea5760209160051b010190565b906040516132fe81612e56565b82546001600160a01b031681529182906101e090600a9061332160018201612e93565b602085015261333260028201612e93565b604085015261334360038201612e93565b606085015260048101546001600160401b03811660808601526001600160401b038160401c1660a08601526001600160401b038160801c1660c086015260c01c60e085015261339460058201612e93565b61010085015260ff6006820154161515610120850152600781015461014085015260088101546101608501526009810154610180850152015460ff811615156101a084015260ff8160081c1615156101c084015260018060a01b039060101c16910152565b908154613405816131cc565b926134136040519485612e72565b818452602084019060005260206000206000915b8383106134345750505050565b600b6020600192613444856132f1565b815201920192019190613427565b1561345957565b60405162461bcd60e51b815260206004820152600f60248201526e2737ba1032bb32b73a1037bbb732b960891b6044820152606490fd5b1561349757565b60405162461bcd60e51b815260206004820152600d60248201526c125b9d985b1a5908195d995b9d609a1b6044820152606490fd5b156134d357565b60405162461bcd60e51b8152602060048201526013602482015272115d995b9d08191bd95cdb89dd08195e1a5cdd606a1b6044820152606490fd5b1561351557565b60405162461bcd60e51b815260206004820152600f60248201526e10dbdb9d1c9858dd081c185d5cd959608a1b6044820152606490fd5b1561355357565b60405162461bcd60e51b815260206004820152601060248201526f125b9d985b1a5908195d995b9d08125160821b6044820152606490fd5b6001600160401b038111610b5e57601f01601f191660200190565b3d156135d1573d906135b78261358b565b916135c56040519384612e72565b82523d6000602084013e565b606090565b156135dd57565b60405162461bcd60e51b815260206004820152600d60248201526c115d995b9d08195e1c1a5c9959609a1b6044820152606490fd5b1561361957565b60405162461bcd60e51b815260206004820152600e60248201526d4576656e7420696e61637469766560901b6044820152606490fd5b1561365657565b60405162461bcd60e51b8152602060048201526011602482015270105b1c9958591e481c1d5c98da185cd959607a1b6044820152606490fd5b1561369657565b60405162461bcd60e51b81526020600482015260116024820152704576656e7420617420636170616369747960781b6044820152606490fd5b91908201809211610a8757565b91908203918211610a8757565b90816020910312610273575180151581036102735790565b8054821015612dea5760005260206000200190600090565b90815491600160401b831015610b5e5782611be5916001612ecc95018155613701565b906040519182815491828252602082019060005260206000209260005b81811061376e575050612ecc92500383612e72565b84546001600160a01b0316835260019485019487945060209093019201613759565b92919261379c8261358b565b916137aa6040519384612e72565b829481845281830111610273578281602093846000960137010152565b6002600054146137d8576002600055565b633ee5aeb560e01b60005260046000fd5b60405163a9059cbb60e01b60208201526001600160a01b03929092166024830152604480830193909352918152612ecc91613825606483612e72565b6138d6565b6040516323b872dd60e01b81526001600160a01b03928316600482015292821660248401526044830193909352909160209183916064918391600091165af1908115611962576000916138b7575b501561388057565b60405162461bcd60e51b815260206004820152600f60248201526e151c985b9cd9995c8819985a5b1959608a1b6044820152606490fd5b6138d0915060203d60201161195b5761194c8183612e72565b38613878565b906000602091828151910182855af115611962576000513d61392857506001600160a01b0381163b155b6139075750565b635274afe760e01b60009081526001600160a01b0391909116600452602490fd5b6001141561390056fe504ef6dabca28c1452704d54bd8e25708d87e0c27d852eceea53a0c0d8986758a2646970667358221220abe5764589ffec02a80e01e4ddf4fff8473a2731e2c69f51406f57733d625d0c64736f6c634300081c0033",
  "linkReferences": {},
  "deployedLinkReferences": {}
}