{
  "contracts/EventChain.sol": {
    "EventChain": {
      "abi": [
        {
          "inputs": [
            {
              "internalType": "address[]",
              "name": "_supportedTokens",
              "type": "address[]"
            }
          ],
          "stateMutability": "nonpayable",
          "type": "constructor"
        },
        {
          "inputs": [],
          "name": "ReentrancyGuardReentrantCall",
          "type": "error"
        },
        {
          "anonymous": false,
          "inputs": [
            {
              "indexed": true,
              "internalType": "uint256",
              "name": "eventId",
              "type": "uint256"
            }
          ],
          "name": "EventCanceled",
          "type": "event"
        },
        {
          "anonymous": false,
          "inputs": [
            {
              "indexed": true,
              "internalType": "uint256",
              "name": "eventId",
              "type": "uint256"
            },
            {
              "indexed": true,
              "internalType": "address",
              "name": "owner",
              "type": "address"
            },
            {
              "indexed": false,
              "internalType": "string",
              "name": "eventName",
              "type": "string"
            }
          ],
          "name": "EventCreated",
          "type": "event"
        },
        {
          "anonymous": false,
          "inputs": [
            {
              "indexed": true,
              "internalType": "uint256",
              "name": "eventId",
              "type": "uint256"
            },
            {
              "indexed": true,
              "internalType": "address",
              "name": "owner",
              "type": "address"
            },
            {
              "indexed": false,
              "internalType": "string",
              "name": "eventName",
              "type": "string"
            }
          ],
          "name": "EventUpdated",
          "type": "event"
        },
        {
          "anonymous": false,
          "inputs": [
            {
              "indexed": true,
              "internalType": "uint256",
              "name": "eventId",
              "type": "uint256"
            },
            {
              "indexed": false,
              "internalType": "uint256",
              "name": "amount",
              "type": "uint256"
            }
          ],
          "name": "FundsReleased",
          "type": "event"
        },
        {
          "anonymous": false,
          "inputs": [
            {
              "indexed": true,
              "internalType": "uint256",
              "name": "eventId",
              "type": "uint256"
            },
            {
              "indexed": true,
              "internalType": "address",
              "name": "user",
              "type": "address"
            },
            {
              "indexed": false,
              "internalType": "uint256",
              "name": "amount",
              "type": "uint256"
            }
          ],
          "name": "RefundIssued",
          "type": "event"
        },
        {
          "anonymous": false,
          "inputs": [
            {
              "indexed": true,
              "internalType": "uint256",
              "name": "eventId",
              "type": "uint256"
            },
            {
              "indexed": true,
              "internalType": "address",
              "name": "buyer",
              "type": "address"
            },
            {
              "indexed": false,
              "internalType": "uint256",
              "name": "amount",
              "type": "uint256"
            },
            {
              "indexed": false,
              "internalType": "address",
              "name": "paymentToken",
              "type": "address"
            }
          ],
          "name": "TicketPurchased",
          "type": "event"
        },
        {
          "inputs": [],
          "name": "MAX_ATTENDEES",
          "outputs": [
            {
              "internalType": "uint256",
              "name": "",
              "type": "uint256"
            }
          ],
          "stateMutability": "view",
          "type": "function"
        },
        {
          "inputs": [],
          "name": "MAX_DETAILS_LENGTH",
          "outputs": [
            {
              "internalType": "uint256",
              "name": "",
              "type": "uint256"
            }
          ],
          "stateMutability": "view",
          "type": "function"
        },
        {
          "inputs": [],
          "name": "MAX_LOCATION_LENGTH",
          "outputs": [
            {
              "internalType": "uint256",
              "name": "",
              "type": "uint256"
            }
          ],
          "stateMutability": "view",
          "type": "function"
        },
        {
          "inputs": [],
          "name": "MAX_NAME_LENGTH",
          "outputs": [
            {
              "internalType": "uint256",
              "name": "",
              "type": "uint256"
            }
          ],
          "stateMutability": "view",
          "type": "function"
        },
        {
          "inputs": [],
          "name": "MAX_TICKET_PRICE",
          "outputs": [
            {
              "internalType": "uint256",
              "name": "",
              "type": "uint256"
            }
          ],
          "stateMutability": "view",
          "type": "function"
        },
        {
          "inputs": [],
          "name": "MAX_URL_LENGTH",
          "outputs": [
            {
              "internalType": "uint256",
              "name": "",
              "type": "uint256"
            }
          ],
          "stateMutability": "view",
          "type": "function"
        },
        {
          "inputs": [],
          "name": "MIN_EVENT_DURATION",
          "outputs": [
            {
              "internalType": "uint256",
              "name": "",
              "type": "uint256"
            }
          ],
          "stateMutability": "view",
          "type": "function"
        },
        {
          "inputs": [],
          "name": "REFUND_BUFFER",
          "outputs": [
            {
              "internalType": "uint256",
              "name": "",
              "type": "uint256"
            }
          ],
          "stateMutability": "view",
          "type": "function"
        },
        {
          "inputs": [
            {
              "internalType": "uint256",
              "name": "_index",
              "type": "uint256"
            }
          ],
          "name": "buyTicket",
          "outputs": [],
          "stateMutability": "nonpayable",
          "type": "function"
        },
        {
          "inputs": [
            {
              "internalType": "uint256",
              "name": "_index",
              "type": "uint256"
            }
          ],
          "name": "buyTicket1",
          "outputs": [],
          "stateMutability": "nonpayable",
          "type": "function"
        },
        {
          "inputs": [
            {
              "internalType": "uint256",
              "name": "_index",
              "type": "uint256"
            }
          ],
          "name": "cancelEvent",
          "outputs": [],
          "stateMutability": "nonpayable",
          "type": "function"
        },
        {
          "inputs": [
            {
              "internalType": "string",
              "name": "_eventName",
              "type": "string"
            },
            {
              "internalType": "string",
              "name": "_eventCardImgUrl",
              "type": "string"
            },
            {
              "internalType": "string",
              "name": "_eventDetails",
              "type": "string"
            },
            {
              "internalType": "uint64",
              "name": "_startDate",
              "type": "uint64"
            },
            {
              "internalType": "uint64",
              "name": "_endDate",
              "type": "uint64"
            },
            {
              "internalType": "uint64",
              "name": "_startTime",
              "type": "uint64"
            },
            {
              "internalType": "uint64",
              "name": "_endTime",
              "type": "uint64"
            },
            {
              "internalType": "string",
              "name": "_eventLocation",
              "type": "string"
            },
            {
              "internalType": "uint256",
              "name": "_ticketPrice",
              "type": "uint256"
            },
            {
              "internalType": "uint256",
              "name": "_minimumAge",
              "type": "uint256"
            },
            {
              "internalType": "address",
              "name": "_paymentToken",
              "type": "address"
            }
          ],
          "name": "createEvent",
          "outputs": [],
          "stateMutability": "nonpayable",
          "type": "function"
        },
        {
          "inputs": [
            {
              "internalType": "uint256",
              "name": "",
              "type": "uint256"
            }
          ],
          "name": "events",
          "outputs": [
            {
              "internalType": "address",
              "name": "owner",
              "type": "address"
            },
            {
              "internalType": "string",
              "name": "eventName",
              "type": "string"
            },
            {
              "internalType": "string",
              "name": "eventCardImgUrl",
              "type": "string"
            },
            {
              "internalType": "string",
              "name": "eventDetails",
              "type": "string"
            },
            {
              "internalType": "uint64",
              "name": "startDate",
              "type": "uint64"
            },
            {
              "internalType": "uint64",
              "name": "endDate",
              "type": "uint64"
            },
            {
              "internalType": "uint64",
              "name": "startTime",
              "type": "uint64"
            },
            {
              "internalType": "uint64",
              "name": "endTime",
              "type": "uint64"
            },
            {
              "internalType": "string",
              "name": "eventLocation",
              "type": "string"
            },
            {
              "internalType": "bool",
              "name": "isActive",
              "type": "bool"
            },
            {
              "internalType": "uint256",
              "name": "ticketPrice",
              "type": "uint256"
            },
            {
              "internalType": "uint256",
              "name": "fundsHeld",
              "type": "uint256"
            },
            {
              "internalType": "uint256",
              "name": "minimumAge",
              "type": "uint256"
            },
            {
              "internalType": "bool",
              "name": "isCanceled",
              "type": "bool"
            },
            {
              "internalType": "bool",
              "name": "fundsReleased",
              "type": "bool"
            },
            {
              "internalType": "address",
              "name": "paymentToken",
              "type": "address"
            }
          ],
          "stateMutability": "view",
          "type": "function"
        },
        {
          "inputs": [],
          "name": "getActiveEventsByCreator",
          "outputs": [
            {
              "internalType": "uint256[]",
              "name": "",
              "type": "uint256[]"
            },
            {
              "components": [
                {
                  "internalType": "address",
                  "name": "owner",
                  "type": "address"
                },
                {
                  "internalType": "string",
                  "name": "eventName",
                  "type": "string"
                },
                {
                  "internalType": "string",
                  "name": "eventCardImgUrl",
                  "type": "string"
                },
                {
                  "internalType": "string",
                  "name": "eventDetails",
                  "type": "string"
                },
                {
                  "internalType": "uint64",
                  "name": "startDate",
                  "type": "uint64"
                },
                {
                  "internalType": "uint64",
                  "name": "endDate",
                  "type": "uint64"
                },
                {
                  "internalType": "uint64",
                  "name": "startTime",
                  "type": "uint64"
                },
                {
                  "internalType": "uint64",
                  "name": "endTime",
                  "type": "uint64"
                },
                {
                  "internalType": "string",
                  "name": "eventLocation",
                  "type": "string"
                },
                {
                  "internalType": "bool",
                  "name": "isActive",
                  "type": "bool"
                },
                {
                  "internalType": "uint256",
                  "name": "ticketPrice",
                  "type": "uint256"
                },
                {
                  "internalType": "uint256",
                  "name": "fundsHeld",
                  "type": "uint256"
                },
                {
                  "internalType": "uint256",
                  "name": "minimumAge",
                  "type": "uint256"
                },
                {
                  "internalType": "bool",
                  "name": "isCanceled",
                  "type": "bool"
                },
                {
                  "internalType": "bool",
                  "name": "fundsReleased",
                  "type": "bool"
                },
                {
                  "internalType": "address",
                  "name": "paymentToken",
                  "type": "address"
                }
              ],
              "internalType": "struct EventChain.Event[]",
              "name": "",
              "type": "tuple[]"
            }
          ],
          "stateMutability": "view",
          "type": "function"
        },
        {
          "inputs": [],
          "name": "getAllEvents",
          "outputs": [
            {
              "internalType": "uint256[]",
              "name": "",
              "type": "uint256[]"
            },
            {
              "components": [
                {
                  "internalType": "address",
                  "name": "owner",
                  "type": "address"
                },
                {
                  "internalType": "string",
                  "name": "eventName",
                  "type": "string"
                },
                {
                  "internalType": "string",
                  "name": "eventCardImgUrl",
                  "type": "string"
                },
                {
                  "internalType": "string",
                  "name": "eventDetails",
                  "type": "string"
                },
                {
                  "internalType": "uint64",
                  "name": "startDate",
                  "type": "uint64"
                },
                {
                  "internalType": "uint64",
                  "name": "endDate",
                  "type": "uint64"
                },
                {
                  "internalType": "uint64",
                  "name": "startTime",
                  "type": "uint64"
                },
                {
                  "internalType": "uint64",
                  "name": "endTime",
                  "type": "uint64"
                },
                {
                  "internalType": "string",
                  "name": "eventLocation",
                  "type": "string"
                },
                {
                  "internalType": "bool",
                  "name": "isActive",
                  "type": "bool"
                },
                {
                  "internalType": "uint256",
                  "name": "ticketPrice",
                  "type": "uint256"
                },
                {
                  "internalType": "uint256",
                  "name": "fundsHeld",
                  "type": "uint256"
                },
                {
                  "internalType": "uint256",
                  "name": "minimumAge",
                  "type": "uint256"
                },
                {
                  "internalType": "bool",
                  "name": "isCanceled",
                  "type": "bool"
                },
                {
                  "internalType": "bool",
                  "name": "fundsReleased",
                  "type": "bool"
                },
                {
                  "internalType": "address",
                  "name": "paymentToken",
                  "type": "address"
                }
              ],
              "internalType": "struct EventChain.Event[]",
              "name": "",
              "type": "tuple[]"
            }
          ],
          "stateMutability": "view",
          "type": "function"
        },
        {
          "inputs": [
            {
              "internalType": "uint256",
              "name": "_index",
              "type": "uint256"
            }
          ],
          "name": "getAttendees",
          "outputs": [
            {
              "internalType": "address[]",
              "name": "",
              "type": "address[]"
            }
          ],
          "stateMutability": "view",
          "type": "function"
        },
        {
          "inputs": [
            {
              "internalType": "uint256",
              "name": "_index",
              "type": "uint256"
            }
          ],
          "name": "getEventById",
          "outputs": [
            {
              "components": [
                {
                  "internalType": "address",
                  "name": "owner",
                  "type": "address"
                },
                {
                  "internalType": "string",
                  "name": "eventName",
                  "type": "string"
                },
                {
                  "internalType": "string",
                  "name": "eventCardImgUrl",
                  "type": "string"
                },
                {
                  "internalType": "string",
                  "name": "eventDetails",
                  "type": "string"
                },
                {
                  "internalType": "uint64",
                  "name": "startDate",
                  "type": "uint64"
                },
                {
                  "internalType": "uint64",
                  "name": "endDate",
                  "type": "uint64"
                },
                {
                  "internalType": "uint64",
                  "name": "startTime",
                  "type": "uint64"
                },
                {
                  "internalType": "uint64",
                  "name": "endTime",
                  "type": "uint64"
                },
                {
                  "internalType": "string",
                  "name": "eventLocation",
                  "type": "string"
                },
                {
                  "internalType": "bool",
                  "name": "isActive",
                  "type": "bool"
                },
                {
                  "internalType": "uint256",
                  "name": "ticketPrice",
                  "type": "uint256"
                },
                {
                  "internalType": "uint256",
                  "name": "fundsHeld",
                  "type": "uint256"
                },
                {
                  "internalType": "uint256",
                  "name": "minimumAge",
                  "type": "uint256"
                },
                {
                  "internalType": "bool",
                  "name": "isCanceled",
                  "type": "bool"
                },
                {
                  "internalType": "bool",
                  "name": "fundsReleased",
                  "type": "bool"
                },
                {
                  "internalType": "address",
                  "name": "paymentToken",
                  "type": "address"
                }
              ],
              "internalType": "struct EventChain.Event",
              "name": "",
              "type": "tuple"
            },
            {
              "internalType": "address[]",
              "name": "",
              "type": "address[]"
            },
            {
              "components": [
                {
                  "internalType": "address",
                  "name": "owner",
                  "type": "address"
                },
                {
                  "internalType": "string",
                  "name": "eventName",
                  "type": "string"
                },
                {
                  "internalType": "string",
                  "name": "eventCardImgUrl",
                  "type": "string"
                },
                {
                  "internalType": "string",
                  "name": "eventDetails",
                  "type": "string"
                },
                {
                  "internalType": "uint64",
                  "name": "startDate",
                  "type": "uint64"
                },
                {
                  "internalType": "uint64",
                  "name": "endDate",
                  "type": "uint64"
                },
                {
                  "internalType": "uint64",
                  "name": "startTime",
                  "type": "uint64"
                },
                {
                  "internalType": "uint64",
                  "name": "endTime",
                  "type": "uint64"
                },
                {
                  "internalType": "string",
                  "name": "eventLocation",
                  "type": "string"
                },
                {
                  "internalType": "bool",
                  "name": "isActive",
                  "type": "bool"
                },
                {
                  "internalType": "uint256",
                  "name": "ticketPrice",
                  "type": "uint256"
                },
                {
                  "internalType": "uint256",
                  "name": "fundsHeld",
                  "type": "uint256"
                },
                {
                  "internalType": "uint256",
                  "name": "minimumAge",
                  "type": "uint256"
                },
                {
                  "internalType": "bool",
                  "name": "isCanceled",
                  "type": "bool"
                },
                {
                  "internalType": "bool",
                  "name": "fundsReleased",
                  "type": "bool"
                },
                {
                  "internalType": "address",
                  "name": "paymentToken",
                  "type": "address"
                }
              ],
              "internalType": "struct EventChain.Event[]",
              "name": "",
              "type": "tuple[]"
            }
          ],
          "stateMutability": "view",
          "type": "function"
        },
        {
          "inputs": [],
          "name": "getEventLength",
          "outputs": [
            {
              "internalType": "uint256",
              "name": "",
              "type": "uint256"
            }
          ],
          "stateMutability": "view",
          "type": "function"
        },
        {
          "inputs": [
            {
              "internalType": "address",
              "name": "_creator",
              "type": "address"
            }
          ],
          "name": "getEventsByCreator",
          "outputs": [
            {
              "components": [
                {
                  "internalType": "address",
                  "name": "owner",
                  "type": "address"
                },
                {
                  "internalType": "string",
                  "name": "eventName",
                  "type": "string"
                },
                {
                  "internalType": "string",
                  "name": "eventCardImgUrl",
                  "type": "string"
                },
                {
                  "internalType": "string",
                  "name": "eventDetails",
                  "type": "string"
                },
                {
                  "internalType": "uint64",
                  "name": "startDate",
                  "type": "uint64"
                },
                {
                  "internalType": "uint64",
                  "name": "endDate",
                  "type": "uint64"
                },
                {
                  "internalType": "uint64",
                  "name": "startTime",
                  "type": "uint64"
                },
                {
                  "internalType": "uint64",
                  "name": "endTime",
                  "type": "uint64"
                },
                {
                  "internalType": "string",
                  "name": "eventLocation",
                  "type": "string"
                },
                {
                  "internalType": "bool",
                  "name": "isActive",
                  "type": "bool"
                },
                {
                  "internalType": "uint256",
                  "name": "ticketPrice",
                  "type": "uint256"
                },
                {
                  "internalType": "uint256",
                  "name": "fundsHeld",
                  "type": "uint256"
                },
                {
                  "internalType": "uint256",
                  "name": "minimumAge",
                  "type": "uint256"
                },
                {
                  "internalType": "bool",
                  "name": "isCanceled",
                  "type": "bool"
                },
                {
                  "internalType": "bool",
                  "name": "fundsReleased",
                  "type": "bool"
                },
                {
                  "internalType": "address",
                  "name": "paymentToken",
                  "type": "address"
                }
              ],
              "internalType": "struct EventChain.Event[]",
              "name": "",
              "type": "tuple[]"
            }
          ],
          "stateMutability": "view",
          "type": "function"
        },
        {
          "inputs": [],
          "name": "getUserEvents",
          "outputs": [
            {
              "internalType": "uint256[]",
              "name": "",
              "type": "uint256[]"
            },
            {
              "components": [
                {
                  "internalType": "address",
                  "name": "owner",
                  "type": "address"
                },
                {
                  "internalType": "string",
                  "name": "eventName",
                  "type": "string"
                },
                {
                  "internalType": "string",
                  "name": "eventCardImgUrl",
                  "type": "string"
                },
                {
                  "internalType": "string",
                  "name": "eventDetails",
                  "type": "string"
                },
                {
                  "internalType": "uint64",
                  "name": "startDate",
                  "type": "uint64"
                },
                {
                  "internalType": "uint64",
                  "name": "endDate",
                  "type": "uint64"
                },
                {
                  "internalType": "uint64",
                  "name": "startTime",
                  "type": "uint64"
                },
                {
                  "internalType": "uint64",
                  "name": "endTime",
                  "type": "uint64"
                },
                {
                  "internalType": "string",
                  "name": "eventLocation",
                  "type": "string"
                },
                {
                  "internalType": "bool",
                  "name": "isActive",
                  "type": "bool"
                },
                {
                  "internalType": "uint256",
                  "name": "ticketPrice",
                  "type": "uint256"
                },
                {
                  "internalType": "uint256",
                  "name": "fundsHeld",
                  "type": "uint256"
                },
                {
                  "internalType": "uint256",
                  "name": "minimumAge",
                  "type": "uint256"
                },
                {
                  "internalType": "bool",
                  "name": "isCanceled",
                  "type": "bool"
                },
                {
                  "internalType": "bool",
                  "name": "fundsReleased",
                  "type": "bool"
                },
                {
                  "internalType": "address",
                  "name": "paymentToken",
                  "type": "address"
                }
              ],
              "internalType": "struct EventChain.Event[]",
              "name": "",
              "type": "tuple[]"
            }
          ],
          "stateMutability": "view",
          "type": "function"
        },
        {
          "inputs": [
            {
              "internalType": "uint256",
              "name": "",
              "type": "uint256"
            },
            {
              "internalType": "address",
              "name": "",
              "type": "address"
            }
          ],
          "name": "hasPurchasedTicket",
          "outputs": [
            {
              "internalType": "bool",
              "name": "",
              "type": "bool"
            }
          ],
          "stateMutability": "view",
          "type": "function"
        },
        {
          "inputs": [
            {
              "internalType": "address",
              "name": "from",
              "type": "address"
            },
            {
              "internalType": "uint256",
              "name": "value",
              "type": "uint256"
            },
            {
              "internalType": "bytes",
              "name": "data",
              "type": "bytes"
            }
          ],
          "name": "onTokenTransfer",
          "outputs": [
            {
              "internalType": "bool",
              "name": "",
              "type": "bool"
            }
          ],
          "stateMutability": "nonpayable",
          "type": "function"
        },
        {
          "inputs": [],
          "name": "paused",
          "outputs": [
            {
              "internalType": "bool",
              "name": "",
              "type": "bool"
            }
          ],
          "stateMutability": "view",
          "type": "function"
        },
        {
          "inputs": [
            {
              "internalType": "uint256",
              "name": "_index",
              "type": "uint256"
            }
          ],
          "name": "releaseFunds",
          "outputs": [],
          "stateMutability": "nonpayable",
          "type": "function"
        },
        {
          "inputs": [
            {
              "internalType": "uint256",
              "name": "_index",
              "type": "uint256"
            }
          ],
          "name": "requestRefund",
          "outputs": [],
          "stateMutability": "nonpayable",
          "type": "function"
        },
        {
          "inputs": [
            {
              "internalType": "uint256",
              "name": "_index",
              "type": "uint256"
            }
          ],
          "name": "requestRefund1",
          "outputs": [],
          "stateMutability": "nonpayable",
          "type": "function"
        },
        {
          "inputs": [
            {
              "internalType": "address",
              "name": "",
              "type": "address"
            }
          ],
          "name": "supportedTokens",
          "outputs": [
            {
              "internalType": "bool",
              "name": "",
              "type": "bool"
            }
          ],
          "stateMutability": "view",
          "type": "function"
        },
        {
          "inputs": [],
          "name": "ubiPool",
          "outputs": [
            {
              "internalType": "address",
              "name": "",
              "type": "address"
            }
          ],
          "stateMutability": "view",
          "type": "function"
        }
      ],
      "evm": {
        "bytecode": {
          "linkReferences": {},
          "object": "60806040523461011f57613772803803806100198161013a565b92833981019060208183031261011f578051906001600160401b03821161011f570181601f8201121561011f578051916001600160401b038311610124578260051b9160208061006a81860161013a565b80968152019382010191821161011f57602001915b8183106100ff576001600090815560028054610100600160a81b0319167443d72ff17701b2da814620735c39c620ce0ea4a10017905584905b81518110156100f05760019060406000838060a01b0360208460051b8701015116815283602052208260ff19825416179055016100b8565b60405161361290816101608239f35b82516001600160a01b038116810361011f5781526020928301920161007f565b600080fd5b634e487b7160e01b600052604160045260246000fd5b6040519190601f01601f191682016001600160401b038111838210176101245760405256fe6080604052600436101561001257600080fd5b60003560e01c80630b791430146126d95780630ec7c3ff146125ea5780630f977561146124f55780631ac78969146124d8578063200205811461248a5780633f69babd146123a0578063402f979d14612108578063439fd35f146120b05780634d68282f14611e2157806350d9c62d14611e045780635c975abb14611de15780635c98dfa114611dc3578063617148e514611da657806367dd74ca14611ae057806368c4ac2614611aa15780637b426cbf14611a845780638607498514611a68578063a06f7da714611a3b578063a4b2409e146118f8578063a4c0ed3614611585578063abf45ec814611569578063b5e4128714611544578063b98079bc14611452578063c27a500d1461139e578063cb71146e14611382578063ccfd6d3c14611256578063e0c14377146112055763f57c7ad81461015057600080fd5b3461120057610160366003190112611200576004356001600160401b03811161120057610181903690600401612bc8565b906024356001600160401b038111611200576101a1903690600401612bc8565b906044356001600160401b038111611200576101c1903690600401612bc8565b906064356001600160401b038116809103611200576084356001600160401b0381168091036112005760a4356001600160401b0381168091036112005760c435916001600160401b0383168093036112005760e4356001600160401b03811161120057610232903690600401612bc8565b9490956101043597610144359960018060a01b038b16809b036112005761025e60ff6002541615612cb0565b8d15158e816111f4575b50156111c0578b1515806111b5575b156111825781151580611176575b1561113f5787151580611134575b156110fc57891515806110e8575b156110b3578a1561107e5742841061103957610e108401808511610949578510610fff578a600052600160205260ff6040600020541615610fc6578c9b8e6040519d8e916102ee836128cb565b33835236906102fc9261330c565b9060200152369061030c9261330c565b60408c0152369061031c9261330c565b60608a0152608089015260a088015260c087015260e086015236906103409261330c565b610100840152600161012084015261014083015260006101608301819052610124356101808401526101a083018190526101c08301526101e0820152600354600160401b811015610a205780600161039d92016003556003612875565b610c7f57815181546001600160a01b0319166001600160a01b039190911617815560208201518051906001600160401b038211610a205781906103e36001850154612891565b601f8111610f73575b50602090601f8311600114610f0257600092610ef7575b50508160011b916000199060031b1c19161760018201555b60408201518051906001600160401b038211610a205781906104406002850154612891565b601f8111610ea4575b50602090601f8311600114610e3357600092610e28575b50508160011b916000199060031b1c19161760028201555b60608201518051906001600160401b038211610a2057819061049d6003850154612891565b601f8111610dd5575b50602090601f8311600114610d6457600092610d59575b50508160011b916000199060031b1c19161760038201555b60808281015160a084015160c08086015160e087015160409390931b67ffffffffffffffff60401b166001600160401b0394851617941b67ffffffffffffffff60801b1693909317921b6001600160c01b0319169190911760048301556101008301518051918211610a205761054e6005840154612891565b601f8111610d12575b50602090601f8311600114610ca057600a93929160009183610c95575b50508160011b916000199060031b1c19161760058201555b6105ac6101208401511515600683019060ff801983541691151516179055565b610140830151600782015561016083015160088201556101808301516009820155016105eb6101a08301511515829060ff801983541691151516179055565b6101c0820151815461ff00191690151560081b61ff00161781556101e0820151815462010000600160b01b03191660109190911b62010000600160b01b03161790553360009081526005602052604090208054600160401b811015610a205761065991600182018155612875565b610c7f57815181546001600160a01b0319166001600160a01b03919091161781556020820151805160018301916001600160401b038211610a205781906106a08454612891565b601f8111610c2c575b50602090601f8311600114610bc757600092610bbc575b50508160011b916000199060031b1c19161790555b6002810160408301518051906001600160401b038211610a205781906106fb8454612891565b601f8111610b69575b50602090601f8311600114610b0457600092610af9575b50508160011b916000199060031b1c19161790555b6003810160608301518051906001600160401b038211610a205781906107568454612891565b601f8111610aa6575b50602090601f8311600114610a4157600092610a36575b50508160011b916000199060031b1c19161790555b60808281015160a084015160c08086015160e087015160409390931b67ffffffffffffffff60401b166001600160401b0394851617941b67ffffffffffffffff60801b1693909317921b6001600160c01b031916919091176004830155610100830151805160058401929091908211610a20576108088354612891565b601f81116109d8575b50602090601f831160011461096a579180600a94926101e0969460009261095f575b50508160011b916000199060031b1c19161790555b6108686101208501511515600683019060ff801983541691151516179055565b61014084015160078201556101608401516008820155610180840151600982015501916108a86101a08201511515849060ff801983541691151516179055565b6101c0810151835461ff00191690151560081b61ff00161783550151815462010000600160b01b03191660109190911b62010000600160b01b0316179055600354600019810191908211610949577ffc695dea2478fb938a11068aeedddd7046a5fe655f136e30a325d353fe187a459083604051916020835281602084015260408301376000604085830101526040813395601f80199101168101030190a3005b634e487b7160e01b600052601160045260246000fd5b015190503880610833565b90601f1983169184600052816000209260005b8181106109c057509260019285926101e09896600a9896106109a7575b505050811b019055610848565b015160001960f88460031b161c1916905538808061099a565b9293602060018192878601518155019501930161097d565b836000526020600020601f840160051c81019160208510610a16575b601f0160051c01905b818110610a0a5750610811565b600081556001016109fd565b90915081906109f4565b634e487b7160e01b600052604160045260246000fd5b015190503880610776565b60008581528281209350601f198516905b818110610a8e5750908460019594939210610a75575b505050811b01905561078b565b015160001960f88460031b161c19169055388080610a68565b92936020600181928786015181550195019301610a52565b909150836000526020600020601f840160051c81019160208510610aef575b90601f859493920160051c01905b818110610ae0575061075f565b60008155849350600101610ad3565b9091508190610ac5565b01519050388061071b565b60008581528281209350601f198516905b818110610b515750908460019594939210610b38575b505050811b019055610730565b015160001960f88460031b161c19169055388080610b2b565b92936020600181928786015181550195019301610b15565b909150836000526020600020601f840160051c81019160208510610bb2575b90601f859493920160051c01905b818110610ba35750610704565b60008155849350600101610b96565b9091508190610b88565b0151905038806106c0565b60008581528281209350601f198516905b818110610c145750908460019594939210610bfb575b505050811b0190556106d5565b015160001960f88460031b161c19169055388080610bee565b92936020600181928786015181550195019301610bd8565b909150836000526020600020601f840160051c81019160208510610c75575b90601f859493920160051c01905b818110610c6657506106a9565b60008155849350600101610c59565b9091508190610c4b565b634e487b7160e01b600052600060045260246000fd5b015190503880610574565b9060058401600052806000209160005b601f1985168110610cfa5750918391600193600a9695601f19811610610ce1575b505050811b01600582015561058c565b015160001960f88460031b161c19169055388080610cd1565b91926020600181928685015181550194019201610cb0565b600584016000526020600020601f840160051c810160208510610d52575b601f830160051c82018110610d46575050610557565b60008155600101610d30565b5080610d30565b0151905038806104bd565b92506003840160005280600020906000935b601f1984168510610dba576001945083601f19811610610da1575b505050811b0160038201556104d5565b015160001960f88460031b161c19169055388080610d91565b81810151835560209485019460019093019290910190610d76565b909150600384016000526020600020601f840160051c810160208510610e21575b90849392915b601f830160051c82018110610e125750506104a6565b60008155859450600101610dfc565b5080610df6565b015190503880610460565b92506002840160005280600020906000935b601f1984168510610e89576001945083601f19811610610e70575b505050811b016002820155610478565b015160001960f88460031b161c19169055388080610e60565b81810151835560209485019460019093019290910190610e45565b909150600284016000526020600020601f840160051c810160208510610ef0575b90849392915b601f830160051c82018110610ee1575050610449565b60008155859450600101610ecb565b5080610ec5565b015190503880610403565b92506001840160005280600020906000935b601f1984168510610f58576001945083601f19811610610f3f575b505050811b01600182015561041b565b015160001960f88460031b161c19169055388080610f2f565b81810151835560209485019460019093019290910190610f14565b909150600184016000526020600020601f840160051c810160208510610fbf575b90849392915b601f830160051c82018110610fb05750506103ec565b60008155859450600101610f9a565b5080610f94565b60405162461bcd60e51b81526020600482015260116024820152702ab739bab83837b93a32b2103a37b5b2b760791b6044820152606490fd5b60405162461bcd60e51b8152602060048201526012602482015271111d5c985d1a5bdb881d1bdbc81cda1bdc9d60721b6044820152606490fd5b60405162461bcd60e51b815260206004820152601960248201527f53746172742064617465206d75737420626520667574757265000000000000006044820152606490fd5b60405162461bcd60e51b815260206004820152600d60248201526c24b73b30b634b2103a37b5b2b760991b6044820152606490fd5b60405162461bcd60e51b815260206004820152600d60248201526c496e76616c696420707269636560981b6044820152606490fd5b5069d3c21bcecceda10000008a11156102a1565b60405162461bcd60e51b815260206004820152601060248201526f24b73b30b634b2103637b1b0ba34b7b760811b6044820152606490fd5b506096881115610293565b60405162461bcd60e51b815260206004820152600f60248201526e496e76616c69642064657461696c7360881b6044820152606490fd5b506103e8821115610285565b60405162461bcd60e51b815260206004820152600b60248201526a125b9d985b1a590815549360aa1b6044820152606490fd5b5060c88c1115610277565b60405162461bcd60e51b815260206004820152600c60248201526b496e76616c6964206e616d6560a01b6044820152606490fd5b6064915011158e610268565b600080fd5b34611200576020366003190112611200576004356112266003548210613279565b600052600460205261125261123e60406000206132b8565b604051918291602083526020830190612bf5565b0390f35b34611200576000366003190112611200576003546000805b82811061132e575061128861128282612de6565b91612e90565b916000805b8281106112a65750505061125260405192839283612b5f565b6112af81612840565b50546001600160a01b0316331480611317575b6112cf575b60010161128d565b9061130f81836112e160019488612ee0565b526112f46112ee85612840565b50612ef4565b6112fe8289612ee0565b526113098188612ee0565b50612dc0565b9190506112c7565b5060ff600661132583612840565b500154166112c2565b61133781612840565b50546001600160a01b031633148061136b575b611357575b60010161126e565b90611363600191612dc0565b91905061134f565b5060ff600661137983612840565b5001541661134a565b3461120057600036600319011261120057602060405160c88152f35b34611200576000366003190112611200576003546000805b82811061142057506113ca61128282612de6565b916000805b8281106113e85750505061125260405192839283612b5f565b60ff60066113f583612840565b50015416611406575b6001016113cf565b9061141881836112e160019488612ee0565b9190506113fe565b60ff600661142d83612840565b5001541661143e575b6001016113b6565b9061144a600191612dc0565b919050611436565b346112005760203660031901126112005760043561146e612e18565b5060035481101561150857806112526114896114ec93612840565b508260005260046020526114a1604060002093612840565b5060018060a01b0390541660005260056020526114fa6114d76114d16114cb604060002094612ef4565b956132b8565b92612ffc565b916040519586956060875260608701906129ed565b908582036020870152612bf5565b908382036040850152612b06565b60405162461bcd60e51b8152602060048201526014602482015273115d995b9d08191bd95cc81b9bdd08195e1a5cdd60621b6044820152606490fd5b3461120057600036600319011261120057602060405169d3c21bcecceda10000008152f35b3461120057600036600319011261120057602060405160968152f35b346112005760603660031901126112005761159e612bb2565b602435906044356001600160401b038111611200576115c1903690600401612bc8565b7362b8b11039fcfe5ab0c56e502b1c372a3d2a9c7a33036118c3576020116112005735906115f26003548310612c32565b6116106115fe83612840565b50546001600160a01b03161515612c6e565b61161f60ff6002541615612cb0565b61162882612840565b5090600a82017362b8b11039fcfe5ab0c56e502b1c372a3d2a9c7a60018060a01b03825460101c160361188a5761166d6001600160401b036004850154164210613093565b61167d60ff6006850154166130cf565b836000526006602052604060002060018060a01b0383166000526020526116ac60ff604060002054161561310c565b8360005260046020526116c76113886040600020541061314c565b6007830154850361185257836000526006602052604060002060018060a01b0383166000526020526040600020600160ff19825416179055836000526004602052611716826040600020613225565b60648502858104606414861517156109495761271090046117378187612d71565b908015158061183b575b611793575b5061176560086000805160206135bd833981519152950191825461326c565b905554604080519586526001600160a01b0360109290921c82166020870152911693a3602060405160018152f35b825460025460405163a9059cbb60e01b81526001600160a01b0360089290921c8216600482015260248101939093526020918391604491839160009160101c165af1801561182f576000805160206135bd8339815191529561176592600892611800575b50955050611746565b6118219060203d602011611828575b61181981836128e7565b8101906131d1565b50896117f7565b503d61180f565b6040513d6000823e3d90fd5b5060025460081c6001600160a01b03161515611741565b60405162461bcd60e51b815260206004820152601060248201526f125b98dbdc9c9958dd08185b5bdd5b9d60821b6044820152606490fd5b60405162461bcd60e51b815260206004820152601160248201527027b7363c903337b9102392103a37b5b2b760791b6044820152606490fd5b60405162461bcd60e51b815260206004820152600d60248201526c27b7363c902392103a37b5b2b760991b6044820152606490fd5b3461120057602036600319011261120057600435611914613352565b6119216003548210612c32565b61192d6115fe82612840565b61193c60ff6002541615612cb0565b60008181526006602090815260408083203384529091529020546119629060ff16612cee565b600761196d82612840565b5001547362b8b11039fcfe5ab0c56e502b1c372a3d2a9c7a61198e83612840565b50600a015460101c6001600160a01b031614611a1f575b6119be8160086119b485612840565b5001541015612d30565b60ff600a6119cb84612840565b50015416156119e5575b6119de91613374565b6001600055005b6001600160401b0360046119f884612840565b500154169161464f19830192831161094957611a186119de934210612d7e565b91506119d5565b60638102908082046063149015171561094957606490046119a5565b346112005760003660031901126112005760025460405160089190911c6001600160a01b03168152602090f35b3461120057600036600319011261120057602060405160648152f35b346112005760003660031901126112005760206040516146508152f35b34611200576020366003190112611200576001600160a01b03611ac2612bb2565b166000526001602052602060ff604060002054166040519015158152f35b3461120057602036600319011261120057600435611afc613352565b611b096003548210612c32565b611b156115fe82612840565b611b2460ff6002541615612cb0565b611b2d81612840565b5090611b476001600160401b036004840154164210613093565b611b5760ff6006840154166130cf565b6000818152600660209081526040808320338452909152902054611b7e9060ff161561310c565b806000526004602052611b996113886040600020541061314c565b6007820154600a8301805491939160101c6001600160a01b03167362b8b11039fcfe5ab0c56e502b1c372a3d2a9c7a8103611cf45750906000916020611c1f6040518683820152828152611bee6040826128e7565b8354604051630200057560e51b815296879360109290921c6001600160a01b031692849283918c30600485016131e9565b03925af191821561182f576000805160206135bd83398151915293611ccd93611cd7575b50611c606008611c566064890489612d71565b920191825461326c565b90555b836000526006602052604060002060018060a01b0333166000526020526040600020600160ff19825416179055836000526004602052611ca7336040600020613225565b546040805195865260109190911c6001600160a01b031660208601523394918291820190565b0390a36001600055005b611cef9060203d6020116118285761181981836128e7565b611c43565b604051636eb1769f60e11b815233600482015230602482015290602082604481845afa801561182f578692600091611d6b575b5093611d5883600893611d4f611ccd97966000805160206135bd83398151915299101561318c565b30903390613566565b01611d6486825461326c565b9055611c63565b91939250506020813d602011611d9e575b81611d89602093836128e7565b81010312611200575190918591611d58611d27565b3d9150611d7c565b346112005760003660031901126112005760206040516113888152f35b34611200576000366003190112611200576020600354604051908152f35b3461120057600036600319011261120057602060ff600254166040519015158152f35b346112005760003660031901126112005760206040516103e88152f35b3461120057602036600319011261120057600435611e53611e4182612840565b50546001600160a01b03163314613055565b611e5b613352565b611e686003548210613279565b6001600160401b036004611e7b83612840565b50015460401c1642111561206b5760ff600a611e9683612840565b500154166120145760ff600a611eab83612840565b50015460081c16611fd6576008611ec182612840565b50015460006008611ed184612840565b500155600a611edf83612840565b5001805461ff001916610100179055611ef782612840565b50600a015460405163a9059cbb60e01b81523360048201526024810183905290602090829060101c6001600160a01b0316816000816044810103925af190811561182f57600091611fb7575b5015611f7b5760207f80230996023d69b50793fa73f1919127c9d8e741d3989743c479169f22e7a28891604051908152a26001600055005b60405162461bcd60e51b8152602060048201526014602482015273119d5b99081d1c985b9cd9995c8819985a5b195960621b6044820152606490fd5b611fd0915060203d6020116118285761181981836128e7565b83611f43565b60405162461bcd60e51b8152602060048201526016602482015275119d5b991cc8185b1c9958591e481c995b19585cd95960521b6044820152606490fd5b60405162461bcd60e51b815260206004820152602960248201527f43616e6e6f742072656c656173652066756e647320666f7220612063616e63656044820152681b195908195d995b9d60ba1b6064820152608490fd5b60405162461bcd60e51b815260206004820152601760248201527f4576656e7420686173206e6f7420656e646564207965740000000000000000006044820152606490fd5b34611200576040366003190112611200576024356001600160a01b038116810361120057600435600052600660205260406000209060018060a01b0316600052602052602060ff604060002054166040519015158152f35b3461120057602036600319011261120057600435612124613352565b6121316003548210612c32565b61213d6115fe82612840565b61214c60ff6002541615612cb0565b61215581612840565b509061216f6001600160401b036004840154164210613093565b61217f60ff6006840154166130cf565b60008181526006602090815260408083203384529091529020546121a69060ff161561310c565b8060005260046020526121c16113886040600020541061314c565b6007820154600a8301805491939160101c6001600160a01b03167362b8b11039fcfe5ab0c56e502b1c372a3d2a9c7a81036123055750600090602061224660405186838201528281526122156040826128e7565b8354604051630200057560e51b815295869360109290921c6001600160a01b031692849283918c30600485016131e9565b03925af1801561182f576000805160206135bd83398151915293611ccd936008926122e6575b505b856000526006602052604060002060018060a01b0333166000526020526040600020600160ff198254161790558560005260046020526122b2336040600020613225565b016122be86825461326c565b9055546040805195865260109190911c6001600160a01b031660208601523394918291820190565b6122fe9060203d6020116118285761181981836128e7565b508761226c565b604051636eb1769f60e11b815233600482015230602482015290602082604481845afa801561182f578692600091612365575b509361236083600893611d4f611ccd97966000805160206135bd83398151915299101561318c565b61226e565b91939250506020813d602011612398575b81612383602093836128e7565b81010312611200575190918591612360612338565b3d9150612376565b34611200576020366003190112611200576004356123c0611e4182612840565b6123cd6003548210612c32565b6123d96115fe82612840565b6123e860ff6002541615612cb0565b60ff60066123f583612840565b500154161561245257600661240982612840565b5001805460ff19169055600a61241e82612840565b5001805460ff191660011790557fceaf11772900fe569752a0207c8639fb8228eb8663456dc9eaa3a08f927a8705600080a2005b60405162461bcd60e51b815260206004820152601060248201526f105b1c9958591e4818d85b98d95b195960821b6044820152606490fd5b34611200576020366003190112611200576001600160a01b036124ab612bb2565b1660005260056020526112526124c46040600020612ffc565b604051918291602083526020830190612b06565b34611200576000366003190112611200576020604051610e108152f35b34611200576000366003190112611200576003543390600090815b8181106125ac575061252a61252483612de6565b92612e90565b92600090815b8381106125465760405180611252888883612b5f565b80600052600660205260ff604080600020600090858252602052205416612570575b600101612530565b916125a4818461258260019489612ee0565b5261258f6112ee86612840565b612599828a612ee0565b526113098189612ee0565b929050612568565b80600052600660205260ff6040806000206000908782526020522054166125d6575b600101612510565b916125e2600191612dc0565b9290506125ce565b3461120057602036600319011261120057600435612606613352565b6126136003548210612c32565b61261f6115fe82612840565b61262e60ff6002541615612cb0565b60008181526006602090815260408083203384529091529020546126549060ff16612cee565b600761265f82612840565b5001547362b8b11039fcfe5ab0c56e502b1c372a3d2a9c7a61268083612840565b50600a015460101c6001600160a01b0316146126bd575b6119be60086126a584612840565b50015460076126b385612840565b5001541115612d30565b6063810290808204606314901517156109495760649004612697565b34611200576020366003190112611200576004356003548110156112005761270090612840565b5080546001600160a01b031661271860018301612908565b9161272560028201612908565b61273160038301612908565b6004830154929061274460058301612908565b93600683015460ff1694600784015491600885015493600986015495600a0154966040519a8b9a8b5260208b0161020090526102008b01612784916129ac565b8a810360408c0152612795916129ac565b89810360608b01526127a6916129ac565b906001600160401b03811660808a01528060401c6001600160401b031660a08a01528060801c6001600160401b031660c08a015260c01c60e08901528781036101008901526127f4916129ac565b94151561012087015261014086015261016085015261018084015260ff81811615156101a0850152600882901c1615156101c084015260101c6001600160a01b03166101e08301520390f35b60035481101561285f576003600052600b602060002091020190600090565b634e487b7160e01b600052603260045260246000fd5b805482101561285f57600052600b602060002091020190600090565b90600182811c921680156128c1575b60208310146128ab57565b634e487b7160e01b600052602260045260246000fd5b91607f16916128a0565b61020081019081106001600160401b03821117610a2057604052565b90601f801991011681019081106001600160401b03821117610a2057604052565b906040519182600082549261291c84612891565b808452936001811690811561298a5750600114612943575b50612941925003836128e7565b565b90506000929192526020600020906000915b81831061296e5750509060206129419282010138612934565b6020919350806001915483858901015201910190918492612955565b90506020925061294194915060ff191682840152151560051b82010138612934565b919082519283825260005b8481106129d8575050826000602080949584010152601f8019910116010190565b806020809284010151828286010152016129b7565b9060018060a01b0382511681526101e0612aa5612a45612a33612a21602087015161020060208801526102008701906129ac565b604087015186820360408801526129ac565b606086015185820360608701526129ac565b6001600160401b0360808601511660808501526001600160401b0360a08601511660a08501526001600160401b0360c08601511660c08501526001600160401b0360e08601511660e08501526101008501518482036101008601526129ac565b9261012081015115156101208401526101408101516101408401526101608101516101608401526101808101516101808401526101a081015115156101a08401526101c081015115156101c08401528160018060a01b039101511691015290565b9080602083519182815201916020808360051b8301019401926000915b838310612b3257505050505090565b9091929394602080612b50600193601f1986820301875289516129ed565b97019301930191939290612b23565b9291604084019360408152825180955260206060820193016000955b808710612b9a575050612b979394506020818403910152612b06565b90565b90936020806001928751815201950196019590612b7b565b600435906001600160a01b038216820361120057565b9181601f84011215611200578235916001600160401b038311611200576020838186019501011161120057565b906020808351928381520192019060005b818110612c135750505090565b82516001600160a01b0316845260209384019390920191600101612c06565b15612c3957565b60405162461bcd60e51b815260206004820152600d60248201526c125b9d985b1a5908195d995b9d609a1b6044820152606490fd5b15612c7557565b60405162461bcd60e51b8152602060048201526013602482015272115d995b9d08191bd95cdb89dd08195e1a5cdd606a1b6044820152606490fd5b15612cb757565b60405162461bcd60e51b815260206004820152600f60248201526e10dbdb9d1c9858dd081c185d5cd959608a1b6044820152606490fd5b15612cf557565b60405162461bcd60e51b8152602060048201526013602482015272139bc81d1a58dad95d081c1d5c98da185cd959606a1b6044820152606490fd5b15612d3757565b60405162461bcd60e51b8152602060048201526012602482015271496e73756666696369656e742066756e647360701b6044820152606490fd5b9190820391821161094957565b15612d8557565b60405162461bcd60e51b81526020600482015260136024820152721499599d5b99081c195c9a5bd908195b991959606a1b6044820152606490fd5b60001981146109495760010190565b6001600160401b038111610a205760051b60200190565b90612df082612dcf565b612dfd60405191826128e7565b8281528092612e0e601f1991612dcf565b0190602036910137565b60405190612e25826128cb565b60006101e08382815260606020820152606060408201526060808201528260808201528260a08201528260c08201528260e0820152606061010082015282610120820152826101408201528261016082015282610180820152826101a0820152826101c08201520152565b90612e9a82612dcf565b612ea760405191826128e7565b8281528092612eb8601f1991612dcf565b019060005b828110612ec957505050565b602090612ed4612e18565b82828501015201612ebd565b805182101561285f5760209160051b010190565b90604051612f01816128cb565b82546001600160a01b031681529182906101e090600a90612f2460018201612908565b6020850152612f3560028201612908565b6040850152612f4660038201612908565b606085015260048101546001600160401b03811660808601526001600160401b038160401c1660a08601526001600160401b038160801c1660c086015260c01c60e0850152612f9760058201612908565b61010085015260ff6006820154161515610120850152600781015461014085015260088101546101608501526009810154610180850152015460ff811615156101a084015260ff8160081c1615156101c084015260018060a01b039060101c16910152565b90815461300881612dcf565b9261301660405194856128e7565b818452602084019060005260206000206000915b8383106130375750505050565b600b602060019261304785612ef4565b81520192019201919061302a565b1561305c57565b60405162461bcd60e51b815260206004820152600f60248201526e2737ba1032bb32b73a1037bbb732b960891b6044820152606490fd5b1561309a57565b60405162461bcd60e51b815260206004820152600d60248201526c115d995b9d08195e1c1a5c9959609a1b6044820152606490fd5b156130d657565b60405162461bcd60e51b815260206004820152600e60248201526d4576656e7420696e61637469766560901b6044820152606490fd5b1561311357565b60405162461bcd60e51b8152602060048201526011602482015270105b1c9958591e481c1d5c98da185cd959607a1b6044820152606490fd5b1561315357565b60405162461bcd60e51b81526020600482015260116024820152704576656e7420617420636170616369747960781b6044820152606490fd5b1561319357565b60405162461bcd60e51b8152602060048201526016602482015275496e73756666696369656e7420616c6c6f77616e636560501b6044820152606490fd5b90816020910312611200575180151581036112005790565b612b97939260609260018060a01b03168252602082015281604082015201906129ac565b805482101561285f5760005260206000200190600090565b90815491600160401b831015610a2057826132489160016129419501815561320d565b81546001600160a01b0393841660039290921b91821b9390911b1916919091179055565b9190820180921161094957565b1561328057565b60405162461bcd60e51b815260206004820152601060248201526f125b9d985b1a5908195d995b9d08125160821b6044820152606490fd5b906040519182815491828252602082019060005260206000209260005b8181106132ea575050612941925003836128e7565b84546001600160a01b03168352600194850194879450602090930192016132d5565b9291926001600160401b038211610a205760405191613335601f8201601f1916602001846128e7565b829481845281830111611200578281602093846000960137010152565b600260005414613363576002600055565b633ee5aeb560e01b60005260046000fd5b60008181526006602090815260408083203384529091529020805460ff191690559060086133a183612840565b50016133ae828254612d71565b905581600052600460205260406000209160005b83548082101561351e576133d6828661320d565b905460039190911b1c6001600160a01b031633146133f757506001016133c2565b9293919260001981019190821161094957613248613418613431938561320d565b905460039190911b1c6001600160a01b0316918461320d565b80548015613508576000190190613448828261320d565b81549060018060a01b039060031b1b19169055555b61346681612840565b50600a015460405163a9059cbb60e01b81523360048201526024810184905290602090829060101c6001600160a01b0316816000816044810103925af1801561182f576134bb916000916134e9575b50613528565b6040519182527f7a482fdeb6bc9a1376f597068a214a7a39472bb2eff1b8cad21ba04f49ddca1b60203393a3565b613502915060203d6020116118285761181981836128e7565b386134b5565b634e487b7160e01b600052603160045260246000fd5b505090915061345d565b1561352f57565b60405162461bcd60e51b815260206004820152600f60248201526e151c985b9cd9995c8819985a5b1959608a1b6044820152606490fd5b6040516323b872dd60e01b81526001600160a01b03928316600482015292821660248401526044830193909352909160209183916064918391600091165af1801561182f57612941916000916134e9575061352856fe504ef6dabca28c1452704d54bd8e25708d87e0c27d852eceea53a0c0d8986758a2646970667358221220ac87f3da2ae9a08f3d7f8dbaee29b5e1f19dabbaf71cce1bae6d6b851112a53b64736f6c634300081c0033",
          "opcodes": "PUSH1 0x80 PUSH1 0x40 MSTORE CALLVALUE PUSH2 0x11F JUMPI PUSH2 0x3772 DUP1 CODESIZE SUB DUP1 PUSH2 0x19 DUP2 PUSH2 0x13A JUMP JUMPDEST SWAP3 DUP4 CODECOPY DUP2 ADD SWAP1 PUSH1 0x20 DUP2 DUP4 SUB SLT PUSH2 0x11F JUMPI DUP1 MLOAD SWAP1 PUSH1 0x1 PUSH1 0x1 PUSH1 0x40 SHL SUB DUP3 GT PUSH2 0x11F JUMPI ADD DUP2 PUSH1 0x1F DUP3 ADD SLT ISZERO PUSH2 0x11F JUMPI DUP1 MLOAD SWAP2 PUSH1 0x1 PUSH1 0x1 PUSH1 0x40 SHL SUB DUP4 GT PUSH2 0x124 JUMPI DUP3 PUSH1 0x5 SHL SWAP2 PUSH1 0x20 DUP1 PUSH2 0x6A DUP2 DUP7 ADD PUSH2 0x13A JUMP JUMPDEST DUP1 SWAP7 DUP2 MSTORE ADD SWAP4 DUP3 ADD ADD SWAP2 DUP3 GT PUSH2 0x11F JUMPI PUSH1 0x20 ADD SWAP2 JUMPDEST DUP2 DUP4 LT PUSH2 0xFF JUMPI PUSH1 0x1 PUSH1 0x0 SWAP1 DUP2 SSTORE PUSH1 0x2 DUP1 SLOAD PUSH2 0x100 PUSH1 0x1 PUSH1 0xA8 SHL SUB NOT AND PUSH21 0x43D72FF17701B2DA814620735C39C620CE0EA4A100 OR SWAP1 SSTORE DUP5 SWAP1 JUMPDEST DUP2 MLOAD DUP2 LT ISZERO PUSH2 0xF0 JUMPI PUSH1 0x1 SWAP1 PUSH1 0x40 PUSH1 0x0 DUP4 DUP1 PUSH1 0xA0 SHL SUB PUSH1 0x20 DUP5 PUSH1 0x5 SHL DUP8 ADD ADD MLOAD AND DUP2 MSTORE DUP4 PUSH1 0x20 MSTORE KECCAK256 DUP3 PUSH1 0xFF NOT DUP3 SLOAD AND OR SWAP1 SSTORE ADD PUSH2 0xB8 JUMP JUMPDEST PUSH1 0x40 MLOAD PUSH2 0x3612 SWAP1 DUP2 PUSH2 0x160 DUP3 CODECOPY RETURN JUMPDEST DUP3 MLOAD PUSH1 0x1 PUSH1 0x1 PUSH1 0xA0 SHL SUB DUP2 AND DUP2 SUB PUSH2 0x11F JUMPI DUP2 MSTORE PUSH1 0x20 SWAP3 DUP4 ADD SWAP3 ADD PUSH2 0x7F JUMP JUMPDEST PUSH1 0x0 DUP1 REVERT JUMPDEST PUSH4 0x4E487B71 PUSH1 0xE0 SHL PUSH1 0x0 MSTORE PUSH1 0x41 PUSH1 0x4 MSTORE PUSH1 0x24 PUSH1 0x0 REVERT JUMPDEST PUSH1 0x40 MLOAD SWAP2 SWAP1 PUSH1 0x1F ADD PUSH1 0x1F NOT AND DUP3 ADD PUSH1 0x1 PUSH1 0x1 PUSH1 0x40 SHL SUB DUP2 GT DUP4 DUP3 LT OR PUSH2 0x124 JUMPI PUSH1 0x40 MSTORE JUMP INVALID PUSH1 0x80 PUSH1 0x40 MSTORE PUSH1 0x4 CALLDATASIZE LT ISZERO PUSH2 0x12 JUMPI PUSH1 0x0 DUP1 REVERT JUMPDEST PUSH1 0x0 CALLDATALOAD PUSH1 0xE0 SHR DUP1 PUSH4 0xB791430 EQ PUSH2 0x26D9 JUMPI DUP1 PUSH4 0xEC7C3FF EQ PUSH2 0x25EA JUMPI DUP1 PUSH4 0xF977561 EQ PUSH2 0x24F5 JUMPI DUP1 PUSH4 0x1AC78969 EQ PUSH2 0x24D8 JUMPI DUP1 PUSH4 0x20020581 EQ PUSH2 0x248A JUMPI DUP1 PUSH4 0x3F69BABD EQ PUSH2 0x23A0 JUMPI DUP1 PUSH4 0x402F979D EQ PUSH2 0x2108 JUMPI DUP1 PUSH4 0x439FD35F EQ PUSH2 0x20B0 JUMPI DUP1 PUSH4 0x4D68282F EQ PUSH2 0x1E21 JUMPI DUP1 PUSH4 0x50D9C62D EQ PUSH2 0x1E04 JUMPI DUP1 PUSH4 0x5C975ABB EQ PUSH2 0x1DE1 JUMPI DUP1 PUSH4 0x5C98DFA1 EQ PUSH2 0x1DC3 JUMPI DUP1 PUSH4 0x617148E5 EQ PUSH2 0x1DA6 JUMPI DUP1 PUSH4 0x67DD74CA EQ PUSH2 0x1AE0 JUMPI DUP1 PUSH4 0x68C4AC26 EQ PUSH2 0x1AA1 JUMPI DUP1 PUSH4 0x7B426CBF EQ PUSH2 0x1A84 JUMPI DUP1 PUSH4 0x86074985 EQ PUSH2 0x1A68 JUMPI DUP1 PUSH4 0xA06F7DA7 EQ PUSH2 0x1A3B JUMPI DUP1 PUSH4 0xA4B2409E EQ PUSH2 0x18F8 JUMPI DUP1 PUSH4 0xA4C0ED36 EQ PUSH2 0x1585 JUMPI DUP1 PUSH4 0xABF45EC8 EQ PUSH2 0x1569 JUMPI DUP1 PUSH4 0xB5E41287 EQ PUSH2 0x1544 JUMPI DUP1 PUSH4 0xB98079BC EQ PUSH2 0x1452 JUMPI DUP1 PUSH4 0xC27A500D EQ PUSH2 0x139E JUMPI DUP1 PUSH4 0xCB71146E EQ PUSH2 0x1382 JUMPI DUP1 PUSH4 0xCCFD6D3C EQ PUSH2 0x1256 JUMPI DUP1 PUSH4 0xE0C14377 EQ PUSH2 0x1205 JUMPI PUSH4 0xF57C7AD8 EQ PUSH2 0x150 JUMPI PUSH1 0x0 DUP1 REVERT JUMPDEST CALLVALUE PUSH2 0x1200 JUMPI PUSH2 0x160 CALLDATASIZE PUSH1 0x3 NOT ADD SLT PUSH2 0x1200 JUMPI PUSH1 0x4 CALLDATALOAD PUSH1 0x1 PUSH1 0x1 PUSH1 0x40 SHL SUB DUP2 GT PUSH2 0x1200 JUMPI PUSH2 0x181 SWAP1 CALLDATASIZE SWAP1 PUSH1 0x4 ADD PUSH2 0x2BC8 JUMP JUMPDEST SWAP1 PUSH1 0x24 CALLDATALOAD PUSH1 0x1 PUSH1 0x1 PUSH1 0x40 SHL SUB DUP2 GT PUSH2 0x1200 JUMPI PUSH2 0x1A1 SWAP1 CALLDATASIZE SWAP1 PUSH1 0x4 ADD PUSH2 0x2BC8 JUMP JUMPDEST SWAP1 PUSH1 0x44 CALLDATALOAD PUSH1 0x1 PUSH1 0x1 PUSH1 0x40 SHL SUB DUP2 GT PUSH2 0x1200 JUMPI PUSH2 0x1C1 SWAP1 CALLDATASIZE SWAP1 PUSH1 0x4 ADD PUSH2 0x2BC8 JUMP JUMPDEST SWAP1 PUSH1 0x64 CALLDATALOAD PUSH1 0x1 PUSH1 0x1 PUSH1 0x40 SHL SUB DUP2 AND DUP1 SWAP2 SUB PUSH2 0x1200 JUMPI PUSH1 0x84 CALLDATALOAD PUSH1 0x1 PUSH1 0x1 PUSH1 0x40 SHL SUB DUP2 AND DUP1 SWAP2 SUB PUSH2 0x1200 JUMPI PUSH1 0xA4 CALLDATALOAD PUSH1 0x1 PUSH1 0x1 PUSH1 0x40 SHL SUB DUP2 AND DUP1 SWAP2 SUB PUSH2 0x1200 JUMPI PUSH1 0xC4 CALLDATALOAD SWAP2 PUSH1 0x1 PUSH1 0x1 PUSH1 0x40 SHL SUB DUP4 AND DUP1 SWAP4 SUB PUSH2 0x1200 JUMPI PUSH1 0xE4 CALLDATALOAD PUSH1 0x1 PUSH1 0x1 PUSH1 0x40 SHL SUB DUP2 GT PUSH2 0x1200 JUMPI PUSH2 0x232 SWAP1 CALLDATASIZE SWAP1 PUSH1 0x4 ADD PUSH2 0x2BC8 JUMP JUMPDEST SWAP5 SWAP1 SWAP6 PUSH2 0x104 CALLDATALOAD SWAP8 PUSH2 0x144 CALLDATALOAD SWAP10 PUSH1 0x1 DUP1 PUSH1 0xA0 SHL SUB DUP12 AND DUP1 SWAP12 SUB PUSH2 0x1200 JUMPI PUSH2 0x25E PUSH1 0xFF PUSH1 0x2 SLOAD AND ISZERO PUSH2 0x2CB0 JUMP JUMPDEST DUP14 ISZERO ISZERO DUP15 DUP2 PUSH2 0x11F4 JUMPI JUMPDEST POP ISZERO PUSH2 0x11C0 JUMPI DUP12 ISZERO ISZERO DUP1 PUSH2 0x11B5 JUMPI JUMPDEST ISZERO PUSH2 0x1182 JUMPI DUP2 ISZERO ISZERO DUP1 PUSH2 0x1176 JUMPI JUMPDEST ISZERO PUSH2 0x113F JUMPI DUP8 ISZERO ISZERO DUP1 PUSH2 0x1134 JUMPI JUMPDEST ISZERO PUSH2 0x10FC JUMPI DUP10 ISZERO ISZERO DUP1 PUSH2 0x10E8 JUMPI JUMPDEST ISZERO PUSH2 0x10B3 JUMPI DUP11 ISZERO PUSH2 0x107E JUMPI TIMESTAMP DUP5 LT PUSH2 0x1039 JUMPI PUSH2 0xE10 DUP5 ADD DUP1 DUP6 GT PUSH2 0x949 JUMPI DUP6 LT PUSH2 0xFFF JUMPI DUP11 PUSH1 0x0 MSTORE PUSH1 0x1 PUSH1 0x20 MSTORE PUSH1 0xFF PUSH1 0x40 PUSH1 0x0 KECCAK256 SLOAD AND ISZERO PUSH2 0xFC6 JUMPI DUP13 SWAP12 DUP15 PUSH1 0x40 MLOAD SWAP14 DUP15 SWAP2 PUSH2 0x2EE DUP4 PUSH2 0x28CB JUMP JUMPDEST CALLER DUP4 MSTORE CALLDATASIZE SWAP1 PUSH2 0x2FC SWAP3 PUSH2 0x330C JUMP JUMPDEST SWAP1 PUSH1 0x20 ADD MSTORE CALLDATASIZE SWAP1 PUSH2 0x30C SWAP3 PUSH2 0x330C JUMP JUMPDEST PUSH1 0x40 DUP13 ADD MSTORE CALLDATASIZE SWAP1 PUSH2 0x31C SWAP3 PUSH2 0x330C JUMP JUMPDEST PUSH1 0x60 DUP11 ADD MSTORE PUSH1 0x80 DUP10 ADD MSTORE PUSH1 0xA0 DUP9 ADD MSTORE PUSH1 0xC0 DUP8 ADD MSTORE PUSH1 0xE0 DUP7 ADD MSTORE CALLDATASIZE SWAP1 PUSH2 0x340 SWAP3 PUSH2 0x330C JUMP JUMPDEST PUSH2 0x100 DUP5 ADD MSTORE PUSH1 0x1 PUSH2 0x120 DUP5 ADD MSTORE PUSH2 0x140 DUP4 ADD MSTORE PUSH1 0x0 PUSH2 0x160 DUP4 ADD DUP2 SWAP1 MSTORE PUSH2 0x124 CALLDATALOAD PUSH2 0x180 DUP5 ADD MSTORE PUSH2 0x1A0 DUP4 ADD DUP2 SWAP1 MSTORE PUSH2 0x1C0 DUP4 ADD MSTORE PUSH2 0x1E0 DUP3 ADD MSTORE PUSH1 0x3 SLOAD PUSH1 0x1 PUSH1 0x40 SHL DUP2 LT ISZERO PUSH2 0xA20 JUMPI DUP1 PUSH1 0x1 PUSH2 0x39D SWAP3 ADD PUSH1 0x3 SSTORE PUSH1 0x3 PUSH2 0x2875 JUMP JUMPDEST PUSH2 0xC7F JUMPI DUP2 MLOAD DUP2 SLOAD PUSH1 0x1 PUSH1 0x1 PUSH1 0xA0 SHL SUB NOT AND PUSH1 0x1 PUSH1 0x1 PUSH1 0xA0 SHL SUB SWAP2 SWAP1 SWAP2 AND OR DUP2 SSTORE PUSH1 0x20 DUP3 ADD MLOAD DUP1 MLOAD SWAP1 PUSH1 0x1 PUSH1 0x1 PUSH1 0x40 SHL SUB DUP3 GT PUSH2 0xA20 JUMPI DUP2 SWAP1 PUSH2 0x3E3 PUSH1 0x1 DUP6 ADD SLOAD PUSH2 0x2891 JUMP JUMPDEST PUSH1 0x1F DUP2 GT PUSH2 0xF73 JUMPI JUMPDEST POP PUSH1 0x20 SWAP1 PUSH1 0x1F DUP4 GT PUSH1 0x1 EQ PUSH2 0xF02 JUMPI PUSH1 0x0 SWAP3 PUSH2 0xEF7 JUMPI JUMPDEST POP POP DUP2 PUSH1 0x1 SHL SWAP2 PUSH1 0x0 NOT SWAP1 PUSH1 0x3 SHL SHR NOT AND OR PUSH1 0x1 DUP3 ADD SSTORE JUMPDEST PUSH1 0x40 DUP3 ADD MLOAD DUP1 MLOAD SWAP1 PUSH1 0x1 PUSH1 0x1 PUSH1 0x40 SHL SUB DUP3 GT PUSH2 0xA20 JUMPI DUP2 SWAP1 PUSH2 0x440 PUSH1 0x2 DUP6 ADD SLOAD PUSH2 0x2891 JUMP JUMPDEST PUSH1 0x1F DUP2 GT PUSH2 0xEA4 JUMPI JUMPDEST POP PUSH1 0x20 SWAP1 PUSH1 0x1F DUP4 GT PUSH1 0x1 EQ PUSH2 0xE33 JUMPI PUSH1 0x0 SWAP3 PUSH2 0xE28 JUMPI JUMPDEST POP POP DUP2 PUSH1 0x1 SHL SWAP2 PUSH1 0x0 NOT SWAP1 PUSH1 0x3 SHL SHR NOT AND OR PUSH1 0x2 DUP3 ADD SSTORE JUMPDEST PUSH1 0x60 DUP3 ADD MLOAD DUP1 MLOAD SWAP1 PUSH1 0x1 PUSH1 0x1 PUSH1 0x40 SHL SUB DUP3 GT PUSH2 0xA20 JUMPI DUP2 SWAP1 PUSH2 0x49D PUSH1 0x3 DUP6 ADD SLOAD PUSH2 0x2891 JUMP JUMPDEST PUSH1 0x1F DUP2 GT PUSH2 0xDD5 JUMPI JUMPDEST POP PUSH1 0x20 SWAP1 PUSH1 0x1F DUP4 GT PUSH1 0x1 EQ PUSH2 0xD64 JUMPI PUSH1 0x0 SWAP3 PUSH2 0xD59 JUMPI JUMPDEST POP POP DUP2 PUSH1 0x1 SHL SWAP2 PUSH1 0x0 NOT SWAP1 PUSH1 0x3 SHL SHR NOT AND OR PUSH1 0x3 DUP3 ADD SSTORE JUMPDEST PUSH1 0x80 DUP3 DUP2 ADD MLOAD PUSH1 0xA0 DUP5 ADD MLOAD PUSH1 0xC0 DUP1 DUP7 ADD MLOAD PUSH1 0xE0 DUP8 ADD MLOAD PUSH1 0x40 SWAP4 SWAP1 SWAP4 SHL PUSH8 0xFFFFFFFFFFFFFFFF PUSH1 0x40 SHL AND PUSH1 0x1 PUSH1 0x1 PUSH1 0x40 SHL SUB SWAP5 DUP6 AND OR SWAP5 SHL PUSH8 0xFFFFFFFFFFFFFFFF PUSH1 0x80 SHL AND SWAP4 SWAP1 SWAP4 OR SWAP3 SHL PUSH1 0x1 PUSH1 0x1 PUSH1 0xC0 SHL SUB NOT AND SWAP2 SWAP1 SWAP2 OR PUSH1 0x4 DUP4 ADD SSTORE PUSH2 0x100 DUP4 ADD MLOAD DUP1 MLOAD SWAP2 DUP3 GT PUSH2 0xA20 JUMPI PUSH2 0x54E PUSH1 0x5 DUP5 ADD SLOAD PUSH2 0x2891 JUMP JUMPDEST PUSH1 0x1F DUP2 GT PUSH2 0xD12 JUMPI JUMPDEST POP PUSH1 0x20 SWAP1 PUSH1 0x1F DUP4 GT PUSH1 0x1 EQ PUSH2 0xCA0 JUMPI PUSH1 0xA SWAP4 SWAP3 SWAP2 PUSH1 0x0 SWAP2 DUP4 PUSH2 0xC95 JUMPI JUMPDEST POP POP DUP2 PUSH1 0x1 SHL SWAP2 PUSH1 0x0 NOT SWAP1 PUSH1 0x3 SHL SHR NOT AND OR PUSH1 0x5 DUP3 ADD SSTORE JUMPDEST PUSH2 0x5AC PUSH2 0x120 DUP5 ADD MLOAD ISZERO ISZERO PUSH1 0x6 DUP4 ADD SWAP1 PUSH1 0xFF DUP1 NOT DUP4 SLOAD AND SWAP2 ISZERO ISZERO AND OR SWAP1 SSTORE JUMP JUMPDEST PUSH2 0x140 DUP4 ADD MLOAD PUSH1 0x7 DUP3 ADD SSTORE PUSH2 0x160 DUP4 ADD MLOAD PUSH1 0x8 DUP3 ADD SSTORE PUSH2 0x180 DUP4 ADD MLOAD PUSH1 0x9 DUP3 ADD SSTORE ADD PUSH2 0x5EB PUSH2 0x1A0 DUP4 ADD MLOAD ISZERO ISZERO DUP3 SWAP1 PUSH1 0xFF DUP1 NOT DUP4 SLOAD AND SWAP2 ISZERO ISZERO AND OR SWAP1 SSTORE JUMP JUMPDEST PUSH2 0x1C0 DUP3 ADD MLOAD DUP2 SLOAD PUSH2 0xFF00 NOT AND SWAP1 ISZERO ISZERO PUSH1 0x8 SHL PUSH2 0xFF00 AND OR DUP2 SSTORE PUSH2 0x1E0 DUP3 ADD MLOAD DUP2 SLOAD PUSH3 0x10000 PUSH1 0x1 PUSH1 0xB0 SHL SUB NOT AND PUSH1 0x10 SWAP2 SWAP1 SWAP2 SHL PUSH3 0x10000 PUSH1 0x1 PUSH1 0xB0 SHL SUB AND OR SWAP1 SSTORE CALLER PUSH1 0x0 SWAP1 DUP2 MSTORE PUSH1 0x5 PUSH1 0x20 MSTORE PUSH1 0x40 SWAP1 KECCAK256 DUP1 SLOAD PUSH1 0x1 PUSH1 0x40 SHL DUP2 LT ISZERO PUSH2 0xA20 JUMPI PUSH2 0x659 SWAP2 PUSH1 0x1 DUP3 ADD DUP2 SSTORE PUSH2 0x2875 JUMP JUMPDEST PUSH2 0xC7F JUMPI DUP2 MLOAD DUP2 SLOAD PUSH1 0x1 PUSH1 0x1 PUSH1 0xA0 SHL SUB NOT AND PUSH1 0x1 PUSH1 0x1 PUSH1 0xA0 SHL SUB SWAP2 SWAP1 SWAP2 AND OR DUP2 SSTORE PUSH1 0x20 DUP3 ADD MLOAD DUP1 MLOAD PUSH1 0x1 DUP4 ADD SWAP2 PUSH1 0x1 PUSH1 0x1 PUSH1 0x40 SHL SUB DUP3 GT PUSH2 0xA20 JUMPI DUP2 SWAP1 PUSH2 0x6A0 DUP5 SLOAD PUSH2 0x2891 JUMP JUMPDEST PUSH1 0x1F DUP2 GT PUSH2 0xC2C JUMPI JUMPDEST POP PUSH1 0x20 SWAP1 PUSH1 0x1F DUP4 GT PUSH1 0x1 EQ PUSH2 0xBC7 JUMPI PUSH1 0x0 SWAP3 PUSH2 0xBBC JUMPI JUMPDEST POP POP DUP2 PUSH1 0x1 SHL SWAP2 PUSH1 0x0 NOT SWAP1 PUSH1 0x3 SHL SHR NOT AND OR SWAP1 SSTORE JUMPDEST PUSH1 0x2 DUP2 ADD PUSH1 0x40 DUP4 ADD MLOAD DUP1 MLOAD SWAP1 PUSH1 0x1 PUSH1 0x1 PUSH1 0x40 SHL SUB DUP3 GT PUSH2 0xA20 JUMPI DUP2 SWAP1 PUSH2 0x6FB DUP5 SLOAD PUSH2 0x2891 JUMP JUMPDEST PUSH1 0x1F DUP2 GT PUSH2 0xB69 JUMPI JUMPDEST POP PUSH1 0x20 SWAP1 PUSH1 0x1F DUP4 GT PUSH1 0x1 EQ PUSH2 0xB04 JUMPI PUSH1 0x0 SWAP3 PUSH2 0xAF9 JUMPI JUMPDEST POP POP DUP2 PUSH1 0x1 SHL SWAP2 PUSH1 0x0 NOT SWAP1 PUSH1 0x3 SHL SHR NOT AND OR SWAP1 SSTORE JUMPDEST PUSH1 0x3 DUP2 ADD PUSH1 0x60 DUP4 ADD MLOAD DUP1 MLOAD SWAP1 PUSH1 0x1 PUSH1 0x1 PUSH1 0x40 SHL SUB DUP3 GT PUSH2 0xA20 JUMPI DUP2 SWAP1 PUSH2 0x756 DUP5 SLOAD PUSH2 0x2891 JUMP JUMPDEST PUSH1 0x1F DUP2 GT PUSH2 0xAA6 JUMPI JUMPDEST POP PUSH1 0x20 SWAP1 PUSH1 0x1F DUP4 GT PUSH1 0x1 EQ PUSH2 0xA41 JUMPI PUSH1 0x0 SWAP3 PUSH2 0xA36 JUMPI JUMPDEST POP POP DUP2 PUSH1 0x1 SHL SWAP2 PUSH1 0x0 NOT SWAP1 PUSH1 0x3 SHL SHR NOT AND OR SWAP1 SSTORE JUMPDEST PUSH1 0x80 DUP3 DUP2 ADD MLOAD PUSH1 0xA0 DUP5 ADD MLOAD PUSH1 0xC0 DUP1 DUP7 ADD MLOAD PUSH1 0xE0 DUP8 ADD MLOAD PUSH1 0x40 SWAP4 SWAP1 SWAP4 SHL PUSH8 0xFFFFFFFFFFFFFFFF PUSH1 0x40 SHL AND PUSH1 0x1 PUSH1 0x1 PUSH1 0x40 SHL SUB SWAP5 DUP6 AND OR SWAP5 SHL PUSH8 0xFFFFFFFFFFFFFFFF PUSH1 0x80 SHL AND SWAP4 SWAP1 SWAP4 OR SWAP3 SHL PUSH1 0x1 PUSH1 0x1 PUSH1 0xC0 SHL SUB NOT AND SWAP2 SWAP1 SWAP2 OR PUSH1 0x4 DUP4 ADD SSTORE PUSH2 0x100 DUP4 ADD MLOAD DUP1 MLOAD PUSH1 0x5 DUP5 ADD SWAP3 SWAP1 SWAP2 SWAP1 DUP3 GT PUSH2 0xA20 JUMPI PUSH2 0x808 DUP4 SLOAD PUSH2 0x2891 JUMP JUMPDEST PUSH1 0x1F DUP2 GT PUSH2 0x9D8 JUMPI JUMPDEST POP PUSH1 0x20 SWAP1 PUSH1 0x1F DUP4 GT PUSH1 0x1 EQ PUSH2 0x96A JUMPI SWAP2 DUP1 PUSH1 0xA SWAP5 SWAP3 PUSH2 0x1E0 SWAP7 SWAP5 PUSH1 0x0 SWAP3 PUSH2 0x95F JUMPI JUMPDEST POP POP DUP2 PUSH1 0x1 SHL SWAP2 PUSH1 0x0 NOT SWAP1 PUSH1 0x3 SHL SHR NOT AND OR SWAP1 SSTORE JUMPDEST PUSH2 0x868 PUSH2 0x120 DUP6 ADD MLOAD ISZERO ISZERO PUSH1 0x6 DUP4 ADD SWAP1 PUSH1 0xFF DUP1 NOT DUP4 SLOAD AND SWAP2 ISZERO ISZERO AND OR SWAP1 SSTORE JUMP JUMPDEST PUSH2 0x140 DUP5 ADD MLOAD PUSH1 0x7 DUP3 ADD SSTORE PUSH2 0x160 DUP5 ADD MLOAD PUSH1 0x8 DUP3 ADD SSTORE PUSH2 0x180 DUP5 ADD MLOAD PUSH1 0x9 DUP3 ADD SSTORE ADD SWAP2 PUSH2 0x8A8 PUSH2 0x1A0 DUP3 ADD MLOAD ISZERO ISZERO DUP5 SWAP1 PUSH1 0xFF DUP1 NOT DUP4 SLOAD AND SWAP2 ISZERO ISZERO AND OR SWAP1 SSTORE JUMP JUMPDEST PUSH2 0x1C0 DUP2 ADD MLOAD DUP4 SLOAD PUSH2 0xFF00 NOT AND SWAP1 ISZERO ISZERO PUSH1 0x8 SHL PUSH2 0xFF00 AND OR DUP4 SSTORE ADD MLOAD DUP2 SLOAD PUSH3 0x10000 PUSH1 0x1 PUSH1 0xB0 SHL SUB NOT AND PUSH1 0x10 SWAP2 SWAP1 SWAP2 SHL PUSH3 0x10000 PUSH1 0x1 PUSH1 0xB0 SHL SUB AND OR SWAP1 SSTORE PUSH1 0x3 SLOAD PUSH1 0x0 NOT DUP2 ADD SWAP2 SWAP1 DUP3 GT PUSH2 0x949 JUMPI PUSH32 0xFC695DEA2478FB938A11068AEEDDDD7046A5FE655F136E30A325D353FE187A45 SWAP1 DUP4 PUSH1 0x40 MLOAD SWAP2 PUSH1 0x20 DUP4 MSTORE DUP2 PUSH1 0x20 DUP5 ADD MSTORE PUSH1 0x40 DUP4 ADD CALLDATACOPY PUSH1 0x0 PUSH1 0x40 DUP6 DUP4 ADD ADD MSTORE PUSH1 0x40 DUP2 CALLER SWAP6 PUSH1 0x1F DUP1 NOT SWAP2 ADD AND DUP2 ADD SUB ADD SWAP1 LOG3 STOP JUMPDEST PUSH4 0x4E487B71 PUSH1 0xE0 SHL PUSH1 0x0 MSTORE PUSH1 0x11 PUSH1 0x4 MSTORE PUSH1 0x24 PUSH1 0x0 REVERT JUMPDEST ADD MLOAD SWAP1 POP CODESIZE DUP1 PUSH2 0x833 JUMP JUMPDEST SWAP1 PUSH1 0x1F NOT DUP4 AND SWAP2 DUP5 PUSH1 0x0 MSTORE DUP2 PUSH1 0x0 KECCAK256 SWAP3 PUSH1 0x0 JUMPDEST DUP2 DUP2 LT PUSH2 0x9C0 JUMPI POP SWAP3 PUSH1 0x1 SWAP3 DUP6 SWAP3 PUSH2 0x1E0 SWAP9 SWAP7 PUSH1 0xA SWAP9 SWAP7 LT PUSH2 0x9A7 JUMPI JUMPDEST POP POP POP DUP2 SHL ADD SWAP1 SSTORE PUSH2 0x848 JUMP JUMPDEST ADD MLOAD PUSH1 0x0 NOT PUSH1 0xF8 DUP5 PUSH1 0x3 SHL AND SHR NOT AND SWAP1 SSTORE CODESIZE DUP1 DUP1 PUSH2 0x99A JUMP JUMPDEST SWAP3 SWAP4 PUSH1 0x20 PUSH1 0x1 DUP2 SWAP3 DUP8 DUP7 ADD MLOAD DUP2 SSTORE ADD SWAP6 ADD SWAP4 ADD PUSH2 0x97D JUMP JUMPDEST DUP4 PUSH1 0x0 MSTORE PUSH1 0x20 PUSH1 0x0 KECCAK256 PUSH1 0x1F DUP5 ADD PUSH1 0x5 SHR DUP2 ADD SWAP2 PUSH1 0x20 DUP6 LT PUSH2 0xA16 JUMPI JUMPDEST PUSH1 0x1F ADD PUSH1 0x5 SHR ADD SWAP1 JUMPDEST DUP2 DUP2 LT PUSH2 0xA0A JUMPI POP PUSH2 0x811 JUMP JUMPDEST PUSH1 0x0 DUP2 SSTORE PUSH1 0x1 ADD PUSH2 0x9FD JUMP JUMPDEST SWAP1 SWAP2 POP DUP2 SWAP1 PUSH2 0x9F4 JUMP JUMPDEST PUSH4 0x4E487B71 PUSH1 0xE0 SHL PUSH1 0x0 MSTORE PUSH1 0x41 PUSH1 0x4 MSTORE PUSH1 0x24 PUSH1 0x0 REVERT JUMPDEST ADD MLOAD SWAP1 POP CODESIZE DUP1 PUSH2 0x776 JUMP JUMPDEST PUSH1 0x0 DUP6 DUP2 MSTORE DUP3 DUP2 KECCAK256 SWAP4 POP PUSH1 0x1F NOT DUP6 AND SWAP1 JUMPDEST DUP2 DUP2 LT PUSH2 0xA8E JUMPI POP SWAP1 DUP5 PUSH1 0x1 SWAP6 SWAP5 SWAP4 SWAP3 LT PUSH2 0xA75 JUMPI JUMPDEST POP POP POP DUP2 SHL ADD SWAP1 SSTORE PUSH2 0x78B JUMP JUMPDEST ADD MLOAD PUSH1 0x0 NOT PUSH1 0xF8 DUP5 PUSH1 0x3 SHL AND SHR NOT AND SWAP1 SSTORE CODESIZE DUP1 DUP1 PUSH2 0xA68 JUMP JUMPDEST SWAP3 SWAP4 PUSH1 0x20 PUSH1 0x1 DUP2 SWAP3 DUP8 DUP7 ADD MLOAD DUP2 SSTORE ADD SWAP6 ADD SWAP4 ADD PUSH2 0xA52 JUMP JUMPDEST SWAP1 SWAP2 POP DUP4 PUSH1 0x0 MSTORE PUSH1 0x20 PUSH1 0x0 KECCAK256 PUSH1 0x1F DUP5 ADD PUSH1 0x5 SHR DUP2 ADD SWAP2 PUSH1 0x20 DUP6 LT PUSH2 0xAEF JUMPI JUMPDEST SWAP1 PUSH1 0x1F DUP6 SWAP5 SWAP4 SWAP3 ADD PUSH1 0x5 SHR ADD SWAP1 JUMPDEST DUP2 DUP2 LT PUSH2 0xAE0 JUMPI POP PUSH2 0x75F JUMP JUMPDEST PUSH1 0x0 DUP2 SSTORE DUP5 SWAP4 POP PUSH1 0x1 ADD PUSH2 0xAD3 JUMP JUMPDEST SWAP1 SWAP2 POP DUP2 SWAP1 PUSH2 0xAC5 JUMP JUMPDEST ADD MLOAD SWAP1 POP CODESIZE DUP1 PUSH2 0x71B JUMP JUMPDEST PUSH1 0x0 DUP6 DUP2 MSTORE DUP3 DUP2 KECCAK256 SWAP4 POP PUSH1 0x1F NOT DUP6 AND SWAP1 JUMPDEST DUP2 DUP2 LT PUSH2 0xB51 JUMPI POP SWAP1 DUP5 PUSH1 0x1 SWAP6 SWAP5 SWAP4 SWAP3 LT PUSH2 0xB38 JUMPI JUMPDEST POP POP POP DUP2 SHL ADD SWAP1 SSTORE PUSH2 0x730 JUMP JUMPDEST ADD MLOAD PUSH1 0x0 NOT PUSH1 0xF8 DUP5 PUSH1 0x3 SHL AND SHR NOT AND SWAP1 SSTORE CODESIZE DUP1 DUP1 PUSH2 0xB2B JUMP JUMPDEST SWAP3 SWAP4 PUSH1 0x20 PUSH1 0x1 DUP2 SWAP3 DUP8 DUP7 ADD MLOAD DUP2 SSTORE ADD SWAP6 ADD SWAP4 ADD PUSH2 0xB15 JUMP JUMPDEST SWAP1 SWAP2 POP DUP4 PUSH1 0x0 MSTORE PUSH1 0x20 PUSH1 0x0 KECCAK256 PUSH1 0x1F DUP5 ADD PUSH1 0x5 SHR DUP2 ADD SWAP2 PUSH1 0x20 DUP6 LT PUSH2 0xBB2 JUMPI JUMPDEST SWAP1 PUSH1 0x1F DUP6 SWAP5 SWAP4 SWAP3 ADD PUSH1 0x5 SHR ADD SWAP1 JUMPDEST DUP2 DUP2 LT PUSH2 0xBA3 JUMPI POP PUSH2 0x704 JUMP JUMPDEST PUSH1 0x0 DUP2 SSTORE DUP5 SWAP4 POP PUSH1 0x1 ADD PUSH2 0xB96 JUMP JUMPDEST SWAP1 SWAP2 POP DUP2 SWAP1 PUSH2 0xB88 JUMP JUMPDEST ADD MLOAD SWAP1 POP CODESIZE DUP1 PUSH2 0x6C0 JUMP JUMPDEST PUSH1 0x0 DUP6 DUP2 MSTORE DUP3 DUP2 KECCAK256 SWAP4 POP PUSH1 0x1F NOT DUP6 AND SWAP1 JUMPDEST DUP2 DUP2 LT PUSH2 0xC14 JUMPI POP SWAP1 DUP5 PUSH1 0x1 SWAP6 SWAP5 SWAP4 SWAP3 LT PUSH2 0xBFB JUMPI JUMPDEST POP POP POP DUP2 SHL ADD SWAP1 SSTORE PUSH2 0x6D5 JUMP JUMPDEST ADD MLOAD PUSH1 0x0 NOT PUSH1 0xF8 DUP5 PUSH1 0x3 SHL AND SHR NOT AND SWAP1 SSTORE CODESIZE DUP1 DUP1 PUSH2 0xBEE JUMP JUMPDEST SWAP3 SWAP4 PUSH1 0x20 PUSH1 0x1 DUP2 SWAP3 DUP8 DUP7 ADD MLOAD DUP2 SSTORE ADD SWAP6 ADD SWAP4 ADD PUSH2 0xBD8 JUMP JUMPDEST SWAP1 SWAP2 POP DUP4 PUSH1 0x0 MSTORE PUSH1 0x20 PUSH1 0x0 KECCAK256 PUSH1 0x1F DUP5 ADD PUSH1 0x5 SHR DUP2 ADD SWAP2 PUSH1 0x20 DUP6 LT PUSH2 0xC75 JUMPI JUMPDEST SWAP1 PUSH1 0x1F DUP6 SWAP5 SWAP4 SWAP3 ADD PUSH1 0x5 SHR ADD SWAP1 JUMPDEST DUP2 DUP2 LT PUSH2 0xC66 JUMPI POP PUSH2 0x6A9 JUMP JUMPDEST PUSH1 0x0 DUP2 SSTORE DUP5 SWAP4 POP PUSH1 0x1 ADD PUSH2 0xC59 JUMP JUMPDEST SWAP1 SWAP2 POP DUP2 SWAP1 PUSH2 0xC4B JUMP JUMPDEST PUSH4 0x4E487B71 PUSH1 0xE0 SHL PUSH1 0x0 MSTORE PUSH1 0x0 PUSH1 0x4 MSTORE PUSH1 0x24 PUSH1 0x0 REVERT JUMPDEST ADD MLOAD SWAP1 POP CODESIZE DUP1 PUSH2 0x574 JUMP JUMPDEST SWAP1 PUSH1 0x5 DUP5 ADD PUSH1 0x0 MSTORE DUP1 PUSH1 0x0 KECCAK256 SWAP2 PUSH1 0x0 JUMPDEST PUSH1 0x1F NOT DUP6 AND DUP2 LT PUSH2 0xCFA JUMPI POP SWAP2 DUP4 SWAP2 PUSH1 0x1 SWAP4 PUSH1 0xA SWAP7 SWAP6 PUSH1 0x1F NOT DUP2 AND LT PUSH2 0xCE1 JUMPI JUMPDEST POP POP POP DUP2 SHL ADD PUSH1 0x5 DUP3 ADD SSTORE PUSH2 0x58C JUMP JUMPDEST ADD MLOAD PUSH1 0x0 NOT PUSH1 0xF8 DUP5 PUSH1 0x3 SHL AND SHR NOT AND SWAP1 SSTORE CODESIZE DUP1 DUP1 PUSH2 0xCD1 JUMP JUMPDEST SWAP2 SWAP3 PUSH1 0x20 PUSH1 0x1 DUP2 SWAP3 DUP7 DUP6 ADD MLOAD DUP2 SSTORE ADD SWAP5 ADD SWAP3 ADD PUSH2 0xCB0 JUMP JUMPDEST PUSH1 0x5 DUP5 ADD PUSH1 0x0 MSTORE PUSH1 0x20 PUSH1 0x0 KECCAK256 PUSH1 0x1F DUP5 ADD PUSH1 0x5 SHR DUP2 ADD PUSH1 0x20 DUP6 LT PUSH2 0xD52 JUMPI JUMPDEST PUSH1 0x1F DUP4 ADD PUSH1 0x5 SHR DUP3 ADD DUP2 LT PUSH2 0xD46 JUMPI POP POP PUSH2 0x557 JUMP JUMPDEST PUSH1 0x0 DUP2 SSTORE PUSH1 0x1 ADD PUSH2 0xD30 JUMP JUMPDEST POP DUP1 PUSH2 0xD30 JUMP JUMPDEST ADD MLOAD SWAP1 POP CODESIZE DUP1 PUSH2 0x4BD JUMP JUMPDEST SWAP3 POP PUSH1 0x3 DUP5 ADD PUSH1 0x0 MSTORE DUP1 PUSH1 0x0 KECCAK256 SWAP1 PUSH1 0x0 SWAP4 JUMPDEST PUSH1 0x1F NOT DUP5 AND DUP6 LT PUSH2 0xDBA JUMPI PUSH1 0x1 SWAP5 POP DUP4 PUSH1 0x1F NOT DUP2 AND LT PUSH2 0xDA1 JUMPI JUMPDEST POP POP POP DUP2 SHL ADD PUSH1 0x3 DUP3 ADD SSTORE PUSH2 0x4D5 JUMP JUMPDEST ADD MLOAD PUSH1 0x0 NOT PUSH1 0xF8 DUP5 PUSH1 0x3 SHL AND SHR NOT AND SWAP1 SSTORE CODESIZE DUP1 DUP1 PUSH2 0xD91 JUMP JUMPDEST DUP2 DUP2 ADD MLOAD DUP4 SSTORE PUSH1 0x20 SWAP5 DUP6 ADD SWAP5 PUSH1 0x1 SWAP1 SWAP4 ADD SWAP3 SWAP1 SWAP2 ADD SWAP1 PUSH2 0xD76 JUMP JUMPDEST SWAP1 SWAP2 POP PUSH1 0x3 DUP5 ADD PUSH1 0x0 MSTORE PUSH1 0x20 PUSH1 0x0 KECCAK256 PUSH1 0x1F DUP5 ADD PUSH1 0x5 SHR DUP2 ADD PUSH1 0x20 DUP6 LT PUSH2 0xE21 JUMPI JUMPDEST SWAP1 DUP5 SWAP4 SWAP3 SWAP2 JUMPDEST PUSH1 0x1F DUP4 ADD PUSH1 0x5 SHR DUP3 ADD DUP2 LT PUSH2 0xE12 JUMPI POP POP PUSH2 0x4A6 JUMP JUMPDEST PUSH1 0x0 DUP2 SSTORE DUP6 SWAP5 POP PUSH1 0x1 ADD PUSH2 0xDFC JUMP JUMPDEST POP DUP1 PUSH2 0xDF6 JUMP JUMPDEST ADD MLOAD SWAP1 POP CODESIZE DUP1 PUSH2 0x460 JUMP JUMPDEST SWAP3 POP PUSH1 0x2 DUP5 ADD PUSH1 0x0 MSTORE DUP1 PUSH1 0x0 KECCAK256 SWAP1 PUSH1 0x0 SWAP4 JUMPDEST PUSH1 0x1F NOT DUP5 AND DUP6 LT PUSH2 0xE89 JUMPI PUSH1 0x1 SWAP5 POP DUP4 PUSH1 0x1F NOT DUP2 AND LT PUSH2 0xE70 JUMPI JUMPDEST POP POP POP DUP2 SHL ADD PUSH1 0x2 DUP3 ADD SSTORE PUSH2 0x478 JUMP JUMPDEST ADD MLOAD PUSH1 0x0 NOT PUSH1 0xF8 DUP5 PUSH1 0x3 SHL AND SHR NOT AND SWAP1 SSTORE CODESIZE DUP1 DUP1 PUSH2 0xE60 JUMP JUMPDEST DUP2 DUP2 ADD MLOAD DUP4 SSTORE PUSH1 0x20 SWAP5 DUP6 ADD SWAP5 PUSH1 0x1 SWAP1 SWAP4 ADD SWAP3 SWAP1 SWAP2 ADD SWAP1 PUSH2 0xE45 JUMP JUMPDEST SWAP1 SWAP2 POP PUSH1 0x2 DUP5 ADD PUSH1 0x0 MSTORE PUSH1 0x20 PUSH1 0x0 KECCAK256 PUSH1 0x1F DUP5 ADD PUSH1 0x5 SHR DUP2 ADD PUSH1 0x20 DUP6 LT PUSH2 0xEF0 JUMPI JUMPDEST SWAP1 DUP5 SWAP4 SWAP3 SWAP2 JUMPDEST PUSH1 0x1F DUP4 ADD PUSH1 0x5 SHR DUP3 ADD DUP2 LT PUSH2 0xEE1 JUMPI POP POP PUSH2 0x449 JUMP JUMPDEST PUSH1 0x0 DUP2 SSTORE DUP6 SWAP5 POP PUSH1 0x1 ADD PUSH2 0xECB JUMP JUMPDEST POP DUP1 PUSH2 0xEC5 JUMP JUMPDEST ADD MLOAD SWAP1 POP CODESIZE DUP1 PUSH2 0x403 JUMP JUMPDEST SWAP3 POP PUSH1 0x1 DUP5 ADD PUSH1 0x0 MSTORE DUP1 PUSH1 0x0 KECCAK256 SWAP1 PUSH1 0x0 SWAP4 JUMPDEST PUSH1 0x1F NOT DUP5 AND DUP6 LT PUSH2 0xF58 JUMPI PUSH1 0x1 SWAP5 POP DUP4 PUSH1 0x1F NOT DUP2 AND LT PUSH2 0xF3F JUMPI JUMPDEST POP POP POP DUP2 SHL ADD PUSH1 0x1 DUP3 ADD SSTORE PUSH2 0x41B JUMP JUMPDEST ADD MLOAD PUSH1 0x0 NOT PUSH1 0xF8 DUP5 PUSH1 0x3 SHL AND SHR NOT AND SWAP1 SSTORE CODESIZE DUP1 DUP1 PUSH2 0xF2F JUMP JUMPDEST DUP2 DUP2 ADD MLOAD DUP4 SSTORE PUSH1 0x20 SWAP5 DUP6 ADD SWAP5 PUSH1 0x1 SWAP1 SWAP4 ADD SWAP3 SWAP1 SWAP2 ADD SWAP1 PUSH2 0xF14 JUMP JUMPDEST SWAP1 SWAP2 POP PUSH1 0x1 DUP5 ADD PUSH1 0x0 MSTORE PUSH1 0x20 PUSH1 0x0 KECCAK256 PUSH1 0x1F DUP5 ADD PUSH1 0x5 SHR DUP2 ADD PUSH1 0x20 DUP6 LT PUSH2 0xFBF JUMPI JUMPDEST SWAP1 DUP5 SWAP4 SWAP3 SWAP2 JUMPDEST PUSH1 0x1F DUP4 ADD PUSH1 0x5 SHR DUP3 ADD DUP2 LT PUSH2 0xFB0 JUMPI POP POP PUSH2 0x3EC JUMP JUMPDEST PUSH1 0x0 DUP2 SSTORE DUP6 SWAP5 POP PUSH1 0x1 ADD PUSH2 0xF9A JUMP JUMPDEST POP DUP1 PUSH2 0xF94 JUMP JUMPDEST PUSH1 0x40 MLOAD PUSH3 0x461BCD PUSH1 0xE5 SHL DUP2 MSTORE PUSH1 0x20 PUSH1 0x4 DUP3 ADD MSTORE PUSH1 0x11 PUSH1 0x24 DUP3 ADD MSTORE PUSH17 0x2AB739BAB83837B93A32B2103A37B5B2B7 PUSH1 0x79 SHL PUSH1 0x44 DUP3 ADD MSTORE PUSH1 0x64 SWAP1 REVERT JUMPDEST PUSH1 0x40 MLOAD PUSH3 0x461BCD PUSH1 0xE5 SHL DUP2 MSTORE PUSH1 0x20 PUSH1 0x4 DUP3 ADD MSTORE PUSH1 0x12 PUSH1 0x24 DUP3 ADD MSTORE PUSH18 0x111D5C985D1A5BDB881D1BDBC81CDA1BDC9D PUSH1 0x72 SHL PUSH1 0x44 DUP3 ADD MSTORE PUSH1 0x64 SWAP1 REVERT JUMPDEST PUSH1 0x40 MLOAD PUSH3 0x461BCD PUSH1 0xE5 SHL DUP2 MSTORE PUSH1 0x20 PUSH1 0x4 DUP3 ADD MSTORE PUSH1 0x19 PUSH1 0x24 DUP3 ADD MSTORE PUSH32 0x53746172742064617465206D7573742062652066757475726500000000000000 PUSH1 0x44 DUP3 ADD MSTORE PUSH1 0x64 SWAP1 REVERT JUMPDEST PUSH1 0x40 MLOAD PUSH3 0x461BCD PUSH1 0xE5 SHL DUP2 MSTORE PUSH1 0x20 PUSH1 0x4 DUP3 ADD MSTORE PUSH1 0xD PUSH1 0x24 DUP3 ADD MSTORE PUSH13 0x24B73B30B634B2103A37B5B2B7 PUSH1 0x99 SHL PUSH1 0x44 DUP3 ADD MSTORE PUSH1 0x64 SWAP1 REVERT JUMPDEST PUSH1 0x40 MLOAD PUSH3 0x461BCD PUSH1 0xE5 SHL DUP2 MSTORE PUSH1 0x20 PUSH1 0x4 DUP3 ADD MSTORE PUSH1 0xD PUSH1 0x24 DUP3 ADD MSTORE PUSH13 0x496E76616C6964207072696365 PUSH1 0x98 SHL PUSH1 0x44 DUP3 ADD MSTORE PUSH1 0x64 SWAP1 REVERT JUMPDEST POP PUSH10 0xD3C21BCECCEDA1000000 DUP11 GT ISZERO PUSH2 0x2A1 JUMP JUMPDEST PUSH1 0x40 MLOAD PUSH3 0x461BCD PUSH1 0xE5 SHL DUP2 MSTORE PUSH1 0x20 PUSH1 0x4 DUP3 ADD MSTORE PUSH1 0x10 PUSH1 0x24 DUP3 ADD MSTORE PUSH16 0x24B73B30B634B2103637B1B0BA34B7B7 PUSH1 0x81 SHL PUSH1 0x44 DUP3 ADD MSTORE PUSH1 0x64 SWAP1 REVERT JUMPDEST POP PUSH1 0x96 DUP9 GT ISZERO PUSH2 0x293 JUMP JUMPDEST PUSH1 0x40 MLOAD PUSH3 0x461BCD PUSH1 0xE5 SHL DUP2 MSTORE PUSH1 0x20 PUSH1 0x4 DUP3 ADD MSTORE PUSH1 0xF PUSH1 0x24 DUP3 ADD MSTORE PUSH15 0x496E76616C69642064657461696C73 PUSH1 0x88 SHL PUSH1 0x44 DUP3 ADD MSTORE PUSH1 0x64 SWAP1 REVERT JUMPDEST POP PUSH2 0x3E8 DUP3 GT ISZERO PUSH2 0x285 JUMP JUMPDEST PUSH1 0x40 MLOAD PUSH3 0x461BCD PUSH1 0xE5 SHL DUP2 MSTORE PUSH1 0x20 PUSH1 0x4 DUP3 ADD MSTORE PUSH1 0xB PUSH1 0x24 DUP3 ADD MSTORE PUSH11 0x125B9D985B1A5908155493 PUSH1 0xAA SHL PUSH1 0x44 DUP3 ADD MSTORE PUSH1 0x64 SWAP1 REVERT JUMPDEST POP PUSH1 0xC8 DUP13 GT ISZERO PUSH2 0x277 JUMP JUMPDEST PUSH1 0x40 MLOAD PUSH3 0x461BCD PUSH1 0xE5 SHL DUP2 MSTORE PUSH1 0x20 PUSH1 0x4 DUP3 ADD MSTORE PUSH1 0xC PUSH1 0x24 DUP3 ADD MSTORE PUSH12 0x496E76616C6964206E616D65 PUSH1 0xA0 SHL PUSH1 0x44 DUP3 ADD MSTORE PUSH1 0x64 SWAP1 REVERT JUMPDEST PUSH1 0x64 SWAP2 POP GT ISZERO DUP15 PUSH2 0x268 JUMP JUMPDEST PUSH1 0x0 DUP1 REVERT JUMPDEST CALLVALUE PUSH2 0x1200 JUMPI PUSH1 0x20 CALLDATASIZE PUSH1 0x3 NOT ADD SLT PUSH2 0x1200 JUMPI PUSH1 0x4 CALLDATALOAD PUSH2 0x1226 PUSH1 0x3 SLOAD DUP3 LT PUSH2 0x3279 JUMP JUMPDEST PUSH1 0x0 MSTORE PUSH1 0x4 PUSH1 0x20 MSTORE PUSH2 0x1252 PUSH2 0x123E PUSH1 0x40 PUSH1 0x0 KECCAK256 PUSH2 0x32B8 JUMP JUMPDEST PUSH1 0x40 MLOAD SWAP2 DUP3 SWAP2 PUSH1 0x20 DUP4 MSTORE PUSH1 0x20 DUP4 ADD SWAP1 PUSH2 0x2BF5 JUMP JUMPDEST SUB SWAP1 RETURN JUMPDEST CALLVALUE PUSH2 0x1200 JUMPI PUSH1 0x0 CALLDATASIZE PUSH1 0x3 NOT ADD SLT PUSH2 0x1200 JUMPI PUSH1 0x3 SLOAD PUSH1 0x0 DUP1 JUMPDEST DUP3 DUP2 LT PUSH2 0x132E JUMPI POP PUSH2 0x1288 PUSH2 0x1282 DUP3 PUSH2 0x2DE6 JUMP JUMPDEST SWAP2 PUSH2 0x2E90 JUMP JUMPDEST SWAP2 PUSH1 0x0 DUP1 JUMPDEST DUP3 DUP2 LT PUSH2 0x12A6 JUMPI POP POP POP PUSH2 0x1252 PUSH1 0x40 MLOAD SWAP3 DUP4 SWAP3 DUP4 PUSH2 0x2B5F JUMP JUMPDEST PUSH2 0x12AF DUP2 PUSH2 0x2840 JUMP JUMPDEST POP SLOAD PUSH1 0x1 PUSH1 0x1 PUSH1 0xA0 SHL SUB AND CALLER EQ DUP1 PUSH2 0x1317 JUMPI JUMPDEST PUSH2 0x12CF JUMPI JUMPDEST PUSH1 0x1 ADD PUSH2 0x128D JUMP JUMPDEST SWAP1 PUSH2 0x130F DUP2 DUP4 PUSH2 0x12E1 PUSH1 0x1 SWAP5 DUP9 PUSH2 0x2EE0 JUMP JUMPDEST MSTORE PUSH2 0x12F4 PUSH2 0x12EE DUP6 PUSH2 0x2840 JUMP JUMPDEST POP PUSH2 0x2EF4 JUMP JUMPDEST PUSH2 0x12FE DUP3 DUP10 PUSH2 0x2EE0 JUMP JUMPDEST MSTORE PUSH2 0x1309 DUP2 DUP9 PUSH2 0x2EE0 JUMP JUMPDEST POP PUSH2 0x2DC0 JUMP JUMPDEST SWAP2 SWAP1 POP PUSH2 0x12C7 JUMP JUMPDEST POP PUSH1 0xFF PUSH1 0x6 PUSH2 0x1325 DUP4 PUSH2 0x2840 JUMP JUMPDEST POP ADD SLOAD AND PUSH2 0x12C2 JUMP JUMPDEST PUSH2 0x1337 DUP2 PUSH2 0x2840 JUMP JUMPDEST POP SLOAD PUSH1 0x1 PUSH1 0x1 PUSH1 0xA0 SHL SUB AND CALLER EQ DUP1 PUSH2 0x136B JUMPI JUMPDEST PUSH2 0x1357 JUMPI JUMPDEST PUSH1 0x1 ADD PUSH2 0x126E JUMP JUMPDEST SWAP1 PUSH2 0x1363 PUSH1 0x1 SWAP2 PUSH2 0x2DC0 JUMP JUMPDEST SWAP2 SWAP1 POP PUSH2 0x134F JUMP JUMPDEST POP PUSH1 0xFF PUSH1 0x6 PUSH2 0x1379 DUP4 PUSH2 0x2840 JUMP JUMPDEST POP ADD SLOAD AND PUSH2 0x134A JUMP JUMPDEST CALLVALUE PUSH2 0x1200 JUMPI PUSH1 0x0 CALLDATASIZE PUSH1 0x3 NOT ADD SLT PUSH2 0x1200 JUMPI PUSH1 0x20 PUSH1 0x40 MLOAD PUSH1 0xC8 DUP2 MSTORE RETURN JUMPDEST CALLVALUE PUSH2 0x1200 JUMPI PUSH1 0x0 CALLDATASIZE PUSH1 0x3 NOT ADD SLT PUSH2 0x1200 JUMPI PUSH1 0x3 SLOAD PUSH1 0x0 DUP1 JUMPDEST DUP3 DUP2 LT PUSH2 0x1420 JUMPI POP PUSH2 0x13CA PUSH2 0x1282 DUP3 PUSH2 0x2DE6 JUMP JUMPDEST SWAP2 PUSH1 0x0 DUP1 JUMPDEST DUP3 DUP2 LT PUSH2 0x13E8 JUMPI POP POP POP PUSH2 0x1252 PUSH1 0x40 MLOAD SWAP3 DUP4 SWAP3 DUP4 PUSH2 0x2B5F JUMP JUMPDEST PUSH1 0xFF PUSH1 0x6 PUSH2 0x13F5 DUP4 PUSH2 0x2840 JUMP JUMPDEST POP ADD SLOAD AND PUSH2 0x1406 JUMPI JUMPDEST PUSH1 0x1 ADD PUSH2 0x13CF JUMP JUMPDEST SWAP1 PUSH2 0x1418 DUP2 DUP4 PUSH2 0x12E1 PUSH1 0x1 SWAP5 DUP9 PUSH2 0x2EE0 JUMP JUMPDEST SWAP2 SWAP1 POP PUSH2 0x13FE JUMP JUMPDEST PUSH1 0xFF PUSH1 0x6 PUSH2 0x142D DUP4 PUSH2 0x2840 JUMP JUMPDEST POP ADD SLOAD AND PUSH2 0x143E JUMPI JUMPDEST PUSH1 0x1 ADD PUSH2 0x13B6 JUMP JUMPDEST SWAP1 PUSH2 0x144A PUSH1 0x1 SWAP2 PUSH2 0x2DC0 JUMP JUMPDEST SWAP2 SWAP1 POP PUSH2 0x1436 JUMP JUMPDEST CALLVALUE PUSH2 0x1200 JUMPI PUSH1 0x20 CALLDATASIZE PUSH1 0x3 NOT ADD SLT PUSH2 0x1200 JUMPI PUSH1 0x4 CALLDATALOAD PUSH2 0x146E PUSH2 0x2E18 JUMP JUMPDEST POP PUSH1 0x3 SLOAD DUP2 LT ISZERO PUSH2 0x1508 JUMPI DUP1 PUSH2 0x1252 PUSH2 0x1489 PUSH2 0x14EC SWAP4 PUSH2 0x2840 JUMP JUMPDEST POP DUP3 PUSH1 0x0 MSTORE PUSH1 0x4 PUSH1 0x20 MSTORE PUSH2 0x14A1 PUSH1 0x40 PUSH1 0x0 KECCAK256 SWAP4 PUSH2 0x2840 JUMP JUMPDEST POP PUSH1 0x1 DUP1 PUSH1 0xA0 SHL SUB SWAP1 SLOAD AND PUSH1 0x0 MSTORE PUSH1 0x5 PUSH1 0x20 MSTORE PUSH2 0x14FA PUSH2 0x14D7 PUSH2 0x14D1 PUSH2 0x14CB PUSH1 0x40 PUSH1 0x0 KECCAK256 SWAP5 PUSH2 0x2EF4 JUMP JUMPDEST SWAP6 PUSH2 0x32B8 JUMP JUMPDEST SWAP3 PUSH2 0x2FFC JUMP JUMPDEST SWAP2 PUSH1 0x40 MLOAD SWAP6 DUP7 SWAP6 PUSH1 0x60 DUP8 MSTORE PUSH1 0x60 DUP8 ADD SWAP1 PUSH2 0x29ED JUMP JUMPDEST SWAP1 DUP6 DUP3 SUB PUSH1 0x20 DUP8 ADD MSTORE PUSH2 0x2BF5 JUMP JUMPDEST SWAP1 DUP4 DUP3 SUB PUSH1 0x40 DUP6 ADD MSTORE PUSH2 0x2B06 JUMP JUMPDEST PUSH1 0x40 MLOAD PUSH3 0x461BCD PUSH1 0xE5 SHL DUP2 MSTORE PUSH1 0x20 PUSH1 0x4 DUP3 ADD MSTORE PUSH1 0x14 PUSH1 0x24 DUP3 ADD MSTORE PUSH20 0x115D995B9D08191BD95CC81B9BDD08195E1A5CDD PUSH1 0x62 SHL PUSH1 0x44 DUP3 ADD MSTORE PUSH1 0x64 SWAP1 REVERT JUMPDEST CALLVALUE PUSH2 0x1200 JUMPI PUSH1 0x0 CALLDATASIZE PUSH1 0x3 NOT ADD SLT PUSH2 0x1200 JUMPI PUSH1 0x20 PUSH1 0x40 MLOAD PUSH10 0xD3C21BCECCEDA1000000 DUP2 MSTORE RETURN JUMPDEST CALLVALUE PUSH2 0x1200 JUMPI PUSH1 0x0 CALLDATASIZE PUSH1 0x3 NOT ADD SLT PUSH2 0x1200 JUMPI PUSH1 0x20 PUSH1 0x40 MLOAD PUSH1 0x96 DUP2 MSTORE RETURN JUMPDEST CALLVALUE PUSH2 0x1200 JUMPI PUSH1 0x60 CALLDATASIZE PUSH1 0x3 NOT ADD SLT PUSH2 0x1200 JUMPI PUSH2 0x159E PUSH2 0x2BB2 JUMP JUMPDEST PUSH1 0x24 CALLDATALOAD SWAP1 PUSH1 0x44 CALLDATALOAD PUSH1 0x1 PUSH1 0x1 PUSH1 0x40 SHL SUB DUP2 GT PUSH2 0x1200 JUMPI PUSH2 0x15C1 SWAP1 CALLDATASIZE SWAP1 PUSH1 0x4 ADD PUSH2 0x2BC8 JUMP JUMPDEST PUSH20 0x62B8B11039FCFE5AB0C56E502B1C372A3D2A9C7A CALLER SUB PUSH2 0x18C3 JUMPI PUSH1 0x20 GT PUSH2 0x1200 JUMPI CALLDATALOAD SWAP1 PUSH2 0x15F2 PUSH1 0x3 SLOAD DUP4 LT PUSH2 0x2C32 JUMP JUMPDEST PUSH2 0x1610 PUSH2 0x15FE DUP4 PUSH2 0x2840 JUMP JUMPDEST POP SLOAD PUSH1 0x1 PUSH1 0x1 PUSH1 0xA0 SHL SUB AND ISZERO ISZERO PUSH2 0x2C6E JUMP JUMPDEST PUSH2 0x161F PUSH1 0xFF PUSH1 0x2 SLOAD AND ISZERO PUSH2 0x2CB0 JUMP JUMPDEST PUSH2 0x1628 DUP3 PUSH2 0x2840 JUMP JUMPDEST POP SWAP1 PUSH1 0xA DUP3 ADD PUSH20 0x62B8B11039FCFE5AB0C56E502B1C372A3D2A9C7A PUSH1 0x1 DUP1 PUSH1 0xA0 SHL SUB DUP3 SLOAD PUSH1 0x10 SHR AND SUB PUSH2 0x188A JUMPI PUSH2 0x166D PUSH1 0x1 PUSH1 0x1 PUSH1 0x40 SHL SUB PUSH1 0x4 DUP6 ADD SLOAD AND TIMESTAMP LT PUSH2 0x3093 JUMP JUMPDEST PUSH2 0x167D PUSH1 0xFF PUSH1 0x6 DUP6 ADD SLOAD AND PUSH2 0x30CF JUMP JUMPDEST DUP4 PUSH1 0x0 MSTORE PUSH1 0x6 PUSH1 0x20 MSTORE PUSH1 0x40 PUSH1 0x0 KECCAK256 PUSH1 0x1 DUP1 PUSH1 0xA0 SHL SUB DUP4 AND PUSH1 0x0 MSTORE PUSH1 0x20 MSTORE PUSH2 0x16AC PUSH1 0xFF PUSH1 0x40 PUSH1 0x0 KECCAK256 SLOAD AND ISZERO PUSH2 0x310C JUMP JUMPDEST DUP4 PUSH1 0x0 MSTORE PUSH1 0x4 PUSH1 0x20 MSTORE PUSH2 0x16C7 PUSH2 0x1388 PUSH1 0x40 PUSH1 0x0 KECCAK256 SLOAD LT PUSH2 0x314C JUMP JUMPDEST PUSH1 0x7 DUP4 ADD SLOAD DUP6 SUB PUSH2 0x1852 JUMPI DUP4 PUSH1 0x0 MSTORE PUSH1 0x6 PUSH1 0x20 MSTORE PUSH1 0x40 PUSH1 0x0 KECCAK256 PUSH1 0x1 DUP1 PUSH1 0xA0 SHL SUB DUP4 AND PUSH1 0x0 MSTORE PUSH1 0x20 MSTORE PUSH1 0x40 PUSH1 0x0 KECCAK256 PUSH1 0x1 PUSH1 0xFF NOT DUP3 SLOAD AND OR SWAP1 SSTORE DUP4 PUSH1 0x0 MSTORE PUSH1 0x4 PUSH1 0x20 MSTORE PUSH2 0x1716 DUP3 PUSH1 0x40 PUSH1 0x0 KECCAK256 PUSH2 0x3225 JUMP JUMPDEST PUSH1 0x64 DUP6 MUL DUP6 DUP2 DIV PUSH1 0x64 EQ DUP7 ISZERO OR ISZERO PUSH2 0x949 JUMPI PUSH2 0x2710 SWAP1 DIV PUSH2 0x1737 DUP2 DUP8 PUSH2 0x2D71 JUMP JUMPDEST SWAP1 DUP1 ISZERO ISZERO DUP1 PUSH2 0x183B JUMPI JUMPDEST PUSH2 0x1793 JUMPI JUMPDEST POP PUSH2 0x1765 PUSH1 0x8 PUSH1 0x0 DUP1 MLOAD PUSH1 0x20 PUSH2 0x35BD DUP4 CODECOPY DUP2 MLOAD SWAP2 MSTORE SWAP6 ADD SWAP2 DUP3 SLOAD PUSH2 0x326C JUMP JUMPDEST SWAP1 SSTORE SLOAD PUSH1 0x40 DUP1 MLOAD SWAP6 DUP7 MSTORE PUSH1 0x1 PUSH1 0x1 PUSH1 0xA0 SHL SUB PUSH1 0x10 SWAP3 SWAP1 SWAP3 SHR DUP3 AND PUSH1 0x20 DUP8 ADD MSTORE SWAP2 AND SWAP4 LOG3 PUSH1 0x20 PUSH1 0x40 MLOAD PUSH1 0x1 DUP2 MSTORE RETURN JUMPDEST DUP3 SLOAD PUSH1 0x2 SLOAD PUSH1 0x40 MLOAD PUSH4 0xA9059CBB PUSH1 0xE0 SHL DUP2 MSTORE PUSH1 0x1 PUSH1 0x1 PUSH1 0xA0 SHL SUB PUSH1 0x8 SWAP3 SWAP1 SWAP3 SHR DUP3 AND PUSH1 0x4 DUP3 ADD MSTORE PUSH1 0x24 DUP2 ADD SWAP4 SWAP1 SWAP4 MSTORE PUSH1 0x20 SWAP2 DUP4 SWAP2 PUSH1 0x44 SWAP2 DUP4 SWAP2 PUSH1 0x0 SWAP2 PUSH1 0x10 SHR AND GAS CALL DUP1 ISZERO PUSH2 0x182F JUMPI PUSH1 0x0 DUP1 MLOAD PUSH1 0x20 PUSH2 0x35BD DUP4 CODECOPY DUP2 MLOAD SWAP2 MSTORE SWAP6 PUSH2 0x1765 SWAP3 PUSH1 0x8 SWAP3 PUSH2 0x1800 JUMPI JUMPDEST POP SWAP6 POP POP PUSH2 0x1746 JUMP JUMPDEST PUSH2 0x1821 SWAP1 PUSH1 0x20 RETURNDATASIZE PUSH1 0x20 GT PUSH2 0x1828 JUMPI JUMPDEST PUSH2 0x1819 DUP2 DUP4 PUSH2 0x28E7 JUMP JUMPDEST DUP2 ADD SWAP1 PUSH2 0x31D1 JUMP JUMPDEST POP DUP10 PUSH2 0x17F7 JUMP JUMPDEST POP RETURNDATASIZE PUSH2 0x180F JUMP JUMPDEST PUSH1 0x40 MLOAD RETURNDATASIZE PUSH1 0x0 DUP3 RETURNDATACOPY RETURNDATASIZE SWAP1 REVERT JUMPDEST POP PUSH1 0x2 SLOAD PUSH1 0x8 SHR PUSH1 0x1 PUSH1 0x1 PUSH1 0xA0 SHL SUB AND ISZERO ISZERO PUSH2 0x1741 JUMP JUMPDEST PUSH1 0x40 MLOAD PUSH3 0x461BCD PUSH1 0xE5 SHL DUP2 MSTORE PUSH1 0x20 PUSH1 0x4 DUP3 ADD MSTORE PUSH1 0x10 PUSH1 0x24 DUP3 ADD MSTORE PUSH16 0x125B98DBDC9C9958DD08185B5BDD5B9D PUSH1 0x82 SHL PUSH1 0x44 DUP3 ADD MSTORE PUSH1 0x64 SWAP1 REVERT JUMPDEST PUSH1 0x40 MLOAD PUSH3 0x461BCD PUSH1 0xE5 SHL DUP2 MSTORE PUSH1 0x20 PUSH1 0x4 DUP3 ADD MSTORE PUSH1 0x11 PUSH1 0x24 DUP3 ADD MSTORE PUSH17 0x27B7363C903337B9102392103A37B5B2B7 PUSH1 0x79 SHL PUSH1 0x44 DUP3 ADD MSTORE PUSH1 0x64 SWAP1 REVERT JUMPDEST PUSH1 0x40 MLOAD PUSH3 0x461BCD PUSH1 0xE5 SHL DUP2 MSTORE PUSH1 0x20 PUSH1 0x4 DUP3 ADD MSTORE PUSH1 0xD PUSH1 0x24 DUP3 ADD MSTORE PUSH13 0x27B7363C902392103A37B5B2B7 PUSH1 0x99 SHL PUSH1 0x44 DUP3 ADD MSTORE PUSH1 0x64 SWAP1 REVERT JUMPDEST CALLVALUE PUSH2 0x1200 JUMPI PUSH1 0x20 CALLDATASIZE PUSH1 0x3 NOT ADD SLT PUSH2 0x1200 JUMPI PUSH1 0x4 CALLDATALOAD PUSH2 0x1914 PUSH2 0x3352 JUMP JUMPDEST PUSH2 0x1921 PUSH1 0x3 SLOAD DUP3 LT PUSH2 0x2C32 JUMP JUMPDEST PUSH2 0x192D PUSH2 0x15FE DUP3 PUSH2 0x2840 JUMP JUMPDEST PUSH2 0x193C PUSH1 0xFF PUSH1 0x2 SLOAD AND ISZERO PUSH2 0x2CB0 JUMP JUMPDEST PUSH1 0x0 DUP2 DUP2 MSTORE PUSH1 0x6 PUSH1 0x20 SWAP1 DUP2 MSTORE PUSH1 0x40 DUP1 DUP4 KECCAK256 CALLER DUP5 MSTORE SWAP1 SWAP2 MSTORE SWAP1 KECCAK256 SLOAD PUSH2 0x1962 SWAP1 PUSH1 0xFF AND PUSH2 0x2CEE JUMP JUMPDEST PUSH1 0x7 PUSH2 0x196D DUP3 PUSH2 0x2840 JUMP JUMPDEST POP ADD SLOAD PUSH20 0x62B8B11039FCFE5AB0C56E502B1C372A3D2A9C7A PUSH2 0x198E DUP4 PUSH2 0x2840 JUMP JUMPDEST POP PUSH1 0xA ADD SLOAD PUSH1 0x10 SHR PUSH1 0x1 PUSH1 0x1 PUSH1 0xA0 SHL SUB AND EQ PUSH2 0x1A1F JUMPI JUMPDEST PUSH2 0x19BE DUP2 PUSH1 0x8 PUSH2 0x19B4 DUP6 PUSH2 0x2840 JUMP JUMPDEST POP ADD SLOAD LT ISZERO PUSH2 0x2D30 JUMP JUMPDEST PUSH1 0xFF PUSH1 0xA PUSH2 0x19CB DUP5 PUSH2 0x2840 JUMP JUMPDEST POP ADD SLOAD AND ISZERO PUSH2 0x19E5 JUMPI JUMPDEST PUSH2 0x19DE SWAP2 PUSH2 0x3374 JUMP JUMPDEST PUSH1 0x1 PUSH1 0x0 SSTORE STOP JUMPDEST PUSH1 0x1 PUSH1 0x1 PUSH1 0x40 SHL SUB PUSH1 0x4 PUSH2 0x19F8 DUP5 PUSH2 0x2840 JUMP JUMPDEST POP ADD SLOAD AND SWAP2 PUSH2 0x464F NOT DUP4 ADD SWAP3 DUP4 GT PUSH2 0x949 JUMPI PUSH2 0x1A18 PUSH2 0x19DE SWAP4 TIMESTAMP LT PUSH2 0x2D7E JUMP JUMPDEST SWAP2 POP PUSH2 0x19D5 JUMP JUMPDEST PUSH1 0x63 DUP2 MUL SWAP1 DUP1 DUP3 DIV PUSH1 0x63 EQ SWAP1 ISZERO OR ISZERO PUSH2 0x949 JUMPI PUSH1 0x64 SWAP1 DIV PUSH2 0x19A5 JUMP JUMPDEST CALLVALUE PUSH2 0x1200 JUMPI PUSH1 0x0 CALLDATASIZE PUSH1 0x3 NOT ADD SLT PUSH2 0x1200 JUMPI PUSH1 0x2 SLOAD PUSH1 0x40 MLOAD PUSH1 0x8 SWAP2 SWAP1 SWAP2 SHR PUSH1 0x1 PUSH1 0x1 PUSH1 0xA0 SHL SUB AND DUP2 MSTORE PUSH1 0x20 SWAP1 RETURN JUMPDEST CALLVALUE PUSH2 0x1200 JUMPI PUSH1 0x0 CALLDATASIZE PUSH1 0x3 NOT ADD SLT PUSH2 0x1200 JUMPI PUSH1 0x20 PUSH1 0x40 MLOAD PUSH1 0x64 DUP2 MSTORE RETURN JUMPDEST CALLVALUE PUSH2 0x1200 JUMPI PUSH1 0x0 CALLDATASIZE PUSH1 0x3 NOT ADD SLT PUSH2 0x1200 JUMPI PUSH1 0x20 PUSH1 0x40 MLOAD PUSH2 0x4650 DUP2 MSTORE RETURN JUMPDEST CALLVALUE PUSH2 0x1200 JUMPI PUSH1 0x20 CALLDATASIZE PUSH1 0x3 NOT ADD SLT PUSH2 0x1200 JUMPI PUSH1 0x1 PUSH1 0x1 PUSH1 0xA0 SHL SUB PUSH2 0x1AC2 PUSH2 0x2BB2 JUMP JUMPDEST AND PUSH1 0x0 MSTORE PUSH1 0x1 PUSH1 0x20 MSTORE PUSH1 0x20 PUSH1 0xFF PUSH1 0x40 PUSH1 0x0 KECCAK256 SLOAD AND PUSH1 0x40 MLOAD SWAP1 ISZERO ISZERO DUP2 MSTORE RETURN JUMPDEST CALLVALUE PUSH2 0x1200 JUMPI PUSH1 0x20 CALLDATASIZE PUSH1 0x3 NOT ADD SLT PUSH2 0x1200 JUMPI PUSH1 0x4 CALLDATALOAD PUSH2 0x1AFC PUSH2 0x3352 JUMP JUMPDEST PUSH2 0x1B09 PUSH1 0x3 SLOAD DUP3 LT PUSH2 0x2C32 JUMP JUMPDEST PUSH2 0x1B15 PUSH2 0x15FE DUP3 PUSH2 0x2840 JUMP JUMPDEST PUSH2 0x1B24 PUSH1 0xFF PUSH1 0x2 SLOAD AND ISZERO PUSH2 0x2CB0 JUMP JUMPDEST PUSH2 0x1B2D DUP2 PUSH2 0x2840 JUMP JUMPDEST POP SWAP1 PUSH2 0x1B47 PUSH1 0x1 PUSH1 0x1 PUSH1 0x40 SHL SUB PUSH1 0x4 DUP5 ADD SLOAD AND TIMESTAMP LT PUSH2 0x3093 JUMP JUMPDEST PUSH2 0x1B57 PUSH1 0xFF PUSH1 0x6 DUP5 ADD SLOAD AND PUSH2 0x30CF JUMP JUMPDEST PUSH1 0x0 DUP2 DUP2 MSTORE PUSH1 0x6 PUSH1 0x20 SWAP1 DUP2 MSTORE PUSH1 0x40 DUP1 DUP4 KECCAK256 CALLER DUP5 MSTORE SWAP1 SWAP2 MSTORE SWAP1 KECCAK256 SLOAD PUSH2 0x1B7E SWAP1 PUSH1 0xFF AND ISZERO PUSH2 0x310C JUMP JUMPDEST DUP1 PUSH1 0x0 MSTORE PUSH1 0x4 PUSH1 0x20 MSTORE PUSH2 0x1B99 PUSH2 0x1388 PUSH1 0x40 PUSH1 0x0 KECCAK256 SLOAD LT PUSH2 0x314C JUMP JUMPDEST PUSH1 0x7 DUP3 ADD SLOAD PUSH1 0xA DUP4 ADD DUP1 SLOAD SWAP2 SWAP4 SWAP2 PUSH1 0x10 SHR PUSH1 0x1 PUSH1 0x1 PUSH1 0xA0 SHL SUB AND PUSH20 0x62B8B11039FCFE5AB0C56E502B1C372A3D2A9C7A DUP2 SUB PUSH2 0x1CF4 JUMPI POP SWAP1 PUSH1 0x0 SWAP2 PUSH1 0x20 PUSH2 0x1C1F PUSH1 0x40 MLOAD DUP7 DUP4 DUP3 ADD MSTORE DUP3 DUP2 MSTORE PUSH2 0x1BEE PUSH1 0x40 DUP3 PUSH2 0x28E7 JUMP JUMPDEST DUP4 SLOAD PUSH1 0x40 MLOAD PUSH4 0x2000575 PUSH1 0xE5 SHL DUP2 MSTORE SWAP7 DUP8 SWAP4 PUSH1 0x10 SWAP3 SWAP1 SWAP3 SHR PUSH1 0x1 PUSH1 0x1 PUSH1 0xA0 SHL SUB AND SWAP3 DUP5 SWAP3 DUP4 SWAP2 DUP13 ADDRESS PUSH1 0x4 DUP6 ADD PUSH2 0x31E9 JUMP JUMPDEST SUB SWAP3 GAS CALL SWAP2 DUP3 ISZERO PUSH2 0x182F JUMPI PUSH1 0x0 DUP1 MLOAD PUSH1 0x20 PUSH2 0x35BD DUP4 CODECOPY DUP2 MLOAD SWAP2 MSTORE SWAP4 PUSH2 0x1CCD SWAP4 PUSH2 0x1CD7 JUMPI JUMPDEST POP PUSH2 0x1C60 PUSH1 0x8 PUSH2 0x1C56 PUSH1 0x64 DUP10 DIV DUP10 PUSH2 0x2D71 JUMP JUMPDEST SWAP3 ADD SWAP2 DUP3 SLOAD PUSH2 0x326C JUMP JUMPDEST SWAP1 SSTORE JUMPDEST DUP4 PUSH1 0x0 MSTORE PUSH1 0x6 PUSH1 0x20 MSTORE PUSH1 0x40 PUSH1 0x0 KECCAK256 PUSH1 0x1 DUP1 PUSH1 0xA0 SHL SUB CALLER AND PUSH1 0x0 MSTORE PUSH1 0x20 MSTORE PUSH1 0x40 PUSH1 0x0 KECCAK256 PUSH1 0x1 PUSH1 0xFF NOT DUP3 SLOAD AND OR SWAP1 SSTORE DUP4 PUSH1 0x0 MSTORE PUSH1 0x4 PUSH1 0x20 MSTORE PUSH2 0x1CA7 CALLER PUSH1 0x40 PUSH1 0x0 KECCAK256 PUSH2 0x3225 JUMP JUMPDEST SLOAD PUSH1 0x40 DUP1 MLOAD SWAP6 DUP7 MSTORE PUSH1 0x10 SWAP2 SWAP1 SWAP2 SHR PUSH1 0x1 PUSH1 0x1 PUSH1 0xA0 SHL SUB AND PUSH1 0x20 DUP7 ADD MSTORE CALLER SWAP5 SWAP2 DUP3 SWAP2 DUP3 ADD SWAP1 JUMP JUMPDEST SUB SWAP1 LOG3 PUSH1 0x1 PUSH1 0x0 SSTORE STOP JUMPDEST PUSH2 0x1CEF SWAP1 PUSH1 0x20 RETURNDATASIZE PUSH1 0x20 GT PUSH2 0x1828 JUMPI PUSH2 0x1819 DUP2 DUP4 PUSH2 0x28E7 JUMP JUMPDEST PUSH2 0x1C43 JUMP JUMPDEST PUSH1 0x40 MLOAD PUSH4 0x6EB1769F PUSH1 0xE1 SHL DUP2 MSTORE CALLER PUSH1 0x4 DUP3 ADD MSTORE ADDRESS PUSH1 0x24 DUP3 ADD MSTORE SWAP1 PUSH1 0x20 DUP3 PUSH1 0x44 DUP2 DUP5 GAS STATICCALL DUP1 ISZERO PUSH2 0x182F JUMPI DUP7 SWAP3 PUSH1 0x0 SWAP2 PUSH2 0x1D6B JUMPI JUMPDEST POP SWAP4 PUSH2 0x1D58 DUP4 PUSH1 0x8 SWAP4 PUSH2 0x1D4F PUSH2 0x1CCD SWAP8 SWAP7 PUSH1 0x0 DUP1 MLOAD PUSH1 0x20 PUSH2 0x35BD DUP4 CODECOPY DUP2 MLOAD SWAP2 MSTORE SWAP10 LT ISZERO PUSH2 0x318C JUMP JUMPDEST ADDRESS SWAP1 CALLER SWAP1 PUSH2 0x3566 JUMP JUMPDEST ADD PUSH2 0x1D64 DUP7 DUP3 SLOAD PUSH2 0x326C JUMP JUMPDEST SWAP1 SSTORE PUSH2 0x1C63 JUMP JUMPDEST SWAP2 SWAP4 SWAP3 POP POP PUSH1 0x20 DUP2 RETURNDATASIZE PUSH1 0x20 GT PUSH2 0x1D9E JUMPI JUMPDEST DUP2 PUSH2 0x1D89 PUSH1 0x20 SWAP4 DUP4 PUSH2 0x28E7 JUMP JUMPDEST DUP2 ADD SUB SLT PUSH2 0x1200 JUMPI MLOAD SWAP1 SWAP2 DUP6 SWAP2 PUSH2 0x1D58 PUSH2 0x1D27 JUMP JUMPDEST RETURNDATASIZE SWAP2 POP PUSH2 0x1D7C JUMP JUMPDEST CALLVALUE PUSH2 0x1200 JUMPI PUSH1 0x0 CALLDATASIZE PUSH1 0x3 NOT ADD SLT PUSH2 0x1200 JUMPI PUSH1 0x20 PUSH1 0x40 MLOAD PUSH2 0x1388 DUP2 MSTORE RETURN JUMPDEST CALLVALUE PUSH2 0x1200 JUMPI PUSH1 0x0 CALLDATASIZE PUSH1 0x3 NOT ADD SLT PUSH2 0x1200 JUMPI PUSH1 0x20 PUSH1 0x3 SLOAD PUSH1 0x40 MLOAD SWAP1 DUP2 MSTORE RETURN JUMPDEST CALLVALUE PUSH2 0x1200 JUMPI PUSH1 0x0 CALLDATASIZE PUSH1 0x3 NOT ADD SLT PUSH2 0x1200 JUMPI PUSH1 0x20 PUSH1 0xFF PUSH1 0x2 SLOAD AND PUSH1 0x40 MLOAD SWAP1 ISZERO ISZERO DUP2 MSTORE RETURN JUMPDEST CALLVALUE PUSH2 0x1200 JUMPI PUSH1 0x0 CALLDATASIZE PUSH1 0x3 NOT ADD SLT PUSH2 0x1200 JUMPI PUSH1 0x20 PUSH1 0x40 MLOAD PUSH2 0x3E8 DUP2 MSTORE RETURN JUMPDEST CALLVALUE PUSH2 0x1200 JUMPI PUSH1 0x20 CALLDATASIZE PUSH1 0x3 NOT ADD SLT PUSH2 0x1200 JUMPI PUSH1 0x4 CALLDATALOAD PUSH2 0x1E53 PUSH2 0x1E41 DUP3 PUSH2 0x2840 JUMP JUMPDEST POP SLOAD PUSH1 0x1 PUSH1 0x1 PUSH1 0xA0 SHL SUB AND CALLER EQ PUSH2 0x3055 JUMP JUMPDEST PUSH2 0x1E5B PUSH2 0x3352 JUMP JUMPDEST PUSH2 0x1E68 PUSH1 0x3 SLOAD DUP3 LT PUSH2 0x3279 JUMP JUMPDEST PUSH1 0x1 PUSH1 0x1 PUSH1 0x40 SHL SUB PUSH1 0x4 PUSH2 0x1E7B DUP4 PUSH2 0x2840 JUMP JUMPDEST POP ADD SLOAD PUSH1 0x40 SHR AND TIMESTAMP GT ISZERO PUSH2 0x206B JUMPI PUSH1 0xFF PUSH1 0xA PUSH2 0x1E96 DUP4 PUSH2 0x2840 JUMP JUMPDEST POP ADD SLOAD AND PUSH2 0x2014 JUMPI PUSH1 0xFF PUSH1 0xA PUSH2 0x1EAB DUP4 PUSH2 0x2840 JUMP JUMPDEST POP ADD SLOAD PUSH1 0x8 SHR AND PUSH2 0x1FD6 JUMPI PUSH1 0x8 PUSH2 0x1EC1 DUP3 PUSH2 0x2840 JUMP JUMPDEST POP ADD SLOAD PUSH1 0x0 PUSH1 0x8 PUSH2 0x1ED1 DUP5 PUSH2 0x2840 JUMP JUMPDEST POP ADD SSTORE PUSH1 0xA PUSH2 0x1EDF DUP4 PUSH2 0x2840 JUMP JUMPDEST POP ADD DUP1 SLOAD PUSH2 0xFF00 NOT AND PUSH2 0x100 OR SWAP1 SSTORE PUSH2 0x1EF7 DUP3 PUSH2 0x2840 JUMP JUMPDEST POP PUSH1 0xA ADD SLOAD PUSH1 0x40 MLOAD PUSH4 0xA9059CBB PUSH1 0xE0 SHL DUP2 MSTORE CALLER PUSH1 0x4 DUP3 ADD MSTORE PUSH1 0x24 DUP2 ADD DUP4 SWAP1 MSTORE SWAP1 PUSH1 0x20 SWAP1 DUP3 SWAP1 PUSH1 0x10 SHR PUSH1 0x1 PUSH1 0x1 PUSH1 0xA0 SHL SUB AND DUP2 PUSH1 0x0 DUP2 PUSH1 0x44 DUP2 ADD SUB SWAP3 GAS CALL SWAP1 DUP2 ISZERO PUSH2 0x182F JUMPI PUSH1 0x0 SWAP2 PUSH2 0x1FB7 JUMPI JUMPDEST POP ISZERO PUSH2 0x1F7B JUMPI PUSH1 0x20 PUSH32 0x80230996023D69B50793FA73F1919127C9D8E741D3989743C479169F22E7A288 SWAP2 PUSH1 0x40 MLOAD SWAP1 DUP2 MSTORE LOG2 PUSH1 0x1 PUSH1 0x0 SSTORE STOP JUMPDEST PUSH1 0x40 MLOAD PUSH3 0x461BCD PUSH1 0xE5 SHL DUP2 MSTORE PUSH1 0x20 PUSH1 0x4 DUP3 ADD MSTORE PUSH1 0x14 PUSH1 0x24 DUP3 ADD MSTORE PUSH20 0x119D5B99081D1C985B9CD9995C8819985A5B1959 PUSH1 0x62 SHL PUSH1 0x44 DUP3 ADD MSTORE PUSH1 0x64 SWAP1 REVERT JUMPDEST PUSH2 0x1FD0 SWAP2 POP PUSH1 0x20 RETURNDATASIZE PUSH1 0x20 GT PUSH2 0x1828 JUMPI PUSH2 0x1819 DUP2 DUP4 PUSH2 0x28E7 JUMP JUMPDEST DUP4 PUSH2 0x1F43 JUMP JUMPDEST PUSH1 0x40 MLOAD PUSH3 0x461BCD PUSH1 0xE5 SHL DUP2 MSTORE PUSH1 0x20 PUSH1 0x4 DUP3 ADD MSTORE PUSH1 0x16 PUSH1 0x24 DUP3 ADD MSTORE PUSH22 0x119D5B991CC8185B1C9958591E481C995B19585CD959 PUSH1 0x52 SHL PUSH1 0x44 DUP3 ADD MSTORE PUSH1 0x64 SWAP1 REVERT JUMPDEST PUSH1 0x40 MLOAD PUSH3 0x461BCD PUSH1 0xE5 SHL DUP2 MSTORE PUSH1 0x20 PUSH1 0x4 DUP3 ADD MSTORE PUSH1 0x29 PUSH1 0x24 DUP3 ADD MSTORE PUSH32 0x43616E6E6F742072656C656173652066756E647320666F7220612063616E6365 PUSH1 0x44 DUP3 ADD MSTORE PUSH9 0x1B195908195D995B9D PUSH1 0xBA SHL PUSH1 0x64 DUP3 ADD MSTORE PUSH1 0x84 SWAP1 REVERT JUMPDEST PUSH1 0x40 MLOAD PUSH3 0x461BCD PUSH1 0xE5 SHL DUP2 MSTORE PUSH1 0x20 PUSH1 0x4 DUP3 ADD MSTORE PUSH1 0x17 PUSH1 0x24 DUP3 ADD MSTORE PUSH32 0x4576656E7420686173206E6F7420656E64656420796574000000000000000000 PUSH1 0x44 DUP3 ADD MSTORE PUSH1 0x64 SWAP1 REVERT JUMPDEST CALLVALUE PUSH2 0x1200 JUMPI PUSH1 0x40 CALLDATASIZE PUSH1 0x3 NOT ADD SLT PUSH2 0x1200 JUMPI PUSH1 0x24 CALLDATALOAD PUSH1 0x1 PUSH1 0x1 PUSH1 0xA0 SHL SUB DUP2 AND DUP2 SUB PUSH2 0x1200 JUMPI PUSH1 0x4 CALLDATALOAD PUSH1 0x0 MSTORE PUSH1 0x6 PUSH1 0x20 MSTORE PUSH1 0x40 PUSH1 0x0 KECCAK256 SWAP1 PUSH1 0x1 DUP1 PUSH1 0xA0 SHL SUB AND PUSH1 0x0 MSTORE PUSH1 0x20 MSTORE PUSH1 0x20 PUSH1 0xFF PUSH1 0x40 PUSH1 0x0 KECCAK256 SLOAD AND PUSH1 0x40 MLOAD SWAP1 ISZERO ISZERO DUP2 MSTORE RETURN JUMPDEST CALLVALUE PUSH2 0x1200 JUMPI PUSH1 0x20 CALLDATASIZE PUSH1 0x3 NOT ADD SLT PUSH2 0x1200 JUMPI PUSH1 0x4 CALLDATALOAD PUSH2 0x2124 PUSH2 0x3352 JUMP JUMPDEST PUSH2 0x2131 PUSH1 0x3 SLOAD DUP3 LT PUSH2 0x2C32 JUMP JUMPDEST PUSH2 0x213D PUSH2 0x15FE DUP3 PUSH2 0x2840 JUMP JUMPDEST PUSH2 0x214C PUSH1 0xFF PUSH1 0x2 SLOAD AND ISZERO PUSH2 0x2CB0 JUMP JUMPDEST PUSH2 0x2155 DUP2 PUSH2 0x2840 JUMP JUMPDEST POP SWAP1 PUSH2 0x216F PUSH1 0x1 PUSH1 0x1 PUSH1 0x40 SHL SUB PUSH1 0x4 DUP5 ADD SLOAD AND TIMESTAMP LT PUSH2 0x3093 JUMP JUMPDEST PUSH2 0x217F PUSH1 0xFF PUSH1 0x6 DUP5 ADD SLOAD AND PUSH2 0x30CF JUMP JUMPDEST PUSH1 0x0 DUP2 DUP2 MSTORE PUSH1 0x6 PUSH1 0x20 SWAP1 DUP2 MSTORE PUSH1 0x40 DUP1 DUP4 KECCAK256 CALLER DUP5 MSTORE SWAP1 SWAP2 MSTORE SWAP1 KECCAK256 SLOAD PUSH2 0x21A6 SWAP1 PUSH1 0xFF AND ISZERO PUSH2 0x310C JUMP JUMPDEST DUP1 PUSH1 0x0 MSTORE PUSH1 0x4 PUSH1 0x20 MSTORE PUSH2 0x21C1 PUSH2 0x1388 PUSH1 0x40 PUSH1 0x0 KECCAK256 SLOAD LT PUSH2 0x314C JUMP JUMPDEST PUSH1 0x7 DUP3 ADD SLOAD PUSH1 0xA DUP4 ADD DUP1 SLOAD SWAP2 SWAP4 SWAP2 PUSH1 0x10 SHR PUSH1 0x1 PUSH1 0x1 PUSH1 0xA0 SHL SUB AND PUSH20 0x62B8B11039FCFE5AB0C56E502B1C372A3D2A9C7A DUP2 SUB PUSH2 0x2305 JUMPI POP PUSH1 0x0 SWAP1 PUSH1 0x20 PUSH2 0x2246 PUSH1 0x40 MLOAD DUP7 DUP4 DUP3 ADD MSTORE DUP3 DUP2 MSTORE PUSH2 0x2215 PUSH1 0x40 DUP3 PUSH2 0x28E7 JUMP JUMPDEST DUP4 SLOAD PUSH1 0x40 MLOAD PUSH4 0x2000575 PUSH1 0xE5 SHL DUP2 MSTORE SWAP6 DUP7 SWAP4 PUSH1 0x10 SWAP3 SWAP1 SWAP3 SHR PUSH1 0x1 PUSH1 0x1 PUSH1 0xA0 SHL SUB AND SWAP3 DUP5 SWAP3 DUP4 SWAP2 DUP13 ADDRESS PUSH1 0x4 DUP6 ADD PUSH2 0x31E9 JUMP JUMPDEST SUB SWAP3 GAS CALL DUP1 ISZERO PUSH2 0x182F JUMPI PUSH1 0x0 DUP1 MLOAD PUSH1 0x20 PUSH2 0x35BD DUP4 CODECOPY DUP2 MLOAD SWAP2 MSTORE SWAP4 PUSH2 0x1CCD SWAP4 PUSH1 0x8 SWAP3 PUSH2 0x22E6 JUMPI JUMPDEST POP JUMPDEST DUP6 PUSH1 0x0 MSTORE PUSH1 0x6 PUSH1 0x20 MSTORE PUSH1 0x40 PUSH1 0x0 KECCAK256 PUSH1 0x1 DUP1 PUSH1 0xA0 SHL SUB CALLER AND PUSH1 0x0 MSTORE PUSH1 0x20 MSTORE PUSH1 0x40 PUSH1 0x0 KECCAK256 PUSH1 0x1 PUSH1 0xFF NOT DUP3 SLOAD AND OR SWAP1 SSTORE DUP6 PUSH1 0x0 MSTORE PUSH1 0x4 PUSH1 0x20 MSTORE PUSH2 0x22B2 CALLER PUSH1 0x40 PUSH1 0x0 KECCAK256 PUSH2 0x3225 JUMP JUMPDEST ADD PUSH2 0x22BE DUP7 DUP3 SLOAD PUSH2 0x326C JUMP JUMPDEST SWAP1 SSTORE SLOAD PUSH1 0x40 DUP1 MLOAD SWAP6 DUP7 MSTORE PUSH1 0x10 SWAP2 SWAP1 SWAP2 SHR PUSH1 0x1 PUSH1 0x1 PUSH1 0xA0 SHL SUB AND PUSH1 0x20 DUP7 ADD MSTORE CALLER SWAP5 SWAP2 DUP3 SWAP2 DUP3 ADD SWAP1 JUMP JUMPDEST PUSH2 0x22FE SWAP1 PUSH1 0x20 RETURNDATASIZE PUSH1 0x20 GT PUSH2 0x1828 JUMPI PUSH2 0x1819 DUP2 DUP4 PUSH2 0x28E7 JUMP JUMPDEST POP DUP8 PUSH2 0x226C JUMP JUMPDEST PUSH1 0x40 MLOAD PUSH4 0x6EB1769F PUSH1 0xE1 SHL DUP2 MSTORE CALLER PUSH1 0x4 DUP3 ADD MSTORE ADDRESS PUSH1 0x24 DUP3 ADD MSTORE SWAP1 PUSH1 0x20 DUP3 PUSH1 0x44 DUP2 DUP5 GAS STATICCALL DUP1 ISZERO PUSH2 0x182F JUMPI DUP7 SWAP3 PUSH1 0x0 SWAP2 PUSH2 0x2365 JUMPI JUMPDEST POP SWAP4 PUSH2 0x2360 DUP4 PUSH1 0x8 SWAP4 PUSH2 0x1D4F PUSH2 0x1CCD SWAP8 SWAP7 PUSH1 0x0 DUP1 MLOAD PUSH1 0x20 PUSH2 0x35BD DUP4 CODECOPY DUP2 MLOAD SWAP2 MSTORE SWAP10 LT ISZERO PUSH2 0x318C JUMP JUMPDEST PUSH2 0x226E JUMP JUMPDEST SWAP2 SWAP4 SWAP3 POP POP PUSH1 0x20 DUP2 RETURNDATASIZE PUSH1 0x20 GT PUSH2 0x2398 JUMPI JUMPDEST DUP2 PUSH2 0x2383 PUSH1 0x20 SWAP4 DUP4 PUSH2 0x28E7 JUMP JUMPDEST DUP2 ADD SUB SLT PUSH2 0x1200 JUMPI MLOAD SWAP1 SWAP2 DUP6 SWAP2 PUSH2 0x2360 PUSH2 0x2338 JUMP JUMPDEST RETURNDATASIZE SWAP2 POP PUSH2 0x2376 JUMP JUMPDEST CALLVALUE PUSH2 0x1200 JUMPI PUSH1 0x20 CALLDATASIZE PUSH1 0x3 NOT ADD SLT PUSH2 0x1200 JUMPI PUSH1 0x4 CALLDATALOAD PUSH2 0x23C0 PUSH2 0x1E41 DUP3 PUSH2 0x2840 JUMP JUMPDEST PUSH2 0x23CD PUSH1 0x3 SLOAD DUP3 LT PUSH2 0x2C32 JUMP JUMPDEST PUSH2 0x23D9 PUSH2 0x15FE DUP3 PUSH2 0x2840 JUMP JUMPDEST PUSH2 0x23E8 PUSH1 0xFF PUSH1 0x2 SLOAD AND ISZERO PUSH2 0x2CB0 JUMP JUMPDEST PUSH1 0xFF PUSH1 0x6 PUSH2 0x23F5 DUP4 PUSH2 0x2840 JUMP JUMPDEST POP ADD SLOAD AND ISZERO PUSH2 0x2452 JUMPI PUSH1 0x6 PUSH2 0x2409 DUP3 PUSH2 0x2840 JUMP JUMPDEST POP ADD DUP1 SLOAD PUSH1 0xFF NOT AND SWAP1 SSTORE PUSH1 0xA PUSH2 0x241E DUP3 PUSH2 0x2840 JUMP JUMPDEST POP ADD DUP1 SLOAD PUSH1 0xFF NOT AND PUSH1 0x1 OR SWAP1 SSTORE PUSH32 0xCEAF11772900FE569752A0207C8639FB8228EB8663456DC9EAA3A08F927A8705 PUSH1 0x0 DUP1 LOG2 STOP JUMPDEST PUSH1 0x40 MLOAD PUSH3 0x461BCD PUSH1 0xE5 SHL DUP2 MSTORE PUSH1 0x20 PUSH1 0x4 DUP3 ADD MSTORE PUSH1 0x10 PUSH1 0x24 DUP3 ADD MSTORE PUSH16 0x105B1C9958591E4818D85B98D95B1959 PUSH1 0x82 SHL PUSH1 0x44 DUP3 ADD MSTORE PUSH1 0x64 SWAP1 REVERT JUMPDEST CALLVALUE PUSH2 0x1200 JUMPI PUSH1 0x20 CALLDATASIZE PUSH1 0x3 NOT ADD SLT PUSH2 0x1200 JUMPI PUSH1 0x1 PUSH1 0x1 PUSH1 0xA0 SHL SUB PUSH2 0x24AB PUSH2 0x2BB2 JUMP JUMPDEST AND PUSH1 0x0 MSTORE PUSH1 0x5 PUSH1 0x20 MSTORE PUSH2 0x1252 PUSH2 0x24C4 PUSH1 0x40 PUSH1 0x0 KECCAK256 PUSH2 0x2FFC JUMP JUMPDEST PUSH1 0x40 MLOAD SWAP2 DUP3 SWAP2 PUSH1 0x20 DUP4 MSTORE PUSH1 0x20 DUP4 ADD SWAP1 PUSH2 0x2B06 JUMP JUMPDEST CALLVALUE PUSH2 0x1200 JUMPI PUSH1 0x0 CALLDATASIZE PUSH1 0x3 NOT ADD SLT PUSH2 0x1200 JUMPI PUSH1 0x20 PUSH1 0x40 MLOAD PUSH2 0xE10 DUP2 MSTORE RETURN JUMPDEST CALLVALUE PUSH2 0x1200 JUMPI PUSH1 0x0 CALLDATASIZE PUSH1 0x3 NOT ADD SLT PUSH2 0x1200 JUMPI PUSH1 0x3 SLOAD CALLER SWAP1 PUSH1 0x0 SWAP1 DUP2 JUMPDEST DUP2 DUP2 LT PUSH2 0x25AC JUMPI POP PUSH2 0x252A PUSH2 0x2524 DUP4 PUSH2 0x2DE6 JUMP JUMPDEST SWAP3 PUSH2 0x2E90 JUMP JUMPDEST SWAP3 PUSH1 0x0 SWAP1 DUP2 JUMPDEST DUP4 DUP2 LT PUSH2 0x2546 JUMPI PUSH1 0x40 MLOAD DUP1 PUSH2 0x1252 DUP9 DUP9 DUP4 PUSH2 0x2B5F JUMP JUMPDEST DUP1 PUSH1 0x0 MSTORE PUSH1 0x6 PUSH1 0x20 MSTORE PUSH1 0xFF PUSH1 0x40 DUP1 PUSH1 0x0 KECCAK256 PUSH1 0x0 SWAP1 DUP6 DUP3 MSTORE PUSH1 0x20 MSTORE KECCAK256 SLOAD AND PUSH2 0x2570 JUMPI JUMPDEST PUSH1 0x1 ADD PUSH2 0x2530 JUMP JUMPDEST SWAP2 PUSH2 0x25A4 DUP2 DUP5 PUSH2 0x2582 PUSH1 0x1 SWAP5 DUP10 PUSH2 0x2EE0 JUMP JUMPDEST MSTORE PUSH2 0x258F PUSH2 0x12EE DUP7 PUSH2 0x2840 JUMP JUMPDEST PUSH2 0x2599 DUP3 DUP11 PUSH2 0x2EE0 JUMP JUMPDEST MSTORE PUSH2 0x1309 DUP2 DUP10 PUSH2 0x2EE0 JUMP JUMPDEST SWAP3 SWAP1 POP PUSH2 0x2568 JUMP JUMPDEST DUP1 PUSH1 0x0 MSTORE PUSH1 0x6 PUSH1 0x20 MSTORE PUSH1 0xFF PUSH1 0x40 DUP1 PUSH1 0x0 KECCAK256 PUSH1 0x0 SWAP1 DUP8 DUP3 MSTORE PUSH1 0x20 MSTORE KECCAK256 SLOAD AND PUSH2 0x25D6 JUMPI JUMPDEST PUSH1 0x1 ADD PUSH2 0x2510 JUMP JUMPDEST SWAP2 PUSH2 0x25E2 PUSH1 0x1 SWAP2 PUSH2 0x2DC0 JUMP JUMPDEST SWAP3 SWAP1 POP PUSH2 0x25CE JUMP JUMPDEST CALLVALUE PUSH2 0x1200 JUMPI PUSH1 0x20 CALLDATASIZE PUSH1 0x3 NOT ADD SLT PUSH2 0x1200 JUMPI PUSH1 0x4 CALLDATALOAD PUSH2 0x2606 PUSH2 0x3352 JUMP JUMPDEST PUSH2 0x2613 PUSH1 0x3 SLOAD DUP3 LT PUSH2 0x2C32 JUMP JUMPDEST PUSH2 0x261F PUSH2 0x15FE DUP3 PUSH2 0x2840 JUMP JUMPDEST PUSH2 0x262E PUSH1 0xFF PUSH1 0x2 SLOAD AND ISZERO PUSH2 0x2CB0 JUMP JUMPDEST PUSH1 0x0 DUP2 DUP2 MSTORE PUSH1 0x6 PUSH1 0x20 SWAP1 DUP2 MSTORE PUSH1 0x40 DUP1 DUP4 KECCAK256 CALLER DUP5 MSTORE SWAP1 SWAP2 MSTORE SWAP1 KECCAK256 SLOAD PUSH2 0x2654 SWAP1 PUSH1 0xFF AND PUSH2 0x2CEE JUMP JUMPDEST PUSH1 0x7 PUSH2 0x265F DUP3 PUSH2 0x2840 JUMP JUMPDEST POP ADD SLOAD PUSH20 0x62B8B11039FCFE5AB0C56E502B1C372A3D2A9C7A PUSH2 0x2680 DUP4 PUSH2 0x2840 JUMP JUMPDEST POP PUSH1 0xA ADD SLOAD PUSH1 0x10 SHR PUSH1 0x1 PUSH1 0x1 PUSH1 0xA0 SHL SUB AND EQ PUSH2 0x26BD JUMPI JUMPDEST PUSH2 0x19BE PUSH1 0x8 PUSH2 0x26A5 DUP5 PUSH2 0x2840 JUMP JUMPDEST POP ADD SLOAD PUSH1 0x7 PUSH2 0x26B3 DUP6 PUSH2 0x2840 JUMP JUMPDEST POP ADD SLOAD GT ISZERO PUSH2 0x2D30 JUMP JUMPDEST PUSH1 0x63 DUP2 MUL SWAP1 DUP1 DUP3 DIV PUSH1 0x63 EQ SWAP1 ISZERO OR ISZERO PUSH2 0x949 JUMPI PUSH1 0x64 SWAP1 DIV PUSH2 0x2697 JUMP JUMPDEST CALLVALUE PUSH2 0x1200 JUMPI PUSH1 0x20 CALLDATASIZE PUSH1 0x3 NOT ADD SLT PUSH2 0x1200 JUMPI PUSH1 0x4 CALLDATALOAD PUSH1 0x3 SLOAD DUP2 LT ISZERO PUSH2 0x1200 JUMPI PUSH2 0x2700 SWAP1 PUSH2 0x2840 JUMP JUMPDEST POP DUP1 SLOAD PUSH1 0x1 PUSH1 0x1 PUSH1 0xA0 SHL SUB AND PUSH2 0x2718 PUSH1 0x1 DUP4 ADD PUSH2 0x2908 JUMP JUMPDEST SWAP2 PUSH2 0x2725 PUSH1 0x2 DUP3 ADD PUSH2 0x2908 JUMP JUMPDEST PUSH2 0x2731 PUSH1 0x3 DUP4 ADD PUSH2 0x2908 JUMP JUMPDEST PUSH1 0x4 DUP4 ADD SLOAD SWAP3 SWAP1 PUSH2 0x2744 PUSH1 0x5 DUP4 ADD PUSH2 0x2908 JUMP JUMPDEST SWAP4 PUSH1 0x6 DUP4 ADD SLOAD PUSH1 0xFF AND SWAP5 PUSH1 0x7 DUP5 ADD SLOAD SWAP2 PUSH1 0x8 DUP6 ADD SLOAD SWAP4 PUSH1 0x9 DUP7 ADD SLOAD SWAP6 PUSH1 0xA ADD SLOAD SWAP7 PUSH1 0x40 MLOAD SWAP11 DUP12 SWAP11 DUP12 MSTORE PUSH1 0x20 DUP12 ADD PUSH2 0x200 SWAP1 MSTORE PUSH2 0x200 DUP12 ADD PUSH2 0x2784 SWAP2 PUSH2 0x29AC JUMP JUMPDEST DUP11 DUP2 SUB PUSH1 0x40 DUP13 ADD MSTORE PUSH2 0x2795 SWAP2 PUSH2 0x29AC JUMP JUMPDEST DUP10 DUP2 SUB PUSH1 0x60 DUP12 ADD MSTORE PUSH2 0x27A6 SWAP2 PUSH2 0x29AC JUMP JUMPDEST SWAP1 PUSH1 0x1 PUSH1 0x1 PUSH1 0x40 SHL SUB DUP2 AND PUSH1 0x80 DUP11 ADD MSTORE DUP1 PUSH1 0x40 SHR PUSH1 0x1 PUSH1 0x1 PUSH1 0x40 SHL SUB AND PUSH1 0xA0 DUP11 ADD MSTORE DUP1 PUSH1 0x80 SHR PUSH1 0x1 PUSH1 0x1 PUSH1 0x40 SHL SUB AND PUSH1 0xC0 DUP11 ADD MSTORE PUSH1 0xC0 SHR PUSH1 0xE0 DUP10 ADD MSTORE DUP8 DUP2 SUB PUSH2 0x100 DUP10 ADD MSTORE PUSH2 0x27F4 SWAP2 PUSH2 0x29AC JUMP JUMPDEST SWAP5 ISZERO ISZERO PUSH2 0x120 DUP8 ADD MSTORE PUSH2 0x140 DUP7 ADD MSTORE PUSH2 0x160 DUP6 ADD MSTORE PUSH2 0x180 DUP5 ADD MSTORE PUSH1 0xFF DUP2 DUP2 AND ISZERO ISZERO PUSH2 0x1A0 DUP6 ADD MSTORE PUSH1 0x8 DUP3 SWAP1 SHR AND ISZERO ISZERO PUSH2 0x1C0 DUP5 ADD MSTORE PUSH1 0x10 SHR PUSH1 0x1 PUSH1 0x1 PUSH1 0xA0 SHL SUB AND PUSH2 0x1E0 DUP4 ADD MSTORE SUB SWAP1 RETURN JUMPDEST PUSH1 0x3 SLOAD DUP2 LT ISZERO PUSH2 0x285F JUMPI PUSH1 0x3 PUSH1 0x0 MSTORE PUSH1 0xB PUSH1 0x20 PUSH1 0x0 KECCAK256 SWAP2 MUL ADD SWAP1 PUSH1 0x0 SWAP1 JUMP JUMPDEST PUSH4 0x4E487B71 PUSH1 0xE0 SHL PUSH1 0x0 MSTORE PUSH1 0x32 PUSH1 0x4 MSTORE PUSH1 0x24 PUSH1 0x0 REVERT JUMPDEST DUP1 SLOAD DUP3 LT ISZERO PUSH2 0x285F JUMPI PUSH1 0x0 MSTORE PUSH1 0xB PUSH1 0x20 PUSH1 0x0 KECCAK256 SWAP2 MUL ADD SWAP1 PUSH1 0x0 SWAP1 JUMP JUMPDEST SWAP1 PUSH1 0x1 DUP3 DUP2 SHR SWAP3 AND DUP1 ISZERO PUSH2 0x28C1 JUMPI JUMPDEST PUSH1 0x20 DUP4 LT EQ PUSH2 0x28AB JUMPI JUMP JUMPDEST PUSH4 0x4E487B71 PUSH1 0xE0 SHL PUSH1 0x0 MSTORE PUSH1 0x22 PUSH1 0x4 MSTORE PUSH1 0x24 PUSH1 0x0 REVERT JUMPDEST SWAP2 PUSH1 0x7F AND SWAP2 PUSH2 0x28A0 JUMP JUMPDEST PUSH2 0x200 DUP2 ADD SWAP1 DUP2 LT PUSH1 0x1 PUSH1 0x1 PUSH1 0x40 SHL SUB DUP3 GT OR PUSH2 0xA20 JUMPI PUSH1 0x40 MSTORE JUMP JUMPDEST SWAP1 PUSH1 0x1F DUP1 NOT SWAP2 ADD AND DUP2 ADD SWAP1 DUP2 LT PUSH1 0x1 PUSH1 0x1 PUSH1 0x40 SHL SUB DUP3 GT OR PUSH2 0xA20 JUMPI PUSH1 0x40 MSTORE JUMP JUMPDEST SWAP1 PUSH1 0x40 MLOAD SWAP2 DUP3 PUSH1 0x0 DUP3 SLOAD SWAP3 PUSH2 0x291C DUP5 PUSH2 0x2891 JUMP JUMPDEST DUP1 DUP5 MSTORE SWAP4 PUSH1 0x1 DUP2 AND SWAP1 DUP2 ISZERO PUSH2 0x298A JUMPI POP PUSH1 0x1 EQ PUSH2 0x2943 JUMPI JUMPDEST POP PUSH2 0x2941 SWAP3 POP SUB DUP4 PUSH2 0x28E7 JUMP JUMPDEST JUMP JUMPDEST SWAP1 POP PUSH1 0x0 SWAP3 SWAP2 SWAP3 MSTORE PUSH1 0x20 PUSH1 0x0 KECCAK256 SWAP1 PUSH1 0x0 SWAP2 JUMPDEST DUP2 DUP4 LT PUSH2 0x296E JUMPI POP POP SWAP1 PUSH1 0x20 PUSH2 0x2941 SWAP3 DUP3 ADD ADD CODESIZE PUSH2 0x2934 JUMP JUMPDEST PUSH1 0x20 SWAP2 SWAP4 POP DUP1 PUSH1 0x1 SWAP2 SLOAD DUP4 DUP6 DUP10 ADD ADD MSTORE ADD SWAP2 ADD SWAP1 SWAP2 DUP5 SWAP3 PUSH2 0x2955 JUMP JUMPDEST SWAP1 POP PUSH1 0x20 SWAP3 POP PUSH2 0x2941 SWAP5 SWAP2 POP PUSH1 0xFF NOT AND DUP3 DUP5 ADD MSTORE ISZERO ISZERO PUSH1 0x5 SHL DUP3 ADD ADD CODESIZE PUSH2 0x2934 JUMP JUMPDEST SWAP2 SWAP1 DUP3 MLOAD SWAP3 DUP4 DUP3 MSTORE PUSH1 0x0 JUMPDEST DUP5 DUP2 LT PUSH2 0x29D8 JUMPI POP POP DUP3 PUSH1 0x0 PUSH1 0x20 DUP1 SWAP5 SWAP6 DUP5 ADD ADD MSTORE PUSH1 0x1F DUP1 NOT SWAP2 ADD AND ADD ADD SWAP1 JUMP JUMPDEST DUP1 PUSH1 0x20 DUP1 SWAP3 DUP5 ADD ADD MLOAD DUP3 DUP3 DUP7 ADD ADD MSTORE ADD PUSH2 0x29B7 JUMP JUMPDEST SWAP1 PUSH1 0x1 DUP1 PUSH1 0xA0 SHL SUB DUP3 MLOAD AND DUP2 MSTORE PUSH2 0x1E0 PUSH2 0x2AA5 PUSH2 0x2A45 PUSH2 0x2A33 PUSH2 0x2A21 PUSH1 0x20 DUP8 ADD MLOAD PUSH2 0x200 PUSH1 0x20 DUP9 ADD MSTORE PUSH2 0x200 DUP8 ADD SWAP1 PUSH2 0x29AC JUMP JUMPDEST PUSH1 0x40 DUP8 ADD MLOAD DUP7 DUP3 SUB PUSH1 0x40 DUP9 ADD MSTORE PUSH2 0x29AC JUMP JUMPDEST PUSH1 0x60 DUP7 ADD MLOAD DUP6 DUP3 SUB PUSH1 0x60 DUP8 ADD MSTORE PUSH2 0x29AC JUMP JUMPDEST PUSH1 0x1 PUSH1 0x1 PUSH1 0x40 SHL SUB PUSH1 0x80 DUP7 ADD MLOAD AND PUSH1 0x80 DUP6 ADD MSTORE PUSH1 0x1 PUSH1 0x1 PUSH1 0x40 SHL SUB PUSH1 0xA0 DUP7 ADD MLOAD AND PUSH1 0xA0 DUP6 ADD MSTORE PUSH1 0x1 PUSH1 0x1 PUSH1 0x40 SHL SUB PUSH1 0xC0 DUP7 ADD MLOAD AND PUSH1 0xC0 DUP6 ADD MSTORE PUSH1 0x1 PUSH1 0x1 PUSH1 0x40 SHL SUB PUSH1 0xE0 DUP7 ADD MLOAD AND PUSH1 0xE0 DUP6 ADD MSTORE PUSH2 0x100 DUP6 ADD MLOAD DUP5 DUP3 SUB PUSH2 0x100 DUP7 ADD MSTORE PUSH2 0x29AC JUMP JUMPDEST SWAP3 PUSH2 0x120 DUP2 ADD MLOAD ISZERO ISZERO PUSH2 0x120 DUP5 ADD MSTORE PUSH2 0x140 DUP2 ADD MLOAD PUSH2 0x140 DUP5 ADD MSTORE PUSH2 0x160 DUP2 ADD MLOAD PUSH2 0x160 DUP5 ADD MSTORE PUSH2 0x180 DUP2 ADD MLOAD PUSH2 0x180 DUP5 ADD MSTORE PUSH2 0x1A0 DUP2 ADD MLOAD ISZERO ISZERO PUSH2 0x1A0 DUP5 ADD MSTORE PUSH2 0x1C0 DUP2 ADD MLOAD ISZERO ISZERO PUSH2 0x1C0 DUP5 ADD MSTORE DUP2 PUSH1 0x1 DUP1 PUSH1 0xA0 SHL SUB SWAP2 ADD MLOAD AND SWAP2 ADD MSTORE SWAP1 JUMP JUMPDEST SWAP1 DUP1 PUSH1 0x20 DUP4 MLOAD SWAP2 DUP3 DUP2 MSTORE ADD SWAP2 PUSH1 0x20 DUP1 DUP4 PUSH1 0x5 SHL DUP4 ADD ADD SWAP5 ADD SWAP3 PUSH1 0x0 SWAP2 JUMPDEST DUP4 DUP4 LT PUSH2 0x2B32 JUMPI POP POP POP POP POP SWAP1 JUMP JUMPDEST SWAP1 SWAP2 SWAP3 SWAP4 SWAP5 PUSH1 0x20 DUP1 PUSH2 0x2B50 PUSH1 0x1 SWAP4 PUSH1 0x1F NOT DUP7 DUP3 SUB ADD DUP8 MSTORE DUP10 MLOAD PUSH2 0x29ED JUMP JUMPDEST SWAP8 ADD SWAP4 ADD SWAP4 ADD SWAP2 SWAP4 SWAP3 SWAP1 PUSH2 0x2B23 JUMP JUMPDEST SWAP3 SWAP2 PUSH1 0x40 DUP5 ADD SWAP4 PUSH1 0x40 DUP2 MSTORE DUP3 MLOAD DUP1 SWAP6 MSTORE PUSH1 0x20 PUSH1 0x60 DUP3 ADD SWAP4 ADD PUSH1 0x0 SWAP6 JUMPDEST DUP1 DUP8 LT PUSH2 0x2B9A JUMPI POP POP PUSH2 0x2B97 SWAP4 SWAP5 POP PUSH1 0x20 DUP2 DUP5 SUB SWAP2 ADD MSTORE PUSH2 0x2B06 JUMP JUMPDEST SWAP1 JUMP JUMPDEST SWAP1 SWAP4 PUSH1 0x20 DUP1 PUSH1 0x1 SWAP3 DUP8 MLOAD DUP2 MSTORE ADD SWAP6 ADD SWAP7 ADD SWAP6 SWAP1 PUSH2 0x2B7B JUMP JUMPDEST PUSH1 0x4 CALLDATALOAD SWAP1 PUSH1 0x1 PUSH1 0x1 PUSH1 0xA0 SHL SUB DUP3 AND DUP3 SUB PUSH2 0x1200 JUMPI JUMP JUMPDEST SWAP2 DUP2 PUSH1 0x1F DUP5 ADD SLT ISZERO PUSH2 0x1200 JUMPI DUP3 CALLDATALOAD SWAP2 PUSH1 0x1 PUSH1 0x1 PUSH1 0x40 SHL SUB DUP4 GT PUSH2 0x1200 JUMPI PUSH1 0x20 DUP4 DUP2 DUP7 ADD SWAP6 ADD ADD GT PUSH2 0x1200 JUMPI JUMP JUMPDEST SWAP1 PUSH1 0x20 DUP1 DUP4 MLOAD SWAP3 DUP4 DUP2 MSTORE ADD SWAP3 ADD SWAP1 PUSH1 0x0 JUMPDEST DUP2 DUP2 LT PUSH2 0x2C13 JUMPI POP POP POP SWAP1 JUMP JUMPDEST DUP3 MLOAD PUSH1 0x1 PUSH1 0x1 PUSH1 0xA0 SHL SUB AND DUP5 MSTORE PUSH1 0x20 SWAP4 DUP5 ADD SWAP4 SWAP1 SWAP3 ADD SWAP2 PUSH1 0x1 ADD PUSH2 0x2C06 JUMP JUMPDEST ISZERO PUSH2 0x2C39 JUMPI JUMP JUMPDEST PUSH1 0x40 MLOAD PUSH3 0x461BCD PUSH1 0xE5 SHL DUP2 MSTORE PUSH1 0x20 PUSH1 0x4 DUP3 ADD MSTORE PUSH1 0xD PUSH1 0x24 DUP3 ADD MSTORE PUSH13 0x125B9D985B1A5908195D995B9D PUSH1 0x9A SHL PUSH1 0x44 DUP3 ADD MSTORE PUSH1 0x64 SWAP1 REVERT JUMPDEST ISZERO PUSH2 0x2C75 JUMPI JUMP JUMPDEST PUSH1 0x40 MLOAD PUSH3 0x461BCD PUSH1 0xE5 SHL DUP2 MSTORE PUSH1 0x20 PUSH1 0x4 DUP3 ADD MSTORE PUSH1 0x13 PUSH1 0x24 DUP3 ADD MSTORE PUSH19 0x115D995B9D08191BD95CDB89DD08195E1A5CDD PUSH1 0x6A SHL PUSH1 0x44 DUP3 ADD MSTORE PUSH1 0x64 SWAP1 REVERT JUMPDEST ISZERO PUSH2 0x2CB7 JUMPI JUMP JUMPDEST PUSH1 0x40 MLOAD PUSH3 0x461BCD PUSH1 0xE5 SHL DUP2 MSTORE PUSH1 0x20 PUSH1 0x4 DUP3 ADD MSTORE PUSH1 0xF PUSH1 0x24 DUP3 ADD MSTORE PUSH15 0x10DBDB9D1C9858DD081C185D5CD959 PUSH1 0x8A SHL PUSH1 0x44 DUP3 ADD MSTORE PUSH1 0x64 SWAP1 REVERT JUMPDEST ISZERO PUSH2 0x2CF5 JUMPI JUMP JUMPDEST PUSH1 0x40 MLOAD PUSH3 0x461BCD PUSH1 0xE5 SHL DUP2 MSTORE PUSH1 0x20 PUSH1 0x4 DUP3 ADD MSTORE PUSH1 0x13 PUSH1 0x24 DUP3 ADD MSTORE PUSH19 0x139BC81D1A58DAD95D081C1D5C98DA185CD959 PUSH1 0x6A SHL PUSH1 0x44 DUP3 ADD MSTORE PUSH1 0x64 SWAP1 REVERT JUMPDEST ISZERO PUSH2 0x2D37 JUMPI JUMP JUMPDEST PUSH1 0x40 MLOAD PUSH3 0x461BCD PUSH1 0xE5 SHL DUP2 MSTORE PUSH1 0x20 PUSH1 0x4 DUP3 ADD MSTORE PUSH1 0x12 PUSH1 0x24 DUP3 ADD MSTORE PUSH18 0x496E73756666696369656E742066756E6473 PUSH1 0x70 SHL PUSH1 0x44 DUP3 ADD MSTORE PUSH1 0x64 SWAP1 REVERT JUMPDEST SWAP2 SWAP1 DUP3 SUB SWAP2 DUP3 GT PUSH2 0x949 JUMPI JUMP JUMPDEST ISZERO PUSH2 0x2D85 JUMPI JUMP JUMPDEST PUSH1 0x40 MLOAD PUSH3 0x461BCD PUSH1 0xE5 SHL DUP2 MSTORE PUSH1 0x20 PUSH1 0x4 DUP3 ADD MSTORE PUSH1 0x13 PUSH1 0x24 DUP3 ADD MSTORE PUSH19 0x1499599D5B99081C195C9A5BD908195B991959 PUSH1 0x6A SHL PUSH1 0x44 DUP3 ADD MSTORE PUSH1 0x64 SWAP1 REVERT JUMPDEST PUSH1 0x0 NOT DUP2 EQ PUSH2 0x949 JUMPI PUSH1 0x1 ADD SWAP1 JUMP JUMPDEST PUSH1 0x1 PUSH1 0x1 PUSH1 0x40 SHL SUB DUP2 GT PUSH2 0xA20 JUMPI PUSH1 0x5 SHL PUSH1 0x20 ADD SWAP1 JUMP JUMPDEST SWAP1 PUSH2 0x2DF0 DUP3 PUSH2 0x2DCF JUMP JUMPDEST PUSH2 0x2DFD PUSH1 0x40 MLOAD SWAP2 DUP3 PUSH2 0x28E7 JUMP JUMPDEST DUP3 DUP2 MSTORE DUP1 SWAP3 PUSH2 0x2E0E PUSH1 0x1F NOT SWAP2 PUSH2 0x2DCF JUMP JUMPDEST ADD SWAP1 PUSH1 0x20 CALLDATASIZE SWAP2 ADD CALLDATACOPY JUMP JUMPDEST PUSH1 0x40 MLOAD SWAP1 PUSH2 0x2E25 DUP3 PUSH2 0x28CB JUMP JUMPDEST PUSH1 0x0 PUSH2 0x1E0 DUP4 DUP3 DUP2 MSTORE PUSH1 0x60 PUSH1 0x20 DUP3 ADD MSTORE PUSH1 0x60 PUSH1 0x40 DUP3 ADD MSTORE PUSH1 0x60 DUP1 DUP3 ADD MSTORE DUP3 PUSH1 0x80 DUP3 ADD MSTORE DUP3 PUSH1 0xA0 DUP3 ADD MSTORE DUP3 PUSH1 0xC0 DUP3 ADD MSTORE DUP3 PUSH1 0xE0 DUP3 ADD MSTORE PUSH1 0x60 PUSH2 0x100 DUP3 ADD MSTORE DUP3 PUSH2 0x120 DUP3 ADD MSTORE DUP3 PUSH2 0x140 DUP3 ADD MSTORE DUP3 PUSH2 0x160 DUP3 ADD MSTORE DUP3 PUSH2 0x180 DUP3 ADD MSTORE DUP3 PUSH2 0x1A0 DUP3 ADD MSTORE DUP3 PUSH2 0x1C0 DUP3 ADD MSTORE ADD MSTORE JUMP JUMPDEST SWAP1 PUSH2 0x2E9A DUP3 PUSH2 0x2DCF JUMP JUMPDEST PUSH2 0x2EA7 PUSH1 0x40 MLOAD SWAP2 DUP3 PUSH2 0x28E7 JUMP JUMPDEST DUP3 DUP2 MSTORE DUP1 SWAP3 PUSH2 0x2EB8 PUSH1 0x1F NOT SWAP2 PUSH2 0x2DCF JUMP JUMPDEST ADD SWAP1 PUSH1 0x0 JUMPDEST DUP3 DUP2 LT PUSH2 0x2EC9 JUMPI POP POP POP JUMP JUMPDEST PUSH1 0x20 SWAP1 PUSH2 0x2ED4 PUSH2 0x2E18 JUMP JUMPDEST DUP3 DUP3 DUP6 ADD ADD MSTORE ADD PUSH2 0x2EBD JUMP JUMPDEST DUP1 MLOAD DUP3 LT ISZERO PUSH2 0x285F JUMPI PUSH1 0x20 SWAP2 PUSH1 0x5 SHL ADD ADD SWAP1 JUMP JUMPDEST SWAP1 PUSH1 0x40 MLOAD PUSH2 0x2F01 DUP2 PUSH2 0x28CB JUMP JUMPDEST DUP3 SLOAD PUSH1 0x1 PUSH1 0x1 PUSH1 0xA0 SHL SUB AND DUP2 MSTORE SWAP2 DUP3 SWAP1 PUSH2 0x1E0 SWAP1 PUSH1 0xA SWAP1 PUSH2 0x2F24 PUSH1 0x1 DUP3 ADD PUSH2 0x2908 JUMP JUMPDEST PUSH1 0x20 DUP6 ADD MSTORE PUSH2 0x2F35 PUSH1 0x2 DUP3 ADD PUSH2 0x2908 JUMP JUMPDEST PUSH1 0x40 DUP6 ADD MSTORE PUSH2 0x2F46 PUSH1 0x3 DUP3 ADD PUSH2 0x2908 JUMP JUMPDEST PUSH1 0x60 DUP6 ADD MSTORE PUSH1 0x4 DUP2 ADD SLOAD PUSH1 0x1 PUSH1 0x1 PUSH1 0x40 SHL SUB DUP2 AND PUSH1 0x80 DUP7 ADD MSTORE PUSH1 0x1 PUSH1 0x1 PUSH1 0x40 SHL SUB DUP2 PUSH1 0x40 SHR AND PUSH1 0xA0 DUP7 ADD MSTORE PUSH1 0x1 PUSH1 0x1 PUSH1 0x40 SHL SUB DUP2 PUSH1 0x80 SHR AND PUSH1 0xC0 DUP7 ADD MSTORE PUSH1 0xC0 SHR PUSH1 0xE0 DUP6 ADD MSTORE PUSH2 0x2F97 PUSH1 0x5 DUP3 ADD PUSH2 0x2908 JUMP JUMPDEST PUSH2 0x100 DUP6 ADD MSTORE PUSH1 0xFF PUSH1 0x6 DUP3 ADD SLOAD AND ISZERO ISZERO PUSH2 0x120 DUP6 ADD MSTORE PUSH1 0x7 DUP2 ADD SLOAD PUSH2 0x140 DUP6 ADD MSTORE PUSH1 0x8 DUP2 ADD SLOAD PUSH2 0x160 DUP6 ADD MSTORE PUSH1 0x9 DUP2 ADD SLOAD PUSH2 0x180 DUP6 ADD MSTORE ADD SLOAD PUSH1 0xFF DUP2 AND ISZERO ISZERO PUSH2 0x1A0 DUP5 ADD MSTORE PUSH1 0xFF DUP2 PUSH1 0x8 SHR AND ISZERO ISZERO PUSH2 0x1C0 DUP5 ADD MSTORE PUSH1 0x1 DUP1 PUSH1 0xA0 SHL SUB SWAP1 PUSH1 0x10 SHR AND SWAP2 ADD MSTORE JUMP JUMPDEST SWAP1 DUP2 SLOAD PUSH2 0x3008 DUP2 PUSH2 0x2DCF JUMP JUMPDEST SWAP3 PUSH2 0x3016 PUSH1 0x40 MLOAD SWAP5 DUP6 PUSH2 0x28E7 JUMP JUMPDEST DUP2 DUP5 MSTORE PUSH1 0x20 DUP5 ADD SWAP1 PUSH1 0x0 MSTORE PUSH1 0x20 PUSH1 0x0 KECCAK256 PUSH1 0x0 SWAP2 JUMPDEST DUP4 DUP4 LT PUSH2 0x3037 JUMPI POP POP POP POP JUMP JUMPDEST PUSH1 0xB PUSH1 0x20 PUSH1 0x1 SWAP3 PUSH2 0x3047 DUP6 PUSH2 0x2EF4 JUMP JUMPDEST DUP2 MSTORE ADD SWAP3 ADD SWAP3 ADD SWAP2 SWAP1 PUSH2 0x302A JUMP JUMPDEST ISZERO PUSH2 0x305C JUMPI JUMP JUMPDEST PUSH1 0x40 MLOAD PUSH3 0x461BCD PUSH1 0xE5 SHL DUP2 MSTORE PUSH1 0x20 PUSH1 0x4 DUP3 ADD MSTORE PUSH1 0xF PUSH1 0x24 DUP3 ADD MSTORE PUSH15 0x2737BA1032BB32B73A1037BBB732B9 PUSH1 0x89 SHL PUSH1 0x44 DUP3 ADD MSTORE PUSH1 0x64 SWAP1 REVERT JUMPDEST ISZERO PUSH2 0x309A JUMPI JUMP JUMPDEST PUSH1 0x40 MLOAD PUSH3 0x461BCD PUSH1 0xE5 SHL DUP2 MSTORE PUSH1 0x20 PUSH1 0x4 DUP3 ADD MSTORE PUSH1 0xD PUSH1 0x24 DUP3 ADD MSTORE PUSH13 0x115D995B9D08195E1C1A5C9959 PUSH1 0x9A SHL PUSH1 0x44 DUP3 ADD MSTORE PUSH1 0x64 SWAP1 REVERT JUMPDEST ISZERO PUSH2 0x30D6 JUMPI JUMP JUMPDEST PUSH1 0x40 MLOAD PUSH3 0x461BCD PUSH1 0xE5 SHL DUP2 MSTORE PUSH1 0x20 PUSH1 0x4 DUP3 ADD MSTORE PUSH1 0xE PUSH1 0x24 DUP3 ADD MSTORE PUSH14 0x4576656E7420696E616374697665 PUSH1 0x90 SHL PUSH1 0x44 DUP3 ADD MSTORE PUSH1 0x64 SWAP1 REVERT JUMPDEST ISZERO PUSH2 0x3113 JUMPI JUMP JUMPDEST PUSH1 0x40 MLOAD PUSH3 0x461BCD PUSH1 0xE5 SHL DUP2 MSTORE PUSH1 0x20 PUSH1 0x4 DUP3 ADD MSTORE PUSH1 0x11 PUSH1 0x24 DUP3 ADD MSTORE PUSH17 0x105B1C9958591E481C1D5C98DA185CD959 PUSH1 0x7A SHL PUSH1 0x44 DUP3 ADD MSTORE PUSH1 0x64 SWAP1 REVERT JUMPDEST ISZERO PUSH2 0x3153 JUMPI JUMP JUMPDEST PUSH1 0x40 MLOAD PUSH3 0x461BCD PUSH1 0xE5 SHL DUP2 MSTORE PUSH1 0x20 PUSH1 0x4 DUP3 ADD MSTORE PUSH1 0x11 PUSH1 0x24 DUP3 ADD MSTORE PUSH17 0x4576656E74206174206361706163697479 PUSH1 0x78 SHL PUSH1 0x44 DUP3 ADD MSTORE PUSH1 0x64 SWAP1 REVERT JUMPDEST ISZERO PUSH2 0x3193 JUMPI JUMP JUMPDEST PUSH1 0x40 MLOAD PUSH3 0x461BCD PUSH1 0xE5 SHL DUP2 MSTORE PUSH1 0x20 PUSH1 0x4 DUP3 ADD MSTORE PUSH1 0x16 PUSH1 0x24 DUP3 ADD MSTORE PUSH22 0x496E73756666696369656E7420616C6C6F77616E6365 PUSH1 0x50 SHL PUSH1 0x44 DUP3 ADD MSTORE PUSH1 0x64 SWAP1 REVERT JUMPDEST SWAP1 DUP2 PUSH1 0x20 SWAP2 SUB SLT PUSH2 0x1200 JUMPI MLOAD DUP1 ISZERO ISZERO DUP2 SUB PUSH2 0x1200 JUMPI SWAP1 JUMP JUMPDEST PUSH2 0x2B97 SWAP4 SWAP3 PUSH1 0x60 SWAP3 PUSH1 0x1 DUP1 PUSH1 0xA0 SHL SUB AND DUP3 MSTORE PUSH1 0x20 DUP3 ADD MSTORE DUP2 PUSH1 0x40 DUP3 ADD MSTORE ADD SWAP1 PUSH2 0x29AC JUMP JUMPDEST DUP1 SLOAD DUP3 LT ISZERO PUSH2 0x285F JUMPI PUSH1 0x0 MSTORE PUSH1 0x20 PUSH1 0x0 KECCAK256 ADD SWAP1 PUSH1 0x0 SWAP1 JUMP JUMPDEST SWAP1 DUP2 SLOAD SWAP2 PUSH1 0x1 PUSH1 0x40 SHL DUP4 LT ISZERO PUSH2 0xA20 JUMPI DUP3 PUSH2 0x3248 SWAP2 PUSH1 0x1 PUSH2 0x2941 SWAP6 ADD DUP2 SSTORE PUSH2 0x320D JUMP JUMPDEST DUP2 SLOAD PUSH1 0x1 PUSH1 0x1 PUSH1 0xA0 SHL SUB SWAP4 DUP5 AND PUSH1 0x3 SWAP3 SWAP1 SWAP3 SHL SWAP2 DUP3 SHL SWAP4 SWAP1 SWAP2 SHL NOT AND SWAP2 SWAP1 SWAP2 OR SWAP1 SSTORE JUMP JUMPDEST SWAP2 SWAP1 DUP3 ADD DUP1 SWAP3 GT PUSH2 0x949 JUMPI JUMP JUMPDEST ISZERO PUSH2 0x3280 JUMPI JUMP JUMPDEST PUSH1 0x40 MLOAD PUSH3 0x461BCD PUSH1 0xE5 SHL DUP2 MSTORE PUSH1 0x20 PUSH1 0x4 DUP3 ADD MSTORE PUSH1 0x10 PUSH1 0x24 DUP3 ADD MSTORE PUSH16 0x125B9D985B1A5908195D995B9D081251 PUSH1 0x82 SHL PUSH1 0x44 DUP3 ADD MSTORE PUSH1 0x64 SWAP1 REVERT JUMPDEST SWAP1 PUSH1 0x40 MLOAD SWAP2 DUP3 DUP2 SLOAD SWAP2 DUP3 DUP3 MSTORE PUSH1 0x20 DUP3 ADD SWAP1 PUSH1 0x0 MSTORE PUSH1 0x20 PUSH1 0x0 KECCAK256 SWAP3 PUSH1 0x0 JUMPDEST DUP2 DUP2 LT PUSH2 0x32EA JUMPI POP POP PUSH2 0x2941 SWAP3 POP SUB DUP4 PUSH2 0x28E7 JUMP JUMPDEST DUP5 SLOAD PUSH1 0x1 PUSH1 0x1 PUSH1 0xA0 SHL SUB AND DUP4 MSTORE PUSH1 0x1 SWAP5 DUP6 ADD SWAP5 DUP8 SWAP5 POP PUSH1 0x20 SWAP1 SWAP4 ADD SWAP3 ADD PUSH2 0x32D5 JUMP JUMPDEST SWAP3 SWAP2 SWAP3 PUSH1 0x1 PUSH1 0x1 PUSH1 0x40 SHL SUB DUP3 GT PUSH2 0xA20 JUMPI PUSH1 0x40 MLOAD SWAP2 PUSH2 0x3335 PUSH1 0x1F DUP3 ADD PUSH1 0x1F NOT AND PUSH1 0x20 ADD DUP5 PUSH2 0x28E7 JUMP JUMPDEST DUP3 SWAP5 DUP2 DUP5 MSTORE DUP2 DUP4 ADD GT PUSH2 0x1200 JUMPI DUP3 DUP2 PUSH1 0x20 SWAP4 DUP5 PUSH1 0x0 SWAP7 ADD CALLDATACOPY ADD ADD MSTORE JUMP JUMPDEST PUSH1 0x2 PUSH1 0x0 SLOAD EQ PUSH2 0x3363 JUMPI PUSH1 0x2 PUSH1 0x0 SSTORE JUMP JUMPDEST PUSH4 0x3EE5AEB5 PUSH1 0xE0 SHL PUSH1 0x0 MSTORE PUSH1 0x4 PUSH1 0x0 REVERT JUMPDEST PUSH1 0x0 DUP2 DUP2 MSTORE PUSH1 0x6 PUSH1 0x20 SWAP1 DUP2 MSTORE PUSH1 0x40 DUP1 DUP4 KECCAK256 CALLER DUP5 MSTORE SWAP1 SWAP2 MSTORE SWAP1 KECCAK256 DUP1 SLOAD PUSH1 0xFF NOT AND SWAP1 SSTORE SWAP1 PUSH1 0x8 PUSH2 0x33A1 DUP4 PUSH2 0x2840 JUMP JUMPDEST POP ADD PUSH2 0x33AE DUP3 DUP3 SLOAD PUSH2 0x2D71 JUMP JUMPDEST SWAP1 SSTORE DUP2 PUSH1 0x0 MSTORE PUSH1 0x4 PUSH1 0x20 MSTORE PUSH1 0x40 PUSH1 0x0 KECCAK256 SWAP2 PUSH1 0x0 JUMPDEST DUP4 SLOAD DUP1 DUP3 LT ISZERO PUSH2 0x351E JUMPI PUSH2 0x33D6 DUP3 DUP7 PUSH2 0x320D JUMP JUMPDEST SWAP1 SLOAD PUSH1 0x3 SWAP2 SWAP1 SWAP2 SHL SHR PUSH1 0x1 PUSH1 0x1 PUSH1 0xA0 SHL SUB AND CALLER EQ PUSH2 0x33F7 JUMPI POP PUSH1 0x1 ADD PUSH2 0x33C2 JUMP JUMPDEST SWAP3 SWAP4 SWAP2 SWAP3 PUSH1 0x0 NOT DUP2 ADD SWAP2 SWAP1 DUP3 GT PUSH2 0x949 JUMPI PUSH2 0x3248 PUSH2 0x3418 PUSH2 0x3431 SWAP4 DUP6 PUSH2 0x320D JUMP JUMPDEST SWAP1 SLOAD PUSH1 0x3 SWAP2 SWAP1 SWAP2 SHL SHR PUSH1 0x1 PUSH1 0x1 PUSH1 0xA0 SHL SUB AND SWAP2 DUP5 PUSH2 0x320D JUMP JUMPDEST DUP1 SLOAD DUP1 ISZERO PUSH2 0x3508 JUMPI PUSH1 0x0 NOT ADD SWAP1 PUSH2 0x3448 DUP3 DUP3 PUSH2 0x320D JUMP JUMPDEST DUP2 SLOAD SWAP1 PUSH1 0x1 DUP1 PUSH1 0xA0 SHL SUB SWAP1 PUSH1 0x3 SHL SHL NOT AND SWAP1 SSTORE SSTORE JUMPDEST PUSH2 0x3466 DUP2 PUSH2 0x2840 JUMP JUMPDEST POP PUSH1 0xA ADD SLOAD PUSH1 0x40 MLOAD PUSH4 0xA9059CBB PUSH1 0xE0 SHL DUP2 MSTORE CALLER PUSH1 0x4 DUP3 ADD MSTORE PUSH1 0x24 DUP2 ADD DUP5 SWAP1 MSTORE SWAP1 PUSH1 0x20 SWAP1 DUP3 SWAP1 PUSH1 0x10 SHR PUSH1 0x1 PUSH1 0x1 PUSH1 0xA0 SHL SUB AND DUP2 PUSH1 0x0 DUP2 PUSH1 0x44 DUP2 ADD SUB SWAP3 GAS CALL DUP1 ISZERO PUSH2 0x182F JUMPI PUSH2 0x34BB SWAP2 PUSH1 0x0 SWAP2 PUSH2 0x34E9 JUMPI JUMPDEST POP PUSH2 0x3528 JUMP JUMPDEST PUSH1 0x40 MLOAD SWAP2 DUP3 MSTORE PUSH32 0x7A482FDEB6BC9A1376F597068A214A7A39472BB2EFF1B8CAD21BA04F49DDCA1B PUSH1 0x20 CALLER SWAP4 LOG3 JUMP JUMPDEST PUSH2 0x3502 SWAP2 POP PUSH1 0x20 RETURNDATASIZE PUSH1 0x20 GT PUSH2 0x1828 JUMPI PUSH2 0x1819 DUP2 DUP4 PUSH2 0x28E7 JUMP JUMPDEST CODESIZE PUSH2 0x34B5 JUMP JUMPDEST PUSH4 0x4E487B71 PUSH1 0xE0 SHL PUSH1 0x0 MSTORE PUSH1 0x31 PUSH1 0x4 MSTORE PUSH1 0x24 PUSH1 0x0 REVERT JUMPDEST POP POP SWAP1 SWAP2 POP PUSH2 0x345D JUMP JUMPDEST ISZERO PUSH2 0x352F JUMPI JUMP JUMPDEST PUSH1 0x40 MLOAD PUSH3 0x461BCD PUSH1 0xE5 SHL DUP2 MSTORE PUSH1 0x20 PUSH1 0x4 DUP3 ADD MSTORE PUSH1 0xF PUSH1 0x24 DUP3 ADD MSTORE PUSH15 0x151C985B9CD9995C8819985A5B1959 PUSH1 0x8A SHL PUSH1 0x44 DUP3 ADD MSTORE PUSH1 0x64 SWAP1 REVERT JUMPDEST PUSH1 0x40 MLOAD PUSH4 0x23B872DD PUSH1 0xE0 SHL DUP2 MSTORE PUSH1 0x1 PUSH1 0x1 PUSH1 0xA0 SHL SUB SWAP3 DUP4 AND PUSH1 0x4 DUP3 ADD MSTORE SWAP3 DUP3 AND PUSH1 0x24 DUP5 ADD MSTORE PUSH1 0x44 DUP4 ADD SWAP4 SWAP1 SWAP4 MSTORE SWAP1 SWAP2 PUSH1 0x20 SWAP2 DUP4 SWAP2 PUSH1 0x64 SWAP2 DUP4 SWAP2 PUSH1 0x0 SWAP2 AND GAS CALL DUP1 ISZERO PUSH2 0x182F JUMPI PUSH2 0x2941 SWAP2 PUSH1 0x0 SWAP2 PUSH2 0x34E9 JUMPI POP PUSH2 0x3528 JUMP INVALID POP 0x4E 0xF6 0xDA 0xBC LOG2 DUP13 EQ MSTORE PUSH17 0x4D54BD8E25708D87E0C27D852ECEEA53A0 0xC0 0xD8 SWAP9 PUSH8 0x58A2646970667358 0x22 SLT KECCAK256 0xAC DUP8 RETURN 0xDA 0x2A 0xE9 LOG0 DUP16 RETURNDATASIZE PUSH32 0x8DBAEE29B5E1F19DABBAF71CCE1BAE6D6B851112A53B64736F6C634300081C00 CALLER "
        },
        "methodIdentifiers": {
          "MAX_ATTENDEES()": "617148e5",
          "MAX_DETAILS_LENGTH()": "50d9c62d",
          "MAX_LOCATION_LENGTH()": "abf45ec8",
          "MAX_NAME_LENGTH()": "86074985",
          "MAX_TICKET_PRICE()": "b5e41287",
          "MAX_URL_LENGTH()": "cb71146e",
          "MIN_EVENT_DURATION()": "1ac78969",
          "REFUND_BUFFER()": "7b426cbf",
          "buyTicket(uint256)": "67dd74ca",
          "buyTicket1(uint256)": "402f979d",
          "cancelEvent(uint256)": "3f69babd",
          "createEvent(string,string,string,uint64,uint64,uint64,uint64,string,uint256,uint256,address)": "f57c7ad8",
          "events(uint256)": "0b791430",
          "getActiveEventsByCreator()": "ccfd6d3c",
          "getAllEvents()": "c27a500d",
          "getAttendees(uint256)": "e0c14377",
          "getEventById(uint256)": "b98079bc",
          "getEventLength()": "5c98dfa1",
          "getEventsByCreator(address)": "20020581",
          "getUserEvents()": "0f977561",
          "hasPurchasedTicket(uint256,address)": "439fd35f",
          "onTokenTransfer(address,uint256,bytes)": "a4c0ed36",
          "paused()": "5c975abb",
          "releaseFunds(uint256)": "4d68282f",
          "requestRefund(uint256)": "a4b2409e",
          "requestRefund1(uint256)": "0ec7c3ff",
          "supportedTokens(address)": "68c4ac26",
          "ubiPool()": "a06f7da7"
        }
      }
    }
  }
}