{
  "contracts/DisasterManagement.sol": {
    "DisasterManagement": {
      "abi": [
        {
          "inputs": [
            {
              "internalType": "uint256",
              "name": "id",
              "type": "uint256"
            },
            {
              "internalType": "string",
              "name": "_imageUrl",
              "type": "string"
            },
            {
              "internalType": "string",
              "name": "_timestamp",
              "type": "string"
            }
          ],
          "name": "addDisasterImage",
          "outputs": [],
          "stateMutability": "nonpayable",
          "type": "function"
        },
        {
          "inputs": [
            {
              "internalType": "string",
              "name": "_reporterName",
              "type": "string"
            },
            {
              "internalType": "string",
              "name": "_email",
              "type": "string"
            },
            {
              "internalType": "string",
              "name": "_disasterType",
              "type": "string"
            },
            {
              "internalType": "string",
              "name": "_imgUrl",
              "type": "string"
            },
            {
              "internalType": "string",
              "name": "_latitude",
              "type": "string"
            },
            {
              "internalType": "string",
              "name": "_longitude",
              "type": "string"
            },
            {
              "internalType": "string",
              "name": "_city",
              "type": "string"
            },
            {
              "internalType": "string",
              "name": "_state",
              "type": "string"
            },
            {
              "internalType": "string",
              "name": "_date",
              "type": "string"
            },
            {
              "internalType": "string",
              "name": "_severity",
              "type": "string"
            },
            {
              "internalType": "string",
              "name": "_impact",
              "type": "string"
            }
          ],
          "name": "createDisasterReport",
          "outputs": [],
          "stateMutability": "nonpayable",
          "type": "function"
        },
        {
          "inputs": [
            {
              "internalType": "uint256",
              "name": "id",
              "type": "uint256"
            },
            {
              "internalType": "uint256",
              "name": "imageIndex",
              "type": "uint256"
            }
          ],
          "name": "deleteDisasterImage",
          "outputs": [],
          "stateMutability": "nonpayable",
          "type": "function"
        },
        {
          "inputs": [
            {
              "internalType": "uint256",
              "name": "id",
              "type": "uint256"
            }
          ],
          "name": "deleteDisasterReport",
          "outputs": [],
          "stateMutability": "nonpayable",
          "type": "function"
        },
        {
          "inputs": [
            {
              "internalType": "uint256",
              "name": "id",
              "type": "uint256"
            }
          ],
          "name": "getDisasterImages",
          "outputs": [
            {
              "components": [
                {
                  "internalType": "address",
                  "name": "reporterId",
                  "type": "address"
                },
                {
                  "internalType": "string",
                  "name": "timestamp",
                  "type": "string"
                },
                {
                  "internalType": "string",
                  "name": "disasterImageUrl",
                  "type": "string"
                }
              ],
              "internalType": "struct DisasterManagement.DisasterImage[]",
              "name": "",
              "type": "tuple[]"
            }
          ],
          "stateMutability": "view",
          "type": "function"
        },
        {
          "inputs": [
            {
              "internalType": "uint256",
              "name": "_index",
              "type": "uint256"
            }
          ],
          "name": "getDisasterReport",
          "outputs": [
            {
              "internalType": "address",
              "name": "",
              "type": "address"
            },
            {
              "internalType": "string",
              "name": "",
              "type": "string"
            },
            {
              "internalType": "string",
              "name": "",
              "type": "string"
            },
            {
              "internalType": "string",
              "name": "",
              "type": "string"
            },
            {
              "internalType": "string",
              "name": "",
              "type": "string"
            },
            {
              "internalType": "string",
              "name": "",
              "type": "string"
            },
            {
              "internalType": "string",
              "name": "",
              "type": "string"
            },
            {
              "internalType": "string",
              "name": "",
              "type": "string"
            },
            {
              "internalType": "string",
              "name": "",
              "type": "string"
            },
            {
              "internalType": "string",
              "name": "",
              "type": "string"
            },
            {
              "internalType": "string",
              "name": "",
              "type": "string"
            },
            {
              "internalType": "string",
              "name": "",
              "type": "string"
            }
          ],
          "stateMutability": "view",
          "type": "function"
        },
        {
          "inputs": [],
          "name": "getDisasterReportLength",
          "outputs": [
            {
              "internalType": "uint256",
              "name": "",
              "type": "uint256"
            }
          ],
          "stateMutability": "view",
          "type": "function"
        }
      ],
      "evm": {
        "bytecode": {
          "linkReferences": {},
          "object": "6080806040523460195760008055611b64908161001f8239f35b600080fdfe608080604052600436101561001357600080fd5b60003560e01c908163098da0b214611593575080636a9c4fb014610ae25780639e35b5ae1461098f578063c03d9f81146106bd578063db5b714f1461052f578063dd1c4fab146103195763e975cb081461006c57600080fd5b34610314576060366003190112610314576004356024356001600160401b0381116103145761009f903690600401611606565b6044356001600160401b038111610314576100be903690600401611606565b916100cc6000548210611735565b8060005260016020526100ed60018060a01b03604060002054163314611aa4565b6000526002602052604060002060405190610107826115ca565b33825260208201938452604082019283528054600160401b81101561027f5761013591600182018155611afc565b9190916102fe575181546001600160a01b0319166001600160a01b03919091161781559151805190929060018201906001600160401b03811161027f5761018681610180845461169d565b846116ee565b6020601f82116001146102955790806101ba9260029697600092610214575b50508160011b916000199060031b1c19161790565b90555b0190519081516001600160401b03811161027f576101df81610180845461169d565b602092601f821160011461021f57610210929382916000926102145750508160011b916000199060031b1c19161790565b9055005b0151905038806101a5565b601f1982169383600052806000209160005b868110610267575083600195961061024e575b505050811b019055005b015160001960f88460031b161c19169055388080610244565b91926020600181928685015181550194019201610231565b634e487b7160e01b600052604160045260246000fd5b601f1982169583600052816000209660005b8181106102e657509160029697918460019594106102cd575b505050811b0190556101bd565b015160001960f88460031b161c191690553880806102c0565b838301518955600190980197602093840193016102a7565b634e487b7160e01b600052600060045260246000fd5b600080fd5b3461031457602036600319011261031457600435600054811061033b90611735565b60005260016020526040600020604051610354816115ae565b81546001600160a01b0316815261036d60018301611778565b602082019081529061038160028401611778565b604082019081529261039560038201611778565b60608301908152906103a960048201611778565b608084019081526103bc60058301611778565b60a085019081526103cf60068401611778565b60c086019081526103e260078501611778565b60e08701908152906103f660088601611778565b61010088019081529261040b60098701611778565b610120890190815294610420600a8801611778565b966101408a01978852600b0161043590611778565b9889610160820152600160a01b6001900390511699519a5197519051915192519351945195519651976040519b8c9b8c5260208c0161018090526101808c0161047d9161165c565b8b810360408d015261048e9161165c565b8a810360608c015261049f9161165c565b89810360808b01526104b09161165c565b88810360a08a01526104c19161165c565b87810360c08901526104d29161165c565b86810360e08801526104e39161165c565b8581036101008701526104f59161165c565b8481036101208601526105079161165c565b8381036101408501526105199161165c565b82810361016084015261052b9161165c565b0390f35b34610314576040366003190112610314576004356024356000548210156106845781600052600160205261057160018060a01b03604060002054163314611aa4565b8160005260026020526040600020548110156106495760008281526002602052604090208054600019810191908211610633576105c6916105b191611afc565b50918360005260026020526040600020611afc565b9190916102fe576105d6916119a1565b600052600260205260406000208054801561061d5760001901906105fa8282611afc565b6102fe57600281600061061a93556106146001820161181a565b0161181a565b55005b634e487b7160e01b600052603160045260246000fd5b634e487b7160e01b600052601160045260246000fd5b60405162461bcd60e51b8152602060048201526013602482015272092dcecc2d8d2c840d2dac2ceca40d2dcc8caf606b1b6044820152606490fd5b60405162461bcd60e51b8152602060048201526011602482015270125b9d985b1a59081c995c1bdc9d081251607a1b6044820152606490fd5b34610314576020366003190112610314576004356106de6000548210611735565b6000818152600160205260409020546001600160a01b03163303610932578060005260026020526107126040600020611869565b60005460001981019081116106335781101561092057600181019081811161063357600082815260016020526040808220838352912081810361084b575b505060009182526002602052610774604083208284526002602052604084206119e2565b81546000198101908111610837578252600160205261080d600b604084208481556107a16001820161181a565b6107ad6002820161181a565b6107b96003820161181a565b6107c56004820161181a565b6107d16005820161181a565b6107dd6006820161181a565b6107e96007820161181a565b6107f56008820161181a565b6108016009820161181a565b610614600a820161181a565b81546000198101908111610837576040836108319260019552600260205220611869565b01610712565b634e487b7160e01b83526011600452602483fd5b815481546001600160a01b0319166001600160a01b039190911617815561091991600b90819061088160018083019086016118c5565b61089160028201600286016118c5565b6108a160038201600386016118c5565b6108b160048201600486016118c5565b6108c160058201600586016118c5565b6108d160068201600686016118c5565b6108e160078201600786016118c5565b6108f160088201600886016118c5565b61090160098201600986016118c5565b610911600a8201600a86016118c5565b0191016118c5565b8280610750565b60005480156106335760001901600055005b60405162461bcd60e51b815260206004820152602f60248201527f506c6561736520656e7375726520796f752061726520746865206f776e65722060448201526e1bd9881d1a1a5cc81c995c5d595cdd608a1b6064820152608490fd5b34610314576020366003190112610314576004356109b06000548210611735565b600052600260205260406000208054906001600160401b03821161027f57604051916109e260208260051b01846115e5565b80835260208301809260005260206000206000915b838310610a9657848660405191829160208301906020845251809152604083019060408160051b85010192916000905b828210610a3657505050500390f35b91936001919395506020610a868192603f198a8203018652885190858060a01b0382511681526040610a7585840151606087850152606084019061165c565b92015190604081840391015261165c565b9601920192018594939192610a27565b60036020600192604051610aa9816115ca565b848060a01b038654168152610abf858701611778565b83820152610acf60028701611778565b60408201528152019201920191906109f7565b3461031457610160366003190112610314576004356001600160401b03811161031457610b13903690600401611606565b6024356001600160401b03811161031457610b32903690600401611606565b6044356001600160401b03811161031457610b51903690600401611606565b916064356001600160401b03811161031457610b71903690600401611606565b6084356001600160401b03811161031457610b90903690600401611606565b60a4356001600160401b03811161031457610baf903690600401611606565b60c4356001600160401b03811161031457610bce903690600401611606565b9060e4356001600160401b03811161031457610bee903690600401611606565b92610104356001600160401b03811161031457610c0f903690600401611606565b94610124356001600160401b03811161031457610c30903690600401611606565b98610144356001600160401b03811161031457610c51903690600401611606565b9860405198610c5f8a6115ae565b338a526020808b019182526040808c0193845260608c0194855260808c0195865260a08c0196875260c08c0197885260e08c019889526101008c01998a526101208c019a8b526101408c019d8e526101608c019c8d52600080548152600192839052209a518b546001600160a01b0319166001600160a01b0391909116178b5590518051918b0191906001600160401b03821161027f57610d0a82610d04855461169d565b856116ee565b602090601f831160011461152c57610d3a9291600091836115215750508160011b916000199060031b1c19161790565b90555b51805160028a01916001600160401b03821161027f57610d6182610d04855461169d565b602090601f83116001146114ba57610d919291600091836114af5750508160011b916000199060031b1c19161790565b90555b51805160038901916001600160401b03821161027f57610db882610d04855461169d565b602090601f831160011461144857610de892916000918361143d5750508160011b916000199060031b1c19161790565b90555b51805160048801916001600160401b03821161027f57610e0f82610d04855461169d565b602090601f83116001146113d657610e3f9291600091836113cb5750508160011b916000199060031b1c19161790565b90555b51805160058701916001600160401b03821161027f57610e6682610d04855461169d565b602090601f831160011461136457610e969291600091836113595750508160011b916000199060031b1c19161790565b90555b51805160068601916001600160401b03821161027f57610ebd82610d04855461169d565b602090601f83116001146112f257610eed9291600091836112e75750508160011b916000199060031b1c19161790565b90555b51805160078501916001600160401b03821161027f57610f1482610d04855461169d565b602090601f831160011461128057610f449291600091836112755750508160011b916000199060031b1c19161790565b90555b51805160088401916001600160401b03821161027f57610f6b82610d04855461169d565b602090601f831160011461120e57610f9b9291600091836112035750508160011b916000199060031b1c19161790565b90555b51805160098301916001600160401b03821161027f57610fc282610d04855461169d565b602090601f831160011461119c57610ff29291600091836111285750508160011b916000199060031b1c19161790565b90555b600a810192519283516001600160401b03811161027f5761101a81610180845461169d565b6020601f821160011461113357908061104d92600b96976000926111285750508160011b916000199060031b1c19161790565b90555b0190519081516001600160401b03811161027f5761107281610180845461169d565b602092601f82116001146110c5576110a3929382916000926110ba5750508160011b916000199060031b1c19161790565b90555b600054600019811461063357600101600055005b0151905084806101a5565b601f1982169383600052806000209160005b86811061111057508360019596106110f7575b505050811b0190556110a6565b015160001960f88460031b161c191690558380806110ea565b919260206001819286850151815501940192016110d7565b0151905087806101a5565b601f1982169583600052816000209660005b818110611184575091600b96979184600195941061116b575b505050811b019055611050565b015160001960f88460031b161c1916905586808061115e565b83830151895560019098019760209384019301611145565b90601f1983169184600052816000209260005b8181106111eb57509084600195949392106111d2575b505050811b019055610ff5565b015160001960f88460031b161c191690558680806111c5565b929360206001819287860151815501950193016111af565b0151905088806101a5565b90601f1983169184600052816000209260005b81811061125d5750908460019594939210611244575b505050811b019055610f9e565b015160001960f88460031b161c19169055878080611237565b92936020600181928786015181550195019301611221565b0151905089806101a5565b90601f1983169184600052816000209260005b8181106112cf57509084600195949392106112b6575b505050811b019055610f47565b015160001960f88460031b161c191690558880806112a9565b92936020600181928786015181550195019301611293565b015190508a806101a5565b90601f1983169184600052816000209260005b8181106113415750908460019594939210611328575b505050811b019055610ef0565b015160001960f88460031b161c1916905589808061131b565b92936020600181928786015181550195019301611305565b015190508b806101a5565b90601f1983169184600052816000209260005b8181106113b3575090846001959493921061139a575b505050811b019055610e99565b015160001960f88460031b161c191690558a808061138d565b92936020600181928786015181550195019301611377565b015190508c806101a5565b90601f1983169184600052816000209260005b818110611425575090846001959493921061140c575b505050811b019055610e42565b015160001960f88460031b161c191690558b80806113ff565b929360206001819287860151815501950193016113e9565b015190508d806101a5565b90601f1983169184600052816000209260005b818110611497575090846001959493921061147e575b505050811b019055610deb565b015160001960f88460031b161c191690558c8080611471565b9293602060018192878601518155019501930161145b565b015190508e806101a5565b90601f1983169184600052816000209260005b81811061150957509084600195949392106114f0575b505050811b019055610d94565b015160001960f88460031b161c191690558d80806114e3565b929360206001819287860151815501950193016114cd565b015190508f806101a5565b90601f1983169184600052816000209260005b81811061157b5750908460019594939210611562575b505050811b019055610d3d565b015160001960f88460031b161c191690558e8080611555565b9293602060018192878601518155019501930161153f565b34610314576000366003190112610314576020906000548152f35b61018081019081106001600160401b0382111761027f57604052565b606081019081106001600160401b0382111761027f57604052565b90601f801991011681019081106001600160401b0382111761027f57604052565b81601f82011215610314578035906001600160401b03821161027f576040519261163a601f8401601f1916602001856115e5565b8284526020838301011161031457816000926020809301838601378301015290565b919082519283825260005b848110611688575050826000602080949584010152601f8019910116010190565b80602080928401015182828601015201611667565b90600182811c921680156116cd575b60208310146116b757565b634e487b7160e01b600052602260045260246000fd5b91607f16916116ac565b8181106116e2575050565b600081556001016116d7565b9190601f81116116fd57505050565b611729926000526020600020906020601f840160051c8301931061172b575b601f0160051c01906116d7565b565b909150819061171c565b1561173c57565b60405162461bcd60e51b8152602060048201526014602482015273092dcecc2d8d2c840e4cae0dee4e840d2dcc8caf60631b6044820152606490fd5b906040519182600082549261178c8461169d565b80845293600181169081156117f857506001146117b1575b50611729925003836115e5565b90506000929192526020600020906000915b8183106117dc57505090602061172992820101386117a4565b60209193508060019154838589010152019101909184926117c3565b90506020925061172994915060ff191682840152151560051b820101386117a4565b611824815461169d565b908161182e575050565b81601f60009311600114611840575055565b8183526020832061185c91601f0160051c8101906001016116d7565b8082528160208120915555565b8054906000815581611879575050565b8160030291600383040361063357600090815260208120918201915b8281106118a157505050565b6003908281556118b36001820161181a565b6118bf6002820161181a565b01611895565b91909182811461199c576118d9835461169d565b6001600160401b03811161027f576118f581610180845461169d565b600093601f821160011461193657611927929394829160009261192b5750508160011b916000199060031b1c19161790565b9055565b0154905038806101a5565b845260208085208386529085209094601f198316815b8181106119845750958360019596971061196b575b505050811b019055565b015460001960f88460031b161c19169055388080611961565b9192600180602092868b01548155019401920161194c565b509050565b8181036119ac575050565b815481546001600160a01b0319166001600160a01b039190911617815561172991600290819061091160018083019086016118c5565b818114611aa057815491600160401b831161027f578154838355808410611a43575b5060005260206000209060005260206000206000915b838310611a275750505050565b60038082611a37600194866119a1565b01920192019190611a1a565b8060030290600382040361063357836003026003810485036106335783600052602060002091820191015b818110611a7b5750611a04565b60039060008155611a8e6001820161181a565b611a9a6002820161181a565b01611a6e565b5050565b15611aab57565b60405162461bcd60e51b8152602060048201526024808201527f596f7520617265206e6f7420746865206f776e6572206f6620746869732072656044820152631c1bdc9d60e21b6064820152608490fd5b8054821015611b18576000526003602060002091020190600090565b634e487b7160e01b600052603260045260246000fdfea26469706673582212208239632c20fcf243078a3d010679a7fbee733652c0217a5ac981e9d3a8d84ebb64736f6c634300081c0033",
          "opcodes": "PUSH1 0x80 DUP1 PUSH1 0x40 MSTORE CALLVALUE PUSH1 0x19 JUMPI PUSH1 0x0 DUP1 SSTORE PUSH2 0x1B64 SWAP1 DUP2 PUSH2 0x1F DUP3 CODECOPY RETURN JUMPDEST PUSH1 0x0 DUP1 REVERT INVALID PUSH1 0x80 DUP1 PUSH1 0x40 MSTORE PUSH1 0x4 CALLDATASIZE LT ISZERO PUSH2 0x13 JUMPI PUSH1 0x0 DUP1 REVERT JUMPDEST PUSH1 0x0 CALLDATALOAD PUSH1 0xE0 SHR SWAP1 DUP2 PUSH4 0x98DA0B2 EQ PUSH2 0x1593 JUMPI POP DUP1 PUSH4 0x6A9C4FB0 EQ PUSH2 0xAE2 JUMPI DUP1 PUSH4 0x9E35B5AE EQ PUSH2 0x98F JUMPI DUP1 PUSH4 0xC03D9F81 EQ PUSH2 0x6BD JUMPI DUP1 PUSH4 0xDB5B714F EQ PUSH2 0x52F JUMPI DUP1 PUSH4 0xDD1C4FAB EQ PUSH2 0x319 JUMPI PUSH4 0xE975CB08 EQ PUSH2 0x6C JUMPI PUSH1 0x0 DUP1 REVERT JUMPDEST CALLVALUE PUSH2 0x314 JUMPI PUSH1 0x60 CALLDATASIZE PUSH1 0x3 NOT ADD SLT PUSH2 0x314 JUMPI PUSH1 0x4 CALLDATALOAD PUSH1 0x24 CALLDATALOAD PUSH1 0x1 PUSH1 0x1 PUSH1 0x40 SHL SUB DUP2 GT PUSH2 0x314 JUMPI PUSH2 0x9F SWAP1 CALLDATASIZE SWAP1 PUSH1 0x4 ADD PUSH2 0x1606 JUMP JUMPDEST PUSH1 0x44 CALLDATALOAD PUSH1 0x1 PUSH1 0x1 PUSH1 0x40 SHL SUB DUP2 GT PUSH2 0x314 JUMPI PUSH2 0xBE SWAP1 CALLDATASIZE SWAP1 PUSH1 0x4 ADD PUSH2 0x1606 JUMP JUMPDEST SWAP2 PUSH2 0xCC PUSH1 0x0 SLOAD DUP3 LT PUSH2 0x1735 JUMP JUMPDEST DUP1 PUSH1 0x0 MSTORE PUSH1 0x1 PUSH1 0x20 MSTORE PUSH2 0xED PUSH1 0x1 DUP1 PUSH1 0xA0 SHL SUB PUSH1 0x40 PUSH1 0x0 KECCAK256 SLOAD AND CALLER EQ PUSH2 0x1AA4 JUMP JUMPDEST PUSH1 0x0 MSTORE PUSH1 0x2 PUSH1 0x20 MSTORE PUSH1 0x40 PUSH1 0x0 KECCAK256 PUSH1 0x40 MLOAD SWAP1 PUSH2 0x107 DUP3 PUSH2 0x15CA JUMP JUMPDEST CALLER DUP3 MSTORE PUSH1 0x20 DUP3 ADD SWAP4 DUP5 MSTORE PUSH1 0x40 DUP3 ADD SWAP3 DUP4 MSTORE DUP1 SLOAD PUSH1 0x1 PUSH1 0x40 SHL DUP2 LT ISZERO PUSH2 0x27F JUMPI PUSH2 0x135 SWAP2 PUSH1 0x1 DUP3 ADD DUP2 SSTORE PUSH2 0x1AFC JUMP JUMPDEST SWAP2 SWAP1 SWAP2 PUSH2 0x2FE JUMPI MLOAD DUP2 SLOAD PUSH1 0x1 PUSH1 0x1 PUSH1 0xA0 SHL SUB NOT AND PUSH1 0x1 PUSH1 0x1 PUSH1 0xA0 SHL SUB SWAP2 SWAP1 SWAP2 AND OR DUP2 SSTORE SWAP2 MLOAD DUP1 MLOAD SWAP1 SWAP3 SWAP1 PUSH1 0x1 DUP3 ADD SWAP1 PUSH1 0x1 PUSH1 0x1 PUSH1 0x40 SHL SUB DUP2 GT PUSH2 0x27F JUMPI PUSH2 0x186 DUP2 PUSH2 0x180 DUP5 SLOAD PUSH2 0x169D JUMP JUMPDEST DUP5 PUSH2 0x16EE JUMP JUMPDEST PUSH1 0x20 PUSH1 0x1F DUP3 GT PUSH1 0x1 EQ PUSH2 0x295 JUMPI SWAP1 DUP1 PUSH2 0x1BA SWAP3 PUSH1 0x2 SWAP7 SWAP8 PUSH1 0x0 SWAP3 PUSH2 0x214 JUMPI JUMPDEST POP POP DUP2 PUSH1 0x1 SHL SWAP2 PUSH1 0x0 NOT SWAP1 PUSH1 0x3 SHL SHR NOT AND OR SWAP1 JUMP JUMPDEST SWAP1 SSTORE JUMPDEST ADD SWAP1 MLOAD SWAP1 DUP2 MLOAD PUSH1 0x1 PUSH1 0x1 PUSH1 0x40 SHL SUB DUP2 GT PUSH2 0x27F JUMPI PUSH2 0x1DF DUP2 PUSH2 0x180 DUP5 SLOAD PUSH2 0x169D JUMP JUMPDEST PUSH1 0x20 SWAP3 PUSH1 0x1F DUP3 GT PUSH1 0x1 EQ PUSH2 0x21F JUMPI PUSH2 0x210 SWAP3 SWAP4 DUP3 SWAP2 PUSH1 0x0 SWAP3 PUSH2 0x214 JUMPI POP POP DUP2 PUSH1 0x1 SHL SWAP2 PUSH1 0x0 NOT SWAP1 PUSH1 0x3 SHL SHR NOT AND OR SWAP1 JUMP JUMPDEST SWAP1 SSTORE STOP JUMPDEST ADD MLOAD SWAP1 POP CODESIZE DUP1 PUSH2 0x1A5 JUMP JUMPDEST PUSH1 0x1F NOT DUP3 AND SWAP4 DUP4 PUSH1 0x0 MSTORE DUP1 PUSH1 0x0 KECCAK256 SWAP2 PUSH1 0x0 JUMPDEST DUP7 DUP2 LT PUSH2 0x267 JUMPI POP DUP4 PUSH1 0x1 SWAP6 SWAP7 LT PUSH2 0x24E JUMPI JUMPDEST POP POP POP DUP2 SHL ADD SWAP1 SSTORE STOP JUMPDEST ADD MLOAD PUSH1 0x0 NOT PUSH1 0xF8 DUP5 PUSH1 0x3 SHL AND SHR NOT AND SWAP1 SSTORE CODESIZE DUP1 DUP1 PUSH2 0x244 JUMP JUMPDEST SWAP2 SWAP3 PUSH1 0x20 PUSH1 0x1 DUP2 SWAP3 DUP7 DUP6 ADD MLOAD DUP2 SSTORE ADD SWAP5 ADD SWAP3 ADD PUSH2 0x231 JUMP JUMPDEST PUSH4 0x4E487B71 PUSH1 0xE0 SHL PUSH1 0x0 MSTORE PUSH1 0x41 PUSH1 0x4 MSTORE PUSH1 0x24 PUSH1 0x0 REVERT JUMPDEST PUSH1 0x1F NOT DUP3 AND SWAP6 DUP4 PUSH1 0x0 MSTORE DUP2 PUSH1 0x0 KECCAK256 SWAP7 PUSH1 0x0 JUMPDEST DUP2 DUP2 LT PUSH2 0x2E6 JUMPI POP SWAP2 PUSH1 0x2 SWAP7 SWAP8 SWAP2 DUP5 PUSH1 0x1 SWAP6 SWAP5 LT PUSH2 0x2CD JUMPI JUMPDEST POP POP POP DUP2 SHL ADD SWAP1 SSTORE PUSH2 0x1BD JUMP JUMPDEST ADD MLOAD PUSH1 0x0 NOT PUSH1 0xF8 DUP5 PUSH1 0x3 SHL AND SHR NOT AND SWAP1 SSTORE CODESIZE DUP1 DUP1 PUSH2 0x2C0 JUMP JUMPDEST DUP4 DUP4 ADD MLOAD DUP10 SSTORE PUSH1 0x1 SWAP1 SWAP9 ADD SWAP8 PUSH1 0x20 SWAP4 DUP5 ADD SWAP4 ADD PUSH2 0x2A7 JUMP JUMPDEST PUSH4 0x4E487B71 PUSH1 0xE0 SHL PUSH1 0x0 MSTORE PUSH1 0x0 PUSH1 0x4 MSTORE PUSH1 0x24 PUSH1 0x0 REVERT JUMPDEST PUSH1 0x0 DUP1 REVERT JUMPDEST CALLVALUE PUSH2 0x314 JUMPI PUSH1 0x20 CALLDATASIZE PUSH1 0x3 NOT ADD SLT PUSH2 0x314 JUMPI PUSH1 0x4 CALLDATALOAD PUSH1 0x0 SLOAD DUP2 LT PUSH2 0x33B SWAP1 PUSH2 0x1735 JUMP JUMPDEST PUSH1 0x0 MSTORE PUSH1 0x1 PUSH1 0x20 MSTORE PUSH1 0x40 PUSH1 0x0 KECCAK256 PUSH1 0x40 MLOAD PUSH2 0x354 DUP2 PUSH2 0x15AE JUMP JUMPDEST DUP2 SLOAD PUSH1 0x1 PUSH1 0x1 PUSH1 0xA0 SHL SUB AND DUP2 MSTORE PUSH2 0x36D PUSH1 0x1 DUP4 ADD PUSH2 0x1778 JUMP JUMPDEST PUSH1 0x20 DUP3 ADD SWAP1 DUP2 MSTORE SWAP1 PUSH2 0x381 PUSH1 0x2 DUP5 ADD PUSH2 0x1778 JUMP JUMPDEST PUSH1 0x40 DUP3 ADD SWAP1 DUP2 MSTORE SWAP3 PUSH2 0x395 PUSH1 0x3 DUP3 ADD PUSH2 0x1778 JUMP JUMPDEST PUSH1 0x60 DUP4 ADD SWAP1 DUP2 MSTORE SWAP1 PUSH2 0x3A9 PUSH1 0x4 DUP3 ADD PUSH2 0x1778 JUMP JUMPDEST PUSH1 0x80 DUP5 ADD SWAP1 DUP2 MSTORE PUSH2 0x3BC PUSH1 0x5 DUP4 ADD PUSH2 0x1778 JUMP JUMPDEST PUSH1 0xA0 DUP6 ADD SWAP1 DUP2 MSTORE PUSH2 0x3CF PUSH1 0x6 DUP5 ADD PUSH2 0x1778 JUMP JUMPDEST PUSH1 0xC0 DUP7 ADD SWAP1 DUP2 MSTORE PUSH2 0x3E2 PUSH1 0x7 DUP6 ADD PUSH2 0x1778 JUMP JUMPDEST PUSH1 0xE0 DUP8 ADD SWAP1 DUP2 MSTORE SWAP1 PUSH2 0x3F6 PUSH1 0x8 DUP7 ADD PUSH2 0x1778 JUMP JUMPDEST PUSH2 0x100 DUP9 ADD SWAP1 DUP2 MSTORE SWAP3 PUSH2 0x40B PUSH1 0x9 DUP8 ADD PUSH2 0x1778 JUMP JUMPDEST PUSH2 0x120 DUP10 ADD SWAP1 DUP2 MSTORE SWAP5 PUSH2 0x420 PUSH1 0xA DUP9 ADD PUSH2 0x1778 JUMP JUMPDEST SWAP7 PUSH2 0x140 DUP11 ADD SWAP8 DUP9 MSTORE PUSH1 0xB ADD PUSH2 0x435 SWAP1 PUSH2 0x1778 JUMP JUMPDEST SWAP9 DUP10 PUSH2 0x160 DUP3 ADD MSTORE PUSH1 0x1 PUSH1 0xA0 SHL PUSH1 0x1 SWAP1 SUB SWAP1 MLOAD AND SWAP10 MLOAD SWAP11 MLOAD SWAP8 MLOAD SWAP1 MLOAD SWAP2 MLOAD SWAP3 MLOAD SWAP4 MLOAD SWAP5 MLOAD SWAP6 MLOAD SWAP7 MLOAD SWAP8 PUSH1 0x40 MLOAD SWAP12 DUP13 SWAP12 DUP13 MSTORE PUSH1 0x20 DUP13 ADD PUSH2 0x180 SWAP1 MSTORE PUSH2 0x180 DUP13 ADD PUSH2 0x47D SWAP2 PUSH2 0x165C JUMP JUMPDEST DUP12 DUP2 SUB PUSH1 0x40 DUP14 ADD MSTORE PUSH2 0x48E SWAP2 PUSH2 0x165C JUMP JUMPDEST DUP11 DUP2 SUB PUSH1 0x60 DUP13 ADD MSTORE PUSH2 0x49F SWAP2 PUSH2 0x165C JUMP JUMPDEST DUP10 DUP2 SUB PUSH1 0x80 DUP12 ADD MSTORE PUSH2 0x4B0 SWAP2 PUSH2 0x165C JUMP JUMPDEST DUP9 DUP2 SUB PUSH1 0xA0 DUP11 ADD MSTORE PUSH2 0x4C1 SWAP2 PUSH2 0x165C JUMP JUMPDEST DUP8 DUP2 SUB PUSH1 0xC0 DUP10 ADD MSTORE PUSH2 0x4D2 SWAP2 PUSH2 0x165C JUMP JUMPDEST DUP7 DUP2 SUB PUSH1 0xE0 DUP9 ADD MSTORE PUSH2 0x4E3 SWAP2 PUSH2 0x165C JUMP JUMPDEST DUP6 DUP2 SUB PUSH2 0x100 DUP8 ADD MSTORE PUSH2 0x4F5 SWAP2 PUSH2 0x165C JUMP JUMPDEST DUP5 DUP2 SUB PUSH2 0x120 DUP7 ADD MSTORE PUSH2 0x507 SWAP2 PUSH2 0x165C JUMP JUMPDEST DUP4 DUP2 SUB PUSH2 0x140 DUP6 ADD MSTORE PUSH2 0x519 SWAP2 PUSH2 0x165C JUMP JUMPDEST DUP3 DUP2 SUB PUSH2 0x160 DUP5 ADD MSTORE PUSH2 0x52B SWAP2 PUSH2 0x165C JUMP JUMPDEST SUB SWAP1 RETURN JUMPDEST CALLVALUE PUSH2 0x314 JUMPI PUSH1 0x40 CALLDATASIZE PUSH1 0x3 NOT ADD SLT PUSH2 0x314 JUMPI PUSH1 0x4 CALLDATALOAD PUSH1 0x24 CALLDATALOAD PUSH1 0x0 SLOAD DUP3 LT ISZERO PUSH2 0x684 JUMPI DUP2 PUSH1 0x0 MSTORE PUSH1 0x1 PUSH1 0x20 MSTORE PUSH2 0x571 PUSH1 0x1 DUP1 PUSH1 0xA0 SHL SUB PUSH1 0x40 PUSH1 0x0 KECCAK256 SLOAD AND CALLER EQ PUSH2 0x1AA4 JUMP JUMPDEST DUP2 PUSH1 0x0 MSTORE PUSH1 0x2 PUSH1 0x20 MSTORE PUSH1 0x40 PUSH1 0x0 KECCAK256 SLOAD DUP2 LT ISZERO PUSH2 0x649 JUMPI PUSH1 0x0 DUP3 DUP2 MSTORE PUSH1 0x2 PUSH1 0x20 MSTORE PUSH1 0x40 SWAP1 KECCAK256 DUP1 SLOAD PUSH1 0x0 NOT DUP2 ADD SWAP2 SWAP1 DUP3 GT PUSH2 0x633 JUMPI PUSH2 0x5C6 SWAP2 PUSH2 0x5B1 SWAP2 PUSH2 0x1AFC JUMP JUMPDEST POP SWAP2 DUP4 PUSH1 0x0 MSTORE PUSH1 0x2 PUSH1 0x20 MSTORE PUSH1 0x40 PUSH1 0x0 KECCAK256 PUSH2 0x1AFC JUMP JUMPDEST SWAP2 SWAP1 SWAP2 PUSH2 0x2FE JUMPI PUSH2 0x5D6 SWAP2 PUSH2 0x19A1 JUMP JUMPDEST PUSH1 0x0 MSTORE PUSH1 0x2 PUSH1 0x20 MSTORE PUSH1 0x40 PUSH1 0x0 KECCAK256 DUP1 SLOAD DUP1 ISZERO PUSH2 0x61D JUMPI PUSH1 0x0 NOT ADD SWAP1 PUSH2 0x5FA DUP3 DUP3 PUSH2 0x1AFC JUMP JUMPDEST PUSH2 0x2FE JUMPI PUSH1 0x2 DUP2 PUSH1 0x0 PUSH2 0x61A SWAP4 SSTORE PUSH2 0x614 PUSH1 0x1 DUP3 ADD PUSH2 0x181A JUMP JUMPDEST ADD PUSH2 0x181A JUMP JUMPDEST SSTORE STOP JUMPDEST PUSH4 0x4E487B71 PUSH1 0xE0 SHL PUSH1 0x0 MSTORE PUSH1 0x31 PUSH1 0x4 MSTORE PUSH1 0x24 PUSH1 0x0 REVERT JUMPDEST PUSH4 0x4E487B71 PUSH1 0xE0 SHL PUSH1 0x0 MSTORE PUSH1 0x11 PUSH1 0x4 MSTORE PUSH1 0x24 PUSH1 0x0 REVERT JUMPDEST PUSH1 0x40 MLOAD PUSH3 0x461BCD PUSH1 0xE5 SHL DUP2 MSTORE PUSH1 0x20 PUSH1 0x4 DUP3 ADD MSTORE PUSH1 0x13 PUSH1 0x24 DUP3 ADD MSTORE PUSH19 0x92DCECC2D8D2C840D2DAC2CECA40D2DCC8CAF PUSH1 0x6B SHL PUSH1 0x44 DUP3 ADD MSTORE PUSH1 0x64 SWAP1 REVERT JUMPDEST PUSH1 0x40 MLOAD PUSH3 0x461BCD PUSH1 0xE5 SHL DUP2 MSTORE PUSH1 0x20 PUSH1 0x4 DUP3 ADD MSTORE PUSH1 0x11 PUSH1 0x24 DUP3 ADD MSTORE PUSH17 0x125B9D985B1A59081C995C1BDC9D081251 PUSH1 0x7A SHL PUSH1 0x44 DUP3 ADD MSTORE PUSH1 0x64 SWAP1 REVERT JUMPDEST CALLVALUE PUSH2 0x314 JUMPI PUSH1 0x20 CALLDATASIZE PUSH1 0x3 NOT ADD SLT PUSH2 0x314 JUMPI PUSH1 0x4 CALLDATALOAD PUSH2 0x6DE PUSH1 0x0 SLOAD DUP3 LT PUSH2 0x1735 JUMP JUMPDEST PUSH1 0x0 DUP2 DUP2 MSTORE PUSH1 0x1 PUSH1 0x20 MSTORE PUSH1 0x40 SWAP1 KECCAK256 SLOAD PUSH1 0x1 PUSH1 0x1 PUSH1 0xA0 SHL SUB AND CALLER SUB PUSH2 0x932 JUMPI DUP1 PUSH1 0x0 MSTORE PUSH1 0x2 PUSH1 0x20 MSTORE PUSH2 0x712 PUSH1 0x40 PUSH1 0x0 KECCAK256 PUSH2 0x1869 JUMP JUMPDEST PUSH1 0x0 SLOAD PUSH1 0x0 NOT DUP2 ADD SWAP1 DUP2 GT PUSH2 0x633 JUMPI DUP2 LT ISZERO PUSH2 0x920 JUMPI PUSH1 0x1 DUP2 ADD SWAP1 DUP2 DUP2 GT PUSH2 0x633 JUMPI PUSH1 0x0 DUP3 DUP2 MSTORE PUSH1 0x1 PUSH1 0x20 MSTORE PUSH1 0x40 DUP1 DUP3 KECCAK256 DUP4 DUP4 MSTORE SWAP2 KECCAK256 DUP2 DUP2 SUB PUSH2 0x84B JUMPI JUMPDEST POP POP PUSH1 0x0 SWAP2 DUP3 MSTORE PUSH1 0x2 PUSH1 0x20 MSTORE PUSH2 0x774 PUSH1 0x40 DUP4 KECCAK256 DUP3 DUP5 MSTORE PUSH1 0x2 PUSH1 0x20 MSTORE PUSH1 0x40 DUP5 KECCAK256 PUSH2 0x19E2 JUMP JUMPDEST DUP2 SLOAD PUSH1 0x0 NOT DUP2 ADD SWAP1 DUP2 GT PUSH2 0x837 JUMPI DUP3 MSTORE PUSH1 0x1 PUSH1 0x20 MSTORE PUSH2 0x80D PUSH1 0xB PUSH1 0x40 DUP5 KECCAK256 DUP5 DUP2 SSTORE PUSH2 0x7A1 PUSH1 0x1 DUP3 ADD PUSH2 0x181A JUMP JUMPDEST PUSH2 0x7AD PUSH1 0x2 DUP3 ADD PUSH2 0x181A JUMP JUMPDEST PUSH2 0x7B9 PUSH1 0x3 DUP3 ADD PUSH2 0x181A JUMP JUMPDEST PUSH2 0x7C5 PUSH1 0x4 DUP3 ADD PUSH2 0x181A JUMP JUMPDEST PUSH2 0x7D1 PUSH1 0x5 DUP3 ADD PUSH2 0x181A JUMP JUMPDEST PUSH2 0x7DD PUSH1 0x6 DUP3 ADD PUSH2 0x181A JUMP JUMPDEST PUSH2 0x7E9 PUSH1 0x7 DUP3 ADD PUSH2 0x181A JUMP JUMPDEST PUSH2 0x7F5 PUSH1 0x8 DUP3 ADD PUSH2 0x181A JUMP JUMPDEST PUSH2 0x801 PUSH1 0x9 DUP3 ADD PUSH2 0x181A JUMP JUMPDEST PUSH2 0x614 PUSH1 0xA DUP3 ADD PUSH2 0x181A JUMP JUMPDEST DUP2 SLOAD PUSH1 0x0 NOT DUP2 ADD SWAP1 DUP2 GT PUSH2 0x837 JUMPI PUSH1 0x40 DUP4 PUSH2 0x831 SWAP3 PUSH1 0x1 SWAP6 MSTORE PUSH1 0x2 PUSH1 0x20 MSTORE KECCAK256 PUSH2 0x1869 JUMP JUMPDEST ADD PUSH2 0x712 JUMP JUMPDEST PUSH4 0x4E487B71 PUSH1 0xE0 SHL DUP4 MSTORE PUSH1 0x11 PUSH1 0x4 MSTORE PUSH1 0x24 DUP4 REVERT JUMPDEST DUP2 SLOAD DUP2 SLOAD PUSH1 0x1 PUSH1 0x1 PUSH1 0xA0 SHL SUB NOT AND PUSH1 0x1 PUSH1 0x1 PUSH1 0xA0 SHL SUB SWAP2 SWAP1 SWAP2 AND OR DUP2 SSTORE PUSH2 0x919 SWAP2 PUSH1 0xB SWAP1 DUP2 SWAP1 PUSH2 0x881 PUSH1 0x1 DUP1 DUP4 ADD SWAP1 DUP7 ADD PUSH2 0x18C5 JUMP JUMPDEST PUSH2 0x891 PUSH1 0x2 DUP3 ADD PUSH1 0x2 DUP7 ADD PUSH2 0x18C5 JUMP JUMPDEST PUSH2 0x8A1 PUSH1 0x3 DUP3 ADD PUSH1 0x3 DUP7 ADD PUSH2 0x18C5 JUMP JUMPDEST PUSH2 0x8B1 PUSH1 0x4 DUP3 ADD PUSH1 0x4 DUP7 ADD PUSH2 0x18C5 JUMP JUMPDEST PUSH2 0x8C1 PUSH1 0x5 DUP3 ADD PUSH1 0x5 DUP7 ADD PUSH2 0x18C5 JUMP JUMPDEST PUSH2 0x8D1 PUSH1 0x6 DUP3 ADD PUSH1 0x6 DUP7 ADD PUSH2 0x18C5 JUMP JUMPDEST PUSH2 0x8E1 PUSH1 0x7 DUP3 ADD PUSH1 0x7 DUP7 ADD PUSH2 0x18C5 JUMP JUMPDEST PUSH2 0x8F1 PUSH1 0x8 DUP3 ADD PUSH1 0x8 DUP7 ADD PUSH2 0x18C5 JUMP JUMPDEST PUSH2 0x901 PUSH1 0x9 DUP3 ADD PUSH1 0x9 DUP7 ADD PUSH2 0x18C5 JUMP JUMPDEST PUSH2 0x911 PUSH1 0xA DUP3 ADD PUSH1 0xA DUP7 ADD PUSH2 0x18C5 JUMP JUMPDEST ADD SWAP2 ADD PUSH2 0x18C5 JUMP JUMPDEST DUP3 DUP1 PUSH2 0x750 JUMP JUMPDEST PUSH1 0x0 SLOAD DUP1 ISZERO PUSH2 0x633 JUMPI PUSH1 0x0 NOT ADD PUSH1 0x0 SSTORE STOP JUMPDEST PUSH1 0x40 MLOAD PUSH3 0x461BCD PUSH1 0xE5 SHL DUP2 MSTORE PUSH1 0x20 PUSH1 0x4 DUP3 ADD MSTORE PUSH1 0x2F PUSH1 0x24 DUP3 ADD MSTORE PUSH32 0x506C6561736520656E7375726520796F752061726520746865206F776E657220 PUSH1 0x44 DUP3 ADD MSTORE PUSH15 0x1BD9881D1A1A5CC81C995C5D595CDD PUSH1 0x8A SHL PUSH1 0x64 DUP3 ADD MSTORE PUSH1 0x84 SWAP1 REVERT JUMPDEST CALLVALUE PUSH2 0x314 JUMPI PUSH1 0x20 CALLDATASIZE PUSH1 0x3 NOT ADD SLT PUSH2 0x314 JUMPI PUSH1 0x4 CALLDATALOAD PUSH2 0x9B0 PUSH1 0x0 SLOAD DUP3 LT PUSH2 0x1735 JUMP JUMPDEST PUSH1 0x0 MSTORE PUSH1 0x2 PUSH1 0x20 MSTORE PUSH1 0x40 PUSH1 0x0 KECCAK256 DUP1 SLOAD SWAP1 PUSH1 0x1 PUSH1 0x1 PUSH1 0x40 SHL SUB DUP3 GT PUSH2 0x27F JUMPI PUSH1 0x40 MLOAD SWAP2 PUSH2 0x9E2 PUSH1 0x20 DUP3 PUSH1 0x5 SHL ADD DUP5 PUSH2 0x15E5 JUMP JUMPDEST DUP1 DUP4 MSTORE PUSH1 0x20 DUP4 ADD DUP1 SWAP3 PUSH1 0x0 MSTORE PUSH1 0x20 PUSH1 0x0 KECCAK256 PUSH1 0x0 SWAP2 JUMPDEST DUP4 DUP4 LT PUSH2 0xA96 JUMPI DUP5 DUP7 PUSH1 0x40 MLOAD SWAP2 DUP3 SWAP2 PUSH1 0x20 DUP4 ADD SWAP1 PUSH1 0x20 DUP5 MSTORE MLOAD DUP1 SWAP2 MSTORE PUSH1 0x40 DUP4 ADD SWAP1 PUSH1 0x40 DUP2 PUSH1 0x5 SHL DUP6 ADD ADD SWAP3 SWAP2 PUSH1 0x0 SWAP1 JUMPDEST DUP3 DUP3 LT PUSH2 0xA36 JUMPI POP POP POP POP SUB SWAP1 RETURN JUMPDEST SWAP2 SWAP4 PUSH1 0x1 SWAP2 SWAP4 SWAP6 POP PUSH1 0x20 PUSH2 0xA86 DUP2 SWAP3 PUSH1 0x3F NOT DUP11 DUP3 SUB ADD DUP7 MSTORE DUP9 MLOAD SWAP1 DUP6 DUP1 PUSH1 0xA0 SHL SUB DUP3 MLOAD AND DUP2 MSTORE PUSH1 0x40 PUSH2 0xA75 DUP6 DUP5 ADD MLOAD PUSH1 0x60 DUP8 DUP6 ADD MSTORE PUSH1 0x60 DUP5 ADD SWAP1 PUSH2 0x165C JUMP JUMPDEST SWAP3 ADD MLOAD SWAP1 PUSH1 0x40 DUP2 DUP5 SUB SWAP2 ADD MSTORE PUSH2 0x165C JUMP JUMPDEST SWAP7 ADD SWAP3 ADD SWAP3 ADD DUP6 SWAP5 SWAP4 SWAP2 SWAP3 PUSH2 0xA27 JUMP JUMPDEST PUSH1 0x3 PUSH1 0x20 PUSH1 0x1 SWAP3 PUSH1 0x40 MLOAD PUSH2 0xAA9 DUP2 PUSH2 0x15CA JUMP JUMPDEST DUP5 DUP1 PUSH1 0xA0 SHL SUB DUP7 SLOAD AND DUP2 MSTORE PUSH2 0xABF DUP6 DUP8 ADD PUSH2 0x1778 JUMP JUMPDEST DUP4 DUP3 ADD MSTORE PUSH2 0xACF PUSH1 0x2 DUP8 ADD PUSH2 0x1778 JUMP JUMPDEST PUSH1 0x40 DUP3 ADD MSTORE DUP2 MSTORE ADD SWAP3 ADD SWAP3 ADD SWAP2 SWAP1 PUSH2 0x9F7 JUMP JUMPDEST CALLVALUE PUSH2 0x314 JUMPI PUSH2 0x160 CALLDATASIZE PUSH1 0x3 NOT ADD SLT PUSH2 0x314 JUMPI PUSH1 0x4 CALLDATALOAD PUSH1 0x1 PUSH1 0x1 PUSH1 0x40 SHL SUB DUP2 GT PUSH2 0x314 JUMPI PUSH2 0xB13 SWAP1 CALLDATASIZE SWAP1 PUSH1 0x4 ADD PUSH2 0x1606 JUMP JUMPDEST PUSH1 0x24 CALLDATALOAD PUSH1 0x1 PUSH1 0x1 PUSH1 0x40 SHL SUB DUP2 GT PUSH2 0x314 JUMPI PUSH2 0xB32 SWAP1 CALLDATASIZE SWAP1 PUSH1 0x4 ADD PUSH2 0x1606 JUMP JUMPDEST PUSH1 0x44 CALLDATALOAD PUSH1 0x1 PUSH1 0x1 PUSH1 0x40 SHL SUB DUP2 GT PUSH2 0x314 JUMPI PUSH2 0xB51 SWAP1 CALLDATASIZE SWAP1 PUSH1 0x4 ADD PUSH2 0x1606 JUMP JUMPDEST SWAP2 PUSH1 0x64 CALLDATALOAD PUSH1 0x1 PUSH1 0x1 PUSH1 0x40 SHL SUB DUP2 GT PUSH2 0x314 JUMPI PUSH2 0xB71 SWAP1 CALLDATASIZE SWAP1 PUSH1 0x4 ADD PUSH2 0x1606 JUMP JUMPDEST PUSH1 0x84 CALLDATALOAD PUSH1 0x1 PUSH1 0x1 PUSH1 0x40 SHL SUB DUP2 GT PUSH2 0x314 JUMPI PUSH2 0xB90 SWAP1 CALLDATASIZE SWAP1 PUSH1 0x4 ADD PUSH2 0x1606 JUMP JUMPDEST PUSH1 0xA4 CALLDATALOAD PUSH1 0x1 PUSH1 0x1 PUSH1 0x40 SHL SUB DUP2 GT PUSH2 0x314 JUMPI PUSH2 0xBAF SWAP1 CALLDATASIZE SWAP1 PUSH1 0x4 ADD PUSH2 0x1606 JUMP JUMPDEST PUSH1 0xC4 CALLDATALOAD PUSH1 0x1 PUSH1 0x1 PUSH1 0x40 SHL SUB DUP2 GT PUSH2 0x314 JUMPI PUSH2 0xBCE SWAP1 CALLDATASIZE SWAP1 PUSH1 0x4 ADD PUSH2 0x1606 JUMP JUMPDEST SWAP1 PUSH1 0xE4 CALLDATALOAD PUSH1 0x1 PUSH1 0x1 PUSH1 0x40 SHL SUB DUP2 GT PUSH2 0x314 JUMPI PUSH2 0xBEE SWAP1 CALLDATASIZE SWAP1 PUSH1 0x4 ADD PUSH2 0x1606 JUMP JUMPDEST SWAP3 PUSH2 0x104 CALLDATALOAD PUSH1 0x1 PUSH1 0x1 PUSH1 0x40 SHL SUB DUP2 GT PUSH2 0x314 JUMPI PUSH2 0xC0F SWAP1 CALLDATASIZE SWAP1 PUSH1 0x4 ADD PUSH2 0x1606 JUMP JUMPDEST SWAP5 PUSH2 0x124 CALLDATALOAD PUSH1 0x1 PUSH1 0x1 PUSH1 0x40 SHL SUB DUP2 GT PUSH2 0x314 JUMPI PUSH2 0xC30 SWAP1 CALLDATASIZE SWAP1 PUSH1 0x4 ADD PUSH2 0x1606 JUMP JUMPDEST SWAP9 PUSH2 0x144 CALLDATALOAD PUSH1 0x1 PUSH1 0x1 PUSH1 0x40 SHL SUB DUP2 GT PUSH2 0x314 JUMPI PUSH2 0xC51 SWAP1 CALLDATASIZE SWAP1 PUSH1 0x4 ADD PUSH2 0x1606 JUMP JUMPDEST SWAP9 PUSH1 0x40 MLOAD SWAP9 PUSH2 0xC5F DUP11 PUSH2 0x15AE JUMP JUMPDEST CALLER DUP11 MSTORE PUSH1 0x20 DUP1 DUP12 ADD SWAP2 DUP3 MSTORE PUSH1 0x40 DUP1 DUP13 ADD SWAP4 DUP5 MSTORE PUSH1 0x60 DUP13 ADD SWAP5 DUP6 MSTORE PUSH1 0x80 DUP13 ADD SWAP6 DUP7 MSTORE PUSH1 0xA0 DUP13 ADD SWAP7 DUP8 MSTORE PUSH1 0xC0 DUP13 ADD SWAP8 DUP9 MSTORE PUSH1 0xE0 DUP13 ADD SWAP9 DUP10 MSTORE PUSH2 0x100 DUP13 ADD SWAP10 DUP11 MSTORE PUSH2 0x120 DUP13 ADD SWAP11 DUP12 MSTORE PUSH2 0x140 DUP13 ADD SWAP14 DUP15 MSTORE PUSH2 0x160 DUP13 ADD SWAP13 DUP14 MSTORE PUSH1 0x0 DUP1 SLOAD DUP2 MSTORE PUSH1 0x1 SWAP3 DUP4 SWAP1 MSTORE KECCAK256 SWAP11 MLOAD DUP12 SLOAD PUSH1 0x1 PUSH1 0x1 PUSH1 0xA0 SHL SUB NOT AND PUSH1 0x1 PUSH1 0x1 PUSH1 0xA0 SHL SUB SWAP2 SWAP1 SWAP2 AND OR DUP12 SSTORE SWAP1 MLOAD DUP1 MLOAD SWAP2 DUP12 ADD SWAP2 SWAP1 PUSH1 0x1 PUSH1 0x1 PUSH1 0x40 SHL SUB DUP3 GT PUSH2 0x27F JUMPI PUSH2 0xD0A DUP3 PUSH2 0xD04 DUP6 SLOAD PUSH2 0x169D JUMP JUMPDEST DUP6 PUSH2 0x16EE JUMP JUMPDEST PUSH1 0x20 SWAP1 PUSH1 0x1F DUP4 GT PUSH1 0x1 EQ PUSH2 0x152C JUMPI PUSH2 0xD3A SWAP3 SWAP2 PUSH1 0x0 SWAP2 DUP4 PUSH2 0x1521 JUMPI POP POP DUP2 PUSH1 0x1 SHL SWAP2 PUSH1 0x0 NOT SWAP1 PUSH1 0x3 SHL SHR NOT AND OR SWAP1 JUMP JUMPDEST SWAP1 SSTORE JUMPDEST MLOAD DUP1 MLOAD PUSH1 0x2 DUP11 ADD SWAP2 PUSH1 0x1 PUSH1 0x1 PUSH1 0x40 SHL SUB DUP3 GT PUSH2 0x27F JUMPI PUSH2 0xD61 DUP3 PUSH2 0xD04 DUP6 SLOAD PUSH2 0x169D JUMP JUMPDEST PUSH1 0x20 SWAP1 PUSH1 0x1F DUP4 GT PUSH1 0x1 EQ PUSH2 0x14BA JUMPI PUSH2 0xD91 SWAP3 SWAP2 PUSH1 0x0 SWAP2 DUP4 PUSH2 0x14AF JUMPI POP POP DUP2 PUSH1 0x1 SHL SWAP2 PUSH1 0x0 NOT SWAP1 PUSH1 0x3 SHL SHR NOT AND OR SWAP1 JUMP JUMPDEST SWAP1 SSTORE JUMPDEST MLOAD DUP1 MLOAD PUSH1 0x3 DUP10 ADD SWAP2 PUSH1 0x1 PUSH1 0x1 PUSH1 0x40 SHL SUB DUP3 GT PUSH2 0x27F JUMPI PUSH2 0xDB8 DUP3 PUSH2 0xD04 DUP6 SLOAD PUSH2 0x169D JUMP JUMPDEST PUSH1 0x20 SWAP1 PUSH1 0x1F DUP4 GT PUSH1 0x1 EQ PUSH2 0x1448 JUMPI PUSH2 0xDE8 SWAP3 SWAP2 PUSH1 0x0 SWAP2 DUP4 PUSH2 0x143D JUMPI POP POP DUP2 PUSH1 0x1 SHL SWAP2 PUSH1 0x0 NOT SWAP1 PUSH1 0x3 SHL SHR NOT AND OR SWAP1 JUMP JUMPDEST SWAP1 SSTORE JUMPDEST MLOAD DUP1 MLOAD PUSH1 0x4 DUP9 ADD SWAP2 PUSH1 0x1 PUSH1 0x1 PUSH1 0x40 SHL SUB DUP3 GT PUSH2 0x27F JUMPI PUSH2 0xE0F DUP3 PUSH2 0xD04 DUP6 SLOAD PUSH2 0x169D JUMP JUMPDEST PUSH1 0x20 SWAP1 PUSH1 0x1F DUP4 GT PUSH1 0x1 EQ PUSH2 0x13D6 JUMPI PUSH2 0xE3F SWAP3 SWAP2 PUSH1 0x0 SWAP2 DUP4 PUSH2 0x13CB JUMPI POP POP DUP2 PUSH1 0x1 SHL SWAP2 PUSH1 0x0 NOT SWAP1 PUSH1 0x3 SHL SHR NOT AND OR SWAP1 JUMP JUMPDEST SWAP1 SSTORE JUMPDEST MLOAD DUP1 MLOAD PUSH1 0x5 DUP8 ADD SWAP2 PUSH1 0x1 PUSH1 0x1 PUSH1 0x40 SHL SUB DUP3 GT PUSH2 0x27F JUMPI PUSH2 0xE66 DUP3 PUSH2 0xD04 DUP6 SLOAD PUSH2 0x169D JUMP JUMPDEST PUSH1 0x20 SWAP1 PUSH1 0x1F DUP4 GT PUSH1 0x1 EQ PUSH2 0x1364 JUMPI PUSH2 0xE96 SWAP3 SWAP2 PUSH1 0x0 SWAP2 DUP4 PUSH2 0x1359 JUMPI POP POP DUP2 PUSH1 0x1 SHL SWAP2 PUSH1 0x0 NOT SWAP1 PUSH1 0x3 SHL SHR NOT AND OR SWAP1 JUMP JUMPDEST SWAP1 SSTORE JUMPDEST MLOAD DUP1 MLOAD PUSH1 0x6 DUP7 ADD SWAP2 PUSH1 0x1 PUSH1 0x1 PUSH1 0x40 SHL SUB DUP3 GT PUSH2 0x27F JUMPI PUSH2 0xEBD DUP3 PUSH2 0xD04 DUP6 SLOAD PUSH2 0x169D JUMP JUMPDEST PUSH1 0x20 SWAP1 PUSH1 0x1F DUP4 GT PUSH1 0x1 EQ PUSH2 0x12F2 JUMPI PUSH2 0xEED SWAP3 SWAP2 PUSH1 0x0 SWAP2 DUP4 PUSH2 0x12E7 JUMPI POP POP DUP2 PUSH1 0x1 SHL SWAP2 PUSH1 0x0 NOT SWAP1 PUSH1 0x3 SHL SHR NOT AND OR SWAP1 JUMP JUMPDEST SWAP1 SSTORE JUMPDEST MLOAD DUP1 MLOAD PUSH1 0x7 DUP6 ADD SWAP2 PUSH1 0x1 PUSH1 0x1 PUSH1 0x40 SHL SUB DUP3 GT PUSH2 0x27F JUMPI PUSH2 0xF14 DUP3 PUSH2 0xD04 DUP6 SLOAD PUSH2 0x169D JUMP JUMPDEST PUSH1 0x20 SWAP1 PUSH1 0x1F DUP4 GT PUSH1 0x1 EQ PUSH2 0x1280 JUMPI PUSH2 0xF44 SWAP3 SWAP2 PUSH1 0x0 SWAP2 DUP4 PUSH2 0x1275 JUMPI POP POP DUP2 PUSH1 0x1 SHL SWAP2 PUSH1 0x0 NOT SWAP1 PUSH1 0x3 SHL SHR NOT AND OR SWAP1 JUMP JUMPDEST SWAP1 SSTORE JUMPDEST MLOAD DUP1 MLOAD PUSH1 0x8 DUP5 ADD SWAP2 PUSH1 0x1 PUSH1 0x1 PUSH1 0x40 SHL SUB DUP3 GT PUSH2 0x27F JUMPI PUSH2 0xF6B DUP3 PUSH2 0xD04 DUP6 SLOAD PUSH2 0x169D JUMP JUMPDEST PUSH1 0x20 SWAP1 PUSH1 0x1F DUP4 GT PUSH1 0x1 EQ PUSH2 0x120E JUMPI PUSH2 0xF9B SWAP3 SWAP2 PUSH1 0x0 SWAP2 DUP4 PUSH2 0x1203 JUMPI POP POP DUP2 PUSH1 0x1 SHL SWAP2 PUSH1 0x0 NOT SWAP1 PUSH1 0x3 SHL SHR NOT AND OR SWAP1 JUMP JUMPDEST SWAP1 SSTORE JUMPDEST MLOAD DUP1 MLOAD PUSH1 0x9 DUP4 ADD SWAP2 PUSH1 0x1 PUSH1 0x1 PUSH1 0x40 SHL SUB DUP3 GT PUSH2 0x27F JUMPI PUSH2 0xFC2 DUP3 PUSH2 0xD04 DUP6 SLOAD PUSH2 0x169D JUMP JUMPDEST PUSH1 0x20 SWAP1 PUSH1 0x1F DUP4 GT PUSH1 0x1 EQ PUSH2 0x119C JUMPI PUSH2 0xFF2 SWAP3 SWAP2 PUSH1 0x0 SWAP2 DUP4 PUSH2 0x1128 JUMPI POP POP DUP2 PUSH1 0x1 SHL SWAP2 PUSH1 0x0 NOT SWAP1 PUSH1 0x3 SHL SHR NOT AND OR SWAP1 JUMP JUMPDEST SWAP1 SSTORE JUMPDEST PUSH1 0xA DUP2 ADD SWAP3 MLOAD SWAP3 DUP4 MLOAD PUSH1 0x1 PUSH1 0x1 PUSH1 0x40 SHL SUB DUP2 GT PUSH2 0x27F JUMPI PUSH2 0x101A DUP2 PUSH2 0x180 DUP5 SLOAD PUSH2 0x169D JUMP JUMPDEST PUSH1 0x20 PUSH1 0x1F DUP3 GT PUSH1 0x1 EQ PUSH2 0x1133 JUMPI SWAP1 DUP1 PUSH2 0x104D SWAP3 PUSH1 0xB SWAP7 SWAP8 PUSH1 0x0 SWAP3 PUSH2 0x1128 JUMPI POP POP DUP2 PUSH1 0x1 SHL SWAP2 PUSH1 0x0 NOT SWAP1 PUSH1 0x3 SHL SHR NOT AND OR SWAP1 JUMP JUMPDEST SWAP1 SSTORE JUMPDEST ADD SWAP1 MLOAD SWAP1 DUP2 MLOAD PUSH1 0x1 PUSH1 0x1 PUSH1 0x40 SHL SUB DUP2 GT PUSH2 0x27F JUMPI PUSH2 0x1072 DUP2 PUSH2 0x180 DUP5 SLOAD PUSH2 0x169D JUMP JUMPDEST PUSH1 0x20 SWAP3 PUSH1 0x1F DUP3 GT PUSH1 0x1 EQ PUSH2 0x10C5 JUMPI PUSH2 0x10A3 SWAP3 SWAP4 DUP3 SWAP2 PUSH1 0x0 SWAP3 PUSH2 0x10BA JUMPI POP POP DUP2 PUSH1 0x1 SHL SWAP2 PUSH1 0x0 NOT SWAP1 PUSH1 0x3 SHL SHR NOT AND OR SWAP1 JUMP JUMPDEST SWAP1 SSTORE JUMPDEST PUSH1 0x0 SLOAD PUSH1 0x0 NOT DUP2 EQ PUSH2 0x633 JUMPI PUSH1 0x1 ADD PUSH1 0x0 SSTORE STOP JUMPDEST ADD MLOAD SWAP1 POP DUP5 DUP1 PUSH2 0x1A5 JUMP JUMPDEST PUSH1 0x1F NOT DUP3 AND SWAP4 DUP4 PUSH1 0x0 MSTORE DUP1 PUSH1 0x0 KECCAK256 SWAP2 PUSH1 0x0 JUMPDEST DUP7 DUP2 LT PUSH2 0x1110 JUMPI POP DUP4 PUSH1 0x1 SWAP6 SWAP7 LT PUSH2 0x10F7 JUMPI JUMPDEST POP POP POP DUP2 SHL ADD SWAP1 SSTORE PUSH2 0x10A6 JUMP JUMPDEST ADD MLOAD PUSH1 0x0 NOT PUSH1 0xF8 DUP5 PUSH1 0x3 SHL AND SHR NOT AND SWAP1 SSTORE DUP4 DUP1 DUP1 PUSH2 0x10EA JUMP JUMPDEST SWAP2 SWAP3 PUSH1 0x20 PUSH1 0x1 DUP2 SWAP3 DUP7 DUP6 ADD MLOAD DUP2 SSTORE ADD SWAP5 ADD SWAP3 ADD PUSH2 0x10D7 JUMP JUMPDEST ADD MLOAD SWAP1 POP DUP8 DUP1 PUSH2 0x1A5 JUMP JUMPDEST PUSH1 0x1F NOT DUP3 AND SWAP6 DUP4 PUSH1 0x0 MSTORE DUP2 PUSH1 0x0 KECCAK256 SWAP7 PUSH1 0x0 JUMPDEST DUP2 DUP2 LT PUSH2 0x1184 JUMPI POP SWAP2 PUSH1 0xB SWAP7 SWAP8 SWAP2 DUP5 PUSH1 0x1 SWAP6 SWAP5 LT PUSH2 0x116B JUMPI JUMPDEST POP POP POP DUP2 SHL ADD SWAP1 SSTORE PUSH2 0x1050 JUMP JUMPDEST ADD MLOAD PUSH1 0x0 NOT PUSH1 0xF8 DUP5 PUSH1 0x3 SHL AND SHR NOT AND SWAP1 SSTORE DUP7 DUP1 DUP1 PUSH2 0x115E JUMP JUMPDEST DUP4 DUP4 ADD MLOAD DUP10 SSTORE PUSH1 0x1 SWAP1 SWAP9 ADD SWAP8 PUSH1 0x20 SWAP4 DUP5 ADD SWAP4 ADD PUSH2 0x1145 JUMP JUMPDEST SWAP1 PUSH1 0x1F NOT DUP4 AND SWAP2 DUP5 PUSH1 0x0 MSTORE DUP2 PUSH1 0x0 KECCAK256 SWAP3 PUSH1 0x0 JUMPDEST DUP2 DUP2 LT PUSH2 0x11EB JUMPI POP SWAP1 DUP5 PUSH1 0x1 SWAP6 SWAP5 SWAP4 SWAP3 LT PUSH2 0x11D2 JUMPI JUMPDEST POP POP POP DUP2 SHL ADD SWAP1 SSTORE PUSH2 0xFF5 JUMP JUMPDEST ADD MLOAD PUSH1 0x0 NOT PUSH1 0xF8 DUP5 PUSH1 0x3 SHL AND SHR NOT AND SWAP1 SSTORE DUP7 DUP1 DUP1 PUSH2 0x11C5 JUMP JUMPDEST SWAP3 SWAP4 PUSH1 0x20 PUSH1 0x1 DUP2 SWAP3 DUP8 DUP7 ADD MLOAD DUP2 SSTORE ADD SWAP6 ADD SWAP4 ADD PUSH2 0x11AF JUMP JUMPDEST ADD MLOAD SWAP1 POP DUP9 DUP1 PUSH2 0x1A5 JUMP JUMPDEST SWAP1 PUSH1 0x1F NOT DUP4 AND SWAP2 DUP5 PUSH1 0x0 MSTORE DUP2 PUSH1 0x0 KECCAK256 SWAP3 PUSH1 0x0 JUMPDEST DUP2 DUP2 LT PUSH2 0x125D JUMPI POP SWAP1 DUP5 PUSH1 0x1 SWAP6 SWAP5 SWAP4 SWAP3 LT PUSH2 0x1244 JUMPI JUMPDEST POP POP POP DUP2 SHL ADD SWAP1 SSTORE PUSH2 0xF9E JUMP JUMPDEST ADD MLOAD PUSH1 0x0 NOT PUSH1 0xF8 DUP5 PUSH1 0x3 SHL AND SHR NOT AND SWAP1 SSTORE DUP8 DUP1 DUP1 PUSH2 0x1237 JUMP JUMPDEST SWAP3 SWAP4 PUSH1 0x20 PUSH1 0x1 DUP2 SWAP3 DUP8 DUP7 ADD MLOAD DUP2 SSTORE ADD SWAP6 ADD SWAP4 ADD PUSH2 0x1221 JUMP JUMPDEST ADD MLOAD SWAP1 POP DUP10 DUP1 PUSH2 0x1A5 JUMP JUMPDEST SWAP1 PUSH1 0x1F NOT DUP4 AND SWAP2 DUP5 PUSH1 0x0 MSTORE DUP2 PUSH1 0x0 KECCAK256 SWAP3 PUSH1 0x0 JUMPDEST DUP2 DUP2 LT PUSH2 0x12CF JUMPI POP SWAP1 DUP5 PUSH1 0x1 SWAP6 SWAP5 SWAP4 SWAP3 LT PUSH2 0x12B6 JUMPI JUMPDEST POP POP POP DUP2 SHL ADD SWAP1 SSTORE PUSH2 0xF47 JUMP JUMPDEST ADD MLOAD PUSH1 0x0 NOT PUSH1 0xF8 DUP5 PUSH1 0x3 SHL AND SHR NOT AND SWAP1 SSTORE DUP9 DUP1 DUP1 PUSH2 0x12A9 JUMP JUMPDEST SWAP3 SWAP4 PUSH1 0x20 PUSH1 0x1 DUP2 SWAP3 DUP8 DUP7 ADD MLOAD DUP2 SSTORE ADD SWAP6 ADD SWAP4 ADD PUSH2 0x1293 JUMP JUMPDEST ADD MLOAD SWAP1 POP DUP11 DUP1 PUSH2 0x1A5 JUMP JUMPDEST SWAP1 PUSH1 0x1F NOT DUP4 AND SWAP2 DUP5 PUSH1 0x0 MSTORE DUP2 PUSH1 0x0 KECCAK256 SWAP3 PUSH1 0x0 JUMPDEST DUP2 DUP2 LT PUSH2 0x1341 JUMPI POP SWAP1 DUP5 PUSH1 0x1 SWAP6 SWAP5 SWAP4 SWAP3 LT PUSH2 0x1328 JUMPI JUMPDEST POP POP POP DUP2 SHL ADD SWAP1 SSTORE PUSH2 0xEF0 JUMP JUMPDEST ADD MLOAD PUSH1 0x0 NOT PUSH1 0xF8 DUP5 PUSH1 0x3 SHL AND SHR NOT AND SWAP1 SSTORE DUP10 DUP1 DUP1 PUSH2 0x131B JUMP JUMPDEST SWAP3 SWAP4 PUSH1 0x20 PUSH1 0x1 DUP2 SWAP3 DUP8 DUP7 ADD MLOAD DUP2 SSTORE ADD SWAP6 ADD SWAP4 ADD PUSH2 0x1305 JUMP JUMPDEST ADD MLOAD SWAP1 POP DUP12 DUP1 PUSH2 0x1A5 JUMP JUMPDEST SWAP1 PUSH1 0x1F NOT DUP4 AND SWAP2 DUP5 PUSH1 0x0 MSTORE DUP2 PUSH1 0x0 KECCAK256 SWAP3 PUSH1 0x0 JUMPDEST DUP2 DUP2 LT PUSH2 0x13B3 JUMPI POP SWAP1 DUP5 PUSH1 0x1 SWAP6 SWAP5 SWAP4 SWAP3 LT PUSH2 0x139A JUMPI JUMPDEST POP POP POP DUP2 SHL ADD SWAP1 SSTORE PUSH2 0xE99 JUMP JUMPDEST ADD MLOAD PUSH1 0x0 NOT PUSH1 0xF8 DUP5 PUSH1 0x3 SHL AND SHR NOT AND SWAP1 SSTORE DUP11 DUP1 DUP1 PUSH2 0x138D JUMP JUMPDEST SWAP3 SWAP4 PUSH1 0x20 PUSH1 0x1 DUP2 SWAP3 DUP8 DUP7 ADD MLOAD DUP2 SSTORE ADD SWAP6 ADD SWAP4 ADD PUSH2 0x1377 JUMP JUMPDEST ADD MLOAD SWAP1 POP DUP13 DUP1 PUSH2 0x1A5 JUMP JUMPDEST SWAP1 PUSH1 0x1F NOT DUP4 AND SWAP2 DUP5 PUSH1 0x0 MSTORE DUP2 PUSH1 0x0 KECCAK256 SWAP3 PUSH1 0x0 JUMPDEST DUP2 DUP2 LT PUSH2 0x1425 JUMPI POP SWAP1 DUP5 PUSH1 0x1 SWAP6 SWAP5 SWAP4 SWAP3 LT PUSH2 0x140C JUMPI JUMPDEST POP POP POP DUP2 SHL ADD SWAP1 SSTORE PUSH2 0xE42 JUMP JUMPDEST ADD MLOAD PUSH1 0x0 NOT PUSH1 0xF8 DUP5 PUSH1 0x3 SHL AND SHR NOT AND SWAP1 SSTORE DUP12 DUP1 DUP1 PUSH2 0x13FF JUMP JUMPDEST SWAP3 SWAP4 PUSH1 0x20 PUSH1 0x1 DUP2 SWAP3 DUP8 DUP7 ADD MLOAD DUP2 SSTORE ADD SWAP6 ADD SWAP4 ADD PUSH2 0x13E9 JUMP JUMPDEST ADD MLOAD SWAP1 POP DUP14 DUP1 PUSH2 0x1A5 JUMP JUMPDEST SWAP1 PUSH1 0x1F NOT DUP4 AND SWAP2 DUP5 PUSH1 0x0 MSTORE DUP2 PUSH1 0x0 KECCAK256 SWAP3 PUSH1 0x0 JUMPDEST DUP2 DUP2 LT PUSH2 0x1497 JUMPI POP SWAP1 DUP5 PUSH1 0x1 SWAP6 SWAP5 SWAP4 SWAP3 LT PUSH2 0x147E JUMPI JUMPDEST POP POP POP DUP2 SHL ADD SWAP1 SSTORE PUSH2 0xDEB JUMP JUMPDEST ADD MLOAD PUSH1 0x0 NOT PUSH1 0xF8 DUP5 PUSH1 0x3 SHL AND SHR NOT AND SWAP1 SSTORE DUP13 DUP1 DUP1 PUSH2 0x1471 JUMP JUMPDEST SWAP3 SWAP4 PUSH1 0x20 PUSH1 0x1 DUP2 SWAP3 DUP8 DUP7 ADD MLOAD DUP2 SSTORE ADD SWAP6 ADD SWAP4 ADD PUSH2 0x145B JUMP JUMPDEST ADD MLOAD SWAP1 POP DUP15 DUP1 PUSH2 0x1A5 JUMP JUMPDEST SWAP1 PUSH1 0x1F NOT DUP4 AND SWAP2 DUP5 PUSH1 0x0 MSTORE DUP2 PUSH1 0x0 KECCAK256 SWAP3 PUSH1 0x0 JUMPDEST DUP2 DUP2 LT PUSH2 0x1509 JUMPI POP SWAP1 DUP5 PUSH1 0x1 SWAP6 SWAP5 SWAP4 SWAP3 LT PUSH2 0x14F0 JUMPI JUMPDEST POP POP POP DUP2 SHL ADD SWAP1 SSTORE PUSH2 0xD94 JUMP JUMPDEST ADD MLOAD PUSH1 0x0 NOT PUSH1 0xF8 DUP5 PUSH1 0x3 SHL AND SHR NOT AND SWAP1 SSTORE DUP14 DUP1 DUP1 PUSH2 0x14E3 JUMP JUMPDEST SWAP3 SWAP4 PUSH1 0x20 PUSH1 0x1 DUP2 SWAP3 DUP8 DUP7 ADD MLOAD DUP2 SSTORE ADD SWAP6 ADD SWAP4 ADD PUSH2 0x14CD JUMP JUMPDEST ADD MLOAD SWAP1 POP DUP16 DUP1 PUSH2 0x1A5 JUMP JUMPDEST SWAP1 PUSH1 0x1F NOT DUP4 AND SWAP2 DUP5 PUSH1 0x0 MSTORE DUP2 PUSH1 0x0 KECCAK256 SWAP3 PUSH1 0x0 JUMPDEST DUP2 DUP2 LT PUSH2 0x157B JUMPI POP SWAP1 DUP5 PUSH1 0x1 SWAP6 SWAP5 SWAP4 SWAP3 LT PUSH2 0x1562 JUMPI JUMPDEST POP POP POP DUP2 SHL ADD SWAP1 SSTORE PUSH2 0xD3D JUMP JUMPDEST ADD MLOAD PUSH1 0x0 NOT PUSH1 0xF8 DUP5 PUSH1 0x3 SHL AND SHR NOT AND SWAP1 SSTORE DUP15 DUP1 DUP1 PUSH2 0x1555 JUMP JUMPDEST SWAP3 SWAP4 PUSH1 0x20 PUSH1 0x1 DUP2 SWAP3 DUP8 DUP7 ADD MLOAD DUP2 SSTORE ADD SWAP6 ADD SWAP4 ADD PUSH2 0x153F JUMP JUMPDEST CALLVALUE PUSH2 0x314 JUMPI PUSH1 0x0 CALLDATASIZE PUSH1 0x3 NOT ADD SLT PUSH2 0x314 JUMPI PUSH1 0x20 SWAP1 PUSH1 0x0 SLOAD DUP2 MSTORE RETURN JUMPDEST PUSH2 0x180 DUP2 ADD SWAP1 DUP2 LT PUSH1 0x1 PUSH1 0x1 PUSH1 0x40 SHL SUB DUP3 GT OR PUSH2 0x27F JUMPI PUSH1 0x40 MSTORE JUMP JUMPDEST PUSH1 0x60 DUP2 ADD SWAP1 DUP2 LT PUSH1 0x1 PUSH1 0x1 PUSH1 0x40 SHL SUB DUP3 GT OR PUSH2 0x27F JUMPI PUSH1 0x40 MSTORE JUMP JUMPDEST SWAP1 PUSH1 0x1F DUP1 NOT SWAP2 ADD AND DUP2 ADD SWAP1 DUP2 LT PUSH1 0x1 PUSH1 0x1 PUSH1 0x40 SHL SUB DUP3 GT OR PUSH2 0x27F JUMPI PUSH1 0x40 MSTORE JUMP JUMPDEST DUP2 PUSH1 0x1F DUP3 ADD SLT ISZERO PUSH2 0x314 JUMPI DUP1 CALLDATALOAD SWAP1 PUSH1 0x1 PUSH1 0x1 PUSH1 0x40 SHL SUB DUP3 GT PUSH2 0x27F JUMPI PUSH1 0x40 MLOAD SWAP3 PUSH2 0x163A PUSH1 0x1F DUP5 ADD PUSH1 0x1F NOT AND PUSH1 0x20 ADD DUP6 PUSH2 0x15E5 JUMP JUMPDEST DUP3 DUP5 MSTORE PUSH1 0x20 DUP4 DUP4 ADD ADD GT PUSH2 0x314 JUMPI DUP2 PUSH1 0x0 SWAP3 PUSH1 0x20 DUP1 SWAP4 ADD DUP4 DUP7 ADD CALLDATACOPY DUP4 ADD ADD MSTORE SWAP1 JUMP JUMPDEST SWAP2 SWAP1 DUP3 MLOAD SWAP3 DUP4 DUP3 MSTORE PUSH1 0x0 JUMPDEST DUP5 DUP2 LT PUSH2 0x1688 JUMPI POP POP DUP3 PUSH1 0x0 PUSH1 0x20 DUP1 SWAP5 SWAP6 DUP5 ADD ADD MSTORE PUSH1 0x1F DUP1 NOT SWAP2 ADD AND ADD ADD SWAP1 JUMP JUMPDEST DUP1 PUSH1 0x20 DUP1 SWAP3 DUP5 ADD ADD MLOAD DUP3 DUP3 DUP7 ADD ADD MSTORE ADD PUSH2 0x1667 JUMP JUMPDEST SWAP1 PUSH1 0x1 DUP3 DUP2 SHR SWAP3 AND DUP1 ISZERO PUSH2 0x16CD JUMPI JUMPDEST PUSH1 0x20 DUP4 LT EQ PUSH2 0x16B7 JUMPI JUMP JUMPDEST PUSH4 0x4E487B71 PUSH1 0xE0 SHL PUSH1 0x0 MSTORE PUSH1 0x22 PUSH1 0x4 MSTORE PUSH1 0x24 PUSH1 0x0 REVERT JUMPDEST SWAP2 PUSH1 0x7F AND SWAP2 PUSH2 0x16AC JUMP JUMPDEST DUP2 DUP2 LT PUSH2 0x16E2 JUMPI POP POP JUMP JUMPDEST PUSH1 0x0 DUP2 SSTORE PUSH1 0x1 ADD PUSH2 0x16D7 JUMP JUMPDEST SWAP2 SWAP1 PUSH1 0x1F DUP2 GT PUSH2 0x16FD JUMPI POP POP POP JUMP JUMPDEST PUSH2 0x1729 SWAP3 PUSH1 0x0 MSTORE PUSH1 0x20 PUSH1 0x0 KECCAK256 SWAP1 PUSH1 0x20 PUSH1 0x1F DUP5 ADD PUSH1 0x5 SHR DUP4 ADD SWAP4 LT PUSH2 0x172B JUMPI JUMPDEST PUSH1 0x1F ADD PUSH1 0x5 SHR ADD SWAP1 PUSH2 0x16D7 JUMP JUMPDEST JUMP JUMPDEST SWAP1 SWAP2 POP DUP2 SWAP1 PUSH2 0x171C JUMP JUMPDEST ISZERO PUSH2 0x173C JUMPI JUMP JUMPDEST PUSH1 0x40 MLOAD PUSH3 0x461BCD PUSH1 0xE5 SHL DUP2 MSTORE PUSH1 0x20 PUSH1 0x4 DUP3 ADD MSTORE PUSH1 0x14 PUSH1 0x24 DUP3 ADD MSTORE PUSH20 0x92DCECC2D8D2C840E4CAE0DEE4E840D2DCC8CAF PUSH1 0x63 SHL PUSH1 0x44 DUP3 ADD MSTORE PUSH1 0x64 SWAP1 REVERT JUMPDEST SWAP1 PUSH1 0x40 MLOAD SWAP2 DUP3 PUSH1 0x0 DUP3 SLOAD SWAP3 PUSH2 0x178C DUP5 PUSH2 0x169D JUMP JUMPDEST DUP1 DUP5 MSTORE SWAP4 PUSH1 0x1 DUP2 AND SWAP1 DUP2 ISZERO PUSH2 0x17F8 JUMPI POP PUSH1 0x1 EQ PUSH2 0x17B1 JUMPI JUMPDEST POP PUSH2 0x1729 SWAP3 POP SUB DUP4 PUSH2 0x15E5 JUMP JUMPDEST SWAP1 POP PUSH1 0x0 SWAP3 SWAP2 SWAP3 MSTORE PUSH1 0x20 PUSH1 0x0 KECCAK256 SWAP1 PUSH1 0x0 SWAP2 JUMPDEST DUP2 DUP4 LT PUSH2 0x17DC JUMPI POP POP SWAP1 PUSH1 0x20 PUSH2 0x1729 SWAP3 DUP3 ADD ADD CODESIZE PUSH2 0x17A4 JUMP JUMPDEST PUSH1 0x20 SWAP2 SWAP4 POP DUP1 PUSH1 0x1 SWAP2 SLOAD DUP4 DUP6 DUP10 ADD ADD MSTORE ADD SWAP2 ADD SWAP1 SWAP2 DUP5 SWAP3 PUSH2 0x17C3 JUMP JUMPDEST SWAP1 POP PUSH1 0x20 SWAP3 POP PUSH2 0x1729 SWAP5 SWAP2 POP PUSH1 0xFF NOT AND DUP3 DUP5 ADD MSTORE ISZERO ISZERO PUSH1 0x5 SHL DUP3 ADD ADD CODESIZE PUSH2 0x17A4 JUMP JUMPDEST PUSH2 0x1824 DUP2 SLOAD PUSH2 0x169D JUMP JUMPDEST SWAP1 DUP2 PUSH2 0x182E JUMPI POP POP JUMP JUMPDEST DUP2 PUSH1 0x1F PUSH1 0x0 SWAP4 GT PUSH1 0x1 EQ PUSH2 0x1840 JUMPI POP SSTORE JUMP JUMPDEST DUP2 DUP4 MSTORE PUSH1 0x20 DUP4 KECCAK256 PUSH2 0x185C SWAP2 PUSH1 0x1F ADD PUSH1 0x5 SHR DUP2 ADD SWAP1 PUSH1 0x1 ADD PUSH2 0x16D7 JUMP JUMPDEST DUP1 DUP3 MSTORE DUP2 PUSH1 0x20 DUP2 KECCAK256 SWAP2 SSTORE SSTORE JUMP JUMPDEST DUP1 SLOAD SWAP1 PUSH1 0x0 DUP2 SSTORE DUP2 PUSH2 0x1879 JUMPI POP POP JUMP JUMPDEST DUP2 PUSH1 0x3 MUL SWAP2 PUSH1 0x3 DUP4 DIV SUB PUSH2 0x633 JUMPI PUSH1 0x0 SWAP1 DUP2 MSTORE PUSH1 0x20 DUP2 KECCAK256 SWAP2 DUP3 ADD SWAP2 JUMPDEST DUP3 DUP2 LT PUSH2 0x18A1 JUMPI POP POP POP JUMP JUMPDEST PUSH1 0x3 SWAP1 DUP3 DUP2 SSTORE PUSH2 0x18B3 PUSH1 0x1 DUP3 ADD PUSH2 0x181A JUMP JUMPDEST PUSH2 0x18BF PUSH1 0x2 DUP3 ADD PUSH2 0x181A JUMP JUMPDEST ADD PUSH2 0x1895 JUMP JUMPDEST SWAP2 SWAP1 SWAP2 DUP3 DUP2 EQ PUSH2 0x199C JUMPI PUSH2 0x18D9 DUP4 SLOAD PUSH2 0x169D JUMP JUMPDEST PUSH1 0x1 PUSH1 0x1 PUSH1 0x40 SHL SUB DUP2 GT PUSH2 0x27F JUMPI PUSH2 0x18F5 DUP2 PUSH2 0x180 DUP5 SLOAD PUSH2 0x169D JUMP JUMPDEST PUSH1 0x0 SWAP4 PUSH1 0x1F DUP3 GT PUSH1 0x1 EQ PUSH2 0x1936 JUMPI PUSH2 0x1927 SWAP3 SWAP4 SWAP5 DUP3 SWAP2 PUSH1 0x0 SWAP3 PUSH2 0x192B JUMPI POP POP DUP2 PUSH1 0x1 SHL SWAP2 PUSH1 0x0 NOT SWAP1 PUSH1 0x3 SHL SHR NOT AND OR SWAP1 JUMP JUMPDEST SWAP1 SSTORE JUMP JUMPDEST ADD SLOAD SWAP1 POP CODESIZE DUP1 PUSH2 0x1A5 JUMP JUMPDEST DUP5 MSTORE PUSH1 0x20 DUP1 DUP6 KECCAK256 DUP4 DUP7 MSTORE SWAP1 DUP6 KECCAK256 SWAP1 SWAP5 PUSH1 0x1F NOT DUP4 AND DUP2 JUMPDEST DUP2 DUP2 LT PUSH2 0x1984 JUMPI POP SWAP6 DUP4 PUSH1 0x1 SWAP6 SWAP7 SWAP8 LT PUSH2 0x196B JUMPI JUMPDEST POP POP POP DUP2 SHL ADD SWAP1 SSTORE JUMP JUMPDEST ADD SLOAD PUSH1 0x0 NOT PUSH1 0xF8 DUP5 PUSH1 0x3 SHL AND SHR NOT AND SWAP1 SSTORE CODESIZE DUP1 DUP1 PUSH2 0x1961 JUMP JUMPDEST SWAP2 SWAP3 PUSH1 0x1 DUP1 PUSH1 0x20 SWAP3 DUP7 DUP12 ADD SLOAD DUP2 SSTORE ADD SWAP5 ADD SWAP3 ADD PUSH2 0x194C JUMP JUMPDEST POP SWAP1 POP JUMP JUMPDEST DUP2 DUP2 SUB PUSH2 0x19AC JUMPI POP POP JUMP JUMPDEST DUP2 SLOAD DUP2 SLOAD PUSH1 0x1 PUSH1 0x1 PUSH1 0xA0 SHL SUB NOT AND PUSH1 0x1 PUSH1 0x1 PUSH1 0xA0 SHL SUB SWAP2 SWAP1 SWAP2 AND OR DUP2 SSTORE PUSH2 0x1729 SWAP2 PUSH1 0x2 SWAP1 DUP2 SWAP1 PUSH2 0x911 PUSH1 0x1 DUP1 DUP4 ADD SWAP1 DUP7 ADD PUSH2 0x18C5 JUMP JUMPDEST DUP2 DUP2 EQ PUSH2 0x1AA0 JUMPI DUP2 SLOAD SWAP2 PUSH1 0x1 PUSH1 0x40 SHL DUP4 GT PUSH2 0x27F JUMPI DUP2 SLOAD DUP4 DUP4 SSTORE DUP1 DUP5 LT PUSH2 0x1A43 JUMPI JUMPDEST POP PUSH1 0x0 MSTORE PUSH1 0x20 PUSH1 0x0 KECCAK256 SWAP1 PUSH1 0x0 MSTORE PUSH1 0x20 PUSH1 0x0 KECCAK256 PUSH1 0x0 SWAP2 JUMPDEST DUP4 DUP4 LT PUSH2 0x1A27 JUMPI POP POP POP POP JUMP JUMPDEST PUSH1 0x3 DUP1 DUP3 PUSH2 0x1A37 PUSH1 0x1 SWAP5 DUP7 PUSH2 0x19A1 JUMP JUMPDEST ADD SWAP3 ADD SWAP3 ADD SWAP2 SWAP1 PUSH2 0x1A1A JUMP JUMPDEST DUP1 PUSH1 0x3 MUL SWAP1 PUSH1 0x3 DUP3 DIV SUB PUSH2 0x633 JUMPI DUP4 PUSH1 0x3 MUL PUSH1 0x3 DUP2 DIV DUP6 SUB PUSH2 0x633 JUMPI DUP4 PUSH1 0x0 MSTORE PUSH1 0x20 PUSH1 0x0 KECCAK256 SWAP2 DUP3 ADD SWAP2 ADD JUMPDEST DUP2 DUP2 LT PUSH2 0x1A7B JUMPI POP PUSH2 0x1A04 JUMP JUMPDEST PUSH1 0x3 SWAP1 PUSH1 0x0 DUP2 SSTORE PUSH2 0x1A8E PUSH1 0x1 DUP3 ADD PUSH2 0x181A JUMP JUMPDEST PUSH2 0x1A9A PUSH1 0x2 DUP3 ADD PUSH2 0x181A JUMP JUMPDEST ADD PUSH2 0x1A6E JUMP JUMPDEST POP POP JUMP JUMPDEST ISZERO PUSH2 0x1AAB JUMPI JUMP JUMPDEST PUSH1 0x40 MLOAD PUSH3 0x461BCD PUSH1 0xE5 SHL DUP2 MSTORE PUSH1 0x20 PUSH1 0x4 DUP3 ADD MSTORE PUSH1 0x24 DUP1 DUP3 ADD MSTORE PUSH32 0x596F7520617265206E6F7420746865206F776E6572206F662074686973207265 PUSH1 0x44 DUP3 ADD MSTORE PUSH4 0x1C1BDC9D PUSH1 0xE2 SHL PUSH1 0x64 DUP3 ADD MSTORE PUSH1 0x84 SWAP1 REVERT JUMPDEST DUP1 SLOAD DUP3 LT ISZERO PUSH2 0x1B18 JUMPI PUSH1 0x0 MSTORE PUSH1 0x3 PUSH1 0x20 PUSH1 0x0 KECCAK256 SWAP2 MUL ADD SWAP1 PUSH1 0x0 SWAP1 JUMP JUMPDEST PUSH4 0x4E487B71 PUSH1 0xE0 SHL PUSH1 0x0 MSTORE PUSH1 0x32 PUSH1 0x4 MSTORE PUSH1 0x24 PUSH1 0x0 REVERT INVALID LOG2 PUSH5 0x6970667358 0x22 SLT KECCAK256 DUP3 CODECOPY PUSH4 0x2C20FCF2 NUMBER SMOD DUP11 RETURNDATASIZE ADD MOD PUSH26 0xA7FBEE733652C0217A5AC981E9D3A8D84EBB64736F6C63430008 SHR STOP CALLER "
        },
        "methodIdentifiers": {
          "addDisasterImage(uint256,string,string)": "e975cb08",
          "createDisasterReport(string,string,string,string,string,string,string,string,string,string,string)": "6a9c4fb0",
          "deleteDisasterImage(uint256,uint256)": "db5b714f",
          "deleteDisasterReport(uint256)": "c03d9f81",
          "getDisasterImages(uint256)": "9e35b5ae",
          "getDisasterReport(uint256)": "dd1c4fab",
          "getDisasterReportLength()": "098da0b2"
        }
      }
    }
  }
}