{
  "contracts/EventChain.sol": {
    "EventChain": {
      "abi": [
        {
          "inputs": [
            {
              "internalType": "address[]",
              "name": "_supportedTokens",
              "type": "address[]"
            }
          ],
          "stateMutability": "nonpayable",
          "type": "constructor"
        },
        {
          "inputs": [],
          "name": "ReentrancyGuardReentrantCall",
          "type": "error"
        },
        {
          "inputs": [
            {
              "internalType": "address",
              "name": "token",
              "type": "address"
            }
          ],
          "name": "SafeERC20FailedOperation",
          "type": "error"
        },
        {
          "anonymous": false,
          "inputs": [
            {
              "indexed": true,
              "internalType": "uint256",
              "name": "eventId",
              "type": "uint256"
            }
          ],
          "name": "EventCanceled",
          "type": "event"
        },
        {
          "anonymous": false,
          "inputs": [
            {
              "indexed": true,
              "internalType": "uint256",
              "name": "eventId",
              "type": "uint256"
            },
            {
              "indexed": true,
              "internalType": "address",
              "name": "owner",
              "type": "address"
            },
            {
              "indexed": false,
              "internalType": "string",
              "name": "eventName",
              "type": "string"
            }
          ],
          "name": "EventCreated",
          "type": "event"
        },
        {
          "anonymous": false,
          "inputs": [
            {
              "indexed": true,
              "internalType": "uint256",
              "name": "eventId",
              "type": "uint256"
            },
            {
              "indexed": true,
              "internalType": "address",
              "name": "owner",
              "type": "address"
            },
            {
              "indexed": false,
              "internalType": "string",
              "name": "eventName",
              "type": "string"
            }
          ],
          "name": "EventUpdated",
          "type": "event"
        },
        {
          "anonymous": false,
          "inputs": [
            {
              "indexed": true,
              "internalType": "uint256",
              "name": "eventId",
              "type": "uint256"
            },
            {
              "indexed": false,
              "internalType": "uint256",
              "name": "amount",
              "type": "uint256"
            }
          ],
          "name": "FundsReleased",
          "type": "event"
        },
        {
          "anonymous": false,
          "inputs": [
            {
              "indexed": true,
              "internalType": "uint256",
              "name": "eventId",
              "type": "uint256"
            },
            {
              "indexed": true,
              "internalType": "address",
              "name": "user",
              "type": "address"
            },
            {
              "indexed": false,
              "internalType": "uint256",
              "name": "amount",
              "type": "uint256"
            }
          ],
          "name": "RefundIssued",
          "type": "event"
        },
        {
          "anonymous": false,
          "inputs": [
            {
              "indexed": true,
              "internalType": "address",
              "name": "user",
              "type": "address"
            },
            {
              "indexed": false,
              "internalType": "uint256",
              "name": "amount",
              "type": "uint256"
            }
          ],
          "name": "Refunded",
          "type": "event"
        },
        {
          "anonymous": false,
          "inputs": [
            {
              "indexed": true,
              "internalType": "uint256",
              "name": "eventId",
              "type": "uint256"
            },
            {
              "indexed": true,
              "internalType": "address",
              "name": "buyer",
              "type": "address"
            },
            {
              "indexed": false,
              "internalType": "uint256",
              "name": "amount",
              "type": "uint256"
            },
            {
              "indexed": false,
              "internalType": "address",
              "name": "paymentToken",
              "type": "address"
            }
          ],
          "name": "TicketPurchased",
          "type": "event"
        },
        {
          "anonymous": false,
          "inputs": [
            {
              "indexed": true,
              "internalType": "address",
              "name": "buyer",
              "type": "address"
            },
            {
              "indexed": false,
              "internalType": "uint256",
              "name": "count",
              "type": "uint256"
            },
            {
              "indexed": false,
              "internalType": "uint256",
              "name": "totalAmount",
              "type": "uint256"
            }
          ],
          "name": "TicketPurchased",
          "type": "event"
        },
        {
          "inputs": [],
          "name": "CELO",
          "outputs": [
            {
              "internalType": "address",
              "name": "",
              "type": "address"
            }
          ],
          "stateMutability": "view",
          "type": "function"
        },
        {
          "inputs": [],
          "name": "MAX_ATTENDEES",
          "outputs": [
            {
              "internalType": "uint256",
              "name": "",
              "type": "uint256"
            }
          ],
          "stateMutability": "view",
          "type": "function"
        },
        {
          "inputs": [],
          "name": "MAX_DETAILS_LENGTH",
          "outputs": [
            {
              "internalType": "uint256",
              "name": "",
              "type": "uint256"
            }
          ],
          "stateMutability": "view",
          "type": "function"
        },
        {
          "inputs": [],
          "name": "MAX_LOCATION_LENGTH",
          "outputs": [
            {
              "internalType": "uint256",
              "name": "",
              "type": "uint256"
            }
          ],
          "stateMutability": "view",
          "type": "function"
        },
        {
          "inputs": [],
          "name": "MAX_NAME_LENGTH",
          "outputs": [
            {
              "internalType": "uint256",
              "name": "",
              "type": "uint256"
            }
          ],
          "stateMutability": "view",
          "type": "function"
        },
        {
          "inputs": [],
          "name": "MAX_TICKET_PRICE",
          "outputs": [
            {
              "internalType": "uint256",
              "name": "",
              "type": "uint256"
            }
          ],
          "stateMutability": "view",
          "type": "function"
        },
        {
          "inputs": [],
          "name": "MAX_URL_LENGTH",
          "outputs": [
            {
              "internalType": "uint256",
              "name": "",
              "type": "uint256"
            }
          ],
          "stateMutability": "view",
          "type": "function"
        },
        {
          "inputs": [],
          "name": "MIN_EVENT_DURATION",
          "outputs": [
            {
              "internalType": "uint256",
              "name": "",
              "type": "uint256"
            }
          ],
          "stateMutability": "view",
          "type": "function"
        },
        {
          "inputs": [],
          "name": "REFUND_BUFFER",
          "outputs": [
            {
              "internalType": "uint256",
              "name": "",
              "type": "uint256"
            }
          ],
          "stateMutability": "view",
          "type": "function"
        },
        {
          "inputs": [
            {
              "internalType": "uint256",
              "name": "_index",
              "type": "uint256"
            }
          ],
          "name": "buyTicket",
          "outputs": [],
          "stateMutability": "payable",
          "type": "function"
        },
        {
          "inputs": [
            {
              "internalType": "uint256",
              "name": "count",
              "type": "uint256"
            }
          ],
          "name": "buyTicketx",
          "outputs": [],
          "stateMutability": "nonpayable",
          "type": "function"
        },
        {
          "inputs": [
            {
              "internalType": "uint256",
              "name": "_index",
              "type": "uint256"
            }
          ],
          "name": "cancelEvent",
          "outputs": [],
          "stateMutability": "nonpayable",
          "type": "function"
        },
        {
          "inputs": [
            {
              "internalType": "uint256",
              "name": "",
              "type": "uint256"
            }
          ],
          "name": "celoFundsHeld",
          "outputs": [
            {
              "internalType": "uint256",
              "name": "",
              "type": "uint256"
            }
          ],
          "stateMutability": "view",
          "type": "function"
        },
        {
          "inputs": [
            {
              "internalType": "string",
              "name": "_eventName",
              "type": "string"
            },
            {
              "internalType": "string",
              "name": "_eventCardImgUrl",
              "type": "string"
            },
            {
              "internalType": "string",
              "name": "_eventDetails",
              "type": "string"
            },
            {
              "internalType": "uint64",
              "name": "_startDate",
              "type": "uint64"
            },
            {
              "internalType": "uint64",
              "name": "_endDate",
              "type": "uint64"
            },
            {
              "internalType": "uint64",
              "name": "_startTime",
              "type": "uint64"
            },
            {
              "internalType": "uint64",
              "name": "_endTime",
              "type": "uint64"
            },
            {
              "internalType": "string",
              "name": "_eventLocation",
              "type": "string"
            },
            {
              "internalType": "uint256",
              "name": "_ticketPrice",
              "type": "uint256"
            },
            {
              "internalType": "uint256",
              "name": "_minimumAge",
              "type": "uint256"
            },
            {
              "internalType": "address",
              "name": "_paymentToken",
              "type": "address"
            }
          ],
          "name": "createEvent",
          "outputs": [],
          "stateMutability": "nonpayable",
          "type": "function"
        },
        {
          "inputs": [
            {
              "internalType": "uint256",
              "name": "",
              "type": "uint256"
            }
          ],
          "name": "events",
          "outputs": [
            {
              "internalType": "address",
              "name": "owner",
              "type": "address"
            },
            {
              "internalType": "string",
              "name": "eventName",
              "type": "string"
            },
            {
              "internalType": "string",
              "name": "eventCardImgUrl",
              "type": "string"
            },
            {
              "internalType": "string",
              "name": "eventDetails",
              "type": "string"
            },
            {
              "internalType": "uint64",
              "name": "startDate",
              "type": "uint64"
            },
            {
              "internalType": "uint64",
              "name": "endDate",
              "type": "uint64"
            },
            {
              "internalType": "uint64",
              "name": "startTime",
              "type": "uint64"
            },
            {
              "internalType": "uint64",
              "name": "endTime",
              "type": "uint64"
            },
            {
              "internalType": "string",
              "name": "eventLocation",
              "type": "string"
            },
            {
              "internalType": "bool",
              "name": "isActive",
              "type": "bool"
            },
            {
              "internalType": "uint256",
              "name": "ticketPrice",
              "type": "uint256"
            },
            {
              "internalType": "uint256",
              "name": "fundsHeld",
              "type": "uint256"
            },
            {
              "internalType": "uint256",
              "name": "minimumAge",
              "type": "uint256"
            },
            {
              "internalType": "bool",
              "name": "isCanceled",
              "type": "bool"
            },
            {
              "internalType": "bool",
              "name": "fundsReleased",
              "type": "bool"
            },
            {
              "internalType": "address",
              "name": "paymentToken",
              "type": "address"
            }
          ],
          "stateMutability": "view",
          "type": "function"
        },
        {
          "inputs": [],
          "name": "getActiveEventsByCreator",
          "outputs": [
            {
              "internalType": "uint256[]",
              "name": "",
              "type": "uint256[]"
            },
            {
              "components": [
                {
                  "internalType": "address",
                  "name": "owner",
                  "type": "address"
                },
                {
                  "internalType": "string",
                  "name": "eventName",
                  "type": "string"
                },
                {
                  "internalType": "string",
                  "name": "eventCardImgUrl",
                  "type": "string"
                },
                {
                  "internalType": "string",
                  "name": "eventDetails",
                  "type": "string"
                },
                {
                  "internalType": "uint64",
                  "name": "startDate",
                  "type": "uint64"
                },
                {
                  "internalType": "uint64",
                  "name": "endDate",
                  "type": "uint64"
                },
                {
                  "internalType": "uint64",
                  "name": "startTime",
                  "type": "uint64"
                },
                {
                  "internalType": "uint64",
                  "name": "endTime",
                  "type": "uint64"
                },
                {
                  "internalType": "string",
                  "name": "eventLocation",
                  "type": "string"
                },
                {
                  "internalType": "bool",
                  "name": "isActive",
                  "type": "bool"
                },
                {
                  "internalType": "uint256",
                  "name": "ticketPrice",
                  "type": "uint256"
                },
                {
                  "internalType": "uint256",
                  "name": "fundsHeld",
                  "type": "uint256"
                },
                {
                  "internalType": "uint256",
                  "name": "minimumAge",
                  "type": "uint256"
                },
                {
                  "internalType": "bool",
                  "name": "isCanceled",
                  "type": "bool"
                },
                {
                  "internalType": "bool",
                  "name": "fundsReleased",
                  "type": "bool"
                },
                {
                  "internalType": "address",
                  "name": "paymentToken",
                  "type": "address"
                }
              ],
              "internalType": "struct EventChain.Event[]",
              "name": "",
              "type": "tuple[]"
            }
          ],
          "stateMutability": "view",
          "type": "function"
        },
        {
          "inputs": [],
          "name": "getAllEvents",
          "outputs": [
            {
              "internalType": "uint256[]",
              "name": "",
              "type": "uint256[]"
            },
            {
              "components": [
                {
                  "internalType": "address",
                  "name": "owner",
                  "type": "address"
                },
                {
                  "internalType": "string",
                  "name": "eventName",
                  "type": "string"
                },
                {
                  "internalType": "string",
                  "name": "eventCardImgUrl",
                  "type": "string"
                },
                {
                  "internalType": "string",
                  "name": "eventDetails",
                  "type": "string"
                },
                {
                  "internalType": "uint64",
                  "name": "startDate",
                  "type": "uint64"
                },
                {
                  "internalType": "uint64",
                  "name": "endDate",
                  "type": "uint64"
                },
                {
                  "internalType": "uint64",
                  "name": "startTime",
                  "type": "uint64"
                },
                {
                  "internalType": "uint64",
                  "name": "endTime",
                  "type": "uint64"
                },
                {
                  "internalType": "string",
                  "name": "eventLocation",
                  "type": "string"
                },
                {
                  "internalType": "bool",
                  "name": "isActive",
                  "type": "bool"
                },
                {
                  "internalType": "uint256",
                  "name": "ticketPrice",
                  "type": "uint256"
                },
                {
                  "internalType": "uint256",
                  "name": "fundsHeld",
                  "type": "uint256"
                },
                {
                  "internalType": "uint256",
                  "name": "minimumAge",
                  "type": "uint256"
                },
                {
                  "internalType": "bool",
                  "name": "isCanceled",
                  "type": "bool"
                },
                {
                  "internalType": "bool",
                  "name": "fundsReleased",
                  "type": "bool"
                },
                {
                  "internalType": "address",
                  "name": "paymentToken",
                  "type": "address"
                }
              ],
              "internalType": "struct EventChain.Event[]",
              "name": "",
              "type": "tuple[]"
            }
          ],
          "stateMutability": "view",
          "type": "function"
        },
        {
          "inputs": [
            {
              "internalType": "uint256",
              "name": "_index",
              "type": "uint256"
            }
          ],
          "name": "getAttendees",
          "outputs": [
            {
              "internalType": "address[]",
              "name": "",
              "type": "address[]"
            }
          ],
          "stateMutability": "view",
          "type": "function"
        },
        {
          "inputs": [
            {
              "internalType": "uint256",
              "name": "_index",
              "type": "uint256"
            }
          ],
          "name": "getEventById",
          "outputs": [
            {
              "components": [
                {
                  "internalType": "address",
                  "name": "owner",
                  "type": "address"
                },
                {
                  "internalType": "string",
                  "name": "eventName",
                  "type": "string"
                },
                {
                  "internalType": "string",
                  "name": "eventCardImgUrl",
                  "type": "string"
                },
                {
                  "internalType": "string",
                  "name": "eventDetails",
                  "type": "string"
                },
                {
                  "internalType": "uint64",
                  "name": "startDate",
                  "type": "uint64"
                },
                {
                  "internalType": "uint64",
                  "name": "endDate",
                  "type": "uint64"
                },
                {
                  "internalType": "uint64",
                  "name": "startTime",
                  "type": "uint64"
                },
                {
                  "internalType": "uint64",
                  "name": "endTime",
                  "type": "uint64"
                },
                {
                  "internalType": "string",
                  "name": "eventLocation",
                  "type": "string"
                },
                {
                  "internalType": "bool",
                  "name": "isActive",
                  "type": "bool"
                },
                {
                  "internalType": "uint256",
                  "name": "ticketPrice",
                  "type": "uint256"
                },
                {
                  "internalType": "uint256",
                  "name": "fundsHeld",
                  "type": "uint256"
                },
                {
                  "internalType": "uint256",
                  "name": "minimumAge",
                  "type": "uint256"
                },
                {
                  "internalType": "bool",
                  "name": "isCanceled",
                  "type": "bool"
                },
                {
                  "internalType": "bool",
                  "name": "fundsReleased",
                  "type": "bool"
                },
                {
                  "internalType": "address",
                  "name": "paymentToken",
                  "type": "address"
                }
              ],
              "internalType": "struct EventChain.Event",
              "name": "",
              "type": "tuple"
            },
            {
              "internalType": "address[]",
              "name": "",
              "type": "address[]"
            },
            {
              "components": [
                {
                  "internalType": "address",
                  "name": "owner",
                  "type": "address"
                },
                {
                  "internalType": "string",
                  "name": "eventName",
                  "type": "string"
                },
                {
                  "internalType": "string",
                  "name": "eventCardImgUrl",
                  "type": "string"
                },
                {
                  "internalType": "string",
                  "name": "eventDetails",
                  "type": "string"
                },
                {
                  "internalType": "uint64",
                  "name": "startDate",
                  "type": "uint64"
                },
                {
                  "internalType": "uint64",
                  "name": "endDate",
                  "type": "uint64"
                },
                {
                  "internalType": "uint64",
                  "name": "startTime",
                  "type": "uint64"
                },
                {
                  "internalType": "uint64",
                  "name": "endTime",
                  "type": "uint64"
                },
                {
                  "internalType": "string",
                  "name": "eventLocation",
                  "type": "string"
                },
                {
                  "internalType": "bool",
                  "name": "isActive",
                  "type": "bool"
                },
                {
                  "internalType": "uint256",
                  "name": "ticketPrice",
                  "type": "uint256"
                },
                {
                  "internalType": "uint256",
                  "name": "fundsHeld",
                  "type": "uint256"
                },
                {
                  "internalType": "uint256",
                  "name": "minimumAge",
                  "type": "uint256"
                },
                {
                  "internalType": "bool",
                  "name": "isCanceled",
                  "type": "bool"
                },
                {
                  "internalType": "bool",
                  "name": "fundsReleased",
                  "type": "bool"
                },
                {
                  "internalType": "address",
                  "name": "paymentToken",
                  "type": "address"
                }
              ],
              "internalType": "struct EventChain.Event[]",
              "name": "",
              "type": "tuple[]"
            }
          ],
          "stateMutability": "view",
          "type": "function"
        },
        {
          "inputs": [],
          "name": "getEventLength",
          "outputs": [
            {
              "internalType": "uint256",
              "name": "",
              "type": "uint256"
            }
          ],
          "stateMutability": "view",
          "type": "function"
        },
        {
          "inputs": [
            {
              "internalType": "address",
              "name": "_creator",
              "type": "address"
            }
          ],
          "name": "getEventsByCreator",
          "outputs": [
            {
              "components": [
                {
                  "internalType": "address",
                  "name": "owner",
                  "type": "address"
                },
                {
                  "internalType": "string",
                  "name": "eventName",
                  "type": "string"
                },
                {
                  "internalType": "string",
                  "name": "eventCardImgUrl",
                  "type": "string"
                },
                {
                  "internalType": "string",
                  "name": "eventDetails",
                  "type": "string"
                },
                {
                  "internalType": "uint64",
                  "name": "startDate",
                  "type": "uint64"
                },
                {
                  "internalType": "uint64",
                  "name": "endDate",
                  "type": "uint64"
                },
                {
                  "internalType": "uint64",
                  "name": "startTime",
                  "type": "uint64"
                },
                {
                  "internalType": "uint64",
                  "name": "endTime",
                  "type": "uint64"
                },
                {
                  "internalType": "string",
                  "name": "eventLocation",
                  "type": "string"
                },
                {
                  "internalType": "bool",
                  "name": "isActive",
                  "type": "bool"
                },
                {
                  "internalType": "uint256",
                  "name": "ticketPrice",
                  "type": "uint256"
                },
                {
                  "internalType": "uint256",
                  "name": "fundsHeld",
                  "type": "uint256"
                },
                {
                  "internalType": "uint256",
                  "name": "minimumAge",
                  "type": "uint256"
                },
                {
                  "internalType": "bool",
                  "name": "isCanceled",
                  "type": "bool"
                },
                {
                  "internalType": "bool",
                  "name": "fundsReleased",
                  "type": "bool"
                },
                {
                  "internalType": "address",
                  "name": "paymentToken",
                  "type": "address"
                }
              ],
              "internalType": "struct EventChain.Event[]",
              "name": "",
              "type": "tuple[]"
            }
          ],
          "stateMutability": "view",
          "type": "function"
        },
        {
          "inputs": [],
          "name": "getUserEvents",
          "outputs": [
            {
              "internalType": "uint256[]",
              "name": "",
              "type": "uint256[]"
            },
            {
              "components": [
                {
                  "internalType": "address",
                  "name": "owner",
                  "type": "address"
                },
                {
                  "internalType": "string",
                  "name": "eventName",
                  "type": "string"
                },
                {
                  "internalType": "string",
                  "name": "eventCardImgUrl",
                  "type": "string"
                },
                {
                  "internalType": "string",
                  "name": "eventDetails",
                  "type": "string"
                },
                {
                  "internalType": "uint64",
                  "name": "startDate",
                  "type": "uint64"
                },
                {
                  "internalType": "uint64",
                  "name": "endDate",
                  "type": "uint64"
                },
                {
                  "internalType": "uint64",
                  "name": "startTime",
                  "type": "uint64"
                },
                {
                  "internalType": "uint64",
                  "name": "endTime",
                  "type": "uint64"
                },
                {
                  "internalType": "string",
                  "name": "eventLocation",
                  "type": "string"
                },
                {
                  "internalType": "bool",
                  "name": "isActive",
                  "type": "bool"
                },
                {
                  "internalType": "uint256",
                  "name": "ticketPrice",
                  "type": "uint256"
                },
                {
                  "internalType": "uint256",
                  "name": "fundsHeld",
                  "type": "uint256"
                },
                {
                  "internalType": "uint256",
                  "name": "minimumAge",
                  "type": "uint256"
                },
                {
                  "internalType": "bool",
                  "name": "isCanceled",
                  "type": "bool"
                },
                {
                  "internalType": "bool",
                  "name": "fundsReleased",
                  "type": "bool"
                },
                {
                  "internalType": "address",
                  "name": "paymentToken",
                  "type": "address"
                }
              ],
              "internalType": "struct EventChain.Event[]",
              "name": "",
              "type": "tuple[]"
            }
          ],
          "stateMutability": "view",
          "type": "function"
        },
        {
          "inputs": [
            {
              "internalType": "uint256",
              "name": "",
              "type": "uint256"
            },
            {
              "internalType": "address",
              "name": "",
              "type": "address"
            }
          ],
          "name": "hasPurchasedTicket",
          "outputs": [
            {
              "internalType": "bool",
              "name": "",
              "type": "bool"
            }
          ],
          "stateMutability": "view",
          "type": "function"
        },
        {
          "inputs": [
            {
              "internalType": "address",
              "name": "from",
              "type": "address"
            },
            {
              "internalType": "uint256",
              "name": "value",
              "type": "uint256"
            },
            {
              "internalType": "bytes",
              "name": "data",
              "type": "bytes"
            }
          ],
          "name": "onTokenTransfer",
          "outputs": [
            {
              "internalType": "bool",
              "name": "",
              "type": "bool"
            }
          ],
          "stateMutability": "nonpayable",
          "type": "function"
        },
        {
          "inputs": [],
          "name": "paused",
          "outputs": [
            {
              "internalType": "bool",
              "name": "",
              "type": "bool"
            }
          ],
          "stateMutability": "view",
          "type": "function"
        },
        {
          "inputs": [
            {
              "internalType": "address",
              "name": "user",
              "type": "address"
            }
          ],
          "name": "refund",
          "outputs": [],
          "stateMutability": "nonpayable",
          "type": "function"
        },
        {
          "inputs": [
            {
              "internalType": "uint256",
              "name": "_index",
              "type": "uint256"
            }
          ],
          "name": "releaseFunds",
          "outputs": [],
          "stateMutability": "nonpayable",
          "type": "function"
        },
        {
          "inputs": [
            {
              "internalType": "uint256",
              "name": "_index",
              "type": "uint256"
            }
          ],
          "name": "requestRefund",
          "outputs": [],
          "stateMutability": "nonpayable",
          "type": "function"
        },
        {
          "inputs": [
            {
              "internalType": "address",
              "name": "",
              "type": "address"
            }
          ],
          "name": "supportedTokens",
          "outputs": [
            {
              "internalType": "bool",
              "name": "",
              "type": "bool"
            }
          ],
          "stateMutability": "view",
          "type": "function"
        },
        {
          "inputs": [],
          "name": "ticketPrice",
          "outputs": [
            {
              "internalType": "uint256",
              "name": "",
              "type": "uint256"
            }
          ],
          "stateMutability": "view",
          "type": "function"
        },
        {
          "inputs": [
            {
              "internalType": "address",
              "name": "",
              "type": "address"
            }
          ],
          "name": "ticketsBought",
          "outputs": [
            {
              "internalType": "uint256",
              "name": "",
              "type": "uint256"
            }
          ],
          "stateMutability": "view",
          "type": "function"
        },
        {
          "inputs": [],
          "name": "ubiPool",
          "outputs": [
            {
              "internalType": "address",
              "name": "",
              "type": "address"
            }
          ],
          "stateMutability": "view",
          "type": "function"
        },
        {
          "inputs": [],
          "name": "usdt",
          "outputs": [
            {
              "internalType": "contract IERC20",
              "name": "",
              "type": "address"
            }
          ],
          "stateMutability": "view",
          "type": "function"
        },
        {
          "stateMutability": "payable",
          "type": "receive"
        }
      ],
      "evm": {
        "bytecode": {
          "linkReferences": {},
          "object": "60a06040523461017f576138de803803806100198161019a565b92833981019060208183031261017f578051906001600160401b03821161017f570181601f8201121561017f578051916001600160401b038311610184578260051b9160208061006a81860161019a565b80968152019382010191821161017f57602001915b81831061015f576001600081815560028054610100600160a81b0319167443d72ff17701b2da814620735c39c620ce0ea4a10017905580805260208290527fa6eef7e35abe7026729641147f7915573c7e97b47efa546f5f6e3230263bcb49805460ff191690921790915584905b815181101561013957600581901b820160200151600191906001600160a01b031660008161011e575b5050016100ed565b604091815283602052208260ff198254161790558380610116565b60405161371e90816101c082396080518181816101ff01528181611f07015261284e0152f35b82516001600160a01b038116810361017f5781526020928301920161007f565b600080fd5b634e487b7160e01b600052604160045260246000fd5b6040519190601f01601f191682016001600160401b038111838210176101845760405256fe6080604052600436101561001b575b361561001957600080fd5b005b60003560e01c80630b791430146129fb5780630f977561146129065780631209b1f6146128e85780631ac78969146128cb578063200205811461287d5780632f48ab7d146128385780633f69babd1461274e578063439fd35f146126f65780634d06755f146126ca5780634d68282f1461243757806350d9c62d1461241a5780635c975abb146123f75780635c98dfa1146123d9578063617148e5146123bc57806367dd74ca14611ff557806368c4ac2614611fb65780636ff3eb5e14611eb65780637b426cbf14611e9957806384bd326414611e5f5780638607498514611e43578063a06f7da714611e16578063a4b2409e146119f1578063a4c0ed361461167e578063abf45ec814611662578063b5e412871461163d578063b98079bc1461154b578063c27a500d14611497578063cb71146e1461147b578063ccfd6d3c1461134f578063e0c14377146112fe578063f57c7ad814610289578063f60e673e1461026d5763fa89401a0361000e5734610268576020366003190112610268576101a4612ed4565b6001600160a01b0381166000818152600960205260409020549091811561022c57816102237fd7dee2702d63ad89917b6a4da9981c90c4d24f8c2bdfd64c604ecae57d8d0651936020938660005260098552600060408120557f0000000000000000000000000000000000000000000000000000000000000000613580565b604051908152a2005b60405162461bcd60e51b8152602060048201526014602482015273139bc81d1a58dad95d1cc81d1bc81c99599d5b9960621b6044820152606490fd5b600080fd5b3461026857600036600319011261026857602060405160008152f35b3461026857610160366003190112610268576004356001600160401b038111610268576102ba903690600401612eea565b906024356001600160401b038111610268576102da903690600401612eea565b906044356001600160401b038111610268576102fa903690600401612eea565b906064356001600160401b038116809103610268576084356001600160401b0381168091036102685760a4356001600160401b0381168091036102685760c435916001600160401b0383168093036102685760e4356001600160401b0381116102685761036b903690600401612eea565b9490956101043597610144359960018060a01b038b16809b036102685761039760ff60025416156132a5565b8d15158e816112f2575b50156112be578b1515806112b3575b156112805781151580611274575b1561123d5787151580611232575b156111fa57891515806111e6575b156111b15742841061116c57610e108401808511610a7c578510611132578a600052600160205260ff60406000205416156110f9578c9b8e6040519d8e9161042183612bed565b338352369061042f92613527565b9060200152369061043f92613527565b60408c0152369061044f92613527565b60608a0152608089015260a088015260c087015260e0860152369061047392613527565b610100840152600161012084015261014083015260006101608301819052610124356101808401526101a083018190526101c08301526101e0820152600354600160401b811015610b53578060016104d092016003556003612b97565b610db257815181546001600160a01b0319166001600160a01b039190911617815560208201518051906001600160401b038211610b535781906105166001850154612bb3565b601f81116110a6575b50602090601f83116001146110355760009261102a575b50508160011b916000199060031b1c19161760018201555b60408201518051906001600160401b038211610b535781906105736002850154612bb3565b601f8111610fd7575b50602090601f8311600114610f6657600092610f5b575b50508160011b916000199060031b1c19161760028201555b60608201518051906001600160401b038211610b535781906105d06003850154612bb3565b601f8111610f08575b50602090601f8311600114610e9757600092610e8c575b50508160011b916000199060031b1c19161760038201555b60808281015160a084015160c08086015160e087015160409390931b67ffffffffffffffff60401b166001600160401b0394851617941b67ffffffffffffffff60801b1693909317921b6001600160c01b0319169190911760048301556101008301518051918211610b53576106816005840154612bb3565b601f8111610e45575b50602090601f8311600114610dd357600a93929160009183610dc8575b50508160011b916000199060031b1c19161760058201555b6106df6101208401511515600683019060ff801983541691151516179055565b6101408301516007820155610160830151600882015561018083015160098201550161071e6101a08301511515829060ff801983541691151516179055565b6101c0820151815461ff00191690151560081b61ff00161781556101e0820151815462010000600160b01b03191660109190911b62010000600160b01b03161790553360009081526005602052604090208054600160401b811015610b535761078c91600182018155612b97565b610db257815181546001600160a01b0319166001600160a01b03919091161781556020820151805160018301916001600160401b038211610b535781906107d38454612bb3565b601f8111610d5f575b50602090601f8311600114610cfa57600092610cef575b50508160011b916000199060031b1c19161790555b6002810160408301518051906001600160401b038211610b5357819061082e8454612bb3565b601f8111610c9c575b50602090601f8311600114610c3757600092610c2c575b50508160011b916000199060031b1c19161790555b6003810160608301518051906001600160401b038211610b535781906108898454612bb3565b601f8111610bd9575b50602090601f8311600114610b7457600092610b69575b50508160011b916000199060031b1c19161790555b60808281015160a084015160c08086015160e087015160409390931b67ffffffffffffffff60401b166001600160401b0394851617941b67ffffffffffffffff60801b1693909317921b6001600160c01b031916919091176004830155610100830151805160058401929091908211610b535761093b8354612bb3565b601f8111610b0b575b50602090601f8311600114610a9d579180600a94926101e09694600092610a92575b50508160011b916000199060031b1c19161790555b61099b6101208501511515600683019060ff801983541691151516179055565b61014084015160078201556101608401516008820155610180840151600982015501916109db6101a08201511515849060ff801983541691151516179055565b6101c0810151835461ff00191690151560081b61ff00161783550151815462010000600160b01b03191660109190911b62010000600160b01b0316179055600354600019810191908211610a7c577ffc695dea2478fb938a11068aeedddd7046a5fe655f136e30a325d353fe187a459083604051916020835281602084015260408301376000604085830101526040813395601f80199101168101030190a3005b634e487b7160e01b600052601160045260246000fd5b015190508980610966565b90601f1983169184600052816000209260005b818110610af357509260019285926101e09896600a989610610ada575b505050811b01905561097b565b015160001960f88460031b161c19169055898080610acd565b92936020600181928786015181550195019301610ab0565b836000526020600020601f840160051c81019160208510610b49575b601f0160051c01905b818110610b3d5750610944565b60008155600101610b30565b9091508190610b27565b634e487b7160e01b600052604160045260246000fd5b0151905087806108a9565b60008581528281209350601f198516905b818110610bc15750908460019594939210610ba8575b505050811b0190556108be565b015160001960f88460031b161c19169055878080610b9b565b92936020600181928786015181550195019301610b85565b909150836000526020600020601f840160051c81019160208510610c22575b90601f859493920160051c01905b818110610c135750610892565b60008155849350600101610c06565b9091508190610bf8565b01519050878061084e565b60008581528281209350601f198516905b818110610c845750908460019594939210610c6b575b505050811b019055610863565b015160001960f88460031b161c19169055878080610c5e565b92936020600181928786015181550195019301610c48565b909150836000526020600020601f840160051c81019160208510610ce5575b90601f859493920160051c01905b818110610cd65750610837565b60008155849350600101610cc9565b9091508190610cbb565b0151905087806107f3565b60008581528281209350601f198516905b818110610d475750908460019594939210610d2e575b505050811b019055610808565b015160001960f88460031b161c19169055878080610d21565b92936020600181928786015181550195019301610d0b565b909150836000526020600020601f840160051c81019160208510610da8575b90601f859493920160051c01905b818110610d9957506107dc565b60008155849350600101610d8c565b9091508190610d7e565b634e487b7160e01b600052600060045260246000fd5b0151905087806106a7565b9060058401600052806000209160005b601f1985168110610e2d5750918391600193600a9695601f19811610610e14575b505050811b0160058201556106bf565b015160001960f88460031b161c19169055878080610e04565b91926020600181928685015181550194019201610de3565b600584016000526020600020601f840160051c810160208510610e85575b601f830160051c82018110610e7957505061068a565b60008155600101610e63565b5080610e63565b0151905086806105f0565b92506003840160005280600020906000935b601f1984168510610eed576001945083601f19811610610ed4575b505050811b016003820155610608565b015160001960f88460031b161c19169055868080610ec4565b81810151835560209485019460019093019290910190610ea9565b909150600384016000526020600020601f840160051c810160208510610f54575b90849392915b601f830160051c82018110610f455750506105d9565b60008155859450600101610f2f565b5080610f29565b015190508680610593565b92506002840160005280600020906000935b601f1984168510610fbc576001945083601f19811610610fa3575b505050811b0160028201556105ab565b015160001960f88460031b161c19169055868080610f93565b81810151835560209485019460019093019290910190610f78565b909150600284016000526020600020601f840160051c810160208510611023575b90849392915b601f830160051c8201811061101457505061057c565b60008155859450600101610ffe565b5080610ff8565b015190508680610536565b92506001840160005280600020906000935b601f198416851061108b576001945083601f19811610611072575b505050811b01600182015561054e565b015160001960f88460031b161c19169055868080611062565b81810151835560209485019460019093019290910190611047565b909150600184016000526020600020601f840160051c8101602085106110f2575b90849392915b601f830160051c820181106110e357505061051f565b600081558594506001016110cd565b50806110c7565b60405162461bcd60e51b81526020600482015260116024820152702ab739bab83837b93a32b2103a37b5b2b760791b6044820152606490fd5b60405162461bcd60e51b8152602060048201526012602482015271111d5c985d1a5bdb881d1bdbc81cda1bdc9d60721b6044820152606490fd5b60405162461bcd60e51b815260206004820152601960248201527f53746172742064617465206d75737420626520667574757265000000000000006044820152606490fd5b60405162461bcd60e51b815260206004820152600d60248201526c496e76616c696420707269636560981b6044820152606490fd5b5069d3c21bcecceda10000008a11156103da565b60405162461bcd60e51b815260206004820152601060248201526f24b73b30b634b2103637b1b0ba34b7b760811b6044820152606490fd5b5060968811156103cc565b60405162461bcd60e51b815260206004820152600f60248201526e496e76616c69642064657461696c7360881b6044820152606490fd5b506103e88211156103be565b60405162461bcd60e51b815260206004820152600b60248201526a125b9d985b1a590815549360aa1b6044820152606490fd5b5060c88c11156103b0565b60405162461bcd60e51b815260206004820152600c60248201526b496e76616c6964206e616d6560a01b6044820152606490fd5b6064915011158e6103a1565b346102685760203660031901126102685760043561131f60035482106132e3565b600052600460205261134b61133760406000206134d3565b604051918291602083526020830190612f17565b0390f35b34610268576000366003190112610268576003546000805b828110611427575061138161137b82612f7a565b91613024565b916000805b82811061139f5750505061134b60405192839283612e81565b6113a881612b62565b50546001600160a01b0316331480611410575b6113c8575b600101611386565b9061140881836113da60019488613074565b526113ed6113e785612b62565b50613088565b6113f78289613074565b526114028188613074565b50612f54565b9190506113c0565b5060ff600661141e83612b62565b500154166113bb565b61143081612b62565b50546001600160a01b0316331480611464575b611450575b600101611367565b9061145c600191612f54565b919050611448565b5060ff600661147283612b62565b50015416611443565b3461026857600036600319011261026857602060405160c88152f35b34610268576000366003190112610268576003546000805b82811061151957506114c361137b82612f7a565b916000805b8281106114e15750505061134b60405192839283612e81565b60ff60066114ee83612b62565b500154166114ff575b6001016114c8565b9061151181836113da60019488613074565b9190506114f7565b60ff600661152683612b62565b50015416611537575b6001016114af565b90611543600191612f54565b91905061152f565b3461026857602036600319011261026857600435611567612fac565b50600354811015611601578061134b6115826115e593612b62565b5082600052600460205261159a604060002093612b62565b5060018060a01b0390541660005260056020526115f36115d06115ca6115c4604060002094613088565b956134d3565b92613190565b91604051958695606087526060870190612d0f565b908582036020870152612f17565b908382036040850152612e28565b60405162461bcd60e51b8152602060048201526014602482015273115d995b9d08191bd95cc81b9bdd08195e1a5cdd60621b6044820152606490fd5b3461026857600036600319011261026857602060405169d3c21bcecceda10000008152f35b3461026857600036600319011261026857602060405160968152f35b3461026857606036600319011261026857611697612ed4565b602435906044356001600160401b038111610268576116ba903690600401612eea565b7362b8b11039fcfe5ab0c56e502b1c372a3d2a9c7a33036119bc576020116102685735906116eb6003548310613227565b6117096116f783612b62565b50546001600160a01b03161515613263565b61171860ff60025416156132a5565b61172182612b62565b5090600a82017362b8b11039fcfe5ab0c56e502b1c372a3d2a9c7a60018060a01b03825460101c1603611983576117666001600160401b03600485015416421061336d565b61177660ff6006850154166133a9565b836000526006602052604060002060018060a01b0383166000526020526117a560ff60406000205416156133e6565b8360005260046020526117c061138860406000205410613426565b6007830154850361194b57836000526006602052604060002060018060a01b0383166000526020526040600020600160ff1982541617905583600052600460205261180f8260406000206134b0565b6064850285810460641486151715610a7c576127109004611830818761348b565b9080151580611934575b61188c575b5061185e60086000805160206136c98339815191529501918254613466565b905554604080519586526001600160a01b0360109290921c82166020870152911693a3602060405160018152f35b825460025460405163a9059cbb60e01b81526001600160a01b0360089290921c8216600482015260248101939093526020918391604491839160009160101c165af18015611928576000805160206136c98339815191529561185e926008926118f9575b5095505061183f565b61191a9060203d602011611921575b6119128183612c09565b810190613473565b50896118f0565b503d611908565b6040513d6000823e3d90fd5b5060025460081c6001600160a01b0316151561183a565b60405162461bcd60e51b815260206004820152601060248201526f125b98dbdc9c9958dd08185b5bdd5b9d60821b6044820152606490fd5b60405162461bcd60e51b815260206004820152601160248201527027b7363c903337b9102392103a37b5b2b760791b6044820152606490fd5b60405162461bcd60e51b815260206004820152600d60248201526c27b7363c902392103a37b5b2b760991b6044820152606490fd5b3461026857602036600319011261026857600435611a0d61355e565b611a1a6003548210613227565b611a266116f782612b62565b611a3560ff60025416156132a5565b600081815260066020908152604080832033845290915290205460ff1615611ddb576007611a6282612b62565b50015490611a6f81612b62565b50600a015460101c6001600160a01b03167362b8b11039fcfe5ab0c56e502b1c372a3d2a9c7a8114611dbd575b80158015611d68578260005260076020528360406000205410611d235783905b60ff600a611ac986612b62565b5001541615611cb4575b60008481526006602090815260408083203384529091529020805460ff1916905515611c8a5750508060005260076020526040600020611b1483825461348b565b9055600080808085335af1611b2761333d565b5015611c50575b80600052600460205260406000209060005b825480821015611c4757611b548285613498565b905460039190911b1c6001600160a01b03163314611b755750600101611b40565b919291600019810191908211610a7c57611bae611b95611bd29385613498565b905460039190911b1c6001600160a01b03169184613498565b81546001600160a01b0393841660039290921b91821b9390911b1916919091179055565b80548015611c31576000190190611be98282613498565b81549060018060a01b039060031b1b19169055555b6040519182527f7a482fdeb6bc9a1376f597068a214a7a39472bb2eff1b8cad21ba04f49ddca1b60203393a36001600055005b634e487b7160e01b600052603160045260246000fd5b50509050611bfe565b60405162461bcd60e51b815260206004820152601260248201527110d15313c81c99599d5b990819985a5b195960721b6044820152606490fd5b611caf916008611c9985612b62565b5001611ca683825461348b565b90553390613580565b611b2e565b90506001600160401b036004611cc985612b62565b5001541661464f198101908111610a7c57421015611ce8578390611ad3565b60405162461bcd60e51b81526020600482015260136024820152721499599d5b99081c195c9a5bd908195b991959606a1b6044820152606490fd5b60405162461bcd60e51b815260206004820152601760248201527f496e73756666696369656e742043454c4f2066756e64730000000000000000006044820152606490fd5b836008611d7485612b62565b50015410611d83578390611abc565b60405162461bcd60e51b8152602060048201526012602482015271496e73756666696369656e742066756e647360701b6044820152606490fd5b91606381029080820460631490151715610a7c576064900491611a9c565b60405162461bcd60e51b8152602060048201526013602482015272139bc81d1a58dad95d081c1d5c98da185cd959606a1b6044820152606490fd5b346102685760003660031901126102685760025460405160089190911c6001600160a01b03168152602090f35b3461026857600036600319011261026857602060405160648152f35b34610268576020366003190112610268576001600160a01b03611e80612ed4565b1660005260096020526020604060002054604051908152f35b346102685760003660031901126102685760206040516146508152f35b34610268576020366003190112610268576004358015611f7a576040516323b872dd60e01b602082015233602482015230604482015260648082018390528152611f2b90611f05608482612c09565b7f000000000000000000000000000000000000000000000000000000000000000061366d565b3360005260096020526040600020611f44828254613466565b90556040519080825260208201527f2a91574e12ad96234e84923e146b0946ecfb871cd8d5534dc1fdcbe87a7c01b360403392a2005b60405162461bcd60e51b8152602060048201526014602482015273125b9d985b1a59081d1a58dad95d0818dbdd5b9d60621b6044820152606490fd5b34610268576020366003190112610268576001600160a01b03611fd7612ed4565b166000526001602052602060ff604060002054166040519015158152f35b60203660031901126102685760043561200c61355e565b6120196003548210613227565b6120256116f782612b62565b61203460ff60025416156132a5565b61203d81612b62565b50906120576001600160401b03600484015416421061336d565b61206760ff6006840154166133a9565b600081815260066020908152604080832033845290915290205461208e9060ff16156133e6565b8060005260046020526120a961138860406000205410613426565b6007820154600a830180549193909160101c6001600160a01b0316806121b25750508234036121755761216b6000805160206136c98339815191529183600052600760205260406000206120fe868254613466565b90555b836000526006602052604060002060018060a01b0333166000526020526040600020600160ff198254161790558360005260046020526121453360406000206134b0565b546040805195865260109190911c6001600160a01b031660208601523394918291820190565b0390a36001600055005b60405162461bcd60e51b8152602060048201526015602482015274125b98dbdc9c9958dd0810d15313c8185b5bdd5b9d605a1b6044820152606490fd5b7362b8b11039fcfe5ab0c56e502b1c372a3d2a9c7a81036122955750600091602061223060405186838201528281526121ec604082612c09565b8354604051630200057560e51b8152306004820152602481018a90526060604482015296879360109290921c6001600160a01b031692849283916064830190612cce565b03925af1918215611928576000805160206136c98339815191529361216b93612278575b506122716008612267606489048961348b565b9201918254613466565b9055612101565b6122909060203d602011611921576119128183612c09565b612254565b7348065fbbe25f71c9282ddf5e1cd6d6a887483d5e81036122ed57506000805160206136c983398151915291600861216b926122e18760018060a01b03855460101c16309033906135c1565b01612271868254613466565b91604051636eb1769f60e11b8152336004820152306024820152602081604481875afa8015611928578691600091612387575b501061234957600861216b926122e1876000805160206136c983398151915296309033906135c1565b60405162461bcd60e51b8152602060048201526016602482015275496e73756666696369656e7420616c6c6f77616e636560501b6044820152606490fd5b9150506020813d6020116123b4575b816123a360209383612c09565b810103126102685785905187612320565b3d9150612396565b346102685760003660031901126102685760206040516113888152f35b34610268576000366003190112610268576020600354604051908152f35b3461026857600036600319011261026857602060ff600254166040519015158152f35b346102685760003660031901126102685760206040516103e88152f35b346102685760203660031901126102685760043561246961245782612b62565b50546001600160a01b031633146131e9565b61247161355e565b61247e60035482106132e3565b6001600160401b03600461249183612b62565b50015460401c164211156126855760ff600a6124ac83612b62565b500154166126305760ff600a6124c183612b62565b50015460081c166125f2576124d581612b62565b50600a015460101c6001600160a01b03168061259f575060008181526007602052604081208054908290559080808084335af161251061333d565b50156125635760207f80230996023d69b50793fa73f1919127c9d8e741d3989743c479169f22e7a288915b600a61254685612b62565b5001805461ff001916610100179055604051908152a26001600055005b60405162461bcd60e51b815260206004820152601460248201527310d15313c81d1c985b9cd9995c8819985a5b195960621b6044820152606490fd5b60207f80230996023d69b50793fa73f1919127c9d8e741d3989743c479169f22e7a288916125ed60086125d186612b62565b5001548092600060086125e389612b62565b5001553390613580565b61253b565b60405162461bcd60e51b8152602060048201526016602482015275119d5b991cc8185b1c9958591e481c995b19585cd95960521b6044820152606490fd5b60405162461bcd60e51b815260206004820152602760248201527f43616e6e6f742072656c656173652066756e647320666f722063616e63656c656044820152661908195d995b9d60ca1b6064820152608490fd5b60405162461bcd60e51b815260206004820152601760248201527f4576656e7420686173206e6f7420656e646564207965740000000000000000006044820152606490fd5b346102685760203660031901126102685760043560005260076020526020604060002054604051908152f35b34610268576040366003190112610268576024356001600160a01b038116810361026857600435600052600660205260406000209060018060a01b0316600052602052602060ff604060002054166040519015158152f35b346102685760203660031901126102685760043561276e61245782612b62565b61277b6003548210613227565b6127876116f782612b62565b61279660ff60025416156132a5565b60ff60066127a383612b62565b50015416156128005760066127b782612b62565b5001805460ff19169055600a6127cc82612b62565b5001805460ff191660011790557fceaf11772900fe569752a0207c8639fb8228eb8663456dc9eaa3a08f927a8705600080a2005b60405162461bcd60e51b815260206004820152601060248201526f105b1c9958591e4818d85b98d95b195960821b6044820152606490fd5b34610268576000366003190112610268576040517f00000000000000000000000000000000000000000000000000000000000000006001600160a01b03168152602090f35b34610268576020366003190112610268576001600160a01b0361289e612ed4565b16600052600560205261134b6128b76040600020613190565b604051918291602083526020830190612e28565b34610268576000366003190112610268576020604051610e108152f35b34610268576000366003190112610268576020600854604051908152f35b34610268576000366003190112610268576003543390600090815b8181106129bd575061293b61293583612f7a565b92613024565b92600090815b838110612957576040518061134b888883612e81565b80600052600660205260ff604080600020600090858252602052205416612981575b600101612941565b916129b5818461299360019489613074565b526129a06113e786612b62565b6129aa828a613074565b526114028189613074565b929050612979565b80600052600660205260ff6040806000206000908782526020522054166129e7575b600101612921565b916129f3600191612f54565b9290506129df565b346102685760203660031901126102685760043560035481101561026857612a2290612b62565b5080546001600160a01b0316612a3a60018301612c2a565b91612a4760028201612c2a565b612a5360038301612c2a565b60048301549290612a6660058301612c2a565b93600683015460ff1694600784015491600885015493600986015495600a0154966040519a8b9a8b5260208b0161020090526102008b01612aa691612cce565b8a810360408c0152612ab791612cce565b89810360608b0152612ac891612cce565b906001600160401b03811660808a01528060401c6001600160401b031660a08a01528060801c6001600160401b031660c08a015260c01c60e0890152878103610100890152612b1691612cce565b94151561012087015261014086015261016085015261018084015260ff81811615156101a0850152600882901c1615156101c084015260101c6001600160a01b03166101e08301520390f35b600354811015612b81576003600052600b602060002091020190600090565b634e487b7160e01b600052603260045260246000fd5b8054821015612b8157600052600b602060002091020190600090565b90600182811c92168015612be3575b6020831014612bcd57565b634e487b7160e01b600052602260045260246000fd5b91607f1691612bc2565b61020081019081106001600160401b03821117610b5357604052565b90601f801991011681019081106001600160401b03821117610b5357604052565b9060405191826000825492612c3e84612bb3565b8084529360018116908115612cac5750600114612c65575b50612c6392500383612c09565b565b90506000929192526020600020906000915b818310612c90575050906020612c639282010138612c56565b6020919350806001915483858901015201910190918492612c77565b905060209250612c6394915060ff191682840152151560051b82010138612c56565b919082519283825260005b848110612cfa575050826000602080949584010152601f8019910116010190565b80602080928401015182828601015201612cd9565b9060018060a01b0382511681526101e0612dc7612d67612d55612d4360208701516102006020880152610200870190612cce565b60408701518682036040880152612cce565b60608601518582036060870152612cce565b6001600160401b0360808601511660808501526001600160401b0360a08601511660a08501526001600160401b0360c08601511660c08501526001600160401b0360e08601511660e0850152610100850151848203610100860152612cce565b9261012081015115156101208401526101408101516101408401526101608101516101608401526101808101516101808401526101a081015115156101a08401526101c081015115156101c08401528160018060a01b039101511691015290565b9080602083519182815201916020808360051b8301019401926000915b838310612e5457505050505090565b9091929394602080612e72600193601f198682030187528951612d0f565b97019301930191939290612e45565b9291604084019360408152825180955260206060820193016000955b808710612ebc575050612eb99394506020818403910152612e28565b90565b90936020806001928751815201950196019590612e9d565b600435906001600160a01b038216820361026857565b9181601f84011215610268578235916001600160401b038311610268576020838186019501011161026857565b906020808351928381520192019060005b818110612f355750505090565b82516001600160a01b0316845260209384019390920191600101612f28565b6000198114610a7c5760010190565b6001600160401b038111610b535760051b60200190565b90612f8482612f63565b612f916040519182612c09565b8281528092612fa2601f1991612f63565b0190602036910137565b60405190612fb982612bed565b60006101e08382815260606020820152606060408201526060808201528260808201528260a08201528260c08201528260e0820152606061010082015282610120820152826101408201528261016082015282610180820152826101a0820152826101c08201520152565b9061302e82612f63565b61303b6040519182612c09565b828152809261304c601f1991612f63565b019060005b82811061305d57505050565b602090613068612fac565b82828501015201613051565b8051821015612b815760209160051b010190565b9060405161309581612bed565b82546001600160a01b031681529182906101e090600a906130b860018201612c2a565b60208501526130c960028201612c2a565b60408501526130da60038201612c2a565b606085015260048101546001600160401b03811660808601526001600160401b038160401c1660a08601526001600160401b038160801c1660c086015260c01c60e085015261312b60058201612c2a565b61010085015260ff6006820154161515610120850152600781015461014085015260088101546101608501526009810154610180850152015460ff811615156101a084015260ff8160081c1615156101c084015260018060a01b039060101c16910152565b90815461319c81612f63565b926131aa6040519485612c09565b818452602084019060005260206000206000915b8383106131cb5750505050565b600b60206001926131db85613088565b8152019201920191906131be565b156131f057565b60405162461bcd60e51b815260206004820152600f60248201526e2737ba1032bb32b73a1037bbb732b960891b6044820152606490fd5b1561322e57565b60405162461bcd60e51b815260206004820152600d60248201526c125b9d985b1a5908195d995b9d609a1b6044820152606490fd5b1561326a57565b60405162461bcd60e51b8152602060048201526013602482015272115d995b9d08191bd95cdb89dd08195e1a5cdd606a1b6044820152606490fd5b156132ac57565b60405162461bcd60e51b815260206004820152600f60248201526e10dbdb9d1c9858dd081c185d5cd959608a1b6044820152606490fd5b156132ea57565b60405162461bcd60e51b815260206004820152601060248201526f125b9d985b1a5908195d995b9d08125160821b6044820152606490fd5b6001600160401b038111610b5357601f01601f191660200190565b3d15613368573d9061334e82613322565b9161335c6040519384612c09565b82523d6000602084013e565b606090565b1561337457565b60405162461bcd60e51b815260206004820152600d60248201526c115d995b9d08195e1c1a5c9959609a1b6044820152606490fd5b156133b057565b60405162461bcd60e51b815260206004820152600e60248201526d4576656e7420696e61637469766560901b6044820152606490fd5b156133ed57565b60405162461bcd60e51b8152602060048201526011602482015270105b1c9958591e481c1d5c98da185cd959607a1b6044820152606490fd5b1561342d57565b60405162461bcd60e51b81526020600482015260116024820152704576656e7420617420636170616369747960781b6044820152606490fd5b91908201809211610a7c57565b90816020910312610268575180151581036102685790565b91908203918211610a7c57565b8054821015612b815760005260206000200190600090565b90815491600160401b831015610b535782611bae916001612c6395018155613498565b906040519182815491828252602082019060005260206000209260005b818110613505575050612c6392500383612c09565b84546001600160a01b03168352600194850194879450602090930192016134f0565b92919261353382613322565b916135416040519384612c09565b829481845281830111610268578281602093846000960137010152565b60026000541461356f576002600055565b633ee5aeb560e01b60005260046000fd5b60405163a9059cbb60e01b60208201526001600160a01b03929092166024830152604480830193909352918152612c63916135bc606483612c09565b61366d565b6040516323b872dd60e01b81526001600160a01b03928316600482015292821660248401526044830193909352909160209183916064918391600091165af19081156119285760009161364e575b501561361757565b60405162461bcd60e51b815260206004820152600f60248201526e151c985b9cd9995c8819985a5b1959608a1b6044820152606490fd5b613667915060203d602011611921576119128183612c09565b3861360f565b906000602091828151910182855af115611928576000513d6136bf57506001600160a01b0381163b155b61369e5750565b635274afe760e01b60009081526001600160a01b0391909116600452602490fd5b6001141561369756fe504ef6dabca28c1452704d54bd8e25708d87e0c27d852eceea53a0c0d8986758a2646970667358221220cfff44c2517b1cccac4b7178b678066c00228c455e1e49c6eaa11ec7081b692264736f6c634300081c0033",
          "opcodes": "PUSH1 0xA0 PUSH1 0x40 MSTORE CALLVALUE PUSH2 0x17F JUMPI PUSH2 0x38DE DUP1 CODESIZE SUB DUP1 PUSH2 0x19 DUP2 PUSH2 0x19A JUMP JUMPDEST SWAP3 DUP4 CODECOPY DUP2 ADD SWAP1 PUSH1 0x20 DUP2 DUP4 SUB SLT PUSH2 0x17F JUMPI DUP1 MLOAD SWAP1 PUSH1 0x1 PUSH1 0x1 PUSH1 0x40 SHL SUB DUP3 GT PUSH2 0x17F JUMPI ADD DUP2 PUSH1 0x1F DUP3 ADD SLT ISZERO PUSH2 0x17F JUMPI DUP1 MLOAD SWAP2 PUSH1 0x1 PUSH1 0x1 PUSH1 0x40 SHL SUB DUP4 GT PUSH2 0x184 JUMPI DUP3 PUSH1 0x5 SHL SWAP2 PUSH1 0x20 DUP1 PUSH2 0x6A DUP2 DUP7 ADD PUSH2 0x19A JUMP JUMPDEST DUP1 SWAP7 DUP2 MSTORE ADD SWAP4 DUP3 ADD ADD SWAP2 DUP3 GT PUSH2 0x17F JUMPI PUSH1 0x20 ADD SWAP2 JUMPDEST DUP2 DUP4 LT PUSH2 0x15F JUMPI PUSH1 0x1 PUSH1 0x0 DUP2 DUP2 SSTORE PUSH1 0x2 DUP1 SLOAD PUSH2 0x100 PUSH1 0x1 PUSH1 0xA8 SHL SUB NOT AND PUSH21 0x43D72FF17701B2DA814620735C39C620CE0EA4A100 OR SWAP1 SSTORE DUP1 DUP1 MSTORE PUSH1 0x20 DUP3 SWAP1 MSTORE PUSH32 0xA6EEF7E35ABE7026729641147F7915573C7E97B47EFA546F5F6E3230263BCB49 DUP1 SLOAD PUSH1 0xFF NOT AND SWAP1 SWAP3 OR SWAP1 SWAP2 SSTORE DUP5 SWAP1 JUMPDEST DUP2 MLOAD DUP2 LT ISZERO PUSH2 0x139 JUMPI PUSH1 0x5 DUP2 SWAP1 SHL DUP3 ADD PUSH1 0x20 ADD MLOAD PUSH1 0x1 SWAP2 SWAP1 PUSH1 0x1 PUSH1 0x1 PUSH1 0xA0 SHL SUB AND PUSH1 0x0 DUP2 PUSH2 0x11E JUMPI JUMPDEST POP POP ADD PUSH2 0xED JUMP JUMPDEST PUSH1 0x40 SWAP2 DUP2 MSTORE DUP4 PUSH1 0x20 MSTORE KECCAK256 DUP3 PUSH1 0xFF NOT DUP3 SLOAD AND OR SWAP1 SSTORE DUP4 DUP1 PUSH2 0x116 JUMP JUMPDEST PUSH1 0x40 MLOAD PUSH2 0x371E SWAP1 DUP2 PUSH2 0x1C0 DUP3 CODECOPY PUSH1 0x80 MLOAD DUP2 DUP2 DUP2 PUSH2 0x1FF ADD MSTORE DUP2 DUP2 PUSH2 0x1F07 ADD MSTORE PUSH2 0x284E ADD MSTORE RETURN JUMPDEST DUP3 MLOAD PUSH1 0x1 PUSH1 0x1 PUSH1 0xA0 SHL SUB DUP2 AND DUP2 SUB PUSH2 0x17F JUMPI DUP2 MSTORE PUSH1 0x20 SWAP3 DUP4 ADD SWAP3 ADD PUSH2 0x7F JUMP JUMPDEST PUSH1 0x0 DUP1 REVERT JUMPDEST PUSH4 0x4E487B71 PUSH1 0xE0 SHL PUSH1 0x0 MSTORE PUSH1 0x41 PUSH1 0x4 MSTORE PUSH1 0x24 PUSH1 0x0 REVERT JUMPDEST PUSH1 0x40 MLOAD SWAP2 SWAP1 PUSH1 0x1F ADD PUSH1 0x1F NOT AND DUP3 ADD PUSH1 0x1 PUSH1 0x1 PUSH1 0x40 SHL SUB DUP2 GT DUP4 DUP3 LT OR PUSH2 0x184 JUMPI PUSH1 0x40 MSTORE JUMP INVALID PUSH1 0x80 PUSH1 0x40 MSTORE PUSH1 0x4 CALLDATASIZE LT ISZERO PUSH2 0x1B JUMPI JUMPDEST CALLDATASIZE ISZERO PUSH2 0x19 JUMPI PUSH1 0x0 DUP1 REVERT JUMPDEST STOP JUMPDEST PUSH1 0x0 CALLDATALOAD PUSH1 0xE0 SHR DUP1 PUSH4 0xB791430 EQ PUSH2 0x29FB JUMPI DUP1 PUSH4 0xF977561 EQ PUSH2 0x2906 JUMPI DUP1 PUSH4 0x1209B1F6 EQ PUSH2 0x28E8 JUMPI DUP1 PUSH4 0x1AC78969 EQ PUSH2 0x28CB JUMPI DUP1 PUSH4 0x20020581 EQ PUSH2 0x287D JUMPI DUP1 PUSH4 0x2F48AB7D EQ PUSH2 0x2838 JUMPI DUP1 PUSH4 0x3F69BABD EQ PUSH2 0x274E JUMPI DUP1 PUSH4 0x439FD35F EQ PUSH2 0x26F6 JUMPI DUP1 PUSH4 0x4D06755F EQ PUSH2 0x26CA JUMPI DUP1 PUSH4 0x4D68282F EQ PUSH2 0x2437 JUMPI DUP1 PUSH4 0x50D9C62D EQ PUSH2 0x241A JUMPI DUP1 PUSH4 0x5C975ABB EQ PUSH2 0x23F7 JUMPI DUP1 PUSH4 0x5C98DFA1 EQ PUSH2 0x23D9 JUMPI DUP1 PUSH4 0x617148E5 EQ PUSH2 0x23BC JUMPI DUP1 PUSH4 0x67DD74CA EQ PUSH2 0x1FF5 JUMPI DUP1 PUSH4 0x68C4AC26 EQ PUSH2 0x1FB6 JUMPI DUP1 PUSH4 0x6FF3EB5E EQ PUSH2 0x1EB6 JUMPI DUP1 PUSH4 0x7B426CBF EQ PUSH2 0x1E99 JUMPI DUP1 PUSH4 0x84BD3264 EQ PUSH2 0x1E5F JUMPI DUP1 PUSH4 0x86074985 EQ PUSH2 0x1E43 JUMPI DUP1 PUSH4 0xA06F7DA7 EQ PUSH2 0x1E16 JUMPI DUP1 PUSH4 0xA4B2409E EQ PUSH2 0x19F1 JUMPI DUP1 PUSH4 0xA4C0ED36 EQ PUSH2 0x167E JUMPI DUP1 PUSH4 0xABF45EC8 EQ PUSH2 0x1662 JUMPI DUP1 PUSH4 0xB5E41287 EQ PUSH2 0x163D JUMPI DUP1 PUSH4 0xB98079BC EQ PUSH2 0x154B JUMPI DUP1 PUSH4 0xC27A500D EQ PUSH2 0x1497 JUMPI DUP1 PUSH4 0xCB71146E EQ PUSH2 0x147B JUMPI DUP1 PUSH4 0xCCFD6D3C EQ PUSH2 0x134F JUMPI DUP1 PUSH4 0xE0C14377 EQ PUSH2 0x12FE JUMPI DUP1 PUSH4 0xF57C7AD8 EQ PUSH2 0x289 JUMPI DUP1 PUSH4 0xF60E673E EQ PUSH2 0x26D JUMPI PUSH4 0xFA89401A SUB PUSH2 0xE JUMPI CALLVALUE PUSH2 0x268 JUMPI PUSH1 0x20 CALLDATASIZE PUSH1 0x3 NOT ADD SLT PUSH2 0x268 JUMPI PUSH2 0x1A4 PUSH2 0x2ED4 JUMP JUMPDEST PUSH1 0x1 PUSH1 0x1 PUSH1 0xA0 SHL SUB DUP2 AND PUSH1 0x0 DUP2 DUP2 MSTORE PUSH1 0x9 PUSH1 0x20 MSTORE PUSH1 0x40 SWAP1 KECCAK256 SLOAD SWAP1 SWAP2 DUP2 ISZERO PUSH2 0x22C JUMPI DUP2 PUSH2 0x223 PUSH32 0xD7DEE2702D63AD89917B6A4DA9981C90C4D24F8C2BDFD64C604ECAE57D8D0651 SWAP4 PUSH1 0x20 SWAP4 DUP7 PUSH1 0x0 MSTORE PUSH1 0x9 DUP6 MSTORE PUSH1 0x0 PUSH1 0x40 DUP2 KECCAK256 SSTORE PUSH32 0x0 PUSH2 0x3580 JUMP JUMPDEST PUSH1 0x40 MLOAD SWAP1 DUP2 MSTORE LOG2 STOP JUMPDEST PUSH1 0x40 MLOAD PUSH3 0x461BCD PUSH1 0xE5 SHL DUP2 MSTORE PUSH1 0x20 PUSH1 0x4 DUP3 ADD MSTORE PUSH1 0x14 PUSH1 0x24 DUP3 ADD MSTORE PUSH20 0x139BC81D1A58DAD95D1CC81D1BC81C99599D5B99 PUSH1 0x62 SHL PUSH1 0x44 DUP3 ADD MSTORE PUSH1 0x64 SWAP1 REVERT JUMPDEST PUSH1 0x0 DUP1 REVERT JUMPDEST CALLVALUE PUSH2 0x268 JUMPI PUSH1 0x0 CALLDATASIZE PUSH1 0x3 NOT ADD SLT PUSH2 0x268 JUMPI PUSH1 0x20 PUSH1 0x40 MLOAD PUSH1 0x0 DUP2 MSTORE RETURN JUMPDEST CALLVALUE PUSH2 0x268 JUMPI PUSH2 0x160 CALLDATASIZE PUSH1 0x3 NOT ADD SLT PUSH2 0x268 JUMPI PUSH1 0x4 CALLDATALOAD PUSH1 0x1 PUSH1 0x1 PUSH1 0x40 SHL SUB DUP2 GT PUSH2 0x268 JUMPI PUSH2 0x2BA SWAP1 CALLDATASIZE SWAP1 PUSH1 0x4 ADD PUSH2 0x2EEA JUMP JUMPDEST SWAP1 PUSH1 0x24 CALLDATALOAD PUSH1 0x1 PUSH1 0x1 PUSH1 0x40 SHL SUB DUP2 GT PUSH2 0x268 JUMPI PUSH2 0x2DA SWAP1 CALLDATASIZE SWAP1 PUSH1 0x4 ADD PUSH2 0x2EEA JUMP JUMPDEST SWAP1 PUSH1 0x44 CALLDATALOAD PUSH1 0x1 PUSH1 0x1 PUSH1 0x40 SHL SUB DUP2 GT PUSH2 0x268 JUMPI PUSH2 0x2FA SWAP1 CALLDATASIZE SWAP1 PUSH1 0x4 ADD PUSH2 0x2EEA JUMP JUMPDEST SWAP1 PUSH1 0x64 CALLDATALOAD PUSH1 0x1 PUSH1 0x1 PUSH1 0x40 SHL SUB DUP2 AND DUP1 SWAP2 SUB PUSH2 0x268 JUMPI PUSH1 0x84 CALLDATALOAD PUSH1 0x1 PUSH1 0x1 PUSH1 0x40 SHL SUB DUP2 AND DUP1 SWAP2 SUB PUSH2 0x268 JUMPI PUSH1 0xA4 CALLDATALOAD PUSH1 0x1 PUSH1 0x1 PUSH1 0x40 SHL SUB DUP2 AND DUP1 SWAP2 SUB PUSH2 0x268 JUMPI PUSH1 0xC4 CALLDATALOAD SWAP2 PUSH1 0x1 PUSH1 0x1 PUSH1 0x40 SHL SUB DUP4 AND DUP1 SWAP4 SUB PUSH2 0x268 JUMPI PUSH1 0xE4 CALLDATALOAD PUSH1 0x1 PUSH1 0x1 PUSH1 0x40 SHL SUB DUP2 GT PUSH2 0x268 JUMPI PUSH2 0x36B SWAP1 CALLDATASIZE SWAP1 PUSH1 0x4 ADD PUSH2 0x2EEA JUMP JUMPDEST SWAP5 SWAP1 SWAP6 PUSH2 0x104 CALLDATALOAD SWAP8 PUSH2 0x144 CALLDATALOAD SWAP10 PUSH1 0x1 DUP1 PUSH1 0xA0 SHL SUB DUP12 AND DUP1 SWAP12 SUB PUSH2 0x268 JUMPI PUSH2 0x397 PUSH1 0xFF PUSH1 0x2 SLOAD AND ISZERO PUSH2 0x32A5 JUMP JUMPDEST DUP14 ISZERO ISZERO DUP15 DUP2 PUSH2 0x12F2 JUMPI JUMPDEST POP ISZERO PUSH2 0x12BE JUMPI DUP12 ISZERO ISZERO DUP1 PUSH2 0x12B3 JUMPI JUMPDEST ISZERO PUSH2 0x1280 JUMPI DUP2 ISZERO ISZERO DUP1 PUSH2 0x1274 JUMPI JUMPDEST ISZERO PUSH2 0x123D JUMPI DUP8 ISZERO ISZERO DUP1 PUSH2 0x1232 JUMPI JUMPDEST ISZERO PUSH2 0x11FA JUMPI DUP10 ISZERO ISZERO DUP1 PUSH2 0x11E6 JUMPI JUMPDEST ISZERO PUSH2 0x11B1 JUMPI TIMESTAMP DUP5 LT PUSH2 0x116C JUMPI PUSH2 0xE10 DUP5 ADD DUP1 DUP6 GT PUSH2 0xA7C JUMPI DUP6 LT PUSH2 0x1132 JUMPI DUP11 PUSH1 0x0 MSTORE PUSH1 0x1 PUSH1 0x20 MSTORE PUSH1 0xFF PUSH1 0x40 PUSH1 0x0 KECCAK256 SLOAD AND ISZERO PUSH2 0x10F9 JUMPI DUP13 SWAP12 DUP15 PUSH1 0x40 MLOAD SWAP14 DUP15 SWAP2 PUSH2 0x421 DUP4 PUSH2 0x2BED JUMP JUMPDEST CALLER DUP4 MSTORE CALLDATASIZE SWAP1 PUSH2 0x42F SWAP3 PUSH2 0x3527 JUMP JUMPDEST SWAP1 PUSH1 0x20 ADD MSTORE CALLDATASIZE SWAP1 PUSH2 0x43F SWAP3 PUSH2 0x3527 JUMP JUMPDEST PUSH1 0x40 DUP13 ADD MSTORE CALLDATASIZE SWAP1 PUSH2 0x44F SWAP3 PUSH2 0x3527 JUMP JUMPDEST PUSH1 0x60 DUP11 ADD MSTORE PUSH1 0x80 DUP10 ADD MSTORE PUSH1 0xA0 DUP9 ADD MSTORE PUSH1 0xC0 DUP8 ADD MSTORE PUSH1 0xE0 DUP7 ADD MSTORE CALLDATASIZE SWAP1 PUSH2 0x473 SWAP3 PUSH2 0x3527 JUMP JUMPDEST PUSH2 0x100 DUP5 ADD MSTORE PUSH1 0x1 PUSH2 0x120 DUP5 ADD MSTORE PUSH2 0x140 DUP4 ADD MSTORE PUSH1 0x0 PUSH2 0x160 DUP4 ADD DUP2 SWAP1 MSTORE PUSH2 0x124 CALLDATALOAD PUSH2 0x180 DUP5 ADD MSTORE PUSH2 0x1A0 DUP4 ADD DUP2 SWAP1 MSTORE PUSH2 0x1C0 DUP4 ADD MSTORE PUSH2 0x1E0 DUP3 ADD MSTORE PUSH1 0x3 SLOAD PUSH1 0x1 PUSH1 0x40 SHL DUP2 LT ISZERO PUSH2 0xB53 JUMPI DUP1 PUSH1 0x1 PUSH2 0x4D0 SWAP3 ADD PUSH1 0x3 SSTORE PUSH1 0x3 PUSH2 0x2B97 JUMP JUMPDEST PUSH2 0xDB2 JUMPI DUP2 MLOAD DUP2 SLOAD PUSH1 0x1 PUSH1 0x1 PUSH1 0xA0 SHL SUB NOT AND PUSH1 0x1 PUSH1 0x1 PUSH1 0xA0 SHL SUB SWAP2 SWAP1 SWAP2 AND OR DUP2 SSTORE PUSH1 0x20 DUP3 ADD MLOAD DUP1 MLOAD SWAP1 PUSH1 0x1 PUSH1 0x1 PUSH1 0x40 SHL SUB DUP3 GT PUSH2 0xB53 JUMPI DUP2 SWAP1 PUSH2 0x516 PUSH1 0x1 DUP6 ADD SLOAD PUSH2 0x2BB3 JUMP JUMPDEST PUSH1 0x1F DUP2 GT PUSH2 0x10A6 JUMPI JUMPDEST POP PUSH1 0x20 SWAP1 PUSH1 0x1F DUP4 GT PUSH1 0x1 EQ PUSH2 0x1035 JUMPI PUSH1 0x0 SWAP3 PUSH2 0x102A JUMPI JUMPDEST POP POP DUP2 PUSH1 0x1 SHL SWAP2 PUSH1 0x0 NOT SWAP1 PUSH1 0x3 SHL SHR NOT AND OR PUSH1 0x1 DUP3 ADD SSTORE JUMPDEST PUSH1 0x40 DUP3 ADD MLOAD DUP1 MLOAD SWAP1 PUSH1 0x1 PUSH1 0x1 PUSH1 0x40 SHL SUB DUP3 GT PUSH2 0xB53 JUMPI DUP2 SWAP1 PUSH2 0x573 PUSH1 0x2 DUP6 ADD SLOAD PUSH2 0x2BB3 JUMP JUMPDEST PUSH1 0x1F DUP2 GT PUSH2 0xFD7 JUMPI JUMPDEST POP PUSH1 0x20 SWAP1 PUSH1 0x1F DUP4 GT PUSH1 0x1 EQ PUSH2 0xF66 JUMPI PUSH1 0x0 SWAP3 PUSH2 0xF5B JUMPI JUMPDEST POP POP DUP2 PUSH1 0x1 SHL SWAP2 PUSH1 0x0 NOT SWAP1 PUSH1 0x3 SHL SHR NOT AND OR PUSH1 0x2 DUP3 ADD SSTORE JUMPDEST PUSH1 0x60 DUP3 ADD MLOAD DUP1 MLOAD SWAP1 PUSH1 0x1 PUSH1 0x1 PUSH1 0x40 SHL SUB DUP3 GT PUSH2 0xB53 JUMPI DUP2 SWAP1 PUSH2 0x5D0 PUSH1 0x3 DUP6 ADD SLOAD PUSH2 0x2BB3 JUMP JUMPDEST PUSH1 0x1F DUP2 GT PUSH2 0xF08 JUMPI JUMPDEST POP PUSH1 0x20 SWAP1 PUSH1 0x1F DUP4 GT PUSH1 0x1 EQ PUSH2 0xE97 JUMPI PUSH1 0x0 SWAP3 PUSH2 0xE8C JUMPI JUMPDEST POP POP DUP2 PUSH1 0x1 SHL SWAP2 PUSH1 0x0 NOT SWAP1 PUSH1 0x3 SHL SHR NOT AND OR PUSH1 0x3 DUP3 ADD SSTORE JUMPDEST PUSH1 0x80 DUP3 DUP2 ADD MLOAD PUSH1 0xA0 DUP5 ADD MLOAD PUSH1 0xC0 DUP1 DUP7 ADD MLOAD PUSH1 0xE0 DUP8 ADD MLOAD PUSH1 0x40 SWAP4 SWAP1 SWAP4 SHL PUSH8 0xFFFFFFFFFFFFFFFF PUSH1 0x40 SHL AND PUSH1 0x1 PUSH1 0x1 PUSH1 0x40 SHL SUB SWAP5 DUP6 AND OR SWAP5 SHL PUSH8 0xFFFFFFFFFFFFFFFF PUSH1 0x80 SHL AND SWAP4 SWAP1 SWAP4 OR SWAP3 SHL PUSH1 0x1 PUSH1 0x1 PUSH1 0xC0 SHL SUB NOT AND SWAP2 SWAP1 SWAP2 OR PUSH1 0x4 DUP4 ADD SSTORE PUSH2 0x100 DUP4 ADD MLOAD DUP1 MLOAD SWAP2 DUP3 GT PUSH2 0xB53 JUMPI PUSH2 0x681 PUSH1 0x5 DUP5 ADD SLOAD PUSH2 0x2BB3 JUMP JUMPDEST PUSH1 0x1F DUP2 GT PUSH2 0xE45 JUMPI JUMPDEST POP PUSH1 0x20 SWAP1 PUSH1 0x1F DUP4 GT PUSH1 0x1 EQ PUSH2 0xDD3 JUMPI PUSH1 0xA SWAP4 SWAP3 SWAP2 PUSH1 0x0 SWAP2 DUP4 PUSH2 0xDC8 JUMPI JUMPDEST POP POP DUP2 PUSH1 0x1 SHL SWAP2 PUSH1 0x0 NOT SWAP1 PUSH1 0x3 SHL SHR NOT AND OR PUSH1 0x5 DUP3 ADD SSTORE JUMPDEST PUSH2 0x6DF PUSH2 0x120 DUP5 ADD MLOAD ISZERO ISZERO PUSH1 0x6 DUP4 ADD SWAP1 PUSH1 0xFF DUP1 NOT DUP4 SLOAD AND SWAP2 ISZERO ISZERO AND OR SWAP1 SSTORE JUMP JUMPDEST PUSH2 0x140 DUP4 ADD MLOAD PUSH1 0x7 DUP3 ADD SSTORE PUSH2 0x160 DUP4 ADD MLOAD PUSH1 0x8 DUP3 ADD SSTORE PUSH2 0x180 DUP4 ADD MLOAD PUSH1 0x9 DUP3 ADD SSTORE ADD PUSH2 0x71E PUSH2 0x1A0 DUP4 ADD MLOAD ISZERO ISZERO DUP3 SWAP1 PUSH1 0xFF DUP1 NOT DUP4 SLOAD AND SWAP2 ISZERO ISZERO AND OR SWAP1 SSTORE JUMP JUMPDEST PUSH2 0x1C0 DUP3 ADD MLOAD DUP2 SLOAD PUSH2 0xFF00 NOT AND SWAP1 ISZERO ISZERO PUSH1 0x8 SHL PUSH2 0xFF00 AND OR DUP2 SSTORE PUSH2 0x1E0 DUP3 ADD MLOAD DUP2 SLOAD PUSH3 0x10000 PUSH1 0x1 PUSH1 0xB0 SHL SUB NOT AND PUSH1 0x10 SWAP2 SWAP1 SWAP2 SHL PUSH3 0x10000 PUSH1 0x1 PUSH1 0xB0 SHL SUB AND OR SWAP1 SSTORE CALLER PUSH1 0x0 SWAP1 DUP2 MSTORE PUSH1 0x5 PUSH1 0x20 MSTORE PUSH1 0x40 SWAP1 KECCAK256 DUP1 SLOAD PUSH1 0x1 PUSH1 0x40 SHL DUP2 LT ISZERO PUSH2 0xB53 JUMPI PUSH2 0x78C SWAP2 PUSH1 0x1 DUP3 ADD DUP2 SSTORE PUSH2 0x2B97 JUMP JUMPDEST PUSH2 0xDB2 JUMPI DUP2 MLOAD DUP2 SLOAD PUSH1 0x1 PUSH1 0x1 PUSH1 0xA0 SHL SUB NOT AND PUSH1 0x1 PUSH1 0x1 PUSH1 0xA0 SHL SUB SWAP2 SWAP1 SWAP2 AND OR DUP2 SSTORE PUSH1 0x20 DUP3 ADD MLOAD DUP1 MLOAD PUSH1 0x1 DUP4 ADD SWAP2 PUSH1 0x1 PUSH1 0x1 PUSH1 0x40 SHL SUB DUP3 GT PUSH2 0xB53 JUMPI DUP2 SWAP1 PUSH2 0x7D3 DUP5 SLOAD PUSH2 0x2BB3 JUMP JUMPDEST PUSH1 0x1F DUP2 GT PUSH2 0xD5F JUMPI JUMPDEST POP PUSH1 0x20 SWAP1 PUSH1 0x1F DUP4 GT PUSH1 0x1 EQ PUSH2 0xCFA JUMPI PUSH1 0x0 SWAP3 PUSH2 0xCEF JUMPI JUMPDEST POP POP DUP2 PUSH1 0x1 SHL SWAP2 PUSH1 0x0 NOT SWAP1 PUSH1 0x3 SHL SHR NOT AND OR SWAP1 SSTORE JUMPDEST PUSH1 0x2 DUP2 ADD PUSH1 0x40 DUP4 ADD MLOAD DUP1 MLOAD SWAP1 PUSH1 0x1 PUSH1 0x1 PUSH1 0x40 SHL SUB DUP3 GT PUSH2 0xB53 JUMPI DUP2 SWAP1 PUSH2 0x82E DUP5 SLOAD PUSH2 0x2BB3 JUMP JUMPDEST PUSH1 0x1F DUP2 GT PUSH2 0xC9C JUMPI JUMPDEST POP PUSH1 0x20 SWAP1 PUSH1 0x1F DUP4 GT PUSH1 0x1 EQ PUSH2 0xC37 JUMPI PUSH1 0x0 SWAP3 PUSH2 0xC2C JUMPI JUMPDEST POP POP DUP2 PUSH1 0x1 SHL SWAP2 PUSH1 0x0 NOT SWAP1 PUSH1 0x3 SHL SHR NOT AND OR SWAP1 SSTORE JUMPDEST PUSH1 0x3 DUP2 ADD PUSH1 0x60 DUP4 ADD MLOAD DUP1 MLOAD SWAP1 PUSH1 0x1 PUSH1 0x1 PUSH1 0x40 SHL SUB DUP3 GT PUSH2 0xB53 JUMPI DUP2 SWAP1 PUSH2 0x889 DUP5 SLOAD PUSH2 0x2BB3 JUMP JUMPDEST PUSH1 0x1F DUP2 GT PUSH2 0xBD9 JUMPI JUMPDEST POP PUSH1 0x20 SWAP1 PUSH1 0x1F DUP4 GT PUSH1 0x1 EQ PUSH2 0xB74 JUMPI PUSH1 0x0 SWAP3 PUSH2 0xB69 JUMPI JUMPDEST POP POP DUP2 PUSH1 0x1 SHL SWAP2 PUSH1 0x0 NOT SWAP1 PUSH1 0x3 SHL SHR NOT AND OR SWAP1 SSTORE JUMPDEST PUSH1 0x80 DUP3 DUP2 ADD MLOAD PUSH1 0xA0 DUP5 ADD MLOAD PUSH1 0xC0 DUP1 DUP7 ADD MLOAD PUSH1 0xE0 DUP8 ADD MLOAD PUSH1 0x40 SWAP4 SWAP1 SWAP4 SHL PUSH8 0xFFFFFFFFFFFFFFFF PUSH1 0x40 SHL AND PUSH1 0x1 PUSH1 0x1 PUSH1 0x40 SHL SUB SWAP5 DUP6 AND OR SWAP5 SHL PUSH8 0xFFFFFFFFFFFFFFFF PUSH1 0x80 SHL AND SWAP4 SWAP1 SWAP4 OR SWAP3 SHL PUSH1 0x1 PUSH1 0x1 PUSH1 0xC0 SHL SUB NOT AND SWAP2 SWAP1 SWAP2 OR PUSH1 0x4 DUP4 ADD SSTORE PUSH2 0x100 DUP4 ADD MLOAD DUP1 MLOAD PUSH1 0x5 DUP5 ADD SWAP3 SWAP1 SWAP2 SWAP1 DUP3 GT PUSH2 0xB53 JUMPI PUSH2 0x93B DUP4 SLOAD PUSH2 0x2BB3 JUMP JUMPDEST PUSH1 0x1F DUP2 GT PUSH2 0xB0B JUMPI JUMPDEST POP PUSH1 0x20 SWAP1 PUSH1 0x1F DUP4 GT PUSH1 0x1 EQ PUSH2 0xA9D JUMPI SWAP2 DUP1 PUSH1 0xA SWAP5 SWAP3 PUSH2 0x1E0 SWAP7 SWAP5 PUSH1 0x0 SWAP3 PUSH2 0xA92 JUMPI JUMPDEST POP POP DUP2 PUSH1 0x1 SHL SWAP2 PUSH1 0x0 NOT SWAP1 PUSH1 0x3 SHL SHR NOT AND OR SWAP1 SSTORE JUMPDEST PUSH2 0x99B PUSH2 0x120 DUP6 ADD MLOAD ISZERO ISZERO PUSH1 0x6 DUP4 ADD SWAP1 PUSH1 0xFF DUP1 NOT DUP4 SLOAD AND SWAP2 ISZERO ISZERO AND OR SWAP1 SSTORE JUMP JUMPDEST PUSH2 0x140 DUP5 ADD MLOAD PUSH1 0x7 DUP3 ADD SSTORE PUSH2 0x160 DUP5 ADD MLOAD PUSH1 0x8 DUP3 ADD SSTORE PUSH2 0x180 DUP5 ADD MLOAD PUSH1 0x9 DUP3 ADD SSTORE ADD SWAP2 PUSH2 0x9DB PUSH2 0x1A0 DUP3 ADD MLOAD ISZERO ISZERO DUP5 SWAP1 PUSH1 0xFF DUP1 NOT DUP4 SLOAD AND SWAP2 ISZERO ISZERO AND OR SWAP1 SSTORE JUMP JUMPDEST PUSH2 0x1C0 DUP2 ADD MLOAD DUP4 SLOAD PUSH2 0xFF00 NOT AND SWAP1 ISZERO ISZERO PUSH1 0x8 SHL PUSH2 0xFF00 AND OR DUP4 SSTORE ADD MLOAD DUP2 SLOAD PUSH3 0x10000 PUSH1 0x1 PUSH1 0xB0 SHL SUB NOT AND PUSH1 0x10 SWAP2 SWAP1 SWAP2 SHL PUSH3 0x10000 PUSH1 0x1 PUSH1 0xB0 SHL SUB AND OR SWAP1 SSTORE PUSH1 0x3 SLOAD PUSH1 0x0 NOT DUP2 ADD SWAP2 SWAP1 DUP3 GT PUSH2 0xA7C JUMPI PUSH32 0xFC695DEA2478FB938A11068AEEDDDD7046A5FE655F136E30A325D353FE187A45 SWAP1 DUP4 PUSH1 0x40 MLOAD SWAP2 PUSH1 0x20 DUP4 MSTORE DUP2 PUSH1 0x20 DUP5 ADD MSTORE PUSH1 0x40 DUP4 ADD CALLDATACOPY PUSH1 0x0 PUSH1 0x40 DUP6 DUP4 ADD ADD MSTORE PUSH1 0x40 DUP2 CALLER SWAP6 PUSH1 0x1F DUP1 NOT SWAP2 ADD AND DUP2 ADD SUB ADD SWAP1 LOG3 STOP JUMPDEST PUSH4 0x4E487B71 PUSH1 0xE0 SHL PUSH1 0x0 MSTORE PUSH1 0x11 PUSH1 0x4 MSTORE PUSH1 0x24 PUSH1 0x0 REVERT JUMPDEST ADD MLOAD SWAP1 POP DUP10 DUP1 PUSH2 0x966 JUMP JUMPDEST SWAP1 PUSH1 0x1F NOT DUP4 AND SWAP2 DUP5 PUSH1 0x0 MSTORE DUP2 PUSH1 0x0 KECCAK256 SWAP3 PUSH1 0x0 JUMPDEST DUP2 DUP2 LT PUSH2 0xAF3 JUMPI POP SWAP3 PUSH1 0x1 SWAP3 DUP6 SWAP3 PUSH2 0x1E0 SWAP9 SWAP7 PUSH1 0xA SWAP9 SWAP7 LT PUSH2 0xADA JUMPI JUMPDEST POP POP POP DUP2 SHL ADD SWAP1 SSTORE PUSH2 0x97B JUMP JUMPDEST ADD MLOAD PUSH1 0x0 NOT PUSH1 0xF8 DUP5 PUSH1 0x3 SHL AND SHR NOT AND SWAP1 SSTORE DUP10 DUP1 DUP1 PUSH2 0xACD JUMP JUMPDEST SWAP3 SWAP4 PUSH1 0x20 PUSH1 0x1 DUP2 SWAP3 DUP8 DUP7 ADD MLOAD DUP2 SSTORE ADD SWAP6 ADD SWAP4 ADD PUSH2 0xAB0 JUMP JUMPDEST DUP4 PUSH1 0x0 MSTORE PUSH1 0x20 PUSH1 0x0 KECCAK256 PUSH1 0x1F DUP5 ADD PUSH1 0x5 SHR DUP2 ADD SWAP2 PUSH1 0x20 DUP6 LT PUSH2 0xB49 JUMPI JUMPDEST PUSH1 0x1F ADD PUSH1 0x5 SHR ADD SWAP1 JUMPDEST DUP2 DUP2 LT PUSH2 0xB3D JUMPI POP PUSH2 0x944 JUMP JUMPDEST PUSH1 0x0 DUP2 SSTORE PUSH1 0x1 ADD PUSH2 0xB30 JUMP JUMPDEST SWAP1 SWAP2 POP DUP2 SWAP1 PUSH2 0xB27 JUMP JUMPDEST PUSH4 0x4E487B71 PUSH1 0xE0 SHL PUSH1 0x0 MSTORE PUSH1 0x41 PUSH1 0x4 MSTORE PUSH1 0x24 PUSH1 0x0 REVERT JUMPDEST ADD MLOAD SWAP1 POP DUP8 DUP1 PUSH2 0x8A9 JUMP JUMPDEST PUSH1 0x0 DUP6 DUP2 MSTORE DUP3 DUP2 KECCAK256 SWAP4 POP PUSH1 0x1F NOT DUP6 AND SWAP1 JUMPDEST DUP2 DUP2 LT PUSH2 0xBC1 JUMPI POP SWAP1 DUP5 PUSH1 0x1 SWAP6 SWAP5 SWAP4 SWAP3 LT PUSH2 0xBA8 JUMPI JUMPDEST POP POP POP DUP2 SHL ADD SWAP1 SSTORE PUSH2 0x8BE JUMP JUMPDEST ADD MLOAD PUSH1 0x0 NOT PUSH1 0xF8 DUP5 PUSH1 0x3 SHL AND SHR NOT AND SWAP1 SSTORE DUP8 DUP1 DUP1 PUSH2 0xB9B JUMP JUMPDEST SWAP3 SWAP4 PUSH1 0x20 PUSH1 0x1 DUP2 SWAP3 DUP8 DUP7 ADD MLOAD DUP2 SSTORE ADD SWAP6 ADD SWAP4 ADD PUSH2 0xB85 JUMP JUMPDEST SWAP1 SWAP2 POP DUP4 PUSH1 0x0 MSTORE PUSH1 0x20 PUSH1 0x0 KECCAK256 PUSH1 0x1F DUP5 ADD PUSH1 0x5 SHR DUP2 ADD SWAP2 PUSH1 0x20 DUP6 LT PUSH2 0xC22 JUMPI JUMPDEST SWAP1 PUSH1 0x1F DUP6 SWAP5 SWAP4 SWAP3 ADD PUSH1 0x5 SHR ADD SWAP1 JUMPDEST DUP2 DUP2 LT PUSH2 0xC13 JUMPI POP PUSH2 0x892 JUMP JUMPDEST PUSH1 0x0 DUP2 SSTORE DUP5 SWAP4 POP PUSH1 0x1 ADD PUSH2 0xC06 JUMP JUMPDEST SWAP1 SWAP2 POP DUP2 SWAP1 PUSH2 0xBF8 JUMP JUMPDEST ADD MLOAD SWAP1 POP DUP8 DUP1 PUSH2 0x84E JUMP JUMPDEST PUSH1 0x0 DUP6 DUP2 MSTORE DUP3 DUP2 KECCAK256 SWAP4 POP PUSH1 0x1F NOT DUP6 AND SWAP1 JUMPDEST DUP2 DUP2 LT PUSH2 0xC84 JUMPI POP SWAP1 DUP5 PUSH1 0x1 SWAP6 SWAP5 SWAP4 SWAP3 LT PUSH2 0xC6B JUMPI JUMPDEST POP POP POP DUP2 SHL ADD SWAP1 SSTORE PUSH2 0x863 JUMP JUMPDEST ADD MLOAD PUSH1 0x0 NOT PUSH1 0xF8 DUP5 PUSH1 0x3 SHL AND SHR NOT AND SWAP1 SSTORE DUP8 DUP1 DUP1 PUSH2 0xC5E JUMP JUMPDEST SWAP3 SWAP4 PUSH1 0x20 PUSH1 0x1 DUP2 SWAP3 DUP8 DUP7 ADD MLOAD DUP2 SSTORE ADD SWAP6 ADD SWAP4 ADD PUSH2 0xC48 JUMP JUMPDEST SWAP1 SWAP2 POP DUP4 PUSH1 0x0 MSTORE PUSH1 0x20 PUSH1 0x0 KECCAK256 PUSH1 0x1F DUP5 ADD PUSH1 0x5 SHR DUP2 ADD SWAP2 PUSH1 0x20 DUP6 LT PUSH2 0xCE5 JUMPI JUMPDEST SWAP1 PUSH1 0x1F DUP6 SWAP5 SWAP4 SWAP3 ADD PUSH1 0x5 SHR ADD SWAP1 JUMPDEST DUP2 DUP2 LT PUSH2 0xCD6 JUMPI POP PUSH2 0x837 JUMP JUMPDEST PUSH1 0x0 DUP2 SSTORE DUP5 SWAP4 POP PUSH1 0x1 ADD PUSH2 0xCC9 JUMP JUMPDEST SWAP1 SWAP2 POP DUP2 SWAP1 PUSH2 0xCBB JUMP JUMPDEST ADD MLOAD SWAP1 POP DUP8 DUP1 PUSH2 0x7F3 JUMP JUMPDEST PUSH1 0x0 DUP6 DUP2 MSTORE DUP3 DUP2 KECCAK256 SWAP4 POP PUSH1 0x1F NOT DUP6 AND SWAP1 JUMPDEST DUP2 DUP2 LT PUSH2 0xD47 JUMPI POP SWAP1 DUP5 PUSH1 0x1 SWAP6 SWAP5 SWAP4 SWAP3 LT PUSH2 0xD2E JUMPI JUMPDEST POP POP POP DUP2 SHL ADD SWAP1 SSTORE PUSH2 0x808 JUMP JUMPDEST ADD MLOAD PUSH1 0x0 NOT PUSH1 0xF8 DUP5 PUSH1 0x3 SHL AND SHR NOT AND SWAP1 SSTORE DUP8 DUP1 DUP1 PUSH2 0xD21 JUMP JUMPDEST SWAP3 SWAP4 PUSH1 0x20 PUSH1 0x1 DUP2 SWAP3 DUP8 DUP7 ADD MLOAD DUP2 SSTORE ADD SWAP6 ADD SWAP4 ADD PUSH2 0xD0B JUMP JUMPDEST SWAP1 SWAP2 POP DUP4 PUSH1 0x0 MSTORE PUSH1 0x20 PUSH1 0x0 KECCAK256 PUSH1 0x1F DUP5 ADD PUSH1 0x5 SHR DUP2 ADD SWAP2 PUSH1 0x20 DUP6 LT PUSH2 0xDA8 JUMPI JUMPDEST SWAP1 PUSH1 0x1F DUP6 SWAP5 SWAP4 SWAP3 ADD PUSH1 0x5 SHR ADD SWAP1 JUMPDEST DUP2 DUP2 LT PUSH2 0xD99 JUMPI POP PUSH2 0x7DC JUMP JUMPDEST PUSH1 0x0 DUP2 SSTORE DUP5 SWAP4 POP PUSH1 0x1 ADD PUSH2 0xD8C JUMP JUMPDEST SWAP1 SWAP2 POP DUP2 SWAP1 PUSH2 0xD7E JUMP JUMPDEST PUSH4 0x4E487B71 PUSH1 0xE0 SHL PUSH1 0x0 MSTORE PUSH1 0x0 PUSH1 0x4 MSTORE PUSH1 0x24 PUSH1 0x0 REVERT JUMPDEST ADD MLOAD SWAP1 POP DUP8 DUP1 PUSH2 0x6A7 JUMP JUMPDEST SWAP1 PUSH1 0x5 DUP5 ADD PUSH1 0x0 MSTORE DUP1 PUSH1 0x0 KECCAK256 SWAP2 PUSH1 0x0 JUMPDEST PUSH1 0x1F NOT DUP6 AND DUP2 LT PUSH2 0xE2D JUMPI POP SWAP2 DUP4 SWAP2 PUSH1 0x1 SWAP4 PUSH1 0xA SWAP7 SWAP6 PUSH1 0x1F NOT DUP2 AND LT PUSH2 0xE14 JUMPI JUMPDEST POP POP POP DUP2 SHL ADD PUSH1 0x5 DUP3 ADD SSTORE PUSH2 0x6BF JUMP JUMPDEST ADD MLOAD PUSH1 0x0 NOT PUSH1 0xF8 DUP5 PUSH1 0x3 SHL AND SHR NOT AND SWAP1 SSTORE DUP8 DUP1 DUP1 PUSH2 0xE04 JUMP JUMPDEST SWAP2 SWAP3 PUSH1 0x20 PUSH1 0x1 DUP2 SWAP3 DUP7 DUP6 ADD MLOAD DUP2 SSTORE ADD SWAP5 ADD SWAP3 ADD PUSH2 0xDE3 JUMP JUMPDEST PUSH1 0x5 DUP5 ADD PUSH1 0x0 MSTORE PUSH1 0x20 PUSH1 0x0 KECCAK256 PUSH1 0x1F DUP5 ADD PUSH1 0x5 SHR DUP2 ADD PUSH1 0x20 DUP6 LT PUSH2 0xE85 JUMPI JUMPDEST PUSH1 0x1F DUP4 ADD PUSH1 0x5 SHR DUP3 ADD DUP2 LT PUSH2 0xE79 JUMPI POP POP PUSH2 0x68A JUMP JUMPDEST PUSH1 0x0 DUP2 SSTORE PUSH1 0x1 ADD PUSH2 0xE63 JUMP JUMPDEST POP DUP1 PUSH2 0xE63 JUMP JUMPDEST ADD MLOAD SWAP1 POP DUP7 DUP1 PUSH2 0x5F0 JUMP JUMPDEST SWAP3 POP PUSH1 0x3 DUP5 ADD PUSH1 0x0 MSTORE DUP1 PUSH1 0x0 KECCAK256 SWAP1 PUSH1 0x0 SWAP4 JUMPDEST PUSH1 0x1F NOT DUP5 AND DUP6 LT PUSH2 0xEED JUMPI PUSH1 0x1 SWAP5 POP DUP4 PUSH1 0x1F NOT DUP2 AND LT PUSH2 0xED4 JUMPI JUMPDEST POP POP POP DUP2 SHL ADD PUSH1 0x3 DUP3 ADD SSTORE PUSH2 0x608 JUMP JUMPDEST ADD MLOAD PUSH1 0x0 NOT PUSH1 0xF8 DUP5 PUSH1 0x3 SHL AND SHR NOT AND SWAP1 SSTORE DUP7 DUP1 DUP1 PUSH2 0xEC4 JUMP JUMPDEST DUP2 DUP2 ADD MLOAD DUP4 SSTORE PUSH1 0x20 SWAP5 DUP6 ADD SWAP5 PUSH1 0x1 SWAP1 SWAP4 ADD SWAP3 SWAP1 SWAP2 ADD SWAP1 PUSH2 0xEA9 JUMP JUMPDEST SWAP1 SWAP2 POP PUSH1 0x3 DUP5 ADD PUSH1 0x0 MSTORE PUSH1 0x20 PUSH1 0x0 KECCAK256 PUSH1 0x1F DUP5 ADD PUSH1 0x5 SHR DUP2 ADD PUSH1 0x20 DUP6 LT PUSH2 0xF54 JUMPI JUMPDEST SWAP1 DUP5 SWAP4 SWAP3 SWAP2 JUMPDEST PUSH1 0x1F DUP4 ADD PUSH1 0x5 SHR DUP3 ADD DUP2 LT PUSH2 0xF45 JUMPI POP POP PUSH2 0x5D9 JUMP JUMPDEST PUSH1 0x0 DUP2 SSTORE DUP6 SWAP5 POP PUSH1 0x1 ADD PUSH2 0xF2F JUMP JUMPDEST POP DUP1 PUSH2 0xF29 JUMP JUMPDEST ADD MLOAD SWAP1 POP DUP7 DUP1 PUSH2 0x593 JUMP JUMPDEST SWAP3 POP PUSH1 0x2 DUP5 ADD PUSH1 0x0 MSTORE DUP1 PUSH1 0x0 KECCAK256 SWAP1 PUSH1 0x0 SWAP4 JUMPDEST PUSH1 0x1F NOT DUP5 AND DUP6 LT PUSH2 0xFBC JUMPI PUSH1 0x1 SWAP5 POP DUP4 PUSH1 0x1F NOT DUP2 AND LT PUSH2 0xFA3 JUMPI JUMPDEST POP POP POP DUP2 SHL ADD PUSH1 0x2 DUP3 ADD SSTORE PUSH2 0x5AB JUMP JUMPDEST ADD MLOAD PUSH1 0x0 NOT PUSH1 0xF8 DUP5 PUSH1 0x3 SHL AND SHR NOT AND SWAP1 SSTORE DUP7 DUP1 DUP1 PUSH2 0xF93 JUMP JUMPDEST DUP2 DUP2 ADD MLOAD DUP4 SSTORE PUSH1 0x20 SWAP5 DUP6 ADD SWAP5 PUSH1 0x1 SWAP1 SWAP4 ADD SWAP3 SWAP1 SWAP2 ADD SWAP1 PUSH2 0xF78 JUMP JUMPDEST SWAP1 SWAP2 POP PUSH1 0x2 DUP5 ADD PUSH1 0x0 MSTORE PUSH1 0x20 PUSH1 0x0 KECCAK256 PUSH1 0x1F DUP5 ADD PUSH1 0x5 SHR DUP2 ADD PUSH1 0x20 DUP6 LT PUSH2 0x1023 JUMPI JUMPDEST SWAP1 DUP5 SWAP4 SWAP3 SWAP2 JUMPDEST PUSH1 0x1F DUP4 ADD PUSH1 0x5 SHR DUP3 ADD DUP2 LT PUSH2 0x1014 JUMPI POP POP PUSH2 0x57C JUMP JUMPDEST PUSH1 0x0 DUP2 SSTORE DUP6 SWAP5 POP PUSH1 0x1 ADD PUSH2 0xFFE JUMP JUMPDEST POP DUP1 PUSH2 0xFF8 JUMP JUMPDEST ADD MLOAD SWAP1 POP DUP7 DUP1 PUSH2 0x536 JUMP JUMPDEST SWAP3 POP PUSH1 0x1 DUP5 ADD PUSH1 0x0 MSTORE DUP1 PUSH1 0x0 KECCAK256 SWAP1 PUSH1 0x0 SWAP4 JUMPDEST PUSH1 0x1F NOT DUP5 AND DUP6 LT PUSH2 0x108B JUMPI PUSH1 0x1 SWAP5 POP DUP4 PUSH1 0x1F NOT DUP2 AND LT PUSH2 0x1072 JUMPI JUMPDEST POP POP POP DUP2 SHL ADD PUSH1 0x1 DUP3 ADD SSTORE PUSH2 0x54E JUMP JUMPDEST ADD MLOAD PUSH1 0x0 NOT PUSH1 0xF8 DUP5 PUSH1 0x3 SHL AND SHR NOT AND SWAP1 SSTORE DUP7 DUP1 DUP1 PUSH2 0x1062 JUMP JUMPDEST DUP2 DUP2 ADD MLOAD DUP4 SSTORE PUSH1 0x20 SWAP5 DUP6 ADD SWAP5 PUSH1 0x1 SWAP1 SWAP4 ADD SWAP3 SWAP1 SWAP2 ADD SWAP1 PUSH2 0x1047 JUMP JUMPDEST SWAP1 SWAP2 POP PUSH1 0x1 DUP5 ADD PUSH1 0x0 MSTORE PUSH1 0x20 PUSH1 0x0 KECCAK256 PUSH1 0x1F DUP5 ADD PUSH1 0x5 SHR DUP2 ADD PUSH1 0x20 DUP6 LT PUSH2 0x10F2 JUMPI JUMPDEST SWAP1 DUP5 SWAP4 SWAP3 SWAP2 JUMPDEST PUSH1 0x1F DUP4 ADD PUSH1 0x5 SHR DUP3 ADD DUP2 LT PUSH2 0x10E3 JUMPI POP POP PUSH2 0x51F JUMP JUMPDEST PUSH1 0x0 DUP2 SSTORE DUP6 SWAP5 POP PUSH1 0x1 ADD PUSH2 0x10CD JUMP JUMPDEST POP DUP1 PUSH2 0x10C7 JUMP JUMPDEST PUSH1 0x40 MLOAD PUSH3 0x461BCD PUSH1 0xE5 SHL DUP2 MSTORE PUSH1 0x20 PUSH1 0x4 DUP3 ADD MSTORE PUSH1 0x11 PUSH1 0x24 DUP3 ADD MSTORE PUSH17 0x2AB739BAB83837B93A32B2103A37B5B2B7 PUSH1 0x79 SHL PUSH1 0x44 DUP3 ADD MSTORE PUSH1 0x64 SWAP1 REVERT JUMPDEST PUSH1 0x40 MLOAD PUSH3 0x461BCD PUSH1 0xE5 SHL DUP2 MSTORE PUSH1 0x20 PUSH1 0x4 DUP3 ADD MSTORE PUSH1 0x12 PUSH1 0x24 DUP3 ADD MSTORE PUSH18 0x111D5C985D1A5BDB881D1BDBC81CDA1BDC9D PUSH1 0x72 SHL PUSH1 0x44 DUP3 ADD MSTORE PUSH1 0x64 SWAP1 REVERT JUMPDEST PUSH1 0x40 MLOAD PUSH3 0x461BCD PUSH1 0xE5 SHL DUP2 MSTORE PUSH1 0x20 PUSH1 0x4 DUP3 ADD MSTORE PUSH1 0x19 PUSH1 0x24 DUP3 ADD MSTORE PUSH32 0x53746172742064617465206D7573742062652066757475726500000000000000 PUSH1 0x44 DUP3 ADD MSTORE PUSH1 0x64 SWAP1 REVERT JUMPDEST PUSH1 0x40 MLOAD PUSH3 0x461BCD PUSH1 0xE5 SHL DUP2 MSTORE PUSH1 0x20 PUSH1 0x4 DUP3 ADD MSTORE PUSH1 0xD PUSH1 0x24 DUP3 ADD MSTORE PUSH13 0x496E76616C6964207072696365 PUSH1 0x98 SHL PUSH1 0x44 DUP3 ADD MSTORE PUSH1 0x64 SWAP1 REVERT JUMPDEST POP PUSH10 0xD3C21BCECCEDA1000000 DUP11 GT ISZERO PUSH2 0x3DA JUMP JUMPDEST PUSH1 0x40 MLOAD PUSH3 0x461BCD PUSH1 0xE5 SHL DUP2 MSTORE PUSH1 0x20 PUSH1 0x4 DUP3 ADD MSTORE PUSH1 0x10 PUSH1 0x24 DUP3 ADD MSTORE PUSH16 0x24B73B30B634B2103637B1B0BA34B7B7 PUSH1 0x81 SHL PUSH1 0x44 DUP3 ADD MSTORE PUSH1 0x64 SWAP1 REVERT JUMPDEST POP PUSH1 0x96 DUP9 GT ISZERO PUSH2 0x3CC JUMP JUMPDEST PUSH1 0x40 MLOAD PUSH3 0x461BCD PUSH1 0xE5 SHL DUP2 MSTORE PUSH1 0x20 PUSH1 0x4 DUP3 ADD MSTORE PUSH1 0xF PUSH1 0x24 DUP3 ADD MSTORE PUSH15 0x496E76616C69642064657461696C73 PUSH1 0x88 SHL PUSH1 0x44 DUP3 ADD MSTORE PUSH1 0x64 SWAP1 REVERT JUMPDEST POP PUSH2 0x3E8 DUP3 GT ISZERO PUSH2 0x3BE JUMP JUMPDEST PUSH1 0x40 MLOAD PUSH3 0x461BCD PUSH1 0xE5 SHL DUP2 MSTORE PUSH1 0x20 PUSH1 0x4 DUP3 ADD MSTORE PUSH1 0xB PUSH1 0x24 DUP3 ADD MSTORE PUSH11 0x125B9D985B1A5908155493 PUSH1 0xAA SHL PUSH1 0x44 DUP3 ADD MSTORE PUSH1 0x64 SWAP1 REVERT JUMPDEST POP PUSH1 0xC8 DUP13 GT ISZERO PUSH2 0x3B0 JUMP JUMPDEST PUSH1 0x40 MLOAD PUSH3 0x461BCD PUSH1 0xE5 SHL DUP2 MSTORE PUSH1 0x20 PUSH1 0x4 DUP3 ADD MSTORE PUSH1 0xC PUSH1 0x24 DUP3 ADD MSTORE PUSH12 0x496E76616C6964206E616D65 PUSH1 0xA0 SHL PUSH1 0x44 DUP3 ADD MSTORE PUSH1 0x64 SWAP1 REVERT JUMPDEST PUSH1 0x64 SWAP2 POP GT ISZERO DUP15 PUSH2 0x3A1 JUMP JUMPDEST CALLVALUE PUSH2 0x268 JUMPI PUSH1 0x20 CALLDATASIZE PUSH1 0x3 NOT ADD SLT PUSH2 0x268 JUMPI PUSH1 0x4 CALLDATALOAD PUSH2 0x131F PUSH1 0x3 SLOAD DUP3 LT PUSH2 0x32E3 JUMP JUMPDEST PUSH1 0x0 MSTORE PUSH1 0x4 PUSH1 0x20 MSTORE PUSH2 0x134B PUSH2 0x1337 PUSH1 0x40 PUSH1 0x0 KECCAK256 PUSH2 0x34D3 JUMP JUMPDEST PUSH1 0x40 MLOAD SWAP2 DUP3 SWAP2 PUSH1 0x20 DUP4 MSTORE PUSH1 0x20 DUP4 ADD SWAP1 PUSH2 0x2F17 JUMP JUMPDEST SUB SWAP1 RETURN JUMPDEST CALLVALUE PUSH2 0x268 JUMPI PUSH1 0x0 CALLDATASIZE PUSH1 0x3 NOT ADD SLT PUSH2 0x268 JUMPI PUSH1 0x3 SLOAD PUSH1 0x0 DUP1 JUMPDEST DUP3 DUP2 LT PUSH2 0x1427 JUMPI POP PUSH2 0x1381 PUSH2 0x137B DUP3 PUSH2 0x2F7A JUMP JUMPDEST SWAP2 PUSH2 0x3024 JUMP JUMPDEST SWAP2 PUSH1 0x0 DUP1 JUMPDEST DUP3 DUP2 LT PUSH2 0x139F JUMPI POP POP POP PUSH2 0x134B PUSH1 0x40 MLOAD SWAP3 DUP4 SWAP3 DUP4 PUSH2 0x2E81 JUMP JUMPDEST PUSH2 0x13A8 DUP2 PUSH2 0x2B62 JUMP JUMPDEST POP SLOAD PUSH1 0x1 PUSH1 0x1 PUSH1 0xA0 SHL SUB AND CALLER EQ DUP1 PUSH2 0x1410 JUMPI JUMPDEST PUSH2 0x13C8 JUMPI JUMPDEST PUSH1 0x1 ADD PUSH2 0x1386 JUMP JUMPDEST SWAP1 PUSH2 0x1408 DUP2 DUP4 PUSH2 0x13DA PUSH1 0x1 SWAP5 DUP9 PUSH2 0x3074 JUMP JUMPDEST MSTORE PUSH2 0x13ED PUSH2 0x13E7 DUP6 PUSH2 0x2B62 JUMP JUMPDEST POP PUSH2 0x3088 JUMP JUMPDEST PUSH2 0x13F7 DUP3 DUP10 PUSH2 0x3074 JUMP JUMPDEST MSTORE PUSH2 0x1402 DUP2 DUP9 PUSH2 0x3074 JUMP JUMPDEST POP PUSH2 0x2F54 JUMP JUMPDEST SWAP2 SWAP1 POP PUSH2 0x13C0 JUMP JUMPDEST POP PUSH1 0xFF PUSH1 0x6 PUSH2 0x141E DUP4 PUSH2 0x2B62 JUMP JUMPDEST POP ADD SLOAD AND PUSH2 0x13BB JUMP JUMPDEST PUSH2 0x1430 DUP2 PUSH2 0x2B62 JUMP JUMPDEST POP SLOAD PUSH1 0x1 PUSH1 0x1 PUSH1 0xA0 SHL SUB AND CALLER EQ DUP1 PUSH2 0x1464 JUMPI JUMPDEST PUSH2 0x1450 JUMPI JUMPDEST PUSH1 0x1 ADD PUSH2 0x1367 JUMP JUMPDEST SWAP1 PUSH2 0x145C PUSH1 0x1 SWAP2 PUSH2 0x2F54 JUMP JUMPDEST SWAP2 SWAP1 POP PUSH2 0x1448 JUMP JUMPDEST POP PUSH1 0xFF PUSH1 0x6 PUSH2 0x1472 DUP4 PUSH2 0x2B62 JUMP JUMPDEST POP ADD SLOAD AND PUSH2 0x1443 JUMP JUMPDEST CALLVALUE PUSH2 0x268 JUMPI PUSH1 0x0 CALLDATASIZE PUSH1 0x3 NOT ADD SLT PUSH2 0x268 JUMPI PUSH1 0x20 PUSH1 0x40 MLOAD PUSH1 0xC8 DUP2 MSTORE RETURN JUMPDEST CALLVALUE PUSH2 0x268 JUMPI PUSH1 0x0 CALLDATASIZE PUSH1 0x3 NOT ADD SLT PUSH2 0x268 JUMPI PUSH1 0x3 SLOAD PUSH1 0x0 DUP1 JUMPDEST DUP3 DUP2 LT PUSH2 0x1519 JUMPI POP PUSH2 0x14C3 PUSH2 0x137B DUP3 PUSH2 0x2F7A JUMP JUMPDEST SWAP2 PUSH1 0x0 DUP1 JUMPDEST DUP3 DUP2 LT PUSH2 0x14E1 JUMPI POP POP POP PUSH2 0x134B PUSH1 0x40 MLOAD SWAP3 DUP4 SWAP3 DUP4 PUSH2 0x2E81 JUMP JUMPDEST PUSH1 0xFF PUSH1 0x6 PUSH2 0x14EE DUP4 PUSH2 0x2B62 JUMP JUMPDEST POP ADD SLOAD AND PUSH2 0x14FF JUMPI JUMPDEST PUSH1 0x1 ADD PUSH2 0x14C8 JUMP JUMPDEST SWAP1 PUSH2 0x1511 DUP2 DUP4 PUSH2 0x13DA PUSH1 0x1 SWAP5 DUP9 PUSH2 0x3074 JUMP JUMPDEST SWAP2 SWAP1 POP PUSH2 0x14F7 JUMP JUMPDEST PUSH1 0xFF PUSH1 0x6 PUSH2 0x1526 DUP4 PUSH2 0x2B62 JUMP JUMPDEST POP ADD SLOAD AND PUSH2 0x1537 JUMPI JUMPDEST PUSH1 0x1 ADD PUSH2 0x14AF JUMP JUMPDEST SWAP1 PUSH2 0x1543 PUSH1 0x1 SWAP2 PUSH2 0x2F54 JUMP JUMPDEST SWAP2 SWAP1 POP PUSH2 0x152F JUMP JUMPDEST CALLVALUE PUSH2 0x268 JUMPI PUSH1 0x20 CALLDATASIZE PUSH1 0x3 NOT ADD SLT PUSH2 0x268 JUMPI PUSH1 0x4 CALLDATALOAD PUSH2 0x1567 PUSH2 0x2FAC JUMP JUMPDEST POP PUSH1 0x3 SLOAD DUP2 LT ISZERO PUSH2 0x1601 JUMPI DUP1 PUSH2 0x134B PUSH2 0x1582 PUSH2 0x15E5 SWAP4 PUSH2 0x2B62 JUMP JUMPDEST POP DUP3 PUSH1 0x0 MSTORE PUSH1 0x4 PUSH1 0x20 MSTORE PUSH2 0x159A PUSH1 0x40 PUSH1 0x0 KECCAK256 SWAP4 PUSH2 0x2B62 JUMP JUMPDEST POP PUSH1 0x1 DUP1 PUSH1 0xA0 SHL SUB SWAP1 SLOAD AND PUSH1 0x0 MSTORE PUSH1 0x5 PUSH1 0x20 MSTORE PUSH2 0x15F3 PUSH2 0x15D0 PUSH2 0x15CA PUSH2 0x15C4 PUSH1 0x40 PUSH1 0x0 KECCAK256 SWAP5 PUSH2 0x3088 JUMP JUMPDEST SWAP6 PUSH2 0x34D3 JUMP JUMPDEST SWAP3 PUSH2 0x3190 JUMP JUMPDEST SWAP2 PUSH1 0x40 MLOAD SWAP6 DUP7 SWAP6 PUSH1 0x60 DUP8 MSTORE PUSH1 0x60 DUP8 ADD SWAP1 PUSH2 0x2D0F JUMP JUMPDEST SWAP1 DUP6 DUP3 SUB PUSH1 0x20 DUP8 ADD MSTORE PUSH2 0x2F17 JUMP JUMPDEST SWAP1 DUP4 DUP3 SUB PUSH1 0x40 DUP6 ADD MSTORE PUSH2 0x2E28 JUMP JUMPDEST PUSH1 0x40 MLOAD PUSH3 0x461BCD PUSH1 0xE5 SHL DUP2 MSTORE PUSH1 0x20 PUSH1 0x4 DUP3 ADD MSTORE PUSH1 0x14 PUSH1 0x24 DUP3 ADD MSTORE PUSH20 0x115D995B9D08191BD95CC81B9BDD08195E1A5CDD PUSH1 0x62 SHL PUSH1 0x44 DUP3 ADD MSTORE PUSH1 0x64 SWAP1 REVERT JUMPDEST CALLVALUE PUSH2 0x268 JUMPI PUSH1 0x0 CALLDATASIZE PUSH1 0x3 NOT ADD SLT PUSH2 0x268 JUMPI PUSH1 0x20 PUSH1 0x40 MLOAD PUSH10 0xD3C21BCECCEDA1000000 DUP2 MSTORE RETURN JUMPDEST CALLVALUE PUSH2 0x268 JUMPI PUSH1 0x0 CALLDATASIZE PUSH1 0x3 NOT ADD SLT PUSH2 0x268 JUMPI PUSH1 0x20 PUSH1 0x40 MLOAD PUSH1 0x96 DUP2 MSTORE RETURN JUMPDEST CALLVALUE PUSH2 0x268 JUMPI PUSH1 0x60 CALLDATASIZE PUSH1 0x3 NOT ADD SLT PUSH2 0x268 JUMPI PUSH2 0x1697 PUSH2 0x2ED4 JUMP JUMPDEST PUSH1 0x24 CALLDATALOAD SWAP1 PUSH1 0x44 CALLDATALOAD PUSH1 0x1 PUSH1 0x1 PUSH1 0x40 SHL SUB DUP2 GT PUSH2 0x268 JUMPI PUSH2 0x16BA SWAP1 CALLDATASIZE SWAP1 PUSH1 0x4 ADD PUSH2 0x2EEA JUMP JUMPDEST PUSH20 0x62B8B11039FCFE5AB0C56E502B1C372A3D2A9C7A CALLER SUB PUSH2 0x19BC JUMPI PUSH1 0x20 GT PUSH2 0x268 JUMPI CALLDATALOAD SWAP1 PUSH2 0x16EB PUSH1 0x3 SLOAD DUP4 LT PUSH2 0x3227 JUMP JUMPDEST PUSH2 0x1709 PUSH2 0x16F7 DUP4 PUSH2 0x2B62 JUMP JUMPDEST POP SLOAD PUSH1 0x1 PUSH1 0x1 PUSH1 0xA0 SHL SUB AND ISZERO ISZERO PUSH2 0x3263 JUMP JUMPDEST PUSH2 0x1718 PUSH1 0xFF PUSH1 0x2 SLOAD AND ISZERO PUSH2 0x32A5 JUMP JUMPDEST PUSH2 0x1721 DUP3 PUSH2 0x2B62 JUMP JUMPDEST POP SWAP1 PUSH1 0xA DUP3 ADD PUSH20 0x62B8B11039FCFE5AB0C56E502B1C372A3D2A9C7A PUSH1 0x1 DUP1 PUSH1 0xA0 SHL SUB DUP3 SLOAD PUSH1 0x10 SHR AND SUB PUSH2 0x1983 JUMPI PUSH2 0x1766 PUSH1 0x1 PUSH1 0x1 PUSH1 0x40 SHL SUB PUSH1 0x4 DUP6 ADD SLOAD AND TIMESTAMP LT PUSH2 0x336D JUMP JUMPDEST PUSH2 0x1776 PUSH1 0xFF PUSH1 0x6 DUP6 ADD SLOAD AND PUSH2 0x33A9 JUMP JUMPDEST DUP4 PUSH1 0x0 MSTORE PUSH1 0x6 PUSH1 0x20 MSTORE PUSH1 0x40 PUSH1 0x0 KECCAK256 PUSH1 0x1 DUP1 PUSH1 0xA0 SHL SUB DUP4 AND PUSH1 0x0 MSTORE PUSH1 0x20 MSTORE PUSH2 0x17A5 PUSH1 0xFF PUSH1 0x40 PUSH1 0x0 KECCAK256 SLOAD AND ISZERO PUSH2 0x33E6 JUMP JUMPDEST DUP4 PUSH1 0x0 MSTORE PUSH1 0x4 PUSH1 0x20 MSTORE PUSH2 0x17C0 PUSH2 0x1388 PUSH1 0x40 PUSH1 0x0 KECCAK256 SLOAD LT PUSH2 0x3426 JUMP JUMPDEST PUSH1 0x7 DUP4 ADD SLOAD DUP6 SUB PUSH2 0x194B JUMPI DUP4 PUSH1 0x0 MSTORE PUSH1 0x6 PUSH1 0x20 MSTORE PUSH1 0x40 PUSH1 0x0 KECCAK256 PUSH1 0x1 DUP1 PUSH1 0xA0 SHL SUB DUP4 AND PUSH1 0x0 MSTORE PUSH1 0x20 MSTORE PUSH1 0x40 PUSH1 0x0 KECCAK256 PUSH1 0x1 PUSH1 0xFF NOT DUP3 SLOAD AND OR SWAP1 SSTORE DUP4 PUSH1 0x0 MSTORE PUSH1 0x4 PUSH1 0x20 MSTORE PUSH2 0x180F DUP3 PUSH1 0x40 PUSH1 0x0 KECCAK256 PUSH2 0x34B0 JUMP JUMPDEST PUSH1 0x64 DUP6 MUL DUP6 DUP2 DIV PUSH1 0x64 EQ DUP7 ISZERO OR ISZERO PUSH2 0xA7C JUMPI PUSH2 0x2710 SWAP1 DIV PUSH2 0x1830 DUP2 DUP8 PUSH2 0x348B JUMP JUMPDEST SWAP1 DUP1 ISZERO ISZERO DUP1 PUSH2 0x1934 JUMPI JUMPDEST PUSH2 0x188C JUMPI JUMPDEST POP PUSH2 0x185E PUSH1 0x8 PUSH1 0x0 DUP1 MLOAD PUSH1 0x20 PUSH2 0x36C9 DUP4 CODECOPY DUP2 MLOAD SWAP2 MSTORE SWAP6 ADD SWAP2 DUP3 SLOAD PUSH2 0x3466 JUMP JUMPDEST SWAP1 SSTORE SLOAD PUSH1 0x40 DUP1 MLOAD SWAP6 DUP7 MSTORE PUSH1 0x1 PUSH1 0x1 PUSH1 0xA0 SHL SUB PUSH1 0x10 SWAP3 SWAP1 SWAP3 SHR DUP3 AND PUSH1 0x20 DUP8 ADD MSTORE SWAP2 AND SWAP4 LOG3 PUSH1 0x20 PUSH1 0x40 MLOAD PUSH1 0x1 DUP2 MSTORE RETURN JUMPDEST DUP3 SLOAD PUSH1 0x2 SLOAD PUSH1 0x40 MLOAD PUSH4 0xA9059CBB PUSH1 0xE0 SHL DUP2 MSTORE PUSH1 0x1 PUSH1 0x1 PUSH1 0xA0 SHL SUB PUSH1 0x8 SWAP3 SWAP1 SWAP3 SHR DUP3 AND PUSH1 0x4 DUP3 ADD MSTORE PUSH1 0x24 DUP2 ADD SWAP4 SWAP1 SWAP4 MSTORE PUSH1 0x20 SWAP2 DUP4 SWAP2 PUSH1 0x44 SWAP2 DUP4 SWAP2 PUSH1 0x0 SWAP2 PUSH1 0x10 SHR AND GAS CALL DUP1 ISZERO PUSH2 0x1928 JUMPI PUSH1 0x0 DUP1 MLOAD PUSH1 0x20 PUSH2 0x36C9 DUP4 CODECOPY DUP2 MLOAD SWAP2 MSTORE SWAP6 PUSH2 0x185E SWAP3 PUSH1 0x8 SWAP3 PUSH2 0x18F9 JUMPI JUMPDEST POP SWAP6 POP POP PUSH2 0x183F JUMP JUMPDEST PUSH2 0x191A SWAP1 PUSH1 0x20 RETURNDATASIZE PUSH1 0x20 GT PUSH2 0x1921 JUMPI JUMPDEST PUSH2 0x1912 DUP2 DUP4 PUSH2 0x2C09 JUMP JUMPDEST DUP2 ADD SWAP1 PUSH2 0x3473 JUMP JUMPDEST POP DUP10 PUSH2 0x18F0 JUMP JUMPDEST POP RETURNDATASIZE PUSH2 0x1908 JUMP JUMPDEST PUSH1 0x40 MLOAD RETURNDATASIZE PUSH1 0x0 DUP3 RETURNDATACOPY RETURNDATASIZE SWAP1 REVERT JUMPDEST POP PUSH1 0x2 SLOAD PUSH1 0x8 SHR PUSH1 0x1 PUSH1 0x1 PUSH1 0xA0 SHL SUB AND ISZERO ISZERO PUSH2 0x183A JUMP JUMPDEST PUSH1 0x40 MLOAD PUSH3 0x461BCD PUSH1 0xE5 SHL DUP2 MSTORE PUSH1 0x20 PUSH1 0x4 DUP3 ADD MSTORE PUSH1 0x10 PUSH1 0x24 DUP3 ADD MSTORE PUSH16 0x125B98DBDC9C9958DD08185B5BDD5B9D PUSH1 0x82 SHL PUSH1 0x44 DUP3 ADD MSTORE PUSH1 0x64 SWAP1 REVERT JUMPDEST PUSH1 0x40 MLOAD PUSH3 0x461BCD PUSH1 0xE5 SHL DUP2 MSTORE PUSH1 0x20 PUSH1 0x4 DUP3 ADD MSTORE PUSH1 0x11 PUSH1 0x24 DUP3 ADD MSTORE PUSH17 0x27B7363C903337B9102392103A37B5B2B7 PUSH1 0x79 SHL PUSH1 0x44 DUP3 ADD MSTORE PUSH1 0x64 SWAP1 REVERT JUMPDEST PUSH1 0x40 MLOAD PUSH3 0x461BCD PUSH1 0xE5 SHL DUP2 MSTORE PUSH1 0x20 PUSH1 0x4 DUP3 ADD MSTORE PUSH1 0xD PUSH1 0x24 DUP3 ADD MSTORE PUSH13 0x27B7363C902392103A37B5B2B7 PUSH1 0x99 SHL PUSH1 0x44 DUP3 ADD MSTORE PUSH1 0x64 SWAP1 REVERT JUMPDEST CALLVALUE PUSH2 0x268 JUMPI PUSH1 0x20 CALLDATASIZE PUSH1 0x3 NOT ADD SLT PUSH2 0x268 JUMPI PUSH1 0x4 CALLDATALOAD PUSH2 0x1A0D PUSH2 0x355E JUMP JUMPDEST PUSH2 0x1A1A PUSH1 0x3 SLOAD DUP3 LT PUSH2 0x3227 JUMP JUMPDEST PUSH2 0x1A26 PUSH2 0x16F7 DUP3 PUSH2 0x2B62 JUMP JUMPDEST PUSH2 0x1A35 PUSH1 0xFF PUSH1 0x2 SLOAD AND ISZERO PUSH2 0x32A5 JUMP JUMPDEST PUSH1 0x0 DUP2 DUP2 MSTORE PUSH1 0x6 PUSH1 0x20 SWAP1 DUP2 MSTORE PUSH1 0x40 DUP1 DUP4 KECCAK256 CALLER DUP5 MSTORE SWAP1 SWAP2 MSTORE SWAP1 KECCAK256 SLOAD PUSH1 0xFF AND ISZERO PUSH2 0x1DDB JUMPI PUSH1 0x7 PUSH2 0x1A62 DUP3 PUSH2 0x2B62 JUMP JUMPDEST POP ADD SLOAD SWAP1 PUSH2 0x1A6F DUP2 PUSH2 0x2B62 JUMP JUMPDEST POP PUSH1 0xA ADD SLOAD PUSH1 0x10 SHR PUSH1 0x1 PUSH1 0x1 PUSH1 0xA0 SHL SUB AND PUSH20 0x62B8B11039FCFE5AB0C56E502B1C372A3D2A9C7A DUP2 EQ PUSH2 0x1DBD JUMPI JUMPDEST DUP1 ISZERO DUP1 ISZERO PUSH2 0x1D68 JUMPI DUP3 PUSH1 0x0 MSTORE PUSH1 0x7 PUSH1 0x20 MSTORE DUP4 PUSH1 0x40 PUSH1 0x0 KECCAK256 SLOAD LT PUSH2 0x1D23 JUMPI DUP4 SWAP1 JUMPDEST PUSH1 0xFF PUSH1 0xA PUSH2 0x1AC9 DUP7 PUSH2 0x2B62 JUMP JUMPDEST POP ADD SLOAD AND ISZERO PUSH2 0x1CB4 JUMPI JUMPDEST PUSH1 0x0 DUP5 DUP2 MSTORE PUSH1 0x6 PUSH1 0x20 SWAP1 DUP2 MSTORE PUSH1 0x40 DUP1 DUP4 KECCAK256 CALLER DUP5 MSTORE SWAP1 SWAP2 MSTORE SWAP1 KECCAK256 DUP1 SLOAD PUSH1 0xFF NOT AND SWAP1 SSTORE ISZERO PUSH2 0x1C8A JUMPI POP POP DUP1 PUSH1 0x0 MSTORE PUSH1 0x7 PUSH1 0x20 MSTORE PUSH1 0x40 PUSH1 0x0 KECCAK256 PUSH2 0x1B14 DUP4 DUP3 SLOAD PUSH2 0x348B JUMP JUMPDEST SWAP1 SSTORE PUSH1 0x0 DUP1 DUP1 DUP1 DUP6 CALLER GAS CALL PUSH2 0x1B27 PUSH2 0x333D JUMP JUMPDEST POP ISZERO PUSH2 0x1C50 JUMPI JUMPDEST DUP1 PUSH1 0x0 MSTORE PUSH1 0x4 PUSH1 0x20 MSTORE PUSH1 0x40 PUSH1 0x0 KECCAK256 SWAP1 PUSH1 0x0 JUMPDEST DUP3 SLOAD DUP1 DUP3 LT ISZERO PUSH2 0x1C47 JUMPI PUSH2 0x1B54 DUP3 DUP6 PUSH2 0x3498 JUMP JUMPDEST SWAP1 SLOAD PUSH1 0x3 SWAP2 SWAP1 SWAP2 SHL SHR PUSH1 0x1 PUSH1 0x1 PUSH1 0xA0 SHL SUB AND CALLER EQ PUSH2 0x1B75 JUMPI POP PUSH1 0x1 ADD PUSH2 0x1B40 JUMP JUMPDEST SWAP2 SWAP3 SWAP2 PUSH1 0x0 NOT DUP2 ADD SWAP2 SWAP1 DUP3 GT PUSH2 0xA7C JUMPI PUSH2 0x1BAE PUSH2 0x1B95 PUSH2 0x1BD2 SWAP4 DUP6 PUSH2 0x3498 JUMP JUMPDEST SWAP1 SLOAD PUSH1 0x3 SWAP2 SWAP1 SWAP2 SHL SHR PUSH1 0x1 PUSH1 0x1 PUSH1 0xA0 SHL SUB AND SWAP2 DUP5 PUSH2 0x3498 JUMP JUMPDEST DUP2 SLOAD PUSH1 0x1 PUSH1 0x1 PUSH1 0xA0 SHL SUB SWAP4 DUP5 AND PUSH1 0x3 SWAP3 SWAP1 SWAP3 SHL SWAP2 DUP3 SHL SWAP4 SWAP1 SWAP2 SHL NOT AND SWAP2 SWAP1 SWAP2 OR SWAP1 SSTORE JUMP JUMPDEST DUP1 SLOAD DUP1 ISZERO PUSH2 0x1C31 JUMPI PUSH1 0x0 NOT ADD SWAP1 PUSH2 0x1BE9 DUP3 DUP3 PUSH2 0x3498 JUMP JUMPDEST DUP2 SLOAD SWAP1 PUSH1 0x1 DUP1 PUSH1 0xA0 SHL SUB SWAP1 PUSH1 0x3 SHL SHL NOT AND SWAP1 SSTORE SSTORE JUMPDEST PUSH1 0x40 MLOAD SWAP2 DUP3 MSTORE PUSH32 0x7A482FDEB6BC9A1376F597068A214A7A39472BB2EFF1B8CAD21BA04F49DDCA1B PUSH1 0x20 CALLER SWAP4 LOG3 PUSH1 0x1 PUSH1 0x0 SSTORE STOP JUMPDEST PUSH4 0x4E487B71 PUSH1 0xE0 SHL PUSH1 0x0 MSTORE PUSH1 0x31 PUSH1 0x4 MSTORE PUSH1 0x24 PUSH1 0x0 REVERT JUMPDEST POP POP SWAP1 POP PUSH2 0x1BFE JUMP JUMPDEST PUSH1 0x40 MLOAD PUSH3 0x461BCD PUSH1 0xE5 SHL DUP2 MSTORE PUSH1 0x20 PUSH1 0x4 DUP3 ADD MSTORE PUSH1 0x12 PUSH1 0x24 DUP3 ADD MSTORE PUSH18 0x10D15313C81C99599D5B990819985A5B1959 PUSH1 0x72 SHL PUSH1 0x44 DUP3 ADD MSTORE PUSH1 0x64 SWAP1 REVERT JUMPDEST PUSH2 0x1CAF SWAP2 PUSH1 0x8 PUSH2 0x1C99 DUP6 PUSH2 0x2B62 JUMP JUMPDEST POP ADD PUSH2 0x1CA6 DUP4 DUP3 SLOAD PUSH2 0x348B JUMP JUMPDEST SWAP1 SSTORE CALLER SWAP1 PUSH2 0x3580 JUMP JUMPDEST PUSH2 0x1B2E JUMP JUMPDEST SWAP1 POP PUSH1 0x1 PUSH1 0x1 PUSH1 0x40 SHL SUB PUSH1 0x4 PUSH2 0x1CC9 DUP6 PUSH2 0x2B62 JUMP JUMPDEST POP ADD SLOAD AND PUSH2 0x464F NOT DUP2 ADD SWAP1 DUP2 GT PUSH2 0xA7C JUMPI TIMESTAMP LT ISZERO PUSH2 0x1CE8 JUMPI DUP4 SWAP1 PUSH2 0x1AD3 JUMP JUMPDEST PUSH1 0x40 MLOAD PUSH3 0x461BCD PUSH1 0xE5 SHL DUP2 MSTORE PUSH1 0x20 PUSH1 0x4 DUP3 ADD MSTORE PUSH1 0x13 PUSH1 0x24 DUP3 ADD MSTORE PUSH19 0x1499599D5B99081C195C9A5BD908195B991959 PUSH1 0x6A SHL PUSH1 0x44 DUP3 ADD MSTORE PUSH1 0x64 SWAP1 REVERT JUMPDEST PUSH1 0x40 MLOAD PUSH3 0x461BCD PUSH1 0xE5 SHL DUP2 MSTORE PUSH1 0x20 PUSH1 0x4 DUP3 ADD MSTORE PUSH1 0x17 PUSH1 0x24 DUP3 ADD MSTORE PUSH32 0x496E73756666696369656E742043454C4F2066756E6473000000000000000000 PUSH1 0x44 DUP3 ADD MSTORE PUSH1 0x64 SWAP1 REVERT JUMPDEST DUP4 PUSH1 0x8 PUSH2 0x1D74 DUP6 PUSH2 0x2B62 JUMP JUMPDEST POP ADD SLOAD LT PUSH2 0x1D83 JUMPI DUP4 SWAP1 PUSH2 0x1ABC JUMP JUMPDEST PUSH1 0x40 MLOAD PUSH3 0x461BCD PUSH1 0xE5 SHL DUP2 MSTORE PUSH1 0x20 PUSH1 0x4 DUP3 ADD MSTORE PUSH1 0x12 PUSH1 0x24 DUP3 ADD MSTORE PUSH18 0x496E73756666696369656E742066756E6473 PUSH1 0x70 SHL PUSH1 0x44 DUP3 ADD MSTORE PUSH1 0x64 SWAP1 REVERT JUMPDEST SWAP2 PUSH1 0x63 DUP2 MUL SWAP1 DUP1 DUP3 DIV PUSH1 0x63 EQ SWAP1 ISZERO OR ISZERO PUSH2 0xA7C JUMPI PUSH1 0x64 SWAP1 DIV SWAP2 PUSH2 0x1A9C JUMP JUMPDEST PUSH1 0x40 MLOAD PUSH3 0x461BCD PUSH1 0xE5 SHL DUP2 MSTORE PUSH1 0x20 PUSH1 0x4 DUP3 ADD MSTORE PUSH1 0x13 PUSH1 0x24 DUP3 ADD MSTORE PUSH19 0x139BC81D1A58DAD95D081C1D5C98DA185CD959 PUSH1 0x6A SHL PUSH1 0x44 DUP3 ADD MSTORE PUSH1 0x64 SWAP1 REVERT JUMPDEST CALLVALUE PUSH2 0x268 JUMPI PUSH1 0x0 CALLDATASIZE PUSH1 0x3 NOT ADD SLT PUSH2 0x268 JUMPI PUSH1 0x2 SLOAD PUSH1 0x40 MLOAD PUSH1 0x8 SWAP2 SWAP1 SWAP2 SHR PUSH1 0x1 PUSH1 0x1 PUSH1 0xA0 SHL SUB AND DUP2 MSTORE PUSH1 0x20 SWAP1 RETURN JUMPDEST CALLVALUE PUSH2 0x268 JUMPI PUSH1 0x0 CALLDATASIZE PUSH1 0x3 NOT ADD SLT PUSH2 0x268 JUMPI PUSH1 0x20 PUSH1 0x40 MLOAD PUSH1 0x64 DUP2 MSTORE RETURN JUMPDEST CALLVALUE PUSH2 0x268 JUMPI PUSH1 0x20 CALLDATASIZE PUSH1 0x3 NOT ADD SLT PUSH2 0x268 JUMPI PUSH1 0x1 PUSH1 0x1 PUSH1 0xA0 SHL SUB PUSH2 0x1E80 PUSH2 0x2ED4 JUMP JUMPDEST AND PUSH1 0x0 MSTORE PUSH1 0x9 PUSH1 0x20 MSTORE PUSH1 0x20 PUSH1 0x40 PUSH1 0x0 KECCAK256 SLOAD PUSH1 0x40 MLOAD SWAP1 DUP2 MSTORE RETURN JUMPDEST CALLVALUE PUSH2 0x268 JUMPI PUSH1 0x0 CALLDATASIZE PUSH1 0x3 NOT ADD SLT PUSH2 0x268 JUMPI PUSH1 0x20 PUSH1 0x40 MLOAD PUSH2 0x4650 DUP2 MSTORE RETURN JUMPDEST CALLVALUE PUSH2 0x268 JUMPI PUSH1 0x20 CALLDATASIZE PUSH1 0x3 NOT ADD SLT PUSH2 0x268 JUMPI PUSH1 0x4 CALLDATALOAD DUP1 ISZERO PUSH2 0x1F7A JUMPI PUSH1 0x40 MLOAD PUSH4 0x23B872DD PUSH1 0xE0 SHL PUSH1 0x20 DUP3 ADD MSTORE CALLER PUSH1 0x24 DUP3 ADD MSTORE ADDRESS PUSH1 0x44 DUP3 ADD MSTORE PUSH1 0x64 DUP1 DUP3 ADD DUP4 SWAP1 MSTORE DUP2 MSTORE PUSH2 0x1F2B SWAP1 PUSH2 0x1F05 PUSH1 0x84 DUP3 PUSH2 0x2C09 JUMP JUMPDEST PUSH32 0x0 PUSH2 0x366D JUMP JUMPDEST CALLER PUSH1 0x0 MSTORE PUSH1 0x9 PUSH1 0x20 MSTORE PUSH1 0x40 PUSH1 0x0 KECCAK256 PUSH2 0x1F44 DUP3 DUP3 SLOAD PUSH2 0x3466 JUMP JUMPDEST SWAP1 SSTORE PUSH1 0x40 MLOAD SWAP1 DUP1 DUP3 MSTORE PUSH1 0x20 DUP3 ADD MSTORE PUSH32 0x2A91574E12AD96234E84923E146B0946ECFB871CD8D5534DC1FDCBE87A7C01B3 PUSH1 0x40 CALLER SWAP3 LOG2 STOP JUMPDEST PUSH1 0x40 MLOAD PUSH3 0x461BCD PUSH1 0xE5 SHL DUP2 MSTORE PUSH1 0x20 PUSH1 0x4 DUP3 ADD MSTORE PUSH1 0x14 PUSH1 0x24 DUP3 ADD MSTORE PUSH20 0x125B9D985B1A59081D1A58DAD95D0818DBDD5B9D PUSH1 0x62 SHL PUSH1 0x44 DUP3 ADD MSTORE PUSH1 0x64 SWAP1 REVERT JUMPDEST CALLVALUE PUSH2 0x268 JUMPI PUSH1 0x20 CALLDATASIZE PUSH1 0x3 NOT ADD SLT PUSH2 0x268 JUMPI PUSH1 0x1 PUSH1 0x1 PUSH1 0xA0 SHL SUB PUSH2 0x1FD7 PUSH2 0x2ED4 JUMP JUMPDEST AND PUSH1 0x0 MSTORE PUSH1 0x1 PUSH1 0x20 MSTORE PUSH1 0x20 PUSH1 0xFF PUSH1 0x40 PUSH1 0x0 KECCAK256 SLOAD AND PUSH1 0x40 MLOAD SWAP1 ISZERO ISZERO DUP2 MSTORE RETURN JUMPDEST PUSH1 0x20 CALLDATASIZE PUSH1 0x3 NOT ADD SLT PUSH2 0x268 JUMPI PUSH1 0x4 CALLDATALOAD PUSH2 0x200C PUSH2 0x355E JUMP JUMPDEST PUSH2 0x2019 PUSH1 0x3 SLOAD DUP3 LT PUSH2 0x3227 JUMP JUMPDEST PUSH2 0x2025 PUSH2 0x16F7 DUP3 PUSH2 0x2B62 JUMP JUMPDEST PUSH2 0x2034 PUSH1 0xFF PUSH1 0x2 SLOAD AND ISZERO PUSH2 0x32A5 JUMP JUMPDEST PUSH2 0x203D DUP2 PUSH2 0x2B62 JUMP JUMPDEST POP SWAP1 PUSH2 0x2057 PUSH1 0x1 PUSH1 0x1 PUSH1 0x40 SHL SUB PUSH1 0x4 DUP5 ADD SLOAD AND TIMESTAMP LT PUSH2 0x336D JUMP JUMPDEST PUSH2 0x2067 PUSH1 0xFF PUSH1 0x6 DUP5 ADD SLOAD AND PUSH2 0x33A9 JUMP JUMPDEST PUSH1 0x0 DUP2 DUP2 MSTORE PUSH1 0x6 PUSH1 0x20 SWAP1 DUP2 MSTORE PUSH1 0x40 DUP1 DUP4 KECCAK256 CALLER DUP5 MSTORE SWAP1 SWAP2 MSTORE SWAP1 KECCAK256 SLOAD PUSH2 0x208E SWAP1 PUSH1 0xFF AND ISZERO PUSH2 0x33E6 JUMP JUMPDEST DUP1 PUSH1 0x0 MSTORE PUSH1 0x4 PUSH1 0x20 MSTORE PUSH2 0x20A9 PUSH2 0x1388 PUSH1 0x40 PUSH1 0x0 KECCAK256 SLOAD LT PUSH2 0x3426 JUMP JUMPDEST PUSH1 0x7 DUP3 ADD SLOAD PUSH1 0xA DUP4 ADD DUP1 SLOAD SWAP2 SWAP4 SWAP1 SWAP2 PUSH1 0x10 SHR PUSH1 0x1 PUSH1 0x1 PUSH1 0xA0 SHL SUB AND DUP1 PUSH2 0x21B2 JUMPI POP POP DUP3 CALLVALUE SUB PUSH2 0x2175 JUMPI PUSH2 0x216B PUSH1 0x0 DUP1 MLOAD PUSH1 0x20 PUSH2 0x36C9 DUP4 CODECOPY DUP2 MLOAD SWAP2 MSTORE SWAP2 DUP4 PUSH1 0x0 MSTORE PUSH1 0x7 PUSH1 0x20 MSTORE PUSH1 0x40 PUSH1 0x0 KECCAK256 PUSH2 0x20FE DUP7 DUP3 SLOAD PUSH2 0x3466 JUMP JUMPDEST SWAP1 SSTORE JUMPDEST DUP4 PUSH1 0x0 MSTORE PUSH1 0x6 PUSH1 0x20 MSTORE PUSH1 0x40 PUSH1 0x0 KECCAK256 PUSH1 0x1 DUP1 PUSH1 0xA0 SHL SUB CALLER AND PUSH1 0x0 MSTORE PUSH1 0x20 MSTORE PUSH1 0x40 PUSH1 0x0 KECCAK256 PUSH1 0x1 PUSH1 0xFF NOT DUP3 SLOAD AND OR SWAP1 SSTORE DUP4 PUSH1 0x0 MSTORE PUSH1 0x4 PUSH1 0x20 MSTORE PUSH2 0x2145 CALLER PUSH1 0x40 PUSH1 0x0 KECCAK256 PUSH2 0x34B0 JUMP JUMPDEST SLOAD PUSH1 0x40 DUP1 MLOAD SWAP6 DUP7 MSTORE PUSH1 0x10 SWAP2 SWAP1 SWAP2 SHR PUSH1 0x1 PUSH1 0x1 PUSH1 0xA0 SHL SUB AND PUSH1 0x20 DUP7 ADD MSTORE CALLER SWAP5 SWAP2 DUP3 SWAP2 DUP3 ADD SWAP1 JUMP JUMPDEST SUB SWAP1 LOG3 PUSH1 0x1 PUSH1 0x0 SSTORE STOP JUMPDEST PUSH1 0x40 MLOAD PUSH3 0x461BCD PUSH1 0xE5 SHL DUP2 MSTORE PUSH1 0x20 PUSH1 0x4 DUP3 ADD MSTORE PUSH1 0x15 PUSH1 0x24 DUP3 ADD MSTORE PUSH21 0x125B98DBDC9C9958DD0810D15313C8185B5BDD5B9D PUSH1 0x5A SHL PUSH1 0x44 DUP3 ADD MSTORE PUSH1 0x64 SWAP1 REVERT JUMPDEST PUSH20 0x62B8B11039FCFE5AB0C56E502B1C372A3D2A9C7A DUP2 SUB PUSH2 0x2295 JUMPI POP PUSH1 0x0 SWAP2 PUSH1 0x20 PUSH2 0x2230 PUSH1 0x40 MLOAD DUP7 DUP4 DUP3 ADD MSTORE DUP3 DUP2 MSTORE PUSH2 0x21EC PUSH1 0x40 DUP3 PUSH2 0x2C09 JUMP JUMPDEST DUP4 SLOAD PUSH1 0x40 MLOAD PUSH4 0x2000575 PUSH1 0xE5 SHL DUP2 MSTORE ADDRESS PUSH1 0x4 DUP3 ADD MSTORE PUSH1 0x24 DUP2 ADD DUP11 SWAP1 MSTORE PUSH1 0x60 PUSH1 0x44 DUP3 ADD MSTORE SWAP7 DUP8 SWAP4 PUSH1 0x10 SWAP3 SWAP1 SWAP3 SHR PUSH1 0x1 PUSH1 0x1 PUSH1 0xA0 SHL SUB AND SWAP3 DUP5 SWAP3 DUP4 SWAP2 PUSH1 0x64 DUP4 ADD SWAP1 PUSH2 0x2CCE JUMP JUMPDEST SUB SWAP3 GAS CALL SWAP2 DUP3 ISZERO PUSH2 0x1928 JUMPI PUSH1 0x0 DUP1 MLOAD PUSH1 0x20 PUSH2 0x36C9 DUP4 CODECOPY DUP2 MLOAD SWAP2 MSTORE SWAP4 PUSH2 0x216B SWAP4 PUSH2 0x2278 JUMPI JUMPDEST POP PUSH2 0x2271 PUSH1 0x8 PUSH2 0x2267 PUSH1 0x64 DUP10 DIV DUP10 PUSH2 0x348B JUMP JUMPDEST SWAP3 ADD SWAP2 DUP3 SLOAD PUSH2 0x3466 JUMP JUMPDEST SWAP1 SSTORE PUSH2 0x2101 JUMP JUMPDEST PUSH2 0x2290 SWAP1 PUSH1 0x20 RETURNDATASIZE PUSH1 0x20 GT PUSH2 0x1921 JUMPI PUSH2 0x1912 DUP2 DUP4 PUSH2 0x2C09 JUMP JUMPDEST PUSH2 0x2254 JUMP JUMPDEST PUSH20 0x48065FBBE25F71C9282DDF5E1CD6D6A887483D5E DUP2 SUB PUSH2 0x22ED JUMPI POP PUSH1 0x0 DUP1 MLOAD PUSH1 0x20 PUSH2 0x36C9 DUP4 CODECOPY DUP2 MLOAD SWAP2 MSTORE SWAP2 PUSH1 0x8 PUSH2 0x216B SWAP3 PUSH2 0x22E1 DUP8 PUSH1 0x1 DUP1 PUSH1 0xA0 SHL SUB DUP6 SLOAD PUSH1 0x10 SHR AND ADDRESS SWAP1 CALLER SWAP1 PUSH2 0x35C1 JUMP JUMPDEST ADD PUSH2 0x2271 DUP7 DUP3 SLOAD PUSH2 0x3466 JUMP JUMPDEST SWAP2 PUSH1 0x40 MLOAD PUSH4 0x6EB1769F PUSH1 0xE1 SHL DUP2 MSTORE CALLER PUSH1 0x4 DUP3 ADD MSTORE ADDRESS PUSH1 0x24 DUP3 ADD MSTORE PUSH1 0x20 DUP2 PUSH1 0x44 DUP2 DUP8 GAS STATICCALL DUP1 ISZERO PUSH2 0x1928 JUMPI DUP7 SWAP2 PUSH1 0x0 SWAP2 PUSH2 0x2387 JUMPI JUMPDEST POP LT PUSH2 0x2349 JUMPI PUSH1 0x8 PUSH2 0x216B SWAP3 PUSH2 0x22E1 DUP8 PUSH1 0x0 DUP1 MLOAD PUSH1 0x20 PUSH2 0x36C9 DUP4 CODECOPY DUP2 MLOAD SWAP2 MSTORE SWAP7 ADDRESS SWAP1 CALLER SWAP1 PUSH2 0x35C1 JUMP JUMPDEST PUSH1 0x40 MLOAD PUSH3 0x461BCD PUSH1 0xE5 SHL DUP2 MSTORE PUSH1 0x20 PUSH1 0x4 DUP3 ADD MSTORE PUSH1 0x16 PUSH1 0x24 DUP3 ADD MSTORE PUSH22 0x496E73756666696369656E7420616C6C6F77616E6365 PUSH1 0x50 SHL PUSH1 0x44 DUP3 ADD MSTORE PUSH1 0x64 SWAP1 REVERT JUMPDEST SWAP2 POP POP PUSH1 0x20 DUP2 RETURNDATASIZE PUSH1 0x20 GT PUSH2 0x23B4 JUMPI JUMPDEST DUP2 PUSH2 0x23A3 PUSH1 0x20 SWAP4 DUP4 PUSH2 0x2C09 JUMP JUMPDEST DUP2 ADD SUB SLT PUSH2 0x268 JUMPI DUP6 SWAP1 MLOAD DUP8 PUSH2 0x2320 JUMP JUMPDEST RETURNDATASIZE SWAP2 POP PUSH2 0x2396 JUMP JUMPDEST CALLVALUE PUSH2 0x268 JUMPI PUSH1 0x0 CALLDATASIZE PUSH1 0x3 NOT ADD SLT PUSH2 0x268 JUMPI PUSH1 0x20 PUSH1 0x40 MLOAD PUSH2 0x1388 DUP2 MSTORE RETURN JUMPDEST CALLVALUE PUSH2 0x268 JUMPI PUSH1 0x0 CALLDATASIZE PUSH1 0x3 NOT ADD SLT PUSH2 0x268 JUMPI PUSH1 0x20 PUSH1 0x3 SLOAD PUSH1 0x40 MLOAD SWAP1 DUP2 MSTORE RETURN JUMPDEST CALLVALUE PUSH2 0x268 JUMPI PUSH1 0x0 CALLDATASIZE PUSH1 0x3 NOT ADD SLT PUSH2 0x268 JUMPI PUSH1 0x20 PUSH1 0xFF PUSH1 0x2 SLOAD AND PUSH1 0x40 MLOAD SWAP1 ISZERO ISZERO DUP2 MSTORE RETURN JUMPDEST CALLVALUE PUSH2 0x268 JUMPI PUSH1 0x0 CALLDATASIZE PUSH1 0x3 NOT ADD SLT PUSH2 0x268 JUMPI PUSH1 0x20 PUSH1 0x40 MLOAD PUSH2 0x3E8 DUP2 MSTORE RETURN JUMPDEST CALLVALUE PUSH2 0x268 JUMPI PUSH1 0x20 CALLDATASIZE PUSH1 0x3 NOT ADD SLT PUSH2 0x268 JUMPI PUSH1 0x4 CALLDATALOAD PUSH2 0x2469 PUSH2 0x2457 DUP3 PUSH2 0x2B62 JUMP JUMPDEST POP SLOAD PUSH1 0x1 PUSH1 0x1 PUSH1 0xA0 SHL SUB AND CALLER EQ PUSH2 0x31E9 JUMP JUMPDEST PUSH2 0x2471 PUSH2 0x355E JUMP JUMPDEST PUSH2 0x247E PUSH1 0x3 SLOAD DUP3 LT PUSH2 0x32E3 JUMP JUMPDEST PUSH1 0x1 PUSH1 0x1 PUSH1 0x40 SHL SUB PUSH1 0x4 PUSH2 0x2491 DUP4 PUSH2 0x2B62 JUMP JUMPDEST POP ADD SLOAD PUSH1 0x40 SHR AND TIMESTAMP GT ISZERO PUSH2 0x2685 JUMPI PUSH1 0xFF PUSH1 0xA PUSH2 0x24AC DUP4 PUSH2 0x2B62 JUMP JUMPDEST POP ADD SLOAD AND PUSH2 0x2630 JUMPI PUSH1 0xFF PUSH1 0xA PUSH2 0x24C1 DUP4 PUSH2 0x2B62 JUMP JUMPDEST POP ADD SLOAD PUSH1 0x8 SHR AND PUSH2 0x25F2 JUMPI PUSH2 0x24D5 DUP2 PUSH2 0x2B62 JUMP JUMPDEST POP PUSH1 0xA ADD SLOAD PUSH1 0x10 SHR PUSH1 0x1 PUSH1 0x1 PUSH1 0xA0 SHL SUB AND DUP1 PUSH2 0x259F JUMPI POP PUSH1 0x0 DUP2 DUP2 MSTORE PUSH1 0x7 PUSH1 0x20 MSTORE PUSH1 0x40 DUP2 KECCAK256 DUP1 SLOAD SWAP1 DUP3 SWAP1 SSTORE SWAP1 DUP1 DUP1 DUP1 DUP5 CALLER GAS CALL PUSH2 0x2510 PUSH2 0x333D JUMP JUMPDEST POP ISZERO PUSH2 0x2563 JUMPI PUSH1 0x20 PUSH32 0x80230996023D69B50793FA73F1919127C9D8E741D3989743C479169F22E7A288 SWAP2 JUMPDEST PUSH1 0xA PUSH2 0x2546 DUP6 PUSH2 0x2B62 JUMP JUMPDEST POP ADD DUP1 SLOAD PUSH2 0xFF00 NOT AND PUSH2 0x100 OR SWAP1 SSTORE PUSH1 0x40 MLOAD SWAP1 DUP2 MSTORE LOG2 PUSH1 0x1 PUSH1 0x0 SSTORE STOP JUMPDEST PUSH1 0x40 MLOAD PUSH3 0x461BCD PUSH1 0xE5 SHL DUP2 MSTORE PUSH1 0x20 PUSH1 0x4 DUP3 ADD MSTORE PUSH1 0x14 PUSH1 0x24 DUP3 ADD MSTORE PUSH20 0x10D15313C81D1C985B9CD9995C8819985A5B1959 PUSH1 0x62 SHL PUSH1 0x44 DUP3 ADD MSTORE PUSH1 0x64 SWAP1 REVERT JUMPDEST PUSH1 0x20 PUSH32 0x80230996023D69B50793FA73F1919127C9D8E741D3989743C479169F22E7A288 SWAP2 PUSH2 0x25ED PUSH1 0x8 PUSH2 0x25D1 DUP7 PUSH2 0x2B62 JUMP JUMPDEST POP ADD SLOAD DUP1 SWAP3 PUSH1 0x0 PUSH1 0x8 PUSH2 0x25E3 DUP10 PUSH2 0x2B62 JUMP JUMPDEST POP ADD SSTORE CALLER SWAP1 PUSH2 0x3580 JUMP JUMPDEST PUSH2 0x253B JUMP JUMPDEST PUSH1 0x40 MLOAD PUSH3 0x461BCD PUSH1 0xE5 SHL DUP2 MSTORE PUSH1 0x20 PUSH1 0x4 DUP3 ADD MSTORE PUSH1 0x16 PUSH1 0x24 DUP3 ADD MSTORE PUSH22 0x119D5B991CC8185B1C9958591E481C995B19585CD959 PUSH1 0x52 SHL PUSH1 0x44 DUP3 ADD MSTORE PUSH1 0x64 SWAP1 REVERT JUMPDEST PUSH1 0x40 MLOAD PUSH3 0x461BCD PUSH1 0xE5 SHL DUP2 MSTORE PUSH1 0x20 PUSH1 0x4 DUP3 ADD MSTORE PUSH1 0x27 PUSH1 0x24 DUP3 ADD MSTORE PUSH32 0x43616E6E6F742072656C656173652066756E647320666F722063616E63656C65 PUSH1 0x44 DUP3 ADD MSTORE PUSH7 0x1908195D995B9D PUSH1 0xCA SHL PUSH1 0x64 DUP3 ADD MSTORE PUSH1 0x84 SWAP1 REVERT JUMPDEST PUSH1 0x40 MLOAD PUSH3 0x461BCD PUSH1 0xE5 SHL DUP2 MSTORE PUSH1 0x20 PUSH1 0x4 DUP3 ADD MSTORE PUSH1 0x17 PUSH1 0x24 DUP3 ADD MSTORE PUSH32 0x4576656E7420686173206E6F7420656E64656420796574000000000000000000 PUSH1 0x44 DUP3 ADD MSTORE PUSH1 0x64 SWAP1 REVERT JUMPDEST CALLVALUE PUSH2 0x268 JUMPI PUSH1 0x20 CALLDATASIZE PUSH1 0x3 NOT ADD SLT PUSH2 0x268 JUMPI PUSH1 0x4 CALLDATALOAD PUSH1 0x0 MSTORE PUSH1 0x7 PUSH1 0x20 MSTORE PUSH1 0x20 PUSH1 0x40 PUSH1 0x0 KECCAK256 SLOAD PUSH1 0x40 MLOAD SWAP1 DUP2 MSTORE RETURN JUMPDEST CALLVALUE PUSH2 0x268 JUMPI PUSH1 0x40 CALLDATASIZE PUSH1 0x3 NOT ADD SLT PUSH2 0x268 JUMPI PUSH1 0x24 CALLDATALOAD PUSH1 0x1 PUSH1 0x1 PUSH1 0xA0 SHL SUB DUP2 AND DUP2 SUB PUSH2 0x268 JUMPI PUSH1 0x4 CALLDATALOAD PUSH1 0x0 MSTORE PUSH1 0x6 PUSH1 0x20 MSTORE PUSH1 0x40 PUSH1 0x0 KECCAK256 SWAP1 PUSH1 0x1 DUP1 PUSH1 0xA0 SHL SUB AND PUSH1 0x0 MSTORE PUSH1 0x20 MSTORE PUSH1 0x20 PUSH1 0xFF PUSH1 0x40 PUSH1 0x0 KECCAK256 SLOAD AND PUSH1 0x40 MLOAD SWAP1 ISZERO ISZERO DUP2 MSTORE RETURN JUMPDEST CALLVALUE PUSH2 0x268 JUMPI PUSH1 0x20 CALLDATASIZE PUSH1 0x3 NOT ADD SLT PUSH2 0x268 JUMPI PUSH1 0x4 CALLDATALOAD PUSH2 0x276E PUSH2 0x2457 DUP3 PUSH2 0x2B62 JUMP JUMPDEST PUSH2 0x277B PUSH1 0x3 SLOAD DUP3 LT PUSH2 0x3227 JUMP JUMPDEST PUSH2 0x2787 PUSH2 0x16F7 DUP3 PUSH2 0x2B62 JUMP JUMPDEST PUSH2 0x2796 PUSH1 0xFF PUSH1 0x2 SLOAD AND ISZERO PUSH2 0x32A5 JUMP JUMPDEST PUSH1 0xFF PUSH1 0x6 PUSH2 0x27A3 DUP4 PUSH2 0x2B62 JUMP JUMPDEST POP ADD SLOAD AND ISZERO PUSH2 0x2800 JUMPI PUSH1 0x6 PUSH2 0x27B7 DUP3 PUSH2 0x2B62 JUMP JUMPDEST POP ADD DUP1 SLOAD PUSH1 0xFF NOT AND SWAP1 SSTORE PUSH1 0xA PUSH2 0x27CC DUP3 PUSH2 0x2B62 JUMP JUMPDEST POP ADD DUP1 SLOAD PUSH1 0xFF NOT AND PUSH1 0x1 OR SWAP1 SSTORE PUSH32 0xCEAF11772900FE569752A0207C8639FB8228EB8663456DC9EAA3A08F927A8705 PUSH1 0x0 DUP1 LOG2 STOP JUMPDEST PUSH1 0x40 MLOAD PUSH3 0x461BCD PUSH1 0xE5 SHL DUP2 MSTORE PUSH1 0x20 PUSH1 0x4 DUP3 ADD MSTORE PUSH1 0x10 PUSH1 0x24 DUP3 ADD MSTORE PUSH16 0x105B1C9958591E4818D85B98D95B1959 PUSH1 0x82 SHL PUSH1 0x44 DUP3 ADD MSTORE PUSH1 0x64 SWAP1 REVERT JUMPDEST CALLVALUE PUSH2 0x268 JUMPI PUSH1 0x0 CALLDATASIZE PUSH1 0x3 NOT ADD SLT PUSH2 0x268 JUMPI PUSH1 0x40 MLOAD PUSH32 0x0 PUSH1 0x1 PUSH1 0x1 PUSH1 0xA0 SHL SUB AND DUP2 MSTORE PUSH1 0x20 SWAP1 RETURN JUMPDEST CALLVALUE PUSH2 0x268 JUMPI PUSH1 0x20 CALLDATASIZE PUSH1 0x3 NOT ADD SLT PUSH2 0x268 JUMPI PUSH1 0x1 PUSH1 0x1 PUSH1 0xA0 SHL SUB PUSH2 0x289E PUSH2 0x2ED4 JUMP JUMPDEST AND PUSH1 0x0 MSTORE PUSH1 0x5 PUSH1 0x20 MSTORE PUSH2 0x134B PUSH2 0x28B7 PUSH1 0x40 PUSH1 0x0 KECCAK256 PUSH2 0x3190 JUMP JUMPDEST PUSH1 0x40 MLOAD SWAP2 DUP3 SWAP2 PUSH1 0x20 DUP4 MSTORE PUSH1 0x20 DUP4 ADD SWAP1 PUSH2 0x2E28 JUMP JUMPDEST CALLVALUE PUSH2 0x268 JUMPI PUSH1 0x0 CALLDATASIZE PUSH1 0x3 NOT ADD SLT PUSH2 0x268 JUMPI PUSH1 0x20 PUSH1 0x40 MLOAD PUSH2 0xE10 DUP2 MSTORE RETURN JUMPDEST CALLVALUE PUSH2 0x268 JUMPI PUSH1 0x0 CALLDATASIZE PUSH1 0x3 NOT ADD SLT PUSH2 0x268 JUMPI PUSH1 0x20 PUSH1 0x8 SLOAD PUSH1 0x40 MLOAD SWAP1 DUP2 MSTORE RETURN JUMPDEST CALLVALUE PUSH2 0x268 JUMPI PUSH1 0x0 CALLDATASIZE PUSH1 0x3 NOT ADD SLT PUSH2 0x268 JUMPI PUSH1 0x3 SLOAD CALLER SWAP1 PUSH1 0x0 SWAP1 DUP2 JUMPDEST DUP2 DUP2 LT PUSH2 0x29BD JUMPI POP PUSH2 0x293B PUSH2 0x2935 DUP4 PUSH2 0x2F7A JUMP JUMPDEST SWAP3 PUSH2 0x3024 JUMP JUMPDEST SWAP3 PUSH1 0x0 SWAP1 DUP2 JUMPDEST DUP4 DUP2 LT PUSH2 0x2957 JUMPI PUSH1 0x40 MLOAD DUP1 PUSH2 0x134B DUP9 DUP9 DUP4 PUSH2 0x2E81 JUMP JUMPDEST DUP1 PUSH1 0x0 MSTORE PUSH1 0x6 PUSH1 0x20 MSTORE PUSH1 0xFF PUSH1 0x40 DUP1 PUSH1 0x0 KECCAK256 PUSH1 0x0 SWAP1 DUP6 DUP3 MSTORE PUSH1 0x20 MSTORE KECCAK256 SLOAD AND PUSH2 0x2981 JUMPI JUMPDEST PUSH1 0x1 ADD PUSH2 0x2941 JUMP JUMPDEST SWAP2 PUSH2 0x29B5 DUP2 DUP5 PUSH2 0x2993 PUSH1 0x1 SWAP5 DUP10 PUSH2 0x3074 JUMP JUMPDEST MSTORE PUSH2 0x29A0 PUSH2 0x13E7 DUP7 PUSH2 0x2B62 JUMP JUMPDEST PUSH2 0x29AA DUP3 DUP11 PUSH2 0x3074 JUMP JUMPDEST MSTORE PUSH2 0x1402 DUP2 DUP10 PUSH2 0x3074 JUMP JUMPDEST SWAP3 SWAP1 POP PUSH2 0x2979 JUMP JUMPDEST DUP1 PUSH1 0x0 MSTORE PUSH1 0x6 PUSH1 0x20 MSTORE PUSH1 0xFF PUSH1 0x40 DUP1 PUSH1 0x0 KECCAK256 PUSH1 0x0 SWAP1 DUP8 DUP3 MSTORE PUSH1 0x20 MSTORE KECCAK256 SLOAD AND PUSH2 0x29E7 JUMPI JUMPDEST PUSH1 0x1 ADD PUSH2 0x2921 JUMP JUMPDEST SWAP2 PUSH2 0x29F3 PUSH1 0x1 SWAP2 PUSH2 0x2F54 JUMP JUMPDEST SWAP3 SWAP1 POP PUSH2 0x29DF JUMP JUMPDEST CALLVALUE PUSH2 0x268 JUMPI PUSH1 0x20 CALLDATASIZE PUSH1 0x3 NOT ADD SLT PUSH2 0x268 JUMPI PUSH1 0x4 CALLDATALOAD PUSH1 0x3 SLOAD DUP2 LT ISZERO PUSH2 0x268 JUMPI PUSH2 0x2A22 SWAP1 PUSH2 0x2B62 JUMP JUMPDEST POP DUP1 SLOAD PUSH1 0x1 PUSH1 0x1 PUSH1 0xA0 SHL SUB AND PUSH2 0x2A3A PUSH1 0x1 DUP4 ADD PUSH2 0x2C2A JUMP JUMPDEST SWAP2 PUSH2 0x2A47 PUSH1 0x2 DUP3 ADD PUSH2 0x2C2A JUMP JUMPDEST PUSH2 0x2A53 PUSH1 0x3 DUP4 ADD PUSH2 0x2C2A JUMP JUMPDEST PUSH1 0x4 DUP4 ADD SLOAD SWAP3 SWAP1 PUSH2 0x2A66 PUSH1 0x5 DUP4 ADD PUSH2 0x2C2A JUMP JUMPDEST SWAP4 PUSH1 0x6 DUP4 ADD SLOAD PUSH1 0xFF AND SWAP5 PUSH1 0x7 DUP5 ADD SLOAD SWAP2 PUSH1 0x8 DUP6 ADD SLOAD SWAP4 PUSH1 0x9 DUP7 ADD SLOAD SWAP6 PUSH1 0xA ADD SLOAD SWAP7 PUSH1 0x40 MLOAD SWAP11 DUP12 SWAP11 DUP12 MSTORE PUSH1 0x20 DUP12 ADD PUSH2 0x200 SWAP1 MSTORE PUSH2 0x200 DUP12 ADD PUSH2 0x2AA6 SWAP2 PUSH2 0x2CCE JUMP JUMPDEST DUP11 DUP2 SUB PUSH1 0x40 DUP13 ADD MSTORE PUSH2 0x2AB7 SWAP2 PUSH2 0x2CCE JUMP JUMPDEST DUP10 DUP2 SUB PUSH1 0x60 DUP12 ADD MSTORE PUSH2 0x2AC8 SWAP2 PUSH2 0x2CCE JUMP JUMPDEST SWAP1 PUSH1 0x1 PUSH1 0x1 PUSH1 0x40 SHL SUB DUP2 AND PUSH1 0x80 DUP11 ADD MSTORE DUP1 PUSH1 0x40 SHR PUSH1 0x1 PUSH1 0x1 PUSH1 0x40 SHL SUB AND PUSH1 0xA0 DUP11 ADD MSTORE DUP1 PUSH1 0x80 SHR PUSH1 0x1 PUSH1 0x1 PUSH1 0x40 SHL SUB AND PUSH1 0xC0 DUP11 ADD MSTORE PUSH1 0xC0 SHR PUSH1 0xE0 DUP10 ADD MSTORE DUP8 DUP2 SUB PUSH2 0x100 DUP10 ADD MSTORE PUSH2 0x2B16 SWAP2 PUSH2 0x2CCE JUMP JUMPDEST SWAP5 ISZERO ISZERO PUSH2 0x120 DUP8 ADD MSTORE PUSH2 0x140 DUP7 ADD MSTORE PUSH2 0x160 DUP6 ADD MSTORE PUSH2 0x180 DUP5 ADD MSTORE PUSH1 0xFF DUP2 DUP2 AND ISZERO ISZERO PUSH2 0x1A0 DUP6 ADD MSTORE PUSH1 0x8 DUP3 SWAP1 SHR AND ISZERO ISZERO PUSH2 0x1C0 DUP5 ADD MSTORE PUSH1 0x10 SHR PUSH1 0x1 PUSH1 0x1 PUSH1 0xA0 SHL SUB AND PUSH2 0x1E0 DUP4 ADD MSTORE SUB SWAP1 RETURN JUMPDEST PUSH1 0x3 SLOAD DUP2 LT ISZERO PUSH2 0x2B81 JUMPI PUSH1 0x3 PUSH1 0x0 MSTORE PUSH1 0xB PUSH1 0x20 PUSH1 0x0 KECCAK256 SWAP2 MUL ADD SWAP1 PUSH1 0x0 SWAP1 JUMP JUMPDEST PUSH4 0x4E487B71 PUSH1 0xE0 SHL PUSH1 0x0 MSTORE PUSH1 0x32 PUSH1 0x4 MSTORE PUSH1 0x24 PUSH1 0x0 REVERT JUMPDEST DUP1 SLOAD DUP3 LT ISZERO PUSH2 0x2B81 JUMPI PUSH1 0x0 MSTORE PUSH1 0xB PUSH1 0x20 PUSH1 0x0 KECCAK256 SWAP2 MUL ADD SWAP1 PUSH1 0x0 SWAP1 JUMP JUMPDEST SWAP1 PUSH1 0x1 DUP3 DUP2 SHR SWAP3 AND DUP1 ISZERO PUSH2 0x2BE3 JUMPI JUMPDEST PUSH1 0x20 DUP4 LT EQ PUSH2 0x2BCD JUMPI JUMP JUMPDEST PUSH4 0x4E487B71 PUSH1 0xE0 SHL PUSH1 0x0 MSTORE PUSH1 0x22 PUSH1 0x4 MSTORE PUSH1 0x24 PUSH1 0x0 REVERT JUMPDEST SWAP2 PUSH1 0x7F AND SWAP2 PUSH2 0x2BC2 JUMP JUMPDEST PUSH2 0x200 DUP2 ADD SWAP1 DUP2 LT PUSH1 0x1 PUSH1 0x1 PUSH1 0x40 SHL SUB DUP3 GT OR PUSH2 0xB53 JUMPI PUSH1 0x40 MSTORE JUMP JUMPDEST SWAP1 PUSH1 0x1F DUP1 NOT SWAP2 ADD AND DUP2 ADD SWAP1 DUP2 LT PUSH1 0x1 PUSH1 0x1 PUSH1 0x40 SHL SUB DUP3 GT OR PUSH2 0xB53 JUMPI PUSH1 0x40 MSTORE JUMP JUMPDEST SWAP1 PUSH1 0x40 MLOAD SWAP2 DUP3 PUSH1 0x0 DUP3 SLOAD SWAP3 PUSH2 0x2C3E DUP5 PUSH2 0x2BB3 JUMP JUMPDEST DUP1 DUP5 MSTORE SWAP4 PUSH1 0x1 DUP2 AND SWAP1 DUP2 ISZERO PUSH2 0x2CAC JUMPI POP PUSH1 0x1 EQ PUSH2 0x2C65 JUMPI JUMPDEST POP PUSH2 0x2C63 SWAP3 POP SUB DUP4 PUSH2 0x2C09 JUMP JUMPDEST JUMP JUMPDEST SWAP1 POP PUSH1 0x0 SWAP3 SWAP2 SWAP3 MSTORE PUSH1 0x20 PUSH1 0x0 KECCAK256 SWAP1 PUSH1 0x0 SWAP2 JUMPDEST DUP2 DUP4 LT PUSH2 0x2C90 JUMPI POP POP SWAP1 PUSH1 0x20 PUSH2 0x2C63 SWAP3 DUP3 ADD ADD CODESIZE PUSH2 0x2C56 JUMP JUMPDEST PUSH1 0x20 SWAP2 SWAP4 POP DUP1 PUSH1 0x1 SWAP2 SLOAD DUP4 DUP6 DUP10 ADD ADD MSTORE ADD SWAP2 ADD SWAP1 SWAP2 DUP5 SWAP3 PUSH2 0x2C77 JUMP JUMPDEST SWAP1 POP PUSH1 0x20 SWAP3 POP PUSH2 0x2C63 SWAP5 SWAP2 POP PUSH1 0xFF NOT AND DUP3 DUP5 ADD MSTORE ISZERO ISZERO PUSH1 0x5 SHL DUP3 ADD ADD CODESIZE PUSH2 0x2C56 JUMP JUMPDEST SWAP2 SWAP1 DUP3 MLOAD SWAP3 DUP4 DUP3 MSTORE PUSH1 0x0 JUMPDEST DUP5 DUP2 LT PUSH2 0x2CFA JUMPI POP POP DUP3 PUSH1 0x0 PUSH1 0x20 DUP1 SWAP5 SWAP6 DUP5 ADD ADD MSTORE PUSH1 0x1F DUP1 NOT SWAP2 ADD AND ADD ADD SWAP1 JUMP JUMPDEST DUP1 PUSH1 0x20 DUP1 SWAP3 DUP5 ADD ADD MLOAD DUP3 DUP3 DUP7 ADD ADD MSTORE ADD PUSH2 0x2CD9 JUMP JUMPDEST SWAP1 PUSH1 0x1 DUP1 PUSH1 0xA0 SHL SUB DUP3 MLOAD AND DUP2 MSTORE PUSH2 0x1E0 PUSH2 0x2DC7 PUSH2 0x2D67 PUSH2 0x2D55 PUSH2 0x2D43 PUSH1 0x20 DUP8 ADD MLOAD PUSH2 0x200 PUSH1 0x20 DUP9 ADD MSTORE PUSH2 0x200 DUP8 ADD SWAP1 PUSH2 0x2CCE JUMP JUMPDEST PUSH1 0x40 DUP8 ADD MLOAD DUP7 DUP3 SUB PUSH1 0x40 DUP9 ADD MSTORE PUSH2 0x2CCE JUMP JUMPDEST PUSH1 0x60 DUP7 ADD MLOAD DUP6 DUP3 SUB PUSH1 0x60 DUP8 ADD MSTORE PUSH2 0x2CCE JUMP JUMPDEST PUSH1 0x1 PUSH1 0x1 PUSH1 0x40 SHL SUB PUSH1 0x80 DUP7 ADD MLOAD AND PUSH1 0x80 DUP6 ADD MSTORE PUSH1 0x1 PUSH1 0x1 PUSH1 0x40 SHL SUB PUSH1 0xA0 DUP7 ADD MLOAD AND PUSH1 0xA0 DUP6 ADD MSTORE PUSH1 0x1 PUSH1 0x1 PUSH1 0x40 SHL SUB PUSH1 0xC0 DUP7 ADD MLOAD AND PUSH1 0xC0 DUP6 ADD MSTORE PUSH1 0x1 PUSH1 0x1 PUSH1 0x40 SHL SUB PUSH1 0xE0 DUP7 ADD MLOAD AND PUSH1 0xE0 DUP6 ADD MSTORE PUSH2 0x100 DUP6 ADD MLOAD DUP5 DUP3 SUB PUSH2 0x100 DUP7 ADD MSTORE PUSH2 0x2CCE JUMP JUMPDEST SWAP3 PUSH2 0x120 DUP2 ADD MLOAD ISZERO ISZERO PUSH2 0x120 DUP5 ADD MSTORE PUSH2 0x140 DUP2 ADD MLOAD PUSH2 0x140 DUP5 ADD MSTORE PUSH2 0x160 DUP2 ADD MLOAD PUSH2 0x160 DUP5 ADD MSTORE PUSH2 0x180 DUP2 ADD MLOAD PUSH2 0x180 DUP5 ADD MSTORE PUSH2 0x1A0 DUP2 ADD MLOAD ISZERO ISZERO PUSH2 0x1A0 DUP5 ADD MSTORE PUSH2 0x1C0 DUP2 ADD MLOAD ISZERO ISZERO PUSH2 0x1C0 DUP5 ADD MSTORE DUP2 PUSH1 0x1 DUP1 PUSH1 0xA0 SHL SUB SWAP2 ADD MLOAD AND SWAP2 ADD MSTORE SWAP1 JUMP JUMPDEST SWAP1 DUP1 PUSH1 0x20 DUP4 MLOAD SWAP2 DUP3 DUP2 MSTORE ADD SWAP2 PUSH1 0x20 DUP1 DUP4 PUSH1 0x5 SHL DUP4 ADD ADD SWAP5 ADD SWAP3 PUSH1 0x0 SWAP2 JUMPDEST DUP4 DUP4 LT PUSH2 0x2E54 JUMPI POP POP POP POP POP SWAP1 JUMP JUMPDEST SWAP1 SWAP2 SWAP3 SWAP4 SWAP5 PUSH1 0x20 DUP1 PUSH2 0x2E72 PUSH1 0x1 SWAP4 PUSH1 0x1F NOT DUP7 DUP3 SUB ADD DUP8 MSTORE DUP10 MLOAD PUSH2 0x2D0F JUMP JUMPDEST SWAP8 ADD SWAP4 ADD SWAP4 ADD SWAP2 SWAP4 SWAP3 SWAP1 PUSH2 0x2E45 JUMP JUMPDEST SWAP3 SWAP2 PUSH1 0x40 DUP5 ADD SWAP4 PUSH1 0x40 DUP2 MSTORE DUP3 MLOAD DUP1 SWAP6 MSTORE PUSH1 0x20 PUSH1 0x60 DUP3 ADD SWAP4 ADD PUSH1 0x0 SWAP6 JUMPDEST DUP1 DUP8 LT PUSH2 0x2EBC JUMPI POP POP PUSH2 0x2EB9 SWAP4 SWAP5 POP PUSH1 0x20 DUP2 DUP5 SUB SWAP2 ADD MSTORE PUSH2 0x2E28 JUMP JUMPDEST SWAP1 JUMP JUMPDEST SWAP1 SWAP4 PUSH1 0x20 DUP1 PUSH1 0x1 SWAP3 DUP8 MLOAD DUP2 MSTORE ADD SWAP6 ADD SWAP7 ADD SWAP6 SWAP1 PUSH2 0x2E9D JUMP JUMPDEST PUSH1 0x4 CALLDATALOAD SWAP1 PUSH1 0x1 PUSH1 0x1 PUSH1 0xA0 SHL SUB DUP3 AND DUP3 SUB PUSH2 0x268 JUMPI JUMP JUMPDEST SWAP2 DUP2 PUSH1 0x1F DUP5 ADD SLT ISZERO PUSH2 0x268 JUMPI DUP3 CALLDATALOAD SWAP2 PUSH1 0x1 PUSH1 0x1 PUSH1 0x40 SHL SUB DUP4 GT PUSH2 0x268 JUMPI PUSH1 0x20 DUP4 DUP2 DUP7 ADD SWAP6 ADD ADD GT PUSH2 0x268 JUMPI JUMP JUMPDEST SWAP1 PUSH1 0x20 DUP1 DUP4 MLOAD SWAP3 DUP4 DUP2 MSTORE ADD SWAP3 ADD SWAP1 PUSH1 0x0 JUMPDEST DUP2 DUP2 LT PUSH2 0x2F35 JUMPI POP POP POP SWAP1 JUMP JUMPDEST DUP3 MLOAD PUSH1 0x1 PUSH1 0x1 PUSH1 0xA0 SHL SUB AND DUP5 MSTORE PUSH1 0x20 SWAP4 DUP5 ADD SWAP4 SWAP1 SWAP3 ADD SWAP2 PUSH1 0x1 ADD PUSH2 0x2F28 JUMP JUMPDEST PUSH1 0x0 NOT DUP2 EQ PUSH2 0xA7C JUMPI PUSH1 0x1 ADD SWAP1 JUMP JUMPDEST PUSH1 0x1 PUSH1 0x1 PUSH1 0x40 SHL SUB DUP2 GT PUSH2 0xB53 JUMPI PUSH1 0x5 SHL PUSH1 0x20 ADD SWAP1 JUMP JUMPDEST SWAP1 PUSH2 0x2F84 DUP3 PUSH2 0x2F63 JUMP JUMPDEST PUSH2 0x2F91 PUSH1 0x40 MLOAD SWAP2 DUP3 PUSH2 0x2C09 JUMP JUMPDEST DUP3 DUP2 MSTORE DUP1 SWAP3 PUSH2 0x2FA2 PUSH1 0x1F NOT SWAP2 PUSH2 0x2F63 JUMP JUMPDEST ADD SWAP1 PUSH1 0x20 CALLDATASIZE SWAP2 ADD CALLDATACOPY JUMP JUMPDEST PUSH1 0x40 MLOAD SWAP1 PUSH2 0x2FB9 DUP3 PUSH2 0x2BED JUMP JUMPDEST PUSH1 0x0 PUSH2 0x1E0 DUP4 DUP3 DUP2 MSTORE PUSH1 0x60 PUSH1 0x20 DUP3 ADD MSTORE PUSH1 0x60 PUSH1 0x40 DUP3 ADD MSTORE PUSH1 0x60 DUP1 DUP3 ADD MSTORE DUP3 PUSH1 0x80 DUP3 ADD MSTORE DUP3 PUSH1 0xA0 DUP3 ADD MSTORE DUP3 PUSH1 0xC0 DUP3 ADD MSTORE DUP3 PUSH1 0xE0 DUP3 ADD MSTORE PUSH1 0x60 PUSH2 0x100 DUP3 ADD MSTORE DUP3 PUSH2 0x120 DUP3 ADD MSTORE DUP3 PUSH2 0x140 DUP3 ADD MSTORE DUP3 PUSH2 0x160 DUP3 ADD MSTORE DUP3 PUSH2 0x180 DUP3 ADD MSTORE DUP3 PUSH2 0x1A0 DUP3 ADD MSTORE DUP3 PUSH2 0x1C0 DUP3 ADD MSTORE ADD MSTORE JUMP JUMPDEST SWAP1 PUSH2 0x302E DUP3 PUSH2 0x2F63 JUMP JUMPDEST PUSH2 0x303B PUSH1 0x40 MLOAD SWAP2 DUP3 PUSH2 0x2C09 JUMP JUMPDEST DUP3 DUP2 MSTORE DUP1 SWAP3 PUSH2 0x304C PUSH1 0x1F NOT SWAP2 PUSH2 0x2F63 JUMP JUMPDEST ADD SWAP1 PUSH1 0x0 JUMPDEST DUP3 DUP2 LT PUSH2 0x305D JUMPI POP POP POP JUMP JUMPDEST PUSH1 0x20 SWAP1 PUSH2 0x3068 PUSH2 0x2FAC JUMP JUMPDEST DUP3 DUP3 DUP6 ADD ADD MSTORE ADD PUSH2 0x3051 JUMP JUMPDEST DUP1 MLOAD DUP3 LT ISZERO PUSH2 0x2B81 JUMPI PUSH1 0x20 SWAP2 PUSH1 0x5 SHL ADD ADD SWAP1 JUMP JUMPDEST SWAP1 PUSH1 0x40 MLOAD PUSH2 0x3095 DUP2 PUSH2 0x2BED JUMP JUMPDEST DUP3 SLOAD PUSH1 0x1 PUSH1 0x1 PUSH1 0xA0 SHL SUB AND DUP2 MSTORE SWAP2 DUP3 SWAP1 PUSH2 0x1E0 SWAP1 PUSH1 0xA SWAP1 PUSH2 0x30B8 PUSH1 0x1 DUP3 ADD PUSH2 0x2C2A JUMP JUMPDEST PUSH1 0x20 DUP6 ADD MSTORE PUSH2 0x30C9 PUSH1 0x2 DUP3 ADD PUSH2 0x2C2A JUMP JUMPDEST PUSH1 0x40 DUP6 ADD MSTORE PUSH2 0x30DA PUSH1 0x3 DUP3 ADD PUSH2 0x2C2A JUMP JUMPDEST PUSH1 0x60 DUP6 ADD MSTORE PUSH1 0x4 DUP2 ADD SLOAD PUSH1 0x1 PUSH1 0x1 PUSH1 0x40 SHL SUB DUP2 AND PUSH1 0x80 DUP7 ADD MSTORE PUSH1 0x1 PUSH1 0x1 PUSH1 0x40 SHL SUB DUP2 PUSH1 0x40 SHR AND PUSH1 0xA0 DUP7 ADD MSTORE PUSH1 0x1 PUSH1 0x1 PUSH1 0x40 SHL SUB DUP2 PUSH1 0x80 SHR AND PUSH1 0xC0 DUP7 ADD MSTORE PUSH1 0xC0 SHR PUSH1 0xE0 DUP6 ADD MSTORE PUSH2 0x312B PUSH1 0x5 DUP3 ADD PUSH2 0x2C2A JUMP JUMPDEST PUSH2 0x100 DUP6 ADD MSTORE PUSH1 0xFF PUSH1 0x6 DUP3 ADD SLOAD AND ISZERO ISZERO PUSH2 0x120 DUP6 ADD MSTORE PUSH1 0x7 DUP2 ADD SLOAD PUSH2 0x140 DUP6 ADD MSTORE PUSH1 0x8 DUP2 ADD SLOAD PUSH2 0x160 DUP6 ADD MSTORE PUSH1 0x9 DUP2 ADD SLOAD PUSH2 0x180 DUP6 ADD MSTORE ADD SLOAD PUSH1 0xFF DUP2 AND ISZERO ISZERO PUSH2 0x1A0 DUP5 ADD MSTORE PUSH1 0xFF DUP2 PUSH1 0x8 SHR AND ISZERO ISZERO PUSH2 0x1C0 DUP5 ADD MSTORE PUSH1 0x1 DUP1 PUSH1 0xA0 SHL SUB SWAP1 PUSH1 0x10 SHR AND SWAP2 ADD MSTORE JUMP JUMPDEST SWAP1 DUP2 SLOAD PUSH2 0x319C DUP2 PUSH2 0x2F63 JUMP JUMPDEST SWAP3 PUSH2 0x31AA PUSH1 0x40 MLOAD SWAP5 DUP6 PUSH2 0x2C09 JUMP JUMPDEST DUP2 DUP5 MSTORE PUSH1 0x20 DUP5 ADD SWAP1 PUSH1 0x0 MSTORE PUSH1 0x20 PUSH1 0x0 KECCAK256 PUSH1 0x0 SWAP2 JUMPDEST DUP4 DUP4 LT PUSH2 0x31CB JUMPI POP POP POP POP JUMP JUMPDEST PUSH1 0xB PUSH1 0x20 PUSH1 0x1 SWAP3 PUSH2 0x31DB DUP6 PUSH2 0x3088 JUMP JUMPDEST DUP2 MSTORE ADD SWAP3 ADD SWAP3 ADD SWAP2 SWAP1 PUSH2 0x31BE JUMP JUMPDEST ISZERO PUSH2 0x31F0 JUMPI JUMP JUMPDEST PUSH1 0x40 MLOAD PUSH3 0x461BCD PUSH1 0xE5 SHL DUP2 MSTORE PUSH1 0x20 PUSH1 0x4 DUP3 ADD MSTORE PUSH1 0xF PUSH1 0x24 DUP3 ADD MSTORE PUSH15 0x2737BA1032BB32B73A1037BBB732B9 PUSH1 0x89 SHL PUSH1 0x44 DUP3 ADD MSTORE PUSH1 0x64 SWAP1 REVERT JUMPDEST ISZERO PUSH2 0x322E JUMPI JUMP JUMPDEST PUSH1 0x40 MLOAD PUSH3 0x461BCD PUSH1 0xE5 SHL DUP2 MSTORE PUSH1 0x20 PUSH1 0x4 DUP3 ADD MSTORE PUSH1 0xD PUSH1 0x24 DUP3 ADD MSTORE PUSH13 0x125B9D985B1A5908195D995B9D PUSH1 0x9A SHL PUSH1 0x44 DUP3 ADD MSTORE PUSH1 0x64 SWAP1 REVERT JUMPDEST ISZERO PUSH2 0x326A JUMPI JUMP JUMPDEST PUSH1 0x40 MLOAD PUSH3 0x461BCD PUSH1 0xE5 SHL DUP2 MSTORE PUSH1 0x20 PUSH1 0x4 DUP3 ADD MSTORE PUSH1 0x13 PUSH1 0x24 DUP3 ADD MSTORE PUSH19 0x115D995B9D08191BD95CDB89DD08195E1A5CDD PUSH1 0x6A SHL PUSH1 0x44 DUP3 ADD MSTORE PUSH1 0x64 SWAP1 REVERT JUMPDEST ISZERO PUSH2 0x32AC JUMPI JUMP JUMPDEST PUSH1 0x40 MLOAD PUSH3 0x461BCD PUSH1 0xE5 SHL DUP2 MSTORE PUSH1 0x20 PUSH1 0x4 DUP3 ADD MSTORE PUSH1 0xF PUSH1 0x24 DUP3 ADD MSTORE PUSH15 0x10DBDB9D1C9858DD081C185D5CD959 PUSH1 0x8A SHL PUSH1 0x44 DUP3 ADD MSTORE PUSH1 0x64 SWAP1 REVERT JUMPDEST ISZERO PUSH2 0x32EA JUMPI JUMP JUMPDEST PUSH1 0x40 MLOAD PUSH3 0x461BCD PUSH1 0xE5 SHL DUP2 MSTORE PUSH1 0x20 PUSH1 0x4 DUP3 ADD MSTORE PUSH1 0x10 PUSH1 0x24 DUP3 ADD MSTORE PUSH16 0x125B9D985B1A5908195D995B9D081251 PUSH1 0x82 SHL PUSH1 0x44 DUP3 ADD MSTORE PUSH1 0x64 SWAP1 REVERT JUMPDEST PUSH1 0x1 PUSH1 0x1 PUSH1 0x40 SHL SUB DUP2 GT PUSH2 0xB53 JUMPI PUSH1 0x1F ADD PUSH1 0x1F NOT AND PUSH1 0x20 ADD SWAP1 JUMP JUMPDEST RETURNDATASIZE ISZERO PUSH2 0x3368 JUMPI RETURNDATASIZE SWAP1 PUSH2 0x334E DUP3 PUSH2 0x3322 JUMP JUMPDEST SWAP2 PUSH2 0x335C PUSH1 0x40 MLOAD SWAP4 DUP5 PUSH2 0x2C09 JUMP JUMPDEST DUP3 MSTORE RETURNDATASIZE PUSH1 0x0 PUSH1 0x20 DUP5 ADD RETURNDATACOPY JUMP JUMPDEST PUSH1 0x60 SWAP1 JUMP JUMPDEST ISZERO PUSH2 0x3374 JUMPI JUMP JUMPDEST PUSH1 0x40 MLOAD PUSH3 0x461BCD PUSH1 0xE5 SHL DUP2 MSTORE PUSH1 0x20 PUSH1 0x4 DUP3 ADD MSTORE PUSH1 0xD PUSH1 0x24 DUP3 ADD MSTORE PUSH13 0x115D995B9D08195E1C1A5C9959 PUSH1 0x9A SHL PUSH1 0x44 DUP3 ADD MSTORE PUSH1 0x64 SWAP1 REVERT JUMPDEST ISZERO PUSH2 0x33B0 JUMPI JUMP JUMPDEST PUSH1 0x40 MLOAD PUSH3 0x461BCD PUSH1 0xE5 SHL DUP2 MSTORE PUSH1 0x20 PUSH1 0x4 DUP3 ADD MSTORE PUSH1 0xE PUSH1 0x24 DUP3 ADD MSTORE PUSH14 0x4576656E7420696E616374697665 PUSH1 0x90 SHL PUSH1 0x44 DUP3 ADD MSTORE PUSH1 0x64 SWAP1 REVERT JUMPDEST ISZERO PUSH2 0x33ED JUMPI JUMP JUMPDEST PUSH1 0x40 MLOAD PUSH3 0x461BCD PUSH1 0xE5 SHL DUP2 MSTORE PUSH1 0x20 PUSH1 0x4 DUP3 ADD MSTORE PUSH1 0x11 PUSH1 0x24 DUP3 ADD MSTORE PUSH17 0x105B1C9958591E481C1D5C98DA185CD959 PUSH1 0x7A SHL PUSH1 0x44 DUP3 ADD MSTORE PUSH1 0x64 SWAP1 REVERT JUMPDEST ISZERO PUSH2 0x342D JUMPI JUMP JUMPDEST PUSH1 0x40 MLOAD PUSH3 0x461BCD PUSH1 0xE5 SHL DUP2 MSTORE PUSH1 0x20 PUSH1 0x4 DUP3 ADD MSTORE PUSH1 0x11 PUSH1 0x24 DUP3 ADD MSTORE PUSH17 0x4576656E74206174206361706163697479 PUSH1 0x78 SHL PUSH1 0x44 DUP3 ADD MSTORE PUSH1 0x64 SWAP1 REVERT JUMPDEST SWAP2 SWAP1 DUP3 ADD DUP1 SWAP3 GT PUSH2 0xA7C JUMPI JUMP JUMPDEST SWAP1 DUP2 PUSH1 0x20 SWAP2 SUB SLT PUSH2 0x268 JUMPI MLOAD DUP1 ISZERO ISZERO DUP2 SUB PUSH2 0x268 JUMPI SWAP1 JUMP JUMPDEST SWAP2 SWAP1 DUP3 SUB SWAP2 DUP3 GT PUSH2 0xA7C JUMPI JUMP JUMPDEST DUP1 SLOAD DUP3 LT ISZERO PUSH2 0x2B81 JUMPI PUSH1 0x0 MSTORE PUSH1 0x20 PUSH1 0x0 KECCAK256 ADD SWAP1 PUSH1 0x0 SWAP1 JUMP JUMPDEST SWAP1 DUP2 SLOAD SWAP2 PUSH1 0x1 PUSH1 0x40 SHL DUP4 LT ISZERO PUSH2 0xB53 JUMPI DUP3 PUSH2 0x1BAE SWAP2 PUSH1 0x1 PUSH2 0x2C63 SWAP6 ADD DUP2 SSTORE PUSH2 0x3498 JUMP JUMPDEST SWAP1 PUSH1 0x40 MLOAD SWAP2 DUP3 DUP2 SLOAD SWAP2 DUP3 DUP3 MSTORE PUSH1 0x20 DUP3 ADD SWAP1 PUSH1 0x0 MSTORE PUSH1 0x20 PUSH1 0x0 KECCAK256 SWAP3 PUSH1 0x0 JUMPDEST DUP2 DUP2 LT PUSH2 0x3505 JUMPI POP POP PUSH2 0x2C63 SWAP3 POP SUB DUP4 PUSH2 0x2C09 JUMP JUMPDEST DUP5 SLOAD PUSH1 0x1 PUSH1 0x1 PUSH1 0xA0 SHL SUB AND DUP4 MSTORE PUSH1 0x1 SWAP5 DUP6 ADD SWAP5 DUP8 SWAP5 POP PUSH1 0x20 SWAP1 SWAP4 ADD SWAP3 ADD PUSH2 0x34F0 JUMP JUMPDEST SWAP3 SWAP2 SWAP3 PUSH2 0x3533 DUP3 PUSH2 0x3322 JUMP JUMPDEST SWAP2 PUSH2 0x3541 PUSH1 0x40 MLOAD SWAP4 DUP5 PUSH2 0x2C09 JUMP JUMPDEST DUP3 SWAP5 DUP2 DUP5 MSTORE DUP2 DUP4 ADD GT PUSH2 0x268 JUMPI DUP3 DUP2 PUSH1 0x20 SWAP4 DUP5 PUSH1 0x0 SWAP7 ADD CALLDATACOPY ADD ADD MSTORE JUMP JUMPDEST PUSH1 0x2 PUSH1 0x0 SLOAD EQ PUSH2 0x356F JUMPI PUSH1 0x2 PUSH1 0x0 SSTORE JUMP JUMPDEST PUSH4 0x3EE5AEB5 PUSH1 0xE0 SHL PUSH1 0x0 MSTORE PUSH1 0x4 PUSH1 0x0 REVERT JUMPDEST PUSH1 0x40 MLOAD PUSH4 0xA9059CBB PUSH1 0xE0 SHL PUSH1 0x20 DUP3 ADD MSTORE PUSH1 0x1 PUSH1 0x1 PUSH1 0xA0 SHL SUB SWAP3 SWAP1 SWAP3 AND PUSH1 0x24 DUP4 ADD MSTORE PUSH1 0x44 DUP1 DUP4 ADD SWAP4 SWAP1 SWAP4 MSTORE SWAP2 DUP2 MSTORE PUSH2 0x2C63 SWAP2 PUSH2 0x35BC PUSH1 0x64 DUP4 PUSH2 0x2C09 JUMP JUMPDEST PUSH2 0x366D JUMP JUMPDEST PUSH1 0x40 MLOAD PUSH4 0x23B872DD PUSH1 0xE0 SHL DUP2 MSTORE PUSH1 0x1 PUSH1 0x1 PUSH1 0xA0 SHL SUB SWAP3 DUP4 AND PUSH1 0x4 DUP3 ADD MSTORE SWAP3 DUP3 AND PUSH1 0x24 DUP5 ADD MSTORE PUSH1 0x44 DUP4 ADD SWAP4 SWAP1 SWAP4 MSTORE SWAP1 SWAP2 PUSH1 0x20 SWAP2 DUP4 SWAP2 PUSH1 0x64 SWAP2 DUP4 SWAP2 PUSH1 0x0 SWAP2 AND GAS CALL SWAP1 DUP2 ISZERO PUSH2 0x1928 JUMPI PUSH1 0x0 SWAP2 PUSH2 0x364E JUMPI JUMPDEST POP ISZERO PUSH2 0x3617 JUMPI JUMP JUMPDEST PUSH1 0x40 MLOAD PUSH3 0x461BCD PUSH1 0xE5 SHL DUP2 MSTORE PUSH1 0x20 PUSH1 0x4 DUP3 ADD MSTORE PUSH1 0xF PUSH1 0x24 DUP3 ADD MSTORE PUSH15 0x151C985B9CD9995C8819985A5B1959 PUSH1 0x8A SHL PUSH1 0x44 DUP3 ADD MSTORE PUSH1 0x64 SWAP1 REVERT JUMPDEST PUSH2 0x3667 SWAP2 POP PUSH1 0x20 RETURNDATASIZE PUSH1 0x20 GT PUSH2 0x1921 JUMPI PUSH2 0x1912 DUP2 DUP4 PUSH2 0x2C09 JUMP JUMPDEST CODESIZE PUSH2 0x360F JUMP JUMPDEST SWAP1 PUSH1 0x0 PUSH1 0x20 SWAP2 DUP3 DUP2 MLOAD SWAP2 ADD DUP3 DUP6 GAS CALL ISZERO PUSH2 0x1928 JUMPI PUSH1 0x0 MLOAD RETURNDATASIZE PUSH2 0x36BF JUMPI POP PUSH1 0x1 PUSH1 0x1 PUSH1 0xA0 SHL SUB DUP2 AND EXTCODESIZE ISZERO JUMPDEST PUSH2 0x369E JUMPI POP JUMP JUMPDEST PUSH4 0x5274AFE7 PUSH1 0xE0 SHL PUSH1 0x0 SWAP1 DUP2 MSTORE PUSH1 0x1 PUSH1 0x1 PUSH1 0xA0 SHL SUB SWAP2 SWAP1 SWAP2 AND PUSH1 0x4 MSTORE PUSH1 0x24 SWAP1 REVERT JUMPDEST PUSH1 0x1 EQ ISZERO PUSH2 0x3697 JUMP INVALID POP 0x4E 0xF6 0xDA 0xBC LOG2 DUP13 EQ MSTORE PUSH17 0x4D54BD8E25708D87E0C27D852ECEEA53A0 0xC0 0xD8 SWAP9 PUSH8 0x58A2646970667358 0x22 SLT KECCAK256 0xCF SELFDESTRUCT PREVRANDAO 0xC2 MLOAD PUSH28 0x1CCCAC4B7178B678066C00228C455E1E49C6EAA11EC7081B69226473 PUSH16 0x6C634300081C00330000000000000000 "
        },
        "methodIdentifiers": {
          "CELO()": "f60e673e",
          "MAX_ATTENDEES()": "617148e5",
          "MAX_DETAILS_LENGTH()": "50d9c62d",
          "MAX_LOCATION_LENGTH()": "abf45ec8",
          "MAX_NAME_LENGTH()": "86074985",
          "MAX_TICKET_PRICE()": "b5e41287",
          "MAX_URL_LENGTH()": "cb71146e",
          "MIN_EVENT_DURATION()": "1ac78969",
          "REFUND_BUFFER()": "7b426cbf",
          "buyTicket(uint256)": "67dd74ca",
          "buyTicketx(uint256)": "6ff3eb5e",
          "cancelEvent(uint256)": "3f69babd",
          "celoFundsHeld(uint256)": "4d06755f",
          "createEvent(string,string,string,uint64,uint64,uint64,uint64,string,uint256,uint256,address)": "f57c7ad8",
          "events(uint256)": "0b791430",
          "getActiveEventsByCreator()": "ccfd6d3c",
          "getAllEvents()": "c27a500d",
          "getAttendees(uint256)": "e0c14377",
          "getEventById(uint256)": "b98079bc",
          "getEventLength()": "5c98dfa1",
          "getEventsByCreator(address)": "20020581",
          "getUserEvents()": "0f977561",
          "hasPurchasedTicket(uint256,address)": "439fd35f",
          "onTokenTransfer(address,uint256,bytes)": "a4c0ed36",
          "paused()": "5c975abb",
          "refund(address)": "fa89401a",
          "releaseFunds(uint256)": "4d68282f",
          "requestRefund(uint256)": "a4b2409e",
          "supportedTokens(address)": "68c4ac26",
          "ticketPrice()": "1209b1f6",
          "ticketsBought(address)": "84bd3264",
          "ubiPool()": "a06f7da7",
          "usdt()": "2f48ab7d"
        }
      }
    }
  }
}