{
  "_format": "hh-sol-artifact-1",
  "contractName": "CeAffairs",
  "sourceName": "contracts/CeAffairs.sol",
  "abi": [
    {
      "inputs": [
        {
          "internalType": "address",
          "name": "_cUSDAddress",
          "type": "address"
        }
      ],
      "stateMutability": "nonpayable",
      "type": "constructor"
    },
    {
      "inputs": [
        {
          "internalType": "uint256",
          "name": "_index",
          "type": "uint256"
        }
      ],
      "name": "addEventAttendees",
      "outputs": [],
      "stateMutability": "nonpayable",
      "type": "function"
    },
    {
      "inputs": [
        {
          "internalType": "uint256",
          "name": "_index",
          "type": "uint256"
        }
      ],
      "name": "buyTicket",
      "outputs": [],
      "stateMutability": "nonpayable",
      "type": "function"
    },
    {
      "inputs": [],
      "name": "cUSDToken",
      "outputs": [
        {
          "internalType": "contract IERC20",
          "name": "",
          "type": "address"
        }
      ],
      "stateMutability": "view",
      "type": "function"
    },
    {
      "inputs": [
        {
          "internalType": "string",
          "name": "_eventName",
          "type": "string"
        },
        {
          "internalType": "string",
          "name": "_eventCardImgUrl",
          "type": "string"
        },
        {
          "internalType": "string",
          "name": "_eventDetails",
          "type": "string"
        },
        {
          "internalType": "uint64",
          "name": "_eventDate",
          "type": "uint64"
        },
        {
          "internalType": "uint64",
          "name": "_startTime",
          "type": "uint64"
        },
        {
          "internalType": "uint64",
          "name": "_endTime",
          "type": "uint64"
        },
        {
          "internalType": "string",
          "name": "_eventLocation",
          "type": "string"
        },
        {
          "internalType": "uint256",
          "name": "_ticketPrice",
          "type": "uint256"
        }
      ],
      "name": "createEvent",
      "outputs": [],
      "stateMutability": "nonpayable",
      "type": "function"
    },
    {
      "inputs": [
        {
          "internalType": "uint256",
          "name": "_index",
          "type": "uint256"
        }
      ],
      "name": "deleteEventById",
      "outputs": [],
      "stateMutability": "nonpayable",
      "type": "function"
    },
    {
      "inputs": [
        {
          "internalType": "uint256",
          "name": "",
          "type": "uint256"
        }
      ],
      "name": "events",
      "outputs": [
        {
          "internalType": "address",
          "name": "owner",
          "type": "address"
        },
        {
          "internalType": "string",
          "name": "eventName",
          "type": "string"
        },
        {
          "internalType": "string",
          "name": "eventCardImgUrl",
          "type": "string"
        },
        {
          "internalType": "string",
          "name": "eventDetails",
          "type": "string"
        },
        {
          "internalType": "uint64",
          "name": "eventDate",
          "type": "uint64"
        },
        {
          "internalType": "uint64",
          "name": "startTime",
          "type": "uint64"
        },
        {
          "internalType": "uint64",
          "name": "endTime",
          "type": "uint64"
        },
        {
          "internalType": "string",
          "name": "eventLocation",
          "type": "string"
        },
        {
          "internalType": "bool",
          "name": "isActive",
          "type": "bool"
        },
        {
          "internalType": "uint256",
          "name": "ticketPrice",
          "type": "uint256"
        }
      ],
      "stateMutability": "view",
      "type": "function"
    },
    {
      "inputs": [],
      "name": "getAllEvents",
      "outputs": [
        {
          "internalType": "uint256[]",
          "name": "",
          "type": "uint256[]"
        },
        {
          "components": [
            {
              "internalType": "address",
              "name": "owner",
              "type": "address"
            },
            {
              "internalType": "string",
              "name": "eventName",
              "type": "string"
            },
            {
              "internalType": "string",
              "name": "eventCardImgUrl",
              "type": "string"
            },
            {
              "internalType": "string",
              "name": "eventDetails",
              "type": "string"
            },
            {
              "internalType": "uint64",
              "name": "eventDate",
              "type": "uint64"
            },
            {
              "internalType": "uint64",
              "name": "startTime",
              "type": "uint64"
            },
            {
              "internalType": "uint64",
              "name": "endTime",
              "type": "uint64"
            },
            {
              "internalType": "string",
              "name": "eventLocation",
              "type": "string"
            },
            {
              "internalType": "bool",
              "name": "isActive",
              "type": "bool"
            },
            {
              "internalType": "uint256",
              "name": "ticketPrice",
              "type": "uint256"
            }
          ],
          "internalType": "struct CeAffairs.Event[]",
          "name": "",
          "type": "tuple[]"
        }
      ],
      "stateMutability": "view",
      "type": "function"
    },
    {
      "inputs": [
        {
          "internalType": "uint256",
          "name": "_index",
          "type": "uint256"
        }
      ],
      "name": "getAttendees",
      "outputs": [
        {
          "internalType": "address[]",
          "name": "",
          "type": "address[]"
        }
      ],
      "stateMutability": "view",
      "type": "function"
    },
    {
      "inputs": [
        {
          "internalType": "uint256",
          "name": "_index",
          "type": "uint256"
        }
      ],
      "name": "getEventById",
      "outputs": [
        {
          "components": [
            {
              "internalType": "address",
              "name": "owner",
              "type": "address"
            },
            {
              "internalType": "string",
              "name": "eventName",
              "type": "string"
            },
            {
              "internalType": "string",
              "name": "eventCardImgUrl",
              "type": "string"
            },
            {
              "internalType": "string",
              "name": "eventDetails",
              "type": "string"
            },
            {
              "internalType": "uint64",
              "name": "eventDate",
              "type": "uint64"
            },
            {
              "internalType": "uint64",
              "name": "startTime",
              "type": "uint64"
            },
            {
              "internalType": "uint64",
              "name": "endTime",
              "type": "uint64"
            },
            {
              "internalType": "string",
              "name": "eventLocation",
              "type": "string"
            },
            {
              "internalType": "bool",
              "name": "isActive",
              "type": "bool"
            },
            {
              "internalType": "uint256",
              "name": "ticketPrice",
              "type": "uint256"
            }
          ],
          "internalType": "struct CeAffairs.Event",
          "name": "eventDetails",
          "type": "tuple"
        },
        {
          "internalType": "address[]",
          "name": "attendees",
          "type": "address[]"
        },
        {
          "components": [
            {
              "internalType": "address",
              "name": "owner",
              "type": "address"
            },
            {
              "internalType": "string",
              "name": "eventName",
              "type": "string"
            },
            {
              "internalType": "string",
              "name": "eventCardImgUrl",
              "type": "string"
            },
            {
              "internalType": "string",
              "name": "eventDetails",
              "type": "string"
            },
            {
              "internalType": "uint64",
              "name": "eventDate",
              "type": "uint64"
            },
            {
              "internalType": "uint64",
              "name": "startTime",
              "type": "uint64"
            },
            {
              "internalType": "uint64",
              "name": "endTime",
              "type": "uint64"
            },
            {
              "internalType": "string",
              "name": "eventLocation",
              "type": "string"
            },
            {
              "internalType": "bool",
              "name": "isActive",
              "type": "bool"
            },
            {
              "internalType": "uint256",
              "name": "ticketPrice",
              "type": "uint256"
            }
          ],
          "internalType": "struct CeAffairs.Event[]",
          "name": "createdEvents",
          "type": "tuple[]"
        }
      ],
      "stateMutability": "view",
      "type": "function"
    },
    {
      "inputs": [],
      "name": "getEventLength",
      "outputs": [
        {
          "internalType": "uint256",
          "name": "",
          "type": "uint256"
        }
      ],
      "stateMutability": "view",
      "type": "function"
    },
    {
      "inputs": [
        {
          "internalType": "address",
          "name": "_creator",
          "type": "address"
        }
      ],
      "name": "getEventsByCreator",
      "outputs": [
        {
          "components": [
            {
              "internalType": "address",
              "name": "owner",
              "type": "address"
            },
            {
              "internalType": "string",
              "name": "eventName",
              "type": "string"
            },
            {
              "internalType": "string",
              "name": "eventCardImgUrl",
              "type": "string"
            },
            {
              "internalType": "string",
              "name": "eventDetails",
              "type": "string"
            },
            {
              "internalType": "uint64",
              "name": "eventDate",
              "type": "uint64"
            },
            {
              "internalType": "uint64",
              "name": "startTime",
              "type": "uint64"
            },
            {
              "internalType": "uint64",
              "name": "endTime",
              "type": "uint64"
            },
            {
              "internalType": "string",
              "name": "eventLocation",
              "type": "string"
            },
            {
              "internalType": "bool",
              "name": "isActive",
              "type": "bool"
            },
            {
              "internalType": "uint256",
              "name": "ticketPrice",
              "type": "uint256"
            }
          ],
          "internalType": "struct CeAffairs.Event[]",
          "name": "",
          "type": "tuple[]"
        }
      ],
      "stateMutability": "view",
      "type": "function"
    },
    {
      "inputs": [
        {
          "internalType": "uint256",
          "name": "",
          "type": "uint256"
        },
        {
          "internalType": "address",
          "name": "",
          "type": "address"
        }
      ],
      "name": "hasPurchasedTicket",
      "outputs": [
        {
          "internalType": "bool",
          "name": "",
          "type": "bool"
        }
      ],
      "stateMutability": "view",
      "type": "function"
    }
  ],
  "bytecode": "0x608060405234801561001057600080fd5b50604051613a0f380380613a0f833981810160405281019061003291906100db565b806000806101000a81548173ffffffffffffffffffffffffffffffffffffffff021916908373ffffffffffffffffffffffffffffffffffffffff16021790555050610108565b600080fd5b600073ffffffffffffffffffffffffffffffffffffffff82169050919050565b60006100a88261007d565b9050919050565b6100b88161009d565b81146100c357600080fd5b50565b6000815190506100d5816100af565b92915050565b6000602082840312156100f1576100f0610078565b5b60006100ff848285016100c6565b91505092915050565b6138f8806101176000396000f3fe608060405234801561001057600080fd5b50600436106100b45760003560e01c80635c98dfa1116100715780635c98dfa1146101a857806367dd74ca146101c65780636c77cff7146101e2578063b98079bc146101fe578063c27a500d14610230578063e0c143771461024f576100b4565b80630b791430146100b95780630ea86ad8146100f25780632002058114610110578063310edf891461014057806342499a381461015c578063439fd35f14610178575b600080fd5b6100d360048036038101906100ce9190612562565b61027f565b6040516100e99a999897969594939291906126ad565b60405180910390f35b6100fa61056c565b60405161010791906127c4565b60405180910390f35b61012a6004803603810190610125919061280b565b610590565b6040516101379190612a6f565b60405180910390f35b61015a60048036038101906101559190612bf2565b610988565b005b61017660048036038101906101719190612562565b610d5d565b005b610192600480360381019061018d9190612d18565b610fe0565b60405161019f9190612d58565b60405180910390f35b6101b061100f565b6040516101bd9190612d73565b60405180910390f35b6101e060048036038101906101db9190612562565b61101c565b005b6101fc60048036038101906101f79190612562565b61146a565b005b61021860048036038101906102139190612562565b6115a5565b60405161022793929190612f2c565b60405180910390f35b610238611e60565b604051610246929190613027565b60405180910390f35b61026960048036038101906102649190612562565b6123a7565b604051610276919061305e565b60405180910390f35b6001818154811061028f57600080fd5b90600052602060002090600802016000915090508060000160009054906101000a900473ffffffffffffffffffffffffffffffffffffffff16908060010180546102d8906130af565b80601f0160208091040260200160405190810160405280929190818152602001828054610304906130af565b80156103515780601f1061032657610100808354040283529160200191610351565b820191906000526020600020905b81548152906001019060200180831161033457829003601f168201915b505050505090806002018054610366906130af565b80601f0160208091040260200160405190810160405280929190818152602001828054610392906130af565b80156103df5780601f106103b4576101008083540402835291602001916103df565b820191906000526020600020905b8154815290600101906020018083116103c257829003601f168201915b5050505050908060030180546103f4906130af565b80601f0160208091040260200160405190810160405280929190818152602001828054610420906130af565b801561046d5780601f106104425761010080835404028352916020019161046d565b820191906000526020600020905b81548152906001019060200180831161045057829003601f168201915b5050505050908060040160009054906101000a900467ffffffffffffffff16908060040160089054906101000a900467ffffffffffffffff16908060040160109054906101000a900467ffffffffffffffff16908060050180546104d0906130af565b80601f01602080910402602001604051908101604052809291908181526020018280546104fc906130af565b80156105495780601f1061051e57610100808354040283529160200191610549565b820191906000526020600020905b81548152906001019060200180831161052c57829003601f168201915b5050505050908060060160009054906101000a900460ff1690806007015490508a565b60008054906101000a900473ffffffffffffffffffffffffffffffffffffffff1681565b6060600360008373ffffffffffffffffffffffffffffffffffffffff1673ffffffffffffffffffffffffffffffffffffffff168152602001908152602001600020805480602002602001604051908101604052809291908181526020016000905b8282101561097d5783829060005260206000209060080201604051806101400160405290816000820160009054906101000a900473ffffffffffffffffffffffffffffffffffffffff1673ffffffffffffffffffffffffffffffffffffffff1673ffffffffffffffffffffffffffffffffffffffff16815260200160018201805461067b906130af565b80601f01602080910402602001604051908101604052809291908181526020018280546106a7906130af565b80156106f45780601f106106c9576101008083540402835291602001916106f4565b820191906000526020600020905b8154815290600101906020018083116106d757829003601f168201915b5050505050815260200160028201805461070d906130af565b80601f0160208091040260200160405190810160405280929190818152602001828054610739906130af565b80156107865780601f1061075b57610100808354040283529160200191610786565b820191906000526020600020905b81548152906001019060200180831161076957829003601f168201915b5050505050815260200160038201805461079f906130af565b80601f01602080910402602001604051908101604052809291908181526020018280546107cb906130af565b80156108185780601f106107ed57610100808354040283529160200191610818565b820191906000526020600020905b8154815290600101906020018083116107fb57829003601f168201915b505050505081526020016004820160009054906101000a900467ffffffffffffffff1667ffffffffffffffff1667ffffffffffffffff1681526020016004820160089054906101000a900467ffffffffffffffff1667ffffffffffffffff1667ffffffffffffffff1681526020016004820160109054906101000a900467ffffffffffffffff1667ffffffffffffffff1667ffffffffffffffff1681526020016005820180546108c7906130af565b80601f01602080910402602001604051908101604052809291908181526020018280546108f3906130af565b80156109405780601f1061091557610100808354040283529160200191610940565b820191906000526020600020905b81548152906001019060200180831161092357829003601f168201915b505050505081526020016006820160009054906101000a900460ff16151515158152602001600782015481525050815260200190600101906105f1565b505050509050919050565b60006040518061014001604052803373ffffffffffffffffffffffffffffffffffffffff1681526020018a81526020018981526020018881526020018767ffffffffffffffff1681526020018667ffffffffffffffff1681526020018567ffffffffffffffff168152602001848152602001600115158152602001838152509050600181908060018154018082558091505060019003906000526020600020906008020160009091909190915060008201518160000160006101000a81548173ffffffffffffffffffffffffffffffffffffffff021916908373ffffffffffffffffffffffffffffffffffffffff1602179055506020820151816001019081610a919190613282565b506040820151816002019081610aa79190613282565b506060820151816003019081610abd9190613282565b5060808201518160040160006101000a81548167ffffffffffffffff021916908367ffffffffffffffff16021790555060a08201518160040160086101000a81548167ffffffffffffffff021916908367ffffffffffffffff16021790555060c08201518160040160106101000a81548167ffffffffffffffff021916908367ffffffffffffffff16021790555060e0820151816005019081610b609190613282565b506101008201518160060160006101000a81548160ff02191690831515021790555061012082015181600701555050600360003373ffffffffffffffffffffffffffffffffffffffff1673ffffffffffffffffffffffffffffffffffffffff16815260200190815260200160002081908060018154018082558091505060019003906000526020600020906008020160009091909190915060008201518160000160006101000a81548173ffffffffffffffffffffffffffffffffffffffff021916908373ffffffffffffffffffffffffffffffffffffffff1602179055506020820151816001019081610c549190613282565b506040820151816002019081610c6a9190613282565b506060820151816003019081610c809190613282565b5060808201518160040160006101000a81548167ffffffffffffffff021916908367ffffffffffffffff16021790555060a08201518160040160086101000a81548167ffffffffffffffff021916908367ffffffffffffffff16021790555060c08201518160040160106101000a81548167ffffffffffffffff021916908367ffffffffffffffff16021790555060e0820151816005019081610d239190613282565b506101008201518160060160006101000a81548160ff02191690831515021790555061012082015181600701555050505050505050505050565b6001805490508110610da4576040517f08c379a0000000000000000000000000000000000000000000000000000000008152600401610d9b906133a0565b60405180910390fd5b4260018281548110610db957610db86133c0565b5b906000526020600020906008020160040160009054906101000a900467ffffffffffffffff1667ffffffffffffffff1611610e29576040517f08c379a0000000000000000000000000000000000000000000000000000000008152600401610e209061343b565b60405180910390fd5b60018181548110610e3d57610e3c6133c0565b5b906000526020600020906008020160060160009054906101000a900460ff16610e9b576040517f08c379a0000000000000000000000000000000000000000000000000000000008152600401610e92906134a7565b60405180910390fd5b600060026000838152602001908152602001600020905060005b8180549050811015610f79573373ffffffffffffffffffffffffffffffffffffffff16828281548110610eeb57610eea6133c0565b5b9060005260206000200160009054906101000a900473ffffffffffffffffffffffffffffffffffffffff1673ffffffffffffffffffffffffffffffffffffffff1603610f6c576040517f08c379a0000000000000000000000000000000000000000000000000000000008152600401610f6390613513565b60405180910390fd5b8080600101915050610eb5565b5080339080600181540180825580915050600190039060005260206000200160009091909190916101000a81548173ffffffffffffffffffffffffffffffffffffffff021916908373ffffffffffffffffffffffffffffffffffffffff1602179055505050565b60046020528160005260406000206020528060005260406000206000915091509054906101000a900460ff1681565b6000600180549050905090565b6001805490508110611063576040517f08c379a000000000000000000000000000000000000000000000000000000000815260040161105a906133a0565b60405180910390fd5b4260018281548110611078576110776133c0565b5b906000526020600020906008020160040160009054906101000a900467ffffffffffffffff1667ffffffffffffffff16116110e8576040517f08c379a00000000000000000000000000000000000000000000000000000000081526004016110df9061357f565b60405180910390fd5b600181815481106110fc576110fb6133c0565b5b906000526020600020906008020160060160009054906101000a900460ff1661115a576040517f08c379a0000000000000000000000000000000000000000000000000000000008152600401611151906134a7565b60405180910390fd5b6004600082815260200190815260200160002060003373ffffffffffffffffffffffffffffffffffffffff1673ffffffffffffffffffffffffffffffffffffffff16815260200190815260200160002060009054906101000a900460ff16156111f8576040517f08c379a00000000000000000000000000000000000000000000000000000000081526004016111ef906135eb565b60405180910390fd5b60006001828154811061120e5761120d6133c0565b5b906000526020600020906008020160070154905060008111611265576040517f08c379a000000000000000000000000000000000000000000000000000000000815260040161125c90613657565b60405180910390fd5b60008054906101000a900473ffffffffffffffffffffffffffffffffffffffff1673ffffffffffffffffffffffffffffffffffffffff166323b872dd33600185815481106112b6576112b56133c0565b5b906000526020600020906008020160000160009054906101000a900473ffffffffffffffffffffffffffffffffffffffff16846040518463ffffffff1660e01b815260040161130793929190613677565b6020604051808303816000875af1158015611326573d6000803e3d6000fd5b505050506040513d601f19601f8201168201806040525081019061134a91906136da565b611389576040517f08c379a000000000000000000000000000000000000000000000000000000000815260040161138090613753565b60405180910390fd5b60016004600084815260200190815260200160002060003373ffffffffffffffffffffffffffffffffffffffff1673ffffffffffffffffffffffffffffffffffffffff16815260200190815260200160002060006101000a81548160ff02191690831515021790555060026000838152602001908152602001600020339080600181540180825580915050600190039060005260206000200160009091909190916101000a81548173ffffffffffffffffffffffffffffffffffffffff021916908373ffffffffffffffffffffffffffffffffffffffff1602179055505050565b60018054905081106114b1576040517f08c379a00000000000000000000000000000000000000000000000000000000081526004016114a8906133a0565b60405180910390fd5b600181815481106114c5576114c46133c0565b5b906000526020600020906008020160000160009054906101000a900473ffffffffffffffffffffffffffffffffffffffff1673ffffffffffffffffffffffffffffffffffffffff163373ffffffffffffffffffffffffffffffffffffffff1614611564576040517f08c379a000000000000000000000000000000000000000000000000000000000815260040161155b906137bf565b60405180910390fd5b60006001828154811061157a576115796133c0565b5b906000526020600020906008020160060160006101000a81548160ff02191690831515021790555050565b6115ad61248f565b60608060018054905084106115f7576040517f08c379a00000000000000000000000000000000000000000000000000000000081526004016115ee9061382b565b60405180910390fd5b6001848154811061160b5761160a6133c0565b5b9060005260206000209060080201600260008681526020019081526020016000206003600060018881548110611644576116436133c0565b5b906000526020600020906008020160000160009054906101000a900473ffffffffffffffffffffffffffffffffffffffff1673ffffffffffffffffffffffffffffffffffffffff1673ffffffffffffffffffffffffffffffffffffffff16815260200190815260200160002082604051806101400160405290816000820160009054906101000a900473ffffffffffffffffffffffffffffffffffffffff1673ffffffffffffffffffffffffffffffffffffffff1673ffffffffffffffffffffffffffffffffffffffff168152602001600182018054611723906130af565b80601f016020809104026020016040519081016040528092919081815260200182805461174f906130af565b801561179c5780601f106117715761010080835404028352916020019161179c565b820191906000526020600020905b81548152906001019060200180831161177f57829003601f168201915b505050505081526020016002820180546117b5906130af565b80601f01602080910402602001604051908101604052809291908181526020018280546117e1906130af565b801561182e5780601f106118035761010080835404028352916020019161182e565b820191906000526020600020905b81548152906001019060200180831161181157829003601f168201915b50505050508152602001600382018054611847906130af565b80601f0160208091040260200160405190810160405280929190818152602001828054611873906130af565b80156118c05780601f10611895576101008083540402835291602001916118c0565b820191906000526020600020905b8154815290600101906020018083116118a357829003601f168201915b505050505081526020016004820160009054906101000a900467ffffffffffffffff1667ffffffffffffffff1667ffffffffffffffff1681526020016004820160089054906101000a900467ffffffffffffffff1667ffffffffffffffff1667ffffffffffffffff1681526020016004820160109054906101000a900467ffffffffffffffff1667ffffffffffffffff1667ffffffffffffffff16815260200160058201805461196f906130af565b80601f016020809104026020016040519081016040528092919081815260200182805461199b906130af565b80156119e85780601f106119bd576101008083540402835291602001916119e8565b820191906000526020600020905b8154815290600101906020018083116119cb57829003601f168201915b505050505081526020016006820160009054906101000a900460ff16151515158152602001600782015481525050925081805480602002602001604051908101604052809291908181526020018280548015611a9957602002820191906000526020600020905b8160009054906101000a900473ffffffffffffffffffffffffffffffffffffffff1673ffffffffffffffffffffffffffffffffffffffff1681526020019060010190808311611a4f575b5050505050915080805480602002602001604051908101604052809291908181526020016000905b82821015611e4d5783829060005260206000209060080201604051806101400160405290816000820160009054906101000a900473ffffffffffffffffffffffffffffffffffffffff1673ffffffffffffffffffffffffffffffffffffffff1673ffffffffffffffffffffffffffffffffffffffff168152602001600182018054611b4b906130af565b80601f0160208091040260200160405190810160405280929190818152602001828054611b77906130af565b8015611bc45780601f10611b9957610100808354040283529160200191611bc4565b820191906000526020600020905b815481529060010190602001808311611ba757829003601f168201915b50505050508152602001600282018054611bdd906130af565b80601f0160208091040260200160405190810160405280929190818152602001828054611c09906130af565b8015611c565780601f10611c2b57610100808354040283529160200191611c56565b820191906000526020600020905b815481529060010190602001808311611c3957829003601f168201915b50505050508152602001600382018054611c6f906130af565b80601f0160208091040260200160405190810160405280929190818152602001828054611c9b906130af565b8015611ce85780601f10611cbd57610100808354040283529160200191611ce8565b820191906000526020600020905b815481529060010190602001808311611ccb57829003601f168201915b505050505081526020016004820160009054906101000a900467ffffffffffffffff1667ffffffffffffffff1667ffffffffffffffff1681526020016004820160089054906101000a900467ffffffffffffffff1667ffffffffffffffff1667ffffffffffffffff1681526020016004820160109054906101000a900467ffffffffffffffff1667ffffffffffffffff1667ffffffffffffffff168152602001600582018054611d97906130af565b80601f0160208091040260200160405190810160405280929190818152602001828054611dc3906130af565b8015611e105780601f10611de557610100808354040283529160200191611e10565b820191906000526020600020905b815481529060010190602001808311611df357829003601f168201915b505050505081526020016006820160009054906101000a900460ff1615151515815260200160078201548152505081526020019060010190611ac1565b5050505090509250925092509193909250565b6060806000805b600180549050811015611ec85760018181548110611e8857611e876133c0565b5b906000526020600020906008020160060160009054906101000a900460ff1615611ebb578180611eb79061387a565b9250505b8080600101915050611e67565b5060008167ffffffffffffffff811115611ee557611ee4612a9b565b5b604051908082528060200260200182016040528015611f135781602001602082028036833780820191505090505b50905060008267ffffffffffffffff811115611f3257611f31612a9b565b5b604051908082528060200260200182016040528015611f6b57816020015b611f5861248f565b815260200190600190039081611f505790505b5090506000805b6001805490508110156123985760018181548110611f9357611f926133c0565b5b906000526020600020906008020160060160009054906101000a900460ff161561238b5780848381518110611fcb57611fca6133c0565b5b60200260200101818152505060018181548110611feb57611fea6133c0565b5b9060005260206000209060080201604051806101400160405290816000820160009054906101000a900473ffffffffffffffffffffffffffffffffffffffff1673ffffffffffffffffffffffffffffffffffffffff1673ffffffffffffffffffffffffffffffffffffffff16815260200160018201805461206b906130af565b80601f0160208091040260200160405190810160405280929190818152602001828054612097906130af565b80156120e45780601f106120b9576101008083540402835291602001916120e4565b820191906000526020600020905b8154815290600101906020018083116120c757829003601f168201915b505050505081526020016002820180546120fd906130af565b80601f0160208091040260200160405190810160405280929190818152602001828054612129906130af565b80156121765780601f1061214b57610100808354040283529160200191612176565b820191906000526020600020905b81548152906001019060200180831161215957829003601f168201915b5050505050815260200160038201805461218f906130af565b80601f01602080910402602001604051908101604052809291908181526020018280546121bb906130af565b80156122085780601f106121dd57610100808354040283529160200191612208565b820191906000526020600020905b8154815290600101906020018083116121eb57829003601f168201915b505050505081526020016004820160009054906101000a900467ffffffffffffffff1667ffffffffffffffff1667ffffffffffffffff1681526020016004820160089054906101000a900467ffffffffffffffff1667ffffffffffffffff1667ffffffffffffffff1681526020016004820160109054906101000a900467ffffffffffffffff1667ffffffffffffffff1667ffffffffffffffff1681526020016005820180546122b7906130af565b80601f01602080910402602001604051908101604052809291908181526020018280546122e3906130af565b80156123305780601f1061230557610100808354040283529160200191612330565b820191906000526020600020905b81548152906001019060200180831161231357829003601f168201915b505050505081526020016006820160009054906101000a900460ff16151515158152602001600782015481525050838381518110612371576123706133c0565b5b602002602001018190525081806123879061387a565b9250505b8080600101915050611f72565b50828295509550505050509091565b606060018054905082106123f0576040517f08c379a00000000000000000000000000000000000000000000000000000000081526004016123e7906133a0565b60405180910390fd5b6002600083815260200190815260200160002080548060200260200160405190810160405280929190818152602001828054801561248357602002820191906000526020600020905b8160009054906101000a900473ffffffffffffffffffffffffffffffffffffffff1673ffffffffffffffffffffffffffffffffffffffff1681526020019060010190808311612439575b50505050509050919050565b604051806101400160405280600073ffffffffffffffffffffffffffffffffffffffff168152602001606081526020016060815260200160608152602001600067ffffffffffffffff168152602001600067ffffffffffffffff168152602001600067ffffffffffffffff16815260200160608152602001600015158152602001600081525090565b6000604051905090565b600080fd5b600080fd5b6000819050919050565b61253f8161252c565b811461254a57600080fd5b50565b60008135905061255c81612536565b92915050565b60006020828403121561257857612577612522565b5b60006125868482850161254d565b91505092915050565b600073ffffffffffffffffffffffffffffffffffffffff82169050919050565b60006125ba8261258f565b9050919050565b6125ca816125af565b82525050565b600081519050919050565b600082825260208201905092915050565b60005b8381101561260a5780820151818401526020810190506125ef565b60008484015250505050565b6000601f19601f8301169050919050565b6000612632826125d0565b61263c81856125db565b935061264c8185602086016125ec565b61265581612616565b840191505092915050565b600067ffffffffffffffff82169050919050565b61267d81612660565b82525050565b60008115159050919050565b61269881612683565b82525050565b6126a78161252c565b82525050565b6000610140820190506126c3600083018d6125c1565b81810360208301526126d5818c612627565b905081810360408301526126e9818b612627565b905081810360608301526126fd818a612627565b905061270c6080830189612674565b61271960a0830188612674565b61272660c0830187612674565b81810360e08301526127388186612627565b905061274861010083018561268f565b61275661012083018461269e565b9b9a5050505050505050505050565b6000819050919050565b600061278a6127856127808461258f565b612765565b61258f565b9050919050565b600061279c8261276f565b9050919050565b60006127ae82612791565b9050919050565b6127be816127a3565b82525050565b60006020820190506127d960008301846127b5565b92915050565b6127e8816125af565b81146127f357600080fd5b50565b600081359050612805816127df565b92915050565b60006020828403121561282157612820612522565b5b600061282f848285016127f6565b91505092915050565b600081519050919050565b600082825260208201905092915050565b6000819050602082019050919050565b61286d816125af565b82525050565b600082825260208201905092915050565b600061288f826125d0565b6128998185612873565b93506128a98185602086016125ec565b6128b281612616565b840191505092915050565b6128c681612660565b82525050565b6128d581612683565b82525050565b6128e48161252c565b82525050565b6000610140830160008301516129036000860182612864565b506020830151848203602086015261291b8282612884565b915050604083015184820360408601526129358282612884565b9150506060830151848203606086015261294f8282612884565b915050608083015161296460808601826128bd565b5060a083015161297760a08601826128bd565b5060c083015161298a60c08601826128bd565b5060e083015184820360e08601526129a28282612884565b9150506101008301516129b96101008601826128cc565b506101208301516129ce6101208601826128db565b508091505092915050565b60006129e583836128ea565b905092915050565b6000602082019050919050565b6000612a0582612838565b612a0f8185612843565b935083602082028501612a2185612854565b8060005b85811015612a5d5784840389528151612a3e85826129d9565b9450612a49836129ed565b925060208a01995050600181019050612a25565b50829750879550505050505092915050565b60006020820190508181036000830152612a8981846129fa565b905092915050565b600080fd5b600080fd5b7f4e487b7100000000000000000000000000000000000000000000000000000000600052604160045260246000fd5b612ad382612616565b810181811067ffffffffffffffff82111715612af257612af1612a9b565b5b80604052505050565b6000612b05612518565b9050612b118282612aca565b919050565b600067ffffffffffffffff821115612b3157612b30612a9b565b5b612b3a82612616565b9050602081019050919050565b82818337600083830152505050565b6000612b69612b6484612b16565b612afb565b905082815260208101848484011115612b8557612b84612a96565b5b612b90848285612b47565b509392505050565b600082601f830112612bad57612bac612a91565b5b8135612bbd848260208601612b56565b91505092915050565b612bcf81612660565b8114612bda57600080fd5b50565b600081359050612bec81612bc6565b92915050565b600080600080600080600080610100898b031215612c1357612c12612522565b5b600089013567ffffffffffffffff811115612c3157612c30612527565b5b612c3d8b828c01612b98565b985050602089013567ffffffffffffffff811115612c5e57612c5d612527565b5b612c6a8b828c01612b98565b975050604089013567ffffffffffffffff811115612c8b57612c8a612527565b5b612c978b828c01612b98565b9650506060612ca88b828c01612bdd565b9550506080612cb98b828c01612bdd565b94505060a0612cca8b828c01612bdd565b93505060c089013567ffffffffffffffff811115612ceb57612cea612527565b5b612cf78b828c01612b98565b92505060e0612d088b828c0161254d565b9150509295985092959890939650565b60008060408385031215612d2f57612d2e612522565b5b6000612d3d8582860161254d565b9250506020612d4e858286016127f6565b9150509250929050565b6000602082019050612d6d600083018461268f565b92915050565b6000602082019050612d88600083018461269e565b92915050565b600061014083016000830151612da76000860182612864565b5060208301518482036020860152612dbf8282612884565b91505060408301518482036040860152612dd98282612884565b91505060608301518482036060860152612df38282612884565b9150506080830151612e0860808601826128bd565b5060a0830151612e1b60a08601826128bd565b5060c0830151612e2e60c08601826128bd565b5060e083015184820360e0860152612e468282612884565b915050610100830151612e5d6101008601826128cc565b50610120830151612e726101208601826128db565b508091505092915050565b600081519050919050565b600082825260208201905092915050565b6000819050602082019050919050565b6000612eb58383612864565b60208301905092915050565b6000602082019050919050565b6000612ed982612e7d565b612ee38185612e88565b9350612eee83612e99565b8060005b83811015612f1f578151612f068882612ea9565b9750612f1183612ec1565b925050600181019050612ef2565b5085935050505092915050565b60006060820190508181036000830152612f468186612d8e565b90508181036020830152612f5a8185612ece565b90508181036040830152612f6e81846129fa565b9050949350505050565b600081519050919050565b600082825260208201905092915050565b6000819050602082019050919050565b6000612fb083836128db565b60208301905092915050565b6000602082019050919050565b6000612fd482612f78565b612fde8185612f83565b9350612fe983612f94565b8060005b8381101561301a5781516130018882612fa4565b975061300c83612fbc565b925050600181019050612fed565b5085935050505092915050565b600060408201905081810360008301526130418185612fc9565b9050818103602083015261305581846129fa565b90509392505050565b600060208201905081810360008301526130788184612ece565b905092915050565b7f4e487b7100000000000000000000000000000000000000000000000000000000600052602260045260246000fd5b600060028204905060018216806130c757607f821691505b6020821081036130da576130d9613080565b5b50919050565b60008190508160005260206000209050919050565b60006020601f8301049050919050565b600082821b905092915050565b6000600883026131427fffffffffffffffffffffffffffffffffffffffffffffffffffffffffffffffff82613105565b61314c8683613105565b95508019841693508086168417925050509392505050565b600061317f61317a6131758461252c565b612765565b61252c565b9050919050565b6000819050919050565b61319983613164565b6131ad6131a582613186565b848454613112565b825550505050565b600090565b6131c26131b5565b6131cd818484613190565b505050565b5b818110156131f1576131e66000826131ba565b6001810190506131d3565b5050565b601f82111561323657613207816130e0565b613210846130f5565b8101602085101561321f578190505b61323361322b856130f5565b8301826131d2565b50505b505050565b600082821c905092915050565b60006132596000198460080261323b565b1980831691505092915050565b60006132728383613248565b9150826002028217905092915050565b61328b826125d0565b67ffffffffffffffff8111156132a4576132a3612a9b565b5b6132ae82546130af565b6132b98282856131f5565b600060209050601f8311600181146132ec57600084156132da578287015190505b6132e48582613266565b86555061334c565b601f1984166132fa866130e0565b60005b82811015613322578489015182556001820191506020850194506020810190506132fd565b8683101561333f578489015161333b601f891682613248565b8355505b6001600288020188555050505b505050505050565b7f496e76616c6964206576656e7420494400000000000000000000000000000000600082015250565b600061338a6010836125db565b915061339582613354565b602082019050919050565b600060208201905081810360008301526133b98161337d565b9050919050565b7f4e487b7100000000000000000000000000000000000000000000000000000000600052603260045260246000fd5b7f456e747279206461746520657870697265640000000000000000000000000000600082015250565b60006134256012836125db565b9150613430826133ef565b602082019050919050565b6000602082019050818103600083015261345481613418565b9050919050565b7f4576656e7420697320696e616374697665000000000000000000000000000000600082015250565b60006134916011836125db565b915061349c8261345b565b602082019050919050565b600060208201905081810360008301526134c081613484565b9050919050565b7f416c726561647920616e20617474656e64656500000000000000000000000000600082015250565b60006134fd6013836125db565b9150613508826134c7565b602082019050919050565b6000602082019050818103600083015261352c816134f0565b9050919050565b7f4576656e74206578706972656400000000000000000000000000000000000000600082015250565b6000613569600d836125db565b915061357482613533565b602082019050919050565b600060208201905081810360008301526135988161355c565b9050919050565b7f5469636b657420616c7265616479207075726368617365640000000000000000600082015250565b60006135d56018836125db565b91506135e08261359f565b602082019050919050565b60006020820190508181036000830152613604816135c8565b9050919050565b7f46726565206576656e742c206e6f207075726368617365206e65656465640000600082015250565b6000613641601e836125db565b915061364c8261360b565b602082019050919050565b6000602082019050818103600083015261367081613634565b9050919050565b600060608201905061368c60008301866125c1565b61369960208301856125c1565b6136a6604083018461269e565b949350505050565b6136b781612683565b81146136c257600080fd5b50565b6000815190506136d4816136ae565b92915050565b6000602082840312156136f0576136ef612522565b5b60006136fe848285016136c5565b91505092915050565b7f63555344205061796d656e74206661696c656400000000000000000000000000600082015250565b600061373d6013836125db565b915061374882613707565b602082019050919050565b6000602082019050818103600083015261376c81613730565b9050919050565b7f4e6f74206576656e74206f776e65720000000000000000000000000000000000600082015250565b60006137a9600f836125db565b91506137b482613773565b602082019050919050565b600060208201905081810360008301526137d88161379c565b9050919050565b7f4576656e7420646f6573206e6f74206578697374000000000000000000000000600082015250565b60006138156014836125db565b9150613820826137df565b602082019050919050565b6000602082019050818103600083015261384481613808565b9050919050565b7f4e487b7100000000000000000000000000000000000000000000000000000000600052601160045260246000fd5b60006138858261252c565b91507fffffffffffffffffffffffffffffffffffffffffffffffffffffffffffffffff82036138b7576138b661384b565b5b60018201905091905056fea2646970667358221220b1b57b40b7104e6043def0c7fd69cf15dbf6447b96967bfd06fde0a4833c559264736f6c634300081c0033",
  "linkReferences": {},
  "deployedLinkReferences": {}
}