{
  "_format": "hh-sol-artifact-1",
  "contractName": "CeAffairs",
  "sourceName": "contracts/CeAffairs.sol",
  "abi": [
    {
      "inputs": [
        {
          "internalType": "uint256",
          "name": "_index",
          "type": "uint256"
        }
      ],
      "name": "addEventAttendees",
      "outputs": [],
      "stateMutability": "nonpayable",
      "type": "function"
    },
    {
      "inputs": [
        {
          "internalType": "string",
          "name": "_eventName",
          "type": "string"
        },
        {
          "internalType": "string",
          "name": "_eventCardImgUrl",
          "type": "string"
        },
        {
          "internalType": "string",
          "name": "_eventDetails",
          "type": "string"
        },
        {
          "internalType": "uint64",
          "name": "_eventDate",
          "type": "uint64"
        },
        {
          "internalType": "uint64",
          "name": "_startTime",
          "type": "uint64"
        },
        {
          "internalType": "uint64",
          "name": "_endTime",
          "type": "uint64"
        },
        {
          "internalType": "string",
          "name": "_eventLocation",
          "type": "string"
        }
      ],
      "name": "createEvent",
      "outputs": [],
      "stateMutability": "nonpayable",
      "type": "function"
    },
    {
      "inputs": [
        {
          "internalType": "uint256",
          "name": "_index",
          "type": "uint256"
        }
      ],
      "name": "deleteEventById",
      "outputs": [],
      "stateMutability": "nonpayable",
      "type": "function"
    },
    {
      "inputs": [
        {
          "internalType": "uint256",
          "name": "",
          "type": "uint256"
        }
      ],
      "name": "events",
      "outputs": [
        {
          "internalType": "address",
          "name": "owner",
          "type": "address"
        },
        {
          "internalType": "string",
          "name": "eventName",
          "type": "string"
        },
        {
          "internalType": "string",
          "name": "eventCardImgUrl",
          "type": "string"
        },
        {
          "internalType": "string",
          "name": "eventDetails",
          "type": "string"
        },
        {
          "internalType": "uint64",
          "name": "eventDate",
          "type": "uint64"
        },
        {
          "internalType": "uint64",
          "name": "startTime",
          "type": "uint64"
        },
        {
          "internalType": "uint64",
          "name": "endTime",
          "type": "uint64"
        },
        {
          "internalType": "string",
          "name": "eventLocation",
          "type": "string"
        },
        {
          "internalType": "bool",
          "name": "isActive",
          "type": "bool"
        }
      ],
      "stateMutability": "view",
      "type": "function"
    },
    {
      "inputs": [],
      "name": "getAllEvents",
      "outputs": [
        {
          "components": [
            {
              "internalType": "address",
              "name": "owner",
              "type": "address"
            },
            {
              "internalType": "string",
              "name": "eventName",
              "type": "string"
            },
            {
              "internalType": "string",
              "name": "eventCardImgUrl",
              "type": "string"
            },
            {
              "internalType": "string",
              "name": "eventDetails",
              "type": "string"
            },
            {
              "internalType": "uint64",
              "name": "eventDate",
              "type": "uint64"
            },
            {
              "internalType": "uint64",
              "name": "startTime",
              "type": "uint64"
            },
            {
              "internalType": "uint64",
              "name": "endTime",
              "type": "uint64"
            },
            {
              "internalType": "string",
              "name": "eventLocation",
              "type": "string"
            },
            {
              "internalType": "bool",
              "name": "isActive",
              "type": "bool"
            }
          ],
          "internalType": "struct CeAffairs.Event[]",
          "name": "",
          "type": "tuple[]"
        }
      ],
      "stateMutability": "view",
      "type": "function"
    },
    {
      "inputs": [
        {
          "internalType": "uint256",
          "name": "_index",
          "type": "uint256"
        }
      ],
      "name": "getAttendees",
      "outputs": [
        {
          "internalType": "address[]",
          "name": "",
          "type": "address[]"
        }
      ],
      "stateMutability": "view",
      "type": "function"
    },
    {
      "inputs": [
        {
          "internalType": "uint256",
          "name": "_index",
          "type": "uint256"
        }
      ],
      "name": "getEventById",
      "outputs": [
        {
          "internalType": "address",
          "name": "",
          "type": "address"
        },
        {
          "internalType": "string",
          "name": "",
          "type": "string"
        },
        {
          "internalType": "string",
          "name": "",
          "type": "string"
        },
        {
          "internalType": "string",
          "name": "",
          "type": "string"
        },
        {
          "internalType": "uint64",
          "name": "",
          "type": "uint64"
        },
        {
          "internalType": "uint64",
          "name": "",
          "type": "uint64"
        },
        {
          "internalType": "uint64",
          "name": "",
          "type": "uint64"
        },
        {
          "internalType": "string",
          "name": "",
          "type": "string"
        },
        {
          "internalType": "bool",
          "name": "",
          "type": "bool"
        }
      ],
      "stateMutability": "view",
      "type": "function"
    },
    {
      "inputs": [],
      "name": "getEventLength",
      "outputs": [
        {
          "internalType": "uint256",
          "name": "",
          "type": "uint256"
        }
      ],
      "stateMutability": "view",
      "type": "function"
    },
    {
      "inputs": [
        {
          "internalType": "address",
          "name": "_creator",
          "type": "address"
        }
      ],
      "name": "getEventsByCreator",
      "outputs": [
        {
          "internalType": "uint256[]",
          "name": "",
          "type": "uint256[]"
        }
      ],
      "stateMutability": "view",
      "type": "function"
    }
  ],
  "bytecode": "0x6080604052348015600f57600080fd5b506124c28061001f6000396000f3fe608060405234801561001057600080fd5b50600436106100935760003560e01c80636c77cff7116100665780636c77cff71461013a578063b98079bc14610156578063c27a500d1461018e578063d6f159cf146101ac578063e0c14377146101c857610093565b80630b7914301461009857806320020581146100d057806342499a38146101005780635c98dfa11461011c575b600080fd5b6100b260048036038101906100ad919061158b565b6101f8565b6040516100c7999897969594939291906116c7565b60405180910390f35b6100ea60048036038101906100e5919061179c565b6104df565b6040516100f79190611887565b60405180910390f35b61011a6004803603810190610115919061158b565b610576565b005b6101246107f9565b60405161013191906118b8565b60405180910390f35b610154600480360381019061014f919061158b565b610805565b005b610170600480360381019061016b919061158b565b61093f565b604051610185999897969594939291906116c7565b60405180910390f35b610196610c9c565b6040516101a39190611ae6565b60405180910390f35b6101c660048036038101906101c19190611c69565b611166565b005b6101e260048036038101906101dd919061158b565b6113d7565b6040516101ef9190611e2a565b60405180910390f35b6000818154811061020857600080fd5b90600052602060002090600702016000915090508060000160009054906101000a900473ffffffffffffffffffffffffffffffffffffffff169080600101805461025190611e7b565b80601f016020809104026020016040519081016040528092919081815260200182805461027d90611e7b565b80156102ca5780601f1061029f576101008083540402835291602001916102ca565b820191906000526020600020905b8154815290600101906020018083116102ad57829003601f168201915b5050505050908060020180546102df90611e7b565b80601f016020809104026020016040519081016040528092919081815260200182805461030b90611e7b565b80156103585780601f1061032d57610100808354040283529160200191610358565b820191906000526020600020905b81548152906001019060200180831161033b57829003601f168201915b50505050509080600301805461036d90611e7b565b80601f016020809104026020016040519081016040528092919081815260200182805461039990611e7b565b80156103e65780601f106103bb576101008083540402835291602001916103e6565b820191906000526020600020905b8154815290600101906020018083116103c957829003601f168201915b5050505050908060040160009054906101000a900467ffffffffffffffff16908060040160089054906101000a900467ffffffffffffffff16908060040160109054906101000a900467ffffffffffffffff169080600501805461044990611e7b565b80601f016020809104026020016040519081016040528092919081815260200182805461047590611e7b565b80156104c25780601f10610497576101008083540402835291602001916104c2565b820191906000526020600020905b8154815290600101906020018083116104a557829003601f168201915b5050505050908060060160009054906101000a900460ff16905089565b6060600260008373ffffffffffffffffffffffffffffffffffffffff1673ffffffffffffffffffffffffffffffffffffffff16815260200190815260200160002080548060200260200160405190810160405280929190818152602001828054801561056a57602002820191906000526020600020905b815481526020019060010190808311610556575b50505050509050919050565b60008054905081106105bd576040517f08c379a00000000000000000000000000000000000000000000000000000000081526004016105b490611ef8565b60405180910390fd5b42600082815481106105d2576105d1611f18565b5b906000526020600020906007020160040160009054906101000a900467ffffffffffffffff1667ffffffffffffffff1611610642576040517f08c379a000000000000000000000000000000000000000000000000000000000815260040161063990611f93565b60405180910390fd5b6000818154811061065657610655611f18565b5b906000526020600020906007020160060160009054906101000a900460ff166106b4576040517f08c379a00000000000000000000000000000000000000000000000000000000081526004016106ab90611fff565b60405180910390fd5b600060016000838152602001908152602001600020905060005b8180549050811015610792573373ffffffffffffffffffffffffffffffffffffffff1682828154811061070457610703611f18565b5b9060005260206000200160009054906101000a900473ffffffffffffffffffffffffffffffffffffffff1673ffffffffffffffffffffffffffffffffffffffff1603610785576040517f08c379a000000000000000000000000000000000000000000000000000000000815260040161077c9061206b565b60405180910390fd5b80806001019150506106ce565b5080339080600181540180825580915050600190039060005260206000200160009091909190916101000a81548173ffffffffffffffffffffffffffffffffffffffff021916908373ffffffffffffffffffffffffffffffffffffffff1602179055505050565b60008080549050905090565b600080549050811061084c576040517f08c379a000000000000000000000000000000000000000000000000000000000815260040161084390611ef8565b60405180910390fd5b600081815481106108605761085f611f18565b5b906000526020600020906007020160000160009054906101000a900473ffffffffffffffffffffffffffffffffffffffff1673ffffffffffffffffffffffffffffffffffffffff163373ffffffffffffffffffffffffffffffffffffffff16146108ff576040517f08c379a00000000000000000000000000000000000000000000000000000000081526004016108f6906120d7565b60405180910390fd5b600080828154811061091457610913611f18565b5b906000526020600020906007020160060160006101000a81548160ff02191690831515021790555050565b6000606080606060008060006060600080805490508a10610995576040517f08c379a000000000000000000000000000000000000000000000000000000000815260040161098c90612143565b60405180910390fd5b6000808b815481106109aa576109a9611f18565b5b906000526020600020906007020190508060000160009054906101000a900473ffffffffffffffffffffffffffffffffffffffff168160010182600201836003018460040160009054906101000a900467ffffffffffffffff168560040160089054906101000a900467ffffffffffffffff168660040160109054906101000a900467ffffffffffffffff16876005018860060160009054906101000a900460ff16878054610a5890611e7b565b80601f0160208091040260200160405190810160405280929190818152602001828054610a8490611e7b565b8015610ad15780601f10610aa657610100808354040283529160200191610ad1565b820191906000526020600020905b815481529060010190602001808311610ab457829003601f168201915b50505050509750868054610ae490611e7b565b80601f0160208091040260200160405190810160405280929190818152602001828054610b1090611e7b565b8015610b5d5780601f10610b3257610100808354040283529160200191610b5d565b820191906000526020600020905b815481529060010190602001808311610b4057829003601f168201915b50505050509650858054610b7090611e7b565b80601f0160208091040260200160405190810160405280929190818152602001828054610b9c90611e7b565b8015610be95780601f10610bbe57610100808354040283529160200191610be9565b820191906000526020600020905b815481529060010190602001808311610bcc57829003601f168201915b50505050509550818054610bfc90611e7b565b80601f0160208091040260200160405190810160405280929190818152602001828054610c2890611e7b565b8015610c755780601f10610c4a57610100808354040283529160200191610c75565b820191906000526020600020905b815481529060010190602001808311610c5857829003601f168201915b50505050509150995099509950995099509950995099509950509193959799909294969850565b60606000805b600080549050811015610d035760008181548110610cc357610cc2611f18565b5b906000526020600020906007020160060160009054906101000a900460ff1615610cf6578180610cf290612192565b9250505b8080600101915050610ca2565b5060008167ffffffffffffffff811115610d2057610d1f611b12565b5b604051908082528060200260200182016040528015610d5957816020015b610d466114bf565b815260200190600190039081610d3e5790505b5090506000805b60008054905081101561115c5760008181548110610d8157610d80611f18565b5b906000526020600020906007020160060160009054906101000a900460ff161561114f5760008181548110610db957610db8611f18565b5b9060005260206000209060070201604051806101200160405290816000820160009054906101000a900473ffffffffffffffffffffffffffffffffffffffff1673ffffffffffffffffffffffffffffffffffffffff1673ffffffffffffffffffffffffffffffffffffffff168152602001600182018054610e3990611e7b565b80601f0160208091040260200160405190810160405280929190818152602001828054610e6590611e7b565b8015610eb25780601f10610e8757610100808354040283529160200191610eb2565b820191906000526020600020905b815481529060010190602001808311610e9557829003601f168201915b50505050508152602001600282018054610ecb90611e7b565b80601f0160208091040260200160405190810160405280929190818152602001828054610ef790611e7b565b8015610f445780601f10610f1957610100808354040283529160200191610f44565b820191906000526020600020905b815481529060010190602001808311610f2757829003601f168201915b50505050508152602001600382018054610f5d90611e7b565b80601f0160208091040260200160405190810160405280929190818152602001828054610f8990611e7b565b8015610fd65780601f10610fab57610100808354040283529160200191610fd6565b820191906000526020600020905b815481529060010190602001808311610fb957829003601f168201915b505050505081526020016004820160009054906101000a900467ffffffffffffffff1667ffffffffffffffff1667ffffffffffffffff1681526020016004820160089054906101000a900467ffffffffffffffff1667ffffffffffffffff1667ffffffffffffffff1681526020016004820160109054906101000a900467ffffffffffffffff1667ffffffffffffffff1667ffffffffffffffff16815260200160058201805461108590611e7b565b80601f01602080910402602001604051908101604052809291908181526020018280546110b190611e7b565b80156110fe5780601f106110d3576101008083540402835291602001916110fe565b820191906000526020600020905b8154815290600101906020018083116110e157829003601f168201915b505050505081526020016006820160009054906101000a900460ff16151515158152505083838151811061113557611134611f18565b5b6020026020010181905250818061114b90612192565b9250505b8080600101915050610d60565b5081935050505090565b60006040518061012001604052803373ffffffffffffffffffffffffffffffffffffffff1681526020018981526020018881526020018781526020018667ffffffffffffffff1681526020018567ffffffffffffffff1681526020018467ffffffffffffffff16815260200183815260200160011515815250908060018154018082558091505060019003906000526020600020906007020160009091909190915060008201518160000160006101000a81548173ffffffffffffffffffffffffffffffffffffffff021916908373ffffffffffffffffffffffffffffffffffffffff16021790555060208201518160010190816112649190612386565b50604082015181600201908161127a9190612386565b5060608201518160030190816112909190612386565b5060808201518160040160006101000a81548167ffffffffffffffff021916908367ffffffffffffffff16021790555060a08201518160040160086101000a81548167ffffffffffffffff021916908367ffffffffffffffff16021790555060c08201518160040160106101000a81548167ffffffffffffffff021916908367ffffffffffffffff16021790555060e08201518160050190816113339190612386565b506101008201518160060160006101000a81548160ff0219169083151502179055505050600260003373ffffffffffffffffffffffffffffffffffffffff1673ffffffffffffffffffffffffffffffffffffffff16815260200190815260200160002060016000805490506113a89190612458565b908060018154018082558091505060019003906000526020600020016000909190919091505550505050505050565b60606000805490508210611420576040517f08c379a000000000000000000000000000000000000000000000000000000000815260040161141790611ef8565b60405180910390fd5b600160008381526020019081526020016000208054806020026020016040519081016040528092919081815260200182805480156114b357602002820191906000526020600020905b8160009054906101000a900473ffffffffffffffffffffffffffffffffffffffff1673ffffffffffffffffffffffffffffffffffffffff1681526020019060010190808311611469575b50505050509050919050565b604051806101200160405280600073ffffffffffffffffffffffffffffffffffffffff168152602001606081526020016060815260200160608152602001600067ffffffffffffffff168152602001600067ffffffffffffffff168152602001600067ffffffffffffffff168152602001606081526020016000151581525090565b6000604051905090565b600080fd5b600080fd5b6000819050919050565b61156881611555565b811461157357600080fd5b50565b6000813590506115858161155f565b92915050565b6000602082840312156115a1576115a061154b565b5b60006115af84828501611576565b91505092915050565b600073ffffffffffffffffffffffffffffffffffffffff82169050919050565b60006115e3826115b8565b9050919050565b6115f3816115d8565b82525050565b600081519050919050565b600082825260208201905092915050565b60005b83811015611633578082015181840152602081019050611618565b60008484015250505050565b6000601f19601f8301169050919050565b600061165b826115f9565b6116658185611604565b9350611675818560208601611615565b61167e8161163f565b840191505092915050565b600067ffffffffffffffff82169050919050565b6116a681611689565b82525050565b60008115159050919050565b6116c1816116ac565b82525050565b6000610120820190506116dd600083018c6115ea565b81810360208301526116ef818b611650565b90508181036040830152611703818a611650565b905081810360608301526117178189611650565b9050611726608083018861169d565b61173360a083018761169d565b61174060c083018661169d565b81810360e08301526117528185611650565b90506117626101008301846116b8565b9a9950505050505050505050565b611779816115d8565b811461178457600080fd5b50565b60008135905061179681611770565b92915050565b6000602082840312156117b2576117b161154b565b5b60006117c084828501611787565b91505092915050565b600081519050919050565b600082825260208201905092915050565b6000819050602082019050919050565b6117fe81611555565b82525050565b600061181083836117f5565b60208301905092915050565b6000602082019050919050565b6000611834826117c9565b61183e81856117d4565b9350611849836117e5565b8060005b8381101561187a5781516118618882611804565b975061186c8361181c565b92505060018101905061184d565b5085935050505092915050565b600060208201905081810360008301526118a18184611829565b905092915050565b6118b281611555565b82525050565b60006020820190506118cd60008301846118a9565b92915050565b600081519050919050565b600082825260208201905092915050565b6000819050602082019050919050565b611908816115d8565b82525050565b600082825260208201905092915050565b600061192a826115f9565b611934818561190e565b9350611944818560208601611615565b61194d8161163f565b840191505092915050565b61196181611689565b82525050565b611970816116ac565b82525050565b60006101208301600083015161198f60008601826118ff565b50602083015184820360208601526119a7828261191f565b915050604083015184820360408601526119c1828261191f565b915050606083015184820360608601526119db828261191f565b91505060808301516119f06080860182611958565b5060a0830151611a0360a0860182611958565b5060c0830151611a1660c0860182611958565b5060e083015184820360e0860152611a2e828261191f565b915050610100830151611a45610100860182611967565b508091505092915050565b6000611a5c8383611976565b905092915050565b6000602082019050919050565b6000611a7c826118d3565b611a8681856118de565b935083602082028501611a98856118ef565b8060005b85811015611ad45784840389528151611ab58582611a50565b9450611ac083611a64565b925060208a01995050600181019050611a9c565b50829750879550505050505092915050565b60006020820190508181036000830152611b008184611a71565b905092915050565b600080fd5b600080fd5b7f4e487b7100000000000000000000000000000000000000000000000000000000600052604160045260246000fd5b611b4a8261163f565b810181811067ffffffffffffffff82111715611b6957611b68611b12565b5b80604052505050565b6000611b7c611541565b9050611b888282611b41565b919050565b600067ffffffffffffffff821115611ba857611ba7611b12565b5b611bb18261163f565b9050602081019050919050565b82818337600083830152505050565b6000611be0611bdb84611b8d565b611b72565b905082815260208101848484011115611bfc57611bfb611b0d565b5b611c07848285611bbe565b509392505050565b600082601f830112611c2457611c23611b08565b5b8135611c34848260208601611bcd565b91505092915050565b611c4681611689565b8114611c5157600080fd5b50565b600081359050611c6381611c3d565b92915050565b600080600080600080600060e0888a031215611c8857611c8761154b565b5b600088013567ffffffffffffffff811115611ca657611ca5611550565b5b611cb28a828b01611c0f565b975050602088013567ffffffffffffffff811115611cd357611cd2611550565b5b611cdf8a828b01611c0f565b965050604088013567ffffffffffffffff811115611d0057611cff611550565b5b611d0c8a828b01611c0f565b9550506060611d1d8a828b01611c54565b9450506080611d2e8a828b01611c54565b93505060a0611d3f8a828b01611c54565b92505060c088013567ffffffffffffffff811115611d6057611d5f611550565b5b611d6c8a828b01611c0f565b91505092959891949750929550565b600081519050919050565b600082825260208201905092915050565b6000819050602082019050919050565b6000611db383836118ff565b60208301905092915050565b6000602082019050919050565b6000611dd782611d7b565b611de18185611d86565b9350611dec83611d97565b8060005b83811015611e1d578151611e048882611da7565b9750611e0f83611dbf565b925050600181019050611df0565b5085935050505092915050565b60006020820190508181036000830152611e448184611dcc565b905092915050565b7f4e487b7100000000000000000000000000000000000000000000000000000000600052602260045260246000fd5b60006002820490506001821680611e9357607f821691505b602082108103611ea657611ea5611e4c565b5b50919050565b7f496e76616c6964206576656e7420494400000000000000000000000000000000600082015250565b6000611ee2601083611604565b9150611eed82611eac565b602082019050919050565b60006020820190508181036000830152611f1181611ed5565b9050919050565b7f4e487b7100000000000000000000000000000000000000000000000000000000600052603260045260246000fd5b7f456e747279206461746520657870697265640000000000000000000000000000600082015250565b6000611f7d601283611604565b9150611f8882611f47565b602082019050919050565b60006020820190508181036000830152611fac81611f70565b9050919050565b7f4576656e7420697320696e616374697665000000000000000000000000000000600082015250565b6000611fe9601183611604565b9150611ff482611fb3565b602082019050919050565b6000602082019050818103600083015261201881611fdc565b9050919050565b7f416c726561647920616e20617474656e64656500000000000000000000000000600082015250565b6000612055601383611604565b91506120608261201f565b602082019050919050565b6000602082019050818103600083015261208481612048565b9050919050565b7f4e6f74206576656e74206f776e65720000000000000000000000000000000000600082015250565b60006120c1600f83611604565b91506120cc8261208b565b602082019050919050565b600060208201905081810360008301526120f0816120b4565b9050919050565b7f4576656e7420646f6573206e6f74206578697374000000000000000000000000600082015250565b600061212d601483611604565b9150612138826120f7565b602082019050919050565b6000602082019050818103600083015261215c81612120565b9050919050565b7f4e487b7100000000000000000000000000000000000000000000000000000000600052601160045260246000fd5b600061219d82611555565b91507fffffffffffffffffffffffffffffffffffffffffffffffffffffffffffffffff82036121cf576121ce612163565b5b600182019050919050565b60008190508160005260206000209050919050565b60006020601f8301049050919050565b600082821b905092915050565b60006008830261223c7fffffffffffffffffffffffffffffffffffffffffffffffffffffffffffffffff826121ff565b61224686836121ff565b95508019841693508086168417925050509392505050565b6000819050919050565b600061228361227e61227984611555565b61225e565b611555565b9050919050565b6000819050919050565b61229d83612268565b6122b16122a98261228a565b84845461220c565b825550505050565b600090565b6122c66122b9565b6122d1818484612294565b505050565b5b818110156122f5576122ea6000826122be565b6001810190506122d7565b5050565b601f82111561233a5761230b816121da565b612314846121ef565b81016020851015612323578190505b61233761232f856121ef565b8301826122d6565b50505b505050565b600082821c905092915050565b600061235d6000198460080261233f565b1980831691505092915050565b6000612376838361234c565b9150826002028217905092915050565b61238f826115f9565b67ffffffffffffffff8111156123a8576123a7611b12565b5b6123b28254611e7b565b6123bd8282856122f9565b600060209050601f8311600181146123f057600084156123de578287015190505b6123e8858261236a565b865550612450565b601f1984166123fe866121da565b60005b8281101561242657848901518255600182019150602085019450602081019050612401565b86831015612443578489015161243f601f89168261234c565b8355505b6001600288020188555050505b505050505050565b600061246382611555565b915061246e83611555565b925082820390508181111561248657612485612163565b5b9291505056fea2646970667358221220da3501e602ba8fa2324e9a92c625c465e1e095fcba004d592178c859b4336c8964736f6c634300081c0033",
  "linkReferences": {},
  "deployedLinkReferences": {}
}