{
  "_format": "hh-sol-artifact-1",
  "contractName": "EventChain",
  "sourceName": "contracts/EventChain.sol",
  "abi": [
    {
      "inputs": [
        {
          "internalType": "address[]",
          "name": "_supportedTokens",
          "type": "address[]"
        }
      ],
      "stateMutability": "nonpayable",
      "type": "constructor"
    },
    {
      "anonymous": false,
      "inputs": [
        {
          "indexed": true,
          "internalType": "uint256",
          "name": "eventId",
          "type": "uint256"
        }
      ],
      "name": "EventCanceled",
      "type": "event"
    },
    {
      "anonymous": false,
      "inputs": [
        {
          "indexed": true,
          "internalType": "uint256",
          "name": "eventId",
          "type": "uint256"
        },
        {
          "indexed": false,
          "internalType": "uint256",
          "name": "amount",
          "type": "uint256"
        }
      ],
      "name": "FundsReleased",
      "type": "event"
    },
    {
      "anonymous": false,
      "inputs": [
        {
          "indexed": true,
          "internalType": "uint256",
          "name": "eventId",
          "type": "uint256"
        },
        {
          "indexed": true,
          "internalType": "address",
          "name": "user",
          "type": "address"
        },
        {
          "indexed": false,
          "internalType": "uint256",
          "name": "amount",
          "type": "uint256"
        }
      ],
      "name": "RefundIssued",
      "type": "event"
    },
    {
      "anonymous": false,
      "inputs": [
        {
          "indexed": true,
          "internalType": "uint256",
          "name": "eventId",
          "type": "uint256"
        },
        {
          "indexed": true,
          "internalType": "address",
          "name": "buyer",
          "type": "address"
        },
        {
          "indexed": false,
          "internalType": "uint256",
          "name": "amount",
          "type": "uint256"
        },
        {
          "indexed": false,
          "internalType": "address",
          "name": "paymentToken",
          "type": "address"
        }
      ],
      "name": "TicketPurchased",
      "type": "event"
    },
    {
      "inputs": [
        {
          "internalType": "uint256",
          "name": "_index",
          "type": "uint256"
        }
      ],
      "name": "buyTicket",
      "outputs": [],
      "stateMutability": "nonpayable",
      "type": "function"
    },
    {
      "inputs": [
        {
          "internalType": "uint256",
          "name": "_index",
          "type": "uint256"
        }
      ],
      "name": "cancelEvent",
      "outputs": [],
      "stateMutability": "nonpayable",
      "type": "function"
    },
    {
      "inputs": [
        {
          "internalType": "string",
          "name": "_eventName",
          "type": "string"
        },
        {
          "internalType": "string",
          "name": "_eventCardImgUrl",
          "type": "string"
        },
        {
          "internalType": "string",
          "name": "_eventDetails",
          "type": "string"
        },
        {
          "internalType": "uint64",
          "name": "_eventDate",
          "type": "uint64"
        },
        {
          "internalType": "uint64",
          "name": "_startTime",
          "type": "uint64"
        },
        {
          "internalType": "uint64",
          "name": "_endTime",
          "type": "uint64"
        },
        {
          "internalType": "string",
          "name": "_eventLocation",
          "type": "string"
        },
        {
          "internalType": "uint256",
          "name": "_ticketPrice",
          "type": "uint256"
        },
        {
          "internalType": "address",
          "name": "_paymentToken",
          "type": "address"
        }
      ],
      "name": "createEvent",
      "outputs": [],
      "stateMutability": "nonpayable",
      "type": "function"
    },
    {
      "inputs": [
        {
          "internalType": "uint256",
          "name": "",
          "type": "uint256"
        }
      ],
      "name": "events",
      "outputs": [
        {
          "internalType": "address",
          "name": "owner",
          "type": "address"
        },
        {
          "internalType": "string",
          "name": "eventName",
          "type": "string"
        },
        {
          "internalType": "string",
          "name": "eventCardImgUrl",
          "type": "string"
        },
        {
          "internalType": "string",
          "name": "eventDetails",
          "type": "string"
        },
        {
          "internalType": "uint64",
          "name": "eventDate",
          "type": "uint64"
        },
        {
          "internalType": "uint64",
          "name": "startTime",
          "type": "uint64"
        },
        {
          "internalType": "uint64",
          "name": "endTime",
          "type": "uint64"
        },
        {
          "internalType": "string",
          "name": "eventLocation",
          "type": "string"
        },
        {
          "internalType": "bool",
          "name": "isActive",
          "type": "bool"
        },
        {
          "internalType": "uint256",
          "name": "ticketPrice",
          "type": "uint256"
        },
        {
          "internalType": "uint256",
          "name": "fundsHeld",
          "type": "uint256"
        },
        {
          "internalType": "bool",
          "name": "isCanceled",
          "type": "bool"
        },
        {
          "internalType": "bool",
          "name": "fundsReleased",
          "type": "bool"
        },
        {
          "internalType": "address",
          "name": "paymentToken",
          "type": "address"
        }
      ],
      "stateMutability": "view",
      "type": "function"
    },
    {
      "inputs": [],
      "name": "getActiveEventsByCreator",
      "outputs": [
        {
          "internalType": "uint256[]",
          "name": "",
          "type": "uint256[]"
        },
        {
          "components": [
            {
              "internalType": "address",
              "name": "owner",
              "type": "address"
            },
            {
              "internalType": "string",
              "name": "eventName",
              "type": "string"
            },
            {
              "internalType": "string",
              "name": "eventCardImgUrl",
              "type": "string"
            },
            {
              "internalType": "string",
              "name": "eventDetails",
              "type": "string"
            },
            {
              "internalType": "uint64",
              "name": "eventDate",
              "type": "uint64"
            },
            {
              "internalType": "uint64",
              "name": "startTime",
              "type": "uint64"
            },
            {
              "internalType": "uint64",
              "name": "endTime",
              "type": "uint64"
            },
            {
              "internalType": "string",
              "name": "eventLocation",
              "type": "string"
            },
            {
              "internalType": "bool",
              "name": "isActive",
              "type": "bool"
            },
            {
              "internalType": "uint256",
              "name": "ticketPrice",
              "type": "uint256"
            },
            {
              "internalType": "uint256",
              "name": "fundsHeld",
              "type": "uint256"
            },
            {
              "internalType": "bool",
              "name": "isCanceled",
              "type": "bool"
            },
            {
              "internalType": "bool",
              "name": "fundsReleased",
              "type": "bool"
            },
            {
              "internalType": "address",
              "name": "paymentToken",
              "type": "address"
            }
          ],
          "internalType": "struct EventChain.Event[]",
          "name": "",
          "type": "tuple[]"
        }
      ],
      "stateMutability": "view",
      "type": "function"
    },
    {
      "inputs": [],
      "name": "getAllEvents",
      "outputs": [
        {
          "internalType": "uint256[]",
          "name": "",
          "type": "uint256[]"
        },
        {
          "components": [
            {
              "internalType": "address",
              "name": "owner",
              "type": "address"
            },
            {
              "internalType": "string",
              "name": "eventName",
              "type": "string"
            },
            {
              "internalType": "string",
              "name": "eventCardImgUrl",
              "type": "string"
            },
            {
              "internalType": "string",
              "name": "eventDetails",
              "type": "string"
            },
            {
              "internalType": "uint64",
              "name": "eventDate",
              "type": "uint64"
            },
            {
              "internalType": "uint64",
              "name": "startTime",
              "type": "uint64"
            },
            {
              "internalType": "uint64",
              "name": "endTime",
              "type": "uint64"
            },
            {
              "internalType": "string",
              "name": "eventLocation",
              "type": "string"
            },
            {
              "internalType": "bool",
              "name": "isActive",
              "type": "bool"
            },
            {
              "internalType": "uint256",
              "name": "ticketPrice",
              "type": "uint256"
            },
            {
              "internalType": "uint256",
              "name": "fundsHeld",
              "type": "uint256"
            },
            {
              "internalType": "bool",
              "name": "isCanceled",
              "type": "bool"
            },
            {
              "internalType": "bool",
              "name": "fundsReleased",
              "type": "bool"
            },
            {
              "internalType": "address",
              "name": "paymentToken",
              "type": "address"
            }
          ],
          "internalType": "struct EventChain.Event[]",
          "name": "",
          "type": "tuple[]"
        }
      ],
      "stateMutability": "view",
      "type": "function"
    },
    {
      "inputs": [
        {
          "internalType": "uint256",
          "name": "_index",
          "type": "uint256"
        }
      ],
      "name": "getAttendees",
      "outputs": [
        {
          "internalType": "address[]",
          "name": "",
          "type": "address[]"
        }
      ],
      "stateMutability": "view",
      "type": "function"
    },
    {
      "inputs": [
        {
          "internalType": "uint256",
          "name": "_index",
          "type": "uint256"
        }
      ],
      "name": "getEventById",
      "outputs": [
        {
          "components": [
            {
              "internalType": "address",
              "name": "owner",
              "type": "address"
            },
            {
              "internalType": "string",
              "name": "eventName",
              "type": "string"
            },
            {
              "internalType": "string",
              "name": "eventCardImgUrl",
              "type": "string"
            },
            {
              "internalType": "string",
              "name": "eventDetails",
              "type": "string"
            },
            {
              "internalType": "uint64",
              "name": "eventDate",
              "type": "uint64"
            },
            {
              "internalType": "uint64",
              "name": "startTime",
              "type": "uint64"
            },
            {
              "internalType": "uint64",
              "name": "endTime",
              "type": "uint64"
            },
            {
              "internalType": "string",
              "name": "eventLocation",
              "type": "string"
            },
            {
              "internalType": "bool",
              "name": "isActive",
              "type": "bool"
            },
            {
              "internalType": "uint256",
              "name": "ticketPrice",
              "type": "uint256"
            },
            {
              "internalType": "uint256",
              "name": "fundsHeld",
              "type": "uint256"
            },
            {
              "internalType": "bool",
              "name": "isCanceled",
              "type": "bool"
            },
            {
              "internalType": "bool",
              "name": "fundsReleased",
              "type": "bool"
            },
            {
              "internalType": "address",
              "name": "paymentToken",
              "type": "address"
            }
          ],
          "internalType": "struct EventChain.Event",
          "name": "",
          "type": "tuple"
        },
        {
          "internalType": "address[]",
          "name": "",
          "type": "address[]"
        },
        {
          "components": [
            {
              "internalType": "address",
              "name": "owner",
              "type": "address"
            },
            {
              "internalType": "string",
              "name": "eventName",
              "type": "string"
            },
            {
              "internalType": "string",
              "name": "eventCardImgUrl",
              "type": "string"
            },
            {
              "internalType": "string",
              "name": "eventDetails",
              "type": "string"
            },
            {
              "internalType": "uint64",
              "name": "eventDate",
              "type": "uint64"
            },
            {
              "internalType": "uint64",
              "name": "startTime",
              "type": "uint64"
            },
            {
              "internalType": "uint64",
              "name": "endTime",
              "type": "uint64"
            },
            {
              "internalType": "string",
              "name": "eventLocation",
              "type": "string"
            },
            {
              "internalType": "bool",
              "name": "isActive",
              "type": "bool"
            },
            {
              "internalType": "uint256",
              "name": "ticketPrice",
              "type": "uint256"
            },
            {
              "internalType": "uint256",
              "name": "fundsHeld",
              "type": "uint256"
            },
            {
              "internalType": "bool",
              "name": "isCanceled",
              "type": "bool"
            },
            {
              "internalType": "bool",
              "name": "fundsReleased",
              "type": "bool"
            },
            {
              "internalType": "address",
              "name": "paymentToken",
              "type": "address"
            }
          ],
          "internalType": "struct EventChain.Event[]",
          "name": "",
          "type": "tuple[]"
        }
      ],
      "stateMutability": "view",
      "type": "function"
    },
    {
      "inputs": [],
      "name": "getEventLength",
      "outputs": [
        {
          "internalType": "uint256",
          "name": "",
          "type": "uint256"
        }
      ],
      "stateMutability": "view",
      "type": "function"
    },
    {
      "inputs": [
        {
          "internalType": "address",
          "name": "_creator",
          "type": "address"
        }
      ],
      "name": "getEventsByCreator",
      "outputs": [
        {
          "components": [
            {
              "internalType": "address",
              "name": "owner",
              "type": "address"
            },
            {
              "internalType": "string",
              "name": "eventName",
              "type": "string"
            },
            {
              "internalType": "string",
              "name": "eventCardImgUrl",
              "type": "string"
            },
            {
              "internalType": "string",
              "name": "eventDetails",
              "type": "string"
            },
            {
              "internalType": "uint64",
              "name": "eventDate",
              "type": "uint64"
            },
            {
              "internalType": "uint64",
              "name": "startTime",
              "type": "uint64"
            },
            {
              "internalType": "uint64",
              "name": "endTime",
              "type": "uint64"
            },
            {
              "internalType": "string",
              "name": "eventLocation",
              "type": "string"
            },
            {
              "internalType": "bool",
              "name": "isActive",
              "type": "bool"
            },
            {
              "internalType": "uint256",
              "name": "ticketPrice",
              "type": "uint256"
            },
            {
              "internalType": "uint256",
              "name": "fundsHeld",
              "type": "uint256"
            },
            {
              "internalType": "bool",
              "name": "isCanceled",
              "type": "bool"
            },
            {
              "internalType": "bool",
              "name": "fundsReleased",
              "type": "bool"
            },
            {
              "internalType": "address",
              "name": "paymentToken",
              "type": "address"
            }
          ],
          "internalType": "struct EventChain.Event[]",
          "name": "",
          "type": "tuple[]"
        }
      ],
      "stateMutability": "view",
      "type": "function"
    },
    {
      "inputs": [
        {
          "internalType": "uint256",
          "name": "",
          "type": "uint256"
        },
        {
          "internalType": "address",
          "name": "",
          "type": "address"
        }
      ],
      "name": "hasPurchasedTicket",
      "outputs": [
        {
          "internalType": "bool",
          "name": "",
          "type": "bool"
        }
      ],
      "stateMutability": "view",
      "type": "function"
    },
    {
      "inputs": [
        {
          "internalType": "uint256",
          "name": "_index",
          "type": "uint256"
        }
      ],
      "name": "releaseFunds",
      "outputs": [],
      "stateMutability": "nonpayable",
      "type": "function"
    },
    {
      "inputs": [
        {
          "internalType": "uint256",
          "name": "_index",
          "type": "uint256"
        }
      ],
      "name": "requestRefund",
      "outputs": [],
      "stateMutability": "nonpayable",
      "type": "function"
    },
    {
      "inputs": [
        {
          "internalType": "address",
          "name": "",
          "type": "address"
        }
      ],
      "name": "supportedTokens",
      "outputs": [
        {
          "internalType": "bool",
          "name": "",
          "type": "bool"
        }
      ],
      "stateMutability": "view",
      "type": "function"
    }
  ],
  "bytecode": "0x6080604052346100f1576125a9803803806100198161010c565b9283398101906020818303126100f1578051906001600160401b0382116100f1570181601f820112156100f1578051916001600160401b0383116100f6578260051b9160208061006a81860161010c565b8096815201938201019182116100f157602001915b8183106100d1578360005b81518110156100c25760019060406000838060a01b0360208460051b8701015116815280602052208260ff198254161790550161008a565b60405161247790816101328239f35b82516001600160a01b03811681036100f15781526020928301920161007f565b600080fd5b634e487b7160e01b600052604160045260246000fd5b6040519190601f01601f191682016001600160401b038111838210176100f65760405256fe6080604052600436101561001257600080fd5b60003560e01c80630b79143014611b925780631ad5213514610e905780632002058114610e425780633f69babd14610d73578063439fd35f14610d1b5780634d68282f14610b535780635c98dfa114610b3557806367dd74ca146107d257806368c4ac2614610793578063a4b2409e146103de578063b98079bc146102ec578063c27a500d14610238578063ccfd6d3c1461010c5763e0c14377146100b657600080fd5b34610107576020366003190112610107576004356100d7600154821061226f565b60005260026020526101036100ef6040600020612348565b60405191829160208352602083019061204c565b0390f35b600080fd5b34610107576000366003190112610107576001546000805b8281106101e4575061013e610138826123ab565b916123dd565b916000805b82811061015c5750505061010360405192839283612089565b61016581611ce2565b50546001600160a01b03163314806101cd575b610185575b600101610143565b906101c581836101976001948861242d565b526101aa6101a485611ce2565b506120f3565b6101b4828961242d565b526101bf818861242d565b5061239c565b91905061017d565b5060ff60066101db83611ce2565b50015416610178565b6101ed81611ce2565b50546001600160a01b0316331480610221575b61020d575b600101610124565b9061021960019161239c565b919050610205565b5060ff600661022f83611ce2565b50015416610200565b34610107576000366003190112610107576001546000805b8281106102ba5750610264610138826123ab565b916000805b8281106102825750505061010360405192839283612089565b60ff600661028f83611ce2565b500154166102a0575b600101610269565b906102b281836101976001948861242d565b919050610298565b60ff60066102c783611ce2565b500154166102d8575b600101610250565b906102e460019161239c565b9190506102d0565b34610107576020366003190112610107576004356103086122de565b506001548110156103a2578061010361032361038693611ce2565b5082600052600260205261033b604060002093611ce2565b5060018060a01b03905416600052600360205261039461037161036b6103656040600020946120f3565b95612348565b926121d8565b91604051958695606087526060870190611efb565b90858203602087015261204c565b908382036040850152611ff3565b60405162461bcd60e51b8152602060048201526014602482015273115d995b9d08191bd95cc81b9bdd08195e1a5cdd60621b6044820152606490fd5b34610107576020366003190112610107576004356103ff600154821061226f565b600081815260046020908152604080832033845290915290205460ff16156107585760ff600961042e83611ce2565b50015416156106d6575b600761044382611ce2565b5001549081600861045383611ce2565b500154106106915760008181526004602090815260408083203384529091529020805460ff19169055600861048782611ce2565b5001805490838203918211610672575580600052600260205260406000209060005b825480821015610688576104bd82856122c6565b905460039190911b1c6001600160a01b031633146104de57506001016104a9565b919291600019810191908211610672576105176104fe61053b93856122c6565b905460039190911b1c6001600160a01b031691846122c6565b81546001600160a01b0393841660039290921b91821b9390911b1916919091179055565b8054801561065c57600019019061055282826122c6565b81549060018060a01b039060031b1b19169055555b6000602061057483611ce2565b506009015460405163a9059cbb60e01b815233600482015260248101869052928391604491839160101c6001600160a01b03165af190811561065057600091610621575b50156105ec576040519182527f7a482fdeb6bc9a1376f597068a214a7a39472bb2eff1b8cad21ba04f49ddca1b60203393a3005b60405162461bcd60e51b815260206004820152600d60248201526c1499599d5b990819985a5b1959609a1b6044820152606490fd5b610643915060203d602011610649575b61063b8183611d89565b8101906122ae565b836105b8565b503d610631565b6040513d6000823e3d90fd5b634e487b7160e01b600052603160045260246000fd5b634e487b7160e01b600052601160045260246000fd5b50509050610567565b60405162461bcd60e51b815260206004820152601c60248201527f496e73756666696369656e742066756e647320696e20657363726f77000000006044820152606490fd5b6106df81611ce2565b506001600160401b03600461464f1992015460401c16016001600160401b038111610672576001600160401b031642106104385760405162461bcd60e51b815260206004820152601760248201527f526566756e6420706572696f642068617320656e6465640000000000000000006044820152606490fd5b60405162461bcd60e51b8152602060048201526013602482015272139bc81d1a58dad95d081c1d5c98da185cd959606a1b6044820152606490fd5b34610107576020366003190112610107576001600160a01b036107b4611ee5565b166000526000602052602060ff604060002054166040519015158152f35b34610107576020366003190112610107576004356107f3600154821061226f565b6001600160401b03600461080683611ce2565b50015416421015610b005760ff600661081e83611ce2565b5001541615610ac757600081815260046020908152604080832033845290915290205460ff16610a8e57600761085382611ce2565b5001549061086081611ce2565b5060090154604051636eb1769f60e11b815233600482015230602482015260109190911c6001600160a01b031690602081604481855afa8015610650578491600091610a59575b5010610a14576040516323b872dd60e01b8152336004820152306024820152604481018490526020816064816000865af1908115610650576000916109f5575b50156109bf5760008281526004602090815260408083203384528252808320805460ff1916600117905584835260029091529020805490600160401b8210156109a9578161093d91600161095b940181556122c6565b81546001600160a01b0360039290921b91821b19163390911b179055565b600861096683611ce2565b5001805490848201809211610672575560405192835260208301527f504ef6dabca28c1452704d54bd8e25708d87e0c27d852eceea53a0c0d898675860403393a3005b634e487b7160e01b600052604160045260246000fd5b60405162461bcd60e51b815260206004820152600e60248201526d14185e5b595b9d0819985a5b195960921b6044820152606490fd5b610a0e915060203d6020116106495761063b8183611d89565b846108e7565b60405162461bcd60e51b815260206004820152601c60248201527f496e73756666696369656e7420746f6b656e20616c6c6f77616e6365000000006044820152606490fd5b9150506020813d602011610a86575b81610a7560209383611d89565b8101031261010757839051856108a7565b3d9150610a68565b60405162461bcd60e51b8152602060048201526011602482015270105b1c9958591e481c1d5c98da185cd959607a1b6044820152606490fd5b60405162461bcd60e51b81526020600482015260116024820152704576656e7420697320696e61637469766560781b6044820152606490fd5b60405162461bcd60e51b815260206004820152600d60248201526c115d995b9d08195e1c1a5c9959609a1b6044820152606490fd5b34610107576000366003190112610107576020600154604051908152f35b3461010757602036600319011261010757600435610b85610b7382611ce2565b50546001600160a01b03163314612231565b610b92600154821061226f565b6001600160401b036004610ba583611ce2565b50015416421115610cd65760ff6009610bbd83611ce2565b50015416610c7f5760ff6009610bd283611ce2565b50015460081c16610c41577f80230996023d69b50793fa73f1919127c9d8e741d3989743c479169f22e7a28860206008610c0b84611ce2565b50015460006008610c1b86611ce2565b5001556009610c2985611ce2565b5001805461ff001916610100179055604051908152a2005b60405162461bcd60e51b8152602060048201526016602482015275119d5b991cc8185b1c9958591e481c995b19585cd95960521b6044820152606490fd5b60405162461bcd60e51b815260206004820152602960248201527f43616e6e6f742072656c656173652066756e647320666f7220612063616e63656044820152681b195908195d995b9d60ba1b6064820152608490fd5b60405162461bcd60e51b815260206004820152601a60248201527f4576656e7420686173206e6f74206f63637572726564207965740000000000006044820152606490fd5b34610107576040366003190112610107576024356001600160a01b038116810361010757600435600052600460205260406000209060018060a01b0316600052602052602060ff604060002054166040519015158152f35b3461010757602036600319011261010757600435610d93610b7382611ce2565b610da0600154821061226f565b60ff6006610dad83611ce2565b5001541615610e0a576006610dc182611ce2565b5001805460ff191690556009610dd682611ce2565b5001805460ff191660011790557fceaf11772900fe569752a0207c8639fb8228eb8663456dc9eaa3a08f927a8705600080a2005b60405162461bcd60e51b815260206004820152601060248201526f105b1c9958591e4818d85b98d95b195960821b6044820152606490fd5b34610107576020366003190112610107576001600160a01b03610e63611ee5565b166000526003602052610103610e7c60406000206121d8565b604051918291602083526020830190611ff3565b3461010757610120366003190112610107576004356001600160401b03811161010757610ec1903690600401611e8f565b6024356001600160401b03811161010757610ee0903690600401611e8f565b6044356001600160401b03811161010757610eff903690600401611e8f565b6064356001600160401b038116809103610107576084356001600160401b0381168091036101075760a435916001600160401b0383168093036101075760c4356001600160401b03811161010757610f5b903690600401611e8f565b93610104359560018060a01b0387168097036101075786600052600060205260ff6040600020541615611b4d5760405197610f9589611d6d565b338952602089015260408801526060870152608086015260a085015260c084015260e0830152600161010083015260e4356101208301526000610140830152600061016083015260006101808301526101a0820152600154600160401b8110156109a95780600161100b92016001556001611d17565b91909161183657805182546001600160a01b0319166001600160a01b0391909116178255602081015180519092906001600160401b0381116109a9576110546001830154611d33565b601f8111611b06575b506020601f8211600114611a995781929394600092611a8e575b50508160011b916000199060031b1c19161760018201555b60408201519182516001600160401b0381116109a9576110b26002840154611d33565b601f8111611a47575b506020601f82116001146119da57819293946000926119cf575b50508160011b916000199060031b1c19161760028301555b60608101519182516001600160401b0381116109a9576111106003830154611d33565b601f8111611988575b506020601f821160011461191b5781929394600092611910575b50508160011b916000199060031b1c19161760038201555b600481016001600160401b0360808401511681549067ffffffffffffffff60401b60a086015160401b16906001600160401b0360801b60c087015160801b16926001600160401b0360c01b16171717905560e08201518051906001600160401b0382116109a9576111bf6005840154611d33565b601f81116118c9575b50602090601f83116001146118575760099392916000918361184c575b50508160011b916000199060031b1c19161760058201555b61121d6101008401511515600683019060ff801983541691151516179055565b61012083015160078201556101408301516008820155016112516101608301511515829060ff801983541691151516179055565b610180820151815461ff00191690151560081b61ff00161781556101a0820151815462010000600160b01b03191660109190911b62010000600160b01b03161790553360009081526003602052604090208054600160401b8110156109a9576112bf91600182018155611d17565b61183657815181546001600160a01b0319166001600160a01b03919091161781556020820151805190929060018301906001600160401b0381116109a9576113078254611d33565b601f81116117ee575b50602094601f82116001146117895794819293949560009261177e575b50508160011b916000199060031b1c19161790555b600282019160408201519283516001600160401b0381116109a9576113678254611d33565b601f8111611736575b50602094601f82116001146116d1579481929394956000926116c6575b50508160011b916000199060031b1c19161790555b600381019160608101519283516001600160401b0381116109a9576113c78254611d33565b601f811161167e575b50602094601f82116001146116195794819293949560009261160e575b50508160011b916000199060031b1c19161790555b600482016001600160401b0360808301511681549067ffffffffffffffff60401b60a085015160401b16906001600160401b0360801b60c086015160801b16926001600160401b0360c01b161717179055600582019160e08201519283516001600160401b0381116109a9576114788254611d33565b601f81116115c6575b506020601f821160011461155857908060099493926101a0969760009261154d575b50508160011b916000199060031b1c19161790555b6114d86101008501511515600683019060ff801983541691151516179055565b61012084015160078201556101408401516008820155019161150d6101608201511515849060ff801983541691151516179055565b610180810151835461ff00191690151560081b61ff00161783550151815462010000600160b01b03191660109190911b62010000600160b01b0316179055005b0151905087806114a3565b601f1982169583600052816000209660005b8181106115ae575096600192849260099796956101a0999a10611595575b505050811b0190556114b8565b015160001960f88460031b161c19169055878080611588565b8383015189556001909801976020938401930161156a565b826000526020600020601f830160051c81019160208410611604575b601f0160051c01905b8181106115f85750611481565b600081556001016115eb565b90915081906115e2565b0151905085806113ed565b601f1982169583600052806000209160005b8881106116665750836001959697981061164d575b505050811b019055611402565b015160001960f88460031b161c19169055858080611640565b9192602060018192868501518155019401920161162b565b826000526020600020601f830160051c810191602084106116bc575b601f0160051c01905b8181106116b057506113d0565b600081556001016116a3565b909150819061169a565b01519050858061138d565b601f1982169583600052806000209160005b88811061171e57508360019596979810611705575b505050811b0190556113a2565b015160001960f88460031b161c191690558580806116f8565b919260206001819286850151815501940192016116e3565b826000526020600020601f830160051c81019160208410611774575b601f0160051c01905b8181106117685750611370565b6000815560010161175b565b9091508190611752565b01519050858061132d565b601f1982169583600052806000209160005b8881106117d6575083600195969798106117bd575b505050811b019055611342565b015160001960f88460031b161c191690558580806117b0565b9192602060018192868501518155019401920161179b565b826000526020600020601f830160051c8101916020841061182c575b601f0160051c01905b8181106118205750611310565b60008155600101611813565b909150819061180a565b634e487b7160e01b600052600060045260246000fd5b0151905085806111e5565b9060058401600052806000209160005b601f19851681106118b1575091839160019360099695601f19811610611898575b505050811b0160058201556111fd565b015160001960f88460031b161c19169055858080611888565b91926020600181928685015181550194019201611867565b600584016000526020600020601f840160051c810160208510611909575b601f830160051c820181106118fd5750506111c8565b600081556001016118e7565b50806118e7565b015190508480611133565b60038301600052806000209060005b601f19841681106119705750600193949583601f19811610611957575b505050811b01600382015561114b565b015160001960f88460031b161c19169055848080611947565b9091602060018192858a01518155019301910161192a565b600383016000526020600020601f830160051c8101602084106119c8575b601f830160051c820181106119bc575050611119565b600081556001016119a6565b50806119a6565b0151905084806110d5565b60028401600052806000209060005b601f1984168110611a2f5750600193949583601f19811610611a16575b505050811b0160028301556110ed565b015160001960f88460031b161c19169055848080611a06565b9091602060018192858a0151815501930191016119e9565b600284016000526020600020601f830160051c810160208410611a87575b601f830160051c82018110611a7b5750506110bb565b60008155600101611a65565b5080611a65565b015190508480611077565b60018301600052806000209060005b601f1984168110611aee5750600193949583601f19811610611ad5575b505050811b01600182015561108f565b015160001960f88460031b161c19169055848080611ac5565b9091602060018192858a015181550193019101611aa8565b600183016000526020600020601f830160051c810160208410611b46575b601f830160051c82018110611b3a57505061105d565b60008155600101611b24565b5080611b24565b60405162461bcd60e51b815260206004820152601960248201527f556e737570706f72746564207061796d656e7420746f6b656e000000000000006044820152606490fd5b346101075760203660031901126101075760043560015481101561010757611bb990611ce2565b5080546001600160a01b0316611bd160018301611daa565b91611bde60028201611daa565b611bea60038301611daa565b60048301549290611bfd60058301611daa565b600683015460ff16946007840154926008850154946009015495604051998a998a5260208a016101c090526101c08a01611c3691611e4e565b89810360408b0152611c4791611e4e565b88810360608a0152611c5891611e4e565b906001600160401b03811660808901528060401c6001600160401b031660a089015260801c6001600160401b031660c088015286810360e0880152611c9c91611e4e565b93151561010086015261012085015261014084015260ff8181161515610160850152600882901c16151561018084015260101c6001600160a01b03166101a08301520390f35b600154811015611d01576001600052600a602060002091020190600090565b634e487b7160e01b600052603260045260246000fd5b8054821015611d0157600052600a602060002091020190600090565b90600182811c92168015611d63575b6020831014611d4d57565b634e487b7160e01b600052602260045260246000fd5b91607f1691611d42565b6101c081019081106001600160401b038211176109a957604052565b90601f801991011681019081106001600160401b038211176109a957604052565b9060405191826000825492611dbe84611d33565b8084529360018116908115611e2c5750600114611de5575b50611de392500383611d89565b565b90506000929192526020600020906000915b818310611e10575050906020611de39282010138611dd6565b6020919350806001915483858901015201910190918492611df7565b905060209250611de394915060ff191682840152151560051b82010138611dd6565b919082519283825260005b848110611e7a575050826000602080949584010152601f8019910116010190565b80602080928401015182828601015201611e59565b81601f82011215610107578035906001600160401b0382116109a95760405192611ec3601f8401601f191660200185611d89565b8284526020838301011161010757816000926020809301838601378301015290565b600435906001600160a01b038216820361010757565b9060018060a01b0382511681526101a0611f9e611f53611f41611f2f60208701516101c060208801526101c0870190611e4e565b60408701518682036040880152611e4e565b60608601518582036060870152611e4e565b6001600160401b0360808601511660808501526001600160401b0360a08601511660a08501526001600160401b0360c08601511660c085015260e085015184820360e0860152611e4e565b926101008101511515610100840152610120810151610120840152610140810151610140840152610160810151151561016084015261018081015115156101808401528160018060a01b039101511691015290565b9080602083519182815201916020808360051b8301019401926000915b83831061201f57505050505090565b909192939460208061203d600193601f198682030187528951611efb565b97019301930191939290612010565b906020808351928381520192019060005b81811061206a5750505090565b82516001600160a01b031684526020938401939092019160010161205d565b9291604084019360408152825180955260206060820193016000955b8087106120c45750506120c19394506020818403910152611ff3565b90565b909360208060019287518152019501960195906120a5565b6001600160401b0381116109a95760051b60200190565b9060405161210081611d6d565b82546001600160a01b031681529182906101a09060099061212360018201611daa565b602085015261213460028201611daa565b604085015261214560038201611daa565b60608501526001600160401b0360048201548181166080870152818160401c1660a087015260801c1660c085015261217f60058201611daa565b60e085015260ff600682015416151561010085015260078101546101208501526008810154610140850152015460ff8116151561016084015260ff8160081c16151561018084015260018060a01b039060101c16910152565b9081546121e4816120dc565b926121f26040519485611d89565b818452602084019060005260206000206000915b8383106122135750505050565b600a6020600192612223856120f3565b815201920192019190612206565b1561223857565b60405162461bcd60e51b815260206004820152600f60248201526e2737ba1032bb32b73a1037bbb732b960891b6044820152606490fd5b1561227657565b60405162461bcd60e51b815260206004820152601060248201526f125b9d985b1a5908195d995b9d08125160821b6044820152606490fd5b90816020910312610107575180151581036101075790565b8054821015611d015760005260206000200190600090565b604051906122eb82611d6d565b60006101a08382815260606020820152606060408201526060808201528260808201528260a08201528260c0820152606060e082015282610100820152826101208201528261014082015282610160820152826101808201520152565b906040519182815491828252602082019060005260206000209260005b81811061237a575050611de392500383611d89565b84546001600160a01b0316835260019485019487945060209093019201612365565b60001981146106725760010190565b906123b5826120dc565b6123c26040519182611d89565b82815280926123d3601f19916120dc565b0190602036910137565b906123e7826120dc565b6123f46040519182611d89565b8281528092612405601f19916120dc565b019060005b82811061241657505050565b6020906124216122de565b8282850101520161240a565b8051821015611d015760209160051b01019056fea2646970667358221220629a6ad3879f084e99e18780341d434df6db89e6d79f15c3fea50d601a6fbfce64736f6c634300081c0033",
  "linkReferences": {},
  "deployedLinkReferences": {}
}