{
  "_format": "hh-sol-artifact-1",
  "contractName": "EventChain",
  "sourceName": "contracts/EventChain.sol",
  "abi": [
    {
      "inputs": [
        {
          "internalType": "address[]",
          "name": "_supportedTokens",
          "type": "address[]"
        }
      ],
      "stateMutability": "nonpayable",
      "type": "constructor"
    },
    {
      "anonymous": false,
      "inputs": [
        {
          "indexed": true,
          "internalType": "uint256",
          "name": "eventId",
          "type": "uint256"
        }
      ],
      "name": "EventCanceled",
      "type": "event"
    },
    {
      "anonymous": false,
      "inputs": [
        {
          "indexed": true,
          "internalType": "uint256",
          "name": "eventId",
          "type": "uint256"
        },
        {
          "indexed": true,
          "internalType": "address",
          "name": "owner",
          "type": "address"
        },
        {
          "indexed": false,
          "internalType": "string",
          "name": "eventName",
          "type": "string"
        }
      ],
      "name": "EventCreated",
      "type": "event"
    },
    {
      "anonymous": false,
      "inputs": [
        {
          "indexed": true,
          "internalType": "uint256",
          "name": "eventId",
          "type": "uint256"
        },
        {
          "indexed": true,
          "internalType": "address",
          "name": "owner",
          "type": "address"
        },
        {
          "indexed": false,
          "internalType": "string",
          "name": "eventName",
          "type": "string"
        }
      ],
      "name": "EventUpdated",
      "type": "event"
    },
    {
      "anonymous": false,
      "inputs": [
        {
          "indexed": true,
          "internalType": "uint256",
          "name": "eventId",
          "type": "uint256"
        },
        {
          "indexed": false,
          "internalType": "uint256",
          "name": "amount",
          "type": "uint256"
        }
      ],
      "name": "FundsReleased",
      "type": "event"
    },
    {
      "anonymous": false,
      "inputs": [
        {
          "indexed": true,
          "internalType": "uint256",
          "name": "eventId",
          "type": "uint256"
        },
        {
          "indexed": true,
          "internalType": "address",
          "name": "user",
          "type": "address"
        },
        {
          "indexed": false,
          "internalType": "uint256",
          "name": "amount",
          "type": "uint256"
        }
      ],
      "name": "RefundIssued",
      "type": "event"
    },
    {
      "anonymous": false,
      "inputs": [
        {
          "indexed": true,
          "internalType": "uint256",
          "name": "eventId",
          "type": "uint256"
        },
        {
          "indexed": true,
          "internalType": "address",
          "name": "buyer",
          "type": "address"
        },
        {
          "indexed": false,
          "internalType": "uint256",
          "name": "amount",
          "type": "uint256"
        },
        {
          "indexed": false,
          "internalType": "address",
          "name": "paymentToken",
          "type": "address"
        }
      ],
      "name": "TicketPurchased",
      "type": "event"
    },
    {
      "inputs": [
        {
          "internalType": "uint256",
          "name": "_index",
          "type": "uint256"
        }
      ],
      "name": "buyTicket",
      "outputs": [],
      "stateMutability": "nonpayable",
      "type": "function"
    },
    {
      "inputs": [
        {
          "internalType": "uint256",
          "name": "_index",
          "type": "uint256"
        }
      ],
      "name": "cancelEvent",
      "outputs": [],
      "stateMutability": "nonpayable",
      "type": "function"
    },
    {
      "inputs": [
        {
          "internalType": "string",
          "name": "_eventName",
          "type": "string"
        },
        {
          "internalType": "string",
          "name": "_eventCardImgUrl",
          "type": "string"
        },
        {
          "internalType": "string",
          "name": "_eventDetails",
          "type": "string"
        },
        {
          "internalType": "uint64",
          "name": "_startDate",
          "type": "uint64"
        },
        {
          "internalType": "uint64",
          "name": "_endDate",
          "type": "uint64"
        },
        {
          "internalType": "uint64",
          "name": "_startTime",
          "type": "uint64"
        },
        {
          "internalType": "uint64",
          "name": "_endTime",
          "type": "uint64"
        },
        {
          "internalType": "string",
          "name": "_eventLocation",
          "type": "string"
        },
        {
          "internalType": "uint256",
          "name": "_ticketPrice",
          "type": "uint256"
        },
        {
          "internalType": "address",
          "name": "_paymentToken",
          "type": "address"
        }
      ],
      "name": "createEvent",
      "outputs": [],
      "stateMutability": "nonpayable",
      "type": "function"
    },
    {
      "inputs": [
        {
          "internalType": "uint256",
          "name": "",
          "type": "uint256"
        }
      ],
      "name": "events",
      "outputs": [
        {
          "internalType": "address",
          "name": "owner",
          "type": "address"
        },
        {
          "internalType": "string",
          "name": "eventName",
          "type": "string"
        },
        {
          "internalType": "string",
          "name": "eventCardImgUrl",
          "type": "string"
        },
        {
          "internalType": "string",
          "name": "eventDetails",
          "type": "string"
        },
        {
          "internalType": "uint64",
          "name": "startDate",
          "type": "uint64"
        },
        {
          "internalType": "uint64",
          "name": "endDate",
          "type": "uint64"
        },
        {
          "internalType": "uint64",
          "name": "startTime",
          "type": "uint64"
        },
        {
          "internalType": "uint64",
          "name": "endTime",
          "type": "uint64"
        },
        {
          "internalType": "string",
          "name": "eventLocation",
          "type": "string"
        },
        {
          "internalType": "bool",
          "name": "isActive",
          "type": "bool"
        },
        {
          "internalType": "uint256",
          "name": "ticketPrice",
          "type": "uint256"
        },
        {
          "internalType": "uint256",
          "name": "fundsHeld",
          "type": "uint256"
        },
        {
          "internalType": "bool",
          "name": "isCanceled",
          "type": "bool"
        },
        {
          "internalType": "bool",
          "name": "fundsReleased",
          "type": "bool"
        },
        {
          "internalType": "address",
          "name": "paymentToken",
          "type": "address"
        }
      ],
      "stateMutability": "view",
      "type": "function"
    },
    {
      "inputs": [],
      "name": "getActiveEventsByCreator",
      "outputs": [
        {
          "internalType": "uint256[]",
          "name": "",
          "type": "uint256[]"
        },
        {
          "components": [
            {
              "internalType": "address",
              "name": "owner",
              "type": "address"
            },
            {
              "internalType": "string",
              "name": "eventName",
              "type": "string"
            },
            {
              "internalType": "string",
              "name": "eventCardImgUrl",
              "type": "string"
            },
            {
              "internalType": "string",
              "name": "eventDetails",
              "type": "string"
            },
            {
              "internalType": "uint64",
              "name": "startDate",
              "type": "uint64"
            },
            {
              "internalType": "uint64",
              "name": "endDate",
              "type": "uint64"
            },
            {
              "internalType": "uint64",
              "name": "startTime",
              "type": "uint64"
            },
            {
              "internalType": "uint64",
              "name": "endTime",
              "type": "uint64"
            },
            {
              "internalType": "string",
              "name": "eventLocation",
              "type": "string"
            },
            {
              "internalType": "bool",
              "name": "isActive",
              "type": "bool"
            },
            {
              "internalType": "uint256",
              "name": "ticketPrice",
              "type": "uint256"
            },
            {
              "internalType": "uint256",
              "name": "fundsHeld",
              "type": "uint256"
            },
            {
              "internalType": "bool",
              "name": "isCanceled",
              "type": "bool"
            },
            {
              "internalType": "bool",
              "name": "fundsReleased",
              "type": "bool"
            },
            {
              "internalType": "address",
              "name": "paymentToken",
              "type": "address"
            }
          ],
          "internalType": "struct EventChain.Event[]",
          "name": "",
          "type": "tuple[]"
        }
      ],
      "stateMutability": "view",
      "type": "function"
    },
    {
      "inputs": [],
      "name": "getAllEvents",
      "outputs": [
        {
          "internalType": "uint256[]",
          "name": "",
          "type": "uint256[]"
        },
        {
          "components": [
            {
              "internalType": "address",
              "name": "owner",
              "type": "address"
            },
            {
              "internalType": "string",
              "name": "eventName",
              "type": "string"
            },
            {
              "internalType": "string",
              "name": "eventCardImgUrl",
              "type": "string"
            },
            {
              "internalType": "string",
              "name": "eventDetails",
              "type": "string"
            },
            {
              "internalType": "uint64",
              "name": "startDate",
              "type": "uint64"
            },
            {
              "internalType": "uint64",
              "name": "endDate",
              "type": "uint64"
            },
            {
              "internalType": "uint64",
              "name": "startTime",
              "type": "uint64"
            },
            {
              "internalType": "uint64",
              "name": "endTime",
              "type": "uint64"
            },
            {
              "internalType": "string",
              "name": "eventLocation",
              "type": "string"
            },
            {
              "internalType": "bool",
              "name": "isActive",
              "type": "bool"
            },
            {
              "internalType": "uint256",
              "name": "ticketPrice",
              "type": "uint256"
            },
            {
              "internalType": "uint256",
              "name": "fundsHeld",
              "type": "uint256"
            },
            {
              "internalType": "bool",
              "name": "isCanceled",
              "type": "bool"
            },
            {
              "internalType": "bool",
              "name": "fundsReleased",
              "type": "bool"
            },
            {
              "internalType": "address",
              "name": "paymentToken",
              "type": "address"
            }
          ],
          "internalType": "struct EventChain.Event[]",
          "name": "",
          "type": "tuple[]"
        }
      ],
      "stateMutability": "view",
      "type": "function"
    },
    {
      "inputs": [
        {
          "internalType": "uint256",
          "name": "_index",
          "type": "uint256"
        }
      ],
      "name": "getAttendees",
      "outputs": [
        {
          "internalType": "address[]",
          "name": "",
          "type": "address[]"
        }
      ],
      "stateMutability": "view",
      "type": "function"
    },
    {
      "inputs": [
        {
          "internalType": "uint256",
          "name": "_index",
          "type": "uint256"
        }
      ],
      "name": "getEventById",
      "outputs": [
        {
          "components": [
            {
              "internalType": "address",
              "name": "owner",
              "type": "address"
            },
            {
              "internalType": "string",
              "name": "eventName",
              "type": "string"
            },
            {
              "internalType": "string",
              "name": "eventCardImgUrl",
              "type": "string"
            },
            {
              "internalType": "string",
              "name": "eventDetails",
              "type": "string"
            },
            {
              "internalType": "uint64",
              "name": "startDate",
              "type": "uint64"
            },
            {
              "internalType": "uint64",
              "name": "endDate",
              "type": "uint64"
            },
            {
              "internalType": "uint64",
              "name": "startTime",
              "type": "uint64"
            },
            {
              "internalType": "uint64",
              "name": "endTime",
              "type": "uint64"
            },
            {
              "internalType": "string",
              "name": "eventLocation",
              "type": "string"
            },
            {
              "internalType": "bool",
              "name": "isActive",
              "type": "bool"
            },
            {
              "internalType": "uint256",
              "name": "ticketPrice",
              "type": "uint256"
            },
            {
              "internalType": "uint256",
              "name": "fundsHeld",
              "type": "uint256"
            },
            {
              "internalType": "bool",
              "name": "isCanceled",
              "type": "bool"
            },
            {
              "internalType": "bool",
              "name": "fundsReleased",
              "type": "bool"
            },
            {
              "internalType": "address",
              "name": "paymentToken",
              "type": "address"
            }
          ],
          "internalType": "struct EventChain.Event",
          "name": "",
          "type": "tuple"
        },
        {
          "internalType": "address[]",
          "name": "",
          "type": "address[]"
        },
        {
          "components": [
            {
              "internalType": "address",
              "name": "owner",
              "type": "address"
            },
            {
              "internalType": "string",
              "name": "eventName",
              "type": "string"
            },
            {
              "internalType": "string",
              "name": "eventCardImgUrl",
              "type": "string"
            },
            {
              "internalType": "string",
              "name": "eventDetails",
              "type": "string"
            },
            {
              "internalType": "uint64",
              "name": "startDate",
              "type": "uint64"
            },
            {
              "internalType": "uint64",
              "name": "endDate",
              "type": "uint64"
            },
            {
              "internalType": "uint64",
              "name": "startTime",
              "type": "uint64"
            },
            {
              "internalType": "uint64",
              "name": "endTime",
              "type": "uint64"
            },
            {
              "internalType": "string",
              "name": "eventLocation",
              "type": "string"
            },
            {
              "internalType": "bool",
              "name": "isActive",
              "type": "bool"
            },
            {
              "internalType": "uint256",
              "name": "ticketPrice",
              "type": "uint256"
            },
            {
              "internalType": "uint256",
              "name": "fundsHeld",
              "type": "uint256"
            },
            {
              "internalType": "bool",
              "name": "isCanceled",
              "type": "bool"
            },
            {
              "internalType": "bool",
              "name": "fundsReleased",
              "type": "bool"
            },
            {
              "internalType": "address",
              "name": "paymentToken",
              "type": "address"
            }
          ],
          "internalType": "struct EventChain.Event[]",
          "name": "",
          "type": "tuple[]"
        }
      ],
      "stateMutability": "view",
      "type": "function"
    },
    {
      "inputs": [],
      "name": "getEventLength",
      "outputs": [
        {
          "internalType": "uint256",
          "name": "",
          "type": "uint256"
        }
      ],
      "stateMutability": "view",
      "type": "function"
    },
    {
      "inputs": [
        {
          "internalType": "address",
          "name": "_creator",
          "type": "address"
        }
      ],
      "name": "getEventsByCreator",
      "outputs": [
        {
          "components": [
            {
              "internalType": "address",
              "name": "owner",
              "type": "address"
            },
            {
              "internalType": "string",
              "name": "eventName",
              "type": "string"
            },
            {
              "internalType": "string",
              "name": "eventCardImgUrl",
              "type": "string"
            },
            {
              "internalType": "string",
              "name": "eventDetails",
              "type": "string"
            },
            {
              "internalType": "uint64",
              "name": "startDate",
              "type": "uint64"
            },
            {
              "internalType": "uint64",
              "name": "endDate",
              "type": "uint64"
            },
            {
              "internalType": "uint64",
              "name": "startTime",
              "type": "uint64"
            },
            {
              "internalType": "uint64",
              "name": "endTime",
              "type": "uint64"
            },
            {
              "internalType": "string",
              "name": "eventLocation",
              "type": "string"
            },
            {
              "internalType": "bool",
              "name": "isActive",
              "type": "bool"
            },
            {
              "internalType": "uint256",
              "name": "ticketPrice",
              "type": "uint256"
            },
            {
              "internalType": "uint256",
              "name": "fundsHeld",
              "type": "uint256"
            },
            {
              "internalType": "bool",
              "name": "isCanceled",
              "type": "bool"
            },
            {
              "internalType": "bool",
              "name": "fundsReleased",
              "type": "bool"
            },
            {
              "internalType": "address",
              "name": "paymentToken",
              "type": "address"
            }
          ],
          "internalType": "struct EventChain.Event[]",
          "name": "",
          "type": "tuple[]"
        }
      ],
      "stateMutability": "view",
      "type": "function"
    },
    {
      "inputs": [],
      "name": "getUserEvents",
      "outputs": [
        {
          "internalType": "uint256[]",
          "name": "",
          "type": "uint256[]"
        },
        {
          "components": [
            {
              "internalType": "address",
              "name": "owner",
              "type": "address"
            },
            {
              "internalType": "string",
              "name": "eventName",
              "type": "string"
            },
            {
              "internalType": "string",
              "name": "eventCardImgUrl",
              "type": "string"
            },
            {
              "internalType": "string",
              "name": "eventDetails",
              "type": "string"
            },
            {
              "internalType": "uint64",
              "name": "startDate",
              "type": "uint64"
            },
            {
              "internalType": "uint64",
              "name": "endDate",
              "type": "uint64"
            },
            {
              "internalType": "uint64",
              "name": "startTime",
              "type": "uint64"
            },
            {
              "internalType": "uint64",
              "name": "endTime",
              "type": "uint64"
            },
            {
              "internalType": "string",
              "name": "eventLocation",
              "type": "string"
            },
            {
              "internalType": "bool",
              "name": "isActive",
              "type": "bool"
            },
            {
              "internalType": "uint256",
              "name": "ticketPrice",
              "type": "uint256"
            },
            {
              "internalType": "uint256",
              "name": "fundsHeld",
              "type": "uint256"
            },
            {
              "internalType": "bool",
              "name": "isCanceled",
              "type": "bool"
            },
            {
              "internalType": "bool",
              "name": "fundsReleased",
              "type": "bool"
            },
            {
              "internalType": "address",
              "name": "paymentToken",
              "type": "address"
            }
          ],
          "internalType": "struct EventChain.Event[]",
          "name": "",
          "type": "tuple[]"
        }
      ],
      "stateMutability": "view",
      "type": "function"
    },
    {
      "inputs": [
        {
          "internalType": "uint256",
          "name": "",
          "type": "uint256"
        },
        {
          "internalType": "address",
          "name": "",
          "type": "address"
        }
      ],
      "name": "hasPurchasedTicket",
      "outputs": [
        {
          "internalType": "bool",
          "name": "",
          "type": "bool"
        }
      ],
      "stateMutability": "view",
      "type": "function"
    },
    {
      "inputs": [
        {
          "internalType": "uint256",
          "name": "_index",
          "type": "uint256"
        }
      ],
      "name": "releaseFunds",
      "outputs": [],
      "stateMutability": "nonpayable",
      "type": "function"
    },
    {
      "inputs": [
        {
          "internalType": "uint256",
          "name": "_index",
          "type": "uint256"
        }
      ],
      "name": "requestRefund",
      "outputs": [],
      "stateMutability": "nonpayable",
      "type": "function"
    },
    {
      "inputs": [
        {
          "internalType": "address",
          "name": "",
          "type": "address"
        }
      ],
      "name": "supportedTokens",
      "outputs": [
        {
          "internalType": "bool",
          "name": "",
          "type": "bool"
        }
      ],
      "stateMutability": "view",
      "type": "function"
    }
  ],
  "bytecode": "0x6080604052346100f157612880803803806100198161010c565b9283398101906020818303126100f1578051906001600160401b0382116100f1570181601f820112156100f1578051916001600160401b0383116100f6578260051b9160208061006a81860161010c565b8096815201938201019182116100f157602001915b8183106100d1578360005b81518110156100c25760019060406000838060a01b0360208460051b8701015116815280602052208260ff198254161790550161008a565b60405161274e90816101328239f35b82516001600160a01b03811681036100f15781526020928301920161007f565b600080fd5b634e487b7160e01b600052604160045260246000fd5b6040519190601f01601f191682016001600160401b038111838210176100f65760405256fe6080604052600436101561001257600080fd5b60003560e01c80630b79143014611e2e5780630f97756114611d395780632002058114611ceb5780633f69babd14611c1c578063439fd35f14611bc45780634d68282f146119425780635c98dfa114611924578063624d73fe14610b4157806367dd74ca146107de57806368c4ac261461079f578063a4b2409e146103e9578063b98079bc146102f7578063c27a500d14610243578063ccfd6d3c146101175763e0c14377146100c157600080fd5b34610112576020366003190112610112576004356100e26001548210612655565b600052600260205261010e6100fa60406000206126c4565b604051918291602083526020830190612357565b0390f35b600080fd5b34610112576000366003190112610112576001546000805b8281106101ef5750610149610143826123ba565b9161245d565b916000805b8281106101675750505061010e60405192839283612298565b61017081611f85565b50546001600160a01b03163314806101d8575b610190575b60010161014e565b906101d081836101a2600194886124ad565b526101b56101af85611f85565b506124c1565b6101bf82896124ad565b526101ca81886124ad565b50612394565b919050610188565b5060ff60066101e683611f85565b50015416610183565b6101f881611f85565b50546001600160a01b031633148061022c575b610218575b60010161012f565b90610224600191612394565b919050610210565b5060ff600661023a83611f85565b5001541661020b565b34610112576000366003190112610112576001546000805b8281106102c5575061026f610143826123ba565b916000805b82811061028d5750505061010e60405192839283612298565b60ff600661029a83611f85565b500154166102ab575b600101610274565b906102bd81836101a2600194886124ad565b9190506102a3565b60ff60066102d283611f85565b500154166102e3575b60010161025b565b906102ef600191612394565b9190506102db565b34610112576020366003190112610112576004356103136123ec565b506001548110156103ad578061010e61032e61039193611f85565b50826000526002602052610346604060002093611f85565b5060018060a01b03905416600052600360205261039f61037c6103766103706040600020946124c1565b956126c4565b926125be565b91604051958695606087526060870190612132565b908582036020870152612357565b90838203604085015261223f565b60405162461bcd60e51b8152602060048201526014602482015273115d995b9d08191bd95cc81b9bdd08195e1a5cdd60621b6044820152606490fd5b346101125760203660031901126101125760043561040a6001548210612655565b600081815260046020908152604080832033845290915290205460ff16156107645760ff600961043983611f85565b50015416156106e5575b600761044e82611f85565b5001549081600861045e83611f85565b500154106106a05760008181526004602090815260408083203384529091529020805460ff19169055600861049282611f85565b5001805490838203918211610681575580600052600260205260406000209060005b825480821015610697576104c882856126ac565b905460039190911b1c6001600160a01b031633146104e957506001016104b4565b9192916000198101919082116106815761052261050961054693856126ac565b905460039190911b1c6001600160a01b031691846126ac565b81546001600160a01b0393841660039290921b91821b9390911b1916919091179055565b8054801561066b57600019019061055d82826126ac565b81549060018060a01b039060031b1b19169055555b61057b81611f85565b506009015460405163a9059cbb60e01b81523360048201526024810184905290602090829060101c6001600160a01b0316816000816044810103925af190811561065f57600091610630575b50156105fb576040519182527f7a482fdeb6bc9a1376f597068a214a7a39472bb2eff1b8cad21ba04f49ddca1b60203393a3005b60405162461bcd60e51b815260206004820152600d60248201526c1499599d5b990819985a5b1959609a1b6044820152606490fd5b610652915060203d602011610658575b61064a818361202c565b810190612694565b836105c7565b503d610640565b6040513d6000823e3d90fd5b634e487b7160e01b600052603160045260246000fd5b634e487b7160e01b600052601160045260246000fd5b50509050610572565b60405162461bcd60e51b815260206004820152601c60248201527f496e73756666696369656e742066756e647320696e20657363726f77000000006044820152606490fd5b6106ee81611f85565b506001600160401b03600461464f1992015416016001600160401b038111610681576001600160401b031642106104435760405162461bcd60e51b815260206004820152601760248201527f526566756e6420706572696f642068617320656e6465640000000000000000006044820152606490fd5b60405162461bcd60e51b8152602060048201526013602482015272139bc81d1a58dad95d081c1d5c98da185cd959606a1b6044820152606490fd5b34610112576020366003190112610112576001600160a01b036107c06122eb565b166000526000602052602060ff604060002054166040519015158152f35b34610112576020366003190112610112576004356107ff6001548210612655565b6001600160401b03600461081283611f85565b50015416421015610b0c5760ff600661082a83611f85565b5001541615610ad357600081815260046020908152604080832033845290915290205460ff16610a9a57600761085f82611f85565b5001549061086c81611f85565b5060090154604051636eb1769f60e11b815233600482015230602482015260109190911c6001600160a01b031690602081604481855afa801561065f578491600091610a65575b5010610a20576040516323b872dd60e01b8152336004820152306024820152604481018490526020816064816000865af190811561065f57600091610a01575b50156109cb5760008281526004602090815260408083203384528252808320805460ff1916600117905584835260029091529020805490600160401b8210156109b55781610949916001610967940181556126ac565b81546001600160a01b0360039290921b91821b19163390911b179055565b600861097283611f85565b5001805490848201809211610681575560405192835260208301527f504ef6dabca28c1452704d54bd8e25708d87e0c27d852eceea53a0c0d898675860403393a3005b634e487b7160e01b600052604160045260246000fd5b60405162461bcd60e51b815260206004820152600e60248201526d14185e5b595b9d0819985a5b195960921b6044820152606490fd5b610a1a915060203d6020116106585761064a818361202c565b846108f3565b60405162461bcd60e51b815260206004820152601c60248201527f496e73756666696369656e7420746f6b656e20616c6c6f77616e6365000000006044820152606490fd5b9150506020813d602011610a92575b81610a816020938361202c565b8101031261011257839051856108b3565b3d9150610a74565b60405162461bcd60e51b8152602060048201526011602482015270105b1c9958591e481c1d5c98da185cd959607a1b6044820152606490fd5b60405162461bcd60e51b81526020600482015260116024820152704576656e7420697320696e61637469766560781b6044820152606490fd5b60405162461bcd60e51b815260206004820152600d60248201526c115d995b9d08195e1c1a5c9959609a1b6044820152606490fd5b3461011257610140366003190112610112576004356001600160401b03811161011257610b72903690600401612301565b6024356001600160401b03811161011257610b91903690600401612301565b906044356001600160401b03811161011257610bb1903690600401612301565b6064356001600160401b038116809103610112576084356001600160401b0381168091036101125760a4356001600160401b0381168091036101125760c435916001600160401b0383168093036101125760e4356001600160401b03811161011257610c21903690600401612301565b93610124359560018060a01b0387168097036101125786600052600060205260ff60406000205416156118df578183106118905760405198610c628a612010565b338a528860208b015260408a01526060890152608088015260a087015260c086015260e08501526101008401526001610120840152610104356101408401526000610160840152600061018084015260006101a08401526101c0830152600154600160401b8110156109b557806001610ce092016001556001611fba565b92909261157657805183546001600160a01b0319166001600160a01b0391909116178355602081015180519093906001600160401b0381116109b557610d296001830154611fd6565b601f8111611849575b506020601f82116001146117db5781929394956000926117d0575b50508160011b916000199060031b1c19161760018201555b60408201519283516001600160401b0381116109b557610d886002840154611fd6565b601f8111611789575b506020601f821160011461171b578192939495600092611710575b50508160011b916000199060031b1c19161760028301555b60608301519283516001600160401b0381116109b557610de76003850154611fd6565b601f81116116c9575b506020601f821160011461165b578192939495600092611650575b50508160011b916000199060031b1c19161760038401555b60808181015160a083015160c08085015160e086015160409390931b67ffffffffffffffff60401b166001600160401b0394851617941b67ffffffffffffffff60801b1693909317921b6001600160c01b031916919091176004850155610100820151805190949181116109b557610e9e6005830154611fd6565b601f8111611609575b506020601f8211600114611597578190600994959660009261158c575b50508160011b916000199060031b1c19161760058201555b610efc6101208401511515600683019060ff801983541691151516179055565b6101408301516007820155610160830151600882015501610f306101808301511515829060ff801983541691151516179055565b6101a0820151815461ff00191690151560081b61ff00161781556101c0820151815462010000600160b01b03191660109190911b62010000600160b01b03161790553360009081526003602052604090208054600160401b8110156109b557610f9e91600182018155611fba565b61157657815181546001600160a01b0319166001600160a01b03919091161781556020820151805160018301916001600160401b0382116109b5578190610fe58454611fd6565b601f8111611523575b50602090601f83116001146114be576000926114b3575b50508160011b916000199060031b1c19161790555b6002810160408301518051906001600160401b0382116109b55781906110408454611fd6565b601f8111611460575b50602090601f83116001146113fb576000926113f0575b50508160011b916000199060031b1c19161790555b6003810160608301518051906001600160401b0382116109b557819061109b8454611fd6565b601f811161139d575b50602090601f83116001146113385760009261132d575b50508160011b916000199060031b1c19161790555b60808281015160a084015160c08086015160e087015160409390931b67ffffffffffffffff60401b166001600160401b0394851617941b67ffffffffffffffff60801b1693909317921b6001600160c01b0319169190911760048301556101008301518051600584019290919082116109b55761114d8354611fd6565b601f81116112e5575b50602090601f8311600114611277579180600994926101c0969460009261126c575b50508160011b916000199060031b1c19161790555b6111ad6101208501511515600683019060ff801983541691151516179055565b6101408401516007820155610160840151600882015501916111e26101808201511515849060ff801983541691151516179055565b6101a0810151835461ff00191690151560081b61ff00161783550151815462010000600160b01b03191660109190911b62010000600160b01b03161790556001546000198101908111610681577ffc695dea2478fb938a11068aeedddd7046a5fe655f136e30a325d353fe187a456040516020815280611267339560208301906120f1565b0390a3005b015190508880611178565b90601f1983169184600052816000209260005b8181106112cd57509260019285926101c0989660099896106112b4575b505050811b01905561118d565b015160001960f88460031b161c191690558880806112a7565b9293602060018192878601518155019501930161128a565b836000526020600020601f840160051c81019160208510611323575b601f0160051c01905b8181106113175750611156565b6000815560010161130a565b9091508190611301565b0151905086806110bb565b60008581528281209350601f198516905b818110611385575090846001959493921061136c575b505050811b0190556110d0565b015160001960f88460031b161c1916905586808061135f565b92936020600181928786015181550195019301611349565b909150836000526020600020601f840160051c810191602085106113e6575b90601f859493920160051c01905b8181106113d757506110a4565b600081558493506001016113ca565b90915081906113bc565b015190508680611060565b60008581528281209350601f198516905b818110611448575090846001959493921061142f575b505050811b019055611075565b015160001960f88460031b161c19169055868080611422565b9293602060018192878601518155019501930161140c565b909150836000526020600020601f840160051c810191602085106114a9575b90601f859493920160051c01905b81811061149a5750611049565b6000815584935060010161148d565b909150819061147f565b015190508680611005565b60008581528281209350601f198516905b81811061150b57509084600195949392106114f2575b505050811b01905561101a565b015160001960f88460031b161c191690558680806114e5565b929360206001819287860151815501950193016114cf565b909150836000526020600020601f840160051c8101916020851061156c575b90601f859493920160051c01905b81811061155d5750610fee565b60008155849350600101611550565b9091508190611542565b634e487b7160e01b600052600060045260246000fd5b015190508680610ec4565b60058301600052806000209560005b601f19841681106115f157509582916009959697600194601f198116106115d8575b505050811b016005820155610edc565b015160001960f88460031b161c191690558680806115c8565b828201518855600190970196602092830192016115a6565b600583016000526020600020601f830160051c810160208410611649575b601f830160051c8201811061163d575050610ea7565b60008155600101611627565b5080611627565b015190508580610e0b565b60038501600052806000209060005b601f19841681106116b1575060019394959683601f19811610611698575b505050811b016003840155610e23565b015160001960f88460031b161c19169055858080611688565b9091602060018192858b01518155019301910161166a565b600385016000526020600020601f830160051c810160208410611709575b601f830160051c820181106116fd575050610df0565b600081556001016116e7565b50806116e7565b015190508580610dac565b60028401600052806000209060005b601f1984168110611771575060019394959683601f19811610611758575b505050811b016002830155610dc4565b015160001960f88460031b161c19169055858080611748565b9091602060018192858b01518155019301910161172a565b600284016000526020600020601f830160051c8101602084106117c9575b601f830160051c820181106117bd575050610d91565b600081556001016117a7565b50806117a7565b015190508580610d4d565b60018301600052806000209060005b601f1984168110611831575060019394959683601f19811610611818575b505050811b016001820155610d65565b015160001960f88460031b161c19169055858080611808565b9091602060018192858b0151815501930191016117ea565b600183016000526020600020601f830160051c810160208410611889575b601f830160051c8201811061187d575050610d32565b60008155600101611867565b5080611867565b60405162461bcd60e51b815260206004820152602160248201527f456e642064617465206d757374206265206166746572207374617274206461746044820152606560f81b6064820152608490fd5b60405162461bcd60e51b815260206004820152601960248201527f556e737570706f72746564207061796d656e7420746f6b656e000000000000006044820152606490fd5b34610112576000366003190112610112576020600154604051908152f35b346101125760203660031901126101125760043561197461196282611f85565b50546001600160a01b03163314612617565b6119816001548210612655565b6001600160401b03600461199483611f85565b50015460401c16421115611b7f5760ff60096119af83611f85565b50015416611b285760ff60096119c483611f85565b50015460081c16611aea5760086119da82611f85565b500154600060086119ea84611f85565b50015560096119f883611f85565b5001805461ff001916610100179055611a1082611f85565b506009015460405163a9059cbb60e01b81523360048201526024810183905290602090829060101c6001600160a01b0316816000816044810103925af190811561065f57600091611acb575b5015611a8f5760207f80230996023d69b50793fa73f1919127c9d8e741d3989743c479169f22e7a28891604051908152a2005b60405162461bcd60e51b8152602060048201526014602482015273119d5b99081d1c985b9cd9995c8819985a5b195960621b6044820152606490fd5b611ae4915060203d6020116106585761064a818361202c565b83611a5c565b60405162461bcd60e51b8152602060048201526016602482015275119d5b991cc8185b1c9958591e481c995b19585cd95960521b6044820152606490fd5b60405162461bcd60e51b815260206004820152602960248201527f43616e6e6f742072656c656173652066756e647320666f7220612063616e63656044820152681b195908195d995b9d60ba1b6064820152608490fd5b60405162461bcd60e51b815260206004820152601760248201527f4576656e7420686173206e6f7420656e646564207965740000000000000000006044820152606490fd5b34610112576040366003190112610112576024356001600160a01b038116810361011257600435600052600460205260406000209060018060a01b0316600052602052602060ff604060002054166040519015158152f35b3461011257602036600319011261011257600435611c3c61196282611f85565b611c496001548210612655565b60ff6006611c5683611f85565b5001541615611cb3576006611c6a82611f85565b5001805460ff191690556009611c7f82611f85565b5001805460ff191660011790557fceaf11772900fe569752a0207c8639fb8228eb8663456dc9eaa3a08f927a8705600080a2005b60405162461bcd60e51b815260206004820152601060248201526f105b1c9958591e4818d85b98d95b195960821b6044820152606490fd5b34610112576020366003190112610112576001600160a01b03611d0c6122eb565b16600052600360205261010e611d2560406000206125be565b60405191829160208352602083019061223f565b34610112576000366003190112610112576001543390600090815b818110611df05750611d6e611d68836123ba565b9261245d565b92600090815b838110611d8a576040518061010e888883612298565b80600052600460205260ff604080600020600090858252602052205416611db4575b600101611d74565b91611de88184611dc6600194896124ad565b52611dd36101af86611f85565b611ddd828a6124ad565b526101ca81896124ad565b929050611dac565b80600052600460205260ff604080600020600090878252602052205416611e1a575b600101611d54565b91611e26600191612394565b929050611e12565b346101125760203660031901126101125760043560015481101561011257611e586101e091611f85565b5080546001600160a01b031690611e716001820161204d565b611e7d6002830161204d565b91611e8a6003820161204d565b92611f3f6004830154611e9f6005850161204d565b611ef560ff60068701541697611ee7600788015496611ed9600960088b01549a01549a6040519e8f9e8f90815281602082015201906120f1565b8c810360408e0152906120f1565b908a820360608c01526120f1565b916001600160401b03811660808a01526001600160401b038160401c1660a08a01526001600160401b038160801c1660c08a015260c01c60e08901528782036101008901526120f1565b93151561012086015261014085015261016084015260ff8181161515610180850152600882901c1615156101a084015260101c6001600160a01b03166101c08301520390f35b600154811015611fa4576001600052600a602060002091020190600090565b634e487b7160e01b600052603260045260246000fd5b8054821015611fa457600052600a602060002091020190600090565b90600182811c92168015612006575b6020831014611ff057565b634e487b7160e01b600052602260045260246000fd5b91607f1691611fe5565b6101e081019081106001600160401b038211176109b557604052565b90601f801991011681019081106001600160401b038211176109b557604052565b906040519182600082549261206184611fd6565b80845293600181169081156120cf5750600114612088575b506120869250038361202c565b565b90506000929192526020600020906000915b8183106120b35750509060206120869282010138612079565b602091935080600191548385890101520191019091849261209a565b90506020925061208694915060ff191682840152151560051b82010138612079565b919082519283825260005b84811061211d575050826000602080949584010152601f8019910116010190565b806020809284010151828286010152016120fc565b9060018060a01b0382511681526101c06121ea61218a61217861216660208701516101e060208801526101e08701906120f1565b604087015186820360408801526120f1565b606086015185820360608701526120f1565b6001600160401b0360808601511660808501526001600160401b0360a08601511660a08501526001600160401b0360c08601511660c08501526001600160401b0360e08601511660e08501526101008501518482036101008601526120f1565b92610120810151151561012084015261014081015161014084015261016081015161016084015261018081015115156101808401526101a081015115156101a08401528160018060a01b039101511691015290565b9080602083519182815201916020808360051b8301019401926000915b83831061226b57505050505090565b9091929394602080612289600193601f198682030187528951612132565b9701930193019193929061225c565b9291604084019360408152825180955260206060820193016000955b8087106122d35750506122d0939450602081840391015261223f565b90565b909360208060019287518152019501960195906122b4565b600435906001600160a01b038216820361011257565b81601f82011215610112578035906001600160401b0382116109b55760405192612335601f8401601f19166020018561202c565b8284526020838301011161011257816000926020809301838601378301015290565b906020808351928381520192019060005b8181106123755750505090565b82516001600160a01b0316845260209384019390920191600101612368565b60001981146106815760010190565b6001600160401b0381116109b55760051b60200190565b906123c4826123a3565b6123d1604051918261202c565b82815280926123e2601f19916123a3565b0190602036910137565b604051906123f982612010565b60006101c08382815260606020820152606060408201526060808201528260808201528260a08201528260c08201528260e0820152606061010082015282610120820152826101408201528261016082015282610180820152826101a08201520152565b90612467826123a3565b612474604051918261202c565b8281528092612485601f19916123a3565b019060005b82811061249657505050565b6020906124a16123ec565b8282850101520161248a565b8051821015611fa45760209160051b010190565b906040516124ce81612010565b82546001600160a01b031681529182906101c0906009906124f16001820161204d565b60208501526125026002820161204d565b60408501526125136003820161204d565b606085015260048101546001600160401b03811660808601526001600160401b038160401c1660a08601526001600160401b038160801c1660c086015260c01c60e08501526125646005820161204d565b61010085015260ff600682015416151561012085015260078101546101408501526008810154610160850152015460ff8116151561018084015260ff8160081c1615156101a084015260018060a01b039060101c16910152565b9081546125ca816123a3565b926125d8604051948561202c565b818452602084019060005260206000206000915b8383106125f95750505050565b600a6020600192612609856124c1565b8152019201920191906125ec565b1561261e57565b60405162461bcd60e51b815260206004820152600f60248201526e2737ba1032bb32b73a1037bbb732b960891b6044820152606490fd5b1561265c57565b60405162461bcd60e51b815260206004820152601060248201526f125b9d985b1a5908195d995b9d08125160821b6044820152606490fd5b90816020910312610112575180151581036101125790565b8054821015611fa45760005260206000200190600090565b906040519182815491828252602082019060005260206000209260005b8181106126f65750506120869250038361202c565b84546001600160a01b03168352600194850194879450602090930192016126e156fea264697066735822122017cb3a9d4ed59bc17daffb8190c38bb415016a7a21d626d9fd3259f20b7a57b264736f6c634300081c0033",
  "linkReferences": {},
  "deployedLinkReferences": {}
}