{
    "_format": "hh-sol-artifact-1",
    "contractName": "EventChain",
    "sourceName": "contracts/EventChain.sol",
    "abi": [
        {
            "inputs": [
                {
                    "internalType": "address[]",
                    "name": "_supportedTokens",
                    "type": "address[]"
                }
            ],
            "stateMutability": "nonpayable",
            "type": "constructor"
        },
        {
            "inputs": [],
            "name": "ReentrancyGuardReentrantCall",
            "type": "error"
        },
        {
            "anonymous": false,
            "inputs": [
                {
                    "indexed": true,
                    "internalType": "uint256",
                    "name": "eventId",
                    "type": "uint256"
                }
            ],
            "name": "EventCanceled",
            "type": "event"
        },
        {
            "anonymous": false,
            "inputs": [
                {
                    "indexed": true,
                    "internalType": "uint256",
                    "name": "eventId",
                    "type": "uint256"
                },
                {
                    "indexed": true,
                    "internalType": "address",
                    "name": "owner",
                    "type": "address"
                },
                {
                    "indexed": false,
                    "internalType": "string",
                    "name": "eventName",
                    "type": "string"
                }
            ],
            "name": "EventCreated",
            "type": "event"
        },
        {
            "anonymous": false,
            "inputs": [
                {
                    "indexed": true,
                    "internalType": "uint256",
                    "name": "eventId",
                    "type": "uint256"
                },
                {
                    "indexed": true,
                    "internalType": "address",
                    "name": "owner",
                    "type": "address"
                },
                {
                    "indexed": false,
                    "internalType": "string",
                    "name": "eventName",
                    "type": "string"
                }
            ],
            "name": "EventUpdated",
            "type": "event"
        },
        {
            "anonymous": false,
            "inputs": [
                {
                    "indexed": true,
                    "internalType": "uint256",
                    "name": "eventId",
                    "type": "uint256"
                },
                {
                    "indexed": false,
                    "internalType": "uint256",
                    "name": "amount",
                    "type": "uint256"
                }
            ],
            "name": "FundsReleased",
            "type": "event"
        },
        {
            "anonymous": false,
            "inputs": [
                {
                    "indexed": true,
                    "internalType": "uint256",
                    "name": "eventId",
                    "type": "uint256"
                },
                {
                    "indexed": true,
                    "internalType": "address",
                    "name": "user",
                    "type": "address"
                },
                {
                    "indexed": false,
                    "internalType": "uint256",
                    "name": "amount",
                    "type": "uint256"
                }
            ],
            "name": "RefundIssued",
            "type": "event"
        },
        {
            "anonymous": false,
            "inputs": [
                {
                    "indexed": true,
                    "internalType": "uint256",
                    "name": "eventId",
                    "type": "uint256"
                },
                {
                    "indexed": true,
                    "internalType": "address",
                    "name": "buyer",
                    "type": "address"
                },
                {
                    "indexed": false,
                    "internalType": "uint256",
                    "name": "amount",
                    "type": "uint256"
                },
                {
                    "indexed": false,
                    "internalType": "address",
                    "name": "paymentToken",
                    "type": "address"
                }
            ],
            "name": "TicketPurchased",
            "type": "event"
        },
        {
            "inputs": [],
            "name": "MAX_ATTENDEES",
            "outputs": [
                {
                    "internalType": "uint256",
                    "name": "",
                    "type": "uint256"
                }
            ],
            "stateMutability": "view",
            "type": "function"
        },
        {
            "inputs": [],
            "name": "MAX_DETAILS_LENGTH",
            "outputs": [
                {
                    "internalType": "uint256",
                    "name": "",
                    "type": "uint256"
                }
            ],
            "stateMutability": "view",
            "type": "function"
        },
        {
            "inputs": [],
            "name": "MAX_LOCATION_LENGTH",
            "outputs": [
                {
                    "internalType": "uint256",
                    "name": "",
                    "type": "uint256"
                }
            ],
            "stateMutability": "view",
            "type": "function"
        },
        {
            "inputs": [],
            "name": "MAX_NAME_LENGTH",
            "outputs": [
                {
                    "internalType": "uint256",
                    "name": "",
                    "type": "uint256"
                }
            ],
            "stateMutability": "view",
            "type": "function"
        },
        {
            "inputs": [],
            "name": "MAX_TICKET_PRICE",
            "outputs": [
                {
                    "internalType": "uint256",
                    "name": "",
                    "type": "uint256"
                }
            ],
            "stateMutability": "view",
            "type": "function"
        },
        {
            "inputs": [],
            "name": "MAX_URL_LENGTH",
            "outputs": [
                {
                    "internalType": "uint256",
                    "name": "",
                    "type": "uint256"
                }
            ],
            "stateMutability": "view",
            "type": "function"
        },
        {
            "inputs": [],
            "name": "MIN_EVENT_DURATION",
            "outputs": [
                {
                    "internalType": "uint256",
                    "name": "",
                    "type": "uint256"
                }
            ],
            "stateMutability": "view",
            "type": "function"
        },
        {
            "inputs": [],
            "name": "REFUND_BUFFER",
            "outputs": [
                {
                    "internalType": "uint256",
                    "name": "",
                    "type": "uint256"
                }
            ],
            "stateMutability": "view",
            "type": "function"
        },
        {
            "inputs": [
                {
                    "internalType": "uint256",
                    "name": "_index",
                    "type": "uint256"
                }
            ],
            "name": "buyTicket",
            "outputs": [],
            "stateMutability": "nonpayable",
            "type": "function"
        },
        {
            "inputs": [
                {
                    "internalType": "uint256",
                    "name": "_index",
                    "type": "uint256"
                }
            ],
            "name": "cancelEvent",
            "outputs": [],
            "stateMutability": "nonpayable",
            "type": "function"
        },
        {
            "inputs": [
                {
                    "internalType": "string",
                    "name": "_eventName",
                    "type": "string"
                },
                {
                    "internalType": "string",
                    "name": "_eventCardImgUrl",
                    "type": "string"
                },
                {
                    "internalType": "string",
                    "name": "_eventDetails",
                    "type": "string"
                },
                {
                    "internalType": "uint64",
                    "name": "_startDate",
                    "type": "uint64"
                },
                {
                    "internalType": "uint64",
                    "name": "_endDate",
                    "type": "uint64"
                },
                {
                    "internalType": "uint64",
                    "name": "_startTime",
                    "type": "uint64"
                },
                {
                    "internalType": "uint64",
                    "name": "_endTime",
                    "type": "uint64"
                },
                {
                    "internalType": "string",
                    "name": "_eventLocation",
                    "type": "string"
                },
                {
                    "internalType": "uint256",
                    "name": "_ticketPrice",
                    "type": "uint256"
                },
                {
                    "internalType": "uint256",
                    "name": "_minimumAge",
                    "type": "uint256"
                },
                {
                    "internalType": "address",
                    "name": "_paymentToken",
                    "type": "address"
                }
            ],
            "name": "createEvent",
            "outputs": [],
            "stateMutability": "nonpayable",
            "type": "function"
        },
        {
            "inputs": [
                {
                    "internalType": "uint256",
                    "name": "",
                    "type": "uint256"
                }
            ],
            "name": "events",
            "outputs": [
                {
                    "internalType": "address",
                    "name": "owner",
                    "type": "address"
                },
                {
                    "internalType": "string",
                    "name": "eventName",
                    "type": "string"
                },
                {
                    "internalType": "string",
                    "name": "eventCardImgUrl",
                    "type": "string"
                },
                {
                    "internalType": "string",
                    "name": "eventDetails",
                    "type": "string"
                },
                {
                    "internalType": "uint64",
                    "name": "startDate",
                    "type": "uint64"
                },
                {
                    "internalType": "uint64",
                    "name": "endDate",
                    "type": "uint64"
                },
                {
                    "internalType": "uint64",
                    "name": "startTime",
                    "type": "uint64"
                },
                {
                    "internalType": "uint64",
                    "name": "endTime",
                    "type": "uint64"
                },
                {
                    "internalType": "string",
                    "name": "eventLocation",
                    "type": "string"
                },
                {
                    "internalType": "bool",
                    "name": "isActive",
                    "type": "bool"
                },
                {
                    "internalType": "uint256",
                    "name": "ticketPrice",
                    "type": "uint256"
                },
                {
                    "internalType": "uint256",
                    "name": "fundsHeld",
                    "type": "uint256"
                },
                {
                    "internalType": "uint256",
                    "name": "minimumAge",
                    "type": "uint256"
                },
                {
                    "internalType": "bool",
                    "name": "isCanceled",
                    "type": "bool"
                },
                {
                    "internalType": "bool",
                    "name": "fundsReleased",
                    "type": "bool"
                },
                {
                    "internalType": "address",
                    "name": "paymentToken",
                    "type": "address"
                }
            ],
            "stateMutability": "view",
            "type": "function"
        },
        {
            "inputs": [],
            "name": "getActiveEventsByCreator",
            "outputs": [
                {
                    "internalType": "uint256[]",
                    "name": "",
                    "type": "uint256[]"
                },
                {
                    "components": [
                        {
                            "internalType": "address",
                            "name": "owner",
                            "type": "address"
                        },
                        {
                            "internalType": "string",
                            "name": "eventName",
                            "type": "string"
                        },
                        {
                            "internalType": "string",
                            "name": "eventCardImgUrl",
                            "type": "string"
                        },
                        {
                            "internalType": "string",
                            "name": "eventDetails",
                            "type": "string"
                        },
                        {
                            "internalType": "uint64",
                            "name": "startDate",
                            "type": "uint64"
                        },
                        {
                            "internalType": "uint64",
                            "name": "endDate",
                            "type": "uint64"
                        },
                        {
                            "internalType": "uint64",
                            "name": "startTime",
                            "type": "uint64"
                        },
                        {
                            "internalType": "uint64",
                            "name": "endTime",
                            "type": "uint64"
                        },
                        {
                            "internalType": "string",
                            "name": "eventLocation",
                            "type": "string"
                        },
                        {
                            "internalType": "bool",
                            "name": "isActive",
                            "type": "bool"
                        },
                        {
                            "internalType": "uint256",
                            "name": "ticketPrice",
                            "type": "uint256"
                        },
                        {
                            "internalType": "uint256",
                            "name": "fundsHeld",
                            "type": "uint256"
                        },
                        {
                            "internalType": "uint256",
                            "name": "minimumAge",
                            "type": "uint256"
                        },
                        {
                            "internalType": "bool",
                            "name": "isCanceled",
                            "type": "bool"
                        },
                        {
                            "internalType": "bool",
                            "name": "fundsReleased",
                            "type": "bool"
                        },
                        {
                            "internalType": "address",
                            "name": "paymentToken",
                            "type": "address"
                        }
                    ],
                    "internalType": "struct EventChain.Event[]",
                    "name": "",
                    "type": "tuple[]"
                }
            ],
            "stateMutability": "view",
            "type": "function"
        },
        {
            "inputs": [],
            "name": "getAllEvents",
            "outputs": [
                {
                    "internalType": "uint256[]",
                    "name": "",
                    "type": "uint256[]"
                },
                {
                    "components": [
                        {
                            "internalType": "address",
                            "name": "owner",
                            "type": "address"
                        },
                        {
                            "internalType": "string",
                            "name": "eventName",
                            "type": "string"
                        },
                        {
                            "internalType": "string",
                            "name": "eventCardImgUrl",
                            "type": "string"
                        },
                        {
                            "internalType": "string",
                            "name": "eventDetails",
                            "type": "string"
                        },
                        {
                            "internalType": "uint64",
                            "name": "startDate",
                            "type": "uint64"
                        },
                        {
                            "internalType": "uint64",
                            "name": "endDate",
                            "type": "uint64"
                        },
                        {
                            "internalType": "uint64",
                            "name": "startTime",
                            "type": "uint64"
                        },
                        {
                            "internalType": "uint64",
                            "name": "endTime",
                            "type": "uint64"
                        },
                        {
                            "internalType": "string",
                            "name": "eventLocation",
                            "type": "string"
                        },
                        {
                            "internalType": "bool",
                            "name": "isActive",
                            "type": "bool"
                        },
                        {
                            "internalType": "uint256",
                            "name": "ticketPrice",
                            "type": "uint256"
                        },
                        {
                            "internalType": "uint256",
                            "name": "fundsHeld",
                            "type": "uint256"
                        },
                        {
                            "internalType": "uint256",
                            "name": "minimumAge",
                            "type": "uint256"
                        },
                        {
                            "internalType": "bool",
                            "name": "isCanceled",
                            "type": "bool"
                        },
                        {
                            "internalType": "bool",
                            "name": "fundsReleased",
                            "type": "bool"
                        },
                        {
                            "internalType": "address",
                            "name": "paymentToken",
                            "type": "address"
                        }
                    ],
                    "internalType": "struct EventChain.Event[]",
                    "name": "",
                    "type": "tuple[]"
                }
            ],
            "stateMutability": "view",
            "type": "function"
        },
        {
            "inputs": [
                {
                    "internalType": "uint256",
                    "name": "_index",
                    "type": "uint256"
                }
            ],
            "name": "getAttendees",
            "outputs": [
                {
                    "internalType": "address[]",
                    "name": "",
                    "type": "address[]"
                }
            ],
            "stateMutability": "view",
            "type": "function"
        },
        {
            "inputs": [
                {
                    "internalType": "uint256",
                    "name": "_index",
                    "type": "uint256"
                }
            ],
            "name": "getEventById",
            "outputs": [
                {
                    "components": [
                        {
                            "internalType": "address",
                            "name": "owner",
                            "type": "address"
                        },
                        {
                            "internalType": "string",
                            "name": "eventName",
                            "type": "string"
                        },
                        {
                            "internalType": "string",
                            "name": "eventCardImgUrl",
                            "type": "string"
                        },
                        {
                            "internalType": "string",
                            "name": "eventDetails",
                            "type": "string"
                        },
                        {
                            "internalType": "uint64",
                            "name": "startDate",
                            "type": "uint64"
                        },
                        {
                            "internalType": "uint64",
                            "name": "endDate",
                            "type": "uint64"
                        },
                        {
                            "internalType": "uint64",
                            "name": "startTime",
                            "type": "uint64"
                        },
                        {
                            "internalType": "uint64",
                            "name": "endTime",
                            "type": "uint64"
                        },
                        {
                            "internalType": "string",
                            "name": "eventLocation",
                            "type": "string"
                        },
                        {
                            "internalType": "bool",
                            "name": "isActive",
                            "type": "bool"
                        },
                        {
                            "internalType": "uint256",
                            "name": "ticketPrice",
                            "type": "uint256"
                        },
                        {
                            "internalType": "uint256",
                            "name": "fundsHeld",
                            "type": "uint256"
                        },
                        {
                            "internalType": "uint256",
                            "name": "minimumAge",
                            "type": "uint256"
                        },
                        {
                            "internalType": "bool",
                            "name": "isCanceled",
                            "type": "bool"
                        },
                        {
                            "internalType": "bool",
                            "name": "fundsReleased",
                            "type": "bool"
                        },
                        {
                            "internalType": "address",
                            "name": "paymentToken",
                            "type": "address"
                        }
                    ],
                    "internalType": "struct EventChain.Event",
                    "name": "",
                    "type": "tuple"
                },
                {
                    "internalType": "address[]",
                    "name": "",
                    "type": "address[]"
                },
                {
                    "components": [
                        {
                            "internalType": "address",
                            "name": "owner",
                            "type": "address"
                        },
                        {
                            "internalType": "string",
                            "name": "eventName",
                            "type": "string"
                        },
                        {
                            "internalType": "string",
                            "name": "eventCardImgUrl",
                            "type": "string"
                        },
                        {
                            "internalType": "string",
                            "name": "eventDetails",
                            "type": "string"
                        },
                        {
                            "internalType": "uint64",
                            "name": "startDate",
                            "type": "uint64"
                        },
                        {
                            "internalType": "uint64",
                            "name": "endDate",
                            "type": "uint64"
                        },
                        {
                            "internalType": "uint64",
                            "name": "startTime",
                            "type": "uint64"
                        },
                        {
                            "internalType": "uint64",
                            "name": "endTime",
                            "type": "uint64"
                        },
                        {
                            "internalType": "string",
                            "name": "eventLocation",
                            "type": "string"
                        },
                        {
                            "internalType": "bool",
                            "name": "isActive",
                            "type": "bool"
                        },
                        {
                            "internalType": "uint256",
                            "name": "ticketPrice",
                            "type": "uint256"
                        },
                        {
                            "internalType": "uint256",
                            "name": "fundsHeld",
                            "type": "uint256"
                        },
                        {
                            "internalType": "uint256",
                            "name": "minimumAge",
                            "type": "uint256"
                        },
                        {
                            "internalType": "bool",
                            "name": "isCanceled",
                            "type": "bool"
                        },
                        {
                            "internalType": "bool",
                            "name": "fundsReleased",
                            "type": "bool"
                        },
                        {
                            "internalType": "address",
                            "name": "paymentToken",
                            "type": "address"
                        }
                    ],
                    "internalType": "struct EventChain.Event[]",
                    "name": "",
                    "type": "tuple[]"
                }
            ],
            "stateMutability": "view",
            "type": "function"
        },
        {
            "inputs": [],
            "name": "getEventLength",
            "outputs": [
                {
                    "internalType": "uint256",
                    "name": "",
                    "type": "uint256"
                }
            ],
            "stateMutability": "view",
            "type": "function"
        },
        {
            "inputs": [
                {
                    "internalType": "address",
                    "name": "_creator",
                    "type": "address"
                }
            ],
            "name": "getEventsByCreator",
            "outputs": [
                {
                    "components": [
                        {
                            "internalType": "address",
                            "name": "owner",
                            "type": "address"
                        },
                        {
                            "internalType": "string",
                            "name": "eventName",
                            "type": "string"
                        },
                        {
                            "internalType": "string",
                            "name": "eventCardImgUrl",
                            "type": "string"
                        },
                        {
                            "internalType": "string",
                            "name": "eventDetails",
                            "type": "string"
                        },
                        {
                            "internalType": "uint64",
                            "name": "startDate",
                            "type": "uint64"
                        },
                        {
                            "internalType": "uint64",
                            "name": "endDate",
                            "type": "uint64"
                        },
                        {
                            "internalType": "uint64",
                            "name": "startTime",
                            "type": "uint64"
                        },
                        {
                            "internalType": "uint64",
                            "name": "endTime",
                            "type": "uint64"
                        },
                        {
                            "internalType": "string",
                            "name": "eventLocation",
                            "type": "string"
                        },
                        {
                            "internalType": "bool",
                            "name": "isActive",
                            "type": "bool"
                        },
                        {
                            "internalType": "uint256",
                            "name": "ticketPrice",
                            "type": "uint256"
                        },
                        {
                            "internalType": "uint256",
                            "name": "fundsHeld",
                            "type": "uint256"
                        },
                        {
                            "internalType": "uint256",
                            "name": "minimumAge",
                            "type": "uint256"
                        },
                        {
                            "internalType": "bool",
                            "name": "isCanceled",
                            "type": "bool"
                        },
                        {
                            "internalType": "bool",
                            "name": "fundsReleased",
                            "type": "bool"
                        },
                        {
                            "internalType": "address",
                            "name": "paymentToken",
                            "type": "address"
                        }
                    ],
                    "internalType": "struct EventChain.Event[]",
                    "name": "",
                    "type": "tuple[]"
                }
            ],
            "stateMutability": "view",
            "type": "function"
        },
        {
            "inputs": [],
            "name": "getUserEvents",
            "outputs": [
                {
                    "internalType": "uint256[]",
                    "name": "",
                    "type": "uint256[]"
                },
                {
                    "components": [
                        {
                            "internalType": "address",
                            "name": "owner",
                            "type": "address"
                        },
                        {
                            "internalType": "string",
                            "name": "eventName",
                            "type": "string"
                        },
                        {
                            "internalType": "string",
                            "name": "eventCardImgUrl",
                            "type": "string"
                        },
                        {
                            "internalType": "string",
                            "name": "eventDetails",
                            "type": "string"
                        },
                        {
                            "internalType": "uint64",
                            "name": "startDate",
                            "type": "uint64"
                        },
                        {
                            "internalType": "uint64",
                            "name": "endDate",
                            "type": "uint64"
                        },
                        {
                            "internalType": "uint64",
                            "name": "startTime",
                            "type": "uint64"
                        },
                        {
                            "internalType": "uint64",
                            "name": "endTime",
                            "type": "uint64"
                        },
                        {
                            "internalType": "string",
                            "name": "eventLocation",
                            "type": "string"
                        },
                        {
                            "internalType": "bool",
                            "name": "isActive",
                            "type": "bool"
                        },
                        {
                            "internalType": "uint256",
                            "name": "ticketPrice",
                            "type": "uint256"
                        },
                        {
                            "internalType": "uint256",
                            "name": "fundsHeld",
                            "type": "uint256"
                        },
                        {
                            "internalType": "uint256",
                            "name": "minimumAge",
                            "type": "uint256"
                        },
                        {
                            "internalType": "bool",
                            "name": "isCanceled",
                            "type": "bool"
                        },
                        {
                            "internalType": "bool",
                            "name": "fundsReleased",
                            "type": "bool"
                        },
                        {
                            "internalType": "address",
                            "name": "paymentToken",
                            "type": "address"
                        }
                    ],
                    "internalType": "struct EventChain.Event[]",
                    "name": "",
                    "type": "tuple[]"
                }
            ],
            "stateMutability": "view",
            "type": "function"
        },
        {
            "inputs": [
                {
                    "internalType": "uint256",
                    "name": "",
                    "type": "uint256"
                },
                {
                    "internalType": "address",
                    "name": "",
                    "type": "address"
                }
            ],
            "name": "hasPurchasedTicket",
            "outputs": [
                {
                    "internalType": "bool",
                    "name": "",
                    "type": "bool"
                }
            ],
            "stateMutability": "view",
            "type": "function"
        },
        {
            "inputs": [],
            "name": "paused",
            "outputs": [
                {
                    "internalType": "bool",
                    "name": "",
                    "type": "bool"
                }
            ],
            "stateMutability": "view",
            "type": "function"
        },
        {
            "inputs": [
                {
                    "internalType": "uint256",
                    "name": "_index",
                    "type": "uint256"
                }
            ],
            "name": "releaseFunds",
            "outputs": [],
            "stateMutability": "nonpayable",
            "type": "function"
        },
        {
            "inputs": [
                {
                    "internalType": "uint256",
                    "name": "_index",
                    "type": "uint256"
                }
            ],
            "name": "requestRefund",
            "outputs": [],
            "stateMutability": "nonpayable",
            "type": "function"
        },
        {
            "inputs": [
                {
                    "internalType": "address",
                    "name": "",
                    "type": "address"
                }
            ],
            "name": "supportedTokens",
            "outputs": [
                {
                    "internalType": "bool",
                    "name": "",
                    "type": "bool"
                }
            ],
            "stateMutability": "view",
            "type": "function"
        }
    ],
    "bytecode": "0x6080604052346100f657612e3d8038038061001981610111565b9283398101906020818303126100f6578051906001600160401b0382116100f6570181601f820112156100f6578051916001600160401b0383116100fb578260051b9160208061006a818601610111565b8096815201938201019182116100f657602001915b8183106100d65783600160005560005b81518110156100c75760019060406000838060a01b0360208460051b8701015116815283602052208260ff198254161790550161008f565b604051612d0690816101378239f35b82516001600160a01b03811681036100f65781526020928301920161007f565b600080fd5b634e487b7160e01b600052604160045260246000fd5b6040519190601f01601f191682016001600160401b038111838210176100fb5760405256fe6080604052600436101561001257600080fd5b60003560e01c80630b7914301461227f5780630f9775611461218a5780631ac789691461216d578063200205811461211f5780633f69babd14612035578063439fd35f14611fdd5780634d68282f14611d4e57806350d9c62d14611d315780635c975abb14611d0e5780635c98dfa114611cf0578063617148e514611cd357806367dd74ca1461196157806368c4ac26146119225780637b426cbf1461190557806386074985146118e9578063a4b2409e14611559578063abf45ec81461153d578063b5e4128714611518578063b98079bc14611426578063c27a500d14611372578063cb71146e14611356578063ccfd6d3c1461122a578063e0c14377146111d95763f57c7ad81461012457600080fd5b346111d4576101603660031901126111d4576004356001600160401b0381116111d4576101559036906004016127ab565b906024356001600160401b0381116111d4576101759036906004016127ab565b906044356001600160401b0381116111d4576101959036906004016127ab565b906064356001600160401b0381168091036111d4576084356001600160401b0381168091036111d45760a4356001600160401b0381168091036111d45760c435916001600160401b0383168093036111d45760e4356001600160401b0381116111d4576102069036906004016127ab565b9490956101043597610144359960018060a01b038b16809b036111d45761023260ff6002541615612b29565b8d15158e816111c8575b5015611194578b151580611189575b15611156578115158061114a575b156111135787151580611108575b156110d057891515806110bc575b15611087578a156110525742841061100d57610e10840180851161091d578510610fd3578a600052600160205260ff6040600020541615610f9a578c9b8e6040519d8e916102c283612471565b33835236906102d092612c2a565b906020015236906102e092612c2a565b60408c015236906102f092612c2a565b60608a0152608089015260a088015260c087015260e0860152369061031492612c2a565b610100840152600161012084015261014083015260006101608301819052610124356101808401526101a083018190526101c08301526101e0820152600354600160401b8110156109f4578060016103719201600355600361241b565b610c5357815181546001600160a01b0319166001600160a01b039190911617815560208201518051906001600160401b0382116109f45781906103b76001850154612437565b601f8111610f47575b50602090601f8311600114610ed657600092610ecb575b50508160011b916000199060031b1c19161760018201555b60408201518051906001600160401b0382116109f45781906104146002850154612437565b601f8111610e78575b50602090601f8311600114610e0757600092610dfc575b50508160011b916000199060031b1c19161760028201555b60608201518051906001600160401b0382116109f45781906104716003850154612437565b601f8111610da9575b50602090601f8311600114610d3857600092610d2d575b50508160011b916000199060031b1c19161760038201555b60808281015160a084015160c08086015160e087015160409390931b67ffffffffffffffff60401b166001600160401b0394851617941b67ffffffffffffffff60801b1693909317921b6001600160c01b03191691909117600483015561010083015180519182116109f4576105226005840154612437565b601f8111610ce6575b50602090601f8311600114610c7457600a93929160009183610c69575b50508160011b916000199060031b1c19161760058201555b6105806101208401511515600683019060ff801983541691151516179055565b610140830151600782015561016083015160088201556101808301516009820155016105bf6101a08301511515829060ff801983541691151516179055565b6101c0820151815461ff00191690151560081b61ff00161781556101e0820151815462010000600160b01b03191660109190911b62010000600160b01b03161790553360009081526005602052604090208054600160401b8110156109f45761062d9160018201815561241b565b610c5357815181546001600160a01b0319166001600160a01b03919091161781556020820151805160018301916001600160401b0382116109f45781906106748454612437565b601f8111610c00575b50602090601f8311600114610b9b57600092610b90575b50508160011b916000199060031b1c19161790555b6002810160408301518051906001600160401b0382116109f45781906106cf8454612437565b601f8111610b3d575b50602090601f8311600114610ad857600092610acd575b50508160011b916000199060031b1c19161790555b6003810160608301518051906001600160401b0382116109f457819061072a8454612437565b601f8111610a7a575b50602090601f8311600114610a1557600092610a0a575b50508160011b916000199060031b1c19161790555b60808281015160a084015160c08086015160e087015160409390931b67ffffffffffffffff60401b166001600160401b0394851617941b67ffffffffffffffff60801b1693909317921b6001600160c01b0319169190911760048301556101008301518051600584019290919082116109f4576107dc8354612437565b601f81116109ac575b50602090601f831160011461093e579180600a94926101e09694600092610933575b50508160011b916000199060031b1c19161790555b61083c6101208501511515600683019060ff801983541691151516179055565b610140840151600782015561016084015160088201556101808401516009820155019161087c6101a08201511515849060ff801983541691151516179055565b6101c0810151835461ff00191690151560081b61ff00161783550151815462010000600160b01b03191660109190911b62010000600160b01b031617905560035460001981019190821161091d577ffc695dea2478fb938a11068aeedddd7046a5fe655f136e30a325d353fe187a459083604051916020835281602084015260408301376000604085830101526040813395601f80199101168101030190a3005b634e487b7160e01b600052601160045260246000fd5b015190503880610807565b90601f1983169184600052816000209260005b81811061099457509260019285926101e09896600a98961061097b575b505050811b01905561081c565b015160001960f88460031b161c1916905538808061096e565b92936020600181928786015181550195019301610951565b836000526020600020601f840160051c810191602085106109ea575b601f0160051c01905b8181106109de57506107e5565b600081556001016109d1565b90915081906109c8565b634e487b7160e01b600052604160045260246000fd5b01519050388061074a565b60008581528281209350601f198516905b818110610a625750908460019594939210610a49575b505050811b01905561075f565b015160001960f88460031b161c19169055388080610a3c565b92936020600181928786015181550195019301610a26565b909150836000526020600020601f840160051c81019160208510610ac3575b90601f859493920160051c01905b818110610ab45750610733565b60008155849350600101610aa7565b9091508190610a99565b0151905038806106ef565b60008581528281209350601f198516905b818110610b255750908460019594939210610b0c575b505050811b019055610704565b015160001960f88460031b161c19169055388080610aff565b92936020600181928786015181550195019301610ae9565b909150836000526020600020601f840160051c81019160208510610b86575b90601f859493920160051c01905b818110610b7757506106d8565b60008155849350600101610b6a565b9091508190610b5c565b015190503880610694565b60008581528281209350601f198516905b818110610be85750908460019594939210610bcf575b505050811b0190556106a9565b015160001960f88460031b161c19169055388080610bc2565b92936020600181928786015181550195019301610bac565b909150836000526020600020601f840160051c81019160208510610c49575b90601f859493920160051c01905b818110610c3a575061067d565b60008155849350600101610c2d565b9091508190610c1f565b634e487b7160e01b600052600060045260246000fd5b015190503880610548565b9060058401600052806000209160005b601f1985168110610cce5750918391600193600a9695601f19811610610cb5575b505050811b016005820155610560565b015160001960f88460031b161c19169055388080610ca5565b91926020600181928685015181550194019201610c84565b600584016000526020600020601f840160051c810160208510610d26575b601f830160051c82018110610d1a57505061052b565b60008155600101610d04565b5080610d04565b015190503880610491565b92506003840160005280600020906000935b601f1984168510610d8e576001945083601f19811610610d75575b505050811b0160038201556104a9565b015160001960f88460031b161c19169055388080610d65565b81810151835560209485019460019093019290910190610d4a565b909150600384016000526020600020601f840160051c810160208510610df5575b90849392915b601f830160051c82018110610de657505061047a565b60008155859450600101610dd0565b5080610dca565b015190503880610434565b92506002840160005280600020906000935b601f1984168510610e5d576001945083601f19811610610e44575b505050811b01600282015561044c565b015160001960f88460031b161c19169055388080610e34565b81810151835560209485019460019093019290910190610e19565b909150600284016000526020600020601f840160051c810160208510610ec4575b90849392915b601f830160051c82018110610eb557505061041d565b60008155859450600101610e9f565b5080610e99565b0151905038806103d7565b92506001840160005280600020906000935b601f1984168510610f2c576001945083601f19811610610f13575b505050811b0160018201556103ef565b015160001960f88460031b161c19169055388080610f03565b81810151835560209485019460019093019290910190610ee8565b909150600184016000526020600020601f840160051c810160208510610f93575b90849392915b601f830160051c82018110610f845750506103c0565b60008155859450600101610f6e565b5080610f68565b60405162461bcd60e51b81526020600482015260116024820152702ab739bab83837b93a32b2103a37b5b2b760791b6044820152606490fd5b60405162461bcd60e51b8152602060048201526012602482015271111d5c985d1a5bdb881d1bdbc81cda1bdc9d60721b6044820152606490fd5b60405162461bcd60e51b815260206004820152601960248201527f53746172742064617465206d75737420626520667574757265000000000000006044820152606490fd5b60405162461bcd60e51b815260206004820152600d60248201526c24b73b30b634b2103a37b5b2b760991b6044820152606490fd5b60405162461bcd60e51b815260206004820152600d60248201526c496e76616c696420707269636560981b6044820152606490fd5b5069d3c21bcecceda10000008a1115610275565b60405162461bcd60e51b815260206004820152601060248201526f24b73b30b634b2103637b1b0ba34b7b760811b6044820152606490fd5b506096881115610267565b60405162461bcd60e51b815260206004820152600f60248201526e496e76616c69642064657461696c7360881b6044820152606490fd5b506103e8821115610259565b60405162461bcd60e51b815260206004820152600b60248201526a125b9d985b1a590815549360aa1b6044820152606490fd5b5060c88c111561024b565b60405162461bcd60e51b815260206004820152600c60248201526b496e76616c6964206e616d6560a01b6044820152606490fd5b6064915011158e61023c565b600080fd5b346111d45760203660031901126111d4576004356111fa6003548210612b67565b60005260046020526112266112126040600020612bd6565b60405191829160208352602083019061276e565b0390f35b346111d45760003660031901126111d4576003546000805b828110611302575061125c611256826127fe565b916128a8565b916000805b82811061127a5750505061122660405192839283612705565b611283816123e6565b50546001600160a01b03163314806112eb575b6112a3575b600101611261565b906112e381836112b5600194886128f8565b526112c86112c2856123e6565b5061290c565b6112d282896128f8565b526112dd81886128f8565b506127d8565b91905061129b565b5060ff60066112f9836123e6565b50015416611296565b61130b816123e6565b50546001600160a01b031633148061133f575b61132b575b600101611242565b906113376001916127d8565b919050611323565b5060ff600661134d836123e6565b5001541661131e565b346111d45760003660031901126111d457602060405160c88152f35b346111d45760003660031901126111d4576003546000805b8281106113f4575061139e611256826127fe565b916000805b8281106113bc5750505061122660405192839283612705565b60ff60066113c9836123e6565b500154166113da575b6001016113a3565b906113ec81836112b5600194886128f8565b9190506113d2565b60ff6006611401836123e6565b50015416611412575b60010161138a565b9061141e6001916127d8565b91905061140a565b346111d45760203660031901126111d457600435611442612830565b506003548110156114dc578061122661145d6114c0936123e6565b508260005260046020526114756040600020936123e6565b5060018060a01b0390541660005260056020526114ce6114ab6114a561149f60406000209461290c565b95612bd6565b92612a14565b91604051958695606087526060870190612593565b90858203602087015261276e565b9083820360408501526126ac565b60405162461bcd60e51b8152602060048201526014602482015273115d995b9d08191bd95cc81b9bdd08195e1a5cdd60621b6044820152606490fd5b346111d45760003660031901126111d457602060405169d3c21bcecceda10000008152f35b346111d45760003660031901126111d457602060405160968152f35b346111d45760203660031901126111d457600435611575612c70565b6115826003548210612aab565b6115a061158e826123e6565b50546001600160a01b03161515612ae7565b6115af60ff6002541615612b29565b600081815260066020908152604080832033845290915290205460ff16156118ae5760086115dc826123e6565b50015460076115ea836123e6565b500154116118745760ff600a6115ff836123e6565b500154161561180f575b6007611614826123e6565b50015460008281526006602090815260408083203384529091529020805460ff19169055906008611644826123e6565b500180549083820391821161091d575580600052600460205260406000209060005b8254808210156118065761167a8285612bbe565b905460039190911b1c6001600160a01b0316331461169b5750600101611666565b91929160001981019190821161091d576116d46116bb6116f89385612bbe565b905460039190911b1c6001600160a01b03169184612bbe565b81546001600160a01b0393841660039290921b91821b9390911b1916919091179055565b805480156117f057600019019061170f8282612bbe565b81549060018060a01b039060031b1b19169055555b61172d816123e6565b50600a015460405163a9059cbb60e01b81523360048201526024810184905290602090829060101c6001600160a01b0316816000816044810103925af180156117e457611782916000916117b5575b50612c92565b6040519182527f7a482fdeb6bc9a1376f597068a214a7a39472bb2eff1b8cad21ba04f49ddca1b60203393a36001600055005b6117d7915060203d6020116117dd575b6117cf818361248d565b810190612ba6565b8461177c565b503d6117c5565b6040513d6000823e3d90fd5b634e487b7160e01b600052603160045260246000fd5b50509050611724565b6001600160401b036004611822836123e6565b5001541661464f19810190811161091d5742106116095760405162461bcd60e51b81526020600482015260136024820152721499599d5b99081c195c9a5bd908195b991959606a1b6044820152606490fd5b60405162461bcd60e51b8152602060048201526012602482015271496e73756666696369656e742066756e647360701b6044820152606490fd5b60405162461bcd60e51b8152602060048201526013602482015272139bc81d1a58dad95d081c1d5c98da185cd959606a1b6044820152606490fd5b346111d45760003660031901126111d457602060405160648152f35b346111d45760003660031901126111d45760206040516146508152f35b346111d45760203660031901126111d4576001600160a01b03611943612758565b166000526001602052602060ff604060002054166040519015158152f35b346111d45760203660031901126111d45760043561197d612c70565b61198a6003548210612aab565b61199661158e826123e6565b6119a560ff6002541615612b29565b6119ae816123e6565b50906001600160401b03600483015416421015611c9e5760ff60068301541615611c6857600081815260066020908152604080832033845290915290205460ff16611c2f578060005260046020526113886040600020541015611bf657600782015491600a81019060018060a01b03825460101c16604051636eb1769f60e11b8152336004820152306024820152602081604481855afa80156117e4578691600091611bc1575b5010611b835760206000916064604051809481936323b872dd60e01b83523360048401523060248401528a60448401525af180156117e457611a9e91600091611b645750612c92565b60008381526006602090815260408083203384528252808320805460ff19166001179055858352600490915290208054909190600160401b8110156109f457611af2816008946001611b1094018155612bbe565b81546001600160a01b0360039290921b91821b19163390911b179055565b0180549084820180921161091d575560018060a01b03905460101c1660405192835260208301527f504ef6dabca28c1452704d54bd8e25708d87e0c27d852eceea53a0c0d898675860403393a36001600055005b611b7d915060203d6020116117dd576117cf818361248d565b8661177c565b60405162461bcd60e51b8152602060048201526016602482015275496e73756666696369656e7420616c6c6f77616e636560501b6044820152606490fd5b9150506020813d602011611bee575b81611bdd6020938361248d565b810103126111d45785905187611a55565b3d9150611bd0565b60405162461bcd60e51b81526020600482015260116024820152704576656e7420617420636170616369747960781b6044820152606490fd5b60405162461bcd60e51b8152602060048201526011602482015270105b1c9958591e481c1d5c98da185cd959607a1b6044820152606490fd5b60405162461bcd60e51b815260206004820152600e60248201526d4576656e7420696e61637469766560901b6044820152606490fd5b60405162461bcd60e51b815260206004820152600d60248201526c115d995b9d08195e1c1a5c9959609a1b6044820152606490fd5b346111d45760003660031901126111d45760206040516113888152f35b346111d45760003660031901126111d4576020600354604051908152f35b346111d45760003660031901126111d457602060ff600254166040519015158152f35b346111d45760003660031901126111d45760206040516103e88152f35b346111d45760203660031901126111d457600435611d80611d6e826123e6565b50546001600160a01b03163314612a6d565b611d88612c70565b611d956003548210612b67565b6001600160401b036004611da8836123e6565b50015460401c16421115611f985760ff600a611dc3836123e6565b50015416611f415760ff600a611dd8836123e6565b50015460081c16611f03576008611dee826123e6565b50015460006008611dfe846123e6565b500155600a611e0c836123e6565b5001805461ff001916610100179055611e24826123e6565b50600a015460405163a9059cbb60e01b81523360048201526024810183905290602090829060101c6001600160a01b0316816000816044810103925af19081156117e457600091611ee4575b5015611ea85760207f80230996023d69b50793fa73f1919127c9d8e741d3989743c479169f22e7a28891604051908152a26001600055005b60405162461bcd60e51b8152602060048201526014602482015273119d5b99081d1c985b9cd9995c8819985a5b195960621b6044820152606490fd5b611efd915060203d6020116117dd576117cf818361248d565b83611e70565b60405162461bcd60e51b8152602060048201526016602482015275119d5b991cc8185b1c9958591e481c995b19585cd95960521b6044820152606490fd5b60405162461bcd60e51b815260206004820152602960248201527f43616e6e6f742072656c656173652066756e647320666f7220612063616e63656044820152681b195908195d995b9d60ba1b6064820152608490fd5b60405162461bcd60e51b815260206004820152601760248201527f4576656e7420686173206e6f7420656e646564207965740000000000000000006044820152606490fd5b346111d45760403660031901126111d4576024356001600160a01b03811681036111d457600435600052600660205260406000209060018060a01b0316600052602052602060ff604060002054166040519015158152f35b346111d45760203660031901126111d457600435612055611d6e826123e6565b6120626003548210612aab565b61206e61158e826123e6565b61207d60ff6002541615612b29565b60ff600661208a836123e6565b50015416156120e757600661209e826123e6565b5001805460ff19169055600a6120b3826123e6565b5001805460ff191660011790557fceaf11772900fe569752a0207c8639fb8228eb8663456dc9eaa3a08f927a8705600080a2005b60405162461bcd60e51b815260206004820152601060248201526f105b1c9958591e4818d85b98d95b195960821b6044820152606490fd5b346111d45760203660031901126111d4576001600160a01b03612140612758565b1660005260056020526112266121596040600020612a14565b6040519182916020835260208301906126ac565b346111d45760003660031901126111d4576020604051610e108152f35b346111d45760003660031901126111d4576003543390600090815b81811061224157506121bf6121b9836127fe565b926128a8565b92600090815b8381106121db5760405180611226888883612705565b80600052600660205260ff604080600020600090858252602052205416612205575b6001016121c5565b916122398184612217600194896128f8565b526122246112c2866123e6565b61222e828a6128f8565b526112dd81896128f8565b9290506121fd565b80600052600660205260ff60408060002060009087825260205220541661226b575b6001016121a5565b916122776001916127d8565b929050612263565b346111d45760203660031901126111d4576004356003548110156111d4576122a6906123e6565b5080546001600160a01b03166122be600183016124ae565b916122cb600282016124ae565b6122d7600383016124ae565b600483015492906122ea600583016124ae565b93600683015460ff1694600784015491600885015493600986015495600a0154966040519a8b9a8b5260208b0161020090526102008b0161232a91612552565b8a810360408c015261233b91612552565b89810360608b015261234c91612552565b906001600160401b03811660808a01528060401c6001600160401b031660a08a01528060801c6001600160401b031660c08a015260c01c60e089015287810361010089015261239a91612552565b94151561012087015261014086015261016085015261018084015260ff81811615156101a0850152600882901c1615156101c084015260101c6001600160a01b03166101e08301520390f35b600354811015612405576003600052600b602060002091020190600090565b634e487b7160e01b600052603260045260246000fd5b805482101561240557600052600b602060002091020190600090565b90600182811c92168015612467575b602083101461245157565b634e487b7160e01b600052602260045260246000fd5b91607f1691612446565b61020081019081106001600160401b038211176109f457604052565b90601f801991011681019081106001600160401b038211176109f457604052565b90604051918260008254926124c284612437565b808452936001811690811561253057506001146124e9575b506124e79250038361248d565b565b90506000929192526020600020906000915b8183106125145750509060206124e792820101386124da565b60209193508060019154838589010152019101909184926124fb565b9050602092506124e794915060ff191682840152151560051b820101386124da565b919082519283825260005b84811061257e575050826000602080949584010152601f8019910116010190565b8060208092840101518282860101520161255d565b9060018060a01b0382511681526101e061264b6125eb6125d96125c760208701516102006020880152610200870190612552565b60408701518682036040880152612552565b60608601518582036060870152612552565b6001600160401b0360808601511660808501526001600160401b0360a08601511660a08501526001600160401b0360c08601511660c08501526001600160401b0360e08601511660e0850152610100850151848203610100860152612552565b9261012081015115156101208401526101408101516101408401526101608101516101608401526101808101516101808401526101a081015115156101a08401526101c081015115156101c08401528160018060a01b039101511691015290565b9080602083519182815201916020808360051b8301019401926000915b8383106126d857505050505090565b90919293946020806126f6600193601f198682030187528951612593565b970193019301919392906126c9565b9291604084019360408152825180955260206060820193016000955b80871061274057505061273d93945060208184039101526126ac565b90565b90936020806001928751815201950196019590612721565b600435906001600160a01b03821682036111d457565b906020808351928381520192019060005b81811061278c5750505090565b82516001600160a01b031684526020938401939092019160010161277f565b9181601f840112156111d4578235916001600160401b0383116111d457602083818601950101116111d457565b600019811461091d5760010190565b6001600160401b0381116109f45760051b60200190565b90612808826127e7565b612815604051918261248d565b8281528092612826601f19916127e7565b0190602036910137565b6040519061283d82612471565b60006101e08382815260606020820152606060408201526060808201528260808201528260a08201528260c08201528260e0820152606061010082015282610120820152826101408201528261016082015282610180820152826101a0820152826101c08201520152565b906128b2826127e7565b6128bf604051918261248d565b82815280926128d0601f19916127e7565b019060005b8281106128e157505050565b6020906128ec612830565b828285010152016128d5565b80518210156124055760209160051b010190565b9060405161291981612471565b82546001600160a01b031681529182906101e090600a9061293c600182016124ae565b602085015261294d600282016124ae565b604085015261295e600382016124ae565b606085015260048101546001600160401b03811660808601526001600160401b038160401c1660a08601526001600160401b038160801c1660c086015260c01c60e08501526129af600582016124ae565b61010085015260ff6006820154161515610120850152600781015461014085015260088101546101608501526009810154610180850152015460ff811615156101a084015260ff8160081c1615156101c084015260018060a01b039060101c16910152565b908154612a20816127e7565b92612a2e604051948561248d565b818452602084019060005260206000206000915b838310612a4f5750505050565b600b6020600192612a5f8561290c565b815201920192019190612a42565b15612a7457565b60405162461bcd60e51b815260206004820152600f60248201526e2737ba1032bb32b73a1037bbb732b960891b6044820152606490fd5b15612ab257565b60405162461bcd60e51b815260206004820152600d60248201526c125b9d985b1a5908195d995b9d609a1b6044820152606490fd5b15612aee57565b60405162461bcd60e51b8152602060048201526013602482015272115d995b9d08191bd95cdb89dd08195e1a5cdd606a1b6044820152606490fd5b15612b3057565b60405162461bcd60e51b815260206004820152600f60248201526e10dbdb9d1c9858dd081c185d5cd959608a1b6044820152606490fd5b15612b6e57565b60405162461bcd60e51b815260206004820152601060248201526f125b9d985b1a5908195d995b9d08125160821b6044820152606490fd5b908160209103126111d4575180151581036111d45790565b80548210156124055760005260206000200190600090565b906040519182815491828252602082019060005260206000209260005b818110612c085750506124e79250038361248d565b84546001600160a01b0316835260019485019487945060209093019201612bf3565b9291926001600160401b0382116109f45760405191612c53601f8201601f19166020018461248d565b8294818452818301116111d4578281602093846000960137010152565b600260005414612c81576002600055565b633ee5aeb560e01b60005260046000fd5b15612c9957565b60405162461bcd60e51b815260206004820152600f60248201526e151c985b9cd9995c8819985a5b1959608a1b6044820152606490fdfea2646970667358221220aab1785a95770088a02702303e7ac60d1033cd6d15cca21bf2df4e2ecd2bec6764736f6c634300081c0033",
    "linkReferences": {},
    "deployedLinkReferences": {}
}