{
    "_format": "hh-sol-artifact-1",
    "contractName": "CeAffairs",
    "sourceName": "contracts/CeAffairs.sol",
    "abi": [
        {
            "inputs": [
                {
                    "internalType": "uint256",
                    "name": "_index",
                    "type": "uint256"
                }
            ],
            "name": "addEventAttendees",
            "outputs": [],
            "stateMutability": "nonpayable",
            "type": "function"
        },
        {
            "inputs": [
                {
                    "internalType": "string",
                    "name": "_eventName",
                    "type": "string"
                },
                {
                    "internalType": "string",
                    "name": "_eventCardImgUrl",
                    "type": "string"
                },
                {
                    "internalType": "string",
                    "name": "_eventDetails",
                    "type": "string"
                },
                {
                    "internalType": "uint64",
                    "name": "_eventDate",
                    "type": "uint64"
                },
                {
                    "internalType": "uint64",
                    "name": "_startTime",
                    "type": "uint64"
                },
                {
                    "internalType": "uint64",
                    "name": "_endTime",
                    "type": "uint64"
                },
                {
                    "internalType": "string",
                    "name": "_eventLocation",
                    "type": "string"
                }
            ],
            "name": "createEvent",
            "outputs": [],
            "stateMutability": "nonpayable",
            "type": "function"
        },
        {
            "inputs": [
                {
                    "internalType": "uint256",
                    "name": "_index",
                    "type": "uint256"
                }
            ],
            "name": "deleteEventById",
            "outputs": [],
            "stateMutability": "nonpayable",
            "type": "function"
        },
        {
            "inputs": [
                {
                    "internalType": "uint256",
                    "name": "",
                    "type": "uint256"
                }
            ],
            "name": "events",
            "outputs": [
                {
                    "internalType": "address",
                    "name": "owner",
                    "type": "address"
                },
                {
                    "internalType": "string",
                    "name": "eventName",
                    "type": "string"
                },
                {
                    "internalType": "string",
                    "name": "eventCardImgUrl",
                    "type": "string"
                },
                {
                    "internalType": "string",
                    "name": "eventDetails",
                    "type": "string"
                },
                {
                    "internalType": "uint64",
                    "name": "eventDate",
                    "type": "uint64"
                },
                {
                    "internalType": "uint64",
                    "name": "startTime",
                    "type": "uint64"
                },
                {
                    "internalType": "uint64",
                    "name": "endTime",
                    "type": "uint64"
                },
                {
                    "internalType": "string",
                    "name": "eventLocation",
                    "type": "string"
                },
                {
                    "internalType": "bool",
                    "name": "isActive",
                    "type": "bool"
                }
            ],
            "stateMutability": "view",
            "type": "function"
        },
        {
            "inputs": [],
            "name": "getAllEvents",
            "outputs": [
                {
                    "internalType": "uint256[]",
                    "name": "",
                    "type": "uint256[]"
                },
                {
                    "components": [
                        {
                            "internalType": "address",
                            "name": "owner",
                            "type": "address"
                        },
                        {
                            "internalType": "string",
                            "name": "eventName",
                            "type": "string"
                        },
                        {
                            "internalType": "string",
                            "name": "eventCardImgUrl",
                            "type": "string"
                        },
                        {
                            "internalType": "string",
                            "name": "eventDetails",
                            "type": "string"
                        },
                        {
                            "internalType": "uint64",
                            "name": "eventDate",
                            "type": "uint64"
                        },
                        {
                            "internalType": "uint64",
                            "name": "startTime",
                            "type": "uint64"
                        },
                        {
                            "internalType": "uint64",
                            "name": "endTime",
                            "type": "uint64"
                        },
                        {
                            "internalType": "string",
                            "name": "eventLocation",
                            "type": "string"
                        },
                        {
                            "internalType": "bool",
                            "name": "isActive",
                            "type": "bool"
                        }
                    ],
                    "internalType": "struct CeAffairs.Event[]",
                    "name": "",
                    "type": "tuple[]"
                }
            ],
            "stateMutability": "view",
            "type": "function"
        },
        {
            "inputs": [
                {
                    "internalType": "uint256",
                    "name": "_index",
                    "type": "uint256"
                }
            ],
            "name": "getAttendees",
            "outputs": [
                {
                    "internalType": "address[]",
                    "name": "",
                    "type": "address[]"
                }
            ],
            "stateMutability": "view",
            "type": "function"
        },
        {
            "inputs": [
                {
                    "internalType": "uint256",
                    "name": "_index",
                    "type": "uint256"
                }
            ],
            "name": "getEventById",
            "outputs": [
                {
                    "components": [
                        {
                            "internalType": "address",
                            "name": "owner",
                            "type": "address"
                        },
                        {
                            "internalType": "string",
                            "name": "eventName",
                            "type": "string"
                        },
                        {
                            "internalType": "string",
                            "name": "eventCardImgUrl",
                            "type": "string"
                        },
                        {
                            "internalType": "string",
                            "name": "eventDetails",
                            "type": "string"
                        },
                        {
                            "internalType": "uint64",
                            "name": "eventDate",
                            "type": "uint64"
                        },
                        {
                            "internalType": "uint64",
                            "name": "startTime",
                            "type": "uint64"
                        },
                        {
                            "internalType": "uint64",
                            "name": "endTime",
                            "type": "uint64"
                        },
                        {
                            "internalType": "string",
                            "name": "eventLocation",
                            "type": "string"
                        },
                        {
                            "internalType": "bool",
                            "name": "isActive",
                            "type": "bool"
                        }
                    ],
                    "internalType": "struct CeAffairs.Event",
                    "name": "eventDetails",
                    "type": "tuple"
                },
                {
                    "internalType": "address[]",
                    "name": "attendees",
                    "type": "address[]"
                },
                {
                    "components": [
                        {
                            "internalType": "address",
                            "name": "owner",
                            "type": "address"
                        },
                        {
                            "internalType": "string",
                            "name": "eventName",
                            "type": "string"
                        },
                        {
                            "internalType": "string",
                            "name": "eventCardImgUrl",
                            "type": "string"
                        },
                        {
                            "internalType": "string",
                            "name": "eventDetails",
                            "type": "string"
                        },
                        {
                            "internalType": "uint64",
                            "name": "eventDate",
                            "type": "uint64"
                        },
                        {
                            "internalType": "uint64",
                            "name": "startTime",
                            "type": "uint64"
                        },
                        {
                            "internalType": "uint64",
                            "name": "endTime",
                            "type": "uint64"
                        },
                        {
                            "internalType": "string",
                            "name": "eventLocation",
                            "type": "string"
                        },
                        {
                            "internalType": "bool",
                            "name": "isActive",
                            "type": "bool"
                        }
                    ],
                    "internalType": "struct CeAffairs.Event[]",
                    "name": "createdEvents",
                    "type": "tuple[]"
                }
            ],
            "stateMutability": "view",
            "type": "function"
        },
        {
            "inputs": [],
            "name": "getEventLength",
            "outputs": [
                {
                    "internalType": "uint256",
                    "name": "",
                    "type": "uint256"
                }
            ],
            "stateMutability": "view",
            "type": "function"
        },
        {
            "inputs": [
                {
                    "internalType": "address",
                    "name": "_creator",
                    "type": "address"
                }
            ],
            "name": "getEventsByCreator",
            "outputs": [
                {
                    "components": [
                        {
                            "internalType": "address",
                            "name": "owner",
                            "type": "address"
                        },
                        {
                            "internalType": "string",
                            "name": "eventName",
                            "type": "string"
                        },
                        {
                            "internalType": "string",
                            "name": "eventCardImgUrl",
                            "type": "string"
                        },
                        {
                            "internalType": "string",
                            "name": "eventDetails",
                            "type": "string"
                        },
                        {
                            "internalType": "uint64",
                            "name": "eventDate",
                            "type": "uint64"
                        },
                        {
                            "internalType": "uint64",
                            "name": "startTime",
                            "type": "uint64"
                        },
                        {
                            "internalType": "uint64",
                            "name": "endTime",
                            "type": "uint64"
                        },
                        {
                            "internalType": "string",
                            "name": "eventLocation",
                            "type": "string"
                        },
                        {
                            "internalType": "bool",
                            "name": "isActive",
                            "type": "bool"
                        }
                    ],
                    "internalType": "struct CeAffairs.Event[]",
                    "name": "",
                    "type": "tuple[]"
                }
            ],
            "stateMutability": "view",
            "type": "function"
        }
    ],
    "bytecode": "0x6080604052348015600f57600080fd5b5061301e8061001f6000396000f3fe608060405234801561001057600080fd5b50600436106100935760003560e01c80636c77cff7116100665780636c77cff71461013a578063b98079bc14610156578063c27a500d14610188578063d6f159cf146101a7578063e0c14377146101c357610093565b80630b7914301461009857806320020581146100d057806342499a38146101005780635c98dfa11461011c575b600080fd5b6100b260048036038101906100ad9190611fe0565b6101f3565b6040516100c79998979695949392919061211c565b60405180910390f35b6100ea60048036038101906100e591906121f1565b6104da565b6040516100f79190612431565b60405180910390f35b61011a60048036038101906101159190611fe0565b6108c8565b005b610124610b4b565b6040516101319190612462565b60405180910390f35b610154600480360381019061014f9190611fe0565b610b57565b005b610170600480360381019061016b9190611fe0565b610c91565b60405161017f93929190612606565b60405180910390f35b610190611537565b60405161019e929190612710565b60405180910390f35b6101c160048036038101906101bc91906128a8565b611a74565b005b6101dd60048036038101906101d89190611fe0565b611e2c565b6040516101ea91906129ba565b60405180910390f35b6000818154811061020357600080fd5b90600052602060002090600702016000915090508060000160009054906101000a900473ffffffffffffffffffffffffffffffffffffffff169080600101805461024c90612a0b565b80601f016020809104026020016040519081016040528092919081815260200182805461027890612a0b565b80156102c55780601f1061029a576101008083540402835291602001916102c5565b820191906000526020600020905b8154815290600101906020018083116102a857829003601f168201915b5050505050908060020180546102da90612a0b565b80601f016020809104026020016040519081016040528092919081815260200182805461030690612a0b565b80156103535780601f1061032857610100808354040283529160200191610353565b820191906000526020600020905b81548152906001019060200180831161033657829003601f168201915b50505050509080600301805461036890612a0b565b80601f016020809104026020016040519081016040528092919081815260200182805461039490612a0b565b80156103e15780601f106103b6576101008083540402835291602001916103e1565b820191906000526020600020905b8154815290600101906020018083116103c457829003601f168201915b5050505050908060040160009054906101000a900467ffffffffffffffff16908060040160089054906101000a900467ffffffffffffffff16908060040160109054906101000a900467ffffffffffffffff169080600501805461044490612a0b565b80601f016020809104026020016040519081016040528092919081815260200182805461047090612a0b565b80156104bd5780601f10610492576101008083540402835291602001916104bd565b820191906000526020600020905b8154815290600101906020018083116104a057829003601f168201915b5050505050908060060160009054906101000a900460ff16905089565b6060600260008373ffffffffffffffffffffffffffffffffffffffff1673ffffffffffffffffffffffffffffffffffffffff168152602001908152602001600020805480602002602001604051908101604052809291908181526020016000905b828210156108bd5783829060005260206000209060070201604051806101200160405290816000820160009054906101000a900473ffffffffffffffffffffffffffffffffffffffff1673ffffffffffffffffffffffffffffffffffffffff1673ffffffffffffffffffffffffffffffffffffffff1681526020016001820180546105c590612a0b565b80601f01602080910402602001604051908101604052809291908181526020018280546105f190612a0b565b801561063e5780601f106106135761010080835404028352916020019161063e565b820191906000526020600020905b81548152906001019060200180831161062157829003601f168201915b5050505050815260200160028201805461065790612a0b565b80601f016020809104026020016040519081016040528092919081815260200182805461068390612a0b565b80156106d05780601f106106a5576101008083540402835291602001916106d0565b820191906000526020600020905b8154815290600101906020018083116106b357829003601f168201915b505050505081526020016003820180546106e990612a0b565b80601f016020809104026020016040519081016040528092919081815260200182805461071590612a0b565b80156107625780601f1061073757610100808354040283529160200191610762565b820191906000526020600020905b81548152906001019060200180831161074557829003601f168201915b505050505081526020016004820160009054906101000a900467ffffffffffffffff1667ffffffffffffffff1667ffffffffffffffff1681526020016004820160089054906101000a900467ffffffffffffffff1667ffffffffffffffff1667ffffffffffffffff1681526020016004820160109054906101000a900467ffffffffffffffff1667ffffffffffffffff1667ffffffffffffffff16815260200160058201805461081190612a0b565b80601f016020809104026020016040519081016040528092919081815260200182805461083d90612a0b565b801561088a5780601f1061085f5761010080835404028352916020019161088a565b820191906000526020600020905b81548152906001019060200180831161086d57829003601f168201915b505050505081526020016006820160009054906101000a900460ff1615151515815250508152602001906001019061053b565b505050509050919050565b600080549050811061090f576040517f08c379a000000000000000000000000000000000000000000000000000000000815260040161090690612a88565b60405180910390fd5b426000828154811061092457610923612aa8565b5b906000526020600020906007020160040160009054906101000a900467ffffffffffffffff1667ffffffffffffffff1611610994576040517f08c379a000000000000000000000000000000000000000000000000000000000815260040161098b90612b23565b60405180910390fd5b600081815481106109a8576109a7612aa8565b5b906000526020600020906007020160060160009054906101000a900460ff16610a06576040517f08c379a00000000000000000000000000000000000000000000000000000000081526004016109fd90612b8f565b60405180910390fd5b600060016000838152602001908152602001600020905060005b8180549050811015610ae4573373ffffffffffffffffffffffffffffffffffffffff16828281548110610a5657610a55612aa8565b5b9060005260206000200160009054906101000a900473ffffffffffffffffffffffffffffffffffffffff1673ffffffffffffffffffffffffffffffffffffffff1603610ad7576040517f08c379a0000000000000000000000000000000000000000000000000000000008152600401610ace90612bfb565b60405180910390fd5b8080600101915050610a20565b5080339080600181540180825580915050600190039060005260206000200160009091909190916101000a81548173ffffffffffffffffffffffffffffffffffffffff021916908373ffffffffffffffffffffffffffffffffffffffff1602179055505050565b60008080549050905090565b6000805490508110610b9e576040517f08c379a0000000000000000000000000000000000000000000000000000000008152600401610b9590612a88565b60405180910390fd5b60008181548110610bb257610bb1612aa8565b5b906000526020600020906007020160000160009054906101000a900473ffffffffffffffffffffffffffffffffffffffff1673ffffffffffffffffffffffffffffffffffffffff163373ffffffffffffffffffffffffffffffffffffffff1614610c51576040517f08c379a0000000000000000000000000000000000000000000000000000000008152600401610c4890612c67565b60405180910390fd5b6000808281548110610c6657610c65612aa8565b5b906000526020600020906007020160060160006101000a81548160ff02191690831515021790555050565b610c99611f14565b6060806000805490508410610ce3576040517f08c379a0000000000000000000000000000000000000000000000000000000008152600401610cda90612cd3565b60405180910390fd5b60008481548110610cf757610cf6612aa8565b5b90600052602060002090600702016001600086815260200190815260200160002060026000808881548110610d2f57610d2e612aa8565b5b906000526020600020906007020160000160009054906101000a900473ffffffffffffffffffffffffffffffffffffffff1673ffffffffffffffffffffffffffffffffffffffff1673ffffffffffffffffffffffffffffffffffffffff16815260200190815260200160002082604051806101200160405290816000820160009054906101000a900473ffffffffffffffffffffffffffffffffffffffff1673ffffffffffffffffffffffffffffffffffffffff1673ffffffffffffffffffffffffffffffffffffffff168152602001600182018054610e0e90612a0b565b80601f0160208091040260200160405190810160405280929190818152602001828054610e3a90612a0b565b8015610e875780601f10610e5c57610100808354040283529160200191610e87565b820191906000526020600020905b815481529060010190602001808311610e6a57829003601f168201915b50505050508152602001600282018054610ea090612a0b565b80601f0160208091040260200160405190810160405280929190818152602001828054610ecc90612a0b565b8015610f195780601f10610eee57610100808354040283529160200191610f19565b820191906000526020600020905b815481529060010190602001808311610efc57829003601f168201915b50505050508152602001600382018054610f3290612a0b565b80601f0160208091040260200160405190810160405280929190818152602001828054610f5e90612a0b565b8015610fab5780601f10610f8057610100808354040283529160200191610fab565b820191906000526020600020905b815481529060010190602001808311610f8e57829003601f168201915b505050505081526020016004820160009054906101000a900467ffffffffffffffff1667ffffffffffffffff1667ffffffffffffffff1681526020016004820160089054906101000a900467ffffffffffffffff1667ffffffffffffffff1667ffffffffffffffff1681526020016004820160109054906101000a900467ffffffffffffffff1667ffffffffffffffff1667ffffffffffffffff16815260200160058201805461105a90612a0b565b80601f016020809104026020016040519081016040528092919081815260200182805461108690612a0b565b80156110d35780601f106110a8576101008083540402835291602001916110d3565b820191906000526020600020905b8154815290600101906020018083116110b657829003601f168201915b505050505081526020016006820160009054906101000a900460ff16151515158152505092508180548060200260200160405190810160405280929190818152602001828054801561117a57602002820191906000526020600020905b8160009054906101000a900473ffffffffffffffffffffffffffffffffffffffff1673ffffffffffffffffffffffffffffffffffffffff1681526020019060010190808311611130575b5050505050915080805480602002602001604051908101604052809291908181526020016000905b828210156115245783829060005260206000209060070201604051806101200160405290816000820160009054906101000a900473ffffffffffffffffffffffffffffffffffffffff1673ffffffffffffffffffffffffffffffffffffffff1673ffffffffffffffffffffffffffffffffffffffff16815260200160018201805461122c90612a0b565b80601f016020809104026020016040519081016040528092919081815260200182805461125890612a0b565b80156112a55780601f1061127a576101008083540402835291602001916112a5565b820191906000526020600020905b81548152906001019060200180831161128857829003601f168201915b505050505081526020016002820180546112be90612a0b565b80601f01602080910402602001604051908101604052809291908181526020018280546112ea90612a0b565b80156113375780601f1061130c57610100808354040283529160200191611337565b820191906000526020600020905b81548152906001019060200180831161131a57829003601f168201915b5050505050815260200160038201805461135090612a0b565b80601f016020809104026020016040519081016040528092919081815260200182805461137c90612a0b565b80156113c95780601f1061139e576101008083540402835291602001916113c9565b820191906000526020600020905b8154815290600101906020018083116113ac57829003601f168201915b505050505081526020016004820160009054906101000a900467ffffffffffffffff1667ffffffffffffffff1667ffffffffffffffff1681526020016004820160089054906101000a900467ffffffffffffffff1667ffffffffffffffff1667ffffffffffffffff1681526020016004820160109054906101000a900467ffffffffffffffff1667ffffffffffffffff1667ffffffffffffffff16815260200160058201805461147890612a0b565b80601f01602080910402602001604051908101604052809291908181526020018280546114a490612a0b565b80156114f15780601f106114c6576101008083540402835291602001916114f1565b820191906000526020600020905b8154815290600101906020018083116114d457829003601f168201915b505050505081526020016006820160009054906101000a900460ff161515151581525050815260200190600101906111a2565b5050505090509250925092509193909250565b6060806000805b60008054905081101561159f576000818154811061155f5761155e612aa8565b5b906000526020600020906007020160060160009054906101000a900460ff161561159257818061158e90612d22565b9250505b808060010191505061153e565b5060008167ffffffffffffffff8111156115bc576115bb612751565b5b6040519080825280602002602001820160405280156115ea5781602001602082028036833780820191505090505b50905060008267ffffffffffffffff81111561160957611608612751565b5b60405190808252806020026020018201604052801561164257816020015b61162f611f14565b8152602001906001900390816116275790505b5090506000805b600080549050811015611a65576000818154811061166a57611669612aa8565b5b906000526020600020906007020160060160009054906101000a900460ff1615611a5857808483815181106116a2576116a1612aa8565b5b602002602001018181525050600081815481106116c2576116c1612aa8565b5b9060005260206000209060070201604051806101200160405290816000820160009054906101000a900473ffffffffffffffffffffffffffffffffffffffff1673ffffffffffffffffffffffffffffffffffffffff1673ffffffffffffffffffffffffffffffffffffffff16815260200160018201805461174290612a0b565b80601f016020809104026020016040519081016040528092919081815260200182805461176e90612a0b565b80156117bb5780601f10611790576101008083540402835291602001916117bb565b820191906000526020600020905b81548152906001019060200180831161179e57829003601f168201915b505050505081526020016002820180546117d490612a0b565b80601f016020809104026020016040519081016040528092919081815260200182805461180090612a0b565b801561184d5780601f106118225761010080835404028352916020019161184d565b820191906000526020600020905b81548152906001019060200180831161183057829003601f168201915b5050505050815260200160038201805461186690612a0b565b80601f016020809104026020016040519081016040528092919081815260200182805461189290612a0b565b80156118df5780601f106118b4576101008083540402835291602001916118df565b820191906000526020600020905b8154815290600101906020018083116118c257829003601f168201915b505050505081526020016004820160009054906101000a900467ffffffffffffffff1667ffffffffffffffff1667ffffffffffffffff1681526020016004820160089054906101000a900467ffffffffffffffff1667ffffffffffffffff1667ffffffffffffffff1681526020016004820160109054906101000a900467ffffffffffffffff1667ffffffffffffffff1667ffffffffffffffff16815260200160058201805461198e90612a0b565b80601f01602080910402602001604051908101604052809291908181526020018280546119ba90612a0b565b8015611a075780601f106119dc57610100808354040283529160200191611a07565b820191906000526020600020905b8154815290600101906020018083116119ea57829003601f168201915b505050505081526020016006820160009054906101000a900460ff161515151581525050838381518110611a3e57611a3d612aa8565b5b60200260200101819052508180611a5490612d22565b9250505b8080600101915050611649565b50828295509550505050509091565b60006040518061012001604052803373ffffffffffffffffffffffffffffffffffffffff1681526020018981526020018881526020018781526020018667ffffffffffffffff1681526020018567ffffffffffffffff1681526020018467ffffffffffffffff168152602001838152602001600115158152509050600081908060018154018082558091505060019003906000526020600020906007020160009091909190915060008201518160000160006101000a81548173ffffffffffffffffffffffffffffffffffffffff021916908373ffffffffffffffffffffffffffffffffffffffff1602179055506020820151816001019081611b779190612f16565b506040820151816002019081611b8d9190612f16565b506060820151816003019081611ba39190612f16565b5060808201518160040160006101000a81548167ffffffffffffffff021916908367ffffffffffffffff16021790555060a08201518160040160086101000a81548167ffffffffffffffff021916908367ffffffffffffffff16021790555060c08201518160040160106101000a81548167ffffffffffffffff021916908367ffffffffffffffff16021790555060e0820151816005019081611c469190612f16565b506101008201518160060160006101000a81548160ff0219169083151502179055505050600260003373ffffffffffffffffffffffffffffffffffffffff1673ffffffffffffffffffffffffffffffffffffffff16815260200190815260200160002081908060018154018082558091505060019003906000526020600020906007020160009091909190915060008201518160000160006101000a81548173ffffffffffffffffffffffffffffffffffffffff021916908373ffffffffffffffffffffffffffffffffffffffff1602179055506020820151816001019081611d2f9190612f16565b506040820151816002019081611d459190612f16565b506060820151816003019081611d5b9190612f16565b5060808201518160040160006101000a81548167ffffffffffffffff021916908367ffffffffffffffff16021790555060a08201518160040160086101000a81548167ffffffffffffffff021916908367ffffffffffffffff16021790555060c08201518160040160106101000a81548167ffffffffffffffff021916908367ffffffffffffffff16021790555060e0820151816005019081611dfe9190612f16565b506101008201518160060160006101000a81548160ff02191690831515021790555050505050505050505050565b60606000805490508210611e75576040517f08c379a0000000000000000000000000000000000000000000000000000000008152600401611e6c90612a88565b60405180910390fd5b60016000838152602001908152602001600020805480602002602001604051908101604052809291908181526020018280548015611f0857602002820191906000526020600020905b8160009054906101000a900473ffffffffffffffffffffffffffffffffffffffff1673ffffffffffffffffffffffffffffffffffffffff1681526020019060010190808311611ebe575b50505050509050919050565b604051806101200160405280600073ffffffffffffffffffffffffffffffffffffffff168152602001606081526020016060815260200160608152602001600067ffffffffffffffff168152602001600067ffffffffffffffff168152602001600067ffffffffffffffff168152602001606081526020016000151581525090565b6000604051905090565b600080fd5b600080fd5b6000819050919050565b611fbd81611faa565b8114611fc857600080fd5b50565b600081359050611fda81611fb4565b92915050565b600060208284031215611ff657611ff5611fa0565b5b600061200484828501611fcb565b91505092915050565b600073ffffffffffffffffffffffffffffffffffffffff82169050919050565b60006120388261200d565b9050919050565b6120488161202d565b82525050565b600081519050919050565b600082825260208201905092915050565b60005b8381101561208857808201518184015260208101905061206d565b60008484015250505050565b6000601f19601f8301169050919050565b60006120b08261204e565b6120ba8185612059565b93506120ca81856020860161206a565b6120d381612094565b840191505092915050565b600067ffffffffffffffff82169050919050565b6120fb816120de565b82525050565b60008115159050919050565b61211681612101565b82525050565b600061012082019050612132600083018c61203f565b8181036020830152612144818b6120a5565b90508181036040830152612158818a6120a5565b9050818103606083015261216c81896120a5565b905061217b60808301886120f2565b61218860a08301876120f2565b61219560c08301866120f2565b81810360e08301526121a781856120a5565b90506121b761010083018461210d565b9a9950505050505050505050565b6121ce8161202d565b81146121d957600080fd5b50565b6000813590506121eb816121c5565b92915050565b60006020828403121561220757612206611fa0565b5b6000612215848285016121dc565b91505092915050565b600081519050919050565b600082825260208201905092915050565b6000819050602082019050919050565b6122538161202d565b82525050565b600082825260208201905092915050565b60006122758261204e565b61227f8185612259565b935061228f81856020860161206a565b61229881612094565b840191505092915050565b6122ac816120de565b82525050565b6122bb81612101565b82525050565b6000610120830160008301516122da600086018261224a565b50602083015184820360208601526122f2828261226a565b9150506040830151848203604086015261230c828261226a565b91505060608301518482036060860152612326828261226a565b915050608083015161233b60808601826122a3565b5060a083015161234e60a08601826122a3565b5060c083015161236160c08601826122a3565b5060e083015184820360e0860152612379828261226a565b9150506101008301516123906101008601826122b2565b508091505092915050565b60006123a783836122c1565b905092915050565b6000602082019050919050565b60006123c78261221e565b6123d18185612229565b9350836020820285016123e38561223a565b8060005b8581101561241f5784840389528151612400858261239b565b945061240b836123af565b925060208a019950506001810190506123e7565b50829750879550505050505092915050565b6000602082019050818103600083015261244b81846123bc565b905092915050565b61245c81611faa565b82525050565b60006020820190506124776000830184612453565b92915050565b600061012083016000830151612496600086018261224a565b50602083015184820360208601526124ae828261226a565b915050604083015184820360408601526124c8828261226a565b915050606083015184820360608601526124e2828261226a565b91505060808301516124f760808601826122a3565b5060a083015161250a60a08601826122a3565b5060c083015161251d60c08601826122a3565b5060e083015184820360e0860152612535828261226a565b91505061010083015161254c6101008601826122b2565b508091505092915050565b600081519050919050565b600082825260208201905092915050565b6000819050602082019050919050565b600061258f838361224a565b60208301905092915050565b6000602082019050919050565b60006125b382612557565b6125bd8185612562565b93506125c883612573565b8060005b838110156125f95781516125e08882612583565b97506125eb8361259b565b9250506001810190506125cc565b5085935050505092915050565b60006060820190508181036000830152612620818661247d565b9050818103602083015261263481856125a8565b9050818103604083015261264881846123bc565b9050949350505050565b600081519050919050565b600082825260208201905092915050565b6000819050602082019050919050565b61268781611faa565b82525050565b6000612699838361267e565b60208301905092915050565b6000602082019050919050565b60006126bd82612652565b6126c7818561265d565b93506126d28361266e565b8060005b838110156127035781516126ea888261268d565b97506126f5836126a5565b9250506001810190506126d6565b5085935050505092915050565b6000604082019050818103600083015261272a81856126b2565b9050818103602083015261273e81846123bc565b90509392505050565b600080fd5b600080fd5b7f4e487b7100000000000000000000000000000000000000000000000000000000600052604160045260246000fd5b61278982612094565b810181811067ffffffffffffffff821117156127a8576127a7612751565b5b80604052505050565b60006127bb611f96565b90506127c78282612780565b919050565b600067ffffffffffffffff8211156127e7576127e6612751565b5b6127f082612094565b9050602081019050919050565b82818337600083830152505050565b600061281f61281a846127cc565b6127b1565b90508281526020810184848401111561283b5761283a61274c565b5b6128468482856127fd565b509392505050565b600082601f83011261286357612862612747565b5b813561287384826020860161280c565b91505092915050565b612885816120de565b811461289057600080fd5b50565b6000813590506128a28161287c565b92915050565b600080600080600080600060e0888a0312156128c7576128c6611fa0565b5b600088013567ffffffffffffffff8111156128e5576128e4611fa5565b5b6128f18a828b0161284e565b975050602088013567ffffffffffffffff81111561291257612911611fa5565b5b61291e8a828b0161284e565b965050604088013567ffffffffffffffff81111561293f5761293e611fa5565b5b61294b8a828b0161284e565b955050606061295c8a828b01612893565b945050608061296d8a828b01612893565b93505060a061297e8a828b01612893565b92505060c088013567ffffffffffffffff81111561299f5761299e611fa5565b5b6129ab8a828b0161284e565b91505092959891949750929550565b600060208201905081810360008301526129d481846125a8565b905092915050565b7f4e487b7100000000000000000000000000000000000000000000000000000000600052602260045260246000fd5b60006002820490506001821680612a2357607f821691505b602082108103612a3657612a356129dc565b5b50919050565b7f496e76616c6964206576656e7420494400000000000000000000000000000000600082015250565b6000612a72601083612059565b9150612a7d82612a3c565b602082019050919050565b60006020820190508181036000830152612aa181612a65565b9050919050565b7f4e487b7100000000000000000000000000000000000000000000000000000000600052603260045260246000fd5b7f456e747279206461746520657870697265640000000000000000000000000000600082015250565b6000612b0d601283612059565b9150612b1882612ad7565b602082019050919050565b60006020820190508181036000830152612b3c81612b00565b9050919050565b7f4576656e7420697320696e616374697665000000000000000000000000000000600082015250565b6000612b79601183612059565b9150612b8482612b43565b602082019050919050565b60006020820190508181036000830152612ba881612b6c565b9050919050565b7f416c726561647920616e20617474656e64656500000000000000000000000000600082015250565b6000612be5601383612059565b9150612bf082612baf565b602082019050919050565b60006020820190508181036000830152612c1481612bd8565b9050919050565b7f4e6f74206576656e74206f776e65720000000000000000000000000000000000600082015250565b6000612c51600f83612059565b9150612c5c82612c1b565b602082019050919050565b60006020820190508181036000830152612c8081612c44565b9050919050565b7f4576656e7420646f6573206e6f74206578697374000000000000000000000000600082015250565b6000612cbd601483612059565b9150612cc882612c87565b602082019050919050565b60006020820190508181036000830152612cec81612cb0565b9050919050565b7f4e487b7100000000000000000000000000000000000000000000000000000000600052601160045260246000fd5b6000612d2d82611faa565b91507fffffffffffffffffffffffffffffffffffffffffffffffffffffffffffffffff8203612d5f57612d5e612cf3565b5b600182019050919050565b60008190508160005260206000209050919050565b60006020601f8301049050919050565b600082821b905092915050565b600060088302612dcc7fffffffffffffffffffffffffffffffffffffffffffffffffffffffffffffffff82612d8f565b612dd68683612d8f565b95508019841693508086168417925050509392505050565b6000819050919050565b6000612e13612e0e612e0984611faa565b612dee565b611faa565b9050919050565b6000819050919050565b612e2d83612df8565b612e41612e3982612e1a565b848454612d9c565b825550505050565b600090565b612e56612e49565b612e61818484612e24565b505050565b5b81811015612e8557612e7a600082612e4e565b600181019050612e67565b5050565b601f821115612eca57612e9b81612d6a565b612ea484612d7f565b81016020851015612eb3578190505b612ec7612ebf85612d7f565b830182612e66565b50505b505050565b600082821c905092915050565b6000612eed60001984600802612ecf565b1980831691505092915050565b6000612f068383612edc565b9150826002028217905092915050565b612f1f8261204e565b67ffffffffffffffff811115612f3857612f37612751565b5b612f428254612a0b565b612f4d828285612e89565b600060209050601f831160018114612f805760008415612f6e578287015190505b612f788582612efa565b865550612fe0565b601f198416612f8e86612d6a565b60005b82811015612fb657848901518255600182019150602085019450602081019050612f91565b86831015612fd35784890151612fcf601f891682612edc565b8355505b6001600288020188555050505b50505050505056fea264697066735822122035c58fbbf24a42909d6a69bf27e1ee0359977239173efcdbf10e1181d22389e264736f6c634300081c0033",
    "linkReferences": {},
    "deployedLinkReferences": {}
}