{
    "_format": "hh-sol-artifact-1",
    "contractName": "EventChain",
    "sourceName": "contracts/EventChain.sol",
    "abi": [
        {
            "inputs": [
                {
                    "internalType": "address[]",
                    "name": "_supportedTokens",
                    "type": "address[]"
                }
            ],
            "stateMutability": "nonpayable",
            "type": "constructor"
        },
        {
            "inputs": [],
            "name": "ReentrancyGuardReentrantCall",
            "type": "error"
        },
        {
            "inputs": [
                {
                    "internalType": "address",
                    "name": "token",
                    "type": "address"
                }
            ],
            "name": "SafeERC20FailedOperation",
            "type": "error"
        },
        {
            "anonymous": false,
            "inputs": [
                {
                    "indexed": true,
                    "internalType": "uint256",
                    "name": "eventId",
                    "type": "uint256"
                }
            ],
            "name": "EventCanceled",
            "type": "event"
        },
        {
            "anonymous": false,
            "inputs": [
                {
                    "indexed": true,
                    "internalType": "uint256",
                    "name": "eventId",
                    "type": "uint256"
                },
                {
                    "indexed": true,
                    "internalType": "address",
                    "name": "owner",
                    "type": "address"
                },
                {
                    "indexed": false,
                    "internalType": "string",
                    "name": "eventName",
                    "type": "string"
                }
            ],
            "name": "EventCreated",
            "type": "event"
        },
        {
            "anonymous": false,
            "inputs": [
                {
                    "indexed": true,
                    "internalType": "uint256",
                    "name": "eventId",
                    "type": "uint256"
                },
                {
                    "indexed": true,
                    "internalType": "address",
                    "name": "owner",
                    "type": "address"
                },
                {
                    "indexed": false,
                    "internalType": "string",
                    "name": "eventName",
                    "type": "string"
                }
            ],
            "name": "EventUpdated",
            "type": "event"
        },
        {
            "anonymous": false,
            "inputs": [
                {
                    "indexed": true,
                    "internalType": "uint256",
                    "name": "eventId",
                    "type": "uint256"
                },
                {
                    "indexed": false,
                    "internalType": "uint256",
                    "name": "amount",
                    "type": "uint256"
                }
            ],
            "name": "FundsReleased",
            "type": "event"
        },
        {
            "anonymous": false,
            "inputs": [
                {
                    "indexed": true,
                    "internalType": "uint256",
                    "name": "eventId",
                    "type": "uint256"
                },
                {
                    "indexed": true,
                    "internalType": "address",
                    "name": "user",
                    "type": "address"
                },
                {
                    "indexed": false,
                    "internalType": "uint256",
                    "name": "amount",
                    "type": "uint256"
                }
            ],
            "name": "RefundIssued",
            "type": "event"
        },
        {
            "anonymous": false,
            "inputs": [
                {
                    "indexed": true,
                    "internalType": "uint256",
                    "name": "eventId",
                    "type": "uint256"
                },
                {
                    "indexed": true,
                    "internalType": "address",
                    "name": "buyer",
                    "type": "address"
                },
                {
                    "indexed": false,
                    "internalType": "uint256",
                    "name": "amount",
                    "type": "uint256"
                },
                {
                    "indexed": false,
                    "internalType": "address",
                    "name": "paymentToken",
                    "type": "address"
                }
            ],
            "name": "TicketPurchased",
            "type": "event"
        },
        {
            "inputs": [],
            "name": "CELO",
            "outputs": [
                {
                    "internalType": "address",
                    "name": "",
                    "type": "address"
                }
            ],
            "stateMutability": "view",
            "type": "function"
        },
        {
            "inputs": [],
            "name": "MAX_ATTENDEES",
            "outputs": [
                {
                    "internalType": "uint256",
                    "name": "",
                    "type": "uint256"
                }
            ],
            "stateMutability": "view",
            "type": "function"
        },
        {
            "inputs": [],
            "name": "MAX_DETAILS_LENGTH",
            "outputs": [
                {
                    "internalType": "uint256",
                    "name": "",
                    "type": "uint256"
                }
            ],
            "stateMutability": "view",
            "type": "function"
        },
        {
            "inputs": [],
            "name": "MAX_LOCATION_LENGTH",
            "outputs": [
                {
                    "internalType": "uint256",
                    "name": "",
                    "type": "uint256"
                }
            ],
            "stateMutability": "view",
            "type": "function"
        },
        {
            "inputs": [],
            "name": "MAX_NAME_LENGTH",
            "outputs": [
                {
                    "internalType": "uint256",
                    "name": "",
                    "type": "uint256"
                }
            ],
            "stateMutability": "view",
            "type": "function"
        },
        {
            "inputs": [],
            "name": "MAX_TICKET_PRICE",
            "outputs": [
                {
                    "internalType": "uint256",
                    "name": "",
                    "type": "uint256"
                }
            ],
            "stateMutability": "view",
            "type": "function"
        },
        {
            "inputs": [],
            "name": "MAX_URL_LENGTH",
            "outputs": [
                {
                    "internalType": "uint256",
                    "name": "",
                    "type": "uint256"
                }
            ],
            "stateMutability": "view",
            "type": "function"
        },
        {
            "inputs": [],
            "name": "MIN_EVENT_DURATION",
            "outputs": [
                {
                    "internalType": "uint256",
                    "name": "",
                    "type": "uint256"
                }
            ],
            "stateMutability": "view",
            "type": "function"
        },
        {
            "inputs": [],
            "name": "REFUND_BUFFER",
            "outputs": [
                {
                    "internalType": "uint256",
                    "name": "",
                    "type": "uint256"
                }
            ],
            "stateMutability": "view",
            "type": "function"
        },
        {
            "inputs": [
                {
                    "internalType": "uint256",
                    "name": "_index",
                    "type": "uint256"
                }
            ],
            "name": "buyTicket",
            "outputs": [],
            "stateMutability": "payable",
            "type": "function"
        },
        {
            "inputs": [
                {
                    "internalType": "uint256",
                    "name": "_index",
                    "type": "uint256"
                }
            ],
            "name": "cancelEvent",
            "outputs": [],
            "stateMutability": "nonpayable",
            "type": "function"
        },
        {
            "inputs": [
                {
                    "internalType": "uint256",
                    "name": "",
                    "type": "uint256"
                }
            ],
            "name": "celoFundsHeld",
            "outputs": [
                {
                    "internalType": "uint256",
                    "name": "",
                    "type": "uint256"
                }
            ],
            "stateMutability": "view",
            "type": "function"
        },
        {
            "inputs": [
                {
                    "internalType": "string",
                    "name": "_eventName",
                    "type": "string"
                },
                {
                    "internalType": "string",
                    "name": "_eventCardImgUrl",
                    "type": "string"
                },
                {
                    "internalType": "string",
                    "name": "_eventDetails",
                    "type": "string"
                },
                {
                    "internalType": "uint64",
                    "name": "_startDate",
                    "type": "uint64"
                },
                {
                    "internalType": "uint64",
                    "name": "_endDate",
                    "type": "uint64"
                },
                {
                    "internalType": "uint64",
                    "name": "_startTime",
                    "type": "uint64"
                },
                {
                    "internalType": "uint64",
                    "name": "_endTime",
                    "type": "uint64"
                },
                {
                    "internalType": "string",
                    "name": "_eventLocation",
                    "type": "string"
                },
                {
                    "internalType": "uint256",
                    "name": "_ticketPrice",
                    "type": "uint256"
                },
                {
                    "internalType": "uint256",
                    "name": "_minimumAge",
                    "type": "uint256"
                },
                {
                    "internalType": "address",
                    "name": "_paymentToken",
                    "type": "address"
                }
            ],
            "name": "createEvent",
            "outputs": [],
            "stateMutability": "nonpayable",
            "type": "function"
        },
        {
            "inputs": [
                {
                    "internalType": "uint256",
                    "name": "",
                    "type": "uint256"
                }
            ],
            "name": "events",
            "outputs": [
                {
                    "internalType": "address",
                    "name": "owner",
                    "type": "address"
                },
                {
                    "internalType": "string",
                    "name": "eventName",
                    "type": "string"
                },
                {
                    "internalType": "string",
                    "name": "eventCardImgUrl",
                    "type": "string"
                },
                {
                    "internalType": "string",
                    "name": "eventDetails",
                    "type": "string"
                },
                {
                    "internalType": "uint64",
                    "name": "startDate",
                    "type": "uint64"
                },
                {
                    "internalType": "uint64",
                    "name": "endDate",
                    "type": "uint64"
                },
                {
                    "internalType": "uint64",
                    "name": "startTime",
                    "type": "uint64"
                },
                {
                    "internalType": "uint64",
                    "name": "endTime",
                    "type": "uint64"
                },
                {
                    "internalType": "string",
                    "name": "eventLocation",
                    "type": "string"
                },
                {
                    "internalType": "bool",
                    "name": "isActive",
                    "type": "bool"
                },
                {
                    "internalType": "uint256",
                    "name": "ticketPrice",
                    "type": "uint256"
                },
                {
                    "internalType": "uint256",
                    "name": "fundsHeld",
                    "type": "uint256"
                },
                {
                    "internalType": "uint256",
                    "name": "minimumAge",
                    "type": "uint256"
                },
                {
                    "internalType": "bool",
                    "name": "isCanceled",
                    "type": "bool"
                },
                {
                    "internalType": "bool",
                    "name": "fundsReleased",
                    "type": "bool"
                },
                {
                    "internalType": "address",
                    "name": "paymentToken",
                    "type": "address"
                }
            ],
            "stateMutability": "view",
            "type": "function"
        },
        {
            "inputs": [],
            "name": "getActiveEventsByCreator",
            "outputs": [
                {
                    "internalType": "uint256[]",
                    "name": "",
                    "type": "uint256[]"
                },
                {
                    "components": [
                        {
                            "internalType": "address",
                            "name": "owner",
                            "type": "address"
                        },
                        {
                            "internalType": "string",
                            "name": "eventName",
                            "type": "string"
                        },
                        {
                            "internalType": "string",
                            "name": "eventCardImgUrl",
                            "type": "string"
                        },
                        {
                            "internalType": "string",
                            "name": "eventDetails",
                            "type": "string"
                        },
                        {
                            "internalType": "uint64",
                            "name": "startDate",
                            "type": "uint64"
                        },
                        {
                            "internalType": "uint64",
                            "name": "endDate",
                            "type": "uint64"
                        },
                        {
                            "internalType": "uint64",
                            "name": "startTime",
                            "type": "uint64"
                        },
                        {
                            "internalType": "uint64",
                            "name": "endTime",
                            "type": "uint64"
                        },
                        {
                            "internalType": "string",
                            "name": "eventLocation",
                            "type": "string"
                        },
                        {
                            "internalType": "bool",
                            "name": "isActive",
                            "type": "bool"
                        },
                        {
                            "internalType": "uint256",
                            "name": "ticketPrice",
                            "type": "uint256"
                        },
                        {
                            "internalType": "uint256",
                            "name": "fundsHeld",
                            "type": "uint256"
                        },
                        {
                            "internalType": "uint256",
                            "name": "minimumAge",
                            "type": "uint256"
                        },
                        {
                            "internalType": "bool",
                            "name": "isCanceled",
                            "type": "bool"
                        },
                        {
                            "internalType": "bool",
                            "name": "fundsReleased",
                            "type": "bool"
                        },
                        {
                            "internalType": "address",
                            "name": "paymentToken",
                            "type": "address"
                        }
                    ],
                    "internalType": "struct EventChain.Event[]",
                    "name": "",
                    "type": "tuple[]"
                }
            ],
            "stateMutability": "view",
            "type": "function"
        },
        {
            "inputs": [],
            "name": "getAllEvents",
            "outputs": [
                {
                    "internalType": "uint256[]",
                    "name": "",
                    "type": "uint256[]"
                },
                {
                    "components": [
                        {
                            "internalType": "address",
                            "name": "owner",
                            "type": "address"
                        },
                        {
                            "internalType": "string",
                            "name": "eventName",
                            "type": "string"
                        },
                        {
                            "internalType": "string",
                            "name": "eventCardImgUrl",
                            "type": "string"
                        },
                        {
                            "internalType": "string",
                            "name": "eventDetails",
                            "type": "string"
                        },
                        {
                            "internalType": "uint64",
                            "name": "startDate",
                            "type": "uint64"
                        },
                        {
                            "internalType": "uint64",
                            "name": "endDate",
                            "type": "uint64"
                        },
                        {
                            "internalType": "uint64",
                            "name": "startTime",
                            "type": "uint64"
                        },
                        {
                            "internalType": "uint64",
                            "name": "endTime",
                            "type": "uint64"
                        },
                        {
                            "internalType": "string",
                            "name": "eventLocation",
                            "type": "string"
                        },
                        {
                            "internalType": "bool",
                            "name": "isActive",
                            "type": "bool"
                        },
                        {
                            "internalType": "uint256",
                            "name": "ticketPrice",
                            "type": "uint256"
                        },
                        {
                            "internalType": "uint256",
                            "name": "fundsHeld",
                            "type": "uint256"
                        },
                        {
                            "internalType": "uint256",
                            "name": "minimumAge",
                            "type": "uint256"
                        },
                        {
                            "internalType": "bool",
                            "name": "isCanceled",
                            "type": "bool"
                        },
                        {
                            "internalType": "bool",
                            "name": "fundsReleased",
                            "type": "bool"
                        },
                        {
                            "internalType": "address",
                            "name": "paymentToken",
                            "type": "address"
                        }
                    ],
                    "internalType": "struct EventChain.Event[]",
                    "name": "",
                    "type": "tuple[]"
                }
            ],
            "stateMutability": "view",
            "type": "function"
        },
        {
            "inputs": [
                {
                    "internalType": "uint256",
                    "name": "_index",
                    "type": "uint256"
                }
            ],
            "name": "getAttendees",
            "outputs": [
                {
                    "internalType": "address[]",
                    "name": "",
                    "type": "address[]"
                }
            ],
            "stateMutability": "view",
            "type": "function"
        },
        {
            "inputs": [
                {
                    "internalType": "uint256",
                    "name": "_index",
                    "type": "uint256"
                }
            ],
            "name": "getEventById",
            "outputs": [
                {
                    "components": [
                        {
                            "internalType": "address",
                            "name": "owner",
                            "type": "address"
                        },
                        {
                            "internalType": "string",
                            "name": "eventName",
                            "type": "string"
                        },
                        {
                            "internalType": "string",
                            "name": "eventCardImgUrl",
                            "type": "string"
                        },
                        {
                            "internalType": "string",
                            "name": "eventDetails",
                            "type": "string"
                        },
                        {
                            "internalType": "uint64",
                            "name": "startDate",
                            "type": "uint64"
                        },
                        {
                            "internalType": "uint64",
                            "name": "endDate",
                            "type": "uint64"
                        },
                        {
                            "internalType": "uint64",
                            "name": "startTime",
                            "type": "uint64"
                        },
                        {
                            "internalType": "uint64",
                            "name": "endTime",
                            "type": "uint64"
                        },
                        {
                            "internalType": "string",
                            "name": "eventLocation",
                            "type": "string"
                        },
                        {
                            "internalType": "bool",
                            "name": "isActive",
                            "type": "bool"
                        },
                        {
                            "internalType": "uint256",
                            "name": "ticketPrice",
                            "type": "uint256"
                        },
                        {
                            "internalType": "uint256",
                            "name": "fundsHeld",
                            "type": "uint256"
                        },
                        {
                            "internalType": "uint256",
                            "name": "minimumAge",
                            "type": "uint256"
                        },
                        {
                            "internalType": "bool",
                            "name": "isCanceled",
                            "type": "bool"
                        },
                        {
                            "internalType": "bool",
                            "name": "fundsReleased",
                            "type": "bool"
                        },
                        {
                            "internalType": "address",
                            "name": "paymentToken",
                            "type": "address"
                        }
                    ],
                    "internalType": "struct EventChain.Event",
                    "name": "",
                    "type": "tuple"
                },
                {
                    "internalType": "address[]",
                    "name": "",
                    "type": "address[]"
                },
                {
                    "components": [
                        {
                            "internalType": "address",
                            "name": "owner",
                            "type": "address"
                        },
                        {
                            "internalType": "string",
                            "name": "eventName",
                            "type": "string"
                        },
                        {
                            "internalType": "string",
                            "name": "eventCardImgUrl",
                            "type": "string"
                        },
                        {
                            "internalType": "string",
                            "name": "eventDetails",
                            "type": "string"
                        },
                        {
                            "internalType": "uint64",
                            "name": "startDate",
                            "type": "uint64"
                        },
                        {
                            "internalType": "uint64",
                            "name": "endDate",
                            "type": "uint64"
                        },
                        {
                            "internalType": "uint64",
                            "name": "startTime",
                            "type": "uint64"
                        },
                        {
                            "internalType": "uint64",
                            "name": "endTime",
                            "type": "uint64"
                        },
                        {
                            "internalType": "string",
                            "name": "eventLocation",
                            "type": "string"
                        },
                        {
                            "internalType": "bool",
                            "name": "isActive",
                            "type": "bool"
                        },
                        {
                            "internalType": "uint256",
                            "name": "ticketPrice",
                            "type": "uint256"
                        },
                        {
                            "internalType": "uint256",
                            "name": "fundsHeld",
                            "type": "uint256"
                        },
                        {
                            "internalType": "uint256",
                            "name": "minimumAge",
                            "type": "uint256"
                        },
                        {
                            "internalType": "bool",
                            "name": "isCanceled",
                            "type": "bool"
                        },
                        {
                            "internalType": "bool",
                            "name": "fundsReleased",
                            "type": "bool"
                        },
                        {
                            "internalType": "address",
                            "name": "paymentToken",
                            "type": "address"
                        }
                    ],
                    "internalType": "struct EventChain.Event[]",
                    "name": "",
                    "type": "tuple[]"
                }
            ],
            "stateMutability": "view",
            "type": "function"
        },
        {
            "inputs": [],
            "name": "getEventLength",
            "outputs": [
                {
                    "internalType": "uint256",
                    "name": "",
                    "type": "uint256"
                }
            ],
            "stateMutability": "view",
            "type": "function"
        },
        {
            "inputs": [
                {
                    "internalType": "address",
                    "name": "_creator",
                    "type": "address"
                }
            ],
            "name": "getEventsByCreator",
            "outputs": [
                {
                    "components": [
                        {
                            "internalType": "address",
                            "name": "owner",
                            "type": "address"
                        },
                        {
                            "internalType": "string",
                            "name": "eventName",
                            "type": "string"
                        },
                        {
                            "internalType": "string",
                            "name": "eventCardImgUrl",
                            "type": "string"
                        },
                        {
                            "internalType": "string",
                            "name": "eventDetails",
                            "type": "string"
                        },
                        {
                            "internalType": "uint64",
                            "name": "startDate",
                            "type": "uint64"
                        },
                        {
                            "internalType": "uint64",
                            "name": "endDate",
                            "type": "uint64"
                        },
                        {
                            "internalType": "uint64",
                            "name": "startTime",
                            "type": "uint64"
                        },
                        {
                            "internalType": "uint64",
                            "name": "endTime",
                            "type": "uint64"
                        },
                        {
                            "internalType": "string",
                            "name": "eventLocation",
                            "type": "string"
                        },
                        {
                            "internalType": "bool",
                            "name": "isActive",
                            "type": "bool"
                        },
                        {
                            "internalType": "uint256",
                            "name": "ticketPrice",
                            "type": "uint256"
                        },
                        {
                            "internalType": "uint256",
                            "name": "fundsHeld",
                            "type": "uint256"
                        },
                        {
                            "internalType": "uint256",
                            "name": "minimumAge",
                            "type": "uint256"
                        },
                        {
                            "internalType": "bool",
                            "name": "isCanceled",
                            "type": "bool"
                        },
                        {
                            "internalType": "bool",
                            "name": "fundsReleased",
                            "type": "bool"
                        },
                        {
                            "internalType": "address",
                            "name": "paymentToken",
                            "type": "address"
                        }
                    ],
                    "internalType": "struct EventChain.Event[]",
                    "name": "",
                    "type": "tuple[]"
                }
            ],
            "stateMutability": "view",
            "type": "function"
        },
        {
            "inputs": [],
            "name": "getUserEvents",
            "outputs": [
                {
                    "internalType": "uint256[]",
                    "name": "",
                    "type": "uint256[]"
                },
                {
                    "components": [
                        {
                            "internalType": "address",
                            "name": "owner",
                            "type": "address"
                        },
                        {
                            "internalType": "string",
                            "name": "eventName",
                            "type": "string"
                        },
                        {
                            "internalType": "string",
                            "name": "eventCardImgUrl",
                            "type": "string"
                        },
                        {
                            "internalType": "string",
                            "name": "eventDetails",
                            "type": "string"
                        },
                        {
                            "internalType": "uint64",
                            "name": "startDate",
                            "type": "uint64"
                        },
                        {
                            "internalType": "uint64",
                            "name": "endDate",
                            "type": "uint64"
                        },
                        {
                            "internalType": "uint64",
                            "name": "startTime",
                            "type": "uint64"
                        },
                        {
                            "internalType": "uint64",
                            "name": "endTime",
                            "type": "uint64"
                        },
                        {
                            "internalType": "string",
                            "name": "eventLocation",
                            "type": "string"
                        },
                        {
                            "internalType": "bool",
                            "name": "isActive",
                            "type": "bool"
                        },
                        {
                            "internalType": "uint256",
                            "name": "ticketPrice",
                            "type": "uint256"
                        },
                        {
                            "internalType": "uint256",
                            "name": "fundsHeld",
                            "type": "uint256"
                        },
                        {
                            "internalType": "uint256",
                            "name": "minimumAge",
                            "type": "uint256"
                        },
                        {
                            "internalType": "bool",
                            "name": "isCanceled",
                            "type": "bool"
                        },
                        {
                            "internalType": "bool",
                            "name": "fundsReleased",
                            "type": "bool"
                        },
                        {
                            "internalType": "address",
                            "name": "paymentToken",
                            "type": "address"
                        }
                    ],
                    "internalType": "struct EventChain.Event[]",
                    "name": "",
                    "type": "tuple[]"
                }
            ],
            "stateMutability": "view",
            "type": "function"
        },
        {
            "inputs": [
                {
                    "internalType": "uint256",
                    "name": "",
                    "type": "uint256"
                },
                {
                    "internalType": "address",
                    "name": "",
                    "type": "address"
                }
            ],
            "name": "hasPurchasedTicket",
            "outputs": [
                {
                    "internalType": "bool",
                    "name": "",
                    "type": "bool"
                }
            ],
            "stateMutability": "view",
            "type": "function"
        },
        {
            "inputs": [
                {
                    "internalType": "address",
                    "name": "from",
                    "type": "address"
                },
                {
                    "internalType": "uint256",
                    "name": "value",
                    "type": "uint256"
                },
                {
                    "internalType": "bytes",
                    "name": "data",
                    "type": "bytes"
                }
            ],
            "name": "onTokenTransfer",
            "outputs": [
                {
                    "internalType": "bool",
                    "name": "",
                    "type": "bool"
                }
            ],
            "stateMutability": "nonpayable",
            "type": "function"
        },
        {
            "inputs": [],
            "name": "paused",
            "outputs": [
                {
                    "internalType": "bool",
                    "name": "",
                    "type": "bool"
                }
            ],
            "stateMutability": "view",
            "type": "function"
        },
        {
            "inputs": [
                {
                    "internalType": "uint256",
                    "name": "_index",
                    "type": "uint256"
                }
            ],
            "name": "releaseFunds",
            "outputs": [],
            "stateMutability": "nonpayable",
            "type": "function"
        },
        {
            "inputs": [
                {
                    "internalType": "uint256",
                    "name": "_index",
                    "type": "uint256"
                }
            ],
            "name": "requestRefund",
            "outputs": [],
            "stateMutability": "nonpayable",
            "type": "function"
        },
        {
            "inputs": [
                {
                    "internalType": "uint256",
                    "name": "_index",
                    "type": "uint256"
                }
            ],
            "name": "requestRefund1",
            "outputs": [],
            "stateMutability": "nonpayable",
            "type": "function"
        },
        {
            "inputs": [
                {
                    "internalType": "address",
                    "name": "",
                    "type": "address"
                }
            ],
            "name": "supportedTokens",
            "outputs": [
                {
                    "internalType": "bool",
                    "name": "",
                    "type": "bool"
                }
            ],
            "stateMutability": "view",
            "type": "function"
        },
        {
            "inputs": [],
            "name": "ubiPool",
            "outputs": [
                {
                    "internalType": "address",
                    "name": "",
                    "type": "address"
                }
            ],
            "stateMutability": "view",
            "type": "function"
        },
        {
            "stateMutability": "payable",
            "type": "receive"
        }
    ],
    "bytecode": "0x608060405234610168576139798038038061001981610183565b928339810190602081830312610168578051906001600160401b038211610168570181601f82011215610168578051916001600160401b03831161016d578260051b9160208061006a818601610183565b80968152019382010191821161016857602001915b818310610148576001600081815560028054610100600160a81b0319167443d72ff17701b2da814620735c39c620ce0ea4a10017905580805260208290527fa6eef7e35abe7026729641147f7915573c7e97b47efa546f5f6e3230263bcb49805460ff191690921790915584905b815181101561013957600581901b820160200151600191906001600160a01b031660008161011e575b5050016100ed565b604091815283602052208260ff198254161790558380610116565b6040516137d090816101a98239f35b82516001600160a01b03811681036101685781526020928301920161007f565b600080fd5b634e487b7160e01b600052604160045260246000fd5b6040519190601f01601f191682016001600160401b0381118382101761016d5760405256fe6080604052600436101561001b575b361561001957600080fd5b005b60003560e01c80630b791430146128dd5780630ec7c3ff146126d85780630f977561146125e35780631ac78969146125c657806320020581146125785780633f69babd1461248e578063439fd35f146124365780634d06755f1461240a5780634d68282f1461213257806350d9c62d146121155780635c975abb146120f25780635c98dfa1146120d4578063617148e5146120b757806367dd74ca14611c9f57806368c4ac2614611c605780637b426cbf14611c435780638607498514611c27578063a06f7da714611bfa578063a4b2409e146118e8578063a4c0ed3614611575578063abf45ec814611559578063b5e4128714611534578063b98079bc14611442578063c27a500d1461138e578063cb71146e14611372578063ccfd6d3c14611246578063e0c14377146111f5578063f57c7ad8146101805763f60e673e0361000e573461017b57600036600319011261017b57602060405160008152f35b600080fd5b3461017b5761016036600319011261017b576004356001600160401b03811161017b576101b1903690600401612dcc565b906024356001600160401b03811161017b576101d1903690600401612dcc565b906044356001600160401b03811161017b576101f1903690600401612dcc565b906064356001600160401b03811680910361017b576084356001600160401b03811680910361017b5760a4356001600160401b03811680910361017b5760c435916001600160401b03831680930361017b5760e4356001600160401b03811161017b57610262903690600401612dcc565b9490956101043597610144359960018060a01b038b16809b0361017b5761028e60ff6002541615612eb4565b8d15158e816111e9575b50156111b5578b1515806111aa575b15611177578115158061116b575b156111345787151580611129575b156110f157891515806110dd575b156110a85742841061106357610e108401808511610973578510611029578a600052600160205260ff6040600020541615610ff0578c9b8e6040519d8e9161031883612acf565b3383523690610326926135e3565b90602001523690610336926135e3565b60408c01523690610346926135e3565b60608a0152608089015260a088015260c087015260e0860152369061036a926135e3565b610100840152600161012084015261014083015260006101608301819052610124356101808401526101a083018190526101c08301526101e0820152600354600160401b811015610a4a578060016103c792016003556003612a79565b610ca957815181546001600160a01b0319166001600160a01b039190911617815560208201518051906001600160401b038211610a4a57819061040d6001850154612a95565b601f8111610f9d575b50602090601f8311600114610f2c57600092610f21575b50508160011b916000199060031b1c19161760018201555b60408201518051906001600160401b038211610a4a57819061046a6002850154612a95565b601f8111610ece575b50602090601f8311600114610e5d57600092610e52575b50508160011b916000199060031b1c19161760028201555b60608201518051906001600160401b038211610a4a5781906104c76003850154612a95565b601f8111610dff575b50602090601f8311600114610d8e57600092610d83575b50508160011b916000199060031b1c19161760038201555b60808281015160a084015160c08086015160e087015160409390931b67ffffffffffffffff60401b166001600160401b0394851617941b67ffffffffffffffff60801b1693909317921b6001600160c01b0319169190911760048301556101008301518051918211610a4a576105786005840154612a95565b601f8111610d3c575b50602090601f8311600114610cca57600a93929160009183610cbf575b50508160011b916000199060031b1c19161760058201555b6105d66101208401511515600683019060ff801983541691151516179055565b610140830151600782015561016083015160088201556101808301516009820155016106156101a08301511515829060ff801983541691151516179055565b6101c0820151815461ff00191690151560081b61ff00161781556101e0820151815462010000600160b01b03191660109190911b62010000600160b01b03161790553360009081526005602052604090208054600160401b811015610a4a5761068391600182018155612a79565b610ca957815181546001600160a01b0319166001600160a01b03919091161781556020820151805160018301916001600160401b038211610a4a5781906106ca8454612a95565b601f8111610c56575b50602090601f8311600114610bf157600092610be6575b50508160011b916000199060031b1c19161790555b6002810160408301518051906001600160401b038211610a4a5781906107258454612a95565b601f8111610b93575b50602090601f8311600114610b2e57600092610b23575b50508160011b916000199060031b1c19161790555b6003810160608301518051906001600160401b038211610a4a5781906107808454612a95565b601f8111610ad0575b50602090601f8311600114610a6b57600092610a60575b50508160011b916000199060031b1c19161790555b60808281015160a084015160c08086015160e087015160409390931b67ffffffffffffffff60401b166001600160401b0394851617941b67ffffffffffffffff60801b1693909317921b6001600160c01b031916919091176004830155610100830151805160058401929091908211610a4a576108328354612a95565b601f8111610a02575b50602090601f8311600114610994579180600a94926101e09694600092610989575b50508160011b916000199060031b1c19161790555b6108926101208501511515600683019060ff801983541691151516179055565b61014084015160078201556101608401516008820155610180840151600982015501916108d26101a08201511515849060ff801983541691151516179055565b6101c0810151835461ff00191690151560081b61ff00161783550151815462010000600160b01b03191660109190911b62010000600160b01b0316179055600354600019810191908211610973577ffc695dea2478fb938a11068aeedddd7046a5fe655f136e30a325d353fe187a459083604051916020835281602084015260408301376000604085830101526040813395601f80199101168101030190a3005b634e487b7160e01b600052601160045260246000fd5b01519050898061085d565b90601f1983169184600052816000209260005b8181106109ea57509260019285926101e09896600a9896106109d1575b505050811b019055610872565b015160001960f88460031b161c191690558980806109c4565b929360206001819287860151815501950193016109a7565b836000526020600020601f840160051c81019160208510610a40575b601f0160051c01905b818110610a34575061083b565b60008155600101610a27565b9091508190610a1e565b634e487b7160e01b600052604160045260246000fd5b0151905087806107a0565b60008581528281209350601f198516905b818110610ab85750908460019594939210610a9f575b505050811b0190556107b5565b015160001960f88460031b161c19169055878080610a92565b92936020600181928786015181550195019301610a7c565b909150836000526020600020601f840160051c81019160208510610b19575b90601f859493920160051c01905b818110610b0a5750610789565b60008155849350600101610afd565b9091508190610aef565b015190508780610745565b60008581528281209350601f198516905b818110610b7b5750908460019594939210610b62575b505050811b01905561075a565b015160001960f88460031b161c19169055878080610b55565b92936020600181928786015181550195019301610b3f565b909150836000526020600020601f840160051c81019160208510610bdc575b90601f859493920160051c01905b818110610bcd575061072e565b60008155849350600101610bc0565b9091508190610bb2565b0151905087806106ea565b60008581528281209350601f198516905b818110610c3e5750908460019594939210610c25575b505050811b0190556106ff565b015160001960f88460031b161c19169055878080610c18565b92936020600181928786015181550195019301610c02565b909150836000526020600020601f840160051c81019160208510610c9f575b90601f859493920160051c01905b818110610c9057506106d3565b60008155849350600101610c83565b9091508190610c75565b634e487b7160e01b600052600060045260246000fd5b01519050878061059e565b9060058401600052806000209160005b601f1985168110610d245750918391600193600a9695601f19811610610d0b575b505050811b0160058201556105b6565b015160001960f88460031b161c19169055878080610cfb565b91926020600181928685015181550194019201610cda565b600584016000526020600020601f840160051c810160208510610d7c575b601f830160051c82018110610d70575050610581565b60008155600101610d5a565b5080610d5a565b0151905086806104e7565b92506003840160005280600020906000935b601f1984168510610de4576001945083601f19811610610dcb575b505050811b0160038201556104ff565b015160001960f88460031b161c19169055868080610dbb565b81810151835560209485019460019093019290910190610da0565b909150600384016000526020600020601f840160051c810160208510610e4b575b90849392915b601f830160051c82018110610e3c5750506104d0565b60008155859450600101610e26565b5080610e20565b01519050868061048a565b92506002840160005280600020906000935b601f1984168510610eb3576001945083601f19811610610e9a575b505050811b0160028201556104a2565b015160001960f88460031b161c19169055868080610e8a565b81810151835560209485019460019093019290910190610e6f565b909150600284016000526020600020601f840160051c810160208510610f1a575b90849392915b601f830160051c82018110610f0b575050610473565b60008155859450600101610ef5565b5080610eef565b01519050868061042d565b92506001840160005280600020906000935b601f1984168510610f82576001945083601f19811610610f69575b505050811b016001820155610445565b015160001960f88460031b161c19169055868080610f59565b81810151835560209485019460019093019290910190610f3e565b909150600184016000526020600020601f840160051c810160208510610fe9575b90849392915b601f830160051c82018110610fda575050610416565b60008155859450600101610fc4565b5080610fbe565b60405162461bcd60e51b81526020600482015260116024820152702ab739bab83837b93a32b2103a37b5b2b760791b6044820152606490fd5b60405162461bcd60e51b8152602060048201526012602482015271111d5c985d1a5bdb881d1bdbc81cda1bdc9d60721b6044820152606490fd5b60405162461bcd60e51b815260206004820152601960248201527f53746172742064617465206d75737420626520667574757265000000000000006044820152606490fd5b60405162461bcd60e51b815260206004820152600d60248201526c496e76616c696420707269636560981b6044820152606490fd5b5069d3c21bcecceda10000008a11156102d1565b60405162461bcd60e51b815260206004820152601060248201526f24b73b30b634b2103637b1b0ba34b7b760811b6044820152606490fd5b5060968811156102c3565b60405162461bcd60e51b815260206004820152600f60248201526e496e76616c69642064657461696c7360881b6044820152606490fd5b506103e88211156102b5565b60405162461bcd60e51b815260206004820152600b60248201526a125b9d985b1a590815549360aa1b6044820152606490fd5b5060c88c11156102a7565b60405162461bcd60e51b815260206004820152600c60248201526b496e76616c6964206e616d6560a01b6044820152606490fd5b6064915011158e610298565b3461017b57602036600319011261017b5760043561121660035482106133ca565b600052600460205261124261122e604060002061358f565b604051918291602083526020830190612df9565b0390f35b3461017b57600036600319011261017b576003546000805b82811061131e57506112786112728261311d565b916131c7565b916000805b8281106112965750505061124260405192839283612d63565b61129f81612a44565b50546001600160a01b0316331480611307575b6112bf575b60010161127d565b906112ff81836112d160019488613217565b526112e46112de85612a44565b5061322b565b6112ee8289613217565b526112f98188613217565b506130f7565b9190506112b7565b5060ff600661131583612a44565b500154166112b2565b61132781612a44565b50546001600160a01b031633148061135b575b611347575b60010161125e565b906113536001916130f7565b91905061133f565b5060ff600661136983612a44565b5001541661133a565b3461017b57600036600319011261017b57602060405160c88152f35b3461017b57600036600319011261017b576003546000805b82811061141057506113ba6112728261311d565b916000805b8281106113d85750505061124260405192839283612d63565b60ff60066113e583612a44565b500154166113f6575b6001016113bf565b9061140881836112d160019488613217565b9190506113ee565b60ff600661141d83612a44565b5001541661142e575b6001016113a6565b9061143a6001916130f7565b919050611426565b3461017b57602036600319011261017b5760043561145e61314f565b506003548110156114f857806112426114796114dc93612a44565b50826000526004602052611491604060002093612a44565b5060018060a01b0390541660005260056020526114ea6114c76114c16114bb60406000209461322b565b9561358f565b92613333565b91604051958695606087526060870190612bf1565b908582036020870152612df9565b908382036040850152612d0a565b60405162461bcd60e51b8152602060048201526014602482015273115d995b9d08191bd95cc81b9bdd08195e1a5cdd60621b6044820152606490fd5b3461017b57600036600319011261017b57602060405169d3c21bcecceda10000008152f35b3461017b57600036600319011261017b57602060405160968152f35b3461017b57606036600319011261017b5761158e612db6565b602435906044356001600160401b03811161017b576115b1903690600401612dcc565b7362b8b11039fcfe5ab0c56e502b1c372a3d2a9c7a33036118b35760201161017b5735906115e26003548310612e36565b6116006115ee83612a44565b50546001600160a01b03161515612e72565b61160f60ff6002541615612eb4565b61161882612a44565b5090600a82017362b8b11039fcfe5ab0c56e502b1c372a3d2a9c7a60018060a01b03825460101c160361187a5761165d6001600160401b036004850154164210613409565b61166d60ff600685015416613445565b836000526006602052604060002060018060a01b03831660005260205261169c60ff6040600020541615613482565b8360005260046020526116b7611388604060002054106134c2565b6007830154850361184257836000526006602052604060002060018060a01b0383166000526020526040600020600160ff1982541617905583600052600460205261170682604060002061356c565b60648502858104606414861517156109735761271090046117278187612fc1565b908015158061182b575b611783575b50611755600860008051602061377b8339815191529501918254613547565b905554604080519586526001600160a01b0360109290921c82166020870152911693a3602060405160018152f35b825460025460405163a9059cbb60e01b81526001600160a01b0360089290921c8216600482015260248101939093526020918391604491839160009160101c165af1801561181f5760008051602061377b83398151915295611755926008926117f0575b50955050611736565b6118119060203d602011611818575b6118098183612aeb565b810190613554565b50896117e7565b503d6117ff565b6040513d6000823e3d90fd5b5060025460081c6001600160a01b03161515611731565b60405162461bcd60e51b815260206004820152601060248201526f125b98dbdc9c9958dd08185b5bdd5b9d60821b6044820152606490fd5b60405162461bcd60e51b815260206004820152601160248201527027b7363c903337b9102392103a37b5b2b760791b6044820152606490fd5b60405162461bcd60e51b815260206004820152600d60248201526c27b7363c902392103a37b5b2b760991b6044820152606490fd5b3461017b57602036600319011261017b5760043561190461361a565b6119116003548210612e36565b61191d6115ee82612a44565b61192c60ff6002541615612eb4565b60008181526006602090815260408083203384529091529020546119529060ff16612ef2565b600761195d82612a44565b5001549061196a81612a44565b50600a015460101c6001600160a01b03167362b8b11039fcfe5ab0c56e502b1c372a3d2a9c7a8114611bdc575b80158015611bbe578260005260076020526119b9846040600020541015612f75565b60ff600a6119c685612a44565b5001541615611b8a575b60008381526006602090815260408083203384529091529020805460ff1916905515611b1557508060005260076020526040600020611a10838254612fc1565b9055611a2c600080808086335af1611a2661302b565b5061305b565b80600052600460205260406000209060005b825480821015611b0c57611a52828561309c565b905460039190911b1c6001600160a01b03163314611a735750600101611a3e565b91929091600019810190811161097357611ad992611ab0611a97611ad4938561309c565b905460039190911b1c6001600160a01b0316918461309c565b81546001600160a01b0393841660039290921b91821b9390911b1916919091179055565b6130b4565b6040519182527f7a482fdeb6bc9a1376f597068a214a7a39472bb2eff1b8cad21ba04f49ddca1b60203393a36001600055005b50509050611ad9565b827348065fbbe25f71c9282ddf5e1cd6d6a887483d5e8203611b655750611b60906008611b4184612a44565b5001611b4e858254612fc1565b905564e8d4a51000840490339061363c565b611a2c565b611b60916008611b7485612a44565b5001611b81838254612fc1565b9055339061363c565b6001600160401b036004611b9d85612a44565b5001541661464f19810190811161097357611bb9904210612fce565b6119d0565b611bd7846008611bcd86612a44565b5001541015612f34565b6119b9565b91606381029080820460631490151715610973576064900491611997565b3461017b57600036600319011261017b5760025460405160089190911c6001600160a01b03168152602090f35b3461017b57600036600319011261017b57602060405160648152f35b3461017b57600036600319011261017b5760206040516146508152f35b3461017b57602036600319011261017b576001600160a01b03611c81612db6565b166000526001602052602060ff604060002054166040519015158152f35b602036600319011261017b57600435611cb661361a565b611cc36003548210612e36565b611ccf6115ee82612a44565b611cde60ff6002541615612eb4565b611ce781612a44565b5090611d016001600160401b036004840154164210613409565b611d1160ff600684015416613445565b6000818152600660209081526040808320338452909152902054611d389060ff1615613482565b806000526004602052611d53611388604060002054106134c2565b6007820154600a8301805491939160101c6001600160a01b031680611e5c57509050823403611e1f57611e1560008051602061377b833981519152918360005260076020526040600020611da8868254613547565b90555b836000526006602052604060002060018060a01b0333166000526020526040600020600160ff19825416179055836000526004602052611def33604060002061356c565b546040805195865260109190911c6001600160a01b031660208601523394918291820190565b0390a36001600055005b60405162461bcd60e51b8152602060048201526015602482015274125b98dbdc9c9958dd0810d15313c8185b5bdd5b9d605a1b6044820152606490fd5b7362b8b11039fcfe5ab0c56e502b1c372a3d2a9c7a8103611f405750906000916020611edb6040518683820152828152611e97604082612aeb565b8354604051630200057560e51b8152306004820152602481018a90526060604482015296879360109290921c6001600160a01b031692849283916064830190612bb0565b03925af191821561181f5760008051602061377b83398151915293611e1593611f23575b50611f1c6008611f126064890489612fc1565b9201918254613547565b9055611dab565b611f3b9060203d602011611818576118098183612aeb565b611eff565b7348065fbbe25f71c9282ddf5e1cd6d6a887483d5e810361202157508054604051636eb1769f60e11b815233600482015230602482015291929164e8d4a5100086049160101c6001600160a01b031690602081604481855afa90811561181f57600091611fe5575b5092611fd983600893611fd060008051602061377b8339815191529896611e15981015613502565b309033906136ce565b01611f1c868254613547565b94929390506020853d602011612019575b8161200360209383612aeb565b8101031261017b57935191939291611fd9611fa8565b3d9150611ff6565b604051636eb1769f60e11b815233600482015230602482015290602082604481845afa801561181f57869260009161207c575b5093611fd983600893611fd0611e15979660008051602061377b833981519152991015613502565b91939250506020813d6020116120af575b8161209a60209383612aeb565b8101031261017b575190918591611fd9612054565b3d915061208d565b3461017b57600036600319011261017b5760206040516113888152f35b3461017b57600036600319011261017b576020600354604051908152f35b3461017b57600036600319011261017b57602060ff600254166040519015158152f35b3461017b57600036600319011261017b5760206040516103e88152f35b3461017b57602036600319011261017b5760043561216461215282612a44565b50546001600160a01b0316331461338c565b61216c61361a565b61217960035482106133ca565b6001600160401b03600461218c83612a44565b50015460401c164211156123c55760ff600a6121a783612a44565b500154166123705760ff600a6121bc83612a44565b50015460081c16612332576121d081612a44565b50600a015460101c6001600160a01b03168061229a575060008181526007602052604081208054908290559080808084335af161220b61302b565b501561225e5760207f80230996023d69b50793fa73f1919127c9d8e741d3989743c479169f22e7a288915b600a61224185612a44565b5001805461ff001916610100179055604051908152a26001600055005b60405162461bcd60e51b815260206004820152601460248201527310d15313c81d1c985b9cd9995c8819985a5b195960621b6044820152606490fd5b6020817348065fbbe25f71c9282ddf5e1cd6d6a887483d5e7f80230996023d69b50793fa73f1919127c9d8e741d3989743c479169f22e7a28893146000146123125761230d64e8d4a5100060086122f087612a44565b5001540480926000600861230389612a44565b500155339061363c565b612236565b61230d600861232086612a44565b50015480926000600861230389612a44565b60405162461bcd60e51b8152602060048201526016602482015275119d5b991cc8185b1c9958591e481c995b19585cd95960521b6044820152606490fd5b60405162461bcd60e51b815260206004820152602760248201527f43616e6e6f742072656c656173652066756e647320666f722063616e63656c656044820152661908195d995b9d60ca1b6064820152608490fd5b60405162461bcd60e51b815260206004820152601760248201527f4576656e7420686173206e6f7420656e646564207965740000000000000000006044820152606490fd5b3461017b57602036600319011261017b5760043560005260076020526020604060002054604051908152f35b3461017b57604036600319011261017b576024356001600160a01b038116810361017b57600435600052600660205260406000209060018060a01b0316600052602052602060ff604060002054166040519015158152f35b3461017b57602036600319011261017b576004356124ae61215282612a44565b6124bb6003548210612e36565b6124c76115ee82612a44565b6124d660ff6002541615612eb4565b60ff60066124e383612a44565b50015416156125405760066124f782612a44565b5001805460ff19169055600a61250c82612a44565b5001805460ff191660011790557fceaf11772900fe569752a0207c8639fb8228eb8663456dc9eaa3a08f927a8705600080a2005b60405162461bcd60e51b815260206004820152601060248201526f105b1c9958591e4818d85b98d95b195960821b6044820152606490fd5b3461017b57602036600319011261017b576001600160a01b03612599612db6565b1660005260056020526112426125b26040600020613333565b604051918291602083526020830190612d0a565b3461017b57600036600319011261017b576020604051610e108152f35b3461017b57600036600319011261017b576003543390600090815b81811061269a57506126186126128361311d565b926131c7565b92600090815b8381106126345760405180611242888883612d63565b80600052600660205260ff60408060002060009085825260205220541661265e575b60010161261e565b91612692818461267060019489613217565b5261267d6112de86612a44565b612687828a613217565b526112f98189613217565b929050612656565b80600052600660205260ff6040806000206000908782526020522054166126c4575b6001016125fe565b916126d06001916130f7565b9290506126bc565b3461017b57602036600319011261017b576004356126f461361a565b6127016003548210612e36565b61270d6115ee82612a44565b61271c60ff6002541615612eb4565b60008181526006602090815260408083203384529091529020546127429060ff16612ef2565b600761274d82612a44565b5001549061275a81612a44565b50600a015460101c6001600160a01b03167362b8b11039fcfe5ab0c56e502b1c372a3d2a9c7a81146128bf575b82811580156128ab578360005260076020526127aa826040600020541015612f75565b60ff600a6127b786612a44565b5001541615612873575b60008481526006602090815260408083203384529091529020805460ff191690551561285f5750508060005260076020526040600020612802838254612fc1565b9055612818600080808086335af1611a2661302b565b80600052600460205260406000209060005b825480821015611b0c5761283e828561309c565b905460039190911b1c6001600160a01b03163314611a73575060010161282a565b61286e916008611b7485612a44565b612818565b90506001600160401b03600461288885612a44565b500154169061464f198201918211610973576128a685924210612fce565b6127c1565b6128ba826008611bcd87612a44565b6127aa565b91606381029080820460631490151715610973576064900491612787565b3461017b57602036600319011261017b5760043560035481101561017b5761290490612a44565b5080546001600160a01b031661291c60018301612b0c565b9161292960028201612b0c565b61293560038301612b0c565b6004830154929061294860058301612b0c565b93600683015460ff1694600784015491600885015493600986015495600a0154966040519a8b9a8b5260208b0161020090526102008b0161298891612bb0565b8a810360408c015261299991612bb0565b89810360608b01526129aa91612bb0565b906001600160401b03811660808a01528060401c6001600160401b031660a08a01528060801c6001600160401b031660c08a015260c01c60e08901528781036101008901526129f891612bb0565b94151561012087015261014086015261016085015261018084015260ff81811615156101a0850152600882901c1615156101c084015260101c6001600160a01b03166101e08301520390f35b600354811015612a63576003600052600b602060002091020190600090565b634e487b7160e01b600052603260045260246000fd5b8054821015612a6357600052600b602060002091020190600090565b90600182811c92168015612ac5575b6020831014612aaf57565b634e487b7160e01b600052602260045260246000fd5b91607f1691612aa4565b61020081019081106001600160401b03821117610a4a57604052565b90601f801991011681019081106001600160401b03821117610a4a57604052565b9060405191826000825492612b2084612a95565b8084529360018116908115612b8e5750600114612b47575b50612b4592500383612aeb565b565b90506000929192526020600020906000915b818310612b72575050906020612b459282010138612b38565b6020919350806001915483858901015201910190918492612b59565b905060209250612b4594915060ff191682840152151560051b82010138612b38565b919082519283825260005b848110612bdc575050826000602080949584010152601f8019910116010190565b80602080928401015182828601015201612bbb565b9060018060a01b0382511681526101e0612ca9612c49612c37612c2560208701516102006020880152610200870190612bb0565b60408701518682036040880152612bb0565b60608601518582036060870152612bb0565b6001600160401b0360808601511660808501526001600160401b0360a08601511660a08501526001600160401b0360c08601511660c08501526001600160401b0360e08601511660e0850152610100850151848203610100860152612bb0565b9261012081015115156101208401526101408101516101408401526101608101516101608401526101808101516101808401526101a081015115156101a08401526101c081015115156101c08401528160018060a01b039101511691015290565b9080602083519182815201916020808360051b8301019401926000915b838310612d3657505050505090565b9091929394602080612d54600193601f198682030187528951612bf1565b97019301930191939290612d27565b9291604084019360408152825180955260206060820193016000955b808710612d9e575050612d9b9394506020818403910152612d0a565b90565b90936020806001928751815201950196019590612d7f565b600435906001600160a01b038216820361017b57565b9181601f8401121561017b578235916001600160401b03831161017b576020838186019501011161017b57565b906020808351928381520192019060005b818110612e175750505090565b82516001600160a01b0316845260209384019390920191600101612e0a565b15612e3d57565b60405162461bcd60e51b815260206004820152600d60248201526c125b9d985b1a5908195d995b9d609a1b6044820152606490fd5b15612e7957565b60405162461bcd60e51b8152602060048201526013602482015272115d995b9d08191bd95cdb89dd08195e1a5cdd606a1b6044820152606490fd5b15612ebb57565b60405162461bcd60e51b815260206004820152600f60248201526e10dbdb9d1c9858dd081c185d5cd959608a1b6044820152606490fd5b15612ef957565b60405162461bcd60e51b8152602060048201526013602482015272139bc81d1a58dad95d081c1d5c98da185cd959606a1b6044820152606490fd5b15612f3b57565b60405162461bcd60e51b8152602060048201526012602482015271496e73756666696369656e742066756e647360701b6044820152606490fd5b15612f7c57565b60405162461bcd60e51b815260206004820152601760248201527f496e73756666696369656e742043454c4f2066756e64730000000000000000006044820152606490fd5b9190820391821161097357565b15612fd557565b60405162461bcd60e51b81526020600482015260136024820152721499599d5b99081c195c9a5bd908195b991959606a1b6044820152606490fd5b6001600160401b038111610a4a57601f01601f191660200190565b3d15613056573d9061303c82613010565b9161304a6040519384612aeb565b82523d6000602084013e565b606090565b1561306257565b60405162461bcd60e51b815260206004820152601260248201527110d15313c81c99599d5b990819985a5b195960721b6044820152606490fd5b8054821015612a635760005260206000200190600090565b805480156130e15760001901906130cb828261309c565b81549060018060a01b039060031b1b1916905555565b634e487b7160e01b600052603160045260246000fd5b60001981146109735760010190565b6001600160401b038111610a4a5760051b60200190565b9061312782613106565b6131346040519182612aeb565b8281528092613145601f1991613106565b0190602036910137565b6040519061315c82612acf565b60006101e08382815260606020820152606060408201526060808201528260808201528260a08201528260c08201528260e0820152606061010082015282610120820152826101408201528261016082015282610180820152826101a0820152826101c08201520152565b906131d182613106565b6131de6040519182612aeb565b82815280926131ef601f1991613106565b019060005b82811061320057505050565b60209061320b61314f565b828285010152016131f4565b8051821015612a635760209160051b010190565b9060405161323881612acf565b82546001600160a01b031681529182906101e090600a9061325b60018201612b0c565b602085015261326c60028201612b0c565b604085015261327d60038201612b0c565b606085015260048101546001600160401b03811660808601526001600160401b038160401c1660a08601526001600160401b038160801c1660c086015260c01c60e08501526132ce60058201612b0c565b61010085015260ff6006820154161515610120850152600781015461014085015260088101546101608501526009810154610180850152015460ff811615156101a084015260ff8160081c1615156101c084015260018060a01b039060101c16910152565b90815461333f81613106565b9261334d6040519485612aeb565b818452602084019060005260206000206000915b83831061336e5750505050565b600b602060019261337e8561322b565b815201920192019190613361565b1561339357565b60405162461bcd60e51b815260206004820152600f60248201526e2737ba1032bb32b73a1037bbb732b960891b6044820152606490fd5b156133d157565b60405162461bcd60e51b815260206004820152601060248201526f125b9d985b1a5908195d995b9d08125160821b6044820152606490fd5b1561341057565b60405162461bcd60e51b815260206004820152600d60248201526c115d995b9d08195e1c1a5c9959609a1b6044820152606490fd5b1561344c57565b60405162461bcd60e51b815260206004820152600e60248201526d4576656e7420696e61637469766560901b6044820152606490fd5b1561348957565b60405162461bcd60e51b8152602060048201526011602482015270105b1c9958591e481c1d5c98da185cd959607a1b6044820152606490fd5b156134c957565b60405162461bcd60e51b81526020600482015260116024820152704576656e7420617420636170616369747960781b6044820152606490fd5b1561350957565b60405162461bcd60e51b8152602060048201526016602482015275496e73756666696369656e7420616c6c6f77616e636560501b6044820152606490fd5b9190820180921161097357565b9081602091031261017b5751801515810361017b5790565b90815491600160401b831015610a4a5782611ab0916001612b459501815561309c565b906040519182815491828252602082019060005260206000209260005b8181106135c1575050612b4592500383612aeb565b84546001600160a01b03168352600194850194879450602090930192016135ac565b9291926135ef82613010565b916135fd6040519384612aeb565b82948184528183011161017b578281602093846000960137010152565b60026000541461362b576002600055565b633ee5aeb560e01b60005260046000fd5b60405163a9059cbb60e01b60208083019182526001600160a01b03949094166024830152604480830195909552938152909260009161367c606482612aeb565b519082855af11561181f576000513d6136c557506001600160a01b0381163b155b6136a45750565b635274afe760e01b60009081526001600160a01b0391909116600452602490fd5b6001141561369d565b6040516323b872dd60e01b81526001600160a01b03928316600482015292821660248401526044830193909352909160209183916064918391600091165af190811561181f5760009161375b575b501561372457565b60405162461bcd60e51b815260206004820152600f60248201526e151c985b9cd9995c8819985a5b1959608a1b6044820152606490fd5b613774915060203d602011611818576118098183612aeb565b3861371c56fe504ef6dabca28c1452704d54bd8e25708d87e0c27d852eceea53a0c0d8986758a2646970667358221220834c7e8526f32bddec3d8a9b12db063cc54a7cf8daa01753ce0959e21d70d3c064736f6c634300081c0033",
    "linkReferences": {},
    "deployedLinkReferences": {}
}