{
    "_format": "hh-sol-artifact-1",
    "contractName": "EventChain",
    "sourceName": "contracts/EventChain.sol",
    "abi": [
        {
            "inputs": [
                {
                    "internalType": "address[]",
                    "name": "_supportedTokens",
                    "type": "address[]"
                }
            ],
            "stateMutability": "nonpayable",
            "type": "constructor"
        },
        {
            "inputs": [],
            "name": "ReentrancyGuardReentrantCall",
            "type": "error"
        },
        {
            "anonymous": false,
            "inputs": [
                {
                    "indexed": true,
                    "internalType": "uint256",
                    "name": "eventId",
                    "type": "uint256"
                }
            ],
            "name": "EventCanceled",
            "type": "event"
        },
        {
            "anonymous": false,
            "inputs": [
                {
                    "indexed": true,
                    "internalType": "uint256",
                    "name": "eventId",
                    "type": "uint256"
                },
                {
                    "indexed": true,
                    "internalType": "address",
                    "name": "owner",
                    "type": "address"
                },
                {
                    "indexed": false,
                    "internalType": "string",
                    "name": "eventName",
                    "type": "string"
                }
            ],
            "name": "EventCreated",
            "type": "event"
        },
        {
            "anonymous": false,
            "inputs": [
                {
                    "indexed": true,
                    "internalType": "uint256",
                    "name": "eventId",
                    "type": "uint256"
                },
                {
                    "indexed": true,
                    "internalType": "address",
                    "name": "owner",
                    "type": "address"
                },
                {
                    "indexed": false,
                    "internalType": "string",
                    "name": "eventName",
                    "type": "string"
                }
            ],
            "name": "EventUpdated",
            "type": "event"
        },
        {
            "anonymous": false,
            "inputs": [
                {
                    "indexed": true,
                    "internalType": "uint256",
                    "name": "eventId",
                    "type": "uint256"
                },
                {
                    "indexed": false,
                    "internalType": "uint256",
                    "name": "amount",
                    "type": "uint256"
                }
            ],
            "name": "FundsReleased",
            "type": "event"
        },
        {
            "anonymous": false,
            "inputs": [
                {
                    "indexed": true,
                    "internalType": "uint256",
                    "name": "eventId",
                    "type": "uint256"
                },
                {
                    "indexed": true,
                    "internalType": "address",
                    "name": "user",
                    "type": "address"
                },
                {
                    "indexed": false,
                    "internalType": "uint256",
                    "name": "amount",
                    "type": "uint256"
                }
            ],
            "name": "RefundIssued",
            "type": "event"
        },
        {
            "anonymous": false,
            "inputs": [
                {
                    "indexed": true,
                    "internalType": "uint256",
                    "name": "eventId",
                    "type": "uint256"
                },
                {
                    "indexed": true,
                    "internalType": "address",
                    "name": "buyer",
                    "type": "address"
                },
                {
                    "indexed": false,
                    "internalType": "uint256",
                    "name": "amount",
                    "type": "uint256"
                },
                {
                    "indexed": false,
                    "internalType": "address",
                    "name": "paymentToken",
                    "type": "address"
                }
            ],
            "name": "TicketPurchased",
            "type": "event"
        },
        {
            "inputs": [],
            "name": "MAX_ATTENDEES",
            "outputs": [
                {
                    "internalType": "uint256",
                    "name": "",
                    "type": "uint256"
                }
            ],
            "stateMutability": "view",
            "type": "function"
        },
        {
            "inputs": [],
            "name": "MAX_DETAILS_LENGTH",
            "outputs": [
                {
                    "internalType": "uint256",
                    "name": "",
                    "type": "uint256"
                }
            ],
            "stateMutability": "view",
            "type": "function"
        },
        {
            "inputs": [],
            "name": "MAX_LOCATION_LENGTH",
            "outputs": [
                {
                    "internalType": "uint256",
                    "name": "",
                    "type": "uint256"
                }
            ],
            "stateMutability": "view",
            "type": "function"
        },
        {
            "inputs": [],
            "name": "MAX_NAME_LENGTH",
            "outputs": [
                {
                    "internalType": "uint256",
                    "name": "",
                    "type": "uint256"
                }
            ],
            "stateMutability": "view",
            "type": "function"
        },
        {
            "inputs": [],
            "name": "MAX_TICKET_PRICE",
            "outputs": [
                {
                    "internalType": "uint256",
                    "name": "",
                    "type": "uint256"
                }
            ],
            "stateMutability": "view",
            "type": "function"
        },
        {
            "inputs": [],
            "name": "MAX_URL_LENGTH",
            "outputs": [
                {
                    "internalType": "uint256",
                    "name": "",
                    "type": "uint256"
                }
            ],
            "stateMutability": "view",
            "type": "function"
        },
        {
            "inputs": [],
            "name": "MIN_EVENT_DURATION",
            "outputs": [
                {
                    "internalType": "uint256",
                    "name": "",
                    "type": "uint256"
                }
            ],
            "stateMutability": "view",
            "type": "function"
        },
        {
            "inputs": [],
            "name": "REFUND_BUFFER",
            "outputs": [
                {
                    "internalType": "uint256",
                    "name": "",
                    "type": "uint256"
                }
            ],
            "stateMutability": "view",
            "type": "function"
        },
        {
            "inputs": [
                {
                    "internalType": "uint256",
                    "name": "_index",
                    "type": "uint256"
                }
            ],
            "name": "buyTicket",
            "outputs": [],
            "stateMutability": "nonpayable",
            "type": "function"
        },
        {
            "inputs": [
                {
                    "internalType": "uint256",
                    "name": "_index",
                    "type": "uint256"
                }
            ],
            "name": "buyTicket1",
            "outputs": [],
            "stateMutability": "nonpayable",
            "type": "function"
        },
        {
            "inputs": [
                {
                    "internalType": "uint256",
                    "name": "_index",
                    "type": "uint256"
                }
            ],
            "name": "cancelEvent",
            "outputs": [],
            "stateMutability": "nonpayable",
            "type": "function"
        },
        {
            "inputs": [
                {
                    "internalType": "string",
                    "name": "_eventName",
                    "type": "string"
                },
                {
                    "internalType": "string",
                    "name": "_eventCardImgUrl",
                    "type": "string"
                },
                {
                    "internalType": "string",
                    "name": "_eventDetails",
                    "type": "string"
                },
                {
                    "internalType": "uint64",
                    "name": "_startDate",
                    "type": "uint64"
                },
                {
                    "internalType": "uint64",
                    "name": "_endDate",
                    "type": "uint64"
                },
                {
                    "internalType": "uint64",
                    "name": "_startTime",
                    "type": "uint64"
                },
                {
                    "internalType": "uint64",
                    "name": "_endTime",
                    "type": "uint64"
                },
                {
                    "internalType": "string",
                    "name": "_eventLocation",
                    "type": "string"
                },
                {
                    "internalType": "uint256",
                    "name": "_ticketPrice",
                    "type": "uint256"
                },
                {
                    "internalType": "uint256",
                    "name": "_minimumAge",
                    "type": "uint256"
                },
                {
                    "internalType": "address",
                    "name": "_paymentToken",
                    "type": "address"
                }
            ],
            "name": "createEvent",
            "outputs": [],
            "stateMutability": "nonpayable",
            "type": "function"
        },
        {
            "inputs": [
                {
                    "internalType": "uint256",
                    "name": "",
                    "type": "uint256"
                }
            ],
            "name": "events",
            "outputs": [
                {
                    "internalType": "address",
                    "name": "owner",
                    "type": "address"
                },
                {
                    "internalType": "string",
                    "name": "eventName",
                    "type": "string"
                },
                {
                    "internalType": "string",
                    "name": "eventCardImgUrl",
                    "type": "string"
                },
                {
                    "internalType": "string",
                    "name": "eventDetails",
                    "type": "string"
                },
                {
                    "internalType": "uint64",
                    "name": "startDate",
                    "type": "uint64"
                },
                {
                    "internalType": "uint64",
                    "name": "endDate",
                    "type": "uint64"
                },
                {
                    "internalType": "uint64",
                    "name": "startTime",
                    "type": "uint64"
                },
                {
                    "internalType": "uint64",
                    "name": "endTime",
                    "type": "uint64"
                },
                {
                    "internalType": "string",
                    "name": "eventLocation",
                    "type": "string"
                },
                {
                    "internalType": "bool",
                    "name": "isActive",
                    "type": "bool"
                },
                {
                    "internalType": "uint256",
                    "name": "ticketPrice",
                    "type": "uint256"
                },
                {
                    "internalType": "uint256",
                    "name": "fundsHeld",
                    "type": "uint256"
                },
                {
                    "internalType": "uint256",
                    "name": "minimumAge",
                    "type": "uint256"
                },
                {
                    "internalType": "bool",
                    "name": "isCanceled",
                    "type": "bool"
                },
                {
                    "internalType": "bool",
                    "name": "fundsReleased",
                    "type": "bool"
                },
                {
                    "internalType": "address",
                    "name": "paymentToken",
                    "type": "address"
                }
            ],
            "stateMutability": "view",
            "type": "function"
        },
        {
            "inputs": [],
            "name": "getActiveEventsByCreator",
            "outputs": [
                {
                    "internalType": "uint256[]",
                    "name": "",
                    "type": "uint256[]"
                },
                {
                    "components": [
                        {
                            "internalType": "address",
                            "name": "owner",
                            "type": "address"
                        },
                        {
                            "internalType": "string",
                            "name": "eventName",
                            "type": "string"
                        },
                        {
                            "internalType": "string",
                            "name": "eventCardImgUrl",
                            "type": "string"
                        },
                        {
                            "internalType": "string",
                            "name": "eventDetails",
                            "type": "string"
                        },
                        {
                            "internalType": "uint64",
                            "name": "startDate",
                            "type": "uint64"
                        },
                        {
                            "internalType": "uint64",
                            "name": "endDate",
                            "type": "uint64"
                        },
                        {
                            "internalType": "uint64",
                            "name": "startTime",
                            "type": "uint64"
                        },
                        {
                            "internalType": "uint64",
                            "name": "endTime",
                            "type": "uint64"
                        },
                        {
                            "internalType": "string",
                            "name": "eventLocation",
                            "type": "string"
                        },
                        {
                            "internalType": "bool",
                            "name": "isActive",
                            "type": "bool"
                        },
                        {
                            "internalType": "uint256",
                            "name": "ticketPrice",
                            "type": "uint256"
                        },
                        {
                            "internalType": "uint256",
                            "name": "fundsHeld",
                            "type": "uint256"
                        },
                        {
                            "internalType": "uint256",
                            "name": "minimumAge",
                            "type": "uint256"
                        },
                        {
                            "internalType": "bool",
                            "name": "isCanceled",
                            "type": "bool"
                        },
                        {
                            "internalType": "bool",
                            "name": "fundsReleased",
                            "type": "bool"
                        },
                        {
                            "internalType": "address",
                            "name": "paymentToken",
                            "type": "address"
                        }
                    ],
                    "internalType": "struct EventChain.Event[]",
                    "name": "",
                    "type": "tuple[]"
                }
            ],
            "stateMutability": "view",
            "type": "function"
        },
        {
            "inputs": [],
            "name": "getAllEvents",
            "outputs": [
                {
                    "internalType": "uint256[]",
                    "name": "",
                    "type": "uint256[]"
                },
                {
                    "components": [
                        {
                            "internalType": "address",
                            "name": "owner",
                            "type": "address"
                        },
                        {
                            "internalType": "string",
                            "name": "eventName",
                            "type": "string"
                        },
                        {
                            "internalType": "string",
                            "name": "eventCardImgUrl",
                            "type": "string"
                        },
                        {
                            "internalType": "string",
                            "name": "eventDetails",
                            "type": "string"
                        },
                        {
                            "internalType": "uint64",
                            "name": "startDate",
                            "type": "uint64"
                        },
                        {
                            "internalType": "uint64",
                            "name": "endDate",
                            "type": "uint64"
                        },
                        {
                            "internalType": "uint64",
                            "name": "startTime",
                            "type": "uint64"
                        },
                        {
                            "internalType": "uint64",
                            "name": "endTime",
                            "type": "uint64"
                        },
                        {
                            "internalType": "string",
                            "name": "eventLocation",
                            "type": "string"
                        },
                        {
                            "internalType": "bool",
                            "name": "isActive",
                            "type": "bool"
                        },
                        {
                            "internalType": "uint256",
                            "name": "ticketPrice",
                            "type": "uint256"
                        },
                        {
                            "internalType": "uint256",
                            "name": "fundsHeld",
                            "type": "uint256"
                        },
                        {
                            "internalType": "uint256",
                            "name": "minimumAge",
                            "type": "uint256"
                        },
                        {
                            "internalType": "bool",
                            "name": "isCanceled",
                            "type": "bool"
                        },
                        {
                            "internalType": "bool",
                            "name": "fundsReleased",
                            "type": "bool"
                        },
                        {
                            "internalType": "address",
                            "name": "paymentToken",
                            "type": "address"
                        }
                    ],
                    "internalType": "struct EventChain.Event[]",
                    "name": "",
                    "type": "tuple[]"
                }
            ],
            "stateMutability": "view",
            "type": "function"
        },
        {
            "inputs": [
                {
                    "internalType": "uint256",
                    "name": "_index",
                    "type": "uint256"
                }
            ],
            "name": "getAttendees",
            "outputs": [
                {
                    "internalType": "address[]",
                    "name": "",
                    "type": "address[]"
                }
            ],
            "stateMutability": "view",
            "type": "function"
        },
        {
            "inputs": [
                {
                    "internalType": "uint256",
                    "name": "_index",
                    "type": "uint256"
                }
            ],
            "name": "getEventById",
            "outputs": [
                {
                    "components": [
                        {
                            "internalType": "address",
                            "name": "owner",
                            "type": "address"
                        },
                        {
                            "internalType": "string",
                            "name": "eventName",
                            "type": "string"
                        },
                        {
                            "internalType": "string",
                            "name": "eventCardImgUrl",
                            "type": "string"
                        },
                        {
                            "internalType": "string",
                            "name": "eventDetails",
                            "type": "string"
                        },
                        {
                            "internalType": "uint64",
                            "name": "startDate",
                            "type": "uint64"
                        },
                        {
                            "internalType": "uint64",
                            "name": "endDate",
                            "type": "uint64"
                        },
                        {
                            "internalType": "uint64",
                            "name": "startTime",
                            "type": "uint64"
                        },
                        {
                            "internalType": "uint64",
                            "name": "endTime",
                            "type": "uint64"
                        },
                        {
                            "internalType": "string",
                            "name": "eventLocation",
                            "type": "string"
                        },
                        {
                            "internalType": "bool",
                            "name": "isActive",
                            "type": "bool"
                        },
                        {
                            "internalType": "uint256",
                            "name": "ticketPrice",
                            "type": "uint256"
                        },
                        {
                            "internalType": "uint256",
                            "name": "fundsHeld",
                            "type": "uint256"
                        },
                        {
                            "internalType": "uint256",
                            "name": "minimumAge",
                            "type": "uint256"
                        },
                        {
                            "internalType": "bool",
                            "name": "isCanceled",
                            "type": "bool"
                        },
                        {
                            "internalType": "bool",
                            "name": "fundsReleased",
                            "type": "bool"
                        },
                        {
                            "internalType": "address",
                            "name": "paymentToken",
                            "type": "address"
                        }
                    ],
                    "internalType": "struct EventChain.Event",
                    "name": "",
                    "type": "tuple"
                },
                {
                    "internalType": "address[]",
                    "name": "",
                    "type": "address[]"
                },
                {
                    "components": [
                        {
                            "internalType": "address",
                            "name": "owner",
                            "type": "address"
                        },
                        {
                            "internalType": "string",
                            "name": "eventName",
                            "type": "string"
                        },
                        {
                            "internalType": "string",
                            "name": "eventCardImgUrl",
                            "type": "string"
                        },
                        {
                            "internalType": "string",
                            "name": "eventDetails",
                            "type": "string"
                        },
                        {
                            "internalType": "uint64",
                            "name": "startDate",
                            "type": "uint64"
                        },
                        {
                            "internalType": "uint64",
                            "name": "endDate",
                            "type": "uint64"
                        },
                        {
                            "internalType": "uint64",
                            "name": "startTime",
                            "type": "uint64"
                        },
                        {
                            "internalType": "uint64",
                            "name": "endTime",
                            "type": "uint64"
                        },
                        {
                            "internalType": "string",
                            "name": "eventLocation",
                            "type": "string"
                        },
                        {
                            "internalType": "bool",
                            "name": "isActive",
                            "type": "bool"
                        },
                        {
                            "internalType": "uint256",
                            "name": "ticketPrice",
                            "type": "uint256"
                        },
                        {
                            "internalType": "uint256",
                            "name": "fundsHeld",
                            "type": "uint256"
                        },
                        {
                            "internalType": "uint256",
                            "name": "minimumAge",
                            "type": "uint256"
                        },
                        {
                            "internalType": "bool",
                            "name": "isCanceled",
                            "type": "bool"
                        },
                        {
                            "internalType": "bool",
                            "name": "fundsReleased",
                            "type": "bool"
                        },
                        {
                            "internalType": "address",
                            "name": "paymentToken",
                            "type": "address"
                        }
                    ],
                    "internalType": "struct EventChain.Event[]",
                    "name": "",
                    "type": "tuple[]"
                }
            ],
            "stateMutability": "view",
            "type": "function"
        },
        {
            "inputs": [],
            "name": "getEventLength",
            "outputs": [
                {
                    "internalType": "uint256",
                    "name": "",
                    "type": "uint256"
                }
            ],
            "stateMutability": "view",
            "type": "function"
        },
        {
            "inputs": [
                {
                    "internalType": "address",
                    "name": "_creator",
                    "type": "address"
                }
            ],
            "name": "getEventsByCreator",
            "outputs": [
                {
                    "components": [
                        {
                            "internalType": "address",
                            "name": "owner",
                            "type": "address"
                        },
                        {
                            "internalType": "string",
                            "name": "eventName",
                            "type": "string"
                        },
                        {
                            "internalType": "string",
                            "name": "eventCardImgUrl",
                            "type": "string"
                        },
                        {
                            "internalType": "string",
                            "name": "eventDetails",
                            "type": "string"
                        },
                        {
                            "internalType": "uint64",
                            "name": "startDate",
                            "type": "uint64"
                        },
                        {
                            "internalType": "uint64",
                            "name": "endDate",
                            "type": "uint64"
                        },
                        {
                            "internalType": "uint64",
                            "name": "startTime",
                            "type": "uint64"
                        },
                        {
                            "internalType": "uint64",
                            "name": "endTime",
                            "type": "uint64"
                        },
                        {
                            "internalType": "string",
                            "name": "eventLocation",
                            "type": "string"
                        },
                        {
                            "internalType": "bool",
                            "name": "isActive",
                            "type": "bool"
                        },
                        {
                            "internalType": "uint256",
                            "name": "ticketPrice",
                            "type": "uint256"
                        },
                        {
                            "internalType": "uint256",
                            "name": "fundsHeld",
                            "type": "uint256"
                        },
                        {
                            "internalType": "uint256",
                            "name": "minimumAge",
                            "type": "uint256"
                        },
                        {
                            "internalType": "bool",
                            "name": "isCanceled",
                            "type": "bool"
                        },
                        {
                            "internalType": "bool",
                            "name": "fundsReleased",
                            "type": "bool"
                        },
                        {
                            "internalType": "address",
                            "name": "paymentToken",
                            "type": "address"
                        }
                    ],
                    "internalType": "struct EventChain.Event[]",
                    "name": "",
                    "type": "tuple[]"
                }
            ],
            "stateMutability": "view",
            "type": "function"
        },
        {
            "inputs": [],
            "name": "getUserEvents",
            "outputs": [
                {
                    "internalType": "uint256[]",
                    "name": "",
                    "type": "uint256[]"
                },
                {
                    "components": [
                        {
                            "internalType": "address",
                            "name": "owner",
                            "type": "address"
                        },
                        {
                            "internalType": "string",
                            "name": "eventName",
                            "type": "string"
                        },
                        {
                            "internalType": "string",
                            "name": "eventCardImgUrl",
                            "type": "string"
                        },
                        {
                            "internalType": "string",
                            "name": "eventDetails",
                            "type": "string"
                        },
                        {
                            "internalType": "uint64",
                            "name": "startDate",
                            "type": "uint64"
                        },
                        {
                            "internalType": "uint64",
                            "name": "endDate",
                            "type": "uint64"
                        },
                        {
                            "internalType": "uint64",
                            "name": "startTime",
                            "type": "uint64"
                        },
                        {
                            "internalType": "uint64",
                            "name": "endTime",
                            "type": "uint64"
                        },
                        {
                            "internalType": "string",
                            "name": "eventLocation",
                            "type": "string"
                        },
                        {
                            "internalType": "bool",
                            "name": "isActive",
                            "type": "bool"
                        },
                        {
                            "internalType": "uint256",
                            "name": "ticketPrice",
                            "type": "uint256"
                        },
                        {
                            "internalType": "uint256",
                            "name": "fundsHeld",
                            "type": "uint256"
                        },
                        {
                            "internalType": "uint256",
                            "name": "minimumAge",
                            "type": "uint256"
                        },
                        {
                            "internalType": "bool",
                            "name": "isCanceled",
                            "type": "bool"
                        },
                        {
                            "internalType": "bool",
                            "name": "fundsReleased",
                            "type": "bool"
                        },
                        {
                            "internalType": "address",
                            "name": "paymentToken",
                            "type": "address"
                        }
                    ],
                    "internalType": "struct EventChain.Event[]",
                    "name": "",
                    "type": "tuple[]"
                }
            ],
            "stateMutability": "view",
            "type": "function"
        },
        {
            "inputs": [
                {
                    "internalType": "uint256",
                    "name": "",
                    "type": "uint256"
                },
                {
                    "internalType": "address",
                    "name": "",
                    "type": "address"
                }
            ],
            "name": "hasPurchasedTicket",
            "outputs": [
                {
                    "internalType": "bool",
                    "name": "",
                    "type": "bool"
                }
            ],
            "stateMutability": "view",
            "type": "function"
        },
        {
            "inputs": [
                {
                    "internalType": "address",
                    "name": "from",
                    "type": "address"
                },
                {
                    "internalType": "uint256",
                    "name": "value",
                    "type": "uint256"
                },
                {
                    "internalType": "bytes",
                    "name": "data",
                    "type": "bytes"
                }
            ],
            "name": "onTokenTransfer",
            "outputs": [
                {
                    "internalType": "bool",
                    "name": "",
                    "type": "bool"
                }
            ],
            "stateMutability": "nonpayable",
            "type": "function"
        },
        {
            "inputs": [],
            "name": "paused",
            "outputs": [
                {
                    "internalType": "bool",
                    "name": "",
                    "type": "bool"
                }
            ],
            "stateMutability": "view",
            "type": "function"
        },
        {
            "inputs": [
                {
                    "internalType": "uint256",
                    "name": "_index",
                    "type": "uint256"
                }
            ],
            "name": "releaseFunds",
            "outputs": [],
            "stateMutability": "nonpayable",
            "type": "function"
        },
        {
            "inputs": [
                {
                    "internalType": "uint256",
                    "name": "_index",
                    "type": "uint256"
                }
            ],
            "name": "requestRefund",
            "outputs": [],
            "stateMutability": "nonpayable",
            "type": "function"
        },
        {
            "inputs": [
                {
                    "internalType": "uint256",
                    "name": "_index",
                    "type": "uint256"
                }
            ],
            "name": "requestRefund1",
            "outputs": [],
            "stateMutability": "nonpayable",
            "type": "function"
        },
        {
            "inputs": [
                {
                    "internalType": "address",
                    "name": "",
                    "type": "address"
                }
            ],
            "name": "supportedTokens",
            "outputs": [
                {
                    "internalType": "bool",
                    "name": "",
                    "type": "bool"
                }
            ],
            "stateMutability": "view",
            "type": "function"
        },
        {
            "inputs": [],
            "name": "ubiPool",
            "outputs": [
                {
                    "internalType": "address",
                    "name": "",
                    "type": "address"
                }
            ],
            "stateMutability": "view",
            "type": "function"
        }
    ],
    "bytecode": "0x60806040523461011f57613772803803806100198161013a565b92833981019060208183031261011f578051906001600160401b03821161011f570181601f8201121561011f578051916001600160401b038311610124578260051b9160208061006a81860161013a565b80968152019382010191821161011f57602001915b8183106100ff576001600090815560028054610100600160a81b0319167443d72ff17701b2da814620735c39c620ce0ea4a10017905584905b81518110156100f05760019060406000838060a01b0360208460051b8701015116815283602052208260ff19825416179055016100b8565b60405161361290816101608239f35b82516001600160a01b038116810361011f5781526020928301920161007f565b600080fd5b634e487b7160e01b600052604160045260246000fd5b6040519190601f01601f191682016001600160401b038111838210176101245760405256fe6080604052600436101561001257600080fd5b60003560e01c80630b791430146126d95780630ec7c3ff146125ea5780630f977561146124f55780631ac78969146124d8578063200205811461248a5780633f69babd146123a0578063402f979d14612108578063439fd35f146120b05780634d68282f14611e2157806350d9c62d14611e045780635c975abb14611de15780635c98dfa114611dc3578063617148e514611da657806367dd74ca14611ae057806368c4ac2614611aa15780637b426cbf14611a845780638607498514611a68578063a06f7da714611a3b578063a4b2409e146118f8578063a4c0ed3614611585578063abf45ec814611569578063b5e4128714611544578063b98079bc14611452578063c27a500d1461139e578063cb71146e14611382578063ccfd6d3c14611256578063e0c14377146112055763f57c7ad81461015057600080fd5b3461120057610160366003190112611200576004356001600160401b03811161120057610181903690600401612bc8565b906024356001600160401b038111611200576101a1903690600401612bc8565b906044356001600160401b038111611200576101c1903690600401612bc8565b906064356001600160401b038116809103611200576084356001600160401b0381168091036112005760a4356001600160401b0381168091036112005760c435916001600160401b0383168093036112005760e4356001600160401b03811161120057610232903690600401612bc8565b9490956101043597610144359960018060a01b038b16809b036112005761025e60ff6002541615612cb0565b8d15158e816111f4575b50156111c0578b1515806111b5575b156111825781151580611176575b1561113f5787151580611134575b156110fc57891515806110e8575b156110b3578a1561107e5742841061103957610e108401808511610949578510610fff578a600052600160205260ff6040600020541615610fc6578c9b8e6040519d8e916102ee836128cb565b33835236906102fc9261330c565b9060200152369061030c9261330c565b60408c0152369061031c9261330c565b60608a0152608089015260a088015260c087015260e086015236906103409261330c565b610100840152600161012084015261014083015260006101608301819052610124356101808401526101a083018190526101c08301526101e0820152600354600160401b811015610a205780600161039d92016003556003612875565b610c7f57815181546001600160a01b0319166001600160a01b039190911617815560208201518051906001600160401b038211610a205781906103e36001850154612891565b601f8111610f73575b50602090601f8311600114610f0257600092610ef7575b50508160011b916000199060031b1c19161760018201555b60408201518051906001600160401b038211610a205781906104406002850154612891565b601f8111610ea4575b50602090601f8311600114610e3357600092610e28575b50508160011b916000199060031b1c19161760028201555b60608201518051906001600160401b038211610a2057819061049d6003850154612891565b601f8111610dd5575b50602090601f8311600114610d6457600092610d59575b50508160011b916000199060031b1c19161760038201555b60808281015160a084015160c08086015160e087015160409390931b67ffffffffffffffff60401b166001600160401b0394851617941b67ffffffffffffffff60801b1693909317921b6001600160c01b0319169190911760048301556101008301518051918211610a205761054e6005840154612891565b601f8111610d12575b50602090601f8311600114610ca057600a93929160009183610c95575b50508160011b916000199060031b1c19161760058201555b6105ac6101208401511515600683019060ff801983541691151516179055565b610140830151600782015561016083015160088201556101808301516009820155016105eb6101a08301511515829060ff801983541691151516179055565b6101c0820151815461ff00191690151560081b61ff00161781556101e0820151815462010000600160b01b03191660109190911b62010000600160b01b03161790553360009081526005602052604090208054600160401b811015610a205761065991600182018155612875565b610c7f57815181546001600160a01b0319166001600160a01b03919091161781556020820151805160018301916001600160401b038211610a205781906106a08454612891565b601f8111610c2c575b50602090601f8311600114610bc757600092610bbc575b50508160011b916000199060031b1c19161790555b6002810160408301518051906001600160401b038211610a205781906106fb8454612891565b601f8111610b69575b50602090601f8311600114610b0457600092610af9575b50508160011b916000199060031b1c19161790555b6003810160608301518051906001600160401b038211610a205781906107568454612891565b601f8111610aa6575b50602090601f8311600114610a4157600092610a36575b50508160011b916000199060031b1c19161790555b60808281015160a084015160c08086015160e087015160409390931b67ffffffffffffffff60401b166001600160401b0394851617941b67ffffffffffffffff60801b1693909317921b6001600160c01b031916919091176004830155610100830151805160058401929091908211610a20576108088354612891565b601f81116109d8575b50602090601f831160011461096a579180600a94926101e0969460009261095f575b50508160011b916000199060031b1c19161790555b6108686101208501511515600683019060ff801983541691151516179055565b61014084015160078201556101608401516008820155610180840151600982015501916108a86101a08201511515849060ff801983541691151516179055565b6101c0810151835461ff00191690151560081b61ff00161783550151815462010000600160b01b03191660109190911b62010000600160b01b0316179055600354600019810191908211610949577ffc695dea2478fb938a11068aeedddd7046a5fe655f136e30a325d353fe187a459083604051916020835281602084015260408301376000604085830101526040813395601f80199101168101030190a3005b634e487b7160e01b600052601160045260246000fd5b015190503880610833565b90601f1983169184600052816000209260005b8181106109c057509260019285926101e09896600a9896106109a7575b505050811b019055610848565b015160001960f88460031b161c1916905538808061099a565b9293602060018192878601518155019501930161097d565b836000526020600020601f840160051c81019160208510610a16575b601f0160051c01905b818110610a0a5750610811565b600081556001016109fd565b90915081906109f4565b634e487b7160e01b600052604160045260246000fd5b015190503880610776565b60008581528281209350601f198516905b818110610a8e5750908460019594939210610a75575b505050811b01905561078b565b015160001960f88460031b161c19169055388080610a68565b92936020600181928786015181550195019301610a52565b909150836000526020600020601f840160051c81019160208510610aef575b90601f859493920160051c01905b818110610ae0575061075f565b60008155849350600101610ad3565b9091508190610ac5565b01519050388061071b565b60008581528281209350601f198516905b818110610b515750908460019594939210610b38575b505050811b019055610730565b015160001960f88460031b161c19169055388080610b2b565b92936020600181928786015181550195019301610b15565b909150836000526020600020601f840160051c81019160208510610bb2575b90601f859493920160051c01905b818110610ba35750610704565b60008155849350600101610b96565b9091508190610b88565b0151905038806106c0565b60008581528281209350601f198516905b818110610c145750908460019594939210610bfb575b505050811b0190556106d5565b015160001960f88460031b161c19169055388080610bee565b92936020600181928786015181550195019301610bd8565b909150836000526020600020601f840160051c81019160208510610c75575b90601f859493920160051c01905b818110610c6657506106a9565b60008155849350600101610c59565b9091508190610c4b565b634e487b7160e01b600052600060045260246000fd5b015190503880610574565b9060058401600052806000209160005b601f1985168110610cfa5750918391600193600a9695601f19811610610ce1575b505050811b01600582015561058c565b015160001960f88460031b161c19169055388080610cd1565b91926020600181928685015181550194019201610cb0565b600584016000526020600020601f840160051c810160208510610d52575b601f830160051c82018110610d46575050610557565b60008155600101610d30565b5080610d30565b0151905038806104bd565b92506003840160005280600020906000935b601f1984168510610dba576001945083601f19811610610da1575b505050811b0160038201556104d5565b015160001960f88460031b161c19169055388080610d91565b81810151835560209485019460019093019290910190610d76565b909150600384016000526020600020601f840160051c810160208510610e21575b90849392915b601f830160051c82018110610e125750506104a6565b60008155859450600101610dfc565b5080610df6565b015190503880610460565b92506002840160005280600020906000935b601f1984168510610e89576001945083601f19811610610e70575b505050811b016002820155610478565b015160001960f88460031b161c19169055388080610e60565b81810151835560209485019460019093019290910190610e45565b909150600284016000526020600020601f840160051c810160208510610ef0575b90849392915b601f830160051c82018110610ee1575050610449565b60008155859450600101610ecb565b5080610ec5565b015190503880610403565b92506001840160005280600020906000935b601f1984168510610f58576001945083601f19811610610f3f575b505050811b01600182015561041b565b015160001960f88460031b161c19169055388080610f2f565b81810151835560209485019460019093019290910190610f14565b909150600184016000526020600020601f840160051c810160208510610fbf575b90849392915b601f830160051c82018110610fb05750506103ec565b60008155859450600101610f9a565b5080610f94565b60405162461bcd60e51b81526020600482015260116024820152702ab739bab83837b93a32b2103a37b5b2b760791b6044820152606490fd5b60405162461bcd60e51b8152602060048201526012602482015271111d5c985d1a5bdb881d1bdbc81cda1bdc9d60721b6044820152606490fd5b60405162461bcd60e51b815260206004820152601960248201527f53746172742064617465206d75737420626520667574757265000000000000006044820152606490fd5b60405162461bcd60e51b815260206004820152600d60248201526c24b73b30b634b2103a37b5b2b760991b6044820152606490fd5b60405162461bcd60e51b815260206004820152600d60248201526c496e76616c696420707269636560981b6044820152606490fd5b5069d3c21bcecceda10000008a11156102a1565b60405162461bcd60e51b815260206004820152601060248201526f24b73b30b634b2103637b1b0ba34b7b760811b6044820152606490fd5b506096881115610293565b60405162461bcd60e51b815260206004820152600f60248201526e496e76616c69642064657461696c7360881b6044820152606490fd5b506103e8821115610285565b60405162461bcd60e51b815260206004820152600b60248201526a125b9d985b1a590815549360aa1b6044820152606490fd5b5060c88c1115610277565b60405162461bcd60e51b815260206004820152600c60248201526b496e76616c6964206e616d6560a01b6044820152606490fd5b6064915011158e610268565b600080fd5b34611200576020366003190112611200576004356112266003548210613279565b600052600460205261125261123e60406000206132b8565b604051918291602083526020830190612bf5565b0390f35b34611200576000366003190112611200576003546000805b82811061132e575061128861128282612de6565b91612e90565b916000805b8281106112a65750505061125260405192839283612b5f565b6112af81612840565b50546001600160a01b0316331480611317575b6112cf575b60010161128d565b9061130f81836112e160019488612ee0565b526112f46112ee85612840565b50612ef4565b6112fe8289612ee0565b526113098188612ee0565b50612dc0565b9190506112c7565b5060ff600661132583612840565b500154166112c2565b61133781612840565b50546001600160a01b031633148061136b575b611357575b60010161126e565b90611363600191612dc0565b91905061134f565b5060ff600661137983612840565b5001541661134a565b3461120057600036600319011261120057602060405160c88152f35b34611200576000366003190112611200576003546000805b82811061142057506113ca61128282612de6565b916000805b8281106113e85750505061125260405192839283612b5f565b60ff60066113f583612840565b50015416611406575b6001016113cf565b9061141881836112e160019488612ee0565b9190506113fe565b60ff600661142d83612840565b5001541661143e575b6001016113b6565b9061144a600191612dc0565b919050611436565b346112005760203660031901126112005760043561146e612e18565b5060035481101561150857806112526114896114ec93612840565b508260005260046020526114a1604060002093612840565b5060018060a01b0390541660005260056020526114fa6114d76114d16114cb604060002094612ef4565b956132b8565b92612ffc565b916040519586956060875260608701906129ed565b908582036020870152612bf5565b908382036040850152612b06565b60405162461bcd60e51b8152602060048201526014602482015273115d995b9d08191bd95cc81b9bdd08195e1a5cdd60621b6044820152606490fd5b3461120057600036600319011261120057602060405169d3c21bcecceda10000008152f35b3461120057600036600319011261120057602060405160968152f35b346112005760603660031901126112005761159e612bb2565b602435906044356001600160401b038111611200576115c1903690600401612bc8565b7362b8b11039fcfe5ab0c56e502b1c372a3d2a9c7a33036118c3576020116112005735906115f26003548310612c32565b6116106115fe83612840565b50546001600160a01b03161515612c6e565b61161f60ff6002541615612cb0565b61162882612840565b5090600a82017362b8b11039fcfe5ab0c56e502b1c372a3d2a9c7a60018060a01b03825460101c160361188a5761166d6001600160401b036004850154164210613093565b61167d60ff6006850154166130cf565b836000526006602052604060002060018060a01b0383166000526020526116ac60ff604060002054161561310c565b8360005260046020526116c76113886040600020541061314c565b6007830154850361185257836000526006602052604060002060018060a01b0383166000526020526040600020600160ff19825416179055836000526004602052611716826040600020613225565b60648502858104606414861517156109495761271090046117378187612d71565b908015158061183b575b611793575b5061176560086000805160206135bd833981519152950191825461326c565b905554604080519586526001600160a01b0360109290921c82166020870152911693a3602060405160018152f35b825460025460405163a9059cbb60e01b81526001600160a01b0360089290921c8216600482015260248101939093526020918391604491839160009160101c165af1801561182f576000805160206135bd8339815191529561176592600892611800575b50955050611746565b6118219060203d602011611828575b61181981836128e7565b8101906131d1565b50896117f7565b503d61180f565b6040513d6000823e3d90fd5b5060025460081c6001600160a01b03161515611741565b60405162461bcd60e51b815260206004820152601060248201526f125b98dbdc9c9958dd08185b5bdd5b9d60821b6044820152606490fd5b60405162461bcd60e51b815260206004820152601160248201527027b7363c903337b9102392103a37b5b2b760791b6044820152606490fd5b60405162461bcd60e51b815260206004820152600d60248201526c27b7363c902392103a37b5b2b760991b6044820152606490fd5b3461120057602036600319011261120057600435611914613352565b6119216003548210612c32565b61192d6115fe82612840565b61193c60ff6002541615612cb0565b60008181526006602090815260408083203384529091529020546119629060ff16612cee565b600761196d82612840565b5001547362b8b11039fcfe5ab0c56e502b1c372a3d2a9c7a61198e83612840565b50600a015460101c6001600160a01b031614611a1f575b6119be8160086119b485612840565b5001541015612d30565b60ff600a6119cb84612840565b50015416156119e5575b6119de91613374565b6001600055005b6001600160401b0360046119f884612840565b500154169161464f19830192831161094957611a186119de934210612d7e565b91506119d5565b60638102908082046063149015171561094957606490046119a5565b346112005760003660031901126112005760025460405160089190911c6001600160a01b03168152602090f35b3461120057600036600319011261120057602060405160648152f35b346112005760003660031901126112005760206040516146508152f35b34611200576020366003190112611200576001600160a01b03611ac2612bb2565b166000526001602052602060ff604060002054166040519015158152f35b3461120057602036600319011261120057600435611afc613352565b611b096003548210612c32565b611b156115fe82612840565b611b2460ff6002541615612cb0565b611b2d81612840565b5090611b476001600160401b036004840154164210613093565b611b5760ff6006840154166130cf565b6000818152600660209081526040808320338452909152902054611b7e9060ff161561310c565b806000526004602052611b996113886040600020541061314c565b6007820154600a8301805491939160101c6001600160a01b03167362b8b11039fcfe5ab0c56e502b1c372a3d2a9c7a8103611cf45750906000916020611c1f6040518683820152828152611bee6040826128e7565b8354604051630200057560e51b815296879360109290921c6001600160a01b031692849283918c30600485016131e9565b03925af191821561182f576000805160206135bd83398151915293611ccd93611cd7575b50611c606008611c566064890489612d71565b920191825461326c565b90555b836000526006602052604060002060018060a01b0333166000526020526040600020600160ff19825416179055836000526004602052611ca7336040600020613225565b546040805195865260109190911c6001600160a01b031660208601523394918291820190565b0390a36001600055005b611cef9060203d6020116118285761181981836128e7565b611c43565b604051636eb1769f60e11b815233600482015230602482015290602082604481845afa801561182f578692600091611d6b575b5093611d5883600893611d4f611ccd97966000805160206135bd83398151915299101561318c565b30903390613566565b01611d6486825461326c565b9055611c63565b91939250506020813d602011611d9e575b81611d89602093836128e7565b81010312611200575190918591611d58611d27565b3d9150611d7c565b346112005760003660031901126112005760206040516113888152f35b34611200576000366003190112611200576020600354604051908152f35b3461120057600036600319011261120057602060ff600254166040519015158152f35b346112005760003660031901126112005760206040516103e88152f35b3461120057602036600319011261120057600435611e53611e4182612840565b50546001600160a01b03163314613055565b611e5b613352565b611e686003548210613279565b6001600160401b036004611e7b83612840565b50015460401c1642111561206b5760ff600a611e9683612840565b500154166120145760ff600a611eab83612840565b50015460081c16611fd6576008611ec182612840565b50015460006008611ed184612840565b500155600a611edf83612840565b5001805461ff001916610100179055611ef782612840565b50600a015460405163a9059cbb60e01b81523360048201526024810183905290602090829060101c6001600160a01b0316816000816044810103925af190811561182f57600091611fb7575b5015611f7b5760207f80230996023d69b50793fa73f1919127c9d8e741d3989743c479169f22e7a28891604051908152a26001600055005b60405162461bcd60e51b8152602060048201526014602482015273119d5b99081d1c985b9cd9995c8819985a5b195960621b6044820152606490fd5b611fd0915060203d6020116118285761181981836128e7565b83611f43565b60405162461bcd60e51b8152602060048201526016602482015275119d5b991cc8185b1c9958591e481c995b19585cd95960521b6044820152606490fd5b60405162461bcd60e51b815260206004820152602960248201527f43616e6e6f742072656c656173652066756e647320666f7220612063616e63656044820152681b195908195d995b9d60ba1b6064820152608490fd5b60405162461bcd60e51b815260206004820152601760248201527f4576656e7420686173206e6f7420656e646564207965740000000000000000006044820152606490fd5b34611200576040366003190112611200576024356001600160a01b038116810361120057600435600052600660205260406000209060018060a01b0316600052602052602060ff604060002054166040519015158152f35b3461120057602036600319011261120057600435612124613352565b6121316003548210612c32565b61213d6115fe82612840565b61214c60ff6002541615612cb0565b61215581612840565b509061216f6001600160401b036004840154164210613093565b61217f60ff6006840154166130cf565b60008181526006602090815260408083203384529091529020546121a69060ff161561310c565b8060005260046020526121c16113886040600020541061314c565b6007820154600a8301805491939160101c6001600160a01b03167362b8b11039fcfe5ab0c56e502b1c372a3d2a9c7a81036123055750600090602061224660405186838201528281526122156040826128e7565b8354604051630200057560e51b815295869360109290921c6001600160a01b031692849283918c30600485016131e9565b03925af1801561182f576000805160206135bd83398151915293611ccd936008926122e6575b505b856000526006602052604060002060018060a01b0333166000526020526040600020600160ff198254161790558560005260046020526122b2336040600020613225565b016122be86825461326c565b9055546040805195865260109190911c6001600160a01b031660208601523394918291820190565b6122fe9060203d6020116118285761181981836128e7565b508761226c565b604051636eb1769f60e11b815233600482015230602482015290602082604481845afa801561182f578692600091612365575b509361236083600893611d4f611ccd97966000805160206135bd83398151915299101561318c565b61226e565b91939250506020813d602011612398575b81612383602093836128e7565b81010312611200575190918591612360612338565b3d9150612376565b34611200576020366003190112611200576004356123c0611e4182612840565b6123cd6003548210612c32565b6123d96115fe82612840565b6123e860ff6002541615612cb0565b60ff60066123f583612840565b500154161561245257600661240982612840565b5001805460ff19169055600a61241e82612840565b5001805460ff191660011790557fceaf11772900fe569752a0207c8639fb8228eb8663456dc9eaa3a08f927a8705600080a2005b60405162461bcd60e51b815260206004820152601060248201526f105b1c9958591e4818d85b98d95b195960821b6044820152606490fd5b34611200576020366003190112611200576001600160a01b036124ab612bb2565b1660005260056020526112526124c46040600020612ffc565b604051918291602083526020830190612b06565b34611200576000366003190112611200576020604051610e108152f35b34611200576000366003190112611200576003543390600090815b8181106125ac575061252a61252483612de6565b92612e90565b92600090815b8381106125465760405180611252888883612b5f565b80600052600660205260ff604080600020600090858252602052205416612570575b600101612530565b916125a4818461258260019489612ee0565b5261258f6112ee86612840565b612599828a612ee0565b526113098189612ee0565b929050612568565b80600052600660205260ff6040806000206000908782526020522054166125d6575b600101612510565b916125e2600191612dc0565b9290506125ce565b3461120057602036600319011261120057600435612606613352565b6126136003548210612c32565b61261f6115fe82612840565b61262e60ff6002541615612cb0565b60008181526006602090815260408083203384529091529020546126549060ff16612cee565b600761265f82612840565b5001547362b8b11039fcfe5ab0c56e502b1c372a3d2a9c7a61268083612840565b50600a015460101c6001600160a01b0316146126bd575b6119be60086126a584612840565b50015460076126b385612840565b5001541115612d30565b6063810290808204606314901517156109495760649004612697565b34611200576020366003190112611200576004356003548110156112005761270090612840565b5080546001600160a01b031661271860018301612908565b9161272560028201612908565b61273160038301612908565b6004830154929061274460058301612908565b93600683015460ff1694600784015491600885015493600986015495600a0154966040519a8b9a8b5260208b0161020090526102008b01612784916129ac565b8a810360408c0152612795916129ac565b89810360608b01526127a6916129ac565b906001600160401b03811660808a01528060401c6001600160401b031660a08a01528060801c6001600160401b031660c08a015260c01c60e08901528781036101008901526127f4916129ac565b94151561012087015261014086015261016085015261018084015260ff81811615156101a0850152600882901c1615156101c084015260101c6001600160a01b03166101e08301520390f35b60035481101561285f576003600052600b602060002091020190600090565b634e487b7160e01b600052603260045260246000fd5b805482101561285f57600052600b602060002091020190600090565b90600182811c921680156128c1575b60208310146128ab57565b634e487b7160e01b600052602260045260246000fd5b91607f16916128a0565b61020081019081106001600160401b03821117610a2057604052565b90601f801991011681019081106001600160401b03821117610a2057604052565b906040519182600082549261291c84612891565b808452936001811690811561298a5750600114612943575b50612941925003836128e7565b565b90506000929192526020600020906000915b81831061296e5750509060206129419282010138612934565b6020919350806001915483858901015201910190918492612955565b90506020925061294194915060ff191682840152151560051b82010138612934565b919082519283825260005b8481106129d8575050826000602080949584010152601f8019910116010190565b806020809284010151828286010152016129b7565b9060018060a01b0382511681526101e0612aa5612a45612a33612a21602087015161020060208801526102008701906129ac565b604087015186820360408801526129ac565b606086015185820360608701526129ac565b6001600160401b0360808601511660808501526001600160401b0360a08601511660a08501526001600160401b0360c08601511660c08501526001600160401b0360e08601511660e08501526101008501518482036101008601526129ac565b9261012081015115156101208401526101408101516101408401526101608101516101608401526101808101516101808401526101a081015115156101a08401526101c081015115156101c08401528160018060a01b039101511691015290565b9080602083519182815201916020808360051b8301019401926000915b838310612b3257505050505090565b9091929394602080612b50600193601f1986820301875289516129ed565b97019301930191939290612b23565b9291604084019360408152825180955260206060820193016000955b808710612b9a575050612b979394506020818403910152612b06565b90565b90936020806001928751815201950196019590612b7b565b600435906001600160a01b038216820361120057565b9181601f84011215611200578235916001600160401b038311611200576020838186019501011161120057565b906020808351928381520192019060005b818110612c135750505090565b82516001600160a01b0316845260209384019390920191600101612c06565b15612c3957565b60405162461bcd60e51b815260206004820152600d60248201526c125b9d985b1a5908195d995b9d609a1b6044820152606490fd5b15612c7557565b60405162461bcd60e51b8152602060048201526013602482015272115d995b9d08191bd95cdb89dd08195e1a5cdd606a1b6044820152606490fd5b15612cb757565b60405162461bcd60e51b815260206004820152600f60248201526e10dbdb9d1c9858dd081c185d5cd959608a1b6044820152606490fd5b15612cf557565b60405162461bcd60e51b8152602060048201526013602482015272139bc81d1a58dad95d081c1d5c98da185cd959606a1b6044820152606490fd5b15612d3757565b60405162461bcd60e51b8152602060048201526012602482015271496e73756666696369656e742066756e647360701b6044820152606490fd5b9190820391821161094957565b15612d8557565b60405162461bcd60e51b81526020600482015260136024820152721499599d5b99081c195c9a5bd908195b991959606a1b6044820152606490fd5b60001981146109495760010190565b6001600160401b038111610a205760051b60200190565b90612df082612dcf565b612dfd60405191826128e7565b8281528092612e0e601f1991612dcf565b0190602036910137565b60405190612e25826128cb565b60006101e08382815260606020820152606060408201526060808201528260808201528260a08201528260c08201528260e0820152606061010082015282610120820152826101408201528261016082015282610180820152826101a0820152826101c08201520152565b90612e9a82612dcf565b612ea760405191826128e7565b8281528092612eb8601f1991612dcf565b019060005b828110612ec957505050565b602090612ed4612e18565b82828501015201612ebd565b805182101561285f5760209160051b010190565b90604051612f01816128cb565b82546001600160a01b031681529182906101e090600a90612f2460018201612908565b6020850152612f3560028201612908565b6040850152612f4660038201612908565b606085015260048101546001600160401b03811660808601526001600160401b038160401c1660a08601526001600160401b038160801c1660c086015260c01c60e0850152612f9760058201612908565b61010085015260ff6006820154161515610120850152600781015461014085015260088101546101608501526009810154610180850152015460ff811615156101a084015260ff8160081c1615156101c084015260018060a01b039060101c16910152565b90815461300881612dcf565b9261301660405194856128e7565b818452602084019060005260206000206000915b8383106130375750505050565b600b602060019261304785612ef4565b81520192019201919061302a565b1561305c57565b60405162461bcd60e51b815260206004820152600f60248201526e2737ba1032bb32b73a1037bbb732b960891b6044820152606490fd5b1561309a57565b60405162461bcd60e51b815260206004820152600d60248201526c115d995b9d08195e1c1a5c9959609a1b6044820152606490fd5b156130d657565b60405162461bcd60e51b815260206004820152600e60248201526d4576656e7420696e61637469766560901b6044820152606490fd5b1561311357565b60405162461bcd60e51b8152602060048201526011602482015270105b1c9958591e481c1d5c98da185cd959607a1b6044820152606490fd5b1561315357565b60405162461bcd60e51b81526020600482015260116024820152704576656e7420617420636170616369747960781b6044820152606490fd5b1561319357565b60405162461bcd60e51b8152602060048201526016602482015275496e73756666696369656e7420616c6c6f77616e636560501b6044820152606490fd5b90816020910312611200575180151581036112005790565b612b97939260609260018060a01b03168252602082015281604082015201906129ac565b805482101561285f5760005260206000200190600090565b90815491600160401b831015610a2057826132489160016129419501815561320d565b81546001600160a01b0393841660039290921b91821b9390911b1916919091179055565b9190820180921161094957565b1561328057565b60405162461bcd60e51b815260206004820152601060248201526f125b9d985b1a5908195d995b9d08125160821b6044820152606490fd5b906040519182815491828252602082019060005260206000209260005b8181106132ea575050612941925003836128e7565b84546001600160a01b03168352600194850194879450602090930192016132d5565b9291926001600160401b038211610a205760405191613335601f8201601f1916602001846128e7565b829481845281830111611200578281602093846000960137010152565b600260005414613363576002600055565b633ee5aeb560e01b60005260046000fd5b60008181526006602090815260408083203384529091529020805460ff191690559060086133a183612840565b50016133ae828254612d71565b905581600052600460205260406000209160005b83548082101561351e576133d6828661320d565b905460039190911b1c6001600160a01b031633146133f757506001016133c2565b9293919260001981019190821161094957613248613418613431938561320d565b905460039190911b1c6001600160a01b0316918461320d565b80548015613508576000190190613448828261320d565b81549060018060a01b039060031b1b19169055555b61346681612840565b50600a015460405163a9059cbb60e01b81523360048201526024810184905290602090829060101c6001600160a01b0316816000816044810103925af1801561182f576134bb916000916134e9575b50613528565b6040519182527f7a482fdeb6bc9a1376f597068a214a7a39472bb2eff1b8cad21ba04f49ddca1b60203393a3565b613502915060203d6020116118285761181981836128e7565b386134b5565b634e487b7160e01b600052603160045260246000fd5b505090915061345d565b1561352f57565b60405162461bcd60e51b815260206004820152600f60248201526e151c985b9cd9995c8819985a5b1959608a1b6044820152606490fd5b6040516323b872dd60e01b81526001600160a01b03928316600482015292821660248401526044830193909352909160209183916064918391600091165af1801561182f57612941916000916134e9575061352856fe504ef6dabca28c1452704d54bd8e25708d87e0c27d852eceea53a0c0d8986758a2646970667358221220ac87f3da2ae9a08f3d7f8dbaee29b5e1f19dabbaf71cce1bae6d6b851112a53b64736f6c634300081c0033",
    "linkReferences": {},
    "deployedLinkReferences": {}
}