{
    "_format": "hh-sol-artifact-1",
    "contractName": "EventChain",
    "sourceName": "contracts/EventChainV1.sol",
    "abi": [
        {
            "inputs": [],
            "stateMutability": "nonpayable",
            "type": "constructor"
        },
        {
            "inputs": [
                {
                    "internalType": "address",
                    "name": "target",
                    "type": "address"
                }
            ],
            "name": "AddressEmptyCode",
            "type": "error"
        },
        {
            "inputs": [
                {
                    "internalType": "address",
                    "name": "implementation",
                    "type": "address"
                }
            ],
            "name": "ERC1967InvalidImplementation",
            "type": "error"
        },
        {
            "inputs": [],
            "name": "ERC1967NonPayable",
            "type": "error"
        },
        {
            "inputs": [],
            "name": "FailedCall",
            "type": "error"
        },
        {
            "inputs": [],
            "name": "InvalidInitialization",
            "type": "error"
        },
        {
            "inputs": [],
            "name": "NotInitializing",
            "type": "error"
        },
        {
            "inputs": [
                {
                    "internalType": "address",
                    "name": "owner",
                    "type": "address"
                }
            ],
            "name": "OwnableInvalidOwner",
            "type": "error"
        },
        {
            "inputs": [
                {
                    "internalType": "address",
                    "name": "account",
                    "type": "address"
                }
            ],
            "name": "OwnableUnauthorizedAccount",
            "type": "error"
        },
        {
            "inputs": [],
            "name": "ReentrancyGuardReentrantCall",
            "type": "error"
        },
        {
            "inputs": [
                {
                    "internalType": "address",
                    "name": "token",
                    "type": "address"
                }
            ],
            "name": "SafeERC20FailedOperation",
            "type": "error"
        },
        {
            "inputs": [],
            "name": "UUPSUnauthorizedCallContext",
            "type": "error"
        },
        {
            "inputs": [
                {
                    "internalType": "bytes32",
                    "name": "slot",
                    "type": "bytes32"
                }
            ],
            "name": "UUPSUnsupportedProxiableUUID",
            "type": "error"
        },
        {
            "anonymous": false,
            "inputs": [
                {
                    "indexed": true,
                    "internalType": "uint256",
                    "name": "eventId",
                    "type": "uint256"
                },
                {
                    "indexed": false,
                    "internalType": "uint256",
                    "name": "amount",
                    "type": "uint256"
                }
            ],
            "name": "EmergencyWithdrawal",
            "type": "event"
        },
        {
            "anonymous": false,
            "inputs": [
                {
                    "indexed": true,
                    "internalType": "uint256",
                    "name": "eventId",
                    "type": "uint256"
                },
                {
                    "indexed": true,
                    "internalType": "address",
                    "name": "admin",
                    "type": "address"
                }
            ],
            "name": "EventApproved",
            "type": "event"
        },
        {
            "anonymous": false,
            "inputs": [
                {
                    "indexed": true,
                    "internalType": "uint256",
                    "name": "eventId",
                    "type": "uint256"
                }
            ],
            "name": "EventCanceled",
            "type": "event"
        },
        {
            "anonymous": false,
            "inputs": [
                {
                    "indexed": true,
                    "internalType": "uint256",
                    "name": "eventId",
                    "type": "uint256"
                },
                {
                    "indexed": true,
                    "internalType": "address",
                    "name": "owner",
                    "type": "address"
                },
                {
                    "indexed": false,
                    "internalType": "string",
                    "name": "eventName",
                    "type": "string"
                }
            ],
            "name": "EventCreated",
            "type": "event"
        },
        {
            "anonymous": false,
            "inputs": [
                {
                    "indexed": true,
                    "internalType": "uint256",
                    "name": "eventId",
                    "type": "uint256"
                },
                {
                    "indexed": true,
                    "internalType": "address",
                    "name": "admin",
                    "type": "address"
                },
                {
                    "indexed": false,
                    "internalType": "string",
                    "name": "reason",
                    "type": "string"
                }
            ],
            "name": "EventRejected",
            "type": "event"
        },
        {
            "anonymous": false,
            "inputs": [
                {
                    "indexed": true,
                    "internalType": "uint256",
                    "name": "eventId",
                    "type": "uint256"
                },
                {
                    "indexed": true,
                    "internalType": "address",
                    "name": "owner",
                    "type": "address"
                }
            ],
            "name": "EventSubmittedForApproval",
            "type": "event"
        },
        {
            "anonymous": false,
            "inputs": [
                {
                    "indexed": true,
                    "internalType": "uint256",
                    "name": "eventId",
                    "type": "uint256"
                },
                {
                    "indexed": true,
                    "internalType": "address",
                    "name": "owner",
                    "type": "address"
                },
                {
                    "indexed": false,
                    "internalType": "string",
                    "name": "eventName",
                    "type": "string"
                }
            ],
            "name": "EventUpdated",
            "type": "event"
        },
        {
            "anonymous": false,
            "inputs": [
                {
                    "indexed": true,
                    "internalType": "uint256",
                    "name": "eventId",
                    "type": "uint256"
                },
                {
                    "indexed": false,
                    "internalType": "uint256",
                    "name": "amount",
                    "type": "uint256"
                }
            ],
            "name": "FundsReleased",
            "type": "event"
        },
        {
            "anonymous": false,
            "inputs": [
                {
                    "indexed": false,
                    "internalType": "uint64",
                    "name": "version",
                    "type": "uint64"
                }
            ],
            "name": "Initialized",
            "type": "event"
        },
        {
            "anonymous": false,
            "inputs": [
                {
                    "indexed": true,
                    "internalType": "address",
                    "name": "previousOwner",
                    "type": "address"
                },
                {
                    "indexed": true,
                    "internalType": "address",
                    "name": "newOwner",
                    "type": "address"
                }
            ],
            "name": "OwnershipTransferred",
            "type": "event"
        },
        {
            "anonymous": false,
            "inputs": [
                {
                    "indexed": false,
                    "internalType": "bool",
                    "name": "paused",
                    "type": "bool"
                }
            ],
            "name": "PauseToggled",
            "type": "event"
        },
        {
            "anonymous": false,
            "inputs": [
                {
                    "indexed": true,
                    "internalType": "uint256",
                    "name": "eventId",
                    "type": "uint256"
                },
                {
                    "indexed": true,
                    "internalType": "address",
                    "name": "user",
                    "type": "address"
                },
                {
                    "indexed": false,
                    "internalType": "uint256",
                    "name": "amount",
                    "type": "uint256"
                }
            ],
            "name": "RefundIssued",
            "type": "event"
        },
        {
            "anonymous": false,
            "inputs": [
                {
                    "indexed": true,
                    "internalType": "address",
                    "name": "token",
                    "type": "address"
                }
            ],
            "name": "SupportedTokenAdded",
            "type": "event"
        },
        {
            "anonymous": false,
            "inputs": [
                {
                    "indexed": true,
                    "internalType": "address",
                    "name": "token",
                    "type": "address"
                }
            ],
            "name": "SupportedTokenRemoved",
            "type": "event"
        },
        {
            "anonymous": false,
            "inputs": [
                {
                    "indexed": true,
                    "internalType": "address",
                    "name": "newContract",
                    "type": "address"
                }
            ],
            "name": "TicketNFTContractUpdated",
            "type": "event"
        },
        {
            "anonymous": false,
            "inputs": [
                {
                    "indexed": true,
                    "internalType": "uint256",
                    "name": "eventId",
                    "type": "uint256"
                },
                {
                    "indexed": true,
                    "internalType": "address",
                    "name": "buyer",
                    "type": "address"
                },
                {
                    "indexed": true,
                    "internalType": "uint256",
                    "name": "tokenId",
                    "type": "uint256"
                }
            ],
            "name": "TicketNFTMinted",
            "type": "event"
        },
        {
            "anonymous": false,
            "inputs": [
                {
                    "indexed": true,
                    "internalType": "uint256",
                    "name": "eventId",
                    "type": "uint256"
                },
                {
                    "indexed": true,
                    "internalType": "address",
                    "name": "buyer",
                    "type": "address"
                },
                {
                    "indexed": false,
                    "internalType": "uint256",
                    "name": "amount",
                    "type": "uint256"
                },
                {
                    "indexed": false,
                    "internalType": "address",
                    "name": "paymentToken",
                    "type": "address"
                }
            ],
            "name": "TicketPurchased",
            "type": "event"
        },
        {
            "anonymous": false,
            "inputs": [
                {
                    "indexed": true,
                    "internalType": "uint256",
                    "name": "eventId",
                    "type": "uint256"
                },
                {
                    "indexed": true,
                    "internalType": "address",
                    "name": "from",
                    "type": "address"
                },
                {
                    "indexed": true,
                    "internalType": "address",
                    "name": "to",
                    "type": "address"
                }
            ],
            "name": "TicketTransferred",
            "type": "event"
        },
        {
            "anonymous": false,
            "inputs": [
                {
                    "indexed": true,
                    "internalType": "uint256",
                    "name": "eventId",
                    "type": "uint256"
                },
                {
                    "indexed": true,
                    "internalType": "address",
                    "name": "holder",
                    "type": "address"
                },
                {
                    "indexed": false,
                    "internalType": "string",
                    "name": "tokenURI",
                    "type": "string"
                }
            ],
            "name": "TicketURISet",
            "type": "event"
        },
        {
            "anonymous": false,
            "inputs": [
                {
                    "indexed": true,
                    "internalType": "address",
                    "name": "implementation",
                    "type": "address"
                }
            ],
            "name": "Upgraded",
            "type": "event"
        },
        {
            "anonymous": false,
            "inputs": [
                {
                    "indexed": true,
                    "internalType": "address",
                    "name": "user",
                    "type": "address"
                },
                {
                    "indexed": false,
                    "internalType": "uint256",
                    "name": "amount",
                    "type": "uint256"
                }
            ],
            "name": "WithdrawalReady",
            "type": "event"
        },
        {
            "anonymous": false,
            "inputs": [
                {
                    "indexed": true,
                    "internalType": "address",
                    "name": "user",
                    "type": "address"
                },
                {
                    "indexed": true,
                    "internalType": "address",
                    "name": "token",
                    "type": "address"
                },
                {
                    "indexed": false,
                    "internalType": "uint256",
                    "name": "amount",
                    "type": "uint256"
                }
            ],
            "name": "Withdrawn",
            "type": "event"
        },
        {
            "stateMutability": "payable",
            "type": "fallback"
        },
        {
            "inputs": [],
            "name": "CELO",
            "outputs": [
                {
                    "internalType": "address",
                    "name": "",
                    "type": "address"
                }
            ],
            "stateMutability": "view",
            "type": "function"
        },
        {
            "inputs": [],
            "name": "EMERGENCY_WITHDRAWAL_DELAY",
            "outputs": [
                {
                    "internalType": "uint256",
                    "name": "",
                    "type": "uint256"
                }
            ],
            "stateMutability": "view",
            "type": "function"
        },
        {
            "inputs": [],
            "name": "MAX_AGE",
            "outputs": [
                {
                    "internalType": "uint256",
                    "name": "",
                    "type": "uint256"
                }
            ],
            "stateMutability": "view",
            "type": "function"
        },
        {
            "inputs": [],
            "name": "MAX_CAPACITY",
            "outputs": [
                {
                    "internalType": "uint256",
                    "name": "",
                    "type": "uint256"
                }
            ],
            "stateMutability": "view",
            "type": "function"
        },
        {
            "inputs": [],
            "name": "MAX_DETAILS_LENGTH",
            "outputs": [
                {
                    "internalType": "uint256",
                    "name": "",
                    "type": "uint256"
                }
            ],
            "stateMutability": "view",
            "type": "function"
        },
        {
            "inputs": [],
            "name": "MAX_EVENT_DURATION",
            "outputs": [
                {
                    "internalType": "uint256",
                    "name": "",
                    "type": "uint256"
                }
            ],
            "stateMutability": "view",
            "type": "function"
        },
        {
            "inputs": [],
            "name": "MAX_LOCATION_LENGTH",
            "outputs": [
                {
                    "internalType": "uint256",
                    "name": "",
                    "type": "uint256"
                }
            ],
            "stateMutability": "view",
            "type": "function"
        },
        {
            "inputs": [],
            "name": "MAX_NAME_LENGTH",
            "outputs": [
                {
                    "internalType": "uint256",
                    "name": "",
                    "type": "uint256"
                }
            ],
            "stateMutability": "view",
            "type": "function"
        },
        {
            "inputs": [],
            "name": "MAX_TICKET_PRICE",
            "outputs": [
                {
                    "internalType": "uint256",
                    "name": "",
                    "type": "uint256"
                }
            ],
            "stateMutability": "view",
            "type": "function"
        },
        {
            "inputs": [],
            "name": "MAX_URL_LENGTH",
            "outputs": [
                {
                    "internalType": "uint256",
                    "name": "",
                    "type": "uint256"
                }
            ],
            "stateMutability": "view",
            "type": "function"
        },
        {
            "inputs": [],
            "name": "MIN_CAPACITY",
            "outputs": [
                {
                    "internalType": "uint256",
                    "name": "",
                    "type": "uint256"
                }
            ],
            "stateMutability": "view",
            "type": "function"
        },
        {
            "inputs": [],
            "name": "MIN_EVENT_DURATION",
            "outputs": [
                {
                    "internalType": "uint256",
                    "name": "",
                    "type": "uint256"
                }
            ],
            "stateMutability": "view",
            "type": "function"
        },
        {
            "inputs": [],
            "name": "UPGRADE_INTERFACE_VERSION",
            "outputs": [
                {
                    "internalType": "string",
                    "name": "",
                    "type": "string"
                }
            ],
            "stateMutability": "view",
            "type": "function"
        },
        {
            "inputs": [
                {
                    "internalType": "address",
                    "name": "_token",
                    "type": "address"
                }
            ],
            "name": "addSupportedToken",
            "outputs": [],
            "stateMutability": "nonpayable",
            "type": "function"
        },
        {
            "inputs": [
                {
                    "internalType": "uint256",
                    "name": "_index",
                    "type": "uint256"
                }
            ],
            "name": "approveEvent",
            "outputs": [],
            "stateMutability": "nonpayable",
            "type": "function"
        },
        {
            "inputs": [
                {
                    "internalType": "uint256",
                    "name": "",
                    "type": "uint256"
                }
            ],
            "name": "attendeeCount",
            "outputs": [
                {
                    "internalType": "uint256",
                    "name": "",
                    "type": "uint256"
                }
            ],
            "stateMutability": "view",
            "type": "function"
        },
        {
            "inputs": [
                {
                    "internalType": "uint256",
                    "name": "_index",
                    "type": "uint256"
                }
            ],
            "name": "buyTicket",
            "outputs": [],
            "stateMutability": "payable",
            "type": "function"
        },
        {
            "inputs": [
                {
                    "internalType": "uint256",
                    "name": "_index",
                    "type": "uint256"
                }
            ],
            "name": "cancelEvent",
            "outputs": [],
            "stateMutability": "nonpayable",
            "type": "function"
        },
        {
            "inputs": [
                {
                    "internalType": "string",
                    "name": "_eventName",
                    "type": "string"
                },
                {
                    "internalType": "string",
                    "name": "_eventCardImgUrl",
                    "type": "string"
                },
                {
                    "internalType": "string",
                    "name": "_eventDetails",
                    "type": "string"
                },
                {
                    "internalType": "uint64",
                    "name": "_startDate",
                    "type": "uint64"
                },
                {
                    "internalType": "uint64",
                    "name": "_endDate",
                    "type": "uint64"
                },
                {
                    "internalType": "uint64",
                    "name": "_startTime",
                    "type": "uint64"
                },
                {
                    "internalType": "uint64",
                    "name": "_endTime",
                    "type": "uint64"
                },
                {
                    "internalType": "string",
                    "name": "_eventLocation",
                    "type": "string"
                },
                {
                    "internalType": "uint256",
                    "name": "_ticketPrice",
                    "type": "uint256"
                },
                {
                    "internalType": "uint256",
                    "name": "_minimumAge",
                    "type": "uint256"
                },
                {
                    "internalType": "uint256",
                    "name": "_maxCapacity",
                    "type": "uint256"
                },
                {
                    "internalType": "enum EventChain.RefundPolicy",
                    "name": "_refundPolicy",
                    "type": "uint8"
                },
                {
                    "internalType": "uint256",
                    "name": "_refundBufferHours",
                    "type": "uint256"
                },
                {
                    "internalType": "address",
                    "name": "_paymentToken",
                    "type": "address"
                },
                {
                    "internalType": "enum EventChain.EventCategory",
                    "name": "_category",
                    "type": "uint8"
                }
            ],
            "name": "createEvent",
            "outputs": [],
            "stateMutability": "nonpayable",
            "type": "function"
        },
        {
            "inputs": [
                {
                    "internalType": "uint256",
                    "name": "_index",
                    "type": "uint256"
                }
            ],
            "name": "emergencyWithdrawFunds",
            "outputs": [],
            "stateMutability": "nonpayable",
            "type": "function"
        },
        {
            "inputs": [],
            "name": "eventCount",
            "outputs": [
                {
                    "internalType": "uint256",
                    "name": "",
                    "type": "uint256"
                }
            ],
            "stateMutability": "view",
            "type": "function"
        },
        {
            "inputs": [
                {
                    "internalType": "uint256",
                    "name": "",
                    "type": "uint256"
                }
            ],
            "name": "events",
            "outputs": [
                {
                    "internalType": "address",
                    "name": "owner",
                    "type": "address"
                },
                {
                    "internalType": "string",
                    "name": "eventName",
                    "type": "string"
                },
                {
                    "internalType": "string",
                    "name": "eventCardImgUrl",
                    "type": "string"
                },
                {
                    "internalType": "string",
                    "name": "eventDetails",
                    "type": "string"
                },
                {
                    "internalType": "uint64",
                    "name": "startDate",
                    "type": "uint64"
                },
                {
                    "internalType": "uint64",
                    "name": "endDate",
                    "type": "uint64"
                },
                {
                    "internalType": "uint64",
                    "name": "startTime",
                    "type": "uint64"
                },
                {
                    "internalType": "uint64",
                    "name": "endTime",
                    "type": "uint64"
                },
                {
                    "internalType": "string",
                    "name": "eventLocation",
                    "type": "string"
                },
                {
                    "internalType": "bool",
                    "name": "isActive",
                    "type": "bool"
                },
                {
                    "internalType": "uint256",
                    "name": "ticketPrice",
                    "type": "uint256"
                },
                {
                    "internalType": "uint256",
                    "name": "fundsHeld",
                    "type": "uint256"
                },
                {
                    "internalType": "uint256",
                    "name": "minimumAge",
                    "type": "uint256"
                },
                {
                    "internalType": "uint256",
                    "name": "maxCapacity",
                    "type": "uint256"
                },
                {
                    "internalType": "bool",
                    "name": "isCanceled",
                    "type": "bool"
                },
                {
                    "internalType": "bool",
                    "name": "fundsReleased",
                    "type": "bool"
                },
                {
                    "internalType": "bool",
                    "name": "exists",
                    "type": "bool"
                },
                {
                    "internalType": "enum EventChain.RefundPolicy",
                    "name": "refundPolicy",
                    "type": "uint8"
                },
                {
                    "internalType": "uint256",
                    "name": "refundBufferHours",
                    "type": "uint256"
                },
                {
                    "internalType": "address",
                    "name": "paymentToken",
                    "type": "address"
                },
                {
                    "internalType": "enum EventChain.EventCategory",
                    "name": "category",
                    "type": "uint8"
                },
                {
                    "internalType": "enum EventChain.ApprovalStatus",
                    "name": "approvalStatus",
                    "type": "uint8"
                },
                {
                    "internalType": "string",
                    "name": "rejectionReason",
                    "type": "string"
                }
            ],
            "stateMutability": "view",
            "type": "function"
        },
        {
            "inputs": [],
            "name": "getActiveEventsByCreator",
            "outputs": [
                {
                    "internalType": "uint256[]",
                    "name": "",
                    "type": "uint256[]"
                },
                {
                    "components": [
                        {
                            "internalType": "address",
                            "name": "owner",
                            "type": "address"
                        },
                        {
                            "internalType": "string",
                            "name": "eventName",
                            "type": "string"
                        },
                        {
                            "internalType": "string",
                            "name": "eventCardImgUrl",
                            "type": "string"
                        },
                        {
                            "internalType": "string",
                            "name": "eventDetails",
                            "type": "string"
                        },
                        {
                            "internalType": "uint64",
                            "name": "startDate",
                            "type": "uint64"
                        },
                        {
                            "internalType": "uint64",
                            "name": "endDate",
                            "type": "uint64"
                        },
                        {
                            "internalType": "uint64",
                            "name": "startTime",
                            "type": "uint64"
                        },
                        {
                            "internalType": "uint64",
                            "name": "endTime",
                            "type": "uint64"
                        },
                        {
                            "internalType": "string",
                            "name": "eventLocation",
                            "type": "string"
                        },
                        {
                            "internalType": "bool",
                            "name": "isActive",
                            "type": "bool"
                        },
                        {
                            "internalType": "uint256",
                            "name": "ticketPrice",
                            "type": "uint256"
                        },
                        {
                            "internalType": "uint256",
                            "name": "fundsHeld",
                            "type": "uint256"
                        },
                        {
                            "internalType": "uint256",
                            "name": "minimumAge",
                            "type": "uint256"
                        },
                        {
                            "internalType": "uint256",
                            "name": "maxCapacity",
                            "type": "uint256"
                        },
                        {
                            "internalType": "bool",
                            "name": "isCanceled",
                            "type": "bool"
                        },
                        {
                            "internalType": "bool",
                            "name": "fundsReleased",
                            "type": "bool"
                        },
                        {
                            "internalType": "bool",
                            "name": "exists",
                            "type": "bool"
                        },
                        {
                            "internalType": "enum EventChain.RefundPolicy",
                            "name": "refundPolicy",
                            "type": "uint8"
                        },
                        {
                            "internalType": "uint256",
                            "name": "refundBufferHours",
                            "type": "uint256"
                        },
                        {
                            "internalType": "address",
                            "name": "paymentToken",
                            "type": "address"
                        },
                        {
                            "internalType": "enum EventChain.EventCategory",
                            "name": "category",
                            "type": "uint8"
                        },
                        {
                            "internalType": "enum EventChain.ApprovalStatus",
                            "name": "approvalStatus",
                            "type": "uint8"
                        },
                        {
                            "internalType": "string",
                            "name": "rejectionReason",
                            "type": "string"
                        }
                    ],
                    "internalType": "struct EventChain.Event[]",
                    "name": "",
                    "type": "tuple[]"
                }
            ],
            "stateMutability": "view",
            "type": "function"
        },
        {
            "inputs": [],
            "name": "getAllEvents",
            "outputs": [
                {
                    "internalType": "uint256[]",
                    "name": "",
                    "type": "uint256[]"
                },
                {
                    "components": [
                        {
                            "internalType": "address",
                            "name": "owner",
                            "type": "address"
                        },
                        {
                            "internalType": "string",
                            "name": "eventName",
                            "type": "string"
                        },
                        {
                            "internalType": "string",
                            "name": "eventCardImgUrl",
                            "type": "string"
                        },
                        {
                            "internalType": "string",
                            "name": "eventDetails",
                            "type": "string"
                        },
                        {
                            "internalType": "uint64",
                            "name": "startDate",
                            "type": "uint64"
                        },
                        {
                            "internalType": "uint64",
                            "name": "endDate",
                            "type": "uint64"
                        },
                        {
                            "internalType": "uint64",
                            "name": "startTime",
                            "type": "uint64"
                        },
                        {
                            "internalType": "uint64",
                            "name": "endTime",
                            "type": "uint64"
                        },
                        {
                            "internalType": "string",
                            "name": "eventLocation",
                            "type": "string"
                        },
                        {
                            "internalType": "bool",
                            "name": "isActive",
                            "type": "bool"
                        },
                        {
                            "internalType": "uint256",
                            "name": "ticketPrice",
                            "type": "uint256"
                        },
                        {
                            "internalType": "uint256",
                            "name": "fundsHeld",
                            "type": "uint256"
                        },
                        {
                            "internalType": "uint256",
                            "name": "minimumAge",
                            "type": "uint256"
                        },
                        {
                            "internalType": "uint256",
                            "name": "maxCapacity",
                            "type": "uint256"
                        },
                        {
                            "internalType": "bool",
                            "name": "isCanceled",
                            "type": "bool"
                        },
                        {
                            "internalType": "bool",
                            "name": "fundsReleased",
                            "type": "bool"
                        },
                        {
                            "internalType": "bool",
                            "name": "exists",
                            "type": "bool"
                        },
                        {
                            "internalType": "enum EventChain.RefundPolicy",
                            "name": "refundPolicy",
                            "type": "uint8"
                        },
                        {
                            "internalType": "uint256",
                            "name": "refundBufferHours",
                            "type": "uint256"
                        },
                        {
                            "internalType": "address",
                            "name": "paymentToken",
                            "type": "address"
                        },
                        {
                            "internalType": "enum EventChain.EventCategory",
                            "name": "category",
                            "type": "uint8"
                        },
                        {
                            "internalType": "enum EventChain.ApprovalStatus",
                            "name": "approvalStatus",
                            "type": "uint8"
                        },
                        {
                            "internalType": "string",
                            "name": "rejectionReason",
                            "type": "string"
                        }
                    ],
                    "internalType": "struct EventChain.Event[]",
                    "name": "",
                    "type": "tuple[]"
                }
            ],
            "stateMutability": "view",
            "type": "function"
        },
        {
            "inputs": [
                {
                    "internalType": "uint256",
                    "name": "_index",
                    "type": "uint256"
                }
            ],
            "name": "getAttendees",
            "outputs": [
                {
                    "internalType": "address[]",
                    "name": "",
                    "type": "address[]"
                }
            ],
            "stateMutability": "view",
            "type": "function"
        },
        {
            "inputs": [
                {
                    "internalType": "uint256",
                    "name": "_index",
                    "type": "uint256"
                }
            ],
            "name": "getEventById",
            "outputs": [
                {
                    "components": [
                        {
                            "internalType": "address",
                            "name": "owner",
                            "type": "address"
                        },
                        {
                            "internalType": "string",
                            "name": "eventName",
                            "type": "string"
                        },
                        {
                            "internalType": "string",
                            "name": "eventCardImgUrl",
                            "type": "string"
                        },
                        {
                            "internalType": "string",
                            "name": "eventDetails",
                            "type": "string"
                        },
                        {
                            "internalType": "uint64",
                            "name": "startDate",
                            "type": "uint64"
                        },
                        {
                            "internalType": "uint64",
                            "name": "endDate",
                            "type": "uint64"
                        },
                        {
                            "internalType": "uint64",
                            "name": "startTime",
                            "type": "uint64"
                        },
                        {
                            "internalType": "uint64",
                            "name": "endTime",
                            "type": "uint64"
                        },
                        {
                            "internalType": "string",
                            "name": "eventLocation",
                            "type": "string"
                        },
                        {
                            "internalType": "bool",
                            "name": "isActive",
                            "type": "bool"
                        },
                        {
                            "internalType": "uint256",
                            "name": "ticketPrice",
                            "type": "uint256"
                        },
                        {
                            "internalType": "uint256",
                            "name": "fundsHeld",
                            "type": "uint256"
                        },
                        {
                            "internalType": "uint256",
                            "name": "minimumAge",
                            "type": "uint256"
                        },
                        {
                            "internalType": "uint256",
                            "name": "maxCapacity",
                            "type": "uint256"
                        },
                        {
                            "internalType": "bool",
                            "name": "isCanceled",
                            "type": "bool"
                        },
                        {
                            "internalType": "bool",
                            "name": "fundsReleased",
                            "type": "bool"
                        },
                        {
                            "internalType": "bool",
                            "name": "exists",
                            "type": "bool"
                        },
                        {
                            "internalType": "enum EventChain.RefundPolicy",
                            "name": "refundPolicy",
                            "type": "uint8"
                        },
                        {
                            "internalType": "uint256",
                            "name": "refundBufferHours",
                            "type": "uint256"
                        },
                        {
                            "internalType": "address",
                            "name": "paymentToken",
                            "type": "address"
                        },
                        {
                            "internalType": "enum EventChain.EventCategory",
                            "name": "category",
                            "type": "uint8"
                        },
                        {
                            "internalType": "enum EventChain.ApprovalStatus",
                            "name": "approvalStatus",
                            "type": "uint8"
                        },
                        {
                            "internalType": "string",
                            "name": "rejectionReason",
                            "type": "string"
                        }
                    ],
                    "internalType": "struct EventChain.Event",
                    "name": "",
                    "type": "tuple"
                },
                {
                    "internalType": "address[]",
                    "name": "",
                    "type": "address[]"
                }
            ],
            "stateMutability": "view",
            "type": "function"
        },
        {
            "inputs": [
                {
                    "internalType": "address",
                    "name": "_creator",
                    "type": "address"
                }
            ],
            "name": "getEventIdsByCreator",
            "outputs": [
                {
                    "internalType": "uint256[]",
                    "name": "",
                    "type": "uint256[]"
                }
            ],
            "stateMutability": "view",
            "type": "function"
        },
        {
            "inputs": [],
            "name": "getEventLength",
            "outputs": [
                {
                    "internalType": "uint256",
                    "name": "",
                    "type": "uint256"
                }
            ],
            "stateMutability": "view",
            "type": "function"
        },
        {
            "inputs": [
                {
                    "internalType": "address",
                    "name": "_creator",
                    "type": "address"
                }
            ],
            "name": "getEventsByCreator",
            "outputs": [
                {
                    "components": [
                        {
                            "internalType": "address",
                            "name": "owner",
                            "type": "address"
                        },
                        {
                            "internalType": "string",
                            "name": "eventName",
                            "type": "string"
                        },
                        {
                            "internalType": "string",
                            "name": "eventCardImgUrl",
                            "type": "string"
                        },
                        {
                            "internalType": "string",
                            "name": "eventDetails",
                            "type": "string"
                        },
                        {
                            "internalType": "uint64",
                            "name": "startDate",
                            "type": "uint64"
                        },
                        {
                            "internalType": "uint64",
                            "name": "endDate",
                            "type": "uint64"
                        },
                        {
                            "internalType": "uint64",
                            "name": "startTime",
                            "type": "uint64"
                        },
                        {
                            "internalType": "uint64",
                            "name": "endTime",
                            "type": "uint64"
                        },
                        {
                            "internalType": "string",
                            "name": "eventLocation",
                            "type": "string"
                        },
                        {
                            "internalType": "bool",
                            "name": "isActive",
                            "type": "bool"
                        },
                        {
                            "internalType": "uint256",
                            "name": "ticketPrice",
                            "type": "uint256"
                        },
                        {
                            "internalType": "uint256",
                            "name": "fundsHeld",
                            "type": "uint256"
                        },
                        {
                            "internalType": "uint256",
                            "name": "minimumAge",
                            "type": "uint256"
                        },
                        {
                            "internalType": "uint256",
                            "name": "maxCapacity",
                            "type": "uint256"
                        },
                        {
                            "internalType": "bool",
                            "name": "isCanceled",
                            "type": "bool"
                        },
                        {
                            "internalType": "bool",
                            "name": "fundsReleased",
                            "type": "bool"
                        },
                        {
                            "internalType": "bool",
                            "name": "exists",
                            "type": "bool"
                        },
                        {
                            "internalType": "enum EventChain.RefundPolicy",
                            "name": "refundPolicy",
                            "type": "uint8"
                        },
                        {
                            "internalType": "uint256",
                            "name": "refundBufferHours",
                            "type": "uint256"
                        },
                        {
                            "internalType": "address",
                            "name": "paymentToken",
                            "type": "address"
                        },
                        {
                            "internalType": "enum EventChain.EventCategory",
                            "name": "category",
                            "type": "uint8"
                        },
                        {
                            "internalType": "enum EventChain.ApprovalStatus",
                            "name": "approvalStatus",
                            "type": "uint8"
                        },
                        {
                            "internalType": "string",
                            "name": "rejectionReason",
                            "type": "string"
                        }
                    ],
                    "internalType": "struct EventChain.Event[]",
                    "name": "",
                    "type": "tuple[]"
                }
            ],
            "stateMutability": "view",
            "type": "function"
        },
        {
            "inputs": [
                {
                    "internalType": "address",
                    "name": "user",
                    "type": "address"
                },
                {
                    "internalType": "address",
                    "name": "token",
                    "type": "address"
                }
            ],
            "name": "getPendingWithdrawal",
            "outputs": [
                {
                    "internalType": "uint256",
                    "name": "",
                    "type": "uint256"
                }
            ],
            "stateMutability": "view",
            "type": "function"
        },
        {
            "inputs": [
                {
                    "internalType": "address",
                    "name": "user",
                    "type": "address"
                }
            ],
            "name": "getUserEvents",
            "outputs": [
                {
                    "internalType": "uint256[]",
                    "name": "",
                    "type": "uint256[]"
                },
                {
                    "components": [
                        {
                            "internalType": "address",
                            "name": "owner",
                            "type": "address"
                        },
                        {
                            "internalType": "string",
                            "name": "eventName",
                            "type": "string"
                        },
                        {
                            "internalType": "string",
                            "name": "eventCardImgUrl",
                            "type": "string"
                        },
                        {
                            "internalType": "string",
                            "name": "eventDetails",
                            "type": "string"
                        },
                        {
                            "internalType": "uint64",
                            "name": "startDate",
                            "type": "uint64"
                        },
                        {
                            "internalType": "uint64",
                            "name": "endDate",
                            "type": "uint64"
                        },
                        {
                            "internalType": "uint64",
                            "name": "startTime",
                            "type": "uint64"
                        },
                        {
                            "internalType": "uint64",
                            "name": "endTime",
                            "type": "uint64"
                        },
                        {
                            "internalType": "string",
                            "name": "eventLocation",
                            "type": "string"
                        },
                        {
                            "internalType": "bool",
                            "name": "isActive",
                            "type": "bool"
                        },
                        {
                            "internalType": "uint256",
                            "name": "ticketPrice",
                            "type": "uint256"
                        },
                        {
                            "internalType": "uint256",
                            "name": "fundsHeld",
                            "type": "uint256"
                        },
                        {
                            "internalType": "uint256",
                            "name": "minimumAge",
                            "type": "uint256"
                        },
                        {
                            "internalType": "uint256",
                            "name": "maxCapacity",
                            "type": "uint256"
                        },
                        {
                            "internalType": "bool",
                            "name": "isCanceled",
                            "type": "bool"
                        },
                        {
                            "internalType": "bool",
                            "name": "fundsReleased",
                            "type": "bool"
                        },
                        {
                            "internalType": "bool",
                            "name": "exists",
                            "type": "bool"
                        },
                        {
                            "internalType": "enum EventChain.RefundPolicy",
                            "name": "refundPolicy",
                            "type": "uint8"
                        },
                        {
                            "internalType": "uint256",
                            "name": "refundBufferHours",
                            "type": "uint256"
                        },
                        {
                            "internalType": "address",
                            "name": "paymentToken",
                            "type": "address"
                        },
                        {
                            "internalType": "enum EventChain.EventCategory",
                            "name": "category",
                            "type": "uint8"
                        },
                        {
                            "internalType": "enum EventChain.ApprovalStatus",
                            "name": "approvalStatus",
                            "type": "uint8"
                        },
                        {
                            "internalType": "string",
                            "name": "rejectionReason",
                            "type": "string"
                        }
                    ],
                    "internalType": "struct EventChain.Event[]",
                    "name": "",
                    "type": "tuple[]"
                }
            ],
            "stateMutability": "view",
            "type": "function"
        },
        {
            "inputs": [
                {
                    "internalType": "uint256",
                    "name": "",
                    "type": "uint256"
                },
                {
                    "internalType": "address",
                    "name": "",
                    "type": "address"
                }
            ],
            "name": "hasPurchasedTicket",
            "outputs": [
                {
                    "internalType": "bool",
                    "name": "",
                    "type": "bool"
                }
            ],
            "stateMutability": "view",
            "type": "function"
        },
        {
            "inputs": [
                {
                    "internalType": "address[]",
                    "name": "_supportedTokens",
                    "type": "address[]"
                }
            ],
            "name": "initialize",
            "outputs": [],
            "stateMutability": "nonpayable",
            "type": "function"
        },
        {
            "inputs": [
                {
                    "internalType": "uint256",
                    "name": "",
                    "type": "uint256"
                },
                {
                    "internalType": "address",
                    "name": "",
                    "type": "address"
                }
            ],
            "name": "isAttendee",
            "outputs": [
                {
                    "internalType": "bool",
                    "name": "",
                    "type": "bool"
                }
            ],
            "stateMutability": "view",
            "type": "function"
        },
        {
            "inputs": [],
            "name": "owner",
            "outputs": [
                {
                    "internalType": "address",
                    "name": "",
                    "type": "address"
                }
            ],
            "stateMutability": "view",
            "type": "function"
        },
        {
            "inputs": [],
            "name": "paused",
            "outputs": [
                {
                    "internalType": "bool",
                    "name": "",
                    "type": "bool"
                }
            ],
            "stateMutability": "view",
            "type": "function"
        },
        {
            "inputs": [
                {
                    "internalType": "address",
                    "name": "",
                    "type": "address"
                },
                {
                    "internalType": "address",
                    "name": "",
                    "type": "address"
                }
            ],
            "name": "pendingWithdrawals",
            "outputs": [
                {
                    "internalType": "uint256",
                    "name": "",
                    "type": "uint256"
                }
            ],
            "stateMutability": "view",
            "type": "function"
        },
        {
            "inputs": [],
            "name": "proxiableUUID",
            "outputs": [
                {
                    "internalType": "bytes32",
                    "name": "",
                    "type": "bytes32"
                }
            ],
            "stateMutability": "view",
            "type": "function"
        },
        {
            "inputs": [
                {
                    "internalType": "uint256",
                    "name": "_index",
                    "type": "uint256"
                },
                {
                    "internalType": "string",
                    "name": "_reason",
                    "type": "string"
                }
            ],
            "name": "rejectEvent",
            "outputs": [],
            "stateMutability": "nonpayable",
            "type": "function"
        },
        {
            "inputs": [
                {
                    "internalType": "uint256",
                    "name": "_index",
                    "type": "uint256"
                }
            ],
            "name": "releaseFunds",
            "outputs": [],
            "stateMutability": "nonpayable",
            "type": "function"
        },
        {
            "inputs": [
                {
                    "internalType": "address",
                    "name": "_token",
                    "type": "address"
                }
            ],
            "name": "removeSupportedToken",
            "outputs": [],
            "stateMutability": "nonpayable",
            "type": "function"
        },
        {
            "inputs": [],
            "name": "renounceOwnership",
            "outputs": [],
            "stateMutability": "nonpayable",
            "type": "function"
        },
        {
            "inputs": [
                {
                    "internalType": "uint256",
                    "name": "_index",
                    "type": "uint256"
                }
            ],
            "name": "requestRefund",
            "outputs": [],
            "stateMutability": "nonpayable",
            "type": "function"
        },
        {
            "inputs": [
                {
                    "internalType": "address",
                    "name": "_ticketNFT",
                    "type": "address"
                }
            ],
            "name": "setTicketNFT",
            "outputs": [],
            "stateMutability": "nonpayable",
            "type": "function"
        },
        {
            "inputs": [
                {
                    "internalType": "uint256",
                    "name": "_eventId",
                    "type": "uint256"
                },
                {
                    "internalType": "address",
                    "name": "_holder",
                    "type": "address"
                },
                {
                    "internalType": "string",
                    "name": "_tokenURI",
                    "type": "string"
                }
            ],
            "name": "setTicketURI",
            "outputs": [],
            "stateMutability": "nonpayable",
            "type": "function"
        },
        {
            "inputs": [
                {
                    "internalType": "address",
                    "name": "",
                    "type": "address"
                }
            ],
            "name": "supportedTokens",
            "outputs": [
                {
                    "internalType": "bool",
                    "name": "",
                    "type": "bool"
                }
            ],
            "stateMutability": "view",
            "type": "function"
        },
        {
            "inputs": [],
            "name": "ticketNFT",
            "outputs": [
                {
                    "internalType": "contract IEventTicketNFT",
                    "name": "",
                    "type": "address"
                }
            ],
            "stateMutability": "view",
            "type": "function"
        },
        {
            "inputs": [],
            "name": "togglePause",
            "outputs": [],
            "stateMutability": "nonpayable",
            "type": "function"
        },
        {
            "inputs": [
                {
                    "internalType": "address",
                    "name": "newOwner",
                    "type": "address"
                }
            ],
            "name": "transferOwnership",
            "outputs": [],
            "stateMutability": "nonpayable",
            "type": "function"
        },
        {
            "inputs": [
                {
                    "internalType": "uint256",
                    "name": "_index",
                    "type": "uint256"
                },
                {
                    "internalType": "address",
                    "name": "_to",
                    "type": "address"
                }
            ],
            "name": "transferTicket",
            "outputs": [],
            "stateMutability": "nonpayable",
            "type": "function"
        },
        {
            "inputs": [
                {
                    "internalType": "uint256",
                    "name": "_index",
                    "type": "uint256"
                },
                {
                    "internalType": "string",
                    "name": "_eventName",
                    "type": "string"
                },
                {
                    "internalType": "string",
                    "name": "_eventCardImgUrl",
                    "type": "string"
                },
                {
                    "internalType": "string",
                    "name": "_eventDetails",
                    "type": "string"
                },
                {
                    "internalType": "string",
                    "name": "_eventLocation",
                    "type": "string"
                },
                {
                    "internalType": "uint256",
                    "name": "_ticketPrice",
                    "type": "uint256"
                },
                {
                    "internalType": "uint256",
                    "name": "_maxCapacity",
                    "type": "uint256"
                },
                {
                    "internalType": "enum EventChain.RefundPolicy",
                    "name": "_refundPolicy",
                    "type": "uint8"
                },
                {
                    "internalType": "uint256",
                    "name": "_refundBufferHours",
                    "type": "uint256"
                }
            ],
            "name": "updateEvent",
            "outputs": [],
            "stateMutability": "nonpayable",
            "type": "function"
        },
        {
            "inputs": [
                {
                    "internalType": "address",
                    "name": "newImplementation",
                    "type": "address"
                },
                {
                    "internalType": "bytes",
                    "name": "data",
                    "type": "bytes"
                }
            ],
            "name": "upgradeToAndCall",
            "outputs": [],
            "stateMutability": "payable",
            "type": "function"
        },
        {
            "inputs": [
                {
                    "internalType": "address",
                    "name": "token",
                    "type": "address"
                }
            ],
            "name": "withdraw",
            "outputs": [],
            "stateMutability": "nonpayable",
            "type": "function"
        },
        {
            "stateMutability": "payable",
            "type": "receive"
        }
    ],
    "bytecode": "0x60a080604052346100ea57306080527ff0c57e16840df040f15088dc2f81fe391c3923bec73e23a9662efc9c229c6a005460ff8160401c166100d9576002600160401b03196001600160401b03821601610073575b60405161586a90816100f082396080518181816135ab0152613a0a0152f35b6001600160401b0319166001600160401b039081177ff0c57e16840df040f15088dc2f81fe391c3923bec73e23a9662efc9c229c6a005581527fc7f505b2f371ae2175ee4913f4499e1f2633a7b5936321eed1cdaeb6115181d290602090a13880610054565b63f92ee8a960e01b60005260046000fd5b600080fdfe60806040526004361015610054575b36156100525760405162461bcd60e51b81526020600482015260166024820152752ab9b290313abcaa34b1b5b2ba10333ab731ba34b7b760511b6044820152606490fd5b005b6000803560e01c80630566039b1461448d5780630b791430146142935780630dcaeaf214611ebd578063171e5ba21461413b5780631ac789691461411e5780631bf23cde146140d25780632002058114613ff45780633a5ddf3014613fd65780633f69babd14613e435780634256cae614613e27578063439fd35f14613ddb5780634d68282f14613bb75780634f1ef286146139ba5780634f863bd41461376c57806350d9c62d1461374f57806351cff8d91461360057806352d1902d146135985780635699c7b1146111745780635c975abb146135765780635c98dfa1146128e55780635f1cd1581461349857806360eaa6a514613479578063679ebf1a1461303a57806367dd74ca14612b1957806368c4ac2614612ada5780636ade389b14612a725780636d69fcaf1461296d578063715018a61461290357806371be2e4a146128e557806376319190146127ef578063775e1e5e14612769578063860749851461274d5780638da5cb5b1461271757806395a16d91146126ed578063a224cee714612475578063a4b2409e14611ec2578063abf45ec814611ebd578063ad3cb1cc14611e74578063b393391b14611e4b578063b5e4128714611e26578063b98079bc14611d99578063c27a500d14611ca1578063c2f1cac014611c83578063c4ae316814611c29578063cb71146e14611c0d578063ccfd6d3c14611a97578063d8ff181614611261578063e0c14377146111c9578063e831be5814611174578063eb7e4d4414610fc5578063f2fde38b14610f98578063f60e673e14610f7c5763faf8c3a8146102a7575061000e565b34610f51576101e0366003190112610f51576004356001600160401b038111610f78576102d89036906004016147bf565b906024356001600160401b038111610f74576102f89036906004016147bf565b9190926044356001600160401b038111610f705761031a9036906004016147bf565b906064356001600160401b0381168103610f6c576084356001600160401b0381168103610f685760a4356001600160401b0381168103610f645760c435916001600160401b0383168303610f605760e4356001600160401b038111610f5c576103879036906004016147bf565b9490956003610164351015610f58576101a435976001600160a01b0389168903610f54578d60096101c4351015610f515760ff6103c69154161561509c565b89151580610f46575b6103d89061533a565b8b151580610f3b575b6103ea9061537c565b80151580610f2f575b6103fc906153bd565b86151580610f24575b61040e90615402565b61010435151580610f0d575b6104239061544e565b426001600160401b03841610610ec857610e106001600160401b03841601806001600160401b03851611610d77576001600160401b03851610610e83576001600160401b0383166301e13380810110610e6f576301e133806001600160401b038416016001600160401b03851611610e2a5760966101243511610def5760ff60408f600161014435101580610ddf575b6104bc90615491565b6001600160a01b038c168152600360205220541615610d9a576104e16101643561495e565b6104f160026101643511156154d0565b6104fd6101643561495e565b60026101643514610d1f575b6001549c6040519c61051a8e614826565b8d3390528d8d8d369061052c92614c08565b9060200152369061053c92614c08565b60408d0152369061054c92614c08565b60608b01526001600160401b031660808a01526001600160401b031660a08901526001600160401b031660c08801526001600160401b031660e0870152369061059492614c08565b61010085015285610120850152610104356101408501528561016085015261012435610180850152610144356101a0850152856101c0850152856101e0850152610200840160019052610164356105ea9061495e565b61016435610220850152610184356102408501526001600160a01b031661026084015261061e6101c4356102808501614ed8565b846102a08401526020926040516106358582614858565b8681526102c08201528486526004845260408620815181546001600160a01b0319166001600160a01b039190911617815560208201518051906001600160401b038211610bc1576106968261068d60018601546147ec565b600186016151c9565b8690601f8311600114610cb1576106c592918a9183610abd575b50508160011b916000199060031b1c19161790565b60018201555b60408201518051906001600160401b038211610bc1576106fb826106f260028601546147ec565b600286016151c9565b8690601f8311600114610c435761072992918a9183610abd5750508160011b916000199060031b1c19161790565b60028201555b60608201518051906001600160401b038211610bc15761075f8261075660038601546147ec565b600386016151c9565b8690601f8311600114610bd55761078d92918a9183610abd5750508160011b916000199060031b1c19161790565b60038201555b60808281015160a084015160c08086015160e087015160409390931b6fffffffffffffffff0000000000000000166001600160401b0394851617941b67ffffffffffffffff60801b1693909317921b6001600160c01b0319169190911760048301556101008301518051918211610bc15761081e8261081560058601546147ec565b600586016151c9565b8690601f8311600114610b535761084c92918a9183610abd5750508160011b916000199060031b1c19161790565b60058201555b6108726101208301511515600683019060ff801983541691151516179055565b6101408201516007820155610160820151600882015561018082015160098201556101a0820151600a820155610909600b82016108c26101c08501511515829060ff801983541691151516179055565b6101e0840151815461020086015162ffff001990911691151560081b61ff00169190911790151560101b62ff000016178155610220840151906109048261495e565b6155b3565b610240820151600c820155610260820151600d820180546001600160a01b0319166001600160a01b03929092169190911781556102808301516009811015610b3f57815460ff60a01b191660a09190911b60ff60a01b161781556102a08301516102c092600e92909161097b8161495e565b6109848161495e565b81549060ff60a81b9060a81b169060ff60a81b1916179055019101518051906001600160401b038211610b2b576109c5826109bf85546147ec565b856151c9565b8590601f8311600114610ac8576109f39291899183610abd5750508160011b916000199060031b1c19161790565b90555b3385526008835260408520805490600160401b821015610aa95791610a44827ffc695dea2478fb938a11068aeedddd7046a5fe655f136e30a325d353fe187a459460018997950181556152c1565b81549060031b9086821b91600019901b1916179055610a64600154614d50565b600155610a7d6040519283928784523397840191614d2f565b0390a333907f08bd56af759e7701f41ecd5bc8560a619e1391e9610ca87f802e41766eb3a88f8380a380f35b634e487b7160e01b87526041600452602487fd5b0151905038806106b0565b8389528689209190601f1984168a5b89828210610b15575050908460019594939210610afc575b505050811b0190556109f6565b015160001960f88460031b161c19169055388080610aef565b6001859682939686015181550195019301610ad7565b634e487b7160e01b88526041600452602488fd5b634e487b7160e01b89526021600452602489fd5b9190600584018a52878a20908a935b89601f1985168610610ba857506001945083601f19811610610b8f575b505050811b016005820155610852565b015160001960f88460031b161c19169055388080610b7f565b8282015184559485019460019093019290910190610b62565b634e487b7160e01b89526041600452602489fd5b9190600384018a52878a20908a935b89601f1985168610610c2a57506001945083601f19811610610c11575b505050811b016003820155610793565b015160001960f88460031b161c19169055388080610c01565b8282015184559485019460019093019290910190610be4565b9190600284018a52878a20908a935b89601f1985168610610c9857506001945083601f19811610610c7f575b505050811b01600282015561072f565b015160001960f88460031b161c19169055388080610c6f565b8282015184559485019460019093019290910190610c52565b9190600184018a52878a20908a935b89601f1985168610610d0657506001945083601f19811610610ced575b505050811b0160018201556106cb565b015160001960f88460031b161c19169055388080610cdd565b8282015184559485019460019093019290910190610cc0565b6101843515801580610d8b575b610d3590615514565b610d48426001600160401b0386166152d9565b9061018435610e10610184350204610e10141715610d7757610d7290610e10610184350210615558565b610509565b634e487b7160e01b8f52601160045260248ffd5b506102d0610184351115610d2c565b60405162461bcd60e51b815260206004820152601960248201527f556e737570706f72746564207061796d656e7420746f6b656e000000000000006044820152606490fd5b50620186a06101443511156104b3565b60405162461bcd60e51b8152602060048201526013602482015272496e76616c6964206d696e696d756d2061676560681b6044820152606490fd5b60405162461bcd60e51b815260206004820152601760248201527f4576656e74206475726174696f6e20746f6f206c6f6e670000000000000000006044820152606490fd5b634e487b7160e01b8e52601160045260248efd5b60405162461bcd60e51b815260206004820152601860248201527f4576656e74206475726174696f6e20746f6f2073686f727400000000000000006044820152606490fd5b60405162461bcd60e51b815260206004820152601c60248201527f53746172742064617465206d75737420626520696e20667574757265000000006044820152606490fd5b5069d3c21bcecceda100000061010435111561041a565b506096871115610405565b506103e88111156103f3565b5060c88c11156103e1565b5060648a11156103cf565b80fd5b8d80fd5b8c80fd5b8b80fd5b8a80fd5b8980fd5b8880fd5b8780fd5b8580fd5b8380fd5b5080fd5b5034610f515780600319360112610f5157602090604051908152f35b5034610f51576020366003190112610f5157610fc2610fb56147a9565b610fbd615688565b6155d6565b80f35b5034610f51576020366003190112610f5157600435610fe2615688565b610fea61564c565b80825260046020526040822090600b820180549261100d60ff8560101c166150da565b6001600160401b03600482015460401c166276a700810180911161116057421115611110577f61f4a796c29c0b19830a107f63c010f13bcd46bf2118e1747abc3dedad4c24039260209261106760ff8760081c161561511d565b61010060088401968888549861107e8a151561520e565b5561ff00191617905581546001600160a01b039081168752600b84526040808820600d8501549092166000908152918552902080546110be908790615162565b90557f99010623e00d801536d5e2da7de373bda9592873b6d101d65738aa2582e6452283604051878152a2546040519384526001600160a01b031692a260016000805160206157f58339815191525580f35b60405162461bcd60e51b815260206004820152602260248201527f456d657267656e6379207769746864726177616c2064656c6179206e6f74206d604482015261195d60f21b6064820152608490fd5b634e487b7160e01b86526011600452602486fd5b5034610f51576040366003190112610f515760406111906147a9565b9161119961478e565b9260018060a01b03168152600b602052209060018060a01b03166000526020526020604060002054604051908152f35b5034610f51576020366003190112610f515760043590818152600460205260ff600b60408320015460101c1615611229576040816112259361121193526006602052206152e6565b604051918291602083526020830190614c56565b0390f35b60405162461bcd60e51b815260206004820152601060248201526f125b9d985b1a5908195d995b9d08125160821b6044820152606490fd5b5034610f5157610120366003190112610f51576024356001600160401b038111610f78576112939036906004016147bf565b6044356001600160401b038111610f74576112b29036906004016147bf565b906064356001600160401b038111610f70576112d29036906004016147bf565b906084356001600160401b038111610f6c576112f29036906004016147bf565b929093600360e4351015610f68576004358952600460205261132160018060a01b0360408b205416331461505e565b6004358952600460205261134160ff600b60408c20015460101c16614c93565b600480358a526020526040892054611363906001600160a01b03161515614cd5565b61137160ff8a54161561509c565b600435895260046020526040892095600160ff600d89015460a81c166113968161495e565b14801590611a81575b15611a3c576113b560ff600b8901541615615281565b87151580611a31575b6113c79061533a565b80151580611a26575b6113d99061537c565b82151580611a1a575b6113eb906153bd565b84151580611a0f575b6113fd90615402565b600787015460a43503611971575b600a8701805460c435036118e6575b5061142660e43561495e565b611435600260e43511156154d0565b61144060e43561495e565b600260e4351461186b575b6001600160401b038811611857576114738861146a60018a01546147ec565b60018a016151c9565b8988601f81116001146117eb57806114a0928d916117e0575b508160011b916000199060031b1c19161790565b60018801555b60028701916001600160401b0382116117cc576114c7826109bf85546147ec565b8a90601f8311600114611768576114f592918c91836116925750508160011b916000199060031b1c19161790565b90555b60038501916001600160401b038211610bc157611519826109bf85546147ec565b8890601f83116001146117045761154792918a91836116925750508160011b916000199060031b1c19161790565b90555b60058301916001600160401b038211610aa957908291611570826109bf8a9796546147ec565b8490601f831160011461169d5761159e92918691836116925750508160011b916000199060031b1c19161790565b90555b6115b060e435600b83016155b3565b61010435600c820155600d81015490600260ff8360a81c166115d18161495e565b1461161c575b5050507fdc95c3f54791d672d64eda50093741a6fbfcd4ef21c1c646655be46fc63b930d60405160208152806116163395600435956020840191614d2f565b0390a380f35b60ff60a81b19909116600d820155600e018054611638906147ec565b601f8111611673575b5055336004357f08bd56af759e7701f41ecd5bc8560a619e1391e9610ca87f802e41766eb3a88f8580a38238806115d7565b8183526020832061168c91601f0160051c8101906151b2565b38611641565b0135905038806106b0565b8386526020862091601f198416875b8181106116e957509084600195949392106116cf575b505050811b0190556115a1565b0135600019600384901b60f8161c191690553880806116c2565b8284013585558b9850600190940193602092830192016116ac565b838a5260208a2091601f1984168b5b8181106117505750908460019594939210611736575b505050811b01905561154a565b0135600019600384901b60f8161c19169055388080611729565b91936020600181928787013581550195019201611713565b838c5260208c2091601f1984168d5b8181106117b4575090846001959493921061179a575b505050811b0190556114f8565b0135600019600384901b60f8161c1916905538808061178d565b91936020600181928787013581550195019201611777565b634e487b7160e01b8b52604160045260248bfd5b90508b01353861148c565b50600188018b5260208b20908b5b8b601f198c16821061183f57505089601f19811610611825575b5050600188811b0160018801556114a6565b8a013560001960038b901b60f8161c191690553880611813565b600183946020939484930135815501930191016117f9565b634e487b7160e01b8a52604160045260248afd5b61010435158015806118d7575b61188190615514565b6118996001600160401b0360048a01541642906152d9565b90610e10610104350290610104358204610e101417156118c357906118be9110615558565b61144b565b634e487b7160e01b8c52601160045260248cfd5b506102d0610104351115611878565b600160c435101580611962575b6118fc90615491565b6004358b52600760205260408b205460c4351061191e5760c43590553861141a565b606460405162461bcd60e51b815260206004820152602060248201527f43617061636974792062656c6f772063757272656e7420617474656e646565736044820152fd5b50620186a060c43511156118f3565b6004358a52600760205260408a20546119bb5760a4351515806119a5575b6119989061544e565b60a435600788015561140b565b5069d3c21bcecceda100000060a435111561198f565b60405162461bcd60e51b815260206004820152602660248201527f43616e6e6f74206368616e6765207072696365206166746572207469636b65746044820152651cc81cdbdb1960d21b6064820152608490fd5b5060968511156113f4565b506103e88311156113e2565b5060c88111156113d0565b5060648811156113be565b60405162461bcd60e51b815260206004820152601e60248201527f417070726f766564206576656e7420616c7265616479207374617274656400006044820152606490fd5b506001600160401b03600488015416421061139f565b5034610f515780600319360112610f51578081600154905b818110611b935750611ac9611ac383614d75565b92614e5e565b9280805b838110611ae35760405180611225888883614bc8565b808252600460205260ff600b60408420015460101c1680611b75575b80611b5c575b611b12575b600101611acd565b91611b548184611b2460019489614eae565b528484526004602052611b3960408520614ee4565b611b43828a614eae565b52611b4e8189614eae565b50614d50565b929050611b0a565b50808252600460205260ff600660408420015416611b05565b50808252600460205260408220546001600160a01b03163314611aff565b808452600460205260ff600b60408620015460101c1680611bef575b80611bd6575b611bc2575b600101611aaf565b91611bce600191614d50565b929050611bba565b50808452600460205260ff600660408620015416611bb5565b50808452600460205260408420546001600160a01b03163314611baf565b5034610f515780600319360112610f5157602060405160c88152f35b5034610f515780600319360112610f5157611c42615688565b7f9077d36bc00859b5c3f320310707208543dd35092cb0a0fe117d0c6a558b148b6020825460ff8082161516809160ff19161784556040519015158152a180f35b5034610f515780600319360112610f515760206040516276a7008152f35b5034610f515780600319360112610f51578081600154905b818110611d435750611ccd611ac383614d75565b9280805b838110611ce75760405180611225888883614bc8565b808252600460205260ff600b60408420015460101c1680611d2a575b611d10575b600101611cd1565b91611d228184611b2460019489614eae565b929050611d08565b50808252600460205260ff600660408420015416611d03565b808452600460205260ff600b60408620015460101c1680611d80575b611d6c575b600101611cb9565b91611d78600191614d50565b929050611d64565b50808452600460205260ff600660408620015416611d5f565b5034610f51576020366003190112610f5157611e1890611225611e04611dfe604060043594611dc6614da7565b508581526004602052611de460ff600b848420015460101c166150da565b858152600460205281812095815260066020522093614ee4565b926152e6565b6040519384936040855260408501906149db565b908382036020850152614c56565b5034610f515780600319360112610f5157602060405169d3c21bcecceda10000008152f35b5034610f515780600319360112610f51576002546040516001600160a01b039091168152602090f35b5034610f515780600319360112610f515750611225604051611e97604082614858565b60058152640352e302e360dc1b602082015260405191829160208352602083019061491d565b61498b565b5034610f51576020366003190112610f515760043590611ee061564c565b8181526004602052611efe60ff600b60408420015460101c16614c93565b81815260046020526040812054611f1f906001600160a01b03161515614cd5565b611f2d60ff8254161561509c565b818152600960209081526040808320336000908152925290205460ff161561243a5781815260046020526040812091600783015460088401818154106123f557600b85015460ff81161561228f575b50828452600960209081526040808620336000818152918452828220805460ff1990811690915587895260058552838920918352935220805490911690558054611fc79083906152d9565b90558183526007602052604083208054801561227b5760001901905581835260066020526040832093828452600a6020526040842060018060a01b0333166000526020526040600020548554600019810190811161116057808203612205575b505084549485156121f1578495600019019061204382826152c1565b81546001600160a01b0360039290921b82901b1916909155919055838552600a602090815260408087203360008181529184528282208990558852600b8352818820600d9095015490931683529290522080546120a1908390615162565b9055604051818152827f7a482fdeb6bc9a1376f597068a214a7a39472bb2eff1b8cad21ba04f49ddca1b60203393a36040519081527f61f4a796c29c0b19830a107f63c010f13bcd46bf2118e1747abc3dedad4c240360203392a26002546001600160a01b03168015158061217f575b61212c575b8260016000805160206157f58339815191525580f35b803b1561217b57604051632c76da7f60e01b8152600481019290925233602483015282908290604490829084905af1612166575b80612116565b8161217091614858565b610f51578038612160565b5050fd5b50604051632953d7df60e11b815260048101839052336024820152602081604481855afa9081156121e65784916121b7575b50612111565b6121d9915060203d6020116121df575b6121d18183614858565b810190614d17565b386121b1565b503d6121c7565b6040513d86823e3d90fd5b634e487b7160e01b85526031600452602485fd5b61220f90876152c1565b905460039190911b1c6001600160a01b03166122538161222f848a6152c1565b81546001600160a01b0393841660039290921b91821b9390911b1916919091179055565b848652600a602052604086209060018060a01b03166000526020526040600020553880612027565b634e487b7160e01b85526011600452602485fd5b60181c60ff1661229e8161495e565b806122f35760405162461bcd60e51b815260206004820152602260248201527f526566756e6473206e6f7420616c6c6f77656420666f722074686973206576656044820152611b9d60f21b6064820152608490fd5b6122fc8161495e565b6001810361236657506001600160401b03600486015416421015612321575b38611f7c565b60405162461bcd60e51b815260206004820152601760248201527f526566756e6420706572696f642068617320656e6465640000000000000000006044820152606490fd5b6002906123728161495e565b0361231b576001600160401b03600486015416600c86015490610e10820291808304610e10149015171561116057906123aa916152d9565b421061231b5760405162461bcd60e51b815260206004820152601e60248201527f526566756e642062756666657220706572696f642068617320656e64656400006044820152606490fd5b60405162461bcd60e51b815260206004820152601e60248201527f496e73756666696369656e742066756e647320696e20636f6e747261637400006044820152606490fd5b60405162461bcd60e51b8152602060048201526013602482015272139bc81d1a58dad95d081c1d5c98da185cd959606a1b6044820152606490fd5b5034610f51576020366003190112610f51576004356001600160401b038111610f785736602382011215610f785780600401356124b181614c3f565b916124bf6040519384614858565b8183526024602084019260051b820101903682116126e957602401915b8183106126c95750505060008051602061581583398151915254906001600160401b0360ff8360401c16159216801590816126c1575b60011490816126b7575b1590816126ae575b5061269f578160016001600160401b03196000805160206158158339815191525416176000805160206158158339815191525561266d575b612564615725565b61256c615725565b60016000805160206157f583398151915255612586615725565b61258e615725565b612597336155d6565b61259f615725565b828052600360205260408320805460ff19166001179055825b815181101561260f576001906001600160a01b036125d68285614eae565b51166125e3575b016125b8565b818060a01b036125f38285614eae565b51168552600360205260408520805460ff1916831790556125dd565b50506126185780f35b60ff60401b196000805160206158158339815191525416600080516020615815833981519152557fc7f505b2f371ae2175ee4913f4499e1f2633a7b5936321eed1cdaeb6115181d2602060405160018152a180f35b600160401b60ff60401b196000805160206158158339815191525416176000805160206158158339815191525561255c565b63f92ee8a960e01b8352600483fd5b90501538612524565b303b15915061251c565b839150612512565b82356001600160a01b0381168103610f70578152602092830192016124dc565b8480fd5b5034610f51576020366003190112610f515760406020916004358152600783522054604051908152f35b5034610f515780600319360112610f51576000805160206157b5833981519152546040516001600160a01b039091168152602090f35b5034610f515780600319360112610f5157602060405160648152f35b5034610f51576020366003190112610f51576001600160a01b0361278b6147a9565b168152600860205260408120604051918260208354918281520192825260208220915b8181106127d957611225856127c581870382614858565b6040519182916020835260208301906149a7565b82548452602090930192600192830192016127ae565b5034610f51576020366003190112610f51576128096147a9565b612811615688565b6001600160a01b031680156128ab57808252600360205260ff6040832054161561287057808252600360205260408220805460ff191690557fbea12876694c4055c71f74308f752b9027cf3d554194000a366abddfc239a3068280a280f35b60405162461bcd60e51b8152602060048201526013602482015272151bdad95b881b9bdd081cdd5c1c1bdc9d1959606a1b6044820152606490fd5b60405162461bcd60e51b815260206004820152601260248201527143616e6e6f742072656d6f76652043454c4f60701b6044820152606490fd5b5034610f515780600319360112610f51576020600154604051908152f35b5034610f515780600319360112610f515761291c615688565b6000805160206157b583398151915280546001600160a01b0319811690915581906001600160a01b03167f8be0079c531659141344cd1fd0a4f28419497f9722a3daafe3b4186f6b6457e08280a380f35b5034610f51576020366003190112610f51576129876147a9565b61298f615688565b6001600160a01b03168015612a3557808252600360205260ff6040832054166129f057808252600360205260408220805460ff191660011790557fd1be2e90bd3d24839d9dd94ad871068e1f9688b02fa43f2a62c9975dfa9de2d78280a280f35b60405162461bcd60e51b815260206004820152601760248201527f546f6b656e20616c726561647920737570706f727465640000000000000000006044820152606490fd5b60405162461bcd60e51b8152602060048201526015602482015274496e76616c696420746f6b656e206164647265737360581b6044820152606490fd5b5034610f51576020366003190112610f5157612a8c6147a9565b612a94615688565b600280546001600160a01b0319166001600160a01b039290921691821790557f7e82ee16286c5fc8de5c52906aa41f5a03497e12fa36b2c97312034a80a215bd8280a280f35b5034610f51576020366003190112610f515760209060ff906040906001600160a01b03612b056147a9565b168152600384522054166040519015158152f35b506020366003190112610f5157600435612b3161564c565b8082526004602052612b4f60ff600b60408520015460101c16614c93565b80825260046020526040822054612b70906001600160a01b03161515614cd5565b612b7e60ff8354161561509c565b8082526004602052604082206001600160401b03600482015416421015612ff557600d81015490600160ff8360a81c16612bb78161495e565b03612fbb5760ff60068201541615612f8057828452600960209081526040808620336000908152925290205460ff16612f3b5782845260076020526040842054600a8201541115612ef6576007810154916001600160a01b03169081612e5157823403612e1457600801612c2c838254615162565b90555b8284526009602090815260408086203360008181529184528282208054600160ff199182168117909255888a5260058652848a20838552865284842080549091169091179055868852600680855283892054888a52600a8652848a2092845291855291839020558587529091528420805490600160401b821015612e00578492612d04612ce684612d3d9460017f504ef6dabca28c1452704d54bd8e25708d87e0c27d852eceea53a0c0d8986758970181556152c1565b81546001600160a01b0360039290921b91821b19163390911b179055565b838752600760205260408720612d1a8154614d50565b9055604080519586526001600160a01b0390911660208601523394918291820190565b0390a36002546001600160a01b03169081612d68578260016000805160206157f58339815191525580f35b6040516352fbfa3360e11b815233600482015260248101829052916020908390604490829087905af1839281612dcc575b50156121165733907f44c79569f92b8d14ce3b91787d2daa8f2aac40443c9e2316352c3cbd64deeb3a8480a43880612116565b9092506020813d602011612df8575b81612de860209383614858565b81010312610f7457519138612d99565b3d9150612ddb565b634e487b7160e01b86526041600452602486fd5b60405162461bcd60e51b8152602060048201526015602482015274125b98dbdc9c9958dd0810d15313c8185b5bdd5b9d605a1b6044820152606490fd5b34612ea657600890612e936040516323b872dd60e01b602082015233602482015230604482015285606482015260648152612e8d608482614858565b846156be565b01612e9f838254615162565b9055612c2f565b60405162461bcd60e51b815260206004820152602260248201527f446f6e27742073656e642043454c4f207769746820746f6b656e207061796d656044820152611b9d60f21b6064820152608490fd5b60405162461bcd60e51b815260206004820152601960248201527f4576656e74206174206d6178696d756d206361706163697479000000000000006044820152606490fd5b60405162461bcd60e51b815260206004820152601860248201527f5469636b657420616c72656164792070757263686173656400000000000000006044820152606490fd5b60405162461bcd60e51b81526020600482015260136024820152724576656e74206973206e6f742061637469766560681b6044820152606490fd5b60405162461bcd60e51b8152602060048201526012602482015271115d995b9d081b9bdd08185c1c1c9bdd995960721b6044820152606490fd5b60405162461bcd60e51b815260206004820152601c60248201527f4576656e74206861732073746172746564206f722065787069726564000000006044820152606490fd5b5034610f51576040366003190112610f515760043561305761478e565b9061306061564c565b808352600460205261307e60ff600b60408620015460101c16614c93565b8083526004602052604083205461309f906001600160a01b03161515614cd5565b6130ad60ff8454161561509c565b808352600960209081526040808520336000908152925290205460ff161561343c576001600160a01b0382169081156133f7573382146133b2578084526009602052604084208260005260205260ff6040600020541661336d5780845260046020526001600160401b0360046040862001541642101561331d57808452600960208181526040808720336000818152918452828220805460ff19908116909155868a529484528289208783528452828220805486166001908117909155868a526005808652848b208385528652848420805488169055878b528552838a208884528552838320805490961617909455848852600a83528188209381529282529182902054838752600690915290852085946131cd9161222f9084906152c1565b818452600a6020526040842083600052602052604060002055808352600a6020526040832060018060a01b03331660005260205282604060002055604051918033837fd15524263ae66f75c1e604c47db6085085110f23ef7322b355179ac5e3b0783a8780a46002546001600160a01b03169283151590816132bc575b50613266575b8360016000805160206157f58339815191525580f35b823b156132b75760648492836040519586948593636f62eedb60e01b8552600485015233602485015260448401525af16132a2575b8080613250565b816132ac91614858565b610f5157803861329b565b505050fd5b632953d7df60e11b8152600481018490523360248201529050602081604481875afa9081156133125785916132f3575b503861324a565b61330c915060203d6020116121df576121d18183614858565b386132ec565b6040513d87823e3d90fd5b60405162461bcd60e51b815260206004820152602260248201527f43616e6e6f74207472616e73666572206166746572206576656e742073746172604482015261747360f01b6064820152608490fd5b60405162461bcd60e51b815260206004820152601c60248201527f526563697069656e7420616c726561647920686173207469636b6574000000006044820152606490fd5b60405162461bcd60e51b815260206004820152601b60248201527f43616e6e6f74207472616e7366657220746f20796f757273656c6600000000006044820152606490fd5b60405162461bcd60e51b815260206004820152601960248201527f496e76616c696420726563697069656e742061646472657373000000000000006044820152606490fd5b60405162461bcd60e51b81526020600482015260156024820152742737903a34b1b5b2ba103a37903a3930b739b332b960591b6044820152606490fd5b5034610f515780600319360112610f515760206040516301e133808152f35b5034610f51576020366003190112610f51576004356134b5615688565b80825260046020526134d360ff600b60408520015460101c16614c93565b808252600460205260408220546134f4906001600160a01b03161515614cd5565b8082526004602052600660408320600d8101805461352160ff8260a81c1661351b8161495e565b1561516f565b61353260ff600b8501541615615281565b60ff60a81b1916600160a81b17905501805460ff1916600117905533907f2a87097bcc5b3e711305670da8a3ce74a1b6e43f1a85b8310a23cf8ccc1956178380a380f35b5034610f515780600319360112610f515760ff60209154166040519015158152f35b5034610f515780600319360112610f51577f00000000000000000000000000000000000000000000000000000000000000006001600160a01b031630036135f15760206040516000805160206157d58339815191528152f35b63703e46dd60e11b8152600490fd5b5034610f51576020366003190112610f515761361a6147a9565b61362261564c565b338252600b6020526040822060018060a01b0382166000526020526040600020549061364f82151561520e565b338352600b602090815260408085206001600160a01b03939093166000818152939092529091208390559081613715578280808084335af161368f615251565b50156136d7575b6040519081527fd1c19fbcd4551a5edfb66d43d2e337c04837afda3482b42bdf569a8fccdae5fb60203392a360016000805160206157f58339815191525580f35b60405162461bcd60e51b815260206004820152601660248201527510d15313c81dda5d1a191c985dd85b0819985a5b195960521b6044820152606490fd5b60405163a9059cbb60e01b60208201523360248201526044808201839052815261374a90613744606482614858565b836156be565b613696565b5034610f515780600319360112610f515760206040516103e88152f35b5034610f51576040366003190112610f51576004356024356001600160401b0381116139b6576137a09036906004016147bf565b91906137aa615688565b81845260046020526137c860ff600b60408720015460101c16614c93565b818452600460205260408420546137e9906001600160a01b03161515614cd5565b818452600460205260408420600d81019081549161381060ff8460a81c1661351b8161495e565b85156139715760ff60a81b19909216600160a91b1790915560068101805460ff19169055600e016001600160401b03841161395d576138598461385383546147ec565b836151c9565b8385601f82116001146138d057916138ac827f9f3c69deb9c73c67d99052d996bf9141128a833ffcf0911d0c9c6e1c110bf9619593611616958a916138c557508160011b916000199060031b1c19161790565b90555b6040519182916020835233966020840191614d2f565b90508401353861148c565b82875260208720915085601f198116885b8181106139425750917f9f3c69deb9c73c67d99052d996bf9141128a833ffcf0911d0c9c6e1c110bf961959391611616959310613928575b5050600186811b0190556138af565b830135600019600389901b60f8161c191690553880613919565b868401358555600190940193602093840193899350016138e1565b634e487b7160e01b85526041600452602485fd5b60405162461bcd60e51b815260206004820152601960248201527f52656a656374696f6e20726561736f6e207265717569726564000000000000006044820152606490fd5b8280fd5b506040366003190112610f51576139cf6147a9565b906024356001600160401b038111610f785736602382011215610f7857613a00903690602481600401359101614c08565b6001600160a01b037f000000000000000000000000000000000000000000000000000000000000000016308114908115613b94575b50613b8557613a42615688565b6040516352d1902d60e01b8152926001600160a01b0381169190602085600481865afa80958596613b51575b50613a8757634c9c8ce360e01b84526004839052602484fd5b9091846000805160206157d58339815191528103613b3f5750813b15613b2d576000805160206157d583398151915280546001600160a01b031916821790557fbc7cd75a20ee27fd9adebab32041f755214dbc6bffa90cc0225b39da2e5c2d3b8480a28151839015613b135780836020613b0f95519101845af4613b09615251565b91615753565b5080f35b50505034613b1e5780f35b63b398979f60e01b8152600490fd5b634c9c8ce360e01b8452600452602483fd5b632a87526960e21b8552600452602484fd5b9095506020813d602011613b7d575b81613b6d60209383614858565b810103126126e957519438613a6e565b3d9150613b60565b63703e46dd60e11b8252600482fd5b6000805160206157d5833981519152546001600160a01b03161415905038613a35565b5034610f51576020366003190112610f51576004358082526004602052613beb60018060a01b03604084205416331461505e565b613bf361564c565b80825260046020526040822090600b820191825492613c1760ff8560101c166150da565b6001600160401b03600483015460401c16421115613d965760ff8416613d4157613c4760ff8560081c161561511d565b600882018054948515613d06579086905561ff001916610100179055338452600b60209081526040808620600d909301546001600160a01b031660009081529290915290208054613c99908490615162565b90557f80230996023d69b50793fa73f1919127c9d8e741d3989743c479169f22e7a2886020604051848152a26040519081527f61f4a796c29c0b19830a107f63c010f13bcd46bf2118e1747abc3dedad4c240360203392a260016000805160206157f58339815191525580f35b60405162461bcd60e51b81526020600482015260136024820152724e6f2066756e647320746f2072656c6561736560681b6044820152606490fd5b60405162461bcd60e51b815260206004820152602760248201527f43616e6e6f742072656c656173652066756e647320666f722063616e63656c656044820152661908195d995b9d60ca1b6064820152608490fd5b60405162461bcd60e51b815260206004820152601760248201527f4576656e7420686173206e6f7420656e646564207965740000000000000000006044820152606490fd5b5034610f51576040366003190112610f51576040613df761478e565b9160043581526009602052209060018060a01b0316600052602052602060ff604060002054166040519015158152f35b5034610f515780600319360112610f5157602060405160018152f35b5034610f51576020366003190112610f51576004358082526004602052613e7760018060a01b03604084205416331461505e565b8082526004602052613e9560ff600b60408520015460101c16614c93565b80825260046020526040822054613eb6906001600160a01b03161515614cd5565b613ec460ff8354161561509c565b8082526004602052600260ff600d60408520015460a81c16613ee58161495e565b14613f9157808252600460205260ff600b60408420015416613f595780825260046020526006604083200160ff1981541690558082526004602052600b6040832001600160ff198254161790557fceaf11772900fe569752a0207c8639fb8228eb8663456dc9eaa3a08f927a87058280a280f35b60405162461bcd60e51b815260206004820152601060248201526f105b1c9958591e4818d85b98d95b195960821b6044820152606490fd5b60405162461bcd60e51b815260206004820152601c60248201527f43616e6e6f742063616e63656c2072656a6563746564206576656e74000000006044820152606490fd5b5034610f515780600319360112610f51576020604051620186a08152f35b5034610f51576020366003190112610f51576001600160a01b036140166147a9565b1681526008602052604081206040518082602082945493848152019085526020852092855b8181106140b957505061405092500382614858565b61405a8151614e5e565b91805b82518110156140a3578061407360019285614eae565b518352600460205261408760408420614ee4565b6140918287614eae565b5261409c8186614eae565b500161405d565b6040516020808252819061122590820187614b6f565b845483526001948501948694506020909301920161403b565b5034610f51576040366003190112610f515760406140ee61478e565b9160043581526005602052209060018060a01b0316600052602052602060ff604060002054166040519015158152f35b5034610f515780600319360112610f51576020604051610e108152f35b5034610f51576020366003190112610f51576141556147a9565b6001548291825b82811061422a575061417661417084614d75565b93614e5e565b938091815b8481106141915760405180611225898983614bc8565b808352600460205260ff600b60408520015460101c16806141fe575b6141ba575b60010161417b565b926141f681856141cc6001948a614eae565b5285855260046020526141e160408620614ee4565b6141eb828b614eae565b52611b4e818a614eae565b9390506141b2565b508083526009602090815260408085206001600160a01b0385166000908152925290205460ff166141ad565b808552600460205260ff600b60408720015460101c1680614267575b614253575b60010161415c565b9261425f600191614d50565b93905061424b565b508085526009602090815260408087206001600160a01b0385166000908152925290205460ff16614246565b5034610f51576020366003190112610f51576004803582526020526040902080546001600160a01b0316906142ca60018201614879565b906142d760028201614879565b906142e460038201614879565b600482015491906142f760058301614879565b92600683015460ff169360078401546008850154600986015491600a87015493600b88015495600c89015497600d8a015499600e0161433590614879565b9b6040519e8f9e8f918252602082016102e090526102e082016143579161491d565b9080820390604001526143699161491d565b8d810360608f015261437a9161491d565b908c6001600160401b03821690608001528c8160401c6001600160401b03169060a001528c8160801c6001600160401b03169060c0015260c01c60e08d01528b81036101008d01526143cb9161491d565b9715156101208b01526101408a01526101608901526101808801526101a087015260ff811615156101c08701528060081c60ff1615156101e08701528060101c60ff1615156102008701528060181c60ff166144269061495e565b60181c60ff16610220860152610240850152600160a01b60019003811661026085015261028084018160a01c60ff169061445f9161497e565b8060a81c60ff1661446f9061495e565b60a81c60ff166102a08401528281036102c08401526112259161491d565b5034610f51576060366003190112610f51576004356144aa61478e565b906044356001600160401b038111610f74576144ca9036906004016147bf565b82855260046020526144e860ff600b60408820015460101c16614c93565b82855260046020526040852054614509906001600160a01b03161515614cd5565b828552600460205260408520546001600160a01b03163314801561476d575b15614737576002546001600160a01b03169384156146fb57604051632953d7df60e11b8152600481018590526001600160a01b0382166024820152602081604481895afa9081156146f05787916146d1575b501561468c57811561465b57843b15610f7057604051630566039b60e01b8152600481018590526001600160a01b03909116602482018190526060604483015294869082908183816145d060648201898b614d2f565b03925af180156146505761461a575b50907f8726d3d4f3e4c19de4d865a7c970030673f9b101e19f01750fd42a69b3c7bdc391611616604051928392602084526020840191614d2f565b94614648817f8726d3d4f3e4c19de4d865a7c970030673f9b101e19f01750fd42a69b3c7bdc3949397614858565b9490916145df565b6040513d88823e3d90fd5b60405162461bcd60e51b8152602060048201526009602482015268456d7074792055524960b81b6044820152606490fd5b60405162461bcd60e51b815260206004820152601860248201527f486f6c64657220686173206e6f207469636b6574204e465400000000000000006044820152606490fd5b6146ea915060203d6020116121df576121d18183614858565b3861457a565b6040513d89823e3d90fd5b60405162461bcd60e51b81526020600482015260146024820152731391950818dbdb9d1c9858dd081b9bdd081cd95d60621b6044820152606490fd5b60405162461bcd60e51b815260206004820152600e60248201526d139bdd08185d5d1a1bdc9a5e995960921b6044820152606490fd5b506000805160206157b5833981519152546001600160a01b03163314614528565b602435906001600160a01b03821682036147a457565b600080fd5b600435906001600160a01b03821682036147a457565b9181601f840112156147a4578235916001600160401b0383116147a457602083818601950101116147a457565b90600182811c9216801561481c575b602083101461480657565b634e487b7160e01b600052602260045260246000fd5b91607f16916147fb565b6102e081019081106001600160401b0382111761484257604052565b634e487b7160e01b600052604160045260246000fd5b90601f801991011681019081106001600160401b0382111761484257604052565b906040519182600082549261488d846147ec565b80845293600181169081156148fb57506001146148b4575b506148b292500383614858565b565b90506000929192526020600020906000915b8183106148df5750509060206148b292820101386148a5565b60209193508060019154838589010152019101909184926148c6565b9050602092506148b294915060ff191682840152151560051b820101386148a5565b919082519283825260005b848110614949575050826000602080949584010152601f8019910116010190565b80602080928401015182828601015201614928565b6003111561496857565b634e487b7160e01b600052602160045260246000fd5b9060098210156149685752565b346147a45760003660031901126147a457602060405160968152f35b906020808351928381520192019060005b8181106149c55750505090565b82518452602093840193909201916001016149b8565b614b6c9160018060a01b0382511681526102c0614a96614a36614a24614a1260208701516102e060208801526102e087019061491d565b6040870151868203604088015261491d565b6060860151858203606087015261491d565b6001600160401b0360808601511660808501526001600160401b0360a08601511660a08501526001600160401b0360c08601511660c08501526001600160401b0360e08601511660e085015261010085015184820361010086015261491d565b9261012081015115156101208401526101408101516101408401526101608101516101608401526101808101516101808401526101a08101516101a08401526101c081015115156101c08401526101e081015115156101e08401526102008101511515610200840152610220810151614b0e8161495e565b6102208401526102408181015190840152610260808201516001600160a01b03169084015261028080820151614b469185019061497e565b6102a0810151614b558161495e565b6102a08401520151906102c081840391015261491d565b90565b9080602083519182815201916020808360051b8301019401926000915b838310614b9b57505050505090565b9091929394602080614bb9600193601f1986820301875289516149db565b97019301930191939290614b8c565b9091614bdf614b6c936040845260408401906149a7565b916020818403910152614b6f565b6001600160401b03811161484257601f01601f191660200190565b929192614c1482614bed565b91614c226040519384614858565b8294818452818301116147a4578281602093846000960137010152565b6001600160401b0381116148425760051b60200190565b906020808351928381520192019060005b818110614c745750505090565b82516001600160a01b0316845260209384019390920191600101614c67565b15614c9a57565b60405162461bcd60e51b8152602060048201526013602482015272115d995b9d08191bd95cdb89dd08195e1a5cdd606a1b6044820152606490fd5b15614cdc57565b60405162461bcd60e51b81526020600482015260136024820152724576656e74206f776e6572206973207a65726f60681b6044820152606490fd5b908160209103126147a4575180151581036147a45790565b908060209392818452848401376000828201840152601f01601f1916010190565b6000198114614d5f5760010190565b634e487b7160e01b600052601160045260246000fd5b90614d7f82614c3f565b614d8c6040519182614858565b8281528092614d9d601f1991614c3f565b0190602036910137565b60405190614db482614826565b60606102c08360008152826020820152826040820152828082015260006080820152600060a0820152600060c0820152600060e082015282610100820152600061012082015260006101408201526000610160820152600061018082015260006101a082015260006101c082015260006101e08201526000610200820152600061022082015260006102408201526000610260820152600061028082015260006102a08201520152565b90614e6882614c3f565b614e756040519182614858565b8281528092614e86601f1991614c3f565b019060005b828110614e9757505050565b602090614ea2614da7565b82828501015201614e8b565b8051821015614ec25760209160051b010190565b634e487b7160e01b600052603260045260246000fd5b60098210156149685752565b90604051614ef181614826565b6102c0615059600e839560018060a01b038154168552614f1360018201614879565b6020860152614f2460028201614879565b6040860152614f3560038201614879565b606086015260048101546001600160401b03811660808701526001600160401b038160401c1660a08701526001600160401b038160801c1660c087015260c01c60e0860152614f8660058201614879565b61010086015260ff6006820154161515610120860152600781015461014086015260088101546101608601526009810154610180860152600a8101546101a086015260ff600b82015481811615156101c0880152818160081c1615156101e0880152818160101c16151561020088015260181c166150038161495e565b610220860152600c810154610240860152600d8101546001600160a01b03811661026087015260ff9061504060a082901c83166102808901614ed8565b60a81c1661504d8161495e565b6102a086015201614879565b910152565b1561506557565b60405162461bcd60e51b815260206004820152600f60248201526e2737ba1032bb32b73a1037bbb732b960891b6044820152606490fd5b156150a357565b60405162461bcd60e51b815260206004820152600f60248201526e10dbdb9d1c9858dd081c185d5cd959608a1b6044820152606490fd5b156150e157565b60405162461bcd60e51b8152602060048201526014602482015273115d995b9d08191bd95cc81b9bdd08195e1a5cdd60621b6044820152606490fd5b1561512457565b60405162461bcd60e51b8152602060048201526016602482015275119d5b991cc8185b1c9958591e481c995b19585cd95960521b6044820152606490fd5b91908201809211614d5f57565b1561517657565b60405162461bcd60e51b8152602060048201526014602482015273139bdd081c195b991a5b99c8185c1c1c9bdd985b60621b6044820152606490fd5b8181106151bd575050565b600081556001016151b2565b9190601f81116151d857505050565b6148b2926000526020600020906020601f840160051c83019310615204575b601f0160051c01906151b2565b90915081906151f7565b1561521557565b60405162461bcd60e51b81526020600482015260146024820152734e6f2066756e647320746f20776974686472617760601b6044820152606490fd5b3d1561527c573d9061526282614bed565b916152706040519384614858565b82523d6000602084013e565b606090565b1561528857565b60405162461bcd60e51b8152602060048201526011602482015270115d995b9d081a5cc818d85b98d95b1959607a1b6044820152606490fd5b8054821015614ec25760005260206000200190600090565b91908203918211614d5f57565b906040519182815491828252602082019060005260206000209260005b8181106153185750506148b292500383614858565b84546001600160a01b0316835260019485019487945060209093019201615303565b1561534157565b60405162461bcd60e51b8152602060048201526013602482015272092dcecc2d8d2c840dcc2daca40d8cadccee8d606b1b6044820152606490fd5b1561538357565b60405162461bcd60e51b8152602060048201526012602482015271092dcecc2d8d2c840aaa49840d8cadccee8d60731b6044820152606490fd5b156153c457565b60405162461bcd60e51b8152602060048201526016602482015275092dcecc2d8d2c840c8cae8c2d2d8e640d8cadccee8d60531b6044820152606490fd5b1561540957565b60405162461bcd60e51b815260206004820152601760248201527f496e76616c6964206c6f636174696f6e206c656e6774680000000000000000006044820152606490fd5b1561545557565b60405162461bcd60e51b8152602060048201526014602482015273496e76616c6964207469636b657420707269636560601b6044820152606490fd5b1561549857565b60405162461bcd60e51b815260206004820152601060248201526f496e76616c696420636170616369747960801b6044820152606490fd5b156154d757565b60405162461bcd60e51b8152602060048201526015602482015274496e76616c696420726566756e6420706f6c69637960581b6044820152606490fd5b1561551b57565b60405162461bcd60e51b815260206004820152601560248201527424b73b30b634b2103932b33ab73210313ab33332b960591b6044820152606490fd5b1561555f57565b60405162461bcd60e51b815260206004820152602660248201527f526566756e642062756666657220657863656564732074696d6520756e74696c60448201526508195d995b9d60d21b6064820152608490fd5b906155bd8161495e565b63ff00000082549160181b169063ff0000001916179055565b6001600160a01b03168015615636576000805160206157b583398151915280546001600160a01b0319811683179091556001600160a01b03167f8be0079c531659141344cd1fd0a4f28419497f9722a3daafe3b4186f6b6457e0600080a3565b631e4fbdf760e01b600052600060045260246000fd5b60026000805160206157f583398151915254146156775760026000805160206157f583398151915255565b633ee5aeb560e01b60005260046000fd5b6000805160206157b5833981519152546001600160a01b031633036156a957565b63118cdaa760e01b6000523360045260246000fd5b906000602091828151910182855af115615719576000513d61571057506001600160a01b0381163b155b6156ef5750565b635274afe760e01b60009081526001600160a01b0391909116600452602490fd5b600114156156e8565b6040513d6000823e3d90fd5b60ff6000805160206158158339815191525460401c161561574257565b631afcd79f60e31b60005260046000fd5b90615779575080511561576857602081519101fd5b63d6bda27560e01b60005260046000fd5b815115806157ab575b61578a575090565b639996b31560e01b60009081526001600160a01b0391909116600452602490fd5b50803b1561578256fe9016d09d72d40fdae2fd8ceac6b6234c7706214fd39c1cd1e609a0528c199300360894a13ba1a3210667c828492db98dca3e2076cc3735a920a3ca505d382bbc9b779b17422d0df92223018b32b4d1fa46e071723d6817e2486d003becc55f00f0c57e16840df040f15088dc2f81fe391c3923bec73e23a9662efc9c229c6a00a264697066735822122006f7b8bf15d6c8ecf87f6ee6a9ee1454eb6f7d9f983996997f2b6738819b4e3b64736f6c634300081c0033",
    "linkReferences": {},
    "deployedLinkReferences": {}
}