{
    "_format": "hh-sol-artifact-1",
    "contractName": "EventChain",
    "sourceName": "contracts/EventChain.sol",
    "abi": [
        {
            "inputs": [
                {
                    "internalType": "address[]",
                    "name": "_supportedTokens",
                    "type": "address[]"
                }
            ],
            "stateMutability": "nonpayable",
            "type": "constructor"
        },
        {
            "inputs": [
                {
                    "internalType": "address",
                    "name": "owner",
                    "type": "address"
                }
            ],
            "name": "OwnableInvalidOwner",
            "type": "error"
        },
        {
            "inputs": [
                {
                    "internalType": "address",
                    "name": "account",
                    "type": "address"
                }
            ],
            "name": "OwnableUnauthorizedAccount",
            "type": "error"
        },
        {
            "inputs": [],
            "name": "ReentrancyGuardReentrantCall",
            "type": "error"
        },
        {
            "inputs": [
                {
                    "internalType": "address",
                    "name": "token",
                    "type": "address"
                }
            ],
            "name": "SafeERC20FailedOperation",
            "type": "error"
        },
        {
            "anonymous": false,
            "inputs": [
                {
                    "indexed": true,
                    "internalType": "uint256",
                    "name": "eventId",
                    "type": "uint256"
                },
                {
                    "indexed": false,
                    "internalType": "uint256",
                    "name": "amount",
                    "type": "uint256"
                }
            ],
            "name": "EmergencyWithdrawal",
            "type": "event"
        },
        {
            "anonymous": false,
            "inputs": [
                {
                    "indexed": true,
                    "internalType": "uint256",
                    "name": "eventId",
                    "type": "uint256"
                }
            ],
            "name": "EventCanceled",
            "type": "event"
        },
        {
            "anonymous": false,
            "inputs": [
                {
                    "indexed": true,
                    "internalType": "uint256",
                    "name": "eventId",
                    "type": "uint256"
                },
                {
                    "indexed": true,
                    "internalType": "address",
                    "name": "owner",
                    "type": "address"
                },
                {
                    "indexed": false,
                    "internalType": "string",
                    "name": "eventName",
                    "type": "string"
                }
            ],
            "name": "EventCreated",
            "type": "event"
        },
        {
            "anonymous": false,
            "inputs": [
                {
                    "indexed": true,
                    "internalType": "uint256",
                    "name": "eventId",
                    "type": "uint256"
                },
                {
                    "indexed": true,
                    "internalType": "address",
                    "name": "owner",
                    "type": "address"
                },
                {
                    "indexed": false,
                    "internalType": "string",
                    "name": "eventName",
                    "type": "string"
                }
            ],
            "name": "EventUpdated",
            "type": "event"
        },
        {
            "anonymous": false,
            "inputs": [
                {
                    "indexed": true,
                    "internalType": "uint256",
                    "name": "eventId",
                    "type": "uint256"
                },
                {
                    "indexed": false,
                    "internalType": "uint256",
                    "name": "amount",
                    "type": "uint256"
                }
            ],
            "name": "FundsReleased",
            "type": "event"
        },
        {
            "anonymous": false,
            "inputs": [
                {
                    "indexed": true,
                    "internalType": "address",
                    "name": "previousOwner",
                    "type": "address"
                },
                {
                    "indexed": true,
                    "internalType": "address",
                    "name": "newOwner",
                    "type": "address"
                }
            ],
            "name": "OwnershipTransferred",
            "type": "event"
        },
        {
            "anonymous": false,
            "inputs": [
                {
                    "indexed": true,
                    "internalType": "uint256",
                    "name": "eventId",
                    "type": "uint256"
                },
                {
                    "indexed": true,
                    "internalType": "address",
                    "name": "user",
                    "type": "address"
                },
                {
                    "indexed": false,
                    "internalType": "uint256",
                    "name": "amount",
                    "type": "uint256"
                }
            ],
            "name": "RefundIssued",
            "type": "event"
        },
        {
            "anonymous": false,
            "inputs": [
                {
                    "indexed": true,
                    "internalType": "address",
                    "name": "token",
                    "type": "address"
                }
            ],
            "name": "SupportedTokenAdded",
            "type": "event"
        },
        {
            "anonymous": false,
            "inputs": [
                {
                    "indexed": true,
                    "internalType": "uint256",
                    "name": "eventId",
                    "type": "uint256"
                },
                {
                    "indexed": true,
                    "internalType": "address",
                    "name": "buyer",
                    "type": "address"
                },
                {
                    "indexed": false,
                    "internalType": "uint256",
                    "name": "amount",
                    "type": "uint256"
                },
                {
                    "indexed": false,
                    "internalType": "address",
                    "name": "paymentToken",
                    "type": "address"
                }
            ],
            "name": "TicketPurchased",
            "type": "event"
        },
        {
            "anonymous": false,
            "inputs": [
                {
                    "indexed": true,
                    "internalType": "uint256",
                    "name": "eventId",
                    "type": "uint256"
                },
                {
                    "indexed": true,
                    "internalType": "address",
                    "name": "from",
                    "type": "address"
                },
                {
                    "indexed": true,
                    "internalType": "address",
                    "name": "to",
                    "type": "address"
                }
            ],
            "name": "TicketTransferred",
            "type": "event"
        },
        {
            "anonymous": false,
            "inputs": [
                {
                    "indexed": true,
                    "internalType": "address",
                    "name": "newPool",
                    "type": "address"
                }
            ],
            "name": "UbiPoolUpdated",
            "type": "event"
        },
        {
            "anonymous": false,
            "inputs": [
                {
                    "indexed": true,
                    "internalType": "address",
                    "name": "user",
                    "type": "address"
                },
                {
                    "indexed": false,
                    "internalType": "uint256",
                    "name": "amount",
                    "type": "uint256"
                }
            ],
            "name": "WithdrawalReady",
            "type": "event"
        },
        {
            "stateMutability": "payable",
            "type": "fallback"
        },
        {
            "inputs": [],
            "name": "CELO",
            "outputs": [
                {
                    "internalType": "address",
                    "name": "",
                    "type": "address"
                }
            ],
            "stateMutability": "view",
            "type": "function"
        },
        {
            "inputs": [],
            "name": "EMERGENCY_WITHDRAWAL_DELAY",
            "outputs": [
                {
                    "internalType": "uint256",
                    "name": "",
                    "type": "uint256"
                }
            ],
            "stateMutability": "view",
            "type": "function"
        },
        {
            "inputs": [],
            "name": "G_DOLLAR",
            "outputs": [
                {
                    "internalType": "address",
                    "name": "",
                    "type": "address"
                }
            ],
            "stateMutability": "view",
            "type": "function"
        },
        {
            "inputs": [],
            "name": "G_DOLLAR_FEE_BPS",
            "outputs": [
                {
                    "internalType": "uint256",
                    "name": "",
                    "type": "uint256"
                }
            ],
            "stateMutability": "view",
            "type": "function"
        },
        {
            "inputs": [],
            "name": "MAX_AGE",
            "outputs": [
                {
                    "internalType": "uint256",
                    "name": "",
                    "type": "uint256"
                }
            ],
            "stateMutability": "view",
            "type": "function"
        },
        {
            "inputs": [],
            "name": "MAX_CAPACITY",
            "outputs": [
                {
                    "internalType": "uint256",
                    "name": "",
                    "type": "uint256"
                }
            ],
            "stateMutability": "view",
            "type": "function"
        },
        {
            "inputs": [],
            "name": "MAX_DETAILS_LENGTH",
            "outputs": [
                {
                    "internalType": "uint256",
                    "name": "",
                    "type": "uint256"
                }
            ],
            "stateMutability": "view",
            "type": "function"
        },
        {
            "inputs": [],
            "name": "MAX_EVENT_DURATION",
            "outputs": [
                {
                    "internalType": "uint256",
                    "name": "",
                    "type": "uint256"
                }
            ],
            "stateMutability": "view",
            "type": "function"
        },
        {
            "inputs": [],
            "name": "MAX_LOCATION_LENGTH",
            "outputs": [
                {
                    "internalType": "uint256",
                    "name": "",
                    "type": "uint256"
                }
            ],
            "stateMutability": "view",
            "type": "function"
        },
        {
            "inputs": [],
            "name": "MAX_NAME_LENGTH",
            "outputs": [
                {
                    "internalType": "uint256",
                    "name": "",
                    "type": "uint256"
                }
            ],
            "stateMutability": "view",
            "type": "function"
        },
        {
            "inputs": [],
            "name": "MAX_TICKET_PRICE",
            "outputs": [
                {
                    "internalType": "uint256",
                    "name": "",
                    "type": "uint256"
                }
            ],
            "stateMutability": "view",
            "type": "function"
        },
        {
            "inputs": [],
            "name": "MAX_URL_LENGTH",
            "outputs": [
                {
                    "internalType": "uint256",
                    "name": "",
                    "type": "uint256"
                }
            ],
            "stateMutability": "view",
            "type": "function"
        },
        {
            "inputs": [],
            "name": "MIN_CAPACITY",
            "outputs": [
                {
                    "internalType": "uint256",
                    "name": "",
                    "type": "uint256"
                }
            ],
            "stateMutability": "view",
            "type": "function"
        },
        {
            "inputs": [],
            "name": "MIN_EVENT_DURATION",
            "outputs": [
                {
                    "internalType": "uint256",
                    "name": "",
                    "type": "uint256"
                }
            ],
            "stateMutability": "view",
            "type": "function"
        },
        {
            "inputs": [
                {
                    "internalType": "address",
                    "name": "_token",
                    "type": "address"
                }
            ],
            "name": "addSupportedToken",
            "outputs": [],
            "stateMutability": "nonpayable",
            "type": "function"
        },
        {
            "inputs": [
                {
                    "internalType": "uint256",
                    "name": "",
                    "type": "uint256"
                }
            ],
            "name": "attendeeCount",
            "outputs": [
                {
                    "internalType": "uint256",
                    "name": "",
                    "type": "uint256"
                }
            ],
            "stateMutability": "view",
            "type": "function"
        },
        {
            "inputs": [
                {
                    "internalType": "uint256",
                    "name": "_index",
                    "type": "uint256"
                }
            ],
            "name": "buyTicket",
            "outputs": [],
            "stateMutability": "payable",
            "type": "function"
        },
        {
            "inputs": [
                {
                    "internalType": "uint256",
                    "name": "_index",
                    "type": "uint256"
                }
            ],
            "name": "cancelEvent",
            "outputs": [],
            "stateMutability": "nonpayable",
            "type": "function"
        },
        {
            "inputs": [
                {
                    "internalType": "string",
                    "name": "_eventName",
                    "type": "string"
                },
                {
                    "internalType": "string",
                    "name": "_eventCardImgUrl",
                    "type": "string"
                },
                {
                    "internalType": "string",
                    "name": "_eventDetails",
                    "type": "string"
                },
                {
                    "internalType": "uint64",
                    "name": "_startDate",
                    "type": "uint64"
                },
                {
                    "internalType": "uint64",
                    "name": "_endDate",
                    "type": "uint64"
                },
                {
                    "internalType": "uint64",
                    "name": "_startTime",
                    "type": "uint64"
                },
                {
                    "internalType": "uint64",
                    "name": "_endTime",
                    "type": "uint64"
                },
                {
                    "internalType": "string",
                    "name": "_eventLocation",
                    "type": "string"
                },
                {
                    "internalType": "uint256",
                    "name": "_ticketPrice",
                    "type": "uint256"
                },
                {
                    "internalType": "uint256",
                    "name": "_minimumAge",
                    "type": "uint256"
                },
                {
                    "internalType": "uint256",
                    "name": "_maxCapacity",
                    "type": "uint256"
                },
                {
                    "internalType": "enum EventChain.RefundPolicy",
                    "name": "_refundPolicy",
                    "type": "uint8"
                },
                {
                    "internalType": "uint256",
                    "name": "_refundBufferHours",
                    "type": "uint256"
                },
                {
                    "internalType": "address",
                    "name": "_paymentToken",
                    "type": "address"
                }
            ],
            "name": "createEvent",
            "outputs": [],
            "stateMutability": "nonpayable",
            "type": "function"
        },
        {
            "inputs": [
                {
                    "internalType": "uint256",
                    "name": "_index",
                    "type": "uint256"
                }
            ],
            "name": "emergencyWithdrawFunds",
            "outputs": [],
            "stateMutability": "nonpayable",
            "type": "function"
        },
        {
            "inputs": [],
            "name": "eventCount",
            "outputs": [
                {
                    "internalType": "uint256",
                    "name": "",
                    "type": "uint256"
                }
            ],
            "stateMutability": "view",
            "type": "function"
        },
        {
            "inputs": [
                {
                    "internalType": "uint256",
                    "name": "",
                    "type": "uint256"
                }
            ],
            "name": "events",
            "outputs": [
                {
                    "internalType": "address",
                    "name": "owner",
                    "type": "address"
                },
                {
                    "internalType": "string",
                    "name": "eventName",
                    "type": "string"
                },
                {
                    "internalType": "string",
                    "name": "eventCardImgUrl",
                    "type": "string"
                },
                {
                    "internalType": "string",
                    "name": "eventDetails",
                    "type": "string"
                },
                {
                    "internalType": "uint64",
                    "name": "startDate",
                    "type": "uint64"
                },
                {
                    "internalType": "uint64",
                    "name": "endDate",
                    "type": "uint64"
                },
                {
                    "internalType": "uint64",
                    "name": "startTime",
                    "type": "uint64"
                },
                {
                    "internalType": "uint64",
                    "name": "endTime",
                    "type": "uint64"
                },
                {
                    "internalType": "string",
                    "name": "eventLocation",
                    "type": "string"
                },
                {
                    "internalType": "bool",
                    "name": "isActive",
                    "type": "bool"
                },
                {
                    "internalType": "uint256",
                    "name": "ticketPrice",
                    "type": "uint256"
                },
                {
                    "internalType": "uint256",
                    "name": "fundsHeld",
                    "type": "uint256"
                },
                {
                    "internalType": "uint256",
                    "name": "minimumAge",
                    "type": "uint256"
                },
                {
                    "internalType": "uint256",
                    "name": "maxCapacity",
                    "type": "uint256"
                },
                {
                    "internalType": "bool",
                    "name": "isCanceled",
                    "type": "bool"
                },
                {
                    "internalType": "bool",
                    "name": "fundsReleased",
                    "type": "bool"
                },
                {
                    "internalType": "bool",
                    "name": "exists",
                    "type": "bool"
                },
                {
                    "internalType": "enum EventChain.RefundPolicy",
                    "name": "refundPolicy",
                    "type": "uint8"
                },
                {
                    "internalType": "uint256",
                    "name": "refundBufferHours",
                    "type": "uint256"
                },
                {
                    "internalType": "address",
                    "name": "paymentToken",
                    "type": "address"
                }
            ],
            "stateMutability": "view",
            "type": "function"
        },
        {
            "inputs": [],
            "name": "getActiveEventsByCreator",
            "outputs": [
                {
                    "internalType": "uint256[]",
                    "name": "",
                    "type": "uint256[]"
                },
                {
                    "components": [
                        {
                            "internalType": "address",
                            "name": "owner",
                            "type": "address"
                        },
                        {
                            "internalType": "string",
                            "name": "eventName",
                            "type": "string"
                        },
                        {
                            "internalType": "string",
                            "name": "eventCardImgUrl",
                            "type": "string"
                        },
                        {
                            "internalType": "string",
                            "name": "eventDetails",
                            "type": "string"
                        },
                        {
                            "internalType": "uint64",
                            "name": "startDate",
                            "type": "uint64"
                        },
                        {
                            "internalType": "uint64",
                            "name": "endDate",
                            "type": "uint64"
                        },
                        {
                            "internalType": "uint64",
                            "name": "startTime",
                            "type": "uint64"
                        },
                        {
                            "internalType": "uint64",
                            "name": "endTime",
                            "type": "uint64"
                        },
                        {
                            "internalType": "string",
                            "name": "eventLocation",
                            "type": "string"
                        },
                        {
                            "internalType": "bool",
                            "name": "isActive",
                            "type": "bool"
                        },
                        {
                            "internalType": "uint256",
                            "name": "ticketPrice",
                            "type": "uint256"
                        },
                        {
                            "internalType": "uint256",
                            "name": "fundsHeld",
                            "type": "uint256"
                        },
                        {
                            "internalType": "uint256",
                            "name": "minimumAge",
                            "type": "uint256"
                        },
                        {
                            "internalType": "uint256",
                            "name": "maxCapacity",
                            "type": "uint256"
                        },
                        {
                            "internalType": "bool",
                            "name": "isCanceled",
                            "type": "bool"
                        },
                        {
                            "internalType": "bool",
                            "name": "fundsReleased",
                            "type": "bool"
                        },
                        {
                            "internalType": "bool",
                            "name": "exists",
                            "type": "bool"
                        },
                        {
                            "internalType": "enum EventChain.RefundPolicy",
                            "name": "refundPolicy",
                            "type": "uint8"
                        },
                        {
                            "internalType": "uint256",
                            "name": "refundBufferHours",
                            "type": "uint256"
                        },
                        {
                            "internalType": "address",
                            "name": "paymentToken",
                            "type": "address"
                        }
                    ],
                    "internalType": "struct EventChain.Event[]",
                    "name": "",
                    "type": "tuple[]"
                }
            ],
            "stateMutability": "view",
            "type": "function"
        },
        {
            "inputs": [],
            "name": "getAllEvents",
            "outputs": [
                {
                    "internalType": "uint256[]",
                    "name": "",
                    "type": "uint256[]"
                },
                {
                    "components": [
                        {
                            "internalType": "address",
                            "name": "owner",
                            "type": "address"
                        },
                        {
                            "internalType": "string",
                            "name": "eventName",
                            "type": "string"
                        },
                        {
                            "internalType": "string",
                            "name": "eventCardImgUrl",
                            "type": "string"
                        },
                        {
                            "internalType": "string",
                            "name": "eventDetails",
                            "type": "string"
                        },
                        {
                            "internalType": "uint64",
                            "name": "startDate",
                            "type": "uint64"
                        },
                        {
                            "internalType": "uint64",
                            "name": "endDate",
                            "type": "uint64"
                        },
                        {
                            "internalType": "uint64",
                            "name": "startTime",
                            "type": "uint64"
                        },
                        {
                            "internalType": "uint64",
                            "name": "endTime",
                            "type": "uint64"
                        },
                        {
                            "internalType": "string",
                            "name": "eventLocation",
                            "type": "string"
                        },
                        {
                            "internalType": "bool",
                            "name": "isActive",
                            "type": "bool"
                        },
                        {
                            "internalType": "uint256",
                            "name": "ticketPrice",
                            "type": "uint256"
                        },
                        {
                            "internalType": "uint256",
                            "name": "fundsHeld",
                            "type": "uint256"
                        },
                        {
                            "internalType": "uint256",
                            "name": "minimumAge",
                            "type": "uint256"
                        },
                        {
                            "internalType": "uint256",
                            "name": "maxCapacity",
                            "type": "uint256"
                        },
                        {
                            "internalType": "bool",
                            "name": "isCanceled",
                            "type": "bool"
                        },
                        {
                            "internalType": "bool",
                            "name": "fundsReleased",
                            "type": "bool"
                        },
                        {
                            "internalType": "bool",
                            "name": "exists",
                            "type": "bool"
                        },
                        {
                            "internalType": "enum EventChain.RefundPolicy",
                            "name": "refundPolicy",
                            "type": "uint8"
                        },
                        {
                            "internalType": "uint256",
                            "name": "refundBufferHours",
                            "type": "uint256"
                        },
                        {
                            "internalType": "address",
                            "name": "paymentToken",
                            "type": "address"
                        }
                    ],
                    "internalType": "struct EventChain.Event[]",
                    "name": "",
                    "type": "tuple[]"
                }
            ],
            "stateMutability": "view",
            "type": "function"
        },
        {
            "inputs": [
                {
                    "internalType": "uint256",
                    "name": "_index",
                    "type": "uint256"
                }
            ],
            "name": "getAttendees",
            "outputs": [
                {
                    "internalType": "address[]",
                    "name": "",
                    "type": "address[]"
                }
            ],
            "stateMutability": "view",
            "type": "function"
        },
        {
            "inputs": [
                {
                    "internalType": "uint256",
                    "name": "_index",
                    "type": "uint256"
                }
            ],
            "name": "getEventById",
            "outputs": [
                {
                    "components": [
                        {
                            "internalType": "address",
                            "name": "owner",
                            "type": "address"
                        },
                        {
                            "internalType": "string",
                            "name": "eventName",
                            "type": "string"
                        },
                        {
                            "internalType": "string",
                            "name": "eventCardImgUrl",
                            "type": "string"
                        },
                        {
                            "internalType": "string",
                            "name": "eventDetails",
                            "type": "string"
                        },
                        {
                            "internalType": "uint64",
                            "name": "startDate",
                            "type": "uint64"
                        },
                        {
                            "internalType": "uint64",
                            "name": "endDate",
                            "type": "uint64"
                        },
                        {
                            "internalType": "uint64",
                            "name": "startTime",
                            "type": "uint64"
                        },
                        {
                            "internalType": "uint64",
                            "name": "endTime",
                            "type": "uint64"
                        },
                        {
                            "internalType": "string",
                            "name": "eventLocation",
                            "type": "string"
                        },
                        {
                            "internalType": "bool",
                            "name": "isActive",
                            "type": "bool"
                        },
                        {
                            "internalType": "uint256",
                            "name": "ticketPrice",
                            "type": "uint256"
                        },
                        {
                            "internalType": "uint256",
                            "name": "fundsHeld",
                            "type": "uint256"
                        },
                        {
                            "internalType": "uint256",
                            "name": "minimumAge",
                            "type": "uint256"
                        },
                        {
                            "internalType": "uint256",
                            "name": "maxCapacity",
                            "type": "uint256"
                        },
                        {
                            "internalType": "bool",
                            "name": "isCanceled",
                            "type": "bool"
                        },
                        {
                            "internalType": "bool",
                            "name": "fundsReleased",
                            "type": "bool"
                        },
                        {
                            "internalType": "bool",
                            "name": "exists",
                            "type": "bool"
                        },
                        {
                            "internalType": "enum EventChain.RefundPolicy",
                            "name": "refundPolicy",
                            "type": "uint8"
                        },
                        {
                            "internalType": "uint256",
                            "name": "refundBufferHours",
                            "type": "uint256"
                        },
                        {
                            "internalType": "address",
                            "name": "paymentToken",
                            "type": "address"
                        }
                    ],
                    "internalType": "struct EventChain.Event",
                    "name": "",
                    "type": "tuple"
                },
                {
                    "internalType": "address[]",
                    "name": "",
                    "type": "address[]"
                }
            ],
            "stateMutability": "view",
            "type": "function"
        },
        {
            "inputs": [
                {
                    "internalType": "address",
                    "name": "_creator",
                    "type": "address"
                }
            ],
            "name": "getEventIdsByCreator",
            "outputs": [
                {
                    "internalType": "uint256[]",
                    "name": "",
                    "type": "uint256[]"
                }
            ],
            "stateMutability": "view",
            "type": "function"
        },
        {
            "inputs": [],
            "name": "getEventLength",
            "outputs": [
                {
                    "internalType": "uint256",
                    "name": "",
                    "type": "uint256"
                }
            ],
            "stateMutability": "view",
            "type": "function"
        },
        {
            "inputs": [
                {
                    "internalType": "address",
                    "name": "_creator",
                    "type": "address"
                }
            ],
            "name": "getEventsByCreator",
            "outputs": [
                {
                    "components": [
                        {
                            "internalType": "address",
                            "name": "owner",
                            "type": "address"
                        },
                        {
                            "internalType": "string",
                            "name": "eventName",
                            "type": "string"
                        },
                        {
                            "internalType": "string",
                            "name": "eventCardImgUrl",
                            "type": "string"
                        },
                        {
                            "internalType": "string",
                            "name": "eventDetails",
                            "type": "string"
                        },
                        {
                            "internalType": "uint64",
                            "name": "startDate",
                            "type": "uint64"
                        },
                        {
                            "internalType": "uint64",
                            "name": "endDate",
                            "type": "uint64"
                        },
                        {
                            "internalType": "uint64",
                            "name": "startTime",
                            "type": "uint64"
                        },
                        {
                            "internalType": "uint64",
                            "name": "endTime",
                            "type": "uint64"
                        },
                        {
                            "internalType": "string",
                            "name": "eventLocation",
                            "type": "string"
                        },
                        {
                            "internalType": "bool",
                            "name": "isActive",
                            "type": "bool"
                        },
                        {
                            "internalType": "uint256",
                            "name": "ticketPrice",
                            "type": "uint256"
                        },
                        {
                            "internalType": "uint256",
                            "name": "fundsHeld",
                            "type": "uint256"
                        },
                        {
                            "internalType": "uint256",
                            "name": "minimumAge",
                            "type": "uint256"
                        },
                        {
                            "internalType": "uint256",
                            "name": "maxCapacity",
                            "type": "uint256"
                        },
                        {
                            "internalType": "bool",
                            "name": "isCanceled",
                            "type": "bool"
                        },
                        {
                            "internalType": "bool",
                            "name": "fundsReleased",
                            "type": "bool"
                        },
                        {
                            "internalType": "bool",
                            "name": "exists",
                            "type": "bool"
                        },
                        {
                            "internalType": "enum EventChain.RefundPolicy",
                            "name": "refundPolicy",
                            "type": "uint8"
                        },
                        {
                            "internalType": "uint256",
                            "name": "refundBufferHours",
                            "type": "uint256"
                        },
                        {
                            "internalType": "address",
                            "name": "paymentToken",
                            "type": "address"
                        }
                    ],
                    "internalType": "struct EventChain.Event[]",
                    "name": "",
                    "type": "tuple[]"
                }
            ],
            "stateMutability": "view",
            "type": "function"
        },
        {
            "inputs": [
                {
                    "internalType": "address",
                    "name": "_user",
                    "type": "address"
                }
            ],
            "name": "getPendingWithdrawal",
            "outputs": [
                {
                    "internalType": "uint256",
                    "name": "",
                    "type": "uint256"
                }
            ],
            "stateMutability": "view",
            "type": "function"
        },
        {
            "inputs": [
                {
                    "internalType": "address",
                    "name": "user",
                    "type": "address"
                }
            ],
            "name": "getUserEvents",
            "outputs": [
                {
                    "internalType": "uint256[]",
                    "name": "",
                    "type": "uint256[]"
                },
                {
                    "components": [
                        {
                            "internalType": "address",
                            "name": "owner",
                            "type": "address"
                        },
                        {
                            "internalType": "string",
                            "name": "eventName",
                            "type": "string"
                        },
                        {
                            "internalType": "string",
                            "name": "eventCardImgUrl",
                            "type": "string"
                        },
                        {
                            "internalType": "string",
                            "name": "eventDetails",
                            "type": "string"
                        },
                        {
                            "internalType": "uint64",
                            "name": "startDate",
                            "type": "uint64"
                        },
                        {
                            "internalType": "uint64",
                            "name": "endDate",
                            "type": "uint64"
                        },
                        {
                            "internalType": "uint64",
                            "name": "startTime",
                            "type": "uint64"
                        },
                        {
                            "internalType": "uint64",
                            "name": "endTime",
                            "type": "uint64"
                        },
                        {
                            "internalType": "string",
                            "name": "eventLocation",
                            "type": "string"
                        },
                        {
                            "internalType": "bool",
                            "name": "isActive",
                            "type": "bool"
                        },
                        {
                            "internalType": "uint256",
                            "name": "ticketPrice",
                            "type": "uint256"
                        },
                        {
                            "internalType": "uint256",
                            "name": "fundsHeld",
                            "type": "uint256"
                        },
                        {
                            "internalType": "uint256",
                            "name": "minimumAge",
                            "type": "uint256"
                        },
                        {
                            "internalType": "uint256",
                            "name": "maxCapacity",
                            "type": "uint256"
                        },
                        {
                            "internalType": "bool",
                            "name": "isCanceled",
                            "type": "bool"
                        },
                        {
                            "internalType": "bool",
                            "name": "fundsReleased",
                            "type": "bool"
                        },
                        {
                            "internalType": "bool",
                            "name": "exists",
                            "type": "bool"
                        },
                        {
                            "internalType": "enum EventChain.RefundPolicy",
                            "name": "refundPolicy",
                            "type": "uint8"
                        },
                        {
                            "internalType": "uint256",
                            "name": "refundBufferHours",
                            "type": "uint256"
                        },
                        {
                            "internalType": "address",
                            "name": "paymentToken",
                            "type": "address"
                        }
                    ],
                    "internalType": "struct EventChain.Event[]",
                    "name": "",
                    "type": "tuple[]"
                }
            ],
            "stateMutability": "view",
            "type": "function"
        },
        {
            "inputs": [
                {
                    "internalType": "uint256",
                    "name": "",
                    "type": "uint256"
                },
                {
                    "internalType": "address",
                    "name": "",
                    "type": "address"
                }
            ],
            "name": "hasPurchasedTicket",
            "outputs": [
                {
                    "internalType": "bool",
                    "name": "",
                    "type": "bool"
                }
            ],
            "stateMutability": "view",
            "type": "function"
        },
        {
            "inputs": [
                {
                    "internalType": "uint256",
                    "name": "",
                    "type": "uint256"
                },
                {
                    "internalType": "address",
                    "name": "",
                    "type": "address"
                }
            ],
            "name": "isAttendee",
            "outputs": [
                {
                    "internalType": "bool",
                    "name": "",
                    "type": "bool"
                }
            ],
            "stateMutability": "view",
            "type": "function"
        },
        {
            "inputs": [
                {
                    "internalType": "address",
                    "name": "from",
                    "type": "address"
                },
                {
                    "internalType": "uint256",
                    "name": "value",
                    "type": "uint256"
                },
                {
                    "internalType": "bytes",
                    "name": "data",
                    "type": "bytes"
                }
            ],
            "name": "onTokenTransfer",
            "outputs": [
                {
                    "internalType": "bool",
                    "name": "",
                    "type": "bool"
                }
            ],
            "stateMutability": "nonpayable",
            "type": "function"
        },
        {
            "inputs": [],
            "name": "owner",
            "outputs": [
                {
                    "internalType": "address",
                    "name": "",
                    "type": "address"
                }
            ],
            "stateMutability": "view",
            "type": "function"
        },
        {
            "inputs": [],
            "name": "paused",
            "outputs": [
                {
                    "internalType": "bool",
                    "name": "",
                    "type": "bool"
                }
            ],
            "stateMutability": "view",
            "type": "function"
        },
        {
            "inputs": [
                {
                    "internalType": "address",
                    "name": "",
                    "type": "address"
                }
            ],
            "name": "pendingWithdrawals",
            "outputs": [
                {
                    "internalType": "uint256",
                    "name": "",
                    "type": "uint256"
                }
            ],
            "stateMutability": "view",
            "type": "function"
        },
        {
            "inputs": [
                {
                    "internalType": "uint256",
                    "name": "_index",
                    "type": "uint256"
                }
            ],
            "name": "releaseFunds",
            "outputs": [],
            "stateMutability": "nonpayable",
            "type": "function"
        },
        {
            "inputs": [],
            "name": "renounceOwnership",
            "outputs": [],
            "stateMutability": "nonpayable",
            "type": "function"
        },
        {
            "inputs": [
                {
                    "internalType": "uint256",
                    "name": "_index",
                    "type": "uint256"
                }
            ],
            "name": "requestRefund",
            "outputs": [],
            "stateMutability": "nonpayable",
            "type": "function"
        },
        {
            "inputs": [
                {
                    "internalType": "address",
                    "name": "",
                    "type": "address"
                }
            ],
            "name": "supportedTokens",
            "outputs": [
                {
                    "internalType": "bool",
                    "name": "",
                    "type": "bool"
                }
            ],
            "stateMutability": "view",
            "type": "function"
        },
        {
            "inputs": [],
            "name": "togglePause",
            "outputs": [],
            "stateMutability": "nonpayable",
            "type": "function"
        },
        {
            "inputs": [
                {
                    "internalType": "address",
                    "name": "newOwner",
                    "type": "address"
                }
            ],
            "name": "transferOwnership",
            "outputs": [],
            "stateMutability": "nonpayable",
            "type": "function"
        },
        {
            "inputs": [
                {
                    "internalType": "uint256",
                    "name": "_index",
                    "type": "uint256"
                },
                {
                    "internalType": "address",
                    "name": "_to",
                    "type": "address"
                }
            ],
            "name": "transferTicket",
            "outputs": [],
            "stateMutability": "nonpayable",
            "type": "function"
        },
        {
            "inputs": [],
            "name": "ubiPool",
            "outputs": [
                {
                    "internalType": "address",
                    "name": "",
                    "type": "address"
                }
            ],
            "stateMutability": "view",
            "type": "function"
        },
        {
            "inputs": [
                {
                    "internalType": "uint256",
                    "name": "_index",
                    "type": "uint256"
                },
                {
                    "internalType": "string",
                    "name": "_eventName",
                    "type": "string"
                },
                {
                    "internalType": "string",
                    "name": "_eventCardImgUrl",
                    "type": "string"
                },
                {
                    "internalType": "string",
                    "name": "_eventDetails",
                    "type": "string"
                },
                {
                    "internalType": "string",
                    "name": "_eventLocation",
                    "type": "string"
                },
                {
                    "internalType": "uint256",
                    "name": "_ticketPrice",
                    "type": "uint256"
                },
                {
                    "internalType": "uint256",
                    "name": "_maxCapacity",
                    "type": "uint256"
                },
                {
                    "internalType": "enum EventChain.RefundPolicy",
                    "name": "_refundPolicy",
                    "type": "uint8"
                },
                {
                    "internalType": "uint256",
                    "name": "_refundBufferHours",
                    "type": "uint256"
                }
            ],
            "name": "updateEvent",
            "outputs": [],
            "stateMutability": "nonpayable",
            "type": "function"
        },
        {
            "inputs": [
                {
                    "internalType": "address",
                    "name": "_newPool",
                    "type": "address"
                }
            ],
            "name": "updateUbiPool",
            "outputs": [],
            "stateMutability": "nonpayable",
            "type": "function"
        },
        {
            "inputs": [],
            "name": "withdraw",
            "outputs": [],
            "stateMutability": "nonpayable",
            "type": "function"
        },
        {
            "stateMutability": "payable",
            "type": "receive"
        }
    ],
    "bytecode": "0x6080604052346101d05761490a80380380610019816101eb565b9283398101906020818303126101d0578051906001600160401b0382116101d0570181601f820112156101d0578051916001600160401b0383116101d5578260051b9160208061006a8186016101eb565b8096815201938201019182116101d057602001915b8183106101b057836001600055331561019a5760018054336001600160a01b0319821681179092556001600160a01b03167f8be0079c531659141344cd1fd0a4f28419497f9722a3daafe3b4186f6b6457e0600080a3600380546001600160a01b0319167343d72ff17701b2da814620735c39c620ce0ea4a1179055600080805260046020527f17ef568e3e12ab5b9c7254a8d58478811de00f9e6eb34345acd53bf8fd09d3ec805460ff191660011790555b815181101561018b576001906001600160a01b036101508285610210565b511661015d575b01610132565b818060a01b0361016d8285610210565b5116600052600460205260406000208260ff19825416179055610157565b6040516146cf908161023b8239f35b631e4fbdf760e01b600052600060045260246000fd5b82516001600160a01b03811681036101d05781526020928301920161007f565b600080fd5b634e487b7160e01b600052604160045260246000fd5b6040519190601f01601f191682016001600160401b038111838210176101d557604052565b80518210156102245760209160051b010190565b634e487b7160e01b600052603260045260246000fdfe60806040526004361015610054575b36156100525760405162461bcd60e51b81526020600482015260166024820152752ab9b290313abcaa34b1b5b2ba10333ab731ba34b7b760511b6044820152606490fd5b005b60003560e01c806306b051fd146137d25780630b791430146136305780630dcaeaf214611b37578063171e5ba2146134d15780631ac78969146134b45780631bf23cde1461346757806320020581146133825780633a5ddf30146133645780633ccfd60b146132865780633f69babd146131525780634256cae614613136578063439fd35f146130e95780634d68282f14612f0157806350d9c62d14612ee45780635c975abb14612ebe5780635c98dfa11461259557806360eaa6a514612e9f578063679ebf1a14612b6857806367dd74ca146126fc57806368c4ac26146126bd5780636d69fcaf146126105780636fb924bc14612505578063715018a6146125b357806371be2e4a14612595578063775e1e5e1461250a5780637ee8b2f814610d6657806386074985146125055780638da5cb5b146124dc57806395a16d91146124b0578063a06f7da714612487578063a4b2409e14611fa8578063a4c0ed3614611b3c578063abf45ec814611b37578063b5e4128714611b12578063b98079bc14611a7f578063c27a500d1461197b578063c2f1cac01461195d578063c4ae316814611921578063cb71146e14611905578063ccfd6d3c1461177f578063cf5ad22314611750578063d8ff18161461102e578063e0c1437714610f95578063eb7e4d4414610e2a578063f2fde38b14610da0578063f3f4370314610d66578063f60e673e14610d4a5763f8c026b70361000e5734610d45576101c0366003190112610d45576004356001600160401b038111610d455761029a903690600401613c4b565b6024356001600160401b038111610d45576102b9903690600401613c4b565b91906044356001600160401b038111610d45576102da903690600401613c4b565b906064356001600160401b0381168103610d45576084356001600160401b0381168103610d455760a4356001600160401b0381168103610d455760c435916001600160401b0383168303610d455760e4356001600160401b038111610d4557610347903690600401613c4b565b9490956003610164351015610d45576101a435976001600160a01b0389168903610d455761037d60ff60015460a01c1615614085565b8a151580610d3a575b61038f90614236565b8b151580610d2f575b6103a190614278565b80151580610d23575b6103b3906142b9565b86151580610d18575b6103c5906142fe565b61010435151580610d01575b6103da9061434a565b426001600160401b03841610610cbc57610e106001600160401b03841601806001600160401b03851611610b7d576001600160401b03851610610c77576301e133806001600160401b03841601806001600160401b03851611610b7d576001600160401b03851611610c325760966101243511610bf757600161014435101580610be7575b6104689061438d565b6001600160a01b03891660009081526004602052604090205460ff1615610ba2578c9961049b60026101643511156143cc565b60026101643514610b27575b6002549c6040519b6104b88d6138dd565b338d528d36906104c79261454c565b60208d015236906104d79261454c565b60408b015236906104e79261454c565b60608901526001600160401b031660808801526001600160401b031660a08701526001600160401b031660c08601526001600160401b031660e0850152369061052f9261454c565b61010083015260016101208301819052610104356101408401526000610160840181905261012435610180850152610144356101a08501526101c084018190526101e084015261020083015261058c610164356102208401613e1b565b610184356102408301526001600160a01b039081166102608301526000848152600560209081526040909120835181546001600160a01b03191693169290921782558201518051919291906001600160401b038211610936576105ff826105f660018701546138a3565b600187016144af565b602090601f8311600114610ab657610630929160009183610962575b50508160011b916000199060031b1c19161790565b60018301555b60408101518051906001600160401b038211610936576106668261065d60028701546138a3565b600287016144af565b602090601f8311600114610a45576106969291600091836109625750508160011b916000199060031b1c19161790565b60028301555b60608101518051906001600160401b038211610936576106cc826106c360038701546138a3565b600387016144af565b602090601f83116001146109d4576106fc9291600091836109625750508160011b916000199060031b1c19161790565b60038301555b60808181015160a083015160c08085015160e086015160409390931b6fffffffffffffffff0000000000000000166001600160401b0394851617941b67ffffffffffffffff60801b1693909317921b6001600160c01b0319169190911760048401556101008201518051600585019290919082116109365761078e8261078885546138a3565b856144af565b602090601f831160011461096d576107be9291600091836109625750508160011b916000199060031b1c19161790565b90555b6107e16101208201511515600684019060ff801983541691151516179055565b6101408101516007830155610160810151600883015561018081015160098301556101a0810151600a830155600b82019061082f6101c08201511515839060ff801983541691151516179055565b6101e0810151825461020083015162ffff001990911691151560081b61ff00169190911790151560101b62ff00001617825561022081015191600383101561094c57600d9261087d91614501565b610240810151600c8401556102600151910180546001600160a01b0319166001600160a01b039290921691909117905533600090815260096020526040902080549091600160401b82101561093657610900827ffc695dea2478fb938a11068aeedddd7046a5fe655f136e30a325d353fe187a4594600161093195018155614158565b81549060031b9086821b91600019901b1916179055610920600254613cb5565b600255604051918291339683614524565b0390a3005b634e487b7160e01b600052604160045260246000fd5b634e487b7160e01b600052602160045260246000fd5b01519050388061061b565b90601f1983169184600052816000209260005b8181106109bc57509084600195949392106109a3575b505050811b0190556107c1565b015160001960f88460031b161c19169055388080610996565b92936020600181928786015181550195019301610980565b91906003850160005280600020906000935b601f1984168510610a2a576001945083601f19811610610a11575b505050811b016003830155610702565b015160001960f88460031b161c19169055388080610a01565b818101518355602094850194600190930192909101906109e6565b91906002850160005280600020906000935b601f1984168510610a9b576001945083601f19811610610a82575b505050811b01600283015561069c565b015160001960f88460031b161c19169055388080610a72565b81810151835560209485019460019093019290910190610a57565b91906001850160005280600020906000935b601f1984168510610b0c576001945083601f19811610610af3575b505050811b016001830155610636565b015160001960f88460031b161c19169055388080610ae3565b81810151835560209485019460019093019290910190610ac8565b61018435159a508a1580610b93575b610b3f90614410565b610b52426001600160401b0386166141b2565b9a610e10610184350290610184358204610e10141715610b7d578e9b610b789110614454565b6104a7565b634e487b7160e01b600052601160045260246000fd5b506102d0610184351115610b36565b60405162461bcd60e51b815260206004820152601960248201527f556e737570706f72746564207061796d656e7420746f6b656e000000000000006044820152606490fd5b50620186a061014435111561045f565b60405162461bcd60e51b8152602060048201526013602482015272496e76616c6964206d696e696d756d2061676560681b6044820152606490fd5b60405162461bcd60e51b815260206004820152601760248201527f4576656e74206475726174696f6e20746f6f206c6f6e670000000000000000006044820152606490fd5b60405162461bcd60e51b815260206004820152601860248201527f4576656e74206475726174696f6e20746f6f2073686f727400000000000000006044820152606490fd5b60405162461bcd60e51b815260206004820152601c60248201527f53746172742064617465206d75737420626520696e20667574757265000000006044820152606490fd5b5069d3c21bcecceda10000006101043511156103d1565b5060968711156103bc565b506103e88111156103aa565b5060c88c1115610398565b5060648b1115610386565b600080fd5b34610d45576000366003190112610d4557602060405160008152f35b34610d45576020366003190112610d45576001600160a01b03610d87613877565b16600052600c6020526020604060002054604051908152f35b34610d45576020366003190112610d4557610db9613877565b610dc1614583565b6001600160a01b03168015610e1457600180546001600160a01b0319811683179091556001600160a01b03167f8be0079c531659141344cd1fd0a4f28419497f9722a3daafe3b4186f6b6457e0600080a3005b631e4fbdf760e01b600052600060045260246000fd5b34610d45576020366003190112610d4557600435610e46614583565b610e4e6145ac565b806000526005602052604060002090600b8201805492610e7360ff8560101c166140c3565b6001600160401b03600482015460401c166276a7008101809111610b7d57421115610f455760008051602061467a83398151915292602092610ebb60ff8760081c1615614106565b61010060088401966000885498610ed38a1515613f65565b5561ff00191617905581546001600160a01b03166000908152600c8452604090208054610f0190879061414b565b90557f99010623e00d801536d5e2da7de373bda9592873b6d101d65738aa2582e6452283604051878152a2546040519384526001600160a01b031692a26001600055005b60405162461bcd60e51b815260206004820152602260248201527f456d657267656e6379207769746864726177616c2064656c6179206e6f74206d604482015261195d60f21b6064820152608490fd5b34610d45576020366003190112610d455760043580600052600560205260ff600b6040600020015460101c1615610ff6576000526007602052610ff2610fde60406000206141e2565b604051918291602083526020830190613c78565b0390f35b60405162461bcd60e51b815260206004820152601060248201526f125b9d985b1a5908195d995b9d08125160821b6044820152606490fd5b34610d4557610120366003190112610d45576024356001600160401b038111610d455761105f903690600401613c4b565b906044356001600160401b038111610d455761107f903690600401613c4b565b906064356001600160401b038111610d455761109f903690600401613c4b565b906084356001600160401b038111610d45576110bf903690600401613c4b565b92909360a4359560c43596600360e4351015610d455760043560005260056020526110f860018060a01b03604060002054163314613fc3565b600435600052600560205261111a60ff600b6040600020015460101c16614001565b600435600090815260056020526040902054611140906001600160a01b03161515614043565b61115260ff60015460a01c1615614085565b600435600052600560205260406000209761117360ff60068b015416614170565b6001600160401b0360048a0154169182421015611713578b151580611708575b61119c90614236565b831515806116fd575b6111ae90614278565b851515806116f1575b6111c0906142b9565b871515806116e6575b6111d2906142fe565b60078a018054820361164f575b5050600a8901805482036115cb575b50506111ff600260e43511156143cc565b600260e43514611572575b506001600160401b038911610936576112338961122a60018a01546138a3565b60018a016144af565b600089601f81116001146115085780611262926000916114fd575b508160011b916000199060031b1c19161790565b60018801555b60028701916001600160401b038211610936576112898261078885546138a3565b600090601f8311600114611499576112b992916000918361148e5750508160011b916000199060031b1c19161790565b90555b60038501916001600160401b038211610936576112dd8261078885546138a3565b600090601f831160011461142a5761130d92916000918361141f5750508160011b916000199060031b1c19161790565b90555b60058301916001600160401b038211610936576113318261078885546138a3565b600090601f83116001146113bb576113619291600091836113b05750508160011b916000199060031b1c19161790565b90555b61137360e435600b8301614501565b600c610104359101557fdc95c3f54791d672d64eda50093741a6fbfcd4ef21c1c646655be46fc63b930d6040518061093133956004359583614524565b01359050878061061b565b8382526020822091601f198416815b81811061140757509084600195949392106113ed575b505050811b019055611364565b0135600019600384901b60f8161c191690558680806113e0565b919360206001819287870135815501950192016113ca565b01359050898061061b565b8382526020822091601f198416815b818110611476575090846001959493921061145c575b505050811b019055611310565b0135600019600384901b60f8161c1916905588808061144f565b91936020600181928787013581550195019201611439565b013590508b8061061b565b8382526020822091601f198416815b8181106114e557509084600195949392106114cb575b505050811b0190556112bc565b0135600019600384901b60f8161c191690558a80806114be565b919360206001819287870135815501950192016114a8565b90508a01358c61124e565b5060018801815260208120908a601f198116825b8c8282106115585750501061153e575b5050600189811b016001880155611268565b89013560001960038c901b60f8161c19169055898061152c565b84013585556001909401936020938401938e93500161151c565b6115936101043515918215806115bc575b61158c90614410565b42906141b2565b610e10610104350291610104358304610e10141715610b7d576115b69110614454565b8961120a565b506102d0610104351115611583565b600182101580611642575b6115df9061438d565b600435600052600860205260406000205482106115fe57558a806111ee565b606460405162461bcd60e51b815260206004820152602060248201527f43617061636974792062656c6f772063757272656e7420617474656e646565736044820152fd5b50620186a08211156115d6565b6004356000526008602052604060002054611692578115158061167e575b6116769061434a565b558b806111df565b5069d3c21bcecceda100000082111561166d565b60405162461bcd60e51b815260206004820152602660248201527f43616e6e6f74206368616e6765207072696365206166746572207469636b65746044820152651cc81cdbdb1960d21b6064820152608490fd5b5060968811156111c9565b506103e88611156111b7565b5060c88411156111a5565b5060648c1115611193565b60405162461bcd60e51b8152602060048201526015602482015274115d995b9d08185b1c9958591e481cdd185c9d1959605a1b6044820152606490fd5b34610d45576000366003190112610d455760206040517362b8b11039fcfe5ab0c56e502b1c372a3d2a9c7a8152f35b34610d45576000366003190112610d45576002546000805b82811061188657506117b16117ab82613cdb565b91613da1565b916000805b8281106117cf57505050610ff260405192839283613c07565b80600052600560205260ff600b6040600020015460101c1680611867575b8061184c575b611800575b6001016117b6565b90611844818361181260019488613df1565b528360005260056020526118296040600020613e27565b6118338289613df1565b5261183e8188613df1565b50613cb5565b9190506117f8565b5080600052600560205260ff600660406000200154166117f3565b5080600052600560205260018060a01b036040600020541633146117ed565b80600052600560205260ff600b6040600020015460101c16806118e6575b806118cb575b6118b7575b600101611797565b906118c3600191613cb5565b9190506118af565b5080600052600560205260ff600660406000200154166118aa565b5080600052600560205260018060a01b036040600020541633146118a4565b34610d45576000366003190112610d4557602060405160c88152f35b34610d45576000366003190112610d455761193a614583565b6001805460ff60a01b19811660a091821c60ff161590911b60ff60a01b16179055005b34610d45576000366003190112610d455760206040516276a7008152f35b34610d45576000366003190112610d45576002546000805b828110611a2557506119a76117ab82613cdb565b916000805b8281106119c557505050610ff260405192839283613c07565b80600052600560205260ff600b6040600020015460101c1680611a0a575b6119f0575b6001016119ac565b90611a02818361181260019488613df1565b9190506119e8565b5080600052600560205260ff600660406000200154166119e3565b80600052600560205260ff600b6040600020015460101c1680611a64575b611a50575b600101611993565b90611a5c600191613cb5565b919050611a48565b5080600052600560205260ff60066040600020015416611a43565b34610d45576020366003190112610d4557611b04600435611a9e613d0d565b50806000526005602052611abf60ff600b6040600020015460101c166140c3565b8060005260056020526040600020906000526007602052610ff2611af0611aea604060002093613e27565b926141e2565b604051938493604085526040850190613a5c565b908382036020850152613c78565b34610d45576000366003190112610d4557602060405169d3c21bcecceda10000008152f35b613a0c565b34610d45576060366003190112610d4557611b55613877565b602435906044356001600160401b038111610d4557611b78903690600401613c4b565b7362b8b11039fcfe5ab0c56e502b1c372a3d2a9c7a3303611f735760208260009281010312611f7057503590816000526005602052611bc460ff600b6040600020015460101c16614001565b8160005260056020526040600020907362b8b11039fcfe5ab0c56e502b1c372a3d2a9c7a60018060a01b03600d8401541603611f2b576001600160401b03600483015416421015611ef25760ff60068301541615611eba5782600052600a602052604060002060018060a01b03821660005260205260ff60406000205416611e8157826000526008602052604060002054600a8301541115611e485760078201548403611e1057606484029084820460641485151715610b7d577f504ef6dabca28c1452704d54bd8e25708d87e0c27d852eceea53a0c0d898675892611d6860086127106040950492611cb7848a6141b2565b9380151580611dfc575b611d9f575b506000888152600a60209081528782206001600160a01b0388168084529082528883208054600160ff1991821681179092558c8552600684528a852083865284528a8520805490911690911790558a8352600780835289842054600b84528a8520928552918352898420919091558a83529052869020611d479086906141bf565b876000528160205285600020611d5d8154613cb5565b90550191825461414b565b905581519485527362b8b11039fcfe5ab0c56e502b1c372a3d2a9c7a60208601526001600160a01b031693a3602060405160018152f35b600354875163a9059cbb60e01b60208201526001600160a01b039091166024820152604480820192909252908152611df690611ddc6064826138f9565b7362b8b11039fcfe5ab0c56e502b1c372a3d2a9c7a614612565b89611cc6565b506003546001600160a01b03161515611cc1565b60405162461bcd60e51b815260206004820152601060248201526f125b98dbdc9c9958dd08185b5bdd5b9d60821b6044820152606490fd5b60405162461bcd60e51b81526020600482015260116024820152704576656e7420617420636170616369747960781b6044820152606490fd5b60405162461bcd60e51b8152602060048201526011602482015270105b1c9958591e481c1d5c98da185cd959607a1b6044820152606490fd5b60405162461bcd60e51b815260206004820152601060248201526f4576656e74206e6f742061637469766560801b6044820152606490fd5b60405162461bcd60e51b8152602060048201526011602482015270115d995b9d081a185cc81cdd185c9d1959607a1b6044820152606490fd5b60405162461bcd60e51b815260206004820152601860248201527f4576656e74206e6f74207573696e6720472420746f6b656e00000000000000006044820152606490fd5b80fd5b60405162461bcd60e51b815260206004820152600d60248201526c27b7363c902392103a37b5b2b760991b6044820152606490fd5b34610d45576020366003190112610d4557600435611fc46145ac565b806000526005602052611fe460ff600b6040600020015460101c16614001565b600081815260056020526040902054612007906001600160a01b03161515614043565b61201960ff60015460a01c1615614085565b6000818152600a6020908152604080832033845290915290205460ff161561244c5760008181526005602052604090206007810154600d820154909291906001600160a01b03167362b8b11039fcfe5ab0c56e502b1c372a3d2a9c7a1461242e575b6008810190838254106123e957600b81015460ff81161561228a575b50506000828152600a6020908152604080832033808552908352818420805460ff199081169091558685526006845282852091855292529091208054909116905580546120e59084906141b2565b9055806000526008602052604060002080548015610b7d57600019019055806000526007602052604060002081600052600b602052604060002060018060a01b03331660005260205260406000205481546000198101908111610b7d57808203612212575b5050805480156121fc5760001901906121638282614158565b81546001600160a01b0360039290921b9190911b19169055556000818152600b602090815260408083203384528252808320839055600c909152902080546121ac90849061414b565b9055604051908282527f7a482fdeb6bc9a1376f597068a214a7a39472bb2eff1b8cad21ba04f49ddca1b60203393a360405190815260008051602061467a83398151915260203392a26001600055005b634e487b7160e01b600052603160045260246000fd5b61221c9083614158565b905460039190911b1c6001600160a01b03166122608161223c8486614158565b81546001600160a01b0393841660039290921b91821b9390911b1916919091179055565b83600052600b60205260406000209060018060a01b0316600052602052604060002055838061214a565b60181c60ff16600381101561094c57806122ee5760405162461bcd60e51b815260206004820152602260248201527f526566756e6473206e6f7420616c6c6f77656420666f722074686973206576656044820152611b9d60f21b6064820152608490fd5b600181036123585750600401546001600160401b0316421015612313575b8380612097565b60405162461bcd60e51b815260206004820152601760248201527f526566756e6420706572696f642068617320656e6465640000000000000000006044820152606490fd5b600214612366575b5061230c565b600c6001600160401b03600483015416910154610e10810290808204610e101490151715610b7d57612397916141b2565b4210156123a45783612360565b60405162461bcd60e51b815260206004820152601e60248201527f526566756e642062756666657220706572696f642068617320656e64656400006044820152606490fd5b60405162461bcd60e51b815260206004820152601e60248201527f496e73756666696369656e742066756e647320696e20636f6e747261637400006044820152606490fd5b91606381029080820460631490151715610b7d57606490049161207b565b60405162461bcd60e51b8152602060048201526013602482015272139bc81d1a58dad95d081c1d5c98da185cd959606a1b6044820152606490fd5b34610d45576000366003190112610d45576003546040516001600160a01b039091168152602090f35b34610d45576020366003190112610d455760043560005260086020526020604060002054604051908152f35b34610d45576000366003190112610d45576001546040516001600160a01b039091168152602090f35b613c2f565b34610d45576020366003190112610d45576001600160a01b0361252b613877565b166000526009602052604060002060405190816020825491828152019160005260206000209060005b81811061257f57610ff28561256b818703826138f9565b604051918291602083526020830190613a28565b8254845260209093019260019283019201612554565b34610d45576000366003190112610d45576020600254604051908152f35b34610d45576000366003190112610d45576125cc614583565b600180546001600160a01b031981169091556000906001600160a01b03167f8be0079c531659141344cd1fd0a4f28419497f9722a3daafe3b4186f6b6457e08280a3005b34610d45576020366003190112610d4557612629613877565b612631614583565b6001600160a01b03168015612680578060005260046020526040600020600160ff198254161790557fd1be2e90bd3d24839d9dd94ad871068e1f9688b02fa43f2a62c9975dfa9de2d7600080a2005b60405162461bcd60e51b8152602060048201526015602482015274496e76616c696420746f6b656e206164647265737360581b6044820152606490fd5b34610d45576020366003190112610d45576001600160a01b036126de613877565b166000526004602052602060ff604060002054166040519015158152f35b6020366003190112610d45576004356127136145ac565b80600052600560205261273360ff600b6040600020015460101c16614001565b600081815260056020526040902054612756906001600160a01b03161515614043565b61276860ff60015460a01c1615614085565b8060005260056020526040600020906001600160401b03600483015416421015612b235761279c60ff600684015416614170565b6000818152600a6020908152604080832033845290915290205460ff16612ade57806000526008602052604060002054600a8301541115612a99576007820154600d83015490926001600160a01b039091169081612913578334036128d65760080161280984825461414b565b90555b6000828152600a60209081526040808320338085529083528184208054600160ff1991821681179092558786526006855283862083875285528386208054909116909117905585845260078084528285208054600b8652848720848852865293862093909355938690529290915261288491906141bf565b816000526008602052604060002061289c8154613cb5565b905560405192835260208301527f504ef6dabca28c1452704d54bd8e25708d87e0c27d852eceea53a0c0d898675860403393a36001600055005b60405162461bcd60e51b8152602060048201526015602482015274125b98dbdc9c9958dd0810d15313c8185b5bdd5b9d605a1b6044820152606490fd5b7362b8b11039fcfe5ab0c56e502b1c372a3d2a9c7a8203612a2957346129e4576064840284810460641485151715610b7d57600861271061297f92049261295a84886141b2565b93612967883033896145ce565b801515806129d0575b612986575b500191825461414b565b905561280c565b60035460405163a9059cbb60e01b60208201526001600160a01b0390911660248201526044808201929092529081526129ca906129c46064826138f9565b86614612565b87612975565b506003546001600160a01b03161515612970565b60405162461bcd60e51b815260206004820152601f60248201527f446f6e27742073656e642043454c4f2077697468204724207061796d656e74006044820152606490fd5b34612a4957600890612a3d853033866145ce565b0161297f84825461414b565b60405162461bcd60e51b815260206004820152602260248201527f446f6e27742073656e642043454c4f207769746820746f6b656e207061796d656044820152611b9d60f21b6064820152608490fd5b60405162461bcd60e51b815260206004820152601960248201527f4576656e74206174206d6178696d756d206361706163697479000000000000006044820152606490fd5b60405162461bcd60e51b815260206004820152601860248201527f5469636b657420616c72656164792070757263686173656400000000000000006044820152606490fd5b60405162461bcd60e51b815260206004820152601c60248201527f4576656e74206861732073746172746564206f722065787069726564000000006044820152606490fd5b34610d45576040366003190112610d4557600435612b8461388d565b90612b8d6145ac565b806000526005602052612bad60ff600b6040600020015460101c16614001565b600081815260056020526040902054612bd0906001600160a01b03161515614043565b612be260ff60015460a01c1615614085565b6000818152600a6020908152604080832033845290915290205460ff1615612e62576001600160a01b038216918215612e1d57338314612dd85781600052600a60205260406000208360005260205260ff60406000205416612d93578160005260056020526001600160401b0360046040600020015416421015612d43576000828152600a6020908152604080832033808552908352818420805460ff199081169091558785528285208054821660019081179091558786526006855283862083875285528386208054831690558886528386208054909216179055858452600b835281842090845282528083205485845260079092529091209091612ced9161223c908490614158565b6000828152600b6020908152604080832086845290915280822092909255338082529181208190559091907fd15524263ae66f75c1e604c47db6085085110f23ef7322b355179ac5e3b0783a9080a46001600055005b60405162461bcd60e51b815260206004820152602260248201527f43616e6e6f74207472616e73666572206166746572206576656e742073746172604482015261747360f01b6064820152608490fd5b60405162461bcd60e51b815260206004820152601c60248201527f526563697069656e7420616c726561647920686173207469636b6574000000006044820152606490fd5b60405162461bcd60e51b815260206004820152601b60248201527f43616e6e6f74207472616e7366657220746f20796f757273656c6600000000006044820152606490fd5b60405162461bcd60e51b815260206004820152601960248201527f496e76616c696420726563697069656e742061646472657373000000000000006044820152606490fd5b60405162461bcd60e51b81526020600482015260156024820152742737903a34b1b5b2ba103a37903a3930b739b332b960591b6044820152606490fd5b34610d45576000366003190112610d455760206040516301e133808152f35b34610d45576000366003190112610d4557602060ff60015460a01c166040519015158152f35b34610d45576000366003190112610d455760206040516103e88152f35b34610d45576020366003190112610d4557600435806000526005602052612f3660018060a01b03604060002054163314613fc3565b612f3e6145ac565b806000526005602052604060002090600b8201805492612f6360ff8560101c166140c3565b6001600160401b03600482015460401c164211156130a45760ff841661304f57600890612f9560ff86841c1615614106565b018054938415613014576000610100925561ff00191617905533600052600c6020526040600020612fc783825461414b565b90557f80230996023d69b50793fa73f1919127c9d8e741d3989743c479169f22e7a2886020604051848152a260405190815260008051602061467a83398151915260203392a26001600055005b60405162461bcd60e51b81526020600482015260136024820152724e6f2066756e647320746f2072656c6561736560681b6044820152606490fd5b60405162461bcd60e51b815260206004820152602760248201527f43616e6e6f742072656c656173652066756e647320666f722063616e63656c656044820152661908195d995b9d60ca1b6064820152608490fd5b60405162461bcd60e51b815260206004820152601760248201527f4576656e7420686173206e6f7420656e646564207965740000000000000000006044820152606490fd5b34610d45576040366003190112610d455761310261388d565b600435600052600a60205260406000209060018060a01b0316600052602052602060ff604060002054166040519015158152f35b34610d45576000366003190112610d4557602060405160018152f35b34610d45576020366003190112610d455760043580600052600560205261318760018060a01b03604060002054163314613fc3565b8060005260056020526131a760ff600b6040600020015460101c16614001565b6000818152600560205260409020546131ca906001600160a01b03161515614043565b6131dc60ff60015460a01c1615614085565b80600052600560205260ff600660406000200154161561324857600081815260056020526040812060068101805460ff19908116909155600b909101805490911660011790557fceaf11772900fe569752a0207c8639fb8228eb8663456dc9eaa3a08f927a87059080a2005b60405162461bcd60e51b81526020600482015260166024820152754576656e7420616c726561647920696e61637469766560501b6044820152606490fd5b34610d45576000366003190112610d455761329f6145ac565b33600052600c6020526040600020546132b9811515613f65565b33600052600c60205260006040812055600080808084335af13d1561335f573d6132e281613fa8565b906132f060405192836138f9565b8152600060203d92013e5b156133215760405190815260008051602061467a83398151915260203392a26001600055005b60405162461bcd60e51b815260206004820152601660248201527510d15313c81dda5d1a191c985dd85b0819985a5b195960521b6044820152606490fd5b6132fb565b34610d45576000366003190112610d45576020604051620186a08152f35b34610d45576020366003190112610d45576001600160a01b036133a3613877565b16600052600960205260406000206040518082602082945493848152019060005260206000209260005b81811061344e5750506133e2925003826138f9565b6133ec8151613da1565b9060005b8151811015613438578061340660019284613df1565b51600052600560205261341c6040600020613e27565b6134268286613df1565b526134318185613df1565b50016133f0565b60405160208082528190610ff290820186613bae565b84548352600194850194869450602090930192016133cd565b34610d45576040366003190112610d455761348061388d565b600435600052600660205260406000209060018060a01b0316600052602052602060ff604060002054166040519015158152f35b34610d45576000366003190112610d45576020604051610e108152f35b34610d45576020366003190112610d45576134ea613877565b600080600254905b8181106135c5575061350c61350683613cdb565b92613da1565b92600090815b8381106135285760405180610ff2888883613c07565b80600052600560205260ff600b6040600020015460101c1680613599575b613553575b600101613512565b91613591818461356560019489613df1565b5284600052600560205261357c6040600020613e27565b613586828a613df1565b5261183e8189613df1565b92905061354b565b506000818152600a602090815260408083206001600160a01b038616845290915290205460ff16613546565b80600052600560205260ff600b6040600020015460101c1680613604575b6135f0575b6001016134f2565b916135fc600191613cb5565b9290506135e8565b506000818152600a602090815260408083206001600160a01b038816845290915290205460ff166135e3565b34610d45576020366003190112610d4557600435600090815260056020526040902080546001600160a01b03166136696001830161391a565b916136766002820161391a565b6136826003830161391a565b600483015492906136956005830161391a565b93600683015460ff16946007840154600885015490600986015492600a87015494600b88015496600c89015498600160a01b6001900390600d015416996040519d8e9d8e528d602081016102809052610280016136f1916139be565b8d810360408f0152613702916139be565b8c810360608e0152613713916139be565b906001600160401b03811660808d01528060401c6001600160401b031660a08d01528060801c6001600160401b031660c08d015260c01c60e08c01528a81036101008c0152613761916139be565b9715156101208a01526101408901526101608801526101808701526101a086015260ff811615156101c08601528060081c60ff1615156101e08601528060101c60ff16151561020086015261022085019060181c60ff16906137c2916139ff565b6102408401526102608301520390f35b34610d45576020366003190112610d45576137eb613877565b6137f3614583565b6001600160a01b0316801561383b57600380546001600160a01b031916821790557f465736a10b39217ebb28d921cf0384b8f2353cd6153ca97cdb3b763eb8769ba5600080a2005b60405162461bcd60e51b8152602060048201526014602482015273496e76616c696420706f6f6c206164647265737360601b6044820152606490fd5b600435906001600160a01b0382168203610d4557565b602435906001600160a01b0382168203610d4557565b90600182811c921680156138d3575b60208310146138bd57565b634e487b7160e01b600052602260045260246000fd5b91607f16916138b2565b61028081019081106001600160401b0382111761093657604052565b90601f801991011681019081106001600160401b0382111761093657604052565b906040519182600082549261392e846138a3565b808452936001811690811561399c5750600114613955575b50613953925003836138f9565b565b90506000929192526020600020906000915b8183106139805750509060206139539282010138613946565b6020919350806001915483858901015201910190918492613967565b90506020925061395394915060ff191682840152151560051b82010138613946565b919082519283825260005b8481106139ea575050826000602080949584010152601f8019910116010190565b806020809284010151828286010152016139c9565b90600382101561094c5752565b34610d45576000366003190112610d4557602060405160968152f35b906020808351928381520192019060005b818110613a465750505090565b8251845260209384019390920191600101613a39565b9060018060a01b038251168152610260613b14613ab4613aa2613a90602087015161028060208801526102808701906139be565b604087015186820360408801526139be565b606086015185820360608701526139be565b6001600160401b0360808601511660808501526001600160401b0360a08601511660a08501526001600160401b0360c08601511660c08501526001600160401b0360e08601511660e08501526101008501518482036101008601526139be565b9261012081015115156101208401526101408101516101408401526101608101516101608401526101808101516101808401526101a08101516101a08401526101c081015115156101c08401526101e081015115156101e08401526102008101511515610200840152613b916102208201516102208501906139ff565b61024081810151908401528101516001600160a01b031691015290565b9080602083519182815201916020808360051b8301019401926000915b838310613bda57505050505090565b9091929394602080613bf8600193601f198682030187528951613a5c565b97019301930191939290613bcb565b9091613c1e613c2c93604084526040840190613a28565b916020818403910152613bae565b90565b34610d45576000366003190112610d4557602060405160648152f35b9181601f84011215610d45578235916001600160401b038311610d455760208381860195010111610d4557565b906020808351928381520192019060005b818110613c965750505090565b82516001600160a01b0316845260209384019390920191600101613c89565b6000198114610b7d5760010190565b6001600160401b0381116109365760051b60200190565b90613ce582613cc4565b613cf260405191826138f9565b8281528092613d03601f1991613cc4565b0190602036910137565b60405190613d1a826138dd565b60006102608382815260606020820152606060408201526060808201528260808201528260a08201528260c08201528260e0820152606061010082015282610120820152826101408201528261016082015282610180820152826101a0820152826101c0820152826101e08201528261020082015282610220820152826102408201520152565b90613dab82613cc4565b613db860405191826138f9565b8281528092613dc9601f1991613cc4565b019060005b828110613dda57505050565b602090613de5613d0d565b82828501015201613dce565b8051821015613e055760209160051b010190565b634e487b7160e01b600052603260045260246000fd5b600382101561094c5752565b90604051613e34816138dd565b82546001600160a01b0316815291829061026090613e546001820161391a565b6020840152613e656002820161391a565b6040840152613e766003820161391a565b606084015260048101546001600160401b03811660808501526001600160401b038160401c1660a08501526001600160401b038160801c1660c085015260c01c60e0840152613ec76005820161391a565b61010084015260ff6006820154161515610120840152600781015461014084015260088101546101608401526009810154610180840152600a8101546101a0840152613f4860ff600b83015481811615156101c0870152818160081c1615156101e0870152818160101c16151561020087015260181c166102208501613e1b565b600c810154610240840152600d01546001600160a01b0316910152565b15613f6c57565b60405162461bcd60e51b81526020600482015260146024820152734e6f2066756e647320746f20776974686472617760601b6044820152606490fd5b6001600160401b03811161093657601f01601f191660200190565b15613fca57565b60405162461bcd60e51b815260206004820152600f60248201526e2737ba1032bb32b73a1037bbb732b960891b6044820152606490fd5b1561400857565b60405162461bcd60e51b8152602060048201526013602482015272115d995b9d08191bd95cdb89dd08195e1a5cdd606a1b6044820152606490fd5b1561404a57565b60405162461bcd60e51b81526020600482015260136024820152724576656e74206f776e6572206973207a65726f60681b6044820152606490fd5b1561408c57565b60405162461bcd60e51b815260206004820152600f60248201526e10dbdb9d1c9858dd081c185d5cd959608a1b6044820152606490fd5b156140ca57565b60405162461bcd60e51b8152602060048201526014602482015273115d995b9d08191bd95cc81b9bdd08195e1a5cdd60621b6044820152606490fd5b1561410d57565b60405162461bcd60e51b8152602060048201526016602482015275119d5b991cc8185b1c9958591e481c995b19585cd95960521b6044820152606490fd5b91908201809211610b7d57565b8054821015613e055760005260206000200190600090565b1561417757565b60405162461bcd60e51b81526020600482015260136024820152724576656e74206973206e6f742061637469766560681b6044820152606490fd5b91908203918211610b7d57565b90815491600160401b831015610936578261223c91600161395395018155614158565b906040519182815491828252602082019060005260206000209260005b818110614214575050613953925003836138f9565b84546001600160a01b03168352600194850194879450602090930192016141ff565b1561423d57565b60405162461bcd60e51b8152602060048201526013602482015272092dcecc2d8d2c840dcc2daca40d8cadccee8d606b1b6044820152606490fd5b1561427f57565b60405162461bcd60e51b8152602060048201526012602482015271092dcecc2d8d2c840aaa49840d8cadccee8d60731b6044820152606490fd5b156142c057565b60405162461bcd60e51b8152602060048201526016602482015275092dcecc2d8d2c840c8cae8c2d2d8e640d8cadccee8d60531b6044820152606490fd5b1561430557565b60405162461bcd60e51b815260206004820152601760248201527f496e76616c6964206c6f636174696f6e206c656e6774680000000000000000006044820152606490fd5b1561435157565b60405162461bcd60e51b8152602060048201526014602482015273496e76616c6964207469636b657420707269636560601b6044820152606490fd5b1561439457565b60405162461bcd60e51b815260206004820152601060248201526f496e76616c696420636170616369747960801b6044820152606490fd5b156143d357565b60405162461bcd60e51b8152602060048201526015602482015274496e76616c696420726566756e6420706f6c69637960581b6044820152606490fd5b1561441757565b60405162461bcd60e51b815260206004820152601560248201527424b73b30b634b2103932b33ab73210313ab33332b960591b6044820152606490fd5b1561445b57565b60405162461bcd60e51b815260206004820152602660248201527f526566756e642062756666657220657863656564732074696d6520756e74696c60448201526508195d995b9d60d21b6064820152608490fd5b601f82116144bc57505050565b6000526020600020906020601f840160051c830193106144f7575b601f0160051c01905b8181106144eb575050565b600081556001016144e0565b90915081906144d7565b90600381101561094c5763ff00000082549160181b169063ff0000001916179055565b90918060409360208452816020850152848401376000828201840152601f01601f1916010190565b92919261455882613fa8565b9161456660405193846138f9565b829481845281830111610d45578281602093846000960137010152565b6001546001600160a01b0316330361459757565b63118cdaa760e01b6000523360045260246000fd5b6002600054146145bd576002600055565b633ee5aeb560e01b60005260046000fd5b6040516323b872dd60e01b60208201526001600160a01b039283166024820152929091166044830152606480830193909352918152613953916146126084836138f9565b906000602091828151910182855af11561466d576000513d61466457506001600160a01b0381163b155b6146435750565b635274afe760e01b60009081526001600160a01b0391909116600452602490fd5b6001141561463c565b6040513d6000823e3d90fdfe61f4a796c29c0b19830a107f63c010f13bcd46bf2118e1747abc3dedad4c2403a26469706673582212209de89e66d9b1a38388c6b7b6676dac4998bf2e1c295dd547f3be3019e45080da64736f6c634300081c0033",
    "linkReferences": {},
    "deployedLinkReferences": {}
}