{
    "_format": "hh-sol-artifact-1",
    "contractName": "EventChainV2",
    "sourceName": "contracts/EventChainV2.sol",
    "abi": [
        {
            "inputs": [],
            "stateMutability": "nonpayable",
            "type": "constructor"
        },
        {
            "inputs": [
                {
                    "internalType": "address",
                    "name": "target",
                    "type": "address"
                }
            ],
            "name": "AddressEmptyCode",
            "type": "error"
        },
        {
            "inputs": [
                {
                    "internalType": "address",
                    "name": "implementation",
                    "type": "address"
                }
            ],
            "name": "ERC1967InvalidImplementation",
            "type": "error"
        },
        {
            "inputs": [],
            "name": "ERC1967NonPayable",
            "type": "error"
        },
        {
            "inputs": [],
            "name": "FailedCall",
            "type": "error"
        },
        {
            "inputs": [],
            "name": "InvalidInitialization",
            "type": "error"
        },
        {
            "inputs": [],
            "name": "NotInitializing",
            "type": "error"
        },
        {
            "inputs": [
                {
                    "internalType": "address",
                    "name": "owner",
                    "type": "address"
                }
            ],
            "name": "OwnableInvalidOwner",
            "type": "error"
        },
        {
            "inputs": [
                {
                    "internalType": "address",
                    "name": "account",
                    "type": "address"
                }
            ],
            "name": "OwnableUnauthorizedAccount",
            "type": "error"
        },
        {
            "inputs": [],
            "name": "ReentrancyGuardReentrantCall",
            "type": "error"
        },
        {
            "inputs": [
                {
                    "internalType": "address",
                    "name": "token",
                    "type": "address"
                }
            ],
            "name": "SafeERC20FailedOperation",
            "type": "error"
        },
        {
            "inputs": [],
            "name": "UUPSUnauthorizedCallContext",
            "type": "error"
        },
        {
            "inputs": [
                {
                    "internalType": "bytes32",
                    "name": "slot",
                    "type": "bytes32"
                }
            ],
            "name": "UUPSUnsupportedProxiableUUID",
            "type": "error"
        },
        {
            "anonymous": false,
            "inputs": [
                {
                    "indexed": true,
                    "internalType": "uint256",
                    "name": "eventId",
                    "type": "uint256"
                },
                {
                    "indexed": false,
                    "internalType": "uint256",
                    "name": "amount",
                    "type": "uint256"
                }
            ],
            "name": "EmergencyWithdrawal",
            "type": "event"
        },
        {
            "anonymous": false,
            "inputs": [
                {
                    "indexed": true,
                    "internalType": "address",
                    "name": "newContract",
                    "type": "address"
                }
            ],
            "name": "EngagementRewardsUpdated",
            "type": "event"
        },
        {
            "anonymous": false,
            "inputs": [
                {
                    "indexed": true,
                    "internalType": "uint256",
                    "name": "eventId",
                    "type": "uint256"
                }
            ],
            "name": "EventCanceled",
            "type": "event"
        },
        {
            "anonymous": false,
            "inputs": [
                {
                    "indexed": true,
                    "internalType": "uint256",
                    "name": "eventId",
                    "type": "uint256"
                },
                {
                    "indexed": true,
                    "internalType": "address",
                    "name": "owner",
                    "type": "address"
                },
                {
                    "indexed": false,
                    "internalType": "string",
                    "name": "eventName",
                    "type": "string"
                }
            ],
            "name": "EventCreated",
            "type": "event"
        },
        {
            "anonymous": false,
            "inputs": [
                {
                    "indexed": true,
                    "internalType": "uint256",
                    "name": "eventId",
                    "type": "uint256"
                },
                {
                    "indexed": true,
                    "internalType": "address",
                    "name": "owner",
                    "type": "address"
                },
                {
                    "indexed": false,
                    "internalType": "string",
                    "name": "eventName",
                    "type": "string"
                }
            ],
            "name": "EventUpdated",
            "type": "event"
        },
        {
            "anonymous": false,
            "inputs": [
                {
                    "indexed": true,
                    "internalType": "uint256",
                    "name": "eventId",
                    "type": "uint256"
                },
                {
                    "indexed": false,
                    "internalType": "uint256",
                    "name": "amount",
                    "type": "uint256"
                }
            ],
            "name": "FundsReleased",
            "type": "event"
        },
        {
            "anonymous": false,
            "inputs": [
                {
                    "indexed": true,
                    "internalType": "address",
                    "name": "user",
                    "type": "address"
                },
                {
                    "indexed": true,
                    "internalType": "uint256",
                    "name": "eventId",
                    "type": "uint256"
                },
                {
                    "indexed": false,
                    "internalType": "bool",
                    "name": "success",
                    "type": "bool"
                }
            ],
            "name": "GoodDollarRewardClaimed",
            "type": "event"
        },
        {
            "anonymous": false,
            "inputs": [
                {
                    "indexed": false,
                    "internalType": "bool",
                    "name": "enabled",
                    "type": "bool"
                }
            ],
            "name": "GoodDollarToggled",
            "type": "event"
        },
        {
            "anonymous": false,
            "inputs": [
                {
                    "indexed": false,
                    "internalType": "uint64",
                    "name": "version",
                    "type": "uint64"
                }
            ],
            "name": "Initialized",
            "type": "event"
        },
        {
            "anonymous": false,
            "inputs": [
                {
                    "indexed": true,
                    "internalType": "address",
                    "name": "previousOwner",
                    "type": "address"
                },
                {
                    "indexed": true,
                    "internalType": "address",
                    "name": "newOwner",
                    "type": "address"
                }
            ],
            "name": "OwnershipTransferred",
            "type": "event"
        },
        {
            "anonymous": false,
            "inputs": [
                {
                    "indexed": true,
                    "internalType": "uint256",
                    "name": "eventId",
                    "type": "uint256"
                },
                {
                    "indexed": true,
                    "internalType": "address",
                    "name": "user",
                    "type": "address"
                },
                {
                    "indexed": false,
                    "internalType": "uint256",
                    "name": "amount",
                    "type": "uint256"
                }
            ],
            "name": "RefundIssued",
            "type": "event"
        },
        {
            "anonymous": false,
            "inputs": [
                {
                    "indexed": true,
                    "internalType": "address",
                    "name": "token",
                    "type": "address"
                }
            ],
            "name": "SupportedTokenAdded",
            "type": "event"
        },
        {
            "anonymous": false,
            "inputs": [
                {
                    "indexed": true,
                    "internalType": "uint256",
                    "name": "eventId",
                    "type": "uint256"
                },
                {
                    "indexed": true,
                    "internalType": "address",
                    "name": "buyer",
                    "type": "address"
                },
                {
                    "indexed": false,
                    "internalType": "uint256",
                    "name": "amount",
                    "type": "uint256"
                },
                {
                    "indexed": false,
                    "internalType": "address",
                    "name": "paymentToken",
                    "type": "address"
                }
            ],
            "name": "TicketPurchased",
            "type": "event"
        },
        {
            "anonymous": false,
            "inputs": [
                {
                    "indexed": true,
                    "internalType": "uint256",
                    "name": "eventId",
                    "type": "uint256"
                },
                {
                    "indexed": true,
                    "internalType": "address",
                    "name": "from",
                    "type": "address"
                },
                {
                    "indexed": true,
                    "internalType": "address",
                    "name": "to",
                    "type": "address"
                }
            ],
            "name": "TicketTransferred",
            "type": "event"
        },
        {
            "anonymous": false,
            "inputs": [
                {
                    "indexed": true,
                    "internalType": "address",
                    "name": "newPool",
                    "type": "address"
                }
            ],
            "name": "UbiPoolUpdated",
            "type": "event"
        },
        {
            "anonymous": false,
            "inputs": [
                {
                    "indexed": true,
                    "internalType": "address",
                    "name": "implementation",
                    "type": "address"
                }
            ],
            "name": "Upgraded",
            "type": "event"
        },
        {
            "anonymous": false,
            "inputs": [
                {
                    "indexed": true,
                    "internalType": "address",
                    "name": "user",
                    "type": "address"
                },
                {
                    "indexed": false,
                    "internalType": "uint256",
                    "name": "amount",
                    "type": "uint256"
                }
            ],
            "name": "WithdrawalReady",
            "type": "event"
        },
        {
            "stateMutability": "payable",
            "type": "fallback"
        },
        {
            "inputs": [],
            "name": "CELO",
            "outputs": [
                {
                    "internalType": "address",
                    "name": "",
                    "type": "address"
                }
            ],
            "stateMutability": "view",
            "type": "function"
        },
        {
            "inputs": [],
            "name": "EMERGENCY_WITHDRAWAL_DELAY",
            "outputs": [
                {
                    "internalType": "uint256",
                    "name": "",
                    "type": "uint256"
                }
            ],
            "stateMutability": "view",
            "type": "function"
        },
        {
            "inputs": [],
            "name": "G_DOLLAR",
            "outputs": [
                {
                    "internalType": "address",
                    "name": "",
                    "type": "address"
                }
            ],
            "stateMutability": "view",
            "type": "function"
        },
        {
            "inputs": [],
            "name": "G_DOLLAR_FEE_BPS",
            "outputs": [
                {
                    "internalType": "uint256",
                    "name": "",
                    "type": "uint256"
                }
            ],
            "stateMutability": "view",
            "type": "function"
        },
        {
            "inputs": [],
            "name": "MAX_AGE",
            "outputs": [
                {
                    "internalType": "uint256",
                    "name": "",
                    "type": "uint256"
                }
            ],
            "stateMutability": "view",
            "type": "function"
        },
        {
            "inputs": [],
            "name": "MAX_CAPACITY",
            "outputs": [
                {
                    "internalType": "uint256",
                    "name": "",
                    "type": "uint256"
                }
            ],
            "stateMutability": "view",
            "type": "function"
        },
        {
            "inputs": [],
            "name": "MAX_DETAILS_LENGTH",
            "outputs": [
                {
                    "internalType": "uint256",
                    "name": "",
                    "type": "uint256"
                }
            ],
            "stateMutability": "view",
            "type": "function"
        },
        {
            "inputs": [],
            "name": "MAX_EVENT_DURATION",
            "outputs": [
                {
                    "internalType": "uint256",
                    "name": "",
                    "type": "uint256"
                }
            ],
            "stateMutability": "view",
            "type": "function"
        },
        {
            "inputs": [],
            "name": "MAX_LOCATION_LENGTH",
            "outputs": [
                {
                    "internalType": "uint256",
                    "name": "",
                    "type": "uint256"
                }
            ],
            "stateMutability": "view",
            "type": "function"
        },
        {
            "inputs": [],
            "name": "MAX_NAME_LENGTH",
            "outputs": [
                {
                    "internalType": "uint256",
                    "name": "",
                    "type": "uint256"
                }
            ],
            "stateMutability": "view",
            "type": "function"
        },
        {
            "inputs": [],
            "name": "MAX_TICKET_PRICE",
            "outputs": [
                {
                    "internalType": "uint256",
                    "name": "",
                    "type": "uint256"
                }
            ],
            "stateMutability": "view",
            "type": "function"
        },
        {
            "inputs": [],
            "name": "MAX_URL_LENGTH",
            "outputs": [
                {
                    "internalType": "uint256",
                    "name": "",
                    "type": "uint256"
                }
            ],
            "stateMutability": "view",
            "type": "function"
        },
        {
            "inputs": [],
            "name": "MIN_CAPACITY",
            "outputs": [
                {
                    "internalType": "uint256",
                    "name": "",
                    "type": "uint256"
                }
            ],
            "stateMutability": "view",
            "type": "function"
        },
        {
            "inputs": [],
            "name": "MIN_EVENT_DURATION",
            "outputs": [
                {
                    "internalType": "uint256",
                    "name": "",
                    "type": "uint256"
                }
            ],
            "stateMutability": "view",
            "type": "function"
        },
        {
            "inputs": [],
            "name": "UPGRADE_INTERFACE_VERSION",
            "outputs": [
                {
                    "internalType": "string",
                    "name": "",
                    "type": "string"
                }
            ],
            "stateMutability": "view",
            "type": "function"
        },
        {
            "inputs": [
                {
                    "internalType": "address",
                    "name": "_token",
                    "type": "address"
                }
            ],
            "name": "addSupportedToken",
            "outputs": [],
            "stateMutability": "nonpayable",
            "type": "function"
        },
        {
            "inputs": [
                {
                    "internalType": "uint256",
                    "name": "",
                    "type": "uint256"
                }
            ],
            "name": "attendeeCount",
            "outputs": [
                {
                    "internalType": "uint256",
                    "name": "",
                    "type": "uint256"
                }
            ],
            "stateMutability": "view",
            "type": "function"
        },
        {
            "inputs": [
                {
                    "internalType": "uint256",
                    "name": "_index",
                    "type": "uint256"
                }
            ],
            "name": "buyTicket",
            "outputs": [],
            "stateMutability": "payable",
            "type": "function"
        },
        {
            "inputs": [
                {
                    "internalType": "uint256",
                    "name": "_index",
                    "type": "uint256"
                },
                {
                    "internalType": "uint256",
                    "name": "_validUntilBlock",
                    "type": "uint256"
                },
                {
                    "internalType": "bytes",
                    "name": "_signature",
                    "type": "bytes"
                }
            ],
            "name": "buyTicketWithRewards",
            "outputs": [],
            "stateMutability": "payable",
            "type": "function"
        },
        {
            "inputs": [
                {
                    "internalType": "uint256",
                    "name": "_index",
                    "type": "uint256"
                }
            ],
            "name": "cancelEvent",
            "outputs": [],
            "stateMutability": "nonpayable",
            "type": "function"
        },
        {
            "inputs": [
                {
                    "internalType": "string",
                    "name": "_eventName",
                    "type": "string"
                },
                {
                    "internalType": "string",
                    "name": "_eventCardImgUrl",
                    "type": "string"
                },
                {
                    "internalType": "string",
                    "name": "_eventDetails",
                    "type": "string"
                },
                {
                    "internalType": "uint64",
                    "name": "_startDate",
                    "type": "uint64"
                },
                {
                    "internalType": "uint64",
                    "name": "_endDate",
                    "type": "uint64"
                },
                {
                    "internalType": "uint64",
                    "name": "_startTime",
                    "type": "uint64"
                },
                {
                    "internalType": "uint64",
                    "name": "_endTime",
                    "type": "uint64"
                },
                {
                    "internalType": "string",
                    "name": "_eventLocation",
                    "type": "string"
                },
                {
                    "internalType": "uint256",
                    "name": "_ticketPrice",
                    "type": "uint256"
                },
                {
                    "internalType": "uint256",
                    "name": "_minimumAge",
                    "type": "uint256"
                },
                {
                    "internalType": "uint256",
                    "name": "_maxCapacity",
                    "type": "uint256"
                },
                {
                    "internalType": "enum EventChainV2.RefundPolicy",
                    "name": "_refundPolicy",
                    "type": "uint8"
                },
                {
                    "internalType": "uint256",
                    "name": "_refundBufferHours",
                    "type": "uint256"
                },
                {
                    "internalType": "address",
                    "name": "_paymentToken",
                    "type": "address"
                }
            ],
            "name": "createEvent",
            "outputs": [],
            "stateMutability": "nonpayable",
            "type": "function"
        },
        {
            "inputs": [
                {
                    "internalType": "uint256",
                    "name": "_index",
                    "type": "uint256"
                }
            ],
            "name": "emergencyWithdrawFunds",
            "outputs": [],
            "stateMutability": "nonpayable",
            "type": "function"
        },
        {
            "inputs": [],
            "name": "engagementRewards",
            "outputs": [
                {
                    "internalType": "contract IEngagementRewards",
                    "name": "",
                    "type": "address"
                }
            ],
            "stateMutability": "view",
            "type": "function"
        },
        {
            "inputs": [],
            "name": "eventCount",
            "outputs": [
                {
                    "internalType": "uint256",
                    "name": "",
                    "type": "uint256"
                }
            ],
            "stateMutability": "view",
            "type": "function"
        },
        {
            "inputs": [
                {
                    "internalType": "uint256",
                    "name": "",
                    "type": "uint256"
                }
            ],
            "name": "events",
            "outputs": [
                {
                    "internalType": "address",
                    "name": "owner",
                    "type": "address"
                },
                {
                    "internalType": "string",
                    "name": "eventName",
                    "type": "string"
                },
                {
                    "internalType": "string",
                    "name": "eventCardImgUrl",
                    "type": "string"
                },
                {
                    "internalType": "string",
                    "name": "eventDetails",
                    "type": "string"
                },
                {
                    "internalType": "uint64",
                    "name": "startDate",
                    "type": "uint64"
                },
                {
                    "internalType": "uint64",
                    "name": "endDate",
                    "type": "uint64"
                },
                {
                    "internalType": "uint64",
                    "name": "startTime",
                    "type": "uint64"
                },
                {
                    "internalType": "uint64",
                    "name": "endTime",
                    "type": "uint64"
                },
                {
                    "internalType": "string",
                    "name": "eventLocation",
                    "type": "string"
                },
                {
                    "internalType": "bool",
                    "name": "isActive",
                    "type": "bool"
                },
                {
                    "internalType": "uint256",
                    "name": "ticketPrice",
                    "type": "uint256"
                },
                {
                    "internalType": "uint256",
                    "name": "fundsHeld",
                    "type": "uint256"
                },
                {
                    "internalType": "uint256",
                    "name": "minimumAge",
                    "type": "uint256"
                },
                {
                    "internalType": "uint256",
                    "name": "maxCapacity",
                    "type": "uint256"
                },
                {
                    "internalType": "bool",
                    "name": "isCanceled",
                    "type": "bool"
                },
                {
                    "internalType": "bool",
                    "name": "fundsReleased",
                    "type": "bool"
                },
                {
                    "internalType": "bool",
                    "name": "exists",
                    "type": "bool"
                },
                {
                    "internalType": "enum EventChainV2.RefundPolicy",
                    "name": "refundPolicy",
                    "type": "uint8"
                },
                {
                    "internalType": "uint256",
                    "name": "refundBufferHours",
                    "type": "uint256"
                },
                {
                    "internalType": "address",
                    "name": "paymentToken",
                    "type": "address"
                }
            ],
            "stateMutability": "view",
            "type": "function"
        },
        {
            "inputs": [],
            "name": "getActiveEventsByCreator",
            "outputs": [
                {
                    "internalType": "uint256[]",
                    "name": "",
                    "type": "uint256[]"
                },
                {
                    "components": [
                        {
                            "internalType": "address",
                            "name": "owner",
                            "type": "address"
                        },
                        {
                            "internalType": "string",
                            "name": "eventName",
                            "type": "string"
                        },
                        {
                            "internalType": "string",
                            "name": "eventCardImgUrl",
                            "type": "string"
                        },
                        {
                            "internalType": "string",
                            "name": "eventDetails",
                            "type": "string"
                        },
                        {
                            "internalType": "uint64",
                            "name": "startDate",
                            "type": "uint64"
                        },
                        {
                            "internalType": "uint64",
                            "name": "endDate",
                            "type": "uint64"
                        },
                        {
                            "internalType": "uint64",
                            "name": "startTime",
                            "type": "uint64"
                        },
                        {
                            "internalType": "uint64",
                            "name": "endTime",
                            "type": "uint64"
                        },
                        {
                            "internalType": "string",
                            "name": "eventLocation",
                            "type": "string"
                        },
                        {
                            "internalType": "bool",
                            "name": "isActive",
                            "type": "bool"
                        },
                        {
                            "internalType": "uint256",
                            "name": "ticketPrice",
                            "type": "uint256"
                        },
                        {
                            "internalType": "uint256",
                            "name": "fundsHeld",
                            "type": "uint256"
                        },
                        {
                            "internalType": "uint256",
                            "name": "minimumAge",
                            "type": "uint256"
                        },
                        {
                            "internalType": "uint256",
                            "name": "maxCapacity",
                            "type": "uint256"
                        },
                        {
                            "internalType": "bool",
                            "name": "isCanceled",
                            "type": "bool"
                        },
                        {
                            "internalType": "bool",
                            "name": "fundsReleased",
                            "type": "bool"
                        },
                        {
                            "internalType": "bool",
                            "name": "exists",
                            "type": "bool"
                        },
                        {
                            "internalType": "enum EventChainV2.RefundPolicy",
                            "name": "refundPolicy",
                            "type": "uint8"
                        },
                        {
                            "internalType": "uint256",
                            "name": "refundBufferHours",
                            "type": "uint256"
                        },
                        {
                            "internalType": "address",
                            "name": "paymentToken",
                            "type": "address"
                        }
                    ],
                    "internalType": "struct EventChainV2.Event[]",
                    "name": "",
                    "type": "tuple[]"
                }
            ],
            "stateMutability": "view",
            "type": "function"
        },
        {
            "inputs": [],
            "name": "getAllEvents",
            "outputs": [
                {
                    "internalType": "uint256[]",
                    "name": "",
                    "type": "uint256[]"
                },
                {
                    "components": [
                        {
                            "internalType": "address",
                            "name": "owner",
                            "type": "address"
                        },
                        {
                            "internalType": "string",
                            "name": "eventName",
                            "type": "string"
                        },
                        {
                            "internalType": "string",
                            "name": "eventCardImgUrl",
                            "type": "string"
                        },
                        {
                            "internalType": "string",
                            "name": "eventDetails",
                            "type": "string"
                        },
                        {
                            "internalType": "uint64",
                            "name": "startDate",
                            "type": "uint64"
                        },
                        {
                            "internalType": "uint64",
                            "name": "endDate",
                            "type": "uint64"
                        },
                        {
                            "internalType": "uint64",
                            "name": "startTime",
                            "type": "uint64"
                        },
                        {
                            "internalType": "uint64",
                            "name": "endTime",
                            "type": "uint64"
                        },
                        {
                            "internalType": "string",
                            "name": "eventLocation",
                            "type": "string"
                        },
                        {
                            "internalType": "bool",
                            "name": "isActive",
                            "type": "bool"
                        },
                        {
                            "internalType": "uint256",
                            "name": "ticketPrice",
                            "type": "uint256"
                        },
                        {
                            "internalType": "uint256",
                            "name": "fundsHeld",
                            "type": "uint256"
                        },
                        {
                            "internalType": "uint256",
                            "name": "minimumAge",
                            "type": "uint256"
                        },
                        {
                            "internalType": "uint256",
                            "name": "maxCapacity",
                            "type": "uint256"
                        },
                        {
                            "internalType": "bool",
                            "name": "isCanceled",
                            "type": "bool"
                        },
                        {
                            "internalType": "bool",
                            "name": "fundsReleased",
                            "type": "bool"
                        },
                        {
                            "internalType": "bool",
                            "name": "exists",
                            "type": "bool"
                        },
                        {
                            "internalType": "enum EventChainV2.RefundPolicy",
                            "name": "refundPolicy",
                            "type": "uint8"
                        },
                        {
                            "internalType": "uint256",
                            "name": "refundBufferHours",
                            "type": "uint256"
                        },
                        {
                            "internalType": "address",
                            "name": "paymentToken",
                            "type": "address"
                        }
                    ],
                    "internalType": "struct EventChainV2.Event[]",
                    "name": "",
                    "type": "tuple[]"
                }
            ],
            "stateMutability": "view",
            "type": "function"
        },
        {
            "inputs": [
                {
                    "internalType": "uint256",
                    "name": "_index",
                    "type": "uint256"
                }
            ],
            "name": "getAttendees",
            "outputs": [
                {
                    "internalType": "address[]",
                    "name": "",
                    "type": "address[]"
                }
            ],
            "stateMutability": "view",
            "type": "function"
        },
        {
            "inputs": [
                {
                    "internalType": "uint256",
                    "name": "_index",
                    "type": "uint256"
                }
            ],
            "name": "getEventById",
            "outputs": [
                {
                    "components": [
                        {
                            "internalType": "address",
                            "name": "owner",
                            "type": "address"
                        },
                        {
                            "internalType": "string",
                            "name": "eventName",
                            "type": "string"
                        },
                        {
                            "internalType": "string",
                            "name": "eventCardImgUrl",
                            "type": "string"
                        },
                        {
                            "internalType": "string",
                            "name": "eventDetails",
                            "type": "string"
                        },
                        {
                            "internalType": "uint64",
                            "name": "startDate",
                            "type": "uint64"
                        },
                        {
                            "internalType": "uint64",
                            "name": "endDate",
                            "type": "uint64"
                        },
                        {
                            "internalType": "uint64",
                            "name": "startTime",
                            "type": "uint64"
                        },
                        {
                            "internalType": "uint64",
                            "name": "endTime",
                            "type": "uint64"
                        },
                        {
                            "internalType": "string",
                            "name": "eventLocation",
                            "type": "string"
                        },
                        {
                            "internalType": "bool",
                            "name": "isActive",
                            "type": "bool"
                        },
                        {
                            "internalType": "uint256",
                            "name": "ticketPrice",
                            "type": "uint256"
                        },
                        {
                            "internalType": "uint256",
                            "name": "fundsHeld",
                            "type": "uint256"
                        },
                        {
                            "internalType": "uint256",
                            "name": "minimumAge",
                            "type": "uint256"
                        },
                        {
                            "internalType": "uint256",
                            "name": "maxCapacity",
                            "type": "uint256"
                        },
                        {
                            "internalType": "bool",
                            "name": "isCanceled",
                            "type": "bool"
                        },
                        {
                            "internalType": "bool",
                            "name": "fundsReleased",
                            "type": "bool"
                        },
                        {
                            "internalType": "bool",
                            "name": "exists",
                            "type": "bool"
                        },
                        {
                            "internalType": "enum EventChainV2.RefundPolicy",
                            "name": "refundPolicy",
                            "type": "uint8"
                        },
                        {
                            "internalType": "uint256",
                            "name": "refundBufferHours",
                            "type": "uint256"
                        },
                        {
                            "internalType": "address",
                            "name": "paymentToken",
                            "type": "address"
                        }
                    ],
                    "internalType": "struct EventChainV2.Event",
                    "name": "",
                    "type": "tuple"
                },
                {
                    "internalType": "address[]",
                    "name": "",
                    "type": "address[]"
                }
            ],
            "stateMutability": "view",
            "type": "function"
        },
        {
            "inputs": [
                {
                    "internalType": "address",
                    "name": "_creator",
                    "type": "address"
                }
            ],
            "name": "getEventIdsByCreator",
            "outputs": [
                {
                    "internalType": "uint256[]",
                    "name": "",
                    "type": "uint256[]"
                }
            ],
            "stateMutability": "view",
            "type": "function"
        },
        {
            "inputs": [],
            "name": "getEventLength",
            "outputs": [
                {
                    "internalType": "uint256",
                    "name": "",
                    "type": "uint256"
                }
            ],
            "stateMutability": "view",
            "type": "function"
        },
        {
            "inputs": [
                {
                    "internalType": "address",
                    "name": "_creator",
                    "type": "address"
                }
            ],
            "name": "getEventsByCreator",
            "outputs": [
                {
                    "components": [
                        {
                            "internalType": "address",
                            "name": "owner",
                            "type": "address"
                        },
                        {
                            "internalType": "string",
                            "name": "eventName",
                            "type": "string"
                        },
                        {
                            "internalType": "string",
                            "name": "eventCardImgUrl",
                            "type": "string"
                        },
                        {
                            "internalType": "string",
                            "name": "eventDetails",
                            "type": "string"
                        },
                        {
                            "internalType": "uint64",
                            "name": "startDate",
                            "type": "uint64"
                        },
                        {
                            "internalType": "uint64",
                            "name": "endDate",
                            "type": "uint64"
                        },
                        {
                            "internalType": "uint64",
                            "name": "startTime",
                            "type": "uint64"
                        },
                        {
                            "internalType": "uint64",
                            "name": "endTime",
                            "type": "uint64"
                        },
                        {
                            "internalType": "string",
                            "name": "eventLocation",
                            "type": "string"
                        },
                        {
                            "internalType": "bool",
                            "name": "isActive",
                            "type": "bool"
                        },
                        {
                            "internalType": "uint256",
                            "name": "ticketPrice",
                            "type": "uint256"
                        },
                        {
                            "internalType": "uint256",
                            "name": "fundsHeld",
                            "type": "uint256"
                        },
                        {
                            "internalType": "uint256",
                            "name": "minimumAge",
                            "type": "uint256"
                        },
                        {
                            "internalType": "uint256",
                            "name": "maxCapacity",
                            "type": "uint256"
                        },
                        {
                            "internalType": "bool",
                            "name": "isCanceled",
                            "type": "bool"
                        },
                        {
                            "internalType": "bool",
                            "name": "fundsReleased",
                            "type": "bool"
                        },
                        {
                            "internalType": "bool",
                            "name": "exists",
                            "type": "bool"
                        },
                        {
                            "internalType": "enum EventChainV2.RefundPolicy",
                            "name": "refundPolicy",
                            "type": "uint8"
                        },
                        {
                            "internalType": "uint256",
                            "name": "refundBufferHours",
                            "type": "uint256"
                        },
                        {
                            "internalType": "address",
                            "name": "paymentToken",
                            "type": "address"
                        }
                    ],
                    "internalType": "struct EventChainV2.Event[]",
                    "name": "",
                    "type": "tuple[]"
                }
            ],
            "stateMutability": "view",
            "type": "function"
        },
        {
            "inputs": [
                {
                    "internalType": "address",
                    "name": "user",
                    "type": "address"
                },
                {
                    "internalType": "address",
                    "name": "token",
                    "type": "address"
                }
            ],
            "name": "getPendingWithdrawal",
            "outputs": [
                {
                    "internalType": "uint256",
                    "name": "",
                    "type": "uint256"
                }
            ],
            "stateMutability": "view",
            "type": "function"
        },
        {
            "inputs": [
                {
                    "internalType": "address",
                    "name": "user",
                    "type": "address"
                }
            ],
            "name": "getUserEvents",
            "outputs": [
                {
                    "internalType": "uint256[]",
                    "name": "",
                    "type": "uint256[]"
                },
                {
                    "components": [
                        {
                            "internalType": "address",
                            "name": "owner",
                            "type": "address"
                        },
                        {
                            "internalType": "string",
                            "name": "eventName",
                            "type": "string"
                        },
                        {
                            "internalType": "string",
                            "name": "eventCardImgUrl",
                            "type": "string"
                        },
                        {
                            "internalType": "string",
                            "name": "eventDetails",
                            "type": "string"
                        },
                        {
                            "internalType": "uint64",
                            "name": "startDate",
                            "type": "uint64"
                        },
                        {
                            "internalType": "uint64",
                            "name": "endDate",
                            "type": "uint64"
                        },
                        {
                            "internalType": "uint64",
                            "name": "startTime",
                            "type": "uint64"
                        },
                        {
                            "internalType": "uint64",
                            "name": "endTime",
                            "type": "uint64"
                        },
                        {
                            "internalType": "string",
                            "name": "eventLocation",
                            "type": "string"
                        },
                        {
                            "internalType": "bool",
                            "name": "isActive",
                            "type": "bool"
                        },
                        {
                            "internalType": "uint256",
                            "name": "ticketPrice",
                            "type": "uint256"
                        },
                        {
                            "internalType": "uint256",
                            "name": "fundsHeld",
                            "type": "uint256"
                        },
                        {
                            "internalType": "uint256",
                            "name": "minimumAge",
                            "type": "uint256"
                        },
                        {
                            "internalType": "uint256",
                            "name": "maxCapacity",
                            "type": "uint256"
                        },
                        {
                            "internalType": "bool",
                            "name": "isCanceled",
                            "type": "bool"
                        },
                        {
                            "internalType": "bool",
                            "name": "fundsReleased",
                            "type": "bool"
                        },
                        {
                            "internalType": "bool",
                            "name": "exists",
                            "type": "bool"
                        },
                        {
                            "internalType": "enum EventChainV2.RefundPolicy",
                            "name": "refundPolicy",
                            "type": "uint8"
                        },
                        {
                            "internalType": "uint256",
                            "name": "refundBufferHours",
                            "type": "uint256"
                        },
                        {
                            "internalType": "address",
                            "name": "paymentToken",
                            "type": "address"
                        }
                    ],
                    "internalType": "struct EventChainV2.Event[]",
                    "name": "",
                    "type": "tuple[]"
                }
            ],
            "stateMutability": "view",
            "type": "function"
        },
        {
            "inputs": [],
            "name": "goodDollarEnabled",
            "outputs": [
                {
                    "internalType": "bool",
                    "name": "",
                    "type": "bool"
                }
            ],
            "stateMutability": "view",
            "type": "function"
        },
        {
            "inputs": [
                {
                    "internalType": "uint256",
                    "name": "",
                    "type": "uint256"
                },
                {
                    "internalType": "address",
                    "name": "",
                    "type": "address"
                }
            ],
            "name": "hasPurchasedTicket",
            "outputs": [
                {
                    "internalType": "bool",
                    "name": "",
                    "type": "bool"
                }
            ],
            "stateMutability": "view",
            "type": "function"
        },
        {
            "inputs": [
                {
                    "internalType": "address[]",
                    "name": "_supportedTokens",
                    "type": "address[]"
                }
            ],
            "name": "initialize",
            "outputs": [],
            "stateMutability": "nonpayable",
            "type": "function"
        },
        {
            "inputs": [
                {
                    "internalType": "address",
                    "name": "_engagementRewards",
                    "type": "address"
                }
            ],
            "name": "initializeV2",
            "outputs": [],
            "stateMutability": "nonpayable",
            "type": "function"
        },
        {
            "inputs": [
                {
                    "internalType": "uint256",
                    "name": "",
                    "type": "uint256"
                },
                {
                    "internalType": "address",
                    "name": "",
                    "type": "address"
                }
            ],
            "name": "isAttendee",
            "outputs": [
                {
                    "internalType": "bool",
                    "name": "",
                    "type": "bool"
                }
            ],
            "stateMutability": "view",
            "type": "function"
        },
        {
            "inputs": [],
            "name": "owner",
            "outputs": [
                {
                    "internalType": "address",
                    "name": "",
                    "type": "address"
                }
            ],
            "stateMutability": "view",
            "type": "function"
        },
        {
            "inputs": [],
            "name": "paused",
            "outputs": [
                {
                    "internalType": "bool",
                    "name": "",
                    "type": "bool"
                }
            ],
            "stateMutability": "view",
            "type": "function"
        },
        {
            "inputs": [
                {
                    "internalType": "address",
                    "name": "",
                    "type": "address"
                },
                {
                    "internalType": "address",
                    "name": "",
                    "type": "address"
                }
            ],
            "name": "pendingWithdrawals",
            "outputs": [
                {
                    "internalType": "uint256",
                    "name": "",
                    "type": "uint256"
                }
            ],
            "stateMutability": "view",
            "type": "function"
        },
        {
            "inputs": [],
            "name": "proxiableUUID",
            "outputs": [
                {
                    "internalType": "bytes32",
                    "name": "",
                    "type": "bytes32"
                }
            ],
            "stateMutability": "view",
            "type": "function"
        },
        {
            "inputs": [
                {
                    "internalType": "uint256",
                    "name": "_index",
                    "type": "uint256"
                }
            ],
            "name": "releaseFunds",
            "outputs": [],
            "stateMutability": "nonpayable",
            "type": "function"
        },
        {
            "inputs": [],
            "name": "renounceOwnership",
            "outputs": [],
            "stateMutability": "nonpayable",
            "type": "function"
        },
        {
            "inputs": [
                {
                    "internalType": "uint256",
                    "name": "_index",
                    "type": "uint256"
                }
            ],
            "name": "requestRefund",
            "outputs": [],
            "stateMutability": "nonpayable",
            "type": "function"
        },
        {
            "inputs": [
                {
                    "internalType": "address",
                    "name": "",
                    "type": "address"
                }
            ],
            "name": "supportedTokens",
            "outputs": [
                {
                    "internalType": "bool",
                    "name": "",
                    "type": "bool"
                }
            ],
            "stateMutability": "view",
            "type": "function"
        },
        {
            "inputs": [],
            "name": "toggleGoodDollar",
            "outputs": [],
            "stateMutability": "nonpayable",
            "type": "function"
        },
        {
            "inputs": [],
            "name": "togglePause",
            "outputs": [],
            "stateMutability": "nonpayable",
            "type": "function"
        },
        {
            "inputs": [
                {
                    "internalType": "address",
                    "name": "newOwner",
                    "type": "address"
                }
            ],
            "name": "transferOwnership",
            "outputs": [],
            "stateMutability": "nonpayable",
            "type": "function"
        },
        {
            "inputs": [
                {
                    "internalType": "uint256",
                    "name": "_index",
                    "type": "uint256"
                },
                {
                    "internalType": "address",
                    "name": "_to",
                    "type": "address"
                }
            ],
            "name": "transferTicket",
            "outputs": [],
            "stateMutability": "nonpayable",
            "type": "function"
        },
        {
            "inputs": [],
            "name": "ubiPool",
            "outputs": [
                {
                    "internalType": "address",
                    "name": "",
                    "type": "address"
                }
            ],
            "stateMutability": "view",
            "type": "function"
        },
        {
            "inputs": [
                {
                    "internalType": "address",
                    "name": "_engagementRewards",
                    "type": "address"
                }
            ],
            "name": "updateEngagementRewards",
            "outputs": [],
            "stateMutability": "nonpayable",
            "type": "function"
        },
        {
            "inputs": [
                {
                    "internalType": "uint256",
                    "name": "_index",
                    "type": "uint256"
                },
                {
                    "internalType": "string",
                    "name": "_eventName",
                    "type": "string"
                },
                {
                    "internalType": "string",
                    "name": "_eventCardImgUrl",
                    "type": "string"
                },
                {
                    "internalType": "string",
                    "name": "_eventDetails",
                    "type": "string"
                },
                {
                    "internalType": "string",
                    "name": "_eventLocation",
                    "type": "string"
                },
                {
                    "internalType": "uint256",
                    "name": "_ticketPrice",
                    "type": "uint256"
                },
                {
                    "internalType": "uint256",
                    "name": "_maxCapacity",
                    "type": "uint256"
                },
                {
                    "internalType": "enum EventChainV2.RefundPolicy",
                    "name": "_refundPolicy",
                    "type": "uint8"
                },
                {
                    "internalType": "uint256",
                    "name": "_refundBufferHours",
                    "type": "uint256"
                }
            ],
            "name": "updateEvent",
            "outputs": [],
            "stateMutability": "nonpayable",
            "type": "function"
        },
        {
            "inputs": [
                {
                    "internalType": "address",
                    "name": "_newPool",
                    "type": "address"
                }
            ],
            "name": "updateUbiPool",
            "outputs": [],
            "stateMutability": "nonpayable",
            "type": "function"
        },
        {
            "inputs": [
                {
                    "internalType": "address",
                    "name": "newImplementation",
                    "type": "address"
                },
                {
                    "internalType": "bytes",
                    "name": "data",
                    "type": "bytes"
                }
            ],
            "name": "upgradeToAndCall",
            "outputs": [],
            "stateMutability": "payable",
            "type": "function"
        },
        {
            "inputs": [
                {
                    "internalType": "address",
                    "name": "token",
                    "type": "address"
                }
            ],
            "name": "withdraw",
            "outputs": [],
            "stateMutability": "nonpayable",
            "type": "function"
        },
        {
            "stateMutability": "payable",
            "type": "receive"
        }
    ],
    "bytecode": "0x60a080604052346100ea57306080527ff0c57e16840df040f15088dc2f81fe391c3923bec73e23a9662efc9c229c6a005460ff8160401c166100d9576002600160401b03196001600160401b03821601610073575b6040516153f190816100f082396080518181816134f8015261375d0152f35b6001600160401b0319166001600160401b039081177ff0c57e16840df040f15088dc2f81fe391c3923bec73e23a9662efc9c229c6a005581527fc7f505b2f371ae2175ee4913f4499e1f2633a7b5936321eed1cdaeb6115181d290602090a13880610054565b63f92ee8a960e01b60005260046000fd5b600080fdfe6080806040526004361015610056575b5036156100545760405162461bcd60e51b81526020600482015260166024820152752ab9b290313abcaa34b1b5b2ba10333ab731ba34b7b760511b6044820152606490fd5b005b60003560e01c90816301b58672146143475750806306b051fd146142a25780630b791430146140fe5780630dcaeaf2146121d4578063171e5ba214613f9f5780631ac7896914613f825780631bf23cde14613f355780632002058114613e5057806329b6eca914613cc55780633a5ddf3014613ca75780633f69babd14613b765780634256cae614613b5a578063439fd35f14613b0d5780634d68282f146138fb5780634f1ef2861461372057806350d9c62d1461370357806351cff8d9146135ef57806352668faf1461354f57806352d1902d146134e55780635699c7b114610f825780635c975abb146134c25780635c98dfa114612acd57806360eaa6a5146134a3578063679ebf1a1461316257806367dd74ca14612c4157806368c4ac2614612c025780636d69fcaf14612b555780636fb924bc14612a14578063715018a614612aeb57806371be2e4a14612acd578063775e1e5e14612a4257806384e8d25314612a195780638607498514612a145780638da5cb5b146129de57806395a16d91146129b2578063a06f7da714612989578063a224cee7146126d3578063a4b2409e146121d9578063abf45ec8146121d4578063ad3cb1cc1461218d578063b13eacf91461211f578063b5e41287146120fa578063b98079bc14612067578063c27a500d14611f63578063c2f1cac014611f45578063c4ae316814611f14578063cb71146e14611ef8578063ccfd6d3c14611d72578063cf5ad22314611d43578063d8ff181614611627578063e0c143771461158e578063e53d3e2d14610fd3578063e831be5814610f82578063eb7e4d4414610df9578063f2fde38b14610dd0578063f60e673e14610db45763f8c026b7146102d6573861000f565b34610daf576101c0366003190112610daf576004356001600160401b038111610daf576103079036906004016147ff565b6024356001600160401b038111610daf576103269036906004016147ff565b91906044356001600160401b038111610daf576103479036906004016147ff565b906064356001600160401b0381168103610daf576084356001600160401b0381168103610daf5760a4356001600160401b0381168103610daf5760c435916001600160401b0383168303610daf5760e4356001600160401b038111610daf576103b49036906004016147ff565b9490956003610164351015610daf576101a435976001600160a01b0389168903610daf576103e760ff6000541615614b87565b8a151580610da4575b6103f990614d88565b8b151580610d99575b61040b90614dca565b80151580610d8d575b61041d90614e0b565b86151580610d82575b61042f90614e50565b61010435151580610d6b575b61044490614e9c565b426001600160401b03841610610d2657610e106001600160401b03841601806001600160401b03851611610be7576001600160401b03851610610ce1576301e133806001600160401b03841601806001600160401b03851611610be7576001600160401b03851611610c9c5760966101243511610c6157600161014435101580610c51575b6104d290614edf565b6001600160a01b03891660009081526003602052604090205460ff1615610c0c578c996105056002610164351115614f1e565b60026101643514610b91575b6001549c6040519b6105228d6143d0565b338d528d36906105319261473d565b60208d015236906105419261473d565b60408b015236906105519261473d565b60608901526001600160401b031660808801526001600160401b031660a08701526001600160401b031660c08601526001600160401b031660e085015236906105999261473d565b61010083015260016101208301819052610104356101408401526000610160840181905261012435610180850152610144356101a08501526101c084018190526101e08401526102008301526105f661016435610220840161497b565b610184356102408301526001600160a01b039081166102608301526000848152600460209081526040909120835181546001600160a01b03191693169290921782558201518051919291906001600160401b0382116109a057610669826106606001870154614396565b60018701615001565b602090601f8311600114610b205761069a9291600091836109cc575b50508160011b916000199060031b1c19161790565b60018301555b60408101518051906001600160401b0382116109a0576106d0826106c76002870154614396565b60028701615001565b602090601f8311600114610aaf576107009291600091836109cc5750508160011b916000199060031b1c19161790565b60028301555b60608101518051906001600160401b0382116109a0576107368261072d6003870154614396565b60038701615001565b602090601f8311600114610a3e576107669291600091836109cc5750508160011b916000199060031b1c19161790565b60038301555b60808181015160a083015160c08085015160e086015160409390931b6fffffffffffffffff0000000000000000166001600160401b0394851617941b67ffffffffffffffff60801b1693909317921b6001600160c01b0319169190911760048401556101008201518051600585019290919082116109a0576107f8826107f28554614396565b85615001565b602090601f83116001146109d7576108289291600091836109cc5750508160011b916000199060031b1c19161790565b90555b61084b6101208201511515600684019060ff801983541691151516179055565b6101408101516007830155610160810151600883015561018081015160098301556101a0810151600a830155600b8201906108996101c08201511515839060ff801983541691151516179055565b6101e0810151825461020083015162ffff001990911691151560081b61ff00169190911790151560101b62ff0000161782556102208101519160038310156109b657600d926108e791615053565b610240810151600c8401556102600151910180546001600160a01b0319166001600160a01b039290921691909117905533600090815260086020526040902080549091600160401b8210156109a05761096a827ffc695dea2478fb938a11068aeedddd7046a5fe655f136e30a325d353fe187a4594600161099b95018155614ccd565b81549060031b9086821b91600019901b191617905561098a60015461482c565b600155604051918291339683615076565b0390a3005b634e487b7160e01b600052604160045260246000fd5b634e487b7160e01b600052602160045260246000fd5b015190503880610685565b90601f1983169184600052816000209260005b818110610a265750908460019594939210610a0d575b505050811b01905561082b565b015160001960f88460031b161c19169055388080610a00565b929360206001819287860151815501950193016109ea565b91906003850160005280600020906000935b601f1984168510610a94576001945083601f19811610610a7b575b505050811b01600383015561076c565b015160001960f88460031b161c19169055388080610a6b565b81810151835560209485019460019093019290910190610a50565b91906002850160005280600020906000935b601f1984168510610b05576001945083601f19811610610aec575b505050811b016002830155610706565b015160001960f88460031b161c19169055388080610adc565b81810151835560209485019460019093019290910190610ac1565b91906001850160005280600020906000935b601f1984168510610b76576001945083601f19811610610b5d575b505050811b0160018301556106a0565b015160001960f88460031b161c19169055388080610b4d565b81810151835560209485019460019093019290910190610b32565b61018435159a508a1580610bfd575b610ba990614f62565b610bbc426001600160401b038616614ce5565b9a610e10610184350290610184358204610e10141715610be7578e9b610be29110614fa6565b610511565b634e487b7160e01b600052601160045260246000fd5b506102d0610184351115610ba0565b60405162461bcd60e51b815260206004820152601960248201527f556e737570706f72746564207061796d656e7420746f6b656e000000000000006044820152606490fd5b50620186a06101443511156104c9565b60405162461bcd60e51b8152602060048201526013602482015272496e76616c6964206d696e696d756d2061676560681b6044820152606490fd5b60405162461bcd60e51b815260206004820152601760248201527f4576656e74206475726174696f6e20746f6f206c6f6e670000000000000000006044820152606490fd5b60405162461bcd60e51b815260206004820152601860248201527f4576656e74206475726174696f6e20746f6f2073686f727400000000000000006044820152606490fd5b60405162461bcd60e51b815260206004820152601c60248201527f53746172742064617465206d75737420626520696e20667574757265000000006044820152606490fd5b5069d3c21bcecceda100000061010435111561043b565b506096871115610426565b506103e8811115610414565b5060c88c1115610402565b5060648b11156103f0565b600080fd5b34610daf576000366003190112610daf57602060405160008152f35b34610daf576020366003190112610daf57610054610dec61436a565b610df4615114565b61509e565b34610daf576020366003190112610daf57600435610e15615114565b610e1d61514a565b806000526004602052604060002090600b8201805492610e4260ff8560101c16614bc5565b6001600160401b03600482015460401c166276a7008101809111610be757421115610f325760008051602061531c83398151915292602092610e8a60ff8760081c1615614c08565b61010060088401966000885498610ea28a1515614c5a565b5561ff00191617905581546001600160a01b039081166000908152600b85526040808220600d8601549093168252918552208054610ee1908790614c4d565b90557f99010623e00d801536d5e2da7de373bda9592873b6d101d65738aa2582e6452283604051878152a2546040519384526001600160a01b031692a2600160008051602061537c83398151915255005b60405162461bcd60e51b815260206004820152602260248201527f456d657267656e6379207769746864726177616c2064656c6179206e6f74206d604482015261195d60f21b6064820152608490fd5b34610daf576040366003190112610daf57610f9b61436a565b610fa3614380565b6001600160a01b039182166000908152600b60209081526040808320949093168252928352819020549051908152f35b6060366003190112610daf576004356024356044356001600160401b038111610daf57611004903690600401614774565b9061100d61514a565b82600052600460205261102d60ff600b6040600020015460101c16614b03565b600083815260046020526040902054611050906001600160a01b03161515614b45565b61105f60ff6000541615614b87565b82600052600460205260406000206001600160401b036004820154164210156115495761109260ff600683015416614d46565b600084815260096020908152604080832033845290915290205460ff1661150957836000526007602052604060002054600a82015411156114c8576007810154600d82015490916001600160a01b03909116908161136f57823403611332576008016110ff838254614c4d565b90555b6000858152600960209081526040808320338085529083528184208054600160ff1991821681179092558a86526005855283862083875285528386208054909116909117905588845260068084528285208054600a86528487209387529285529285208290559389905292909152600160401b8210156109a0578161118f9160016111ad94018155614ccd565b81546001600160a01b0360039290921b91821b19163390911b179055565b84600052600760205260406000206111c5815461482c565b90556040519182526020820152837f504ef6dabca28c1452704d54bd8e25708d87e0c27d852eceea53a0c0d898675860403393a3600c549160ff8360a01c1680611320575b8061130d575b611229575b600160008051602061537c83398151915255005b611267926020926000604051809681958294637272de3d60e11b845233600485015284602485015260448401526080606484015260848301906144b1565b03926001600160a01b03165af180916000916112cb575b50906112aa5750604051600081526000805160206152fc83398151915260203392a35b80808080611215565b60405190151581526000805160206152fc83398151915260203392a36112a1565b6020813d602011611305575b816112e4602093836143ec565b8101031261130157519081151582036112fe57508361127e565b80fd5b5080fd5b3d91506112d7565b5081151580611210575080511515611210565b506001600160a01b038316151561120a565b60405162461bcd60e51b8152602060048201526015602482015274125b98dbdc9c9958dd0810d15313c8185b5bdd5b9d605a1b6044820152606490fd5b7362b8b11039fcfe5ab0c56e502b1c372a3d2a9c7a82036114585734611413576064830283810460641484151715610be75760086127106113db9204926113b68487614ce5565b936113c387303389615228565b801515806113ff575b6113e2575b5001918254614c4d565b9055611102565b6002546113f991906001600160a01b031687615186565b896113d1565b506002546001600160a01b031615156113cc565b60405162461bcd60e51b815260206004820152601f60248201527f446f6e27742073656e642043454c4f2077697468204724207061796d656e74006044820152606490fd5b346114785760089061146c84303386615228565b016113db838254614c4d565b60405162461bcd60e51b815260206004820152602260248201527f446f6e27742073656e642043454c4f207769746820746f6b656e207061796d656044820152611b9d60f21b6064820152608490fd5b60405162461bcd60e51b81526020600482015260196024820152784576656e74206174206d6178696d756d20636170616369747960381b6044820152606490fd5b60405162461bcd60e51b8152602060048201526018602482015277151a58dad95d08185b1c9958591e481c1d5c98da185cd95960421b6044820152606490fd5b60405162461bcd60e51b815260206004820152601c60248201527f4576656e74206861732073746172746564206f722065787069726564000000006044820152606490fd5b34610daf576020366003190112610daf5760043580600052600460205260ff600b6040600020015460101c16156115ef5760005260066020526115eb6115d76040600020614cf2565b6040519182916020835260208301906147c2565b0390f35b60405162461bcd60e51b815260206004820152601060248201526f125b9d985b1a5908195d995b9d08125160821b6044820152606490fd5b34610daf57610120366003190112610daf576024356001600160401b038111610daf576116589036906004016147ff565b906044356001600160401b038111610daf576116789036906004016147ff565b906064356001600160401b038111610daf576116989036906004016147ff565b906084356001600160401b038111610daf576116b89036906004016147ff565b92909360a4359560c43596600360e4351015610daf5760043560005260046020526116f160018060a01b03604060002054163314614ac5565b600435600052600460205261171360ff600b6040600020015460101c16614b03565b600435600052600460205261173660018060a01b03604060002054161515614b45565b61174560ff6000541615614b87565b600435600052600460205260406000209761176660ff60068b015416614d46565b6001600160401b0360048a0154169182421015611d06578b151580611cfb575b61178f90614d88565b83151580611cf0575b6117a190614dca565b85151580611ce4575b6117b390614e0b565b87151580611cd9575b6117c590614e50565b60078a0180548203611c42575b5050600a890180548203611bbe575b50506117f2600260e4351115614f1e565b600260e43514611b65575b506001600160401b0389116109a0576118268961181d60018a0154614396565b60018a01615001565b600089601f8111600114611afb578061185592600091611af0575b508160011b916000199060031b1c19161790565b60018801555b60028701916001600160401b0382116109a05761187c826107f28554614396565b600090601f8311600114611a8c576118ac929160009183611a815750508160011b916000199060031b1c19161790565b90555b60038501916001600160401b0382116109a0576118d0826107f28554614396565b600090601f8311600114611a1d57611900929160009183611a125750508160011b916000199060031b1c19161790565b90555b60058301916001600160401b0382116109a057611924826107f28554614396565b600090601f83116001146119ae576119549291600091836119a35750508160011b916000199060031b1c19161790565b90555b61196660e435600b8301615053565b600c610104359101557fdc95c3f54791d672d64eda50093741a6fbfcd4ef21c1c646655be46fc63b930d6040518061099b33956004359583615076565b013590508780610685565b8382526020822091601f198416815b8181106119fa57509084600195949392106119e0575b505050811b019055611957565b0135600019600384901b60f8161c191690558680806119d3565b919360206001819287870135815501950192016119bd565b013590508980610685565b8382526020822091601f198416815b818110611a695750908460019594939210611a4f575b505050811b019055611903565b0135600019600384901b60f8161c19169055888080611a42565b91936020600181928787013581550195019201611a2c565b013590508b80610685565b8382526020822091601f198416815b818110611ad85750908460019594939210611abe575b505050811b0190556118af565b0135600019600384901b60f8161c191690558a8080611ab1565b91936020600181928787013581550195019201611a9b565b90508a01358c611841565b5060018801815260208120908a601f198116825b8c828210611b4b57505010611b31575b5050600189811b01600188015561185b565b89013560001960038c901b60f8161c191690558980611b1f565b84013585556001909401936020938401938e935001611b0f565b611b86610104351591821580611baf575b611b7f90614f62565b4290614ce5565b610e10610104350291610104358304610e10141715610be757611ba99110614fa6565b896117fd565b506102d0610104351115611b76565b600182101580611c35575b611bd290614edf565b60043560005260076020526040600020548210611bf157558a806117e1565b606460405162461bcd60e51b815260206004820152602060248201527f43617061636974792062656c6f772063757272656e7420617474656e646565736044820152fd5b50620186a0821115611bc9565b6004356000526007602052604060002054611c855781151580611c71575b611c6990614e9c565b558b806117d2565b5069d3c21bcecceda1000000821115611c60565b60405162461bcd60e51b815260206004820152602660248201527f43616e6e6f74206368616e6765207072696365206166746572207469636b65746044820152651cc81cdbdb1960d21b6064820152608490fd5b5060968811156117bc565b506103e88611156117aa565b5060c8841115611798565b5060648c1115611786565b60405162461bcd60e51b8152602060048201526015602482015274115d995b9d08185b1c9958591e481cdd185c9d1959605a1b6044820152606490fd5b34610daf576000366003190112610daf5760206040517362b8b11039fcfe5ab0c56e502b1c372a3d2a9c7a8152f35b34610daf576000366003190112610daf576001546000805b828110611e795750611da4611d9e8261483b565b91614901565b916000805b828110611dc2575050506115eb604051928392836146fa565b80600052600460205260ff600b6040600020015460101c1680611e5a575b80611e3f575b611df3575b600101611da9565b90611e378183611e0560019488614951565b52836000526004602052611e1c6040600020614987565b611e268289614951565b52611e318188614951565b5061482c565b919050611deb565b5080600052600460205260ff60066040600020015416611de6565b5080600052600460205260018060a01b03604060002054163314611de0565b80600052600460205260ff600b6040600020015460101c1680611ed9575b80611ebe575b611eaa575b600101611d8a565b90611eb660019161482c565b919050611ea2565b5080600052600460205260ff60066040600020015416611e9d565b5080600052600460205260018060a01b03604060002054163314611e97565b34610daf576000366003190112610daf57602060405160c88152f35b34610daf576000366003190112610daf57611f2d615114565b60005460ff80821615169060ff191617600055600080f35b34610daf576000366003190112610daf5760206040516276a7008152f35b34610daf576000366003190112610daf576001546000805b82811061200d5750611f8f611d9e8261483b565b916000805b828110611fad575050506115eb604051928392836146fa565b80600052600460205260ff600b6040600020015460101c1680611ff2575b611fd8575b600101611f94565b90611fea8183611e0560019488614951565b919050611fd0565b5080600052600460205260ff60066040600020015416611fcb565b80600052600460205260ff600b6040600020015460101c168061204c575b612038575b600101611f7b565b9061204460019161482c565b919050612030565b5080600052600460205260ff6006604060002001541661202b565b34610daf576020366003190112610daf576120ec60043561208661486d565b508060005260046020526120a760ff600b6040600020015460101c16614bc5565b80600052600460205260406000209060005260066020526115eb6120d86120d2604060002093614987565b92614cf2565b60405193849360408552604085019061454f565b9083820360208501526147c2565b34610daf576000366003190112610daf57602060405169d3c21bcecceda10000008152f35b34610daf576000366003190112610daf57612138615114565b7fc9ebee48198251fea61ee19859fca30d3e55c53836863d88e058b50cb1a079436020600c5460ff60a01b60ff8260a01c161560a01b169060ff60a01b19161780600c5560ff6040519160a01c1615158152a1005b34610daf576000366003190112610daf576115eb60408051906121b081836143ec565b60058252640352e302e360dc1b6020830152519182916020835260208301906144b1565b6144ff565b34610daf576020366003190112610daf576004356121f561514a565b80600052600460205261221560ff600b6040600020015460101c16614b03565b600081815260046020526040902054612238906001600160a01b03161515614b45565b61224760ff6000541615614b87565b600081815260096020908152604080832033845290915290205460ff16156126985760008181526004602052604090206007810154600d8201805491939290916001600160a01b03167362b8b11039fcfe5ab0c56e502b1c372a3d2a9c7a1461267a575b60088101908482541061263557600b81015460ff8116156124d6575b5050600083815260096020908152604080832033808552908352818420805460ff19908116909155878552600584528285209185529252909120805490911690558054612315908590614ce5565b9055816000526007602052604060002080548015610be757600019019055816000526006602052604060002082600052600a602052604060002060018060a01b03331660005260205260406000205481546000198101908111610be75780820361245e575b5050805480156124485760001901906123938282614ccd565b81546001600160a01b0360039290921b82901b19169091559190556000838152600a602090815260408083203384528252808320839055600b82528083209454909316825292909252902080546123eb908490614c4d565b9055604051908282527f7a482fdeb6bc9a1376f597068a214a7a39472bb2eff1b8cad21ba04f49ddca1b60203393a360405190815260008051602061531c83398151915260203392a2600160008051602061537c83398151915255005b634e487b7160e01b600052603160045260246000fd5b6124689083614ccd565b905460039190911b1c6001600160a01b03166124ac816124888486614ccd565b81546001600160a01b0393841660039290921b91821b9390911b1916919091179055565b84600052600a60205260406000209060018060a01b0316600052602052604060002055848061237a565b60181c60ff1660038110156109b6578061253a5760405162461bcd60e51b815260206004820152602260248201527f526566756e6473206e6f7420616c6c6f77656420666f722074686973206576656044820152611b9d60f21b6064820152608490fd5b600181036125a45750600401546001600160401b031642101561255f575b84806122c7565b60405162461bcd60e51b815260206004820152601760248201527f526566756e6420706572696f642068617320656e6465640000000000000000006044820152606490fd5b6002146125b2575b50612558565b600c6001600160401b03600483015416910154610e10810290808204610e101490151715610be7576125e391614ce5565b4210156125f057846125ac565b60405162461bcd60e51b815260206004820152601e60248201527f526566756e642062756666657220706572696f642068617320656e64656400006044820152606490fd5b60405162461bcd60e51b815260206004820152601e60248201527f496e73756666696369656e742066756e647320696e20636f6e747261637400006044820152606490fd5b92606381029080820460631490151715610be75760649004926122ab565b60405162461bcd60e51b8152602060048201526013602482015272139bc81d1a58dad95d081c1d5c98da185cd959606a1b6044820152606490fd5b34610daf576020366003190112610daf576004356001600160401b038111610daf5736602382011215610daf57806004013561270e816147ab565b9161271c60405193846143ec565b8183526024602084019260051b82010190368211610daf57602401915b818310612969578360008051602061539c83398151915254906001600160401b0360ff8360401c1615921680159081612961575b6001149081612957575b15908161294e575b5061293d578160016001600160401b031960008051602061539c83398151915254161760008051602061539c8339815191525561290b575b6127bf61526c565b6127c761526c565b600160008051602061537c833981519152556127e161526c565b6127e961526c565b6127f23361509e565b6127fa61526c565b600080805260036020527f3617319a054d772f909f7c479a2cebe5066e836a939412e32403c99029b92eff805460ff19166001179055600280546001600160a01b0319167343d72ff17701b2da814620735c39c620ce0ea4a11790555b81518110156128b0576001906001600160a01b036128758285614951565b5116612882575b01612857565b818060a01b036128928285614951565b5116600052600360205260406000208260ff1982541617905561287c565b826128b757005b60ff60401b1960008051602061539c833981519152541660008051602061539c833981519152557fc7f505b2f371ae2175ee4913f4499e1f2633a7b5936321eed1cdaeb6115181d2602060405160018152a1005b600160401b60ff60401b1960008051602061539c83398151915254161760008051602061539c833981519152556127b7565b63f92ee8a960e01b60005260046000fd5b9050158361277f565b303b159150612777565b83915061276d565b82356001600160a01b0381168103610daf57815260209283019201612739565b34610daf576000366003190112610daf576002546040516001600160a01b039091168152602090f35b34610daf576020366003190112610daf5760043560005260076020526020604060002054604051908152f35b34610daf576000366003190112610daf5760008051602061533c833981519152546040516001600160a01b039091168152602090f35b61478f565b34610daf576000366003190112610daf57600c546040516001600160a01b039091168152602090f35b34610daf576020366003190112610daf576001600160a01b03612a6361436a565b166000526008602052604060002060405190816020825491828152019160005260206000209060005b818110612ab7576115eb85612aa3818703826143ec565b60405191829160208352602083019061451b565b8254845260209093019260019283019201612a8c565b34610daf576000366003190112610daf576020600154604051908152f35b34610daf576000366003190112610daf57612b04615114565b60008051602061533c83398151915280546001600160a01b031981169091556000906001600160a01b03167f8be0079c531659141344cd1fd0a4f28419497f9722a3daafe3b4186f6b6457e08280a3005b34610daf576020366003190112610daf57612b6e61436a565b612b76615114565b6001600160a01b03168015612bc5578060005260036020526040600020600160ff198254161790557fd1be2e90bd3d24839d9dd94ad871068e1f9688b02fa43f2a62c9975dfa9de2d7600080a2005b60405162461bcd60e51b8152602060048201526015602482015274496e76616c696420746f6b656e206164647265737360581b6044820152606490fd5b34610daf576020366003190112610daf576001600160a01b03612c2361436a565b166000526003602052602060ff604060002054166040519015158152f35b6020366003190112610daf57600435612c5861514a565b806000526004602052612c7860ff600b6040600020015460101c16614b03565b600081815260046020526040902054612c9b906001600160a01b03161515614b45565b612caa60ff6000541615614b87565b6020604051612cb982826143ec565b60008152601f1982013683830137826000526004825260406000206001600160401b0360048201541642101561311d57612cf960ff600683015416614d46565b6000848152600984526040808220338352855290205460ff166130dd578360005260078352604060002054600a820154111561309c576007810154600d82015490916001600160a01b039091169081612f9957823403612f5c57600801612d61838254614c4d565b90555b6000858152600985526040808220338084529087528183208054600160ff19918216811790925589855260058952838520838652895283852080549091169091179055878352600680885282842054898552600a89528385209285529188528284209190915587835286529020805490600160401b8210156109a0578161118f916001612df394018155614ccd565b84600052600784526040600020612e0a815461482c565b905560405191825283820152837f504ef6dabca28c1452704d54bd8e25708d87e0c27d852eceea53a0c0d898675860403393a3600c5460ff8160a01c1680612f4a575b80612f40575b612e6b57600160008051602061537c83398151915255005b612ea98391600093604051948580948193637272de3d60e11b83523360048401528360248401528360448401526080606484015260848301906144b1565b03926001600160a01b03165af18091600091612f0a575b5090612eea57506000805160206152fc83398151915260405191600083523392a380808080611215565b604051901515815233916000805160206152fc83398151915291a36112a1565b8381813d8311612f39575b612f1f81836143ec565b8101031261130157519081151582036112fe575084612ec0565b503d612f15565b5081511515612e53565b506001600160a01b0381161515612e4d565b60405162461bcd60e51b8152600481018690526015602482015274125b98dbdc9c9958dd0810d15313c8185b5bdd5b9d605a1b6044820152606490fd5b7362b8b11039fcfe5ab0c56e502b1c372a3d2a9c7a820361302c5734612fe7576064830283810460641484151715610be7576008612710612fe09204926113b68487614ce5565b9055612d64565b60405162461bcd60e51b815260048101869052601f60248201527f446f6e27742073656e642043454c4f2077697468204724207061796d656e74006044820152606490fd5b3461304c5760089061304084303386615228565b01612fe0838254614c4d565b60405162461bcd60e51b815260048101869052602260248201527f446f6e27742073656e642043454c4f207769746820746f6b656e207061796d656044820152611b9d60f21b6064820152608490fd5b60405162461bcd60e51b81526004810184905260196024820152784576656e74206174206d6178696d756d20636170616369747960381b6044820152606490fd5b60405162461bcd60e51b8152600481018490526018602482015277151a58dad95d08185b1c9958591e481c1d5c98da185cd95960421b6044820152606490fd5b60405162461bcd60e51b815260048101849052601c60248201527f4576656e74206861732073746172746564206f722065787069726564000000006044820152606490fd5b34610daf576040366003190112610daf5760043561317e614380565b9061318761514a565b8060005260046020526131a760ff600b6040600020015460101c16614b03565b6000818152600460205260409020546131ca906001600160a01b03161515614b45565b6131d960ff6000541615614b87565b600081815260096020908152604080832033845290915290205460ff1615613466576001600160a01b038216918215613421573383146133dc5781600052600960205260406000208360005260205260ff60406000205416613397578160005260046020526001600160401b036004604060002001541642101561334757600082815260096020908152604080832033808552908352818420805460ff199081169091558785528285208054821660019081179091558786526005855283862083875285528386208054831690558886528386208054909216179055858452600a8352818420908452825280832054858452600690925290912090916132e491612488908490614ccd565b6000828152600a6020908152604080832086845290915280822092909255338082529181208190559091907fd15524263ae66f75c1e604c47db6085085110f23ef7322b355179ac5e3b0783a9080a4600160008051602061537c83398151915255005b60405162461bcd60e51b815260206004820152602260248201527f43616e6e6f74207472616e73666572206166746572206576656e742073746172604482015261747360f01b6064820152608490fd5b60405162461bcd60e51b815260206004820152601c60248201527f526563697069656e7420616c726561647920686173207469636b6574000000006044820152606490fd5b60405162461bcd60e51b815260206004820152601b60248201527f43616e6e6f74207472616e7366657220746f20796f757273656c6600000000006044820152606490fd5b60405162461bcd60e51b815260206004820152601960248201527f496e76616c696420726563697069656e742061646472657373000000000000006044820152606490fd5b60405162461bcd60e51b81526020600482015260156024820152742737903a34b1b5b2ba103a37903a3930b739b332b960591b6044820152606490fd5b34610daf576000366003190112610daf5760206040516301e133808152f35b34610daf576000366003190112610daf57602060ff600054166040519015158152f35b34610daf576000366003190112610daf577f00000000000000000000000000000000000000000000000000000000000000006001600160a01b0316300361353e57602060405160008051602061535c8339815191528152f35b63703e46dd60e11b60005260046000fd5b34610daf576020366003190112610daf5761356861436a565b613570615114565b6001600160a01b031680156135b857600c80546001600160a01b031916821790557f5636deedc33b8c945a7bd30480275ab27eff4bbdd3e4e02031d154ae58ced2e6600080a2005b60405162461bcd60e51b815260206004820152600f60248201526e496e76616c6964206164647265737360881b6044820152606490fd5b34610daf576020366003190112610daf5761360861436a565b61361061514a565b33600052600b602052604060002060018060a01b0382166000526020526040600020549061363f821515614c5a565b336000908152600b602090815260408083206001600160a01b03949094168084529390915281205581816136f3576000808093508092335af1613680614c9d565b50156136b5575b60405190815260008051602061531c83398151915260203392a2600160008051602061537c83398151915255005b60405162461bcd60e51b815260206004820152601660248201527510d15313c81dda5d1a191c985dd85b0819985a5b195960521b6044820152606490fd5b6136fe913390615186565b613687565b34610daf576000366003190112610daf5760206040516103e88152f35b6040366003190112610daf5761373461436a565b6024356001600160401b038111610daf57613753903690600401614774565b6001600160a01b037f0000000000000000000000000000000000000000000000000000000000000000163081149081156138d8575b5061353e57613795615114565b6040516352d1902d60e01b81526001600160a01b0383169290602081600481875afa600091816138a4575b506137da5783634c9c8ce360e01b60005260045260246000fd5b8060008051602061535c8339815191528592036138905750813b1561387c5760008051602061535c83398151915280546001600160a01b031916821790557fbc7cd75a20ee27fd9adebab32041f755214dbc6bffa90cc0225b39da2e5c2d3b600080a28151156138625760008083602061005495519101845af461385c614c9d565b9161529a565b50503461386b57005b63b398979f60e01b60005260046000fd5b634c9c8ce360e01b60005260045260246000fd5b632a87526960e21b60005260045260246000fd5b9091506020813d6020116138d0575b816138c0602093836143ec565b81010312610daf575190856137c0565b3d91506138b3565b60008051602061535c833981519152546001600160a01b03161415905083613788565b34610daf576020366003190112610daf5760043580600052600460205261393060018060a01b03604060002054163314614ac5565b61393861514a565b806000526004602052604060002090600b82019182549261395e60ff8560101c16614bc5565b6001600160401b03600483015460401c16421115613ac85760ff8416613a735761398e60ff8560081c1615614c08565b600882018054948515613a385760009182905561ff00191661010017909155338152600b60209081526040808320600d909401546001600160a01b031683529290522080546139de908490614c4d565b90557f80230996023d69b50793fa73f1919127c9d8e741d3989743c479169f22e7a2886020604051848152a260405190815260008051602061531c83398151915260203392a2600160008051602061537c83398151915255005b60405162461bcd60e51b81526020600482015260136024820152724e6f2066756e647320746f2072656c6561736560681b6044820152606490fd5b60405162461bcd60e51b815260206004820152602760248201527f43616e6e6f742072656c656173652066756e647320666f722063616e63656c656044820152661908195d995b9d60ca1b6064820152608490fd5b60405162461bcd60e51b815260206004820152601760248201527f4576656e7420686173206e6f7420656e646564207965740000000000000000006044820152606490fd5b34610daf576040366003190112610daf57613b26614380565b600435600052600960205260406000209060018060a01b0316600052602052602060ff604060002054166040519015158152f35b34610daf576000366003190112610daf57602060405160018152f35b34610daf576020366003190112610daf57600435806000526004602052613bab60018060a01b03604060002054163314614ac5565b806000526004602052613bcb60ff600b6040600020015460101c16614b03565b600081815260046020526040902054613bee906001600160a01b03161515614b45565b613bfd60ff6000541615614b87565b80600052600460205260ff6006604060002001541615613c6957600081815260046020526040812060068101805460ff19908116909155600b909101805490911660011790557fceaf11772900fe569752a0207c8639fb8228eb8663456dc9eaa3a08f927a87059080a2005b60405162461bcd60e51b81526020600482015260166024820152754576656e7420616c726561647920696e61637469766560501b6044820152606490fd5b34610daf576000366003190112610daf576020604051620186a08152f35b34610daf576020366003190112610daf57613cde61436a565b60008051602061539c8339815191525460ff8160401c16908115613e3b575b5061293d5760008051602061539c8339815191528054600267ffffffffffffffff198216811790925568ffffffffffffffffff191617906001600160a01b03168015613deb57600c80546001600160a81b0319168217600160a01b1790556040517fc9ebee48198251fea61ee19859fca30d3e55c53836863d88e058b50cb1a0794391602091907f5636deedc33b8c945a7bd30480275ab27eff4bbdd3e4e02031d154ae58ced2e6600080a260018152a160008051602061539c833981519152557fc7f505b2f371ae2175ee4913f4499e1f2633a7b5936321eed1cdaeb6115181d2602060405160028152a1005b60405162461bcd60e51b815260206004820152602260248201527f496e76616c696420656e676167656d656e742072657761726473206164647265604482015261737360f01b6064820152608490fd5b600291506001600160401b0316101582613cfd565b34610daf576020366003190112610daf576001600160a01b03613e7161436a565b16600052600860205260406000206040518082602082945493848152019060005260206000209260005b818110613f1c575050613eb0925003826143ec565b613eba8151614901565b9060005b8151811015613f065780613ed460019284614951565b516000526004602052613eea6040600020614987565b613ef48286614951565b52613eff8185614951565b5001613ebe565b604051602080825281906115eb908201866146a1565b8454835260019485019486945060209093019201613e9b565b34610daf576040366003190112610daf57613f4e614380565b600435600052600560205260406000209060018060a01b0316600052602052602060ff604060002054166040519015158152f35b34610daf576000366003190112610daf576020604051610e108152f35b34610daf576020366003190112610daf57613fb861436a565b600080600154905b8181106140935750613fda613fd48361483b565b92614901565b92600090815b838110613ff657604051806115eb8888836146fa565b80600052600460205260ff600b6040600020015460101c1680614067575b614021575b600101613fe0565b9161405f818461403360019489614951565b5284600052600460205261404a6040600020614987565b614054828a614951565b52611e318189614951565b929050614019565b5060008181526009602090815260408083206001600160a01b038616845290915290205460ff16614014565b80600052600460205260ff600b6040600020015460101c16806140d2575b6140be575b600101613fc0565b916140ca60019161482c565b9290506140b6565b5060008181526009602090815260408083206001600160a01b038816845290915290205460ff166140b1565b34610daf576020366003190112610daf576004803560009081526020919091526040902080546001600160a01b03166141396001830161440d565b916141466002820161440d565b6141526003830161440d565b600483015492906141656005830161440d565b93600683015460ff16946007840154600885015490600986015492600a87015494600b88015496600c89015498600160a01b6001900390600d015416996040519d8e9d8e528d602081016102809052610280016141c1916144b1565b8d810360408f01526141d2916144b1565b8c810360608e01526141e3916144b1565b906001600160401b03811660808d01528060401c6001600160401b031660a08d01528060801c6001600160401b031660c08d015260c01c60e08c01528a81036101008c0152614231916144b1565b9715156101208a01526101408901526101608801526101808701526101a086015260ff811615156101c08601528060081c60ff1615156101e08601528060101c60ff16151561020086015261022085019060181c60ff1690614292916144f2565b6102408401526102608301520390f35b34610daf576020366003190112610daf576142bb61436a565b6142c3615114565b6001600160a01b0316801561430b57600280546001600160a01b031916821790557f465736a10b39217ebb28d921cf0384b8f2353cd6153ca97cdb3b763eb8769ba5600080a2005b60405162461bcd60e51b8152602060048201526014602482015273496e76616c696420706f6f6c206164647265737360601b6044820152606490fd5b34610daf576000366003190112610daf5760209060ff600c5460a01c1615158152f35b600435906001600160a01b0382168203610daf57565b602435906001600160a01b0382168203610daf57565b90600182811c921680156143c6575b60208310146143b057565b634e487b7160e01b600052602260045260246000fd5b91607f16916143a5565b61028081019081106001600160401b038211176109a057604052565b90601f801991011681019081106001600160401b038211176109a057604052565b906040519182600082549261442184614396565b808452936001811690811561448f5750600114614448575b50614446925003836143ec565b565b90506000929192526020600020906000915b8183106144735750509060206144469282010138614439565b602091935080600191548385890101520191019091849261445a565b90506020925061444694915060ff191682840152151560051b82010138614439565b919082519283825260005b8481106144dd575050826000602080949584010152601f8019910116010190565b806020809284010151828286010152016144bc565b9060038210156109b65752565b34610daf576000366003190112610daf57602060405160968152f35b906020808351928381520192019060005b8181106145395750505090565b825184526020938401939092019160010161452c565b9060018060a01b0382511681526102606146076145a7614595614583602087015161028060208801526102808701906144b1565b604087015186820360408801526144b1565b606086015185820360608701526144b1565b6001600160401b0360808601511660808501526001600160401b0360a08601511660a08501526001600160401b0360c08601511660c08501526001600160401b0360e08601511660e08501526101008501518482036101008601526144b1565b9261012081015115156101208401526101408101516101408401526101608101516101608401526101808101516101808401526101a08101516101a08401526101c081015115156101c08401526101e081015115156101e084015261020081015115156102008401526146846102208201516102208501906144f2565b61024081810151908401528101516001600160a01b031691015290565b9080602083519182815201916020808360051b8301019401926000915b8383106146cd57505050505090565b90919293946020806146eb600193601f19868203018752895161454f565b970193019301919392906146be565b909161471161471f9360408452604084019061451b565b9160208184039101526146a1565b90565b6001600160401b0381116109a057601f01601f191660200190565b92919261474982614722565b9161475760405193846143ec565b829481845281830111610daf578281602093846000960137010152565b9080601f83011215610daf5781602061471f9335910161473d565b34610daf576000366003190112610daf57602060405160648152f35b6001600160401b0381116109a05760051b60200190565b906020808351928381520192019060005b8181106147e05750505090565b82516001600160a01b03168452602093840193909201916001016147d3565b9181601f84011215610daf578235916001600160401b038311610daf5760208381860195010111610daf57565b6000198114610be75760010190565b90614845826147ab565b61485260405191826143ec565b8281528092614863601f19916147ab565b0190602036910137565b6040519061487a826143d0565b60006102608382815260606020820152606060408201526060808201528260808201528260a08201528260c08201528260e0820152606061010082015282610120820152826101408201528261016082015282610180820152826101a0820152826101c0820152826101e08201528261020082015282610220820152826102408201520152565b9061490b826147ab565b61491860405191826143ec565b8281528092614929601f19916147ab565b019060005b82811061493a57505050565b60209061494561486d565b8282850101520161492e565b80518210156149655760209160051b010190565b634e487b7160e01b600052603260045260246000fd5b60038210156109b65752565b90604051614994816143d0565b82546001600160a01b03168152918290610260906149b46001820161440d565b60208401526149c56002820161440d565b60408401526149d66003820161440d565b606084015260048101546001600160401b03811660808501526001600160401b038160401c1660a08501526001600160401b038160801c1660c085015260c01c60e0840152614a276005820161440d565b61010084015260ff6006820154161515610120840152600781015461014084015260088101546101608401526009810154610180840152600a8101546101a0840152614aa860ff600b83015481811615156101c0870152818160081c1615156101e0870152818160101c16151561020087015260181c16610220850161497b565b600c810154610240840152600d01546001600160a01b0316910152565b15614acc57565b60405162461bcd60e51b815260206004820152600f60248201526e2737ba1032bb32b73a1037bbb732b960891b6044820152606490fd5b15614b0a57565b60405162461bcd60e51b8152602060048201526013602482015272115d995b9d08191bd95cdb89dd08195e1a5cdd606a1b6044820152606490fd5b15614b4c57565b60405162461bcd60e51b81526020600482015260136024820152724576656e74206f776e6572206973207a65726f60681b6044820152606490fd5b15614b8e57565b60405162461bcd60e51b815260206004820152600f60248201526e10dbdb9d1c9858dd081c185d5cd959608a1b6044820152606490fd5b15614bcc57565b60405162461bcd60e51b8152602060048201526014602482015273115d995b9d08191bd95cc81b9bdd08195e1a5cdd60621b6044820152606490fd5b15614c0f57565b60405162461bcd60e51b8152602060048201526016602482015275119d5b991cc8185b1c9958591e481c995b19585cd95960521b6044820152606490fd5b91908201809211610be757565b15614c6157565b60405162461bcd60e51b81526020600482015260146024820152734e6f2066756e647320746f20776974686472617760601b6044820152606490fd5b3d15614cc8573d90614cae82614722565b91614cbc60405193846143ec565b82523d6000602084013e565b606090565b80548210156149655760005260206000200190600090565b91908203918211610be757565b906040519182815491828252602082019060005260206000209260005b818110614d24575050614446925003836143ec565b84546001600160a01b0316835260019485019487945060209093019201614d0f565b15614d4d57565b60405162461bcd60e51b81526020600482015260136024820152724576656e74206973206e6f742061637469766560681b6044820152606490fd5b15614d8f57565b60405162461bcd60e51b8152602060048201526013602482015272092dcecc2d8d2c840dcc2daca40d8cadccee8d606b1b6044820152606490fd5b15614dd157565b60405162461bcd60e51b8152602060048201526012602482015271092dcecc2d8d2c840aaa49840d8cadccee8d60731b6044820152606490fd5b15614e1257565b60405162461bcd60e51b8152602060048201526016602482015275092dcecc2d8d2c840c8cae8c2d2d8e640d8cadccee8d60531b6044820152606490fd5b15614e5757565b60405162461bcd60e51b815260206004820152601760248201527f496e76616c6964206c6f636174696f6e206c656e6774680000000000000000006044820152606490fd5b15614ea357565b60405162461bcd60e51b8152602060048201526014602482015273496e76616c6964207469636b657420707269636560601b6044820152606490fd5b15614ee657565b60405162461bcd60e51b815260206004820152601060248201526f496e76616c696420636170616369747960801b6044820152606490fd5b15614f2557565b60405162461bcd60e51b8152602060048201526015602482015274496e76616c696420726566756e6420706f6c69637960581b6044820152606490fd5b15614f6957565b60405162461bcd60e51b815260206004820152601560248201527424b73b30b634b2103932b33ab73210313ab33332b960591b6044820152606490fd5b15614fad57565b60405162461bcd60e51b815260206004820152602660248201527f526566756e642062756666657220657863656564732074696d6520756e74696c60448201526508195d995b9d60d21b6064820152608490fd5b601f821161500e57505050565b6000526020600020906020601f840160051c83019310615049575b601f0160051c01905b81811061503d575050565b60008155600101615032565b9091508190615029565b9060038110156109b65763ff00000082549160181b169063ff0000001916179055565b90918060409360208452816020850152848401376000828201840152601f01601f1916010190565b6001600160a01b031680156150fe5760008051602061533c83398151915280546001600160a01b0319811683179091556001600160a01b03167f8be0079c531659141344cd1fd0a4f28419497f9722a3daafe3b4186f6b6457e0600080a3565b631e4fbdf760e01b600052600060045260246000fd5b60008051602061533c833981519152546001600160a01b0316330361513557565b63118cdaa760e01b6000523360045260246000fd5b600260008051602061537c833981519152541461517557600260008051602061537c83398151915255565b633ee5aeb560e01b60005260046000fd5b60405163a9059cbb60e01b60208201526001600160a01b039092166024830152604480830193909352918152614446916151c16064836143ec565b906000602091828151910182855af11561521c576000513d61521357506001600160a01b0381163b155b6151f25750565b635274afe760e01b60009081526001600160a01b0391909116600452602490fd5b600114156151eb565b6040513d6000823e3d90fd5b6040516323b872dd60e01b60208201526001600160a01b039283166024820152929091166044830152606480830193909352918152614446916151c16084836143ec565b60ff60008051602061539c8339815191525460401c161561528957565b631afcd79f60e31b60005260046000fd5b906152c057508051156152af57602081519101fd5b63d6bda27560e01b60005260046000fd5b815115806152f2575b6152d1575090565b639996b31560e01b60009081526001600160a01b0391909116600452602490fd5b50803b156152c956fe39242fd528b585418da0d470d664a433a2e2d584e55eff6547fa1746251067f861f4a796c29c0b19830a107f63c010f13bcd46bf2118e1747abc3dedad4c24039016d09d72d40fdae2fd8ceac6b6234c7706214fd39c1cd1e609a0528c199300360894a13ba1a3210667c828492db98dca3e2076cc3735a920a3ca505d382bbc9b779b17422d0df92223018b32b4d1fa46e071723d6817e2486d003becc55f00f0c57e16840df040f15088dc2f81fe391c3923bec73e23a9662efc9c229c6a00a2646970667358221220031d5d19ce0054b99404f2e29e7530c84c7d5da3e5de8574f02baa358fa478cd64736f6c634300081c0033",
    "linkReferences": {},
    "deployedLinkReferences": {}
}