{
    "_format": "hh-sol-artifact-1",
    "contractName": "EventTicketNFT",
    "sourceName": "contracts/EventTicketNFT.sol",
    "abi": [
        {
            "inputs": [],
            "stateMutability": "nonpayable",
            "type": "constructor"
        },
        {
            "inputs": [
                {
                    "internalType": "address",
                    "name": "target",
                    "type": "address"
                }
            ],
            "name": "AddressEmptyCode",
            "type": "error"
        },
        {
            "inputs": [
                {
                    "internalType": "address",
                    "name": "implementation",
                    "type": "address"
                }
            ],
            "name": "ERC1967InvalidImplementation",
            "type": "error"
        },
        {
            "inputs": [],
            "name": "ERC1967NonPayable",
            "type": "error"
        },
        {
            "inputs": [
                {
                    "internalType": "address",
                    "name": "sender",
                    "type": "address"
                },
                {
                    "internalType": "uint256",
                    "name": "tokenId",
                    "type": "uint256"
                },
                {
                    "internalType": "address",
                    "name": "owner",
                    "type": "address"
                }
            ],
            "name": "ERC721IncorrectOwner",
            "type": "error"
        },
        {
            "inputs": [
                {
                    "internalType": "address",
                    "name": "operator",
                    "type": "address"
                },
                {
                    "internalType": "uint256",
                    "name": "tokenId",
                    "type": "uint256"
                }
            ],
            "name": "ERC721InsufficientApproval",
            "type": "error"
        },
        {
            "inputs": [
                {
                    "internalType": "address",
                    "name": "approver",
                    "type": "address"
                }
            ],
            "name": "ERC721InvalidApprover",
            "type": "error"
        },
        {
            "inputs": [
                {
                    "internalType": "address",
                    "name": "operator",
                    "type": "address"
                }
            ],
            "name": "ERC721InvalidOperator",
            "type": "error"
        },
        {
            "inputs": [
                {
                    "internalType": "address",
                    "name": "owner",
                    "type": "address"
                }
            ],
            "name": "ERC721InvalidOwner",
            "type": "error"
        },
        {
            "inputs": [
                {
                    "internalType": "address",
                    "name": "receiver",
                    "type": "address"
                }
            ],
            "name": "ERC721InvalidReceiver",
            "type": "error"
        },
        {
            "inputs": [
                {
                    "internalType": "address",
                    "name": "sender",
                    "type": "address"
                }
            ],
            "name": "ERC721InvalidSender",
            "type": "error"
        },
        {
            "inputs": [
                {
                    "internalType": "uint256",
                    "name": "tokenId",
                    "type": "uint256"
                }
            ],
            "name": "ERC721NonexistentToken",
            "type": "error"
        },
        {
            "inputs": [],
            "name": "FailedCall",
            "type": "error"
        },
        {
            "inputs": [],
            "name": "InvalidInitialization",
            "type": "error"
        },
        {
            "inputs": [],
            "name": "NotInitializing",
            "type": "error"
        },
        {
            "inputs": [
                {
                    "internalType": "address",
                    "name": "owner",
                    "type": "address"
                }
            ],
            "name": "OwnableInvalidOwner",
            "type": "error"
        },
        {
            "inputs": [
                {
                    "internalType": "address",
                    "name": "account",
                    "type": "address"
                }
            ],
            "name": "OwnableUnauthorizedAccount",
            "type": "error"
        },
        {
            "inputs": [],
            "name": "UUPSUnauthorizedCallContext",
            "type": "error"
        },
        {
            "inputs": [
                {
                    "internalType": "bytes32",
                    "name": "slot",
                    "type": "bytes32"
                }
            ],
            "name": "UUPSUnsupportedProxiableUUID",
            "type": "error"
        },
        {
            "anonymous": false,
            "inputs": [
                {
                    "indexed": true,
                    "internalType": "address",
                    "name": "owner",
                    "type": "address"
                },
                {
                    "indexed": true,
                    "internalType": "address",
                    "name": "approved",
                    "type": "address"
                },
                {
                    "indexed": true,
                    "internalType": "uint256",
                    "name": "tokenId",
                    "type": "uint256"
                }
            ],
            "name": "Approval",
            "type": "event"
        },
        {
            "anonymous": false,
            "inputs": [
                {
                    "indexed": true,
                    "internalType": "address",
                    "name": "owner",
                    "type": "address"
                },
                {
                    "indexed": true,
                    "internalType": "address",
                    "name": "operator",
                    "type": "address"
                },
                {
                    "indexed": false,
                    "internalType": "bool",
                    "name": "approved",
                    "type": "bool"
                }
            ],
            "name": "ApprovalForAll",
            "type": "event"
        },
        {
            "anonymous": false,
            "inputs": [
                {
                    "indexed": false,
                    "internalType": "string",
                    "name": "uri",
                    "type": "string"
                }
            ],
            "name": "BaseURIUpdated",
            "type": "event"
        },
        {
            "anonymous": false,
            "inputs": [
                {
                    "indexed": false,
                    "internalType": "uint256",
                    "name": "_fromTokenId",
                    "type": "uint256"
                },
                {
                    "indexed": false,
                    "internalType": "uint256",
                    "name": "_toTokenId",
                    "type": "uint256"
                }
            ],
            "name": "BatchMetadataUpdate",
            "type": "event"
        },
        {
            "anonymous": false,
            "inputs": [
                {
                    "indexed": true,
                    "internalType": "address",
                    "name": "newContract",
                    "type": "address"
                }
            ],
            "name": "EventChainContractUpdated",
            "type": "event"
        },
        {
            "anonymous": false,
            "inputs": [
                {
                    "indexed": false,
                    "internalType": "uint64",
                    "name": "version",
                    "type": "uint64"
                }
            ],
            "name": "Initialized",
            "type": "event"
        },
        {
            "anonymous": false,
            "inputs": [
                {
                    "indexed": false,
                    "internalType": "uint256",
                    "name": "_tokenId",
                    "type": "uint256"
                }
            ],
            "name": "MetadataUpdate",
            "type": "event"
        },
        {
            "anonymous": false,
            "inputs": [
                {
                    "indexed": true,
                    "internalType": "address",
                    "name": "previousOwner",
                    "type": "address"
                },
                {
                    "indexed": true,
                    "internalType": "address",
                    "name": "newOwner",
                    "type": "address"
                }
            ],
            "name": "OwnershipTransferred",
            "type": "event"
        },
        {
            "anonymous": false,
            "inputs": [
                {
                    "indexed": true,
                    "internalType": "uint256",
                    "name": "tokenId",
                    "type": "uint256"
                },
                {
                    "indexed": true,
                    "internalType": "uint256",
                    "name": "eventId",
                    "type": "uint256"
                },
                {
                    "indexed": true,
                    "internalType": "address",
                    "name": "from",
                    "type": "address"
                }
            ],
            "name": "TicketBurned",
            "type": "event"
        },
        {
            "anonymous": false,
            "inputs": [
                {
                    "indexed": true,
                    "internalType": "uint256",
                    "name": "tokenId",
                    "type": "uint256"
                },
                {
                    "indexed": true,
                    "internalType": "uint256",
                    "name": "eventId",
                    "type": "uint256"
                },
                {
                    "indexed": true,
                    "internalType": "address",
                    "name": "to",
                    "type": "address"
                }
            ],
            "name": "TicketMinted",
            "type": "event"
        },
        {
            "anonymous": false,
            "inputs": [
                {
                    "indexed": true,
                    "internalType": "uint256",
                    "name": "tokenId",
                    "type": "uint256"
                },
                {
                    "indexed": true,
                    "internalType": "uint256",
                    "name": "eventId",
                    "type": "uint256"
                },
                {
                    "indexed": true,
                    "internalType": "address",
                    "name": "from",
                    "type": "address"
                },
                {
                    "indexed": false,
                    "internalType": "address",
                    "name": "to",
                    "type": "address"
                }
            ],
            "name": "TicketTransferred",
            "type": "event"
        },
        {
            "anonymous": false,
            "inputs": [
                {
                    "indexed": true,
                    "internalType": "uint256",
                    "name": "tokenId",
                    "type": "uint256"
                },
                {
                    "indexed": false,
                    "internalType": "string",
                    "name": "tokenURI",
                    "type": "string"
                }
            ],
            "name": "TokenURIUpdated",
            "type": "event"
        },
        {
            "anonymous": false,
            "inputs": [
                {
                    "indexed": true,
                    "internalType": "address",
                    "name": "from",
                    "type": "address"
                },
                {
                    "indexed": true,
                    "internalType": "address",
                    "name": "to",
                    "type": "address"
                },
                {
                    "indexed": true,
                    "internalType": "uint256",
                    "name": "tokenId",
                    "type": "uint256"
                }
            ],
            "name": "Transfer",
            "type": "event"
        },
        {
            "anonymous": false,
            "inputs": [
                {
                    "indexed": true,
                    "internalType": "address",
                    "name": "implementation",
                    "type": "address"
                }
            ],
            "name": "Upgraded",
            "type": "event"
        },
        {
            "inputs": [],
            "name": "UPGRADE_INTERFACE_VERSION",
            "outputs": [
                {
                    "internalType": "string",
                    "name": "",
                    "type": "string"
                }
            ],
            "stateMutability": "view",
            "type": "function"
        },
        {
            "inputs": [
                {
                    "internalType": "uint256",
                    "name": "_tokenId",
                    "type": "uint256"
                },
                {
                    "internalType": "string",
                    "name": "_tokenURI",
                    "type": "string"
                }
            ],
            "name": "adminSetTokenURI",
            "outputs": [],
            "stateMutability": "nonpayable",
            "type": "function"
        },
        {
            "inputs": [
                {
                    "internalType": "address",
                    "name": "to",
                    "type": "address"
                },
                {
                    "internalType": "uint256",
                    "name": "tokenId",
                    "type": "uint256"
                }
            ],
            "name": "approve",
            "outputs": [],
            "stateMutability": "nonpayable",
            "type": "function"
        },
        {
            "inputs": [
                {
                    "internalType": "uint256",
                    "name": "",
                    "type": "uint256"
                },
                {
                    "internalType": "address",
                    "name": "",
                    "type": "address"
                }
            ],
            "name": "attendeeTokenId",
            "outputs": [
                {
                    "internalType": "uint256",
                    "name": "",
                    "type": "uint256"
                }
            ],
            "stateMutability": "view",
            "type": "function"
        },
        {
            "inputs": [
                {
                    "internalType": "address",
                    "name": "owner",
                    "type": "address"
                }
            ],
            "name": "balanceOf",
            "outputs": [
                {
                    "internalType": "uint256",
                    "name": "",
                    "type": "uint256"
                }
            ],
            "stateMutability": "view",
            "type": "function"
        },
        {
            "inputs": [],
            "name": "baseTokenURI",
            "outputs": [
                {
                    "internalType": "string",
                    "name": "",
                    "type": "string"
                }
            ],
            "stateMutability": "view",
            "type": "function"
        },
        {
            "inputs": [
                {
                    "internalType": "uint256",
                    "name": "_eventId",
                    "type": "uint256"
                },
                {
                    "internalType": "address",
                    "name": "_from",
                    "type": "address"
                }
            ],
            "name": "burnTicket",
            "outputs": [],
            "stateMutability": "nonpayable",
            "type": "function"
        },
        {
            "inputs": [],
            "name": "eventChainContract",
            "outputs": [
                {
                    "internalType": "address",
                    "name": "",
                    "type": "address"
                }
            ],
            "stateMutability": "view",
            "type": "function"
        },
        {
            "inputs": [
                {
                    "internalType": "uint256",
                    "name": "tokenId",
                    "type": "uint256"
                }
            ],
            "name": "getApproved",
            "outputs": [
                {
                    "internalType": "address",
                    "name": "",
                    "type": "address"
                }
            ],
            "stateMutability": "view",
            "type": "function"
        },
        {
            "inputs": [
                {
                    "internalType": "uint256",
                    "name": "_tokenId",
                    "type": "uint256"
                }
            ],
            "name": "getEventForToken",
            "outputs": [
                {
                    "internalType": "uint256",
                    "name": "",
                    "type": "uint256"
                }
            ],
            "stateMutability": "view",
            "type": "function"
        },
        {
            "inputs": [
                {
                    "internalType": "uint256",
                    "name": "_eventId",
                    "type": "uint256"
                },
                {
                    "internalType": "address",
                    "name": "_holder",
                    "type": "address"
                }
            ],
            "name": "getTokenId",
            "outputs": [
                {
                    "internalType": "uint256",
                    "name": "",
                    "type": "uint256"
                }
            ],
            "stateMutability": "view",
            "type": "function"
        },
        {
            "inputs": [
                {
                    "internalType": "uint256",
                    "name": "",
                    "type": "uint256"
                },
                {
                    "internalType": "address",
                    "name": "",
                    "type": "address"
                }
            ],
            "name": "hasToken",
            "outputs": [
                {
                    "internalType": "bool",
                    "name": "",
                    "type": "bool"
                }
            ],
            "stateMutability": "view",
            "type": "function"
        },
        {
            "inputs": [
                {
                    "internalType": "uint256",
                    "name": "_eventId",
                    "type": "uint256"
                },
                {
                    "internalType": "address",
                    "name": "_holder",
                    "type": "address"
                }
            ],
            "name": "holdsTicket",
            "outputs": [
                {
                    "internalType": "bool",
                    "name": "",
                    "type": "bool"
                }
            ],
            "stateMutability": "view",
            "type": "function"
        },
        {
            "inputs": [
                {
                    "internalType": "address",
                    "name": "_eventChainContract",
                    "type": "address"
                }
            ],
            "name": "initialize",
            "outputs": [],
            "stateMutability": "nonpayable",
            "type": "function"
        },
        {
            "inputs": [
                {
                    "internalType": "address",
                    "name": "owner",
                    "type": "address"
                },
                {
                    "internalType": "address",
                    "name": "operator",
                    "type": "address"
                }
            ],
            "name": "isApprovedForAll",
            "outputs": [
                {
                    "internalType": "bool",
                    "name": "",
                    "type": "bool"
                }
            ],
            "stateMutability": "view",
            "type": "function"
        },
        {
            "inputs": [
                {
                    "internalType": "address",
                    "name": "_to",
                    "type": "address"
                },
                {
                    "internalType": "uint256",
                    "name": "_eventId",
                    "type": "uint256"
                }
            ],
            "name": "mintTicket",
            "outputs": [
                {
                    "internalType": "uint256",
                    "name": "",
                    "type": "uint256"
                }
            ],
            "stateMutability": "nonpayable",
            "type": "function"
        },
        {
            "inputs": [],
            "name": "name",
            "outputs": [
                {
                    "internalType": "string",
                    "name": "",
                    "type": "string"
                }
            ],
            "stateMutability": "view",
            "type": "function"
        },
        {
            "inputs": [],
            "name": "owner",
            "outputs": [
                {
                    "internalType": "address",
                    "name": "",
                    "type": "address"
                }
            ],
            "stateMutability": "view",
            "type": "function"
        },
        {
            "inputs": [
                {
                    "internalType": "uint256",
                    "name": "tokenId",
                    "type": "uint256"
                }
            ],
            "name": "ownerOf",
            "outputs": [
                {
                    "internalType": "address",
                    "name": "",
                    "type": "address"
                }
            ],
            "stateMutability": "view",
            "type": "function"
        },
        {
            "inputs": [],
            "name": "proxiableUUID",
            "outputs": [
                {
                    "internalType": "bytes32",
                    "name": "",
                    "type": "bytes32"
                }
            ],
            "stateMutability": "view",
            "type": "function"
        },
        {
            "inputs": [],
            "name": "renounceOwnership",
            "outputs": [],
            "stateMutability": "nonpayable",
            "type": "function"
        },
        {
            "inputs": [
                {
                    "internalType": "address",
                    "name": "from",
                    "type": "address"
                },
                {
                    "internalType": "address",
                    "name": "to",
                    "type": "address"
                },
                {
                    "internalType": "uint256",
                    "name": "tokenId",
                    "type": "uint256"
                }
            ],
            "name": "safeTransferFrom",
            "outputs": [],
            "stateMutability": "nonpayable",
            "type": "function"
        },
        {
            "inputs": [
                {
                    "internalType": "address",
                    "name": "",
                    "type": "address"
                },
                {
                    "internalType": "address",
                    "name": "",
                    "type": "address"
                },
                {
                    "internalType": "uint256",
                    "name": "",
                    "type": "uint256"
                },
                {
                    "internalType": "bytes",
                    "name": "",
                    "type": "bytes"
                }
            ],
            "name": "safeTransferFrom",
            "outputs": [],
            "stateMutability": "pure",
            "type": "function"
        },
        {
            "inputs": [
                {
                    "internalType": "address",
                    "name": "operator",
                    "type": "address"
                },
                {
                    "internalType": "bool",
                    "name": "approved",
                    "type": "bool"
                }
            ],
            "name": "setApprovalForAll",
            "outputs": [],
            "stateMutability": "nonpayable",
            "type": "function"
        },
        {
            "inputs": [
                {
                    "internalType": "string",
                    "name": "_uri",
                    "type": "string"
                }
            ],
            "name": "setBaseURI",
            "outputs": [],
            "stateMutability": "nonpayable",
            "type": "function"
        },
        {
            "inputs": [
                {
                    "internalType": "address",
                    "name": "_newContract",
                    "type": "address"
                }
            ],
            "name": "setEventChainContract",
            "outputs": [],
            "stateMutability": "nonpayable",
            "type": "function"
        },
        {
            "inputs": [
                {
                    "internalType": "uint256",
                    "name": "_eventId",
                    "type": "uint256"
                },
                {
                    "internalType": "address",
                    "name": "_holder",
                    "type": "address"
                },
                {
                    "internalType": "string",
                    "name": "_tokenURI",
                    "type": "string"
                }
            ],
            "name": "setTicketURI",
            "outputs": [],
            "stateMutability": "nonpayable",
            "type": "function"
        },
        {
            "inputs": [
                {
                    "internalType": "bytes4",
                    "name": "interfaceId",
                    "type": "bytes4"
                }
            ],
            "name": "supportsInterface",
            "outputs": [
                {
                    "internalType": "bool",
                    "name": "",
                    "type": "bool"
                }
            ],
            "stateMutability": "view",
            "type": "function"
        },
        {
            "inputs": [],
            "name": "symbol",
            "outputs": [
                {
                    "internalType": "string",
                    "name": "",
                    "type": "string"
                }
            ],
            "stateMutability": "view",
            "type": "function"
        },
        {
            "inputs": [
                {
                    "internalType": "uint256",
                    "name": "",
                    "type": "uint256"
                }
            ],
            "name": "ticketEventId",
            "outputs": [
                {
                    "internalType": "uint256",
                    "name": "",
                    "type": "uint256"
                }
            ],
            "stateMutability": "view",
            "type": "function"
        },
        {
            "inputs": [],
            "name": "tokenIdCounter",
            "outputs": [
                {
                    "internalType": "uint256",
                    "name": "",
                    "type": "uint256"
                }
            ],
            "stateMutability": "view",
            "type": "function"
        },
        {
            "inputs": [
                {
                    "internalType": "uint256",
                    "name": "tokenId",
                    "type": "uint256"
                }
            ],
            "name": "tokenURI",
            "outputs": [
                {
                    "internalType": "string",
                    "name": "",
                    "type": "string"
                }
            ],
            "stateMutability": "view",
            "type": "function"
        },
        {
            "inputs": [
                {
                    "internalType": "address",
                    "name": "",
                    "type": "address"
                },
                {
                    "internalType": "address",
                    "name": "",
                    "type": "address"
                },
                {
                    "internalType": "uint256",
                    "name": "",
                    "type": "uint256"
                }
            ],
            "name": "transferFrom",
            "outputs": [],
            "stateMutability": "pure",
            "type": "function"
        },
        {
            "inputs": [
                {
                    "internalType": "address",
                    "name": "newOwner",
                    "type": "address"
                }
            ],
            "name": "transferOwnership",
            "outputs": [],
            "stateMutability": "nonpayable",
            "type": "function"
        },
        {
            "inputs": [
                {
                    "internalType": "uint256",
                    "name": "_eventId",
                    "type": "uint256"
                },
                {
                    "internalType": "address",
                    "name": "_from",
                    "type": "address"
                },
                {
                    "internalType": "address",
                    "name": "_to",
                    "type": "address"
                }
            ],
            "name": "transferTicket",
            "outputs": [],
            "stateMutability": "nonpayable",
            "type": "function"
        },
        {
            "inputs": [
                {
                    "internalType": "address",
                    "name": "newImplementation",
                    "type": "address"
                },
                {
                    "internalType": "bytes",
                    "name": "data",
                    "type": "bytes"
                }
            ],
            "name": "upgradeToAndCall",
            "outputs": [],
            "stateMutability": "payable",
            "type": "function"
        }
    ],
    "bytecode": "0x60a080604052346100ea57306080527ff0c57e16840df040f15088dc2f81fe391c3923bec73e23a9662efc9c229c6a005460ff8160401c166100d9576002600160401b03196001600160401b03821601610073575b60405161290490816100f0823960805181818161139c01526114300152f35b6001600160401b0319166001600160401b039081177ff0c57e16840df040f15088dc2f81fe391c3923bec73e23a9662efc9c229c6a005581527fc7f505b2f371ae2175ee4913f4499e1f2633a7b5936321eed1cdaeb6115181d290602090a13880610054565b63f92ee8a960e01b60005260046000fd5b600080fdfe608080604052600436101561001357600080fd5b60003560e01c90816301ffc9a714611bca575080630566039b14611aeb57806306fdde0314611a29578063081812fc146119de578063095ea7b3146118ec5780630e9785ae1461184d5780631a17aaff1461180557806323b872dd146117ef5780632c76da7f1461163557806338d83040146115f557806342842e0e146115ce5780634f1ef286146113f357806352a7afbe14610d7857806352d1902d1461138957806355f804b3146111b5578063616151a61461113e5780636352211e1461110e5780636f62eedb14610ee357806370a0823114610e91578063715018a614610e275780638763da9e14610dfb5780638da5cb5b14610dc55780639480041614610d7857806395d89b4114610c9157806398bdf6f514610c73578063a22cb46514610bd7578063a5f7f46614610929578063ad3cb1cc146108e2578063b88d4fde1461089a578063bfa48bfe146107ee578063c4d66de8146102a5578063c87b56dd14610286578063d547cfb714610252578063e985e9c514610204578063f15ecd66146101db5763f2fde38b146101ab57600080fd5b346101d65760203660031901126101d6576101d46101c7611c65565b6101cf612304565b6120c8565b005b600080fd5b346101d65760003660031901126101d6576000546040516001600160a01b039091168152602090f35b346101d65760403660031901126101d65761021d611c65565b61022e610228611c4f565b91611d29565b9060018060a01b0316600052602052602060ff604060002054166040519015158152f35b346101d65760003660031901126101d65761028261026e611e67565b604051918291602083526020830190611ccb565b0390f35b346101d65760203660031901126101d65761028261026e6004356123b9565b346101d65760203660031901126101d6576102be611c65565b60008051602061288f8339815191525460ff8160401c1615906001600160401b038116801590816107e6575b60011490816107dc575b1590816107d3575b506107c25767ffffffffffffffff19811660011760008051602061288f8339815191525581610795575b506040908151926103378385611d9c565b6011845270115d995b9d10da185a5b88151a58dad95d607a1b60208501528251936103628486611d9c565b60088552671150d51250d2d15560c21b602086015261037f61274f565b61038761274f565b8051906001600160401b038211610662576103b060008051602061280f83398151915254611e2d565b601f8111610723575b50602090601f8311600114610683576103eb929160009183610678575b50508160011b916000199060031b1c19161790565b60008051602061280f833981519152555b83516001600160401b038111610662576104246000805160206128af83398151915254611e2d565b601f81116105f0575b50602094601f821160011461056f576104619293949582916000926105645750508160011b916000199060031b1c19161790565b6000805160206128af833981519152555b61047a61274f565b61048261274f565b61048a61274f565b610493336120c8565b61049b61274f565b6001600160a01b03168015610520576bffffffffffffffffffffffff60a01b60005416176000556104c857005b60207fc7f505b2f371ae2175ee4913f4499e1f2633a7b5936321eed1cdaeb6115181d29168ff00000000000000001960008051602061288f833981519152541660008051602061288f833981519152555160018152a1005b825162461bcd60e51b815260206004820152601a60248201527f496e76616c6964204576656e74436861696e20616464726573730000000000006044820152606490fd5b0151905086806103d6565b601f198216956000805160206128af833981519152600052806000209160005b8881106105d8575083600195969798106105bf575b505050811b016000805160206128af83398151915255610472565b015160001960f88460031b161c191690558580806105a4565b9192602060018192868501518155019401920161058f565b6000805160206128af8339815191526000527ff4bad0a69248f59680a4f2b3000328cec71a413447c96781cfe5996daa8c456e601f830160051c81019160208410610658575b601f0160051c01905b81811061064c575061042d565b6000815560010161063f565b9091508190610636565b634e487b7160e01b600052604160045260246000fd5b0151905087806103d6565b90601f1983169160008051602061280f8339815191526000527f37c58c799b6609234b945e882912ee9ad34948a1dfaa20a97485e1a7752bbf819260005b81811061070b57509084600195949392106106f2575b505050811b0160008051602061280f833981519152556103fc565b015160001960f88460031b161c191690558680806106d7565b929360206001819287860151815501950193016106c1565b60008051602061280f8339815191526000527f37c58c799b6609234b945e882912ee9ad34948a1dfaa20a97485e1a7752bbf81601f840160051c8101916020851061078b575b601f0160051c01905b81811061077f57506103b9565b60008155600101610772565b9091508190610769565b68ffffffffffffffffff1916680100000000000000011760008051602061288f8339815191525582610326565b63f92ee8a960e01b60005260046000fd5b905015846102fc565b303b1591506102f4565b8391506102ea565b346101d65760403660031901126101d6576004356024356001600160401b0381116101d6576108427f931f495b9a8e5d8e61946ea5d61e021f636cfe213a801f97589c18c152e408bd913690600401611c7b565b9061084b612304565b6108676001600160a01b0361085f8661233a565b161515612045565b610872821515611fa0565b610886610880368484611dd8565b8561213e565b61089560405192839283611fd8565b0390a2005b346101d65760803660031901126101d6576108b3611c65565b506108bc611c4f565b506064356001600160401b0381116101d6576108dc903690600401611e0f565b50612000565b346101d65760003660031901126101d65761028260408051906109058183611d9c565b60058252640352e302e360dc1b602083015251918291602083526020830190611ccb565b346101d65760403660031901126101d657610942611c65565b6024359061095b60018060a01b03600054163314611f20565b6001600160a01b0381169182156109728115612088565b81600052600560205260406000208460005260205260ff60406000205416610b9957600154906000198214610b835760018201600155602093604051916109b98684611d9c565b60008352610b6d576001600160a01b036109d38483612669565b16610b57573b610a5a575b50838160005260038452826040600020558260005260048452604060002081600052845281604060002055826000526005845260406000208160005284526040600020600160ff1982541617905560405192827f085ec0eff4bf526b0dd054adffcd8bd8da42126a1133ce302042973f32029fb0600080a48152f35b83610a949160405180938192630a85bd0160e11b835233600484015260006024840152866044840152608060648401526084830190611ccb565b03816000895af18091600091610b12575b5090610ad757505050610ab661277d565b8051919082610ad45783633250574960e11b60005260045260246000fd5b01fd5b929391929091906001600160e01b03191663757a42ff60e11b01610afe57929190846109de565b633250574960e11b60005260045260246000fd5b8581813d8311610b50575b610b278183611d9c565b81010312610b4c5751906001600160e01b031982168203610b49575086610aa5565b80fd5b5080fd5b503d610b1d565b6339e3563760e11b600052600060045260246000fd5b633250574960e11b600052600060045260246000fd5b634e487b7160e01b600052601160045260246000fd5b60405162461bcd60e51b8152602060048201526016602482015275105b1c9958591e481a185cc81d1a58dad95d0813919560521b6044820152606490fd5b346101d65760403660031901126101d657610bf0611c65565b602435908115158092036101d6576001600160a01b0316908115610c5e57610c1733611d29565b82600052602052604060002060ff1981541660ff83161790556040519081527f17307eab39ab6107e8899845ad3d59bd9653f200f220920489ca2b5937696c3160203392a3005b50630b61174360e31b60005260045260246000fd5b346101d65760003660031901126101d6576020600154604051908152f35b346101d65760003660031901126101d65760405160006000805160206128af83398151915254610cc081611e2d565b8084529060018116908115610d545750600114610ce8575b6102828361026e81850382611d9c565b6000805160206128af83398151915260009081527ff4bad0a69248f59680a4f2b3000328cec71a413447c96781cfe5996daa8c456e939250905b808210610d3a5750909150810160200161026e610cd8565b919260018160209254838588010152019101909291610d22565b60ff191660208086019190915291151560051b8401909101915061026e9050610cd8565b346101d65760403660031901126101d657610d91611c4f565b600435600052600560205260406000209060018060a01b0316600052602052602060ff604060002054166040519015158152f35b346101d65760003660031901126101d65760008051602061282f833981519152546040516001600160a01b039091168152602090f35b346101d65760203660031901126101d65760043560005260036020526020604060002054604051908152f35b346101d65760003660031901126101d657610e40612304565b60008051602061282f83398151915280546001600160a01b031981169091556000906001600160a01b03167f8be0079c531659141344cd1fd0a4f28419497f9722a3daafe3b4186f6b6457e08280a3005b346101d65760203660031901126101d657610eaa611c65565b6001600160a01b03811615610ecd57610ec4602091611cf0565b54604051908152f35b6322718ad960e21b600052600060045260246000fd5b346101d65760603660031901126101d657600435610eff611c4f565b604435916001600160a01b038316918284036101d657610f2a60018060a01b03600054163314611f20565b816000526005602052604060002060018060a01b03821660005260205260ff60406000205416156110c95781600052600560205260406000208360005260205260ff6040600020541661108557821593610f848515612088565b60008381526004602090815260408083206001600160a01b03861680855281845282852080549086905588865260058552838620918652818552838620805460ff199081169091558a875292855283862081905593529220805490921660011790915594610b6d576001600160a01b0390611000908690612669565b168061101b5784637e27328960e01b60005260045260246000fd5b8491906001600160a01b0382168082036110695750506040519384526001600160a01b0316927f4586d86ebe25311da2cbbbbbe688eb9746690946c54a7d7b1e808fea000ddac590602090a4005b83906364283d7b60e01b60005260045260245260445260646000fd5b606460405162461bcd60e51b815260206004820152602060248201527f526563697069656e7420616c726561647920686173207469636b6574204e46546044820152fd5b60405162461bcd60e51b815260206004820152601860248201527f53656e64657220686173206e6f207469636b6574204e465400000000000000006044820152606490fd5b346101d65760203660031901126101d657602061112c6004356122d3565b6040516001600160a01b039091168152f35b346101d65760403660031901126101d65760043561115a611c4f565b90806000526005602052604060002060018060a01b03831660005260205261118960ff60406000205416611f5e565b600052600460205260406000209060018060a01b03166000526020526020604060002054604051908152f35b346101d65760203660031901126101d6576004356001600160401b0381116101d6576111e5903690600401611c7b565b6111ed612304565b6001600160401b03811161066257611206600254611e2d565b601f8111611324575b50600091601f82116001146112845761126182807f6741b2fc379fad678116fe3d4d4b9a1a184ab53ba36b86ad0fa66340b1ab41ad95600091611279575b508160011b916000199060031b1c19161790565b6002555b61127460405192839283611fd8565b0390a1005b90508301358661124d565b600283527f405787fa12a823e0f2b7631cc41b3ba8828b3321ca811111fa75cd3aa3bb5ace601f198316845b81811061130c575093837f6741b2fc379fad678116fe3d4d4b9a1a184ab53ba36b86ad0fa66340b1ab41ad95106112f2575b5050600182811b01600255611265565b820135600019600385901b60f8161c1916905583806112e2565b838601358355602095860195600190930192016112b0565b60026000527f405787fa12a823e0f2b7631cc41b3ba8828b3321ca811111fa75cd3aa3bb5ace601f830160051c8101916020841061137f575b601f0160051c01905b818110611373575061120f565b60008155600101611366565b909150819061135d565b346101d65760003660031901126101d6577f00000000000000000000000000000000000000000000000000000000000000006001600160a01b031630036113e257602060405160008051602061284f8339815191528152f35b63703e46dd60e11b60005260046000fd5b60403660031901126101d657611407611c65565b6024356001600160401b0381116101d657611426903690600401611e0f565b6001600160a01b037f0000000000000000000000000000000000000000000000000000000000000000163081149081156115ab575b506113e257611468612304565b6040516352d1902d60e01b81526001600160a01b0383169290602081600481875afa60009181611577575b506114ad5783634c9c8ce360e01b60005260045260246000fd5b8060008051602061284f8339815191528592036115635750813b1561154f5760008051602061284f83398151915280546001600160a01b031916821790557fbc7cd75a20ee27fd9adebab32041f755214dbc6bffa90cc0225b39da2e5c2d3b600080a2815115611535576000808360206101d495519101845af461152f61277d565b916127ad565b50503461153e57005b63b398979f60e01b60005260046000fd5b634c9c8ce360e01b60005260045260246000fd5b632a87526960e21b60005260045260246000fd5b9091506020813d6020116115a3575b8161159360209383611d9c565b810103126101d657519085611493565b3d9150611586565b60008051602061284f833981519152546001600160a01b0316141590508361145b565b346101d6576115dc36611d62565b50505060006040516115ef602082611d9c565b52612000565b346101d65760203660031901126101d65760043561161d6001600160a01b0361085f8361233a565b60005260036020526020604060002054604051908152f35b346101d65760403660031901126101d657600435611651611c4f565b9061166760018060a01b03600054163314611f20565b806000526005602052604060002060018060a01b03831660005260205261169560ff60406000205416611f5e565b60008181526004602090815260408083206001600160a01b03861680855290835281842080549085905585855260058452828520918552908352818420805460ff191690558084526003909252822082905592906116f28461233a565b6001600160a01b038116801592869184156117b0575b8282527f80bb2b638cc20bc4d0a60d66940f3ab4a00c1d7b313497ca82fb0b4ab00793026020526040822080546001600160a01b03191690557fddf252ad1be2c89b69c2b068fc378daa952ba7f163c4a11628f55a4df523b3ef8280a45061179b576001600160a01b0316917f50d459b3df6d4d2831ef5996a57caa721fb381b00bf5309a64f099895047948c600080a4005b82637e27328960e01b60005260045260246000fd5b600083815260008051602061286f8339815191526020526040902080546001600160a01b03191690556117e284611cf0565b8054600019019055611708565b346101d6576117fd36611d62565b505050612000565b346101d65760403660031901126101d65761181e611c4f565b600435600052600460205260406000209060018060a01b03166000526020526020604060002054604051908152f35b346101d65760203660031901126101d657611866611c65565b61186e612304565b6001600160a01b031680156118b557600080546001600160a01b031916821781557f839b6a7a0c087175bc577da7e658629c9001296814285b5d61514ce4923034929080a2005b60405162461bcd60e51b815260206004820152600f60248201526e496e76616c6964206164647265737360881b6044820152606490fd5b346101d65760403660031901126101d657611905611c65565b602435611911816122d3565b331515806119cb575b806119a7575b6119925781906001600160a01b0384811691167f8c5be1e5ebec7d5bd14f71427d1e84f3dd0314c0f7b2291e5b200ac8c7c3b925600080a4600090815260008051602061286f8339815191526020526040902080546001600160a01b0319166001600160a01b03909216919091179055005b63a9fbf51f60e01b6000523360045260246000fd5b506119b181611d29565b336000908152602091909152604090205460ff1615611920565b506001600160a01b03811633141561191a565b346101d65760203660031901126101d6576004356119fb816122d3565b5060005260008051602061286f833981519152602052602060018060a01b0360406000205416604051908152f35b346101d65760003660031901126101d657604051600060008051602061280f83398151915254611a5881611e2d565b8084529060018116908115610d545750600114611a7f576102828361026e81850382611d9c565b60008051602061280f83398151915260009081527f37c58c799b6609234b945e882912ee9ad34948a1dfaa20a97485e1a7752bbf81939250905b808210611ad15750909150810160200161026e610cd8565b919260018160209254838588010152019101909291611ab9565b346101d65760603660031901126101d657600435611b07611c4f565b604435906001600160401b0382116101d657611b487f931f495b9a8e5d8e61946ea5d61e021f636cfe213a801f97589c18c152e408bd923690600401611c7b565b919093611b6060018060a01b03600054163314611f20565b806000526005602052604060002060018060a01b038316600052602052611b8e60ff60406000205416611f5e565b611b99831515611fa0565b600052600460205260406000209060018060a01b031660005260205260406000205492610886610880368484611dd8565b346101d65760203660031901126101d6576004359063ffffffff60e01b82168092036101d657602091632483248360e11b8114908115611c0c575b5015158152f35b6380ac58cd60e01b811491508115611c3e575b8115611c2d575b5083611c05565b6301ffc9a760e01b14905083611c26565b635b5e139f60e01b81149150611c1f565b602435906001600160a01b03821682036101d657565b600435906001600160a01b03821682036101d657565b9181601f840112156101d6578235916001600160401b0383116101d657602083818601950101116101d657565b60005b838110611cbb5750506000910152565b8181015183820152602001611cab565b90602091611ce481518092818552858086019101611ca8565b601f01601f1916010190565b6001600160a01b031660009081527f80bb2b638cc20bc4d0a60d66940f3ab4a00c1d7b313497ca82fb0b4ab00793036020526040902090565b6001600160a01b031660009081527f80bb2b638cc20bc4d0a60d66940f3ab4a00c1d7b313497ca82fb0b4ab00793056020526040902090565b60609060031901126101d6576004356001600160a01b03811681036101d657906024356001600160a01b03811681036101d6579060443590565b90601f801991011681019081106001600160401b0382111761066257604052565b6001600160401b03811161066257601f01601f191660200190565b929192611de482611dbd565b91611df26040519384611d9c565b8294818452818301116101d6578281602093846000960137010152565b9080601f830112156101d657816020611e2a93359101611dd8565b90565b90600182811c92168015611e5d575b6020831014611e4757565b634e487b7160e01b600052602260045260246000fd5b91607f1691611e3c565b6040519060008260025491611e7b83611e2d565b8083529260018116908115611f015750600114611ea1575b611e9f92500383611d9c565b565b506002600090815290917f405787fa12a823e0f2b7631cc41b3ba8828b3321ca811111fa75cd3aa3bb5ace5b818310611ee5575050906020611e9f92820101611e93565b6020919350806001915483858901015201910190918492611ecd565b60209250611e9f94915060ff191682840152151560051b820101611e93565b15611f2757565b60405162461bcd60e51b815260206004820152600f60248201526e27b7363c9022bb32b73a21b430b4b760891b6044820152606490fd5b15611f6557565b60405162461bcd60e51b8152602060048201526013602482015272139bc81d1a58dad95d0813919508199bdd5b99606a1b6044820152606490fd5b15611fa757565b60405162461bcd60e51b8152602060048201526009602482015268456d7074792055524960b81b6044820152606490fd5b90918060409360208452816020850152848401376000828201840152601f01601f1916010190565b60405162461bcd60e51b815260206004820152601d60248201527f557365204576656e74436861696e207472616e736665725469636b65740000006044820152606490fd5b1561204c57565b60405162461bcd60e51b8152602060048201526014602482015273151bdad95b88191bd95cc81b9bdd08195e1a5cdd60621b6044820152606490fd5b1561208f57565b60405162461bcd60e51b8152602060048201526011602482015270125b9d985b1a59081c9958da5c1a595b9d607a1b6044820152606490fd5b6001600160a01b031680156121285760008051602061282f83398151915280546001600160a01b0319811683179091556001600160a01b03167f8be0079c531659141344cd1fd0a4f28419497f9722a3daafe3b4186f6b6457e0600080a3565b631e4fbdf760e01b600052600060045260246000fd5b919091806000527f0542a41881ee128a365a727b282c86fa859579490b9bb45aab8503648c8e7900602052604060002083516001600160401b038111610662576121888254611e2d565b601f811161228b575b506020601f82116001146121ff578160209493926121e8927ff8e1a15aba9398e019f0b49df1a4fde98ee17ae345cb5f6b5e2c27f5033e8ce797986000926121f45750508160011b916000199060031b1c19161790565b90555b604051908152a1565b0151905038806103d6565b601f1982169583600052816000209660005b818110612273575096600192849260209796957ff8e1a15aba9398e019f0b49df1a4fde98ee17ae345cb5f6b5e2c27f5033e8ce7999a1061225a575b505050811b0190556121eb565b015160001960f88460031b161c1916905538808061224d565b83830151895560019098019760209384019301612211565b826000526020600020601f830160051c810191602084106122c9575b601f0160051c01905b8181106122bd5750612191565b600081556001016122b0565b90915081906122a7565b6122dc8161233a565b906001600160a01b038216156122f0575090565b637e27328960e01b60005260045260246000fd5b60008051602061282f833981519152546001600160a01b0316330361232557565b63118cdaa760e01b6000523360045260246000fd5b60009081527f80bb2b638cc20bc4d0a60d66940f3ab4a00c1d7b313497ca82fb0b4ab007930260205260409020546001600160a01b031690565b611e9f90929192602060405194826123958794518092858088019101611ca8565b83016123a982518093858085019101611ca8565b010103601f198101845283611d9c565b6123c2816122d3565b50806000527f0542a41881ee128a365a727b282c86fa859579490b9bb45aab8503648c8e790060205260406000206040519081600082549261240384611e2d565b80845293600181169081156126475750600114612600575b5061242892500382611d9c565b612430611e67565b8051156125fa5781516125f0575050612448816122d3565b50612451611e67565b8051909190600090156125d95750808160009272184f03e93ff9f4daa797ed6e38ed64bf6a1f0160401b8110156125b3575b50806d04ee2d6d415b85acef8100000000600a921015612598575b662386f26fc10000811015612584575b6305f5e100811015612573575b612710811015612564575b6064811015612556575b101561254b575b600a602160018401936124e985611dbd565b946124f76040519687611d9c565b808652612506601f1991611dbd565b013660208701378401015b60001901916f181899199a1a9b1b9c1cb0b131b232b360811b8282061a83530490811561254057600a90612511565b5050611e2a91612374565b6001909101906124d7565b6064600291049301926124d0565b612710600491049301926124c6565b6305f5e100600891049301926124bb565b662386f26fc10000601091049301926124ae565b6d04ee2d6d415b85acef81000000006020910493019261249e565b6040935072184f03e93ff9f4daa797ed6e38ed64bf6a1f0160401b90049050600a612483565b915050604051906125eb602083611d9c565b815290565b611e2a9250612374565b50905090565b90506000929192526020600020906000915b81831061262b575050906020612428928201013861241b565b6020919350806001915483858801015201910190918392612612565b90506020925061242894915060ff191682840152151560051b8201013861241b565b906126738161233a565b916001600160a01b03831680612710575b6001600160a01b03821691826126fa575b5060008381527f80bb2b638cc20bc4d0a60d66940f3ab4a00c1d7b313497ca82fb0b4ab00793026020526040812080546001600160a01b031916841790557fddf252ad1be2c89b69c2b068fc378daa952ba7f163c4a11628f55a4df523b3ef9080a490565b61270390611cf0565b6001815401905538612695565b600083815260008051602061286f8339815191526020526040902080546001600160a01b031916905561274284611cf0565b8054600019019055612684565b60ff60008051602061288f8339815191525460401c161561276c57565b631afcd79f60e31b60005260046000fd5b3d156127a8573d9061278e82611dbd565b9161279c6040519384611d9c565b82523d6000602084013e565b606090565b906127d357508051156127c257602081519101fd5b63d6bda27560e01b60005260046000fd5b81511580612805575b6127e4575090565b639996b31560e01b60009081526001600160a01b0391909116600452602490fd5b50803b156127dc56fe80bb2b638cc20bc4d0a60d66940f3ab4a00c1d7b313497ca82fb0b4ab00793009016d09d72d40fdae2fd8ceac6b6234c7706214fd39c1cd1e609a0528c199300360894a13ba1a3210667c828492db98dca3e2076cc3735a920a3ca505d382bbc80bb2b638cc20bc4d0a60d66940f3ab4a00c1d7b313497ca82fb0b4ab0079304f0c57e16840df040f15088dc2f81fe391c3923bec73e23a9662efc9c229c6a0080bb2b638cc20bc4d0a60d66940f3ab4a00c1d7b313497ca82fb0b4ab0079301a264697066735822122082ff858f1ae9d4b5769cb4ce94591c41f1e26ff8369e32bbfd66b8c66e11b98b64736f6c634300081c0033",
    "linkReferences": {},
    "deployedLinkReferences": {}
}